:020000040800F2
:10000000400B0020196800086B0600086D06000808
:100010007106000875060008790600080000000057
:100020000000000000000000000000007D06000845
:100030007F06000800000000810600088306000813
:100040003368000833680008336800083368000824
:100050003368000833680008336800083368000814
:100060003368000833680008336800083368000804
:1000700033680008336800083368000833680008F4
:10008000336800083368000833680008AD090008C9
:10009000C3090008336800083368000833680008A3
:1000A00033680008336800083368000833680008C4
:1000B00033680008336800083368000833680008B4
:1000C00033680008336800083368000833680008A4
:1000D00033680008DF660008B16700085967000848
:1000E0003368000833680008336800083368000884
:1000F0003368000833680008336800083368000874
:100100003368000833680008336800083368000863
:100110003368000833680008336800083368000853
:100120003368000833680008336800083368000843
:100130003368000833680008336800083368000833
:100140003368000833680008336800083368000823
:10015000336800083368000833680008D96700086E
:100160003368000833680008336800083368000803
:1001700033680008336800083368000833680008F3
:10018000336800083368000800F002F800F03CF81B
:100190000AA090E8000C82448344AAF10107DA45E2
:1001A00001D100F031F8AFF2090EBAE80F0013F0F8
:1001B000010F18BFFB1A43F0010318471CA20000EF
:1001C0003CA20000103A24BF78C878C1FAD8520780
:1001D00024BF30C830C144BF04680C6070470000C1
:1001E0000023002400250026103A28BF78C1FBD840
:1001F000520728BF30C148BF0B6070471FB50AF0D7
:1002000050F81FBD10B510BD08F0CCFD1146FFF72A
:10021000F5FF00F06CF808F0EAFD03B4FFF7F2FF19
:1002200003BC05F0A1FE0000014600220020F74BB0
:1002300018600AE0F648F54B1B6850F823000244AA
:10024000F2480068401CF14B1860F0480068032831
:10025000F0DB022A15D10020EC4B18600DE0EC48D1
:10026000EA4B1B6850F8230010B9E8480068704753
:10027000E6480068401CE54B1860E4480068032825
:10028000EDDB012A13D1012907D1E148406801289B
:1002900001D10020EBE70120E9E7022907D1DC4882
:1002A0000068012801D10220E1E70020DFE73AB928
:1002B000012901D10120DAE7022901D10020D6E786
:1002C00000BFD4E7D3488068002801DD01207047D3
:1002D000D0480068002801DD0020F8E7CD4800691B
:1002E000002801DD0220F2E74FF0FF30EFE72DEDAF
:1002F000048B002600BF00254FF4E13005F041FEDD
:100300004FF4E13005F0E2FE4FF4E13005F08BFEF2
:100310004FF4E13005F02CFFA82005F0A3FD4FF4C9
:10032000A06006F099FA04F0FFF904F01BFA00F05F
:10033000A3FE01F063F900F0ADFA05F0E6F804F071
:1003400096F900270020B4490860804604E0B3EE27
:100350000E0A05F0F2FB8046B8F1000FF7D000BF9F
:100360000020AA49086006E005F09CF8A74800684C
:10037000401CA6490860A548006840F2DC5188424C
:10038000F2DB05F039FCA349886005F028FDA1499E
:10039000086008468068E0BB03200861DFED9F0A23
:1003A0009FED9F0A02F03AFBB0EE408ADFED9B0A18
:1003B0009FED9B0A02F06EFBF0EE408AF0EE481AC9
:1003C000B0EE681ADFED950A9FED940A01F042FC49
:1003D000DFED940A9FED920A02F020FBB0EE408A16
:1003E000DFED900A9FED8E0A02F054FBF0EE408A9A
:1003F000DFED8A0A9FED8A0A02F010FBB0EE409A08
:10040000DFED860A9FED860A02F044FBF0EE409A8B
:1004100000E00CE0F0EE481AB0EE681AF0EE490A7F
:1004200001F018FC00208049086002240AE07948A5
:10043000006818B903207749086102E00020754977
:100440000861032410E1062C7CD2DFE804F07B0372
:100450003E4DC9FA002507E09FED700A734800EB96
:10046000850080ED000A6D1C032DF5DB6A480268EB
:100470006F4801686C48006802F07CFB66480068C1
:10048000F0B90120644908606A48006801280AD16F
:100490006748006818B166480068022803D19FEDDC
:1004A000660A04F0ADF86348006802280BD1604882
:1004B0000068012807D1B9EE0C0A04F0A1F802E0A7
:1004C0000020554908600224CDE0B3EE0E0A05F085
:1004D0002AF807463FB105F018F84F48006808B9F8
:1004E000032400E00424BEE005F086FB49494E4A9F
:1004F000126841F83200AEB94B4A126851F8320026
:1005000005F0F4FB4349484A126801EBC201486018
:1005100040484549096800EBC1004068002808DDF3
:10052000012606E000203B493F4A126801EBC20168
:10053000486038483C49096850F83100002802DC1E
:10054000052490E08DE033483749096800EBC1008D
:100550004068002823DD2F48334A126800EBC200B0
:100560004168012003F0BBFC2A482F49096800EBD1
:10057000C10040682F49086026492B4A126801EBE8
:10058000C2014868FFF750FE294908604FF0FF306C
:100590002049254A126801EBC20148601EE01D484F
:1005A000214A126850F83210002003F098FC1948D4
:1005B0001D49096850F831001E49086015491A4A5A
:1005C000126851F83200FFF72FFE194908604FF00A
:1005D000FF301049144A126841F83200012442E009
:1005E000144801681248006803F072FE01200849AF
:1005F0000F4A126841F82200FFF764FE0A490860BA
:100600000846006800281ADB012419E010000020C9
:100610006C000020540000200C00002000000000AE
:10062000000034C300007A4304000020840300204B
:1006300008000020000000200000944201E0052492
:1006400011E01FED0A2A5FED0B1A1FED0C1A5FED8A
:100650000D0A1FED0E0A01F0C9F9012005F064FC36
:1006600001E0052400BF00BFEDE6704700BFFEE7D4
:1006700000BFFEE700BFFEE700BFFEE77047704720
:10068000704770470CB500200190009076480068D4
:1006900040F480307449086000BF7348006800F47B
:1006A000003000900198401C0190009818B9019802
:1006B000B0F5A04FF1D16C48006800F4003010B1E3
:1006C0000120009001E0002000900098012846D110
:1006D00065484030006840F0805063494031086010
:1006E0006248006840F44040604908605E48083055
:1006F00000685D49083108600846006840F4004021
:1007000008600846006840F4A05008605848091F77
:100710000860081F006840F08070091F086000BF73
:100720005148006800F000700028F9D040F20570D0
:10073000504908604C480830006820F003004A49DE
:10074000083108600846006840F00200086000BFF9
:1007500045480830006800F00C000828F8D10CBDAE
:1007600010B54548006840F47000434908603E48B1
:10077000006840F001003C49086000203A49083117
:100780000860394800683D490840374908603C48DE
:10079000091D0860081F006820F48020091F0860F8
:1007A000002031490C310860FFF76CFF4FF000600A
:1007B00031498039086010BD70B500200022022345
:1007C00000240221284D08352D6805F00C0020B1C9
:1007D000042806D0082834D107E02A4D2A4E356077
:1007E00033E02A4D284E35602FE01F4D2D1D2D681A
:1007F000C5F380541C4D2D1D2D6805F03F0154B1EB
:10080000224DB5FBF1F5184E361D3668C6F3881635
:1008100005FB06F209E01B4DB5FBF1F5124E361D46
:100820003668C6F3881605FB06F20F4D2D1D2D68A0
:10083000C5F301456D1C6B00B2FBF3F5124E35603C
:1008400003E0104D104E356000BF00BF064D083567
:100850002D68C5F303150E4E705D0B4D2D68C54018
:10086000094E356070BD0000003802400070004045
:1008700008544007003C024088ED00E0FFFFF6FE10
:10088000103000240024F4001400002000127A002C
:100890001800002000B58BB00121084606F070FB5F
:1008A0000121480606F0B5FB4FF4C0500990022024
:1008B0008DF8280000208DF82A0003208DF82900EB
:1008C00001208DF82B0009A9FE4806F0BBF809228B
:1008D0000B21FC4806F041F909220C21F94806F0E9
:1008E0003CF9F94806F0CAFE06A806F0EBFF002026
:1008F0008DF81E008DF81F008DF8200001208DF866
:10090000210000208DF822008DF823008DF81A00B8
:100910008DF81B0008208DF81C0003208DF81D00A9
:10092000ADF8180006A9E84806F0C1FE00208DF8D1
:1009300012008DF8130001208DF814000020ADF88E
:100940000800ADF80A00ADF80C00ADF80E00ADF8E7
:10095000100001208DF8150002A806F032FF0122D8
:100960000221D94807F02CFA01221146D64807F097
:1009700027FA14208DF8040002208DF805000120CC
:100980008DF806008DF8070001A805F06AFF132016
:100990008DF8040001208DF805008DF806008DF813
:1009A000070001A805F05DFF0BB000BD10B50121E7
:1009B000C54807F06DFA18B10121C34807F003FBE1
:1009C00010BD00B52DED048B93B00EAA0021BE48DA
:1009D00007F0DBF840F201210E9888427ED10EA884
:1009E000017CC07B41EA002000B200EE100AB8EEA4
:1009F000C00AB64880ED050A0EA8827B407B42EA19
:100A0000002000B200EE100AB8EEC00A10EE101A74
:100A1000084609F0D5FB41EC190B9FEDAD0B53ECEB
:100A2000102B08F0EBFF41EC180B08F001FF00EE73
:100A3000100AA64880ED030A008B68B9A348408BD2
:100A400050B90EA8007B9DF8431040EA012000B287
:100A50009E49488308830CE09C48408B9B4908834F
:100A60000EA8007B9DF8431040EA012000B2974990
:100A70004883964890ED000A8DED050A90ED010A35
:100A80008DED060A90ED020A8DED070A90ED030A3E
:100A90008DED080A90ED040A8DED090A90ED050A26
:100AA0008DED0A0A008BADF82C008848408BADF81C
:100AB0002E008648C0690C90844890F820008DF87C
:100AC0003400142209A9684608F022F905A80FC8C5
:100AD00000F09CFA7D48D0ED010A00E004E030EE21
:100AE000200A80ED010A33E240F202210E9888428A
:100AF0007ED10EA8017CC07B41EA002000B200EE4E
:100B0000100AB8EEC00A744880ED050A0EA8827B70
:100B1000407B42EA002000B200EE100AB8EEC00AA4
:100B200010EE101A084609F04BFB41EC190B9FED33
:100B3000680B53EC102B08F061FF41EC180B08F028
:100B400077FE00EE100A644880ED030A008B68B956
:100B50006148408B50B90EA8007B9DF8431040EAD5
:100B6000012000B25C49488308830CE05A48408B5E
:100B7000594908830EA8007B9DF8431040EA0120E4
:100B800000B255494883544890ED000A8DED050A9E
:100B900090ED010A8DED060A90ED020A8DED070A2F
:100BA00090ED030A8DED080A90ED040A8DED090A17
:100BB00090ED050A8DED0A0A008BADF82C00464831
:100BC000408BADF82E004448C0690C90424890F824
:100BD00020008DF83400142209A9684608F098F81E
:100BE00005A80FC800F012FA3B48D0ED010A00E05A
:100BF00004E030EE200A80ED010AA9E140F2032171
:100C00000E9888425DD10EA8017CC07B41EA00208D
:100C100000B200EE100AB8EEC00A304880ED050AB6
:100C20000EA8827B407B42EA002000B200EE100A50
:100C3000B8EEC00A10EE101A084609F0C1FA41ECED
:100C4000190B9FED230B53EC102B08F0D7FE41EC52
:100C5000180B08F0EDFD00EE100A204880ED030AA5
:100C6000008B68B91D48408B50B90EA8007B9DF8D9
:100C7000431040EA012000B21849488308830CE081
:100C80001648408B154908830EA8007B9DF8431039
:100C900040EA012000B211494883104890ED000A53
:100CA0008DED050A90ED010A8DED060A90ED020A20
:100CB0008DED070A90ED030A8DED080A90ED040A08
:100CC0000EE033E0000002400064004078000020A5
:100CD00000000000000033409C000020C000002005
:100CE0008DED090A90ED050A8DED0A0A008BADF82D
:100CF0002C00BD48408BADF82E00BB48C0690C905D
:100D0000B94890F820008DF83400142209A96846EB
:100D100007F0FEFF05A80FC800F078F9B248D0ED43
:100D2000010A30EE200A80ED010A11E10E98B0F5BB
:100D3000017F7CD10EA8017CC07B41EA002000B27B
:100D400000EE100AB8EEC00AA84880ED050A0EA809
:100D5000827B407B42EA002000B200EE100AB8EE2F
:100D6000C00A10EE101A084609F02AFA41EC190BD5
:100D70001FED290B53EC102B08F040FE41EC180B33
:100D800008F056FD00EE100A984880ED030A008B2B
:100D900068B99648408B50B90EA8007B9DF8431067
:100DA00040EA012000B29149488308830CE08F4853
:100DB000408B8E4908830EA8007B9DF8431040EAC3
:100DC000012000B289494883884890ED000A8DEDE2
:100DD000050A90ED010A8DED060A90ED020A8DEDEF
:100DE000070A90ED030A8DED080A90ED040A8DEDD7
:100DF000090A90ED050A8DED0A0A008BADF82C006A
:100E00007A48408BADF82E007848C0690C9077483E
:100E100090F820008DF83400142209A9684607F0E4
:100E200077FF05A80FC800F0F1F8704800E006E071
:100E3000D0ED010A30EE200A80ED010A88E040F290
:100E400005210E9888427CD10EA8017CC07B41EA26
:100E5000002000B200EE100AB8EEC00A644880ED2F
:100E6000050A0EA8827B407B42EA002000B200EE19
:100E7000100AB8EEC00A10EE101A084609F0A0F9E0
:100E800041EC190B1FED6E0B53EC102B08F0B6FD67
:100E900041EC180B08F0CCFC00EE100A544880ED31
:100EA000030A008B68B95248408B50B90EA8007BEA
:100EB0009DF8431040EA012000B24D494883088361
:100EC0000CE04B48408B4A4908830EA8007B9DF8F4
:100ED000431040EA012000B245494883444890ED60
:100EE000000A8DED050A90ED010A8DED060A90EDE0
:100EF000020A8DED070A90ED030A8DED080A90EDC8
:100F0000040A8DED090A90ED050A8DED0A0A008BA1
:100F1000ADF82C003648408BADF82E003448C0693F
:100F20000C90334890F820008DF83400142209A961
:100F3000684607F0EDFE05A80FC800F067F82C48DA
:100F400000E005E0D0ED010A30EE200A80ED010A54
:100F500013B0BDEC048B00BDF0B585B004460D4662
:100F600016461F4600208DF808008DF8090008205D
:100F70008DF80A0080010090200A8DF80B00E1B284
:100F80008DF80C10290A8DF80D10E9B28DF80E10AD
:100F9000310A8DF80F10F1B28DF81010390A8DF862
:100FA0001110F9B28DF812106946124806F0F8FCDB
:100FB00005B0F0BD10B586B0044600208DF80C00D9
:100FC0008DF80D0002208DF80E0040F2FF10019008
:100FD000200A8DF80F008DF8104001A9054806F091
:100FE000DFFC06B010BD0000C0000020E4000020BF
:100FF0000801002000640040B5EEC00AF1EE10FACE
:1010000003D2F1EE400AB0EE600A70470FB400B5AB
:10101000BDF91E00BDF91C10401A01EE100AB8EE11
:10102000C10AFFF7E9FFDFEDFE0AB4EEE00AF1EED8
:1010300010FA11DDB8EEC10AFFF7DEFFF8EEC11AB3
:10104000C1EE800AB8EEC10ADFEDF61A00EEE10A41
:10105000BDEEC00AB0EE401AB8EEC10ADFEDF20AEA
:1010600020EE200AF3EE031AC0EE210ADFEDED1A9E
:1010700080EEA10A5DF814FB9FEDEC0AEC4880EDD0
:10108000010A9FEDEA0AEB4880ED010A9FEDE70AAD
:10109000E94880ED010A9FEDE50AE84880ED010A84
:1010A0009FEDE20AE64880ED010A0120E04981F85F
:1010B0002000E04981F82000DF4981F82000DF4965
:1010C00081F82000DE4981F820009FEDD80AD84839
:1010D00080ED020A9FEDD50AD64880ED020A9FED09
:1010E000D30AD54880ED020A9FEDD00AD34880ED9F
:1010F000020A9FEDCE0A084680ED020A70479FED76
:10110000D10AD14880ED000A9FEDD00A80ED010A96
:101110009FEDC60A80ED020A9FEDCD0A80ED030A1D
:101120009FEDCC0A80ED040A9FEDC00A80ED050A10
:101130009FEDBE0A80ED060A0020C349C8619FEDFD
:10114000C10AC54880ED000A9FEDC00A80ED010A82
:101150009FEDB60A80ED020A9FEDBD0A80ED030AFD
:101160009FEDBC0A80ED040A9FEDB00A80ED050AF0
:101170009FEDAE0A80ED060A0020B749C8619FEDD9
:10118000B10AB64880ED000A9FEDB00A80ED010A71
:101190009FEDA60A80ED020A9FEDAD0A80ED030ADD
:1011A0009FEDAC0A80ED040A9FEDA00A80ED050AD0
:1011B0009FED9E0A80ED060A0020A849C8619FEDB8
:1011C000A10AA74880ED000A9FEDA00A80ED010A60
:1011D0009FED960A80ED020A9FED9D0A80ED030ABD
:1011E0009FED9C0A80ED040A9FED900A80ED050AB0
:1011F0009FED8E0A80ED060A00209949C8619FED97
:10120000910A984880ED000A9FED900A80ED010A4E
:101210009FED860A80ED020A9FED8D0A80ED030A9C
:101220009FED8C0A80ED040A9FED800A80ED050A8F
:101230009FED7E0A80ED060A00208A49C86170474A
:101240009FED890A894880ED000AB1EE040A80ED1D
:10125000010A9FED760A80ED020A9FED7D0A80ED7E
:10126000030A9FED830A80ED040A9FED700A80ED6A
:10127000050A9FED6E0A80ED060A00207B49C861D1
:101280009FED7C0A084680ED090A9FED7B0A80ED00
:10129000080A9FED750A794880ED000AB1EE040A4C
:1012A00080ED010A9FED610A80ED020A9FED680A58
:1012B00080ED030A9FED6E0A80ED040A9FED5B0A44
:1012C00080ED050A9FED590A80ED060A00206B4962
:1012D000C8619FED680A084680ED090A9FED660A1D
:1012E00080ED080A9FED600A654880ED000AB1EEC6
:1012F000040A80ED010A9FED4D0A80ED020A9FED80
:10130000540A80ED030A9FED5A0A80ED040A9FED0E
:10131000470A80ED050A9FED450A80ED060A002088
:101320005749C8619FED530A084680ED090A9FEDB1
:10133000520A80ED080A9FED4C0A524880ED000ADF
:10134000B1EE040A80ED010A9FED380A80ED020A31
:101350009FED3F0A80ED030A9FED450A80ED040AE8
:101360009FED320A80ED050A9FED300A80ED060AF6
:1013700000204449C8619FED3F0A084680ED090AF4
:101380009FED3D0A80ED080A9FED3F0A3F4880ED42
:10139000000AB1EE040A80ED010A9FED240A80EDF7
:1013A000020A9FED2B0A80ED030A9FED310A80EDC2
:1013B000040A9FED1E0A80ED050A9FED1C0A80EDD0
:1013C000060A00203149C8619FED2A0A084680EDCF
:1013D000090A9FED290A80ED080A70479FED2C0A43
:1013E0002C4880ED000A9FED110A80ED010A9FED67
:1013F0002A0A80ED020A9FED160A80ED030A9FED8E
:10140000270A80ED040A9FED090A80ED050A9FED89
:10141000070A80ED060A00201E49C86140E000006E
:1014200000007A45000000460000B44300000000C0
:10143000780000209C000020C0000020E400002074
:10144000080100206666A63F7C0100208FC2F53CA3
:1014500000007A4600806D45F40100206C020020F7
:10146000E40200205C03002000007A4354010020C5
:1014700000409C4500007A440000C843CC01002095
:1014800044020020BC02002000005C433403002022
:1014900085EBD13E2C01002017B7D1380000FA446B
:1014A000B3EE040A084680ED090A9FEDFB0A80EDC1
:1014B000080A1FED090AF94880ED000A1FED250A08
:1014C00080ED010A1FED0C0A80ED020A1FED200AD3
:1014D00080ED030A1FED0F0A80ED040A1FED2D0AAF
:1014E00080ED050A1FED2F0A80ED060A0020EB496A
:1014F000C861B3EE040A084680ED090A9FEDE60ACA
:1015000080ED080A1FED1E0AE54880ED000A1FED78
:10151000390A80ED010A1FED200A80ED020A1FED55
:10152000340A80ED030A1FED230A80ED040A1FED43
:10153000410A80ED050A1FED430A80ED060A0020EE
:10154000D749C861B3EE040A084680ED090A9FED49
:10155000D20A80ED080A1FED320AD24880ED000A57
:101560001FED4E0A80ED010A1FED350A80ED020ADB
:101570001FED490A80ED030A1FED380A80ED040AC9
:101580001FED560A80ED050A1FED580A80ED060A88
:101590000020C449C861B3EE040A084680ED090A78
:1015A0009FEDBD0A80ED080AB7EE000ABE4880ED47
:1015B000000A1FED620A80ED010A9FEDBC0A80ED72
:1015C000020A1FED5D0A80ED030A1FED4C0A80ED53
:1015D000040A1FED6A0A80ED050A1FED6C0A80ED12
:1015E000060A0020B049C861B3EE040A084680ED3F
:1015F000090A9FEDA90A80ED080A704700B5FFF7B8
:101600007EFDFFF71DFEFFF7E9FE00BD00B5B0EE61
:10161000403AF0EE603A33EE630AB0EE401AC16928
:10162000012914D1B0EE410AFFF7E6FCD0ED090A1A
:10163000B4EEE00AF1EE10FA04DB90ED080A60EE79
:10164000011A08E090ED000A60EE011A03E090ED47
:10165000000A60EE011A90ED010A20EE015A90EDA9
:10166000050A30EE052A90ED040AB4EEC20AF1EE46
:1016700010FA04D290ED040A80ED050A15E090ED11
:10168000040AFFEE000A20EE200AB4EEC20AF1EED0
:1016900010FA08DD90ED040AFFEE000A20EE200AA1
:1016A00080ED050A01E080ED052A90ED060A31EE95
:1016B000404A90ED020A60EE044A80ED061A90ED71
:1016C000050A30EE210A70EE242A90ED030AB4EEEA
:1016D000E20AF1EE10FA02D890ED030A00BD90ED97
:1016E000030AFFEE000A20EE200AB4EEE20AF1EE51
:1016F00010FA06DD90ED030AFFEE000A20EE200A44
:10170000ECE7B0EE620AE9E710B5694890F820000E
:10171000012814D0022802D0052833D11FE06448E4
:1017200090ED011AF0EE410A90ED001AB0EE410A78
:101730006048FFF76BFF5E4880ED020A00BF5C481F
:1017400090ED031AF0EE410A90ED021AB0EE410A54
:101750005948FFF75BFF564880ED040A00BF544824
:1017600090ED051AF0EE410A90ED041AB0EE410A30
:101770005248FFF74BFFBDEEC00A10EE100A4C496D
:10178000C86100E000BF00BF4D4890F8200001286C
:1017900014D0022802D0052833D11FE0484890ED2C
:1017A000011AF0EE410A90ED001AB0EE410A3B48F2
:1017B000FFF72CFF424880ED020A00BF404890ED41
:1017C000031AF0EE410A90ED021AB0EE410A3D48CC
:1017D000FFF71CFF3A4880ED040A00BF384890ED3F
:1017E000051AF0EE410A90ED041AB0EE410A3648AF
:1017F000FFF70CFFBDEEC00A10EE100A3049C861B9
:1018000000E000BF00BF314890F82000012814D04C
:10181000022802D0052833D11FE02C4890ED011A90
:10182000F0EE410A90ED001AB0EE410A1C48FFF7B5
:10183000EDFE264880ED020A00BF244890ED031A11
:10184000F0EE410A90ED021AB0EE410A2048FFF78F
:10185000DDFE1E4880ED040A00BF1C4890ED051A0D
:10186000F0EE410A90ED041AB0EE410A1948FFF774
:10187000CDFEBDEEC00A10EE100A1449C86100E0AA
:1018800000BF00BF144890F82000012836D002287D
:1018900024D0052855D141E000004842A401002091
:1018A0001C020020940200200C0300200AD7233CD5
:1018B000780000202C010020540100207C01002031
:1018C0009C000020CC010020F4010020C00000207A
:1018D000440200206C020020E40000208D4890EDBE
:1018E000011AF0EE410A90ED001AB0EE410A8A4862
:1018F000FFF78CFE874880ED020A00BF854890ED17
:10190000031AF0EE410A90ED021AB0EE410A834844
:10191000FFF77CFE7F4880ED040A00BF7D4890ED14
:10192000051AF0EE410A90ED041AB0EE410A7C4827
:10193000FFF76CFEBDEEC00A10EE100A7549C861D3
:1019400000E000BF00BF774890F82000012814D0C5
:10195000022802D0052833D11FE0724890ED011A09
:10196000F0EE410A90ED001AB0EE410A6E48FFF722
:101970004DFE6C4880ED020A00BF6A4890ED031AE4
:10198000F0EE410A90ED021AB0EE410A6748FFF707
:101990003DFE644880ED040A00BF624890ED051AE0
:1019A000F0EE410A90ED041AB0EE410A6048FFF7EC
:1019B0002DFEBDEEC00A10EE100A5A49C86100E0C3
:1019C00000BF00BF534CE46923B25A4CE46922B211
:1019D000594CE46921B2594CE46920B2FFF7BCFAD2
:1019E0005049C96908B2FFF7E5FA10BD10B52DEDF1
:1019F000068BB0EE40AAB0EE608AF0EE418AB0EEFF
:101A0000619AF0EE429A01204C4981F820004A493F
:101A100081F82000474981F820003E4981F82000E4
:101A2000404981F82000454880ED02AA424880EDF7
:101A3000028A4048C0ED028A364880ED029A084684
:101A4000C0ED029AFFF760FEBDEC068B10BD10B52D
:101A50002DED068BB0EE40AAB0EE608AF0EE418A22
:101A6000B0EE619AF0EE429A0520344981F82000E8
:101A7000314981F820002F4981F82000254981F85B
:101A80002000284981F820002C4880ED00AA2A482F
:101A900080ED008A2748C0ED008A1E4880ED009A3C
:101AA0000846C0ED009AFFF72FFEBDEC068B10BD77
:101AB00010B52DED068BB0EE40AAB0EE608AF0EEC8
:101AC000418AB0EE619AF0EE429A02201B4981F8F9
:101AD0002000194981F82000164981F820000D499D
:101AE00081F820000F4981F82000144880ED00AAF9
:101AF000114880ED008A0F48C0ED008A054880ED4E
:101B0000009A0846C0ED009AFFF7FEFDBDEC068B7B
:101B100010BD0000E400002094020020BC02002060
:101B2000E4020020080100200C0300203403002000
:101B30005C030020C00000209C00002078000020F2
:101B4000B5EEC00AF1EE10FA01D100207047B5EEF3
:101B5000C00AF1EE10FA01DD0120F7E74FF0FF3087
:101B6000F4E702466FF00201FE48D0ED012AFE487C
:101B700090ED003A72EEC32AFC4890ED003A72EE06
:101B8000C32AF0EE620AFA48D0ED012AF64890ED39
:101B9000013A72EEC32AF54890ED013A72EEC32A7B
:101BA000B0EE622AF348D0ED012AEF4890ED023AF8
:101BB00072EEC32AED4890ED023A72EEC32AB0EEFF
:101BC000621AED48D0ED012AE74890ED033A72EE33
:101BD000C32AE64890ED033A72EEC32AF0EE621A89
:101BE000F4EEC00AF1EE10FA07D2F1EE402AF4EE5C
:101BF000E20AF1EE10FA00DD491CB4EEC02AF1EE63
:101C000010FA07D2F1EE402AB4EEE22AF1EE10FA11
:101C100000DD491CB4EEC01AF1EE10FA07D2F1EE65
:101C2000402AB4EEE21AF1EE10FA00DD491CF4EE9F
:101C3000C01AF1EE10FA07D2F1EE402AF4EEE21AE1
:101C4000F1EE10FA00DD491C914201DD01207047E0
:101C50000020FCE700B52DED040B99B09DED1B0AAB
:101C6000DDED190A30EE600ADFEDC40A20EE200A2D
:101C70008DED120A9DED1C0ADDED1A0A30EE600AA8
:101C8000DFEDBE0A20EE200A8DED110A9FEDBC0AA1
:101C90008DED100AB34890ED010AB34880ED000ABB
:101CA000B34890ED010AB04880ED010AB14890EDCB
:101CB000010AAD4880ED020AAF4890ED010AAA483A
:101CC00080ED030A9DED120A9FEDAE1AC0EE010AE7
:101CD0009FEDAD0A20EE800AA44880ED000A9DED3C
:101CE000110AB1EE400A9FEDA71AC0EE010A9FED5E
:101CF000A60A20EE800A80ED010A90ED000AB1EEFE
:101D0000400A80ED020A90ED010AB1EE400A80ED32
:101D1000030A00209D49086023E094489B49096814
:101D200000EB810090ED000AB5EEC00AF1EE10FA6A
:101D300009D29FED970A13A89449096800EB810026
:101D400080ED000A08E09FED930A13A88F49096807
:101D500000EB810080ED000A8C480068401C8B4934
:101D600008608A4800680428D7DB00BF9DED100A90
:101D7000DFED880AB4EEE00AF1EE10FA7DD2119898
:101D800008F01EFACDE900019DED000B07F0B4F854
:101D90008DED040B129808F013FACDE900019DEDCA
:101DA000000B07F0A9F88DED020B9DED040B53EC31
:101DB000102B9DED020B51EC100B07F06BFDCDE9E4
:101DC0000801119808F0FCF9CDE900019DED000B28
:101DD00007F092F88DED040B9DED160A8DED000ACB
:101DE0009DED000AFFF7ACFE00EE100AF8EEC00A07
:101DF0009DED100A20EE800A8DED010A019808F091
:101E0000DFF9CDE902019DED040B53EC102B9DEDA4
:101E1000020B51EC100B07F0DFFFCDE906019DED41
:101E2000080B53EC102B9DED060B51EC100B07F03B
:101E3000E5FDCDE90A019DED0A0B51EC100B07F011
:101E4000F7FC0F90119808F0BBF9CDE900019DED6A
:101E5000000B07F051F88DED040B129808F0B0F963
:101E6000CDE900019DED000B07F046F88DED020B6A
:101E70009DED040B53EC102B00E03FE19DED020BB8
:101E800051EC100B07F006FDCDE90801129808F09F
:101E900097F9CDE900019DED000B07F02DF88DEDD0
:101EA000040B9DED150A8DED000A9DED000AFFF76C
:101EB00047FE00EE100AF8EEC00A9DED100A20EE73
:101EC000800A8DED010A019808F07AF9CDE9020146
:101ED0009DED040B53EC102B9DED020B51EC100B00
:101EE00007F07AFFCDE906019DED080B53EC102BAE
:101EF0009DED060B51EC100B07F080FDCDE90A01BA
:101F00009DED0A0B51EC100B07F092FC0E9011980E
:101F100008F056F9CDE900019DED000B06F0ECFF4D
:101F20008DED040B129808F04BF9CDE900019DED01
:101F3000000B06F0E1FF8DED020B9DED040B53EC61
:101F4000102B9DED020B51EC100B07F0A3FCCDE91B
:101F50000801119808F034F9CDE900019DED000B5E
:101F60001AE0000078000020A40300209003002065
:101F70009C000020C0000020E40000206666863F30
:101F800000000000959E6B430000B4432800002031
:101F9000000048C30000484306F0AEFF8DED040B7F
:101FA0009DED140A8DED000A9DED000AFFF7C8FDB6
:101FB00000EE100AF8EEC00A9DED100A20EE800A2D
:101FC0008DED010A019808F0FBF8CDE902019DEDC5
:101FD000040B53EC102B9DED020B51EC100B07F092
:101FE000FBFECDE906019DED080B53EC102B9DED9A
:101FF000060B51EC100B07F001FDCDE90A019DED38
:102000000A0B51EC100B07F013FC0D90119808F01F
:10201000D7F8CDE900019DED000B06F06DFF8DEDC9
:10202000040B129808F0CCF8CDE900019DED000BEF
:1020300006F062FF8DED020B9DED040B53EC102BAF
:102040009DED020B51EC100B07F024FCCDE90801CB
:10205000129808F0B5F8CDE900019DED000B06F0EF
:102060004BFF8DED040B9DED130A8DED000A9DEDE8
:10207000000AFFF765FD00EE100AF8EEC00A9DEDBC
:10208000100A20EE800A8DED010A019808F098F8F8
:10209000CDE902019DED040B53EC102B9DED020BDD
:1020A00051EC100B07F098FECDE906019DED080BF1
:1020B00053EC102B9DED060B51EC100B07F09EFC22
:1020C000CDE90A019DED0A0B51EC100B07F0B0FBB6
:1020D0001FED552A0C90DDED0F1A9DED0E1ADDED6A
:1020E0000D0A9DED0C0AFFF781FC9DED100ADFED56
:1020F000FE0A30EE200A8DED100A53E1119808F027
:102100005FF8CDE900019DED000B06F0F5FE8DEDC9
:10211000040B129808F054F8CDE900019DED000B76
:1021200006F0EAFE8DED020B9DED040B53EC102B37
:102130009DED020B51EC100B07F0ACFBCDE9080153
:10214000119808F03DF8CDE900019DED000B06F077
:10215000D3FE8DED040B1698019008F031F8CDE90F
:1021600002019DED040B53EC102B9DED020B51EC85
:10217000100B07F031FECDE906019DED080B53EC85
:10218000102B9DED060B51EC100B07F037FCCDE941
:102190000A019DED0A0B51EC100B07F049FB0F9063
:1021A000119808F00DF8CDE900019DED000B06F047
:1021B000A3FE8DED040B129808F002F8CDE90001A2
:1021C0009DED000B06F098FE8DED020B9DED040BCE
:1021D00053EC102B9DED020B51EC100B07F05AFB4A
:1021E000CDE90801129807F0EBFFCDE900019DED64
:1021F000000B06F081FE8DED040B1598019007F0A1
:10220000DFFFCDE902019DED040B53EC102B9DED9A
:10221000020B51EC100B07F0DFFDCDE906019DED3F
:10222000080B53EC102B9DED060B51EC100B07F037
:10223000E5FBCDE90A019DED0A0B51EC100B07F00F
:10224000F7FA0E90119807F0BBFFCDE900019DED64
:10225000000B06F051FE8DED040B129807F0B0FF55
:10226000CDE900019DED000B06F046FE8DED020B61
:102270009DED040B53EC102B9DED020B51EC100B5C
:1022800007F008FBCDE90801119807F099FFCDE9A7
:1022900000019DED000B06F02FFE8DED040B149850
:1022A000019007F08DFFCDE902019DED040B53EC89
:1022B000102B9DED020B51EC100B07F08DFDCDE9BD
:1022C00006019DED080B53EC102B9DED060B51EC18
:1022D000100B07F093FBCDE90A019DED0A0B51ECC1
:1022E000100B07F0A5FA0D90119807F069FFCDE9E2
:1022F00000019DED000B06F0FFFD8DED040B129823
:1023000007F05EFFCDE900019DED000B06F0F4FD46
:102310008DED020B9DED040B53EC102B9DED020B8C
:1023200051EC100B07F0B6FACDE90801129807F04E
:1023300047FFCDE900019DED000B06F0DDFD8DEDC1
:10234000040B1398019007F03BFFCDE902019DEDCE
:10235000040B53EC102B9DED020B51EC100B07F00E
:102360003BFDCDE906019DED080B53EC102B9DEDD7
:10237000060B51EC100B07F041FBCDE90A019DED76
:102380000A0B51EC100B07F053FA9FED582A0C90F2
:10239000DDED0F1A9DED0E1ADDED0D0A9DED0C0A17
:1023A000FFF724FB022003F0BFFD4FF0FF309FED4D
:1023B000500AFFF7D6FB00283FF4D8AC9DED100A79
:1023C000DFED4C0AB4EEE00AF1EE10FA03D29FED15
:1023D000490A8DED100A00BF119807F0F1FECDE912
:1023E00000019DED000B06F087FD8DED040B1298AA
:1023F00007F0E6FECDE900019DED000B06F07CFD47
:102400008DED020B9DED040B53EC102B9DED020B9B
:1024100051EC100B07F03EFACDE90801119807F0D6
:10242000CFFECDE900019DED000B06F065FD8DEDC1
:10243000040B9DED160A8DED000A9DED000AFFF7D5
:102440007FFB00EE100AF8EEC00A9DED100A20EEA8
:10245000800A8DED010A019807F0B2FECDE9020174
:102460009DED040B53EC102B9DED020B51EC100B6A
:1024700007F0B2FCCDE906019DED080B53EC102BE3
:102480009DED060B51EC100B07F0B8FACDE90A01EF
:102490009DED0A0B51EC100B07F0CAF90F90119843
:1024A00007F08EFECDE900019DED000B06F024FD46
:1024B0008DED040B129807F083FECDE900019DED30
:1024C000000B06F019FD8DED020B9DED040B53EC96
:1024D000102B9DED020B51EC100B07F0DBF9CDE951
:1024E0000801129808E00000CDCCCC3D00000000AF
:1024F0000000C8430000484207F062FECDE9000139
:102500009DED000B06F0F8FC8DED040B9DED150A1A
:102510008DED000A9DED000AFFF712FB00EE100A98
:10252000F8EEC00A9DED100A20EE800A8DED010A3A
:10253000019807F045FECDE902019DED040B53EC37
:10254000102B9DED020B51EC100B07F045FCCDE973
:1025500006019DED080B53EC102B9DED060B51EC85
:10256000100B07F04BFACDE90A019DED0A0B51EC77
:10257000100B07F05DF90E90119807F021FECDE9E0
:1025800000019DED000B06F0B7FC8DED040B1298D9
:1025900007F016FECDE900019DED000B06F0ACFC46
:1025A0008DED020B9DED040B53EC102B9DED020BFA
:1025B00051EC100B07F06EF9CDE90801119807F006
:1025C000FFFDCDE900019DED000B06F095FC8DEDC2
:1025D000040B9DED140A8DED000A9DED000AFFF736
:1025E000AFFA00EE100AF8EEC00A9DED100A20EED8
:1025F000800A8DED010A019807F0E2FDCDE90201A4
:102600009DED040B53EC102B9DED020B51EC100BC8
:1026100007F0E2FBCDE906019DED080B53EC102B12
:102620009DED060B51EC100B07F0E8F9CDE90A011E
:102630009DED0A0B51EC100B07F0FAF80D90119874
:1026400007F0BEFDCDE900019DED000B06F054FC46
:102650008DED040B129807F0B3FDCDE900019DED5F
:10266000000B06F049FC8DED020B9DED040B53ECC5
:10267000102B9DED020B51EC100B07F00BF9CDE97F
:102680000801129807F09CFDCDE900019DED000BBB
:1026900006F032FC8DED040B9DED130A8DED000A62
:1026A0009DED000AFFF74CFA00EE100AF8EEC00AA2
:1026B0009DED100A20EE800A8DED010A019807F0C9
:1026C0007FFDCDE902019DED040B53EC102B9DED38
:1026D000020B51EC100B07F07FFBCDE906019DEDDD
:1026E000080B53EC102B9DED060B51EC100B07F073
:1026F00085F9CDE90A019DED0A0B51EC100B07F0AD
:1027000097F81FED862A0C90DDED0F1A9DED0E1A3D
:10271000DDED0D0A9DED0C0AFFF768F99DED100A3D
:102720005FED8C0AB4EEE00AF1EE10FA07DD9DEDE4
:10273000100ADFEDF60A30EE600A8DED100A022075
:1027400003F0F2FB4FF0FF301FED960AFFF709FA96
:1027500000283FF441AE9DED1B0AED4880ED000AD4
:102760009DED1C0A80ED010A1DB000BD00B52DEDE8
:102770000A8B85B0B0EE409AF0EE608A1FEDA50A94
:10278000B0EE408A38EEC90ADFEDE20A20EE200AF8
:10279000F0EE409A9FEDE00A29EE800ADFEDDF0AB5
:1027A00080EE201A9FEDDE0A61EE000AB0EE001AFC
:1027B00080EE810A9FEDDB1AC0EE010A9FEDDA0A76
:1027C00020EE800AB0EE40AAD84890ED010AD84821
:1027D00080ED000AD74890ED010AD54880ED010A46
:1027E000D54890ED010AD24880ED020AD34890ED19
:1027F000010ACF4880ED030A0020D14908600DE0AE
:10280000B1EE4A0ACF48CE49096800EB810080ED5D
:10281000000ACB480068401CC9490860C8480068E5
:102820000428EDDB0020C649086023E0C548C44900
:10283000096800EB810090ED000AB5EEC00AF1EEE8
:1028400010FA09D29FEDC00A6846BD49096800EB3D
:10285000810080ED000A08E09FEDBC0A6846B84997
:10286000096800EB810080ED000AB5480068401C53
:10287000B3490860B24800680428D7DB00BF9FED69
:10288000B40AB4EEC08AF1EE10FA48D2DDED030AC4
:10289000B0EE600AFFF754F900EE100AB8EEC00A75
:1028A00020EE080AF0EE40AADDED020AB0EE600A62
:1028B000FFF746F900EE100AB8EEC00A20EE080A4B
:1028C000B0EE40BADDED010AB0EE600AFFF738F96C
:1028D00000EE100AB8EEC00A20EE080AF0EE40BA88
:1028E000DDED000AB0EE600AFFF72AF900EE100AEB
:1028F000B8EEC00A20EE080AB0EE40CA9FED952A55
:10290000F0EE6A1AB0EE4B1AF0EE6B0AFFF76EF8B3
:102910009FED910A38EE000AB0EE408A16E09DED78
:10292000032AF0EE421A9DED022AB0EE421A9DED06
:10293000012AF0EE420A9DED002AB0EE420A9FED18
:10294000852AFFF753F8022003F0EEFA00209FEDEE
:10295000830AFFF706F9002891D06D48C0ED028A7E
:1029600005B0BDEC0A8B00BD10B52DED0A8BB0EEA5
:10297000408A6E4890ED010ABDEEC00AF0EE408A32
:102980006C4890ED010ABDEEC00AB0EE409A6A486C
:1029900090ED010ABDEEC00AF0EE409A674890ED56
:1029A000010ABDEEC00AB0EE40AA6D4890ED010AE2
:1029B000BDEEC00A10EE104A0EE0B0EE482AF8EE66
:1029C000CA1AB8EEE91AF8EEC90AB8EEE80AFFF733
:1029D0006FF8022003F0A8FA614890ED010A30EE8A
:1029E000480A10EE101A084607F0EAFB41EC1C0BEF
:1029F000B0EE4C0AF0EE6C0A06F07EFAB0EE40BA89
:102A0000F0EE60BA9FED570B53EC102B51EC1B0B03
:102A100007F0A6F9D1D2BDEC0A8B10BD10B52DED93
:102A20000C8BB0EE408AF0EE608A9FED500B06F002
:102A30006FFAB0EE40CAF0EE60CA18EE100A07F066
:102A4000BFFB41EC1D0B53EC1C2B07F0C5F941EC0F
:102A50001A0B9FED460B06F0EBF9B0EE40CAF0EE14
:102A600060CA18EE900A07F0ABFB41EC1D0B53EC6B
:102A70001C2B07F0B1F941EC1B0B53EC1A2B07F0A0
:102A8000B5FA41EC190B06F0D3FE00EE100ABDECCE
:102A90000C8B10BD10B52DED0C8BB0EE408AF0EE16
:102AA000608A9FED320B06F033FAB0EE40CAF0EECA
:102AB00060CA18EE900A07F083FB41EC1D0B53EC43
:102AC0001C2B07F089F941EC1A0B9FED280B06F03F
:102AD000AFF9B0EE40CAF0EE60CA18EE100A07F087
:102AE0006FFB41EC1D0B53EC1C2B07F075F941EC0F
:102AF0001B0B53EC1A2B06F0CDFE41EC190B06F024
:102B000097FE00EE100ABDEC0C8B10BDCDCCCC3E78
:102B1000840300203333833FDB0F494000003443FC
:102B20000000E143959E6B430000B4437800002011
:102B3000A40300209C000020C0000020E40000202E
:102B400028000020900300200000A0C20000A04246
:102B50000000484300000000CDCC4C3E000048423D
:102B60000801002000000000000024400000006078
:102B7000FB21E9BF07B584B0069800287DD10498F1
:102B800001287BD10598002878D1DFEDFD0A1FEDE3
:102B90000F0AFFF743FF8DED030ADFEDF90A1FED82
:102BA000130AFFF777FF8DED020AF64890ED010A50
:102BB0008DED010A90ED000A8DED000ADDED031A9E
:102BC0009DED021ADDED010A9DED000AFFF742F8C6
:102BD000DFEDEB0A9FEDEC0AFFF720FF8DED030A16
:102BE000DFEDE70A9FEDE80AFFF754FF8DED020ADB
:102BF000E44890ED010A8DED010A90ED000A8DED9B
:102C0000000ADDED031A9DED021ADDED010A9DEDCE
:102C1000000AFFF71FF8DFEDDD0A9FEDDB0AFFF783
:102C2000FDFE8DED030ADFEDD90A9FEDD70AFFF710
:102C300031FF8DED020AD34890ED010A8DED010AB6
:102C400090ED000A8DED000ADDED031A9DED021AEC
:102C5000DDED010A9DED000AFEF7FCFFDFEDCB0A7A
:102C60009FEDCB0AFFF7DAFE8DED030ADFEDC70A11
:102C70009FEDC70AFFF70EFF01E0EBE31FE08DEDCC
:102C8000020AC04890ED010A8DED010A90ED000A9C
:102C90008DED000ADDED031A9DED021ADDED010A4E
:102CA0009DED000AFEF7D6FFB64890ED020A8DEDC5
:102CB000030A5FED660A9DED030AFFF757FD0498CE
:102CC00001287DD1059801287AD1DFEDAD0A1FEDED
:102CD0005F0AFFF7A3FE8DED030ADFEDA90A1FEDE2
:102CE000630AFFF7D7FE8DED020AA64890ED010AB0
:102CF0008DED010A90ED000A8DED000ADDED031A5D
:102D00009DED021ADDED010A9DED000AFEF7A2FF1E
:102D1000DFED9B0A9FED9C0AFFF780FE8DED030A15
:102D2000DFED970A9FED980AFFF7B4FE8DED020ADA
:102D3000944890ED010A8DED010A90ED000A8DEDA9
:102D4000000ADDED031A9DED021ADDED010A9DED8D
:102D5000000AFEF77FFFDFED8D0A9FED8B0AFFF77C
:102D60005DFE8DED030ADFED890A9FED870AFFF70F
:102D700091FE8DED020A834890ED010A8DED010A66
:102D800090ED000A8DED000ADDED031A9DED021AAB
:102D9000DDED010A9DED000AFEF75CFFDFED7B0A29
:102DA0009FED7B0AFFF73AFE8DED030ADFED770A10
:102DB0009FED770AFFF76EFE8DED020A714800E085
:102DC00036E090ED010A8DED010A90ED000A8DEDDF
:102DD000000ADDED031A9DED021ADDED010A9DEDFD
:102DE000000AFEF737FF674890ED020A8DED030AEF
:102DF0005FEDB60A9DED030AFFF7B8FCDFED650A4B
:102E00001FEDAC0AFFF70AFE8DED030ADFED610A44
:102E10001FEDB00AFFF73EFE8DED020ADDED031A4D
:102E20009DED021A5FEDB50A1FEDB60AFEF712FF1F
:102E3000049801287DD1059802287AD1DFED500A47
:102E40001FEDBC0AFFF7EAFD8DED030ADFED4C0A2A
:102E50001FEDC00AFFF71EFE8DED020A494890EDF6
:102E6000010A8DED010A90ED000A8DED000ADDEDFD
:102E7000031A9DED021ADDED010A9DED000AFEF731
:102E8000E9FEDFED3F0A9FED400AFFF7C7FD8DED3C
:102E9000030ADFED3B0A9FED3C0AFFF7FBFD8DEDDA
:102EA000020A384890ED010A8DED010A90ED000A02
:102EB0008DED000ADDED031A9DED021ADDED010A2C
:102EC0009DED000AFEF7C6FEDFED300A9FED2E0AEB
:102ED000FFF7A4FD8DED030ADFED2C0A9FED2A0A12
:102EE000FFF7D8FD8DED020A264890ED010A8DED21
:102EF000010A90ED000A8DED000ADDED031A9DED4B
:102F0000021ADDED010A9DED000AFEF7A3FEDFEDDA
:102F10001F0A9FED1F0AFFF781FD8DED030ADFED0C
:102F20001B0A9FED1B0AFFF7B5FD8DED020A154840
:102F300000E049E090ED010A8DED010A90ED000AF4
:102F40008DED000ADDED031A9DED021ADDED010A9B
:102F50009DED000AFEF77EFE0A4890ED020A8DED17
:102F6000030ADFED0D0A9DED030AFFF7FFFBDFED1E
:102F70000B0A9FED0B0AFFF751FD8DED030A11E0DF
:102F8000008009C484030020000096C40000164499
:102F90000000FAC400C002440000344300007A4438
:102FA000000000005FED030A1FED030AFFF772FD4A
:102FB0008DED020ADDED031A9DED021A5FED080AA0
:102FC0001FED090AFEF746FE049802287DD10598F8
:102FD00000287AD15FED160A1FED150AFFF71EFDD6
:102FE0008DED030A5FED1A0A1FED190AFFF752FD76
:102FF0008DED020A5FED1E0A1FED170AFFF70EFDA9
:103000008DED010A5FED220A1FED1B0AFFF742FD5D
:103010008DED000ADDED031A9DED021ADDED010ACA
:103020009DED000AFEF716FE5FED280A1FED2A0A45
:10303000FFF7F4FC8DED030A5FED2C0A1FED2E0A5D
:10304000FFF728FD8DED020AFC4890ED010A8DED99
:10305000010A90ED000A8DED000ADDED031A9DEDE9
:10306000021ADDED010A9DED000AFEF7F3FD5FEDAA
:10307000390A1FED390AFFF7D1FC8DED030A5FED28
:103080003D0A1FED3D0AFFF705FD8DED020AEB48F5
:1030900090ED010A8DED010A90ED000A8DED000A18
:1030A000DDED031A9DED021ADDED010A9DED000A2A
:1030B000FEF7D0FDE14890ED020A8DED030A5FEDC9
:1030C0004A0A9DED030AFFF751FB049802287CD1C0
:1030D0000598012879D15FED560A1FED550AFFF7D3
:1030E0009DFC8DED030A5FED5A0A1FED590AFFF7AB
:1030F000D1FC8DED020A5FED5E0A1FED570AFFF766
:103100008DFC8DED010A5FED620A1FED5B0AFFF792
:10311000C1FC8DED000ADDED031A9DED021ADDED17
:10312000010A9DED000AFEF795FD5FED680A1FEDAF
:103130006A0AFFF773FC8DED030A5FED6C0A1FED61
:103140006E0AFFF7A7FC8DED020ABC4890ED010A5C
:103150008DED010A90ED000A8DED000ADDED031AF8
:103160009DED021ADDED010A9DED000AFEF772FDEC
:103170005FED7A0A1FED7A0AFFF750FC8DED030A26
:103180005FED7E0A1FED7E0AFFF784FC8DED020ADB
:10319000AA4890ED010A8DED010A90ED000A8DED2F
:1031A000000ADDED031A9DED021ADDED010A9DED29
:1031B000000AFEF74FFDA14890ED020A8DED030ACB
:1031C0005FED8B0A9DED030A00E01BE0FFF7CEFAEE
:1031D0005FED900A1FED8E0AFFF720FC8DED030ACC
:1031E0005FED940A1FED920AFFF754FC8DED020A81
:1031F000DDED031A9DED021A5FED970A1FED980AA7
:10320000FEF728FD049802287ED1059802287BD17C
:103210005FEDA50A1FEDA40AFFF700FC8DED030A80
:103220005FEDA90A1FEDA80AFFF734FC8DED020A35
:103230005FEDAD0A1FEDA60AFFF7F0FB8DED010A69
:103240005FEDB10A1FEDAA0AFFF724FC8DED000A1D
:10325000DDED031A9DED021ADDED010A9DED000A78
:10326000FEF7F8FC5FEDB70A1FEDB90AFFF7D6FBD2
:103270008DED030A5FEDBB0A1FEDBD0AFFF70AFCE7
:103280008DED020A6D4890ED010A8DED010A90ED79
:10329000000A8DED000ADDED031A9DED021ADDED49
:1032A000010A9DED000AFEF7D5FC5FEDC80A1FED8F
:1032B000C80AFFF7B3FB8DED030A5FEDCC0A1FEDE3
:1032C000CC0AFFF7E7FB8DED020A5C4890ED010A9E
:1032D0008DED010A90ED000A8DED000ADDED031A77
:1032E0009DED021ADDED010A9DED000AFEF7B2FC2C
:1032F000524890ED020A8DED030A5FEDD90A9DED6B
:10330000030AFFF733FA00E019E05FEDDC0A1FED76
:10331000DC0AFFF783FB8DED030A5FEDE00A1FED8A
:10332000E00AFFF7B7FB8DED020ADDED031A9DED14
:10333000021A5FEDE50A1FEDE60AFEF78BFC049822
:1033400000287AD10598002877D15FEDF30A1FEDA8
:10335000EC0AFFF763FB8DED030A5FEDF70A1FED43
:10336000F00AFFF797FB8DED020ADFED350A1FED3E
:10337000F40AFFF753FB8DED010ADFED310A1FED73
:10338000F80AFFF787FB8DED000ADDED031A9DEDCE
:10339000021ADDED010A9DED000AFEF75BFCDFED90
:1033A000290A9FED290AFFF739FB8DED030ADFEDAE
:1033B000250A9FED250AFFF76DFB8DED020ADFED73
:1033C000210A9FED220AFFF729FB8DED010ADFEDAF
:1033D0001D0A9FED1E0AFFF75DFB8DED000ADDED76
:1033E000031A9DED021ADDED010A9DED000AFEF7BC
:1033F00031FCDFED170A9FED140AFFF70FFB8DED8F
:10340000030ADFED130A9FED100AFFF743FB8DED72
:10341000020A0A4890ED010A8DED010A90ED000ABA
:103420008DED000ADDED031A9DED021ADDED010AB6
:103430009DED000AFEF70EFC0DE03AE0840300204B
:1034400000800944008009C4000096C40000000008
:103450000000164474E15FED020A9FEDFD0AFFF7DC
:10346000DDFA8DED030A5FED060A9FEDF90AFFF71D
:1034700011FB8DED020AF74890ED010A8DED010A6E
:1034800090ED000A8DED000ADDED031A9DED021AA4
:10349000DDED010A9DED000AFEF7DCFBED4890ED45
:1034A000020A8DED030ADFEDEC0A9DED030AFFF73A
:1034B0005DF9049800287AD10598012877D15FED4D
:1034C0001F0A1FED1E0AFFF7A9FA8DED030A5FED33
:1034D000230A1FED220AFFF7DDFA8DED020A5FEDE8
:1034E000280A1FED260AFFF799FA8DED010A5FED14
:1034F0002C0A1FED2A0AFFF7CDFA8DED000ADDED4B
:10350000031A9DED021ADDED010A9DED000AFEF79A
:10351000A1FB5FED340A1FED340AFFF77FFA8DED52
:10352000030A5FED380A1FED380AFFF7B3FA8DED95
:10353000020A5FED3C0A1FED3B0AFFF76FFA8DEDC3
:10354000010A5FED400A1FED3F0AFFF7A3FA8DED78
:10355000000ADDED031A9DED021ADDED010A9DED75
:10356000000AFEF777FB5FED460A1FED490AFFF7F9
:1035700055FA8DED030A5FED4A0A1FED4D0AFFF77C
:1035800089FA8DED020AB34890ED010A8DED010A2A
:1035900090ED000A8DED000ADDED031A9DED021A93
:1035A000DDED010A9DED000AFEF754FB00E047E067
:1035B0005FED590A9FEDA60AFFF730FA8DED030A79
:1035C0005FED5D0A9FEDA20AFFF764FA8DED020A36
:1035D000A04890ED010A8DED010A90ED000A8DEDF5
:1035E000000ADDED031A9DED021ADDED010A9DEDE5
:1035F000000AFEF72FFB974890ED020A8DED030AB3
:10360000DFED950A9DED030AFFF7B0F8DFED930AB1
:103610001FED720AFFF702FA8DED030ADFED8F0A44
:103620001FED760AFFF736FA8DED020ADDED031A7B
:103630009DED021A5FED7B0A1FED7C0AFEF70AFB87
:10364000049800287CD10598022879D15FED830A7F
:103650001FED820AFFF7E2F98DED030A5FED870A9D
:103660001FED860AFFF716FA8DED020A5FED8C0A50
:103670001FED8A0AFFF7D2F98DED010A5FED900A7E
:103680001FED8E0AFFF706FA8DED000ADDED031A35
:103690009DED021ADDED010A9DED000AFEF7DAFA52
:1036A0005FED980A1FED980AFFF7B8F98DED030A50
:1036B0005FED9C0A1FED9C0AFFF7ECF98DED020A05
:1036C0005FEDA00A1FED9F0AFFF7A8F98DED010A33
:1036D0005FEDA40A1FEDA30AFFF7DCF98DED000AE8
:1036E000DDED031A9DED021ADDED010A9DED000AE4
:1036F000FEF7B0FA5FEDAA0A1FEDAD0AFFF78EF9EB
:103700008DED030A5FEDAE0A1FEDB10AFFF7C2F9B6
:103710008DED020A4F4890ED010A8DED010A90ED02
:10372000000A8DED000ADDED031A9DED021ADDEDB4
:10373000010A9DED000AFEF78DFA5FEDBB0A00E07D
:1037400045E09FED430AFFF769F98DED030A5FED50
:10375000C00A9FED3F0AFFF79DF98DED020A3D4833
:1037600090ED010A8DED010A90ED000A8DED000A41
:10377000DDED031A9DED021ADDED010A9DED000A53
:10378000FEF768FA334890ED020A8DED030ADFED8B
:10379000320A9DED030AFEF7E9FFDFED310A1FED66
:1037A000D50AFFF73BF98DED030ADFED2D0A1FED7A
:1037B000D90AFFF76FF98DED020ADDED031A9DEDD1
:1037C000021A5FEDDE0A1FEDDF0AFEF743FA0698E4
:1037D00001287DD1049801285ED10598B0BB5FED2A
:1037E000E50A9FED200AFFF719F98DED030A5FED59
:1037F000E90A9FED1C0AFFF74DF98DED020A154805
:1038000090ED010A8DED010A90ED000A8DED000AA0
:10381000DDED031A9DED021ADDED010A9DED000AB2
:10382000FEF718FA0B4890ED020A8DED030ADFED62
:103830000E0A9DED030AFEF799FFDFED0C0A9FEDDE
:103840000C0AFFF7EBF88DED030A13E024E000000B
:103850000000FAC4840300200000344300C0024486
:1038600000007A4400C0E9C4000034C3000016C45C
:10387000000000005FED030A1FED030AFFF70AF9DD
:103880008DED020ADDED031A9DED021A5FED080AC7
:103890001FED090AFEF7DEF9049801286FD105989B
:1038A00001286CD1DFEDFE0A1FED0F0AFFF7B6F815
:1038B0008DED030ADFEDFA0A1FED130AFFF7EAF8B0
:1038C0008DED020AF74890ED010A8DED010A00E046
:1038D000C8E290ED000A8DED000ADDED031A9DEDC2
:1038E000021ADDED010A9DED000AFEF7B3F9DFEDE6
:1038F000EC0A1FED240AFFF791F88DED030ADFEDC6
:10390000E80A1FED280AFFF7C5F88DED020AE54821
:1039100090ED010A8DED010A90ED000A8DED000A8F
:10392000DDED031A9DED021ADDED010A9DED000AA1
:10393000FEF790F9DB4890ED020A8DED030A5FED8A
:10394000360A9DED030AFEF711FF5FED380A1FED01
:10395000380AFFF763F88DED030A5FED3C0A1FEDAF
:103960003C0AFFF797F88DED020ADDED031A9DED95
:10397000021A5FED410A1FED420AFEF76BF9049847
:1039800001286DD1059802286AD1DFEDC70A1FED25
:10399000480AFFF743F88DED030ADFEDC30A1FED78
:1039A0004C0AFFF777F88DED020ABE4890ED010A48
:1039B0008DED010A90ED000A8DED000ADDED031A90
:1039C0009DED021ADDED010A9DED000AFEF742F9B8
:1039D000DFEDB50A1FED5D0AFFF720F88DED030A54
:1039E000DFEDB10A1FED610AFFF754F88DED020A11
:1039F000AC4890ED010A8DED010A90ED000A8DEDC5
:103A0000000ADDED031A9DED021ADDED010A9DEDC0
:103A1000000AFEF71FF9A34890ED020A8DED030A94
:103A20005FED6F0A9DED030AFEF7A0FE5FED710AE0
:103A30001FED710AFEF7F2FF8DED030A5FED750AC7
:103A40001FED750AFFF726F88DED020ADDED031A6A
:103A50009DED021A5FED7A0A1FED7B0AFEF7FAF878
:103A60000498022854D10598F0BB5FED830A1FED3E
:103A7000800AFEF7D3FF8DED030A5FED870A1FED85
:103A8000840AFFF707F88DED020A864890ED010AD7
:103A90008DED010A90ED000A8DED000ADDED031AAF
:103AA0009DED021ADDED010A9DED000AFEF7D2F848
:103AB0005FED950A1FED950AFEF7B0FF8DED030A45
:103AC0005FED990A1FED990AFEF7E4FF8DED020AFA
:103AD000744890ED010A8DED010A90ED000A8DED1C
:103AE000000ADDED031A00E012E09DED021ADDEDA3
:103AF000010A9DED000AFEF7ADF86A4890ED020A52
:103B00008DED030A5FEDAC0A9DED030AFEF72EFE74
:103B10000498022853D10598012850D1DFED630A9B
:103B20001FEDAD0AFEF77AFF8DED030ADFED5F0AA8
:103B30001FEDB10AFEF7AEFF8DED020A594890ED78
:103B4000010A8DED010A90ED000A8DED000ADDED10
:103B5000031A9DED021ADDED010A9DED000AFEF744
:103B600079F8DFED520A1FEDC10AFEF757FF8DED20
:103B7000030ADFED4E0A1FEDC50AFEF78BFF8DED40
:103B8000020A484890ED010A8DED010A90ED000A05
:103B90008DED000ADDED031A9DED021ADDED010A3F
:103BA0009DED000AFEF756F83E4890ED020A8DEDB5
:103BB000030A5FEDD70A9DED030AFEF7D7FD0498CF
:103BC000022830D1059802282DD15FEDD70A1FEDCC
:103BD000DB0AFEF723FF8DED030A5FEDDB0A1FED25
:103BE000DF0AFEF757FF8DED020A2E4890ED010A1D
:103BF0008DED010A90ED000A8DED000ADDED031A4E
:103C00009DED021ADDED010A9DED000AFEF722F896
:103C1000244890ED020A8DED030A5FEDF10A9DED57
:103C2000030AFEF7A3FD0498C0BB0598B0BB5FED87
:103C3000F00A1FEDF40AFEF7F1FE8DED030A5FEDC9
:103C4000F40A1FEDF80AFEF725FF8DED020A15486C
:103C500090ED010A8DED010A90ED000A8DED000A4C
:103C6000DDED031A9DED021ADDED010A9DED000A5E
:103C7000FDF7F0FFDFED0E0A9FED0E0AFEF7CEFE18
:103C80008DED030ADFED0A0A9FED0A0AFEF702FF37
:103C90008DED020A034890ED010A0DE027E00000D7
:103CA00000C001C48403002000007AC40040104416
:103CB00000007A4300C0E9C48DED010A90ED000ACE
:103CC0008DED000ADDED031A9DED021ADDED010A0E
:103CD0009DED000AFDF7BEFFFE4890ED020A8DED56
:103CE000030ADFEDFD0A9DED030AFEF73FFD049890
:103CF000E8BB0598012875D15FED170A9FEDF70A1B
:103D0000FEF78CFE8DED030A5FED1B0A9FEDF30AB3
:103D1000FEF7C0FE8DED020AEE4890ED010A8DED32
:103D2000010A90ED000A8DED000ADDED031A9DED0C
:103D3000021ADDED010A9DED000AFDF78BFF5FED34
:103D4000280A1FED240AFEF769FE8DED030A5FEDD8
:103D50002C0A1FED280AFEF79DFE8DED020ADD48B4
:103D600090ED010A8DED010A90ED000A00E039E0C6
:103D70008DED000ADDED031A9DED021ADDED010A5D
:103D80009DED000AFDF766FFDFEDD50A1FED370A4E
:103D9000FEF744FE8DED030ADFEDD10A1FED3B0A6D
:103DA000FEF778FE8DED020ACA4890ED010A8DED0E
:103DB000010A90ED000A8DED000ADDED031A9DED7C
:103DC000021ADDED010A9DED000AFDF743FFC1482F
:103DD00090ED020A8DED030ADFEDBF0A9DED030AA7
:103DE000FEF7C4FC0498E8BB0598022875D15FED86
:103DF000520A9FEDBA0AFEF711FE8DED030A5FED40
:103E0000560A9FEDB60AFEF745FE8DED020AB1484F
:103E100090ED010A8DED010A90ED000A8DED000A8A
:103E2000DDED031A9DED021ADDED010A9DED000A9C
:103E3000FDF710FF5FED640A1FED620AFEF7EEFD6D
:103E40008DED030A5FED680A1FED660AFEF722FE9C
:103E50008DED020A9F4890ED010A8DED010A90ED6B
:103E6000000A00E039E08DED000ADDED031A9DED5A
:103E7000021ADDED010A9DED000AFDF7EBFEDFED14
:103E8000990A1FED740AFEF7C9FD8DED030ADFEDF7
:103E9000950A1FED780AFEF7FDFD8DED020A8D48AB
:103EA00090ED010A8DED010A90ED000A8DED000AFA
:103EB000DDED031A9DED021ADDED010A9DED000A0C
:103EC000FDF7C8FE834890ED020A8DED030ADFED91
:103ED000820A9DED030AFEF749FC07B000BD70B5EC
:103EE0002DED048B04460D46012C49D1012D47D1FF
:103EF0009FED7D0AFEF738FDDFED780A9FED7B0A26
:103F0000FEF78CFDB0EE408ADFED740A9FED770A74
:103F1000FEF7C0FDF0EE408AF0EE481AB0EE681AE7
:103F2000DFED6E0A9FED6D0AFDF794FE002604E0BA
:103F3000B3EE0E0A01F001FE0646002EF8D09FED0A
:103F40006C0AFEF711FDDFED650A9FED6A0AFEF7C8
:103F500065FDB0EE408ADFED610A9FED660AFEF76F
:103F600099FDF0EE408ADFED5D1A9FED5C1AF0EEF0
:103F7000480AFDF76FFE9FED600AFEF7F5FC00BFF3
:103F8000012C7CD1022D7AD15FEDB70A9FED530A47
:103F9000FEF744FDB0EE408A5FEDBB0A9FED4F0A8D
:103FA000FEF778FDF0EE408AF0EE481AB0EE681A9F
:103FB000DFED4A0A9FED490AFDF74CFE9FED4F0ADF
:103FC00000F01EFB9FED480AFEF7CEFC5FEDC80A2D
:103FD0009FED4B0AFEF722FDB0EE408A5FEDCC0A62
:103FE0009FED470AFEF756FDF0EE408A5FEDD00ADE
:103FF0009FED3A0AFEF712FDB0EE409A5FEDD40A4B
:104000009FED360AFEF746FDF0EE409AF0EE481AB4
:10401000B0EE681AF0EE490AFDF71CFEF3EE0E0A48
:104020009FED370AFEF7FAFCB0EE408AF3EE0E0A77
:104030009FED330AFEF72EFDF0EE408A5FEDE40AB5
:104040009FED2F0AFEF7EAFCB0EE409A5FEDE80A1A
:104050009FED2B0AFEF71EFDF0EE409AF0EE481A97
:10406000B0EE681AF0EE490AFDF7F4FD9FED200A64
:10407000FEF77AFCF3EE0E0A9FED180A00E027E047
:10408000FEF7CCFCB0EE408AF3EE0E0A9FED130A69
:10409000FEF700FDF0EE408AF3EE0E0A9FED180ADF
:1040A000FEF7BCFCB0EE409AF3EE0E0A9FED140A48
:1040B000FEF7F0FCF0EE409AF0EE481AB0EE681A07
:1040C000F0EE490AFDF7C6FD9FED0B0AFEF74CFC2A
:1040D000B4BB17E084030020000034C300000000DC
:1040E000008086C300803BC400007AC50000C8423F
:1040F00000C08FC50000AA4300401CC500009442C8
:104100000000BE43012D40D15FED0C0A1FED090AEE
:10411000FEF784FCB0EE408A5FED100A1FED0D0A39
:10412000FEF7B8FCF0EE408AF0EE481AB0EE681ADE
:104130005FED160A1FED170AFDF78CFD002605E05E
:1041400023E0B3EE0E0A01F0F8FC0646002EF8D08C
:104150001FED170AFEF708FC5FED200A1FED1B0A92
:10416000FEF75CFCB0EE408A5FED240A1FED1F0AEB
:10417000FEF790FCF0EE408A5FED281A1FED291A39
:10418000F0EE480AFDF766FD00BF002C7ED1022D3F
:104190007CD1DFEDFE0A1FED2F0AFEF73FFCB0EEEB
:1041A000408ADFEDFA0A1FED330AFEF773FCF0EEEA
:1041B000408AF0EE481AB0EE681A5FED380A1FED3B
:1041C000390AFDF747FD1FED330A00F019FADFED5C
:1041D000EF0A1FED350AFEF721FCB0EE408ADFED55
:1041E000EB0A1FED390AFEF755FCF0EE408ADFEDD1
:1041F000E70A1FED460AFEF711FCB0EE409ADFED2C
:10420000E30A1FED4A0AFEF745FCF0EE409AF0EE95
:10421000481AB0EE681AF0EE490AFDF71BFDF3EEFE
:104220000E0A1FED490AFEF7F9FBB0EE408AF3EEE5
:104230000E0A1FED4D0AFEF72DFCF0EE408ADFED71
:10424000D30A1FED510AFEF7E9FBB0EE409ADFED0D
:10425000CF0A1FED550AFEF71DFCF0EE409AF0EE76
:10426000481AB0EE681AF0EE490AFDF7F3FC1FEDAC
:104270005E0AFEF779FBF3EE0E0A1FED680AFEF701
:10428000CDFBB0EE408AF3EE0E0A00E01DE01FED1C
:104290006D0AFEF7FFFBF0EE408AF3EE0E0A1FED0B
:1042A000680AFEF7BBFBB0EE409AF3EE0E0A1FED74
:1042B0006C0AFEF7EFFBF0EE409AF0EE481AB0EE13
:1042C000681AF0EE490AFDF7C5FCBDEC048B70BD21
:1042D00070B52DED048B05460C46012D3FD1012C08
:1042E0001CD11FED820AFEF73FFB5FED840A9FEDB4
:1042F000A80AFEF793FBB0EE408A5FED880A9FEDB7
:10430000A40AFEF7C7FBF0EE408A5FED8C1A1FEDA2
:104310008D1AF0EE480AFDF79DFC08E1B9EE0C0A93
:1043200000F06EF91FED930AFEF71EFB5FED950A94
:104330009FED970AFEF772FBB0EE408A5FED990A97
:104340009FED930AFEF7A6FBF0EE408A5FED9D1A03
:104350001FED9E1AF0EE480AFDF77CFCE7E0022C08
:1043600071D11FEDA20AFEF7FFFADFED8A0A1FEDF9
:10437000A50AFEF753FBB0EE408ADFED860A1FED7B
:10438000A90AFEF787FBF0EE408AF0EE481AB0EE7D
:10439000681A5FEDAE0A1FEDAF0AFDF75BFCDFEDBB
:1043A0007D0A9FED7D0AFEF739FBB0EE408ADFED16
:1043B000790A9FED790AFEF76DFBF0EE408ADFED9A
:1043C000750A1FEDBA0AFEF729FBB0EE409ADFED41
:1043D000710A1FEDBE0AFEF75DFBF0EE409AF0EEAB
:1043E000481AB0EE681AF0EE490AFDF733FC00F007
:1043F0003EF95FEDC60A9FED680AFEF70FFBB0EECF
:10440000408A5FEDCA0A9FED640AFEF743FBF0EEB7
:10441000408ADFED600A9FED600AFEF7FFFAB0EE1A
:10442000409ADFED5C0A9FED5C0AFEF733FBF0EE8D
:10443000409AF0EE481AB0EE681AF0EE490AFDF71D
:1044400009FC74E0FFE71FEDD30A00F0D9F81FED77
:10445000DD0AFEF789FADFED4F0A1FEDE00AFEF7ED
:10446000DDFAB0EE408ADFED4B0A1FEDE40AFEF7FD
:1044700011FBF0EE408AF0EE481AB0EE681A5FEDDC
:10448000E90A1FEDEA0AFDF7E5FBDFED420A9FEDC1
:10449000420AFEF7C3FAB0EE408ADFED3E0A9FED16
:1044A0003E0AFEF7F7FAF0EE408ADFED3A0A1FED1A
:1044B000F50AFEF7B3FAB0EE409ADFED360A1FEDCB
:1044C000F90AFEF7E7FAF0EE409AF0EE481AB0EE7D
:1044D000681AF0EE490AFDF7BDFB00F0C8F8DFED01
:1044E0002F0A9FED2D0AFEF799FAB0EE408ADFED14
:1044F0002B0A9FED290AFEF7CDFAF0EE408ADFED98
:10450000250A9FED250AFEF789FAB0EE409ADFED05
:10451000210A9FED210AFEF7BDFAF0EE409AF0EE77
:10452000481AB0EE681AF0EE490AFDF793FBBDECAD
:10453000048B70BD02466FF002011948D0ED030AEA
:10454000F4EEC00AF1EE10FA09D2D0ED030AB1EE92
:10455000401AF4EEC10AF1EE10FA00DD491C1148D0
:10456000D0ED030AF4EEC00AF1EE10FA09D2D0ED54
:10457000030AB1EE401AF4EEC10AF1EE10FA00DDC2
:10458000491C0948D0ED030A10E0000000007A43FE
:104590000000964300004843000096C3000000005E
:1045A000780000209C000020C0000020F4EEC00A2B
:1045B000F1EE10FA09D2D0ED030AB1EE401AF4EE92
:1045C000C10AF1EE10FA00DD491C0C48D0ED030AD7
:1045D000F4EEC00AF1EE10FA09D2D0ED030AB1EE02
:1045E000401AF4EEC10AF1EE10FA00DD491C9142C6
:1045F00001DD012070470020FCE70000E4000020FE
:1046000010B52DED028BB0EE408AB5EEC08AF1EE0A
:1046100010FA0ED89FED3E0A28EE000ADFED3D0AA3
:1046200080EE201A9FED3C0A30EE410AB0EE408A3F
:104630000DE09FED3A0A28EE000A9FED361AC0EE13
:10464000010A9FED350A30EE800AB0EE408ABDEED9
:10465000C80AB8EEC00AB0EE408ABCEEC80A10EE36
:10466000101A2F4803F09FFFBDEC028B10BD00B560
:104670008BB00121082002F0CCFC0121084602F099
:104680007FFC02220121274802F067FA02200990EC
:104690008DF8280003208DF8290000208DF82A00CD
:1046A00001208DF82B0009A91E4802F0CBF95320F8
:1046B000ADF818000020ADF81A0044F61F6007900E
:1046C0004FF48070ADF8200006A9154803F07BFD7B
:1046D0006020ADF804000120ADF806000220ADF81E
:1046E000100001A90E4803F03CFE08210C4803F01D
:1046F00095FF01210A4803F0D1FD0121084803F08C
:10470000EBFDB9EE0C0AFFF77BFF0BB000BD00001C
:10471000004083440000B44200EC9046004083C453
:10472000000C00400000024010B50121084602F0D4
:1047300027FC0121022002F023FC0121042002F0C9
:104740001FFC0121082002F01BFC0121102002F0B7
:1047500017FC0121202002F013FC0121402002F06F
:104760000FFC10BD1CB58020009000208DF80400C7
:1047700002208DF8050001208DF807006946FE48EB
:1047800002F060F92020009000208DF80400022043
:104790008DF8050001208DF807006946F64802F003
:1047A00051F90820009000208DF8040002208DF8B7
:1047B000050001208DF807006946EF4802F042F934
:1047C0004FF48040009000208DF8040002208DF806
:1047D000050001208DF807006946E84802F032F92B
:1047E0004FF48050009000208DF8040002208DF8D6
:1047F000050001208DF807006946E04802F022F923
:104800004FF48060009000208DF8040002208DF8A5
:10481000050001208DF807006946D84802F012F91A
:104820008020009000208DF8040002208DF8050003
:1048300001208DF807006946D14802F003F94020B5
:10484000009000208DF8040002208DF80500012062
:104850008DF807006946CB4802F0F4F8102000906C
:1048600000208DF8040002208DF8050001208DF84D
:1048700007006946C44802F0E5F8012000900020D6
:104880008DF8040002208DF8050001208DF8070046
:104890006946B94802F0D6F80420009000208DF84F
:1048A000040002208DF8050001208DF807006946FC
:1048B000B14802F0C7F84FF48050009000208DF806
:1048C000040002208DF8050001208DF807006946DC
:1048D000AE4802F0B7F84FF48040009000208DF809
:1048E000040002208DF8050001208DF807006946BC
:1048F000A64802F0A7F80120009000208DF80400DF
:1049000002208DF8050001208DF8070069469B48BC
:1049100002F098F81CBD10B58021974802F0F4F819
:10492000012824D12021944802F0EEF801281ED15C
:104930000821914802F0E8F8012818D181038F4836
:1049400002F0E2F8012812D101038C4802F0DCF8F1
:1049500001280CD18102894802F0D6F8012806D13D
:104960008021874802F0D0F8012800D110BD002036
:10497000FCE710B58021804802F0C6F8B8B92021C4
:104980007D4802F0C1F890B94FF480617B4802F095
:10499000BBF860B980217A4802F0B6F838B94FF414
:1049A0008041764802F0B0F8012800D110BD002007
:1049B000FCE710B5FFF7DDFF40B301216F4802F0BF
:1049C000A3F818BB4FF48041704802F09DF8E8B995
:1049D0004FF480516D4802F097F8B8B90421664849
:1049E00002F092F890B90121634802F08DF858B1B5
:1049F0001021654802F088F8012805D0402161485F
:104A000002F082F8012801D1012010BD0020FCE74E
:104A100010B5FFF7AEFF40B340215A4802F074F8DA
:104A200018BB1021584802F06FF8F0B90121524824
:104A300002F06AF8C8B904214F4802F065F8A0B93D
:104A40004FF48051514802F05FF860B14FF480415B
:104A50004E4802F059F8012805D00121474802F0DC
:104A600053F8012801D1012010BD0020FCE72DE9F9
:104A7000F04105460F4616460024082F47D2DFE8CE
:104A800007F046040D17212B343D80213C4802F0ED
:104A90003BF8012801D1601CC4B200BF4FF4806113
:104AA000364802F031F8012801D1601CC4B200BFC1
:104AB0004FF48051314802F027F8012801D1601CE1
:104AC000C4B200BF4FF480412C4802F01DF8012809
:104AD00001D1601CC4B200BF0821274802F014F8BD
:104AE000012801D1601CC4B212E02021224802F04A
:104AF0000BF8012801D1601CC4B209E080211E48D6
:104B000002F002F8012801D1601CC4B200E000BF2D
:104B100000BF082E56D2DFE806F055040D161F28F8
:104B2000404B4021174801F0EFFF012801D1601CE4
:104B3000C4B200BF1021144801F0E6FF012801D1E2
:104B4000601CC4B200BF01210B4801F0DDFF012849
:104B500001D1601CC4B200BF0421074801F0D4FF9A
:104B6000012801D1601CC4B200BF4FF48051074836
:104B700001F0CAFF01280BE00004024000180240C7
:104B8000000C0240000002400008024000140240F5
:104B900002D1601CC0B2044615E04FF48041FE48CB
:104BA00001F0B2FF012802D1601CC0B204460AE045
:104BB0000121FA4801F0A8FF012802D1601CC0B20F
:104BC000044600E000BF00BF012D01D0022D06D138
:104BD000012C02D10120BDE8F0810020FBE7032D6C
:104BE00005D1022C01D10120F5E70020F3E700BF39
:104BF000F1E710B58021EA4801F086FF012811D1C4
:104C00000121E64801F080FF01280BD12021E44872
:104C100001F07AFF30B94FF48041DF4801F074FFB2
:104C200000287DD08021DE4801F06EFF01281DD1D3
:104C30000121DA4801F068FF012817D12021D84866
:104C400001F062FF012811D18103D34801F05CFF1C
:104C500001280BD10821D24801F056FF30B94FF49A
:104C60008051CD4801F050FF0028DAD08021CC4897
:104C700001F04AFF38BB0121C84801F045FF10BBD5
:104C80002021C74801F040FF01281CD18103C24800
:104C900001F03AFF012816D10821C14801F034FF84
:104CA000012810D10103BC4801F02EFF01280AD1D0
:104CB0008103BA4801F028FF28B90421B84801F05F
:104CC00023FF0028ADD02021B54801F01DFF40BBD7
:104CD0004FF48041B04801F017FF10BB0821B048E5
:104CE00001F012FF01281FD10103AB4801F00CFFB6
:104CF000012819D18103A94801F006FF012813D129
:104D00000421A74801F000FF01280DD10103A348A9
:104D100001F0FAFE28B90121A14801F0F5FE01E0F9
:104D20009AE001E00028A0D008219D4801F0ECFEA7
:104D300048BB4FF48051984801F0E6FE18BB4FF491
:104D40008041964801F0E0FE01281CD104219448DE
:104D500001F0DAFE012816D10103904801F0D4FEDB
:104D6000012810D101218E4801F0CEFE01280AD180
:104D700081028A4801F0C8FE28B91021894801F053
:104D8000C3FE002868D04FF48041844801F0BCFE87
:104D900038BB0421824801F0B7FE10BB4FF48051AC
:104DA0007E4801F0B1FE01281BD101217C4801F0B1
:104DB000ABFE012815D18102784801F0A5FE01283B
:104DC0000FD11021774801F09FFE012809D18021E1
:104DD000754801F099FE20B94021744801F094FE15
:104DE000D0B34FF480516D4801F08EFEE8B9012137
:104DF0006B4801F089FEC0B94FF48061674801F04B
:104E000083FE012811D11021664801F07DFE0128A2
:104E10000BD18021644801F077FE012805D14021A3
:104E2000624801F071FE012816D04FF480615B48A2
:104E300001F06AFE90B910215A4801F065FE68B988
:104E40008021594801F060FE012807D140215748D0
:104E500001F05AFE012801D1012010BD80215048E7
:104E600001F052FE012811D101214C4801F04CFE05
:104E700001280BD120214A4801F046FE30B94FF4F9
:104E80008041454801F040FE00287DD08021444803
:104E900001F03AFEE0B90121404801F035FEB8B911
:104EA00020213F4801F030FE012811D181033A480A
:104EB00001F02AFE01280BD10821394801F024FE17
:104EC00030B94FF48051344801F01EFE00285BD009
:104ED0002021334801F018FEE0B94FF480412E48FC
:104EE00001F012FEB0B908212D4801F00DFE012895
:104EF00010D10103284801F007FE01280AD18103DF
:104F0000264801F001FE28B90421254801F0FCFDE6
:104F1000002839D00821224801F0F6FDE0B94FF40D
:104F200080511D4801F0F0FDB0B94FF480411B489D
:104F300001F0EAFD01280FD10421194801F0E4FD38
:104F4000012809D10103154801F0DEFD20B9012136
:104F5000134801F0D9FDB8B14FF480410F4801F07A
:104F6000D3FD50BB04210E4801F0CEFD28BB4FF409
:104F700080510A4801F0C8FD01281ED101210848CE
:104F800001F0C2FD012800E050E016D18102034883
:104F900001F0BAFD88B90BE000140240001802408D
:104FA0000004024000080240000C024000000240E1
:104FB0001021F74801F0A8FDC0B34FF48051F54827
:104FC00001F0A2FDD8B90121F34801F09DFDB0B96F
:104FD0004FF48061EF4801F097FD01280FD11021B7
:104FE000EB4801F091FD012809D18021EB4801F047
:104FF0008BFD20B94021EA4801F086FDB0B14FF4A5
:105000008061E44801F080FD90B91021E04801F092
:105010007BFD68B98021E14801F076FD012807D1C8
:105020004021DF4801F070FD012801D1022014E782
:105030008021D94801F068FD01281DD10121D54802
:1050400001F062FD012817D12021D34801F05CFD59
:10505000012811D18103D34801F056FD01280BD15D
:105060000821CD4801F050FD012805D10103CD48AC
:1050700001F04AFD01287CD02021C74801F044FD01
:1050800001281DD18103C74801F03EFD012817D139
:105090000821C14801F038FD012811D10103C148A0
:1050A00001F032FD01280BD18103BA4801F02CFD3B
:1050B000012805D10421B84801F026FD01286FD050
:1050C0000821B54801F020FD01281DD10103B54894
:1050D00001F01AFD012817D18103AE4801F014FD3B
:1050E000012811D10421AC4801F00EFD01280BD19B
:1050F0000103A84801F008FD012805D10121A648B7
:1051000001F002FD01284BD04FF48041A14801F08D
:10511000FBFC01281DD104219F4801F0F5FC01286A
:1051200017D101039B4801F0EFFC012811D10121A7
:10513000994801F0E9FC01280BD18102954801F062
:10514000E3FC012805D11021914801F0DDFC012884
:1051500026D04FF480518F4801F0D6FC012821D190
:1051600001218D4801F0D0FC01281BD18102894822
:1051700000E015E001F0C8FC012813D1102184489B
:1051800001F0C2FC01280DD18021844801F0BCFC53
:10519000012807D14021824801F0B6FC012801D145
:1051A00003205AE6002058E610B580217A4801F025
:1051B000ABFC10BB2021784801F0A6FCE8B908211F
:1051C000754801F0A1FCC0B94FF48041714801F06D
:1051D0009BFC90B94FF480516E4801F095FC60B98A
:1051E0004FF480616B4801F08FFC30B980216B482F
:1051F00001F08AFC08B9012010BD0020FCE710B5C1
:105200004021674801F080FC08BB1021604801F094
:105210007BFCE0B90121604801F076FCB8B90421BB
:105220005D4801F071FC90B94FF480515D4801F088
:105230006BFC60B94FF480415A4801F065FC30B90D
:105240000121544801F060FC08B9012010BD002084
:10525000FCE770B50546002480214F4801F054FC5E
:10526000012801D1601CC4B220214B4801F04CFC44
:10527000012801D1601CC4B20821474801F044FC58
:10528000012801D1601CC4B24FF48041414801F0B3
:105290003BFC012801D1601CC4B24FF480513D4851
:1052A00001F032FC012801D1601CC4B24FF48061CE
:1052B000384801F029FC012801D1601CC4B28021CA
:1052C000364801F021FC012801D1601CC4B2AC4277
:1052D00001DB012070BD0020FCE710B580212F48C4
:1052E00001F012FC28BB4FF480612A4801F00CFC4D
:1052F000F8B94FF48051274801F006FCC8B94FF4C3
:105300008041244801F000FC98B98021224801F036
:10531000FBFB01280BD020211F4801F0F5FB0128E1
:1053200005D008211C4801F0EFFB012801D1012024
:1053300010BD0020FCE710B58021174801F0E4FB08
:1053400028BB2021144801F0DFFB00BB08211248D4
:1053500001F0DAFBD8B94FF480410E4801F0D4FBDC
:10536000A8B980210D4801F0CFFB01280DD04FF4E2
:105370008061084801F0C8FB012806D04FF4805135
:10538000044801F0C1FB01280ED1012010BD0BE043
:10539000000802400018024000040240000C0240D5
:1053A00000000240001402400020EFE710B5802109
:1053B000FC4801F0A9FBB8B94FF48061FA4801F04C
:1053C000A3FB88B98021F94801F09EFB60B9202138
:1053D000F64801F099FB38B94FF48041F24801F0EA
:1053E00093FB012800D110BD0020FCE710B52DED86
:1053F000028BB0EE408A9FEDEE2AF0EE481AB1EE35
:10540000481AF1EE480AB0EE480AFCF7EFFA01201C
:1054100000F08AFDBDEC028B10BD10B52DED028BA6
:10542000B0EE408A9FEDE22AF1EE481AB0EE481A3B
:10543000F0EE480AB1EE480AFCF7D8FA012000F075
:1054400073FDBDEC028B10BD10B52DED028BB0EEDF
:10545000408A9FEDD72AF0EE481AB0EE481AF1EED6
:10546000480AB1EE480AFCF7C1FA012000F05CFDE1
:10547000BDEC028B10BD10B52DED028BB0EE408A55
:105480009FEDCB2AF1EE481AB1EE481AF0EE480A29
:10549000B0EE480AFCF7AAFA012000F045FDBDEC89
:1054A000028B10BD10B59FEDC22ADFEDC11A9FED32
:1054B000C01ADFEDBF0A9FEDBE0AFCF797FA012084
:1054C00000F032FD10BD10B59FEDB92AF3EE0E1AB3
:1054D000B3EE0E1AF3EE0E0AB3EE0E0AFCF786FADE
:1054E000012000F021FD10BD10B59FEDB12AFBEEAB
:1054F0000E1ABBEE0E1AFBEE0E0ABBEE0E0AFCF7FE
:1055000075FA012000F010FD10BD0020A9490870B7
:10551000A9490870A9490870A9490870A9490870E3
:10552000A9490870704710B52DED028BB0EE408A86
:10553000A4480078D0B9FFF737FE30B1FFF75FFE1F
:1055400018B101209F49087010E0FFF72DFE18B137
:1055500002209C49087009E0FFF751FE18B10320B2
:105560009849087002E00420964908709548007830
:1055700004287DD1FFF73DFB01280AD18F48007830
:10558000012806D10A208E49087002208B49087034
:105590001CE0FFF72EFB02280AD18848007801287A
:1055A00006D10A20864908700220844908700DE05F
:1055B000FFF71FFB032809D180480078012805D197
:1055C0000A207F49087002207C4908707B480078D7
:1055D00048BB7948007877490870022076490870FE
:1055E00077480078F8B98021704801F08DFA0128D9
:1055F0000AD101216C4801F087FA012804D17049D1
:1056000008706E4908701EE0FFF7CEFD60B1012101
:10561000654801F079FA012806D10220684908702E
:105620000120664908700EE08021604801F06CFAA4
:10563000012808D1FFF7E3FD28B103206049087075
:1056400001205E4908705D48007801285FD15C4800
:10565000007801281ED18103534801F055FA60B942
:105660005948007848B9544800785249087000E019
:10567000E8E003205049087049E002204F490870D3
:105680004D4800784B49087001204B4908704E493D
:1056900008703CE04A48007802281AD14103424889
:1056A00001F032FA50B94848007838B942480078D9
:1056B0004049087003204049087028E03E480078BF
:1056C0003C49087004203C49087001203E4908709C
:1056D0001DE03B480078032819D10421334801F02C
:1056E00013FA50B93848007838B93348007831494E
:1056F000087003203049087009E02F4800782D49D0
:10570000087005202C49087001202F4908702B488B
:105710000078022840D1FFF749FE38B126480078CA
:105720002449087001202449087014E0FFF703FEA3
:1057300038B1214800781F49087002201E490870BE
:1057400009E0FFF7CAFD30B11B480078194908701D
:105750000320194908701848007801281CD1154801
:10576000007802280AD1002405E0B0EE480AFFF7CD
:105770006BFE601CC4B20A2CF7DB0DE00D4800780C
:10578000032809D1002405E0B0EE480AFFF773FEB4
:10579000601CC4B20A2CF7DB07480078062832D216
:1057A00014E00000000C0240001802400004024017
:1057B000000000002D0000202C0000202E00002002
:1057C000300000202F00002031000020DFE800F032
:1057D0001203080D1518B0EE480AFFF707FE16E091
:1057E000B0EE480AFFF730FE11E0B0EE480AFFF7CE
:1057F00042FE0CE0FFF756FE09E0FFF764FE06E00C
:10580000FFF772FE03E00A2000F08EFB00BF00BF2E
:105810000620FFF71EFD98B1ED48007802280FD151
:10582000FFF740FE0020EB490870EB4908700A20A2
:10583000E7490870E94908700120BDEC028B10BDF2
:105840000020FAE7E6480078012807D0E44800780D
:10585000022803D0E2480078032878D1FFF7C9F97D
:1058600001280AD1DA480078012806D10A20DB494C
:1058700008700220D64908701CE0FFF7BAF9022828
:105880000AD1D3480078012806D10A20D3490870EC
:105890000220CF4908700DE0FFF7ABF9032809D1CA
:1058A000CB480078012805D10A20CC490870022095
:1058B000C7490870C648007868BBC6480078C64922
:1058C00008700220C3490870C448007818BBC44857
:1058D0000078012830D18021C24801F015F9012853
:1058E0000AD10121C04801F00FF9012804D1BB49B8
:1058F0000870B749087035E0FFF781FC60B180217E
:10590000BA4801F001F9012806D10220B349087014
:105910000120AF49087025E04021B54801F0F4F8B6
:1059200001281FD1FFF740FCE0B10320AB4908700C
:105930000120A749087015E0A9480078022807D17E
:105940000320A64908700120A14908700AE0EFE091
:10595000A3480078032805D10220A049087001203F
:105960009B4908709A48007801285ED19B480078CE
:1059700001281CD181039C4801F0C6F850B99D480C
:10598000007838B99348007893490870022091490B
:1059900008704AE002208E4908708E4800788E49CF
:1059A000087001208B490870924908703DE08B48CF
:1059B000007802281AD101218A4801F0A5F850B9CF
:1059C0008C48007838B983480078834908700220F1
:1059D0008049087029E07F4800787F4908700420DA
:1059E0007C4908700120834908701EE07B480078DC
:1059F00003281AD14FF480517B4801F085F850B943
:105A00007C48007838B973480078734908700220E0
:105A10007049087009E06F4800786F4908700520E8
:105A20006C490870012073490870694800780228A1
:105A300040D1FFF7BBFC38B1664800786649087072
:105A400001206449087014E0FFF775FC38B1614823
:105A500000786149087002205E49087009E0FFF78C
:105A60003CFC30B15B4800785B4908700320594921
:105A700008705848007801281CD15748007802283F
:105A80000AD1002405E0B0EE480AFFF7DDFC601CF7
:105A9000C4B20A2CF7DB0DE04F480078032809D187
:105AA000002405E0B0EE480AFFF7E5FC601CC4B234
:105AB0000A2CF7DB4748007806281CD2DFE800F004
:105AC0001203080D1518B0EE480AFFF78FFC16E018
:105AD000B0EE480AFFF7B8FC11E0B0EE480AFFF755
