:020000040800F2
:10000000180B00204D4500085D0500085F0500083D
:1000100063050008670500086B0500080000000084
:100020000000000000000000000000006F05000854
:100030007105000800000000730500087505000840
:1000400067450008674500086745000867450008E0
:1000500067450008674500086745000867450008D0
:1000600067450008674500086745000867450008C0
:1000700067450008674500086745000867450008B0
:10008000674500086745000867450008A1080008A3
:10009000B70800086745000867450008674500087D
:1000A0006745000867450008674500086745000880
:1000B0006745000867450008674500086745000870
:1000C0006745000867450008674500086745000860
:1000D000674500085F44000801450008D94400084E
:1000E0006745000867450008674500086745000840
:1000F0006745000867450008674500086745000830
:10010000674500086745000867450008674500081F
:10011000674500086745000867450008674500080F
:1001200067450008674500086745000867450008FF
:1001300067450008674500086745000867450008EF
:1001400067450008674500086745000867450008DF
:1001500067450008674500086745000867450008CF
:1001600067450008674500086745000867450008BF
:1001700067450008674500086745000867450008AF
:10018000674500086745000800F002F800F03CF8F9
:100190000AA090E8000C82448344AAF10107DA45E2
:1001A00001D100F031F8AFF2090EBAE80F0013F0F8
:1001B000010F18BFFB1A43F0010318470473000036
:1001C00024730000103A24BF78C878C1FAD85207C7
:1001D00024BF30C830C144BF04680C6070470000C1
:1001E0000023002400250026103A28BF78C1FBD840
:1001F000520728BF30C148BF0B6070471FB507F0DA
:10020000A0F81FBD10B510BD05F050FE1146FFF758
:10021000F5FF00F05BF805F082FE03B4FFF7F2FF94
:1002200003BC03F079FE00000146002200200146D5
:1002300005E0BE4850F821000244481C014603294D
:10024000F7DB022A0CD10020014607E0B74850F83E
:10025000210008B908467047481C01460329F5DB10
:10026000012A13D1012907D1B0484068012801D1E2
:100270000020F0E70120EEE7022907D1AB48006833
:10028000012801D10220E6E70020E4E73AB901297C
:1002900001D10120DFE7022901D10020DBE700BF07
:1002A000D9E7A3488068002801DD01207047A048F5
:1002B0000068002801DD0020F8E79D48006900285B
:1002C00001DD0220F2E74FF0FF30EFE72DED028B6A
:1002D0000120984908609849C1F8A80200BF00258C
:1002E0004FF4E13003F025FE4FF4E13003F0C6FE99
:1002F0004FF4E13003F06FFEA82003F08BFD03F014
:1003000037F903F055F94FF4A06004F03FF903F01A
:10031000D1F903F0EDF900F029FE01F0E9F800F061
:1003200033FA03F03EFC002603F0E4FC80498860C9
:1003300008468068F8B903200861DFED800A9FED68
:10034000800A02F094FAB0EE408ADFED7C0A9FED5D
:100350007C0A02F0C8FAF0EE408AF0EE481AB0EEDD
:10036000681ADFED760A9FED750A01F0BBFB0020ED
:100370007449086009E06E48006818B903206C49A8
:10038000086102E000206A4908610324CCE0062CE1
:100390007ED2DFE804F0C6031B28A4B6002507E0E0
:1003A0009FED660A684800EB850080ED000A6D1C31
:1003B000032DF5DB02246548006818B90120634964
:1003C000086002E0002061490860ACE003F0EFFB48
:1003D00006463EB103F0E5FB5C48006808B903241B
:1003E00000E004249FE003F085FC5149554A12685F
:1003F00041F83200534A126851F8320003F0C1FC50
:100400004B49504A126801EBC201486048484D49C7
:10041000096850F8310030B145484A49096850F838
:100420003100401C20B90524494805F0BBFC7AE0A6
:100430003F484449096850F8310000284DDD3C48E8
:100440004049096800EBC1004068002825DD3848B4
:100450003C4A126800EBC2004168012003F01EF81C
:1004600033483849096800EBC100406839490860E1
:100470002F49344A126801EBC2014868FFF7D4FEE5
:10048000354908604FF0FF3129482E4A126800E0D4
:1004900047E000EBC20041601FE02548294A12688E
:1004A00000EBC2004168002002F0F8FF2048254917
:1004B000096850F83100274908601D49214A12682F
:1004C00051F83200FFF7B0FE234908604FF0FF31CA
:1004D00017481C4A126840F83210012423E01D48D6
:1004E00001681D48006802F0DAFFFFF7DAFE1549DF
:1004F000086008460068002801DB012400E00524AC
:1005000011E09FED0E2ADFED0D1A9FED0C1ADFEDC5
:100510000B0A9FED0A0A01F0E3F9012003F0DCFC6D
:1005200000BF052400BF00BF31E7000060000020CD
:1005300048000020A48242420080424200000000A5
:100540000000FAC304000020780300200C00002003
:10055000787400080000002008000020704700BFE9
:10056000FEE700BFFEE700BFFEE700BFFEE7704703
:1005700070477047704700000CB500200190009054
:100580007648006840F480307449086000BF7348C2
:10059000006800F4003000900198401C0190009821
:1005A00018B90198B0F5A04FF1D16C48006800F47B
:1005B000003010B10120009001E000200090009870
:1005C000012846D165484030006840F080506349BA
:1005D000403108606248006840F44040604908606B
:1005E0005E48083000685D490831086008460068C8
:1005F00040F4004008600846006840F4A0500860DD
:100600005848091F0860081F006840F08070091FE3
:10061000086000BF5148006800F000700028F9D061
:1006200040F20570504908604C480830006820F0DE
:1006300003004A49083108600846006840F002009B
:10064000086000BF45480830006800F00C0008282A
:10065000F8D10CBD10B54548006840F4700043491E
:1006600008603E48006840F001003C4908600020F6
:100670003A4908310860394800683D49084037491F
:1006800008603C48091D0860081F006820F48020AD
:10069000091F0860002031490C310860FFF76CFF2A
:1006A0004FF0006031498039086010BD70B50020FE
:1006B0000022022300240221284D08352D6805F070
:1006C0000C0020B1042806D0082834D107E02A4DB8
:1006D0002A4E356033E02A4D284E35602FE01F4DFD
:1006E0002D1D2D68C5F380541C4D2D1D2D6805F062
:1006F0003F0154B1224DB5FBF1F5184E361D366859
:10070000C6F3881605FB06F209E01B4DB5FBF1F5B3
:10071000124E361D3668C6F3881605FB06F20F4DDD
:100720002D1D2D68C5F301456D1C6B00B2FBF3F563
:10073000124E356003E0104D104E356000BF00BF13
:10074000064D08352D68C5F303150E4E705D0B4D33
:100750002D68C540094E356070BD0000003802406C
:100760000070004008544007003C024088ED00E063
:10077000FFFFF6FE103000240024F40010000020DB
:1007800000127A001400002000B58BB00121084649
:1007900004F090FA0121480604F0D5FA4FF4C05055
:1007A000099002208DF8280000208DF82A000320EF
:1007B0008DF8290001208DF82B0009A9FE4803F0CF
:1007C000DBFF09220B21FC4804F061F809220C210F
:1007D000F94804F05CF8F94804F0EAFD06A804F0D2
:1007E0000BFF00208DF81E008DF81F008DF82000F3
:1007F00001208DF8210000208DF822008DF82300C3
:100800008DF81A008DF81B0008208DF81C000320BD
:100810008DF81D00ADF8180006A9E84804F0E1FDC8
:1008200000208DF812008DF8130001208DF81400BF
:100830000020ADF80800ADF80A00ADF80C00ADF8E6
:100840000E00ADF8100001208DF8150002A804F08C
:1008500052FE01220221D94805F04CF9012211462D
:10086000D64805F047F914208DF8040002208DF8D1
:10087000050001208DF806008DF8070001A803F09F
:100880008AFE13208DF8040001208DF805008DF8F4
:1008900006008DF8070001A803F07DFE0BB000BD37
:1008A00010B50121C54805F08DF918B10121C348E3
:1008B00005F023FA10BD00B52DED048B93B00EAA00
:1008C0000021BE4804F0FBFF40F201210E9888424F
:1008D0007ED10EA8017CC07B41EA002000B200EE70
:1008E000100AB8EEC00AB64880ED050A0EA8827B51
:1008F000407B42EA002000B200EE100AB8EEC00AC7
:1009000010EE101A084606F0ABFC41EC190B9FEDF7
:10091000AD0B53EC102B06F0FDF841EC180B06F074
:100920001FF800EE100AA64880ED030A008B68B994
:10093000A348408B50B90EA8007B9DF8431040EAB5
:10094000012000B29E49488308830CE09C48408BFC
:100950009B4908830EA8007B9DF8431040EA0120C4
:1009600000B297494883964890ED000A8DED050A3C
:1009700090ED010A8DED060A90ED020A8DED070A51
:1009800090ED030A8DED080A90ED040A8DED090A39
:1009900090ED050A8DED0A0A008BADF82C00884811
:1009A000408BADF82E008648C0690C90844890F8C2
:1009B00020008DF83400142209A9684605F0FEF9DC
:1009C00005A80FC800F09CFA7D48D0ED010A00E0B0
:1009D00004E030EE200A80ED010A33E240F2022109
:1009E0000E9888427ED10EA8017CC07B41EA00208F
:1009F00000B200EE100AB8EEC00A744880ED050A95
:100A00000EA8827B407B42EA002000B200EE100A72
:100A1000B8EEC00A10EE101A084606F021FC41ECB0
:100A2000190B9FED680B53EC102B06F073F841EC9B
:100A3000180B05F095FF00EE100A644880ED030ADC
:100A4000008B68B96148408B50B90EA8007B9DF8B7
:100A5000431040EA012000B25C49488308830CE05F
:100A60005A48408B594908830EA8007B9DF84310D3
:100A700040EA012000B255494883544890ED000AED
:100A80008DED050A90ED010A8DED060A90ED020A42
:100A90008DED070A90ED030A8DED080A90ED040A2A
:100AA0008DED090A90ED050A8DED0A0A008BADF86F
:100AB0002C004648408BADF82E004448C0690C908D
:100AC000424890F820008DF83400142209A96846A5
:100AD00005F074F905A80FC800F012FA3B48D0EDF4
:100AE000010A00E004E030EE200A80ED010AA9E1ED
:100AF00040F203210E9888425DD10EA8017CC07B94
:100B000041EA002000B200EE100AB8EEC00A3048F8
:100B100080ED050A0EA8827B407B42EA002000B2ED
:100B200000EE100AB8EEC00A10EE101A084606F0E1
:100B300097FB41EC190B9FED230B53EC102B05F0A9
:100B4000E9FF41EC180B05F00BFF00EE100A2048FE
:100B500080ED030A008B68B91D48408B50B90EA880
:100B6000007B9DF8431040EA012000B218494883F9
:100B700008830CE01648408B154908830EA8007BBB
:100B80009DF8431040EA012000B211494883104803
:100B900090ED000A8DED050A90ED010A8DED060A33
:100BA00090ED020A8DED070A90ED030A8DED080A1B
:100BB00090ED040A0EE033E00000024000640040C3
:100BC0006C00002000000000000033409000002076
:100BD000B40000208DED090A90ED050A8DED0A0A9A
:100BE000008BADF82C00BD48408BADF82E00BB4803
:100BF000C0690C90B94890F820008DF83400142298
:100C000009A9684605F0DAF805A80FC800F078F9D8
:100C1000B248D0ED010A30EE200A80ED010A11E160
:100C20000E98B0F5017F7CD10EA8017CC07B41EA13
:100C3000002000B200EE100AB8EEC00AA84880ED0D
:100C4000050A0EA8827B407B42EA002000B200EE3B
:100C5000100AB8EEC00A10EE101A084606F000FBA3
:100C600041EC190B1FED290B53EC102B05F052FF33
:100C700041EC180B05F074FE00EE100A984880ED68
:100C8000030A008B68B99648408B50B90EA8007BC8
:100C90009DF8431040EA012000B29149488308833F
:100CA0000CE08F48408B8E4908830EA8007B9DF88E
:100CB000431040EA012000B289494883884890EDFA
:100CC000000A8DED050A90ED010A8DED060A90ED02
:100CD000020A8DED070A90ED030A8DED080A90EDEA
:100CE000040A8DED090A90ED050A8DED0A0A008BC4
:100CF000ADF82C007A48408BADF82E007848C069DA
:100D00000C90774890F820008DF83400142209A93F
:100D1000684605F053F805A80FC800F0F1F87048D0
:100D200000E006E0D0ED010A30EE200A80ED010A75
:100D300088E040F205210E9888427CD10EA8017C03
:100D4000C07B41EA002000B200EE100AB8EEC00AF3
:100D5000644880ED050A0EA8827B407B42EA0020B1
:100D600000B200EE100AB8EEC00A10EE101A0846E3
:100D700006F076FA41EC190B1FED6E0B53EC102BBD
:100D800005F0C8FE41EC180B05F0EAFD00EE100A74
:100D9000544880ED030A008B68B95248408B50B923
:100DA0000EA8007B9DF8431040EA012000B24D4997
:100DB000488308830CE04B48408B4A4908830EA8BF
:100DC000007B9DF8431040EA012000B2454948836A
:100DD000444890ED000A8DED050A90ED010A8DED75
:100DE000060A90ED020A8DED070A90ED030A8DEDDB
:100DF000080A90ED040A8DED090A90ED050A8DEDC3
:100E00000A0A008BADF82C003648408BADF82E0056
:100E10003448C0690C90334890F820008DF83400B5
:100E2000142209A9684604F0C9FF05A80FC800F0FC
:100E300067F82C4800E005E0D0ED010A30EE200A0A
:100E400080ED010A13B0BDEC048B00BDF0B585B098
:100E500004460D4616461F4600208DF808008DF802
:100E6000090008208DF80A0080010090200A8DF802
:100E70000B00E1B28DF80C10290A8DF80D10E9B2C3
:100E80008DF80E10310A8DF80F10F1B28DF8101098
:100E9000390A8DF81110F9B28DF81210694612480E
:100EA00004F018FC05B0F0BD10B586B00446002073
:100EB0008DF80C008DF80D0002208DF80E0040F228
:100EC000FF100190200A8DF80F008DF8104001A945
:100ED000054804F0FFFB06B010BD0000B400002080
:100EE000D8000020FC00002000640040B5EEC00ADD
:100EF000F1EE10FA03D2F1EE400AB0EE600A70474C
:100F00000FB400B5BDF91E00BDF91C10401A01EE6A
:100F1000100AB8EEC10AFFF7E9FFDFEDFE0AB4EEF2
:100F2000E00AF1EE10FA11DDB8EEC10AFFF7DEFFBC
:100F3000F8EEC11AC1EE800AB8EEC10ADFEDF61A6A
:100F400000EEE10ABDEEC00AB0EE401AB8EEC10AEA
:100F5000DFEDF20A20EE200AF3EE031AC0EE210ABA
:100F6000DFEDED1A80EEA10A5DF814FB9FEDEC0AAF
:100F7000EC4880ED010A9FEDEA0AEB4880ED010A9A
:100F80009FEDE70AE94880ED010A9FEDE50AE84890
:100F900080ED010A9FEDE20AE64880ED010A01209A
:100FA000E04981F82000E04981F82000DF4981F81C
:100FB0002000DF4981F82000DE4981F820009FED04
:100FC000D80AD84880ED020A9FEDD50AD64880EDB0
:100FD000020A9FEDD30AD54880ED020A9FEDD00AA0
:100FE000D34880ED020A9FEDCE0A084680ED020A42
:100FF00070479FEDD10AD14880ED000A9FEDD00ADD
:1010000080ED010A9FEDC60A80ED020A9FEDCD0A30
:1010100080ED030A9FEDCC0A80ED040A9FEDC00A23
:1010200080ED050A9FEDBE0A80ED060A0020C34947
:10103000C8619FEDC10AC54880ED000A9FEDC00A56
:1010400080ED010A9FEDB60A80ED020A9FEDBD0A10
:1010500080ED030A9FEDBC0A80ED040A9FEDB00A03
:1010600080ED050A9FEDAE0A80ED060A0020B74923
:10107000C8619FEDB10AB64880ED000A9FEDB00A45
:1010800080ED010A9FEDA60A80ED020A9FEDAD0AF0
:1010900080ED030A9FEDAC0A80ED040A9FEDA00AE3
:1010A00080ED050A9FED9E0A80ED060A0020A84902
:1010B000C8619FEDA10AA74880ED000A9FEDA00A34
:1010C00080ED010A9FED960A80ED020A9FED9D0AD0
:1010D00080ED030A9FED9C0A80ED040A9FED900AC3
:1010E00080ED050A9FED8E0A80ED060A00209949E1
:1010F000C8619FED910A984880ED000A9FED900A23
:1011000080ED010A9FED860A80ED020A9FED8D0AAF
:1011100080ED030A9FED8C0A80ED040A9FED800AA2
:1011200080ED050A9FED7E0A80ED060A00208A49BF
:10113000C86170479FED890A894880ED000AB1EEC9
:10114000040A80ED010A9FED760A80ED020A9FED08
:101150007D0A80ED030A9FED830A80ED040A9FED6E
:10116000700A80ED050A9FED6E0A80ED060A0020E8
:101170007B49C8619FED7C0A084680ED090A9FED16
:101180007B0A80ED080A9FED750A794880ED000A18
:10119000B1EE040A80ED010A9FED610A80ED020ABA
:1011A0009FED680A80ED030A9FED6E0A80ED040A48
:1011B0009FED5B0A80ED050A9FED590A80ED060A56
:1011C00000206B49C8619FED680A084680ED090A56
:1011D0009FED660A80ED080A9FED600A654880ED84
:1011E000000AB1EE040A80ED010A9FED4D0A80ED80
:1011F000020A9FED540A80ED030A9FED5A0A80ED22
:10120000040A9FED470A80ED050A9FED450A80ED2F
:10121000060A00205749C8619FED530A084680ED31
:10122000090A9FED520A80ED080A9FED4C0A5248C8
:1012300080ED000AB1EE040A80ED010A9FED380A44
:1012400080ED020A9FED3F0A80ED030A9FED450AFB
:1012500080ED040A9FED320A80ED050A9FED300A09
:1012600080ED060A00204449C8619FED3F0A084608
:1012700080ED090A9FED3D0A80ED080A9FED3F0AC7
:101280003F4880ED000AB1EE040A80ED010A9FEDAF
:10129000240A80ED020A9FED2B0A80ED030A9FEDE0
:1012A000310A80ED040A9FED1E0A80ED050A9FEDCC
:1012B0001C0A80ED060A00203149C8619FED2A0A08
:1012C000084680ED090A9FED290A80ED080A70475B
:1012D0009FED2C0A2C4880ED000A9FED110A80ED4D
:1012E000010A9FED2A0A80ED020A9FED160A80EDA1
:1012F000030A9FED270A80ED040A9FED090A80ED9D
:10130000050A9FED070A80ED060A00201E49C86104
:1013100040E0000000007A45000000460000B443B1
:10132000000000006C00002090000020B4000020AD
:10133000D8000020FC0000206666A63F7001002057
:101340008FC2F53C00007A4600806D45E801002020
:1013500060020020D80200205003002000007A43E1
:101360004801002000409C4500007A440000C8432A
:10137000C001002038020020B002002000005C43C1
:101380002803002085EBD13E2001002017B7D1387B
:101390000000FA44B3EE040A084680ED090A9FED06
:1013A000FB0A80ED080A1FED090AF94880ED000AE2
:1013B0001FED250A80ED010A1FED0C0A80ED020ADF
:1013C0001FED200A80ED030A1FED0F0A80ED040ACD
:1013D0001FED2D0A80ED050A1FED2F0A80ED060A8C
:1013E0000020EB49C861B3EE040A084680ED090A03
:1013F0009FEDE60A80ED080A1FED1E0AE54880ED24
:10140000000A1FED390A80ED010A1FED200A80ED68
:10141000020A1FED340A80ED030A1FED230A80ED56
:10142000040A1FED410A80ED050A1FED430A80ED15
:10143000060A0020D749C861B3EE040A084680EDC9
:10144000090A9FEDD20A80ED080A1FED320AD24840
:1014500080ED000A1FED4E0A80ED010A1FED350AEE
:1014600080ED020A1FED490A80ED030A1FED380ADC
:1014700080ED040A1FED560A80ED050A1FED580A9B
:1014800080ED060A0020C449C861B3EE040A08468C
:1014900080ED090A9FEDBD0A80ED080AB7EE000A4B
:1014A000BE4880ED000A1FED620A80ED010A9FED43
:1014B000BC0A80ED020A1FED5D0A80ED030A1FEDF4
:1014C0004C0A80ED040A1FED6A0A80ED050A1FED43
:1014D0006C0A80ED060A0020B049C861B3EE040A28
:1014E000084680ED090A9FEDA90A80ED080A7047B9
:1014F00000B5FFF77EFDFFF71DFEFFF7E9FE00BD1B
:1015000000B5B0EE403AF0EE603A33EE630AB0EE6A
:10151000401AC169012914D1B0EE410AFFF7E6FC77
:10152000D0ED090AB4EEE00AF1EE10FA04DB90ED1A
:10153000080A60EE011A08E090ED000A60EE011A58
:1015400003E090ED000A60EE011A90ED010A20EE32
:10155000015A90ED050A30EE052A90ED040AB4EE2A
:10156000C20AF1EE10FA04D290ED040A80ED050AE9
:1015700015E090ED040AFFEE000A20EE200AB4EE1A
:10158000C20AF1EE10FA08DD90ED040AFFEE000A3F
:1015900020EE200A80ED050A01E080ED052A90ED9D
:1015A000060A31EE404A90ED020A60EE044A80EDF0
:1015B000061A90ED050A30EE210A70EE242A90ED0D
:1015C000030AB4EEE20AF1EE10FA02D890ED030A33
:1015D00000BD90ED030AFFEE000A20EE200AB4EEF3
:1015E000E20AF1EE10FA06DD90ED030AFFEE000AC2
:1015F00020EE200AECE7B0EE620AE9E710B5694890
:1016000090F82000012814D0022802D0052833D1F8
:101610001FE0644890ED011AF0EE410A90ED001AC7
:10162000B0EE410A6048FFF76BFF5E4880ED020AAA
:1016300000BF5C4890ED031AF0EE410A90ED021AEB
:10164000B0EE410A5948FFF75BFF564880ED040AA7
:1016500000BF544890ED051AF0EE410A90ED041ACF
:10166000B0EE410A5248FFF74BFFBDEEC00A10EE44
:10167000100A4C49C86100E000BF00BF4D4890F817
:101680002000012814D0022802D0052833D11FE001
:10169000484890ED011AF0EE410A90ED001AB0EEC4
:1016A000410A3B48FFF72CFF424880ED020A00BF89
:1016B000404890ED031AF0EE410A90ED021AB0EEA8
:1016C000410A3D48FFF71CFF3A4880ED040A00BF7D
:1016D000384890ED051AF0EE410A90ED041AB0EE8C
:1016E000410A3648FFF70CFFBDEEC00A10EE100AA3
:1016F0003049C86100E000BF00BF314890F82000C9
:10170000012814D0022802D0052833D11FE02C482C
:1017100090ED011AF0EE410A90ED001AB0EE410A88
:101720001C48FFF7EDFE264880ED020A00BF244862
:1017300090ED031AF0EE410A90ED021AB0EE410A64
:101740002048FFF7DDFE1E4880ED040A00BF1C485C
:1017500090ED051AF0EE410A90ED041AB0EE410A40
:101760001948FFF7CDFEBDEEC00A10EE100A14496D
:10177000C86100E000BF00BF144890F820000128B5
:1017800036D0022824D0052855D141E00000484237
:101790009801002010020020880200200003002091
:1017A0000AD7233C6C0000202001002048010020C3
:1017B0007001002090000020C0010020E8010020FE
:1017C000B40000203802002060020020D800002071
:1017D000744890ED011AF0EE410A90ED001AB0EE57
:1017E000410A7148FFF78CFE6E4880ED020A00BF87
:1017F0006C4890ED031AF0EE410A90ED021AB0EE3B
:10180000410A6A48FFF77CFE664880ED040A00BF83
:10181000644890ED051AF0EE410A90ED041AB0EE1E
:10182000410A6348FFF76CFEBDEEC00A10EE100AD5
:101830005C49C86100E000BF00BF5E4890F820002E
:10184000012814D0022802D0052833D11FE05948BE
:1018500090ED011AF0EE410A90ED001AB0EE410A47
:101860005548FFF74DFE534880ED020A00BF51482E
:1018700090ED031AF0EE410A90ED021AB0EE410A23
:101880004E48FFF73DFE4B4880ED040A00BF494833
:1018900090ED051AF0EE410A90ED041AB0EE410AFF
:1018A0004748FFF72DFEBDEEC00A10EE100A414971
:1018B000C86100E000BF00BF3A4CE46923B2414C6C
:1018C000E46922B2404CE46921B2404CE46920B2A0
:1018D000FFF7BCFA3749C96908B2FFF7E5FA10BD4E
:1018E00010B52DED068BB0EE40AAB0EE608AF0EE9A
:1018F000418AB0EE619AF0EE429A0120334981F8B4
:101900002000314981F820002E4981F82000254926
:1019100081F82000274981F820002C4880ED02AA98
:10192000294880ED028A2748C0ED028A1D4880EDD3
:10193000029A0846C0ED029AFFF760FEBDEC068BE6
:1019400010BD10B52DED068BB0EE40AAB0EE608A4A
:10195000F0EE418AB0EE619AF0EE429A02201B4905
:1019600081F82000184981F82000164981F82000EC
:101970000C4981F820000F4981F82000134880EDC0
:1019800000AA114880ED008A0E48C0ED008A054883
:1019900080ED009A0846C0ED009AFFF72FFEBDECDF
:1019A000068B10BDD800002088020020B002002065
:1019B000D8020020FC0000200003002028030020A3
:1019C00050030020B4000020900000206C00002094
:1019D000B5EEC00AF1EE10FA01D100207047B5EE65
:1019E000C00AF1EE10FA01DD0120F7E74FF0FF30F9
:1019F000F4E702466FF00201FE48D0ED012AFE48EE
:101A000090ED003A72EEC32AFC4890ED003A72EE77
:101A1000C32AF0EE620AFA48D0ED012AF64890EDAA
:101A2000013A72EEC32AF54890ED013A72EEC32AEC
:101A3000B0EE622AF348D0ED012AEF4890ED023A69
:101A400072EEC32AED4890ED023A72EEC32AB0EE70
:101A5000621AED48D0ED012AE74890ED033A72EEA4
:101A6000C32AE64890ED033A72EEC32AF0EE621AFA
:101A7000F4EEC00AF1EE10FA07D2F1EE402AF4EECD
:101A8000E20AF1EE10FA00DD491CB4EEC02AF1EED4
:101A900010FA07D2F1EE402AB4EEE22AF1EE10FA83
:101AA00000DD491CB4EEC01AF1EE10FA07D2F1EED7
:101AB000402AB4EEE21AF1EE10FA00DD491CF4EE11
:101AC000C01AF1EE10FA07D2F1EE402AF4EEE21A53
:101AD000F1EE10FA00DD491C914201DD0120704752
:101AE0000020FCE700B52DED040B99B09DED1B0A1D
:101AF000DDED190A30EE600ADFEDC40A20EE200A9F
:101B00008DED120A9DED1C0ADDED1A0A30EE600A19
:101B1000DFEDBE0A20EE200A8DED110A9FEDBC0A12
:101B20008DED100AB34890ED010AB34880ED000A2C
:101B3000B34890ED010AB04880ED010AB14890ED3C
:101B4000010AAD4880ED020AAF4890ED010AAA48AB
:101B500080ED030A9DED120A9FEDAE1AC0EE010A58
:101B60009FEDAD0A20EE800AA44880ED000A9DEDAD
:101B7000110AB1EE400A9FEDA71AC0EE010A9FEDCF
:101B8000A60A20EE800A80ED010A90ED000AB1EE6F
:101B9000400A80ED020A90ED010AB1EE400A80EDA4
:101BA000030A00209D49086023E094489B49096886
:101BB00000EB810090ED000AB5EEC00AF1EE10FADC
:101BC00009D29FED970A13A89449096800EB810098
:101BD00080ED000A08E09FED930A13A88F49096879
:101BE00000EB810080ED000A8C480068401C8B49A6
:101BF00008608A4800680428D7DB00BF9DED100A02
:101C0000DFED880AB4EEE00AF1EE10FA7DD2119809
:101C100005F026FBCDE900019DED000B04F004FA70
:101C20008DED040B129805F01BFBCDE900019DED35
:101C3000000B04F0F9F98DED020B9DED040B53EC54
:101C4000102B9DED020B51EC100B04F0BBFECDE907
:101C50000801119805F004FBCDE900019DED000B92
:101C600004F0E2F98DED040B9DED160A8DED000AEE
:101C70009DED000AFFF7ACFE00EE100AF8EEC00A78
:101C80009DED100A20EE800A8DED010A019805F005
:101C9000E7FACDE902019DED040B53EC102B9DED0D
:101CA000020B51EC100B05F0E7F8CDE906019DEDB4
:101CB000080B53EC102B9DED060B51EC100B04F0B0
:101CC00029FFCDE90A019DED0A0B51EC100B04F040
:101CD00047FE0F90119805F0C3FACDE900019DED84
:101CE000000B04F0A1F98DED040B129805F0B8FA81
:101CF000CDE900019DED000B04F096F98DED020B8E
:101D00009DED040B53EC102B00E03FE19DED020B29
:101D100051EC100B04F056FECDE90801129805F0C5
:101D20009FFACDE900019DED000B04F07DF98DEDEA
:101D3000040B9DED150A8DED000A9DED000AFFF7DD
:101D400047FE00EE100AF8EEC00A9DED100A20EEE4
:101D5000800A8DED010A019805F082FACDE90201B1
:101D60009DED040B53EC102B9DED020B51EC100B71
:101D700005F082F8CDE906019DED080B53EC102B20
:101D80009DED060B51EC100B04F0C4FECDE90A01E9
:101D90009DED0A0B51EC100B04F0E2FD0E90119832
:101DA00005F05EFACDE900019DED000B04F03CF971
:101DB0008DED040B129805F053FACDE900019DED6D
:101DC000000B04F031F98DED020B9DED040B53EC8B
:101DD000102B9DED020B51EC100B04F0F3FDCDE93F
:101DE0000801119805F03CFACDE900019DED000BCA
:101DF0001AE000006C0000209803002084030020FB
:101E000090000020B4000020D80000206666863FC5
:101E100000000000959E6B430000B44324000020A6
:101E2000000096C30000964304F0FEF88DED040B0D
:101E30009DED140A8DED000A9DED000AFFF7C8FD27
:101E400000EE100AF8EEC00A9DED100A20EE800A9E
:101E50008DED010A019805F003FACDE902019DED2F
:101E6000040B53EC102B9DED020B51EC100B05F005
:101E700003F8CDE906019DED080B53EC102B9DED09
:101E8000060B51EC100B04F045FECDE90A019DED67
:101E90000A0B51EC100B04F063FD0D90119805F046
:101EA000DFF9CDE900019DED000B04F0BDF88DEDEB
:101EB000040B129805F0D4F9CDE900019DED000B5B
:101EC00004F0B2F88DED020B9DED040B53EC102BDA
:101ED0009DED020B51EC100B04F074FDCDE90801EF
:101EE000129805F0BDF9CDE900019DED000B04F05D
:101EF0009BF88DED040B9DED130A8DED000A9DED11
:101F0000000AFFF765FD00EE100AF8EEC00A9DED2D
:101F1000100A20EE800A8DED010A019805F0A0F963
:101F2000CDE902019DED040B53EC102B9DED020B4E
:101F300051EC100B04F0A0FFCDE906019DED080B5C
:101F400053EC102B9DED060B51EC100B04F0E2FD51
:101F5000CDE90A019DED0A0B51EC100B04F000FDD8
:101F60001FED552A0C90DDED0F1A9DED0E1ADDEDDB
:101F70000D0A9DED0C0AFFF7B3FC9DED100ADFED95
:101F8000FE0A30EE200A8DED100A53E1119805F09B
:101F900067F9CDE900019DED000B04F045F88DEDEA
:101FA000040B129805F05CF9CDE900019DED000BE2
:101FB00004F03AF88DED020B9DED040B53EC102B61
:101FC0009DED020B51EC100B04F0FCFCCDE9080177
:101FD000119805F045F9CDE900019DED000B04F0E5
:101FE00023F88DED040B1698019005F039F9CDE931
:101FF00002019DED040B53EC102B9DED020B51ECF7
:10200000100B04F039FFCDE906019DED080B53ECF0
:10201000102B9DED060B51EC100B04F07BFDCDE970
:102020000A019DED0A0B51EC100B04F099FC0F9086
:10203000119805F015F9CDE900019DED000B03F0B5
:10204000F3FF8DED040B129805F00AF9CDE90001BC
:102050009DED000B03F0E8FF8DED020B9DED040BF1
:1020600053EC102B9DED020B51EC100B04F0AAFC6D
:10207000CDE90801129805F0F3F8CDE900019DEDD6
:10208000000B03F0D1FF8DED040B1598019005F0C6
:10209000E7F8CDE902019DED040B53EC102B9DED0B
:1020A000020B51EC100B04F0E7FECDE906019DEDAB
:1020B000080B53EC102B9DED060B51EC100B04F0AC
:1020C00029FDCDE90A019DED0A0B51EC100B04F03E
:1020D00047FC0E90119805F0C3F8CDE900019DED85
:1020E000000B03F0A1FF8DED040B129805F0B8F87A
:1020F000CDE900019DED000B03F096FF8DED020B85
:102100009DED040B53EC102B9DED020B51EC100BCD
:1021100004F058FCCDE90801119805F0A1F8CDE9CB
:1021200000019DED000B03F07FFF8DED040B149873
:10213000019005F095F8CDE902019DED040B53ECFB
:10214000102B9DED020B51EC100B04F095FECDE928
:1021500006019DED080B53EC102B9DED060B51EC89
:10216000100B04F0D7FCCDE90A019DED0A0B51ECF0
:10217000100B04F0F5FB0D90119805F071F8CDE906
:1021800000019DED000B03F04FFF8DED040B129845
:1021900005F066F8CDE900019DED000B03F044FF6A
:1021A0008DED020B9DED040B53EC102B9DED020BFE
:1021B00051EC100B04F006FCCDE90801129805F073
:1021C0004FF8CDE900019DED000B03F02DFF8DEDE3
:1021D000040B1398019005F043F8CDE902019DED41
:1021E000040B53EC102B9DED020B51EC100B04F083
:1021F00043FECDE906019DED080B53EC102B9DED40
:10220000060B51EC100B04F085FCCDE90A019DEDA5
:102210000A0B51EC100B04F0A3FB9FED582A0C9015
:10222000DDED0F1A9DED0E1ADDED0D0A9DED0C0A88
:10223000FFF756FB022001F04FFE4FF0FF309FEDFD
:10224000500AFFF7D6FB00283FF4D8AC00BF119826
:1022500005F006F8CDE900019DED000B03F0E4FE6A
:102260008DED040B129804F0FBFFCDE900019DED0C
:10227000000B03F0D9FE8DED020B9DED040B53EC2A
:10228000102B9DED020B51EC100B04F09BFBCDE9E4
:102290000801119804F0E4FFCDE900019DED000B69
:1022A00003F0C2FE8DED040B9DED160A8DED000AC4
:1022B0009DED000AFFF78CFB00EE100AF8EEC00A55
:1022C0009DED100A20EE800A8DED010A019804F0C0
:1022D000C7FFCDE902019DED040B53EC102B9DEDE2
:1022E000020B51EC100B04F0C7FDCDE906019DED8A
:1022F000080B53EC102B9DED060B51EC100B04F06A
:1023000009FCCDE90A019DED0A0B51EC100B04F01C
:1023100027FB0F90119804F0A3FFCDE900019DED7C
:10232000000B03F081FE8DED040B129804F098FF72
:10233000CDE900019DED000B03F076FE8DED020B63
:102340009DED040B53EC102B9DED020B51EC100B8B
:1023500004F038FBCDE90801129804F081FFCDE9C3
:1023600000019DED000B03F05FFE8DED040B9DED74
:10237000150A8DED000A05E09A99993E00000000CB
:10238000000048439DED000AFFF722FB00EE100A13
:10239000F8EEC00A9DED100A20EE800A8DED010ACC
:1023A000019804F05DFFCDE902019DED040B53ECB3
:1023B000102B9DED020B51EC100B04F05DFDCDE9EF
:1023C00006019DED080B53EC102B9DED060B51EC17
:1023D000100B04F09FFBCDE90A019DED0A0B51ECB7
:1023E000100B04F0BDFA0E90119804F039FFCDE9FE
:1023F00000019DED000B03F017FE8DED040B12980C
:1024000004F02EFFCDE900019DED000B03F00CFE62
:102410008DED020B9DED040B53EC102B9DED020B8B
:1024200051EC100B04F0CEFACDE90801119804F03C
:1024300017FFCDE900019DED000B03F0F5FD8DEDDB
:10244000040B9DED140A8DED000A9DED000AFFF7C7
:10245000BFFA00EE100AF8EEC00A9DED100A20EE59
:10246000800A8DED010A019804F0FAFECDE902011F
:102470009DED040B53EC102B9DED020B51EC100B5A
:1024800004F0FAFCCDE906019DED080B53EC102B8E
:102490009DED060B51EC100B04F03CFBCDE90A015D
:1024A0009DED0A0B51EC100B04F05AFA0D901198A7
:1024B00004F0D6FECDE900019DED000B03F0B4FD64
:1024C0008DED040B129804F0CBFECDE900019DEDDB
:1024D000000B03F0A9FD8DED020B9DED040B53ECF9
:1024E000102B9DED020B51EC100B04F06BFACDE9B3
:1024F0000801129804F0B4FECDE900019DED000B37
:1025000003F092FD8DED040B9DED130A8DED000A95
:102510009DED000AFFF75CFA00EE100AF8EEC00A23
:102520009DED100A20EE800A8DED010A019804F05D
:1025300097FECDE902019DED040B53EC102B9DEDB0
:10254000020B51EC100B04F097FCCDE906019DED58
:10255000080B53EC102B9DED060B51EC100B04F007
:10256000D9FACDE90A019DED0A0B51EC100B04F0EC
:10257000F7F91FED7E2A0C90DDED0F1A9DED0E1A76
:10258000DDED0D0A9DED0C0AFFF7AAF99DED100A8D
:10259000DFEDFC0AB4EEE00AF1EE10FA07DD9DED86
:1025A000100A5FED8B0A30EE600A8DED100A0220F2
:1025B00001F092FC4FF0FF309FEDF20AFFF719FA9D
:1025C00000283FF444AE9DED1B0AEF4880ED000A61
:1025D0009DED1C0A80ED010A1DB000BD00B52DED7A
:1025E0000A8B85B0B0EE409AF0EE608A1FED9D0A2E
:1025F000B0EE408A38EEC90AF7EE000A20EE200A53
:10260000F0EE409A9FEDE10A29EE800ADFEDE00A44
:1026100080EE201A9FEDDF0A61EE000AB0EE001A8C
:1026200080EE810A9FEDDC1AC0EE010A9FEDDB0A05
:1026300020EE800AB0EE40AAD94890ED010AD948B0
:1026400080ED000AD84890ED010AD64880ED010AD5
:10265000D64890ED010AD34880ED020AD44890EDA7
:10266000010AD04880ED030A0020D24908600DE03D
:10267000B1EE4A0AD048CF49096800EB810080EDED
:10268000000ACC480068401CCA490860C948006874
:102690000428EDDB0020C749086023E0C648C5498F
:1026A000096800EB810090ED000AB5EEC00AF1EE7A
:1026B00010FA09D29FEDC10A6846BE49096800EBCD
:1026C000810080ED000A08E09FEDBD0A6846B94927
:1026D000096800EB810080ED000AB6480068401CE4
:1026E000B4490860B34800680428D7DB00BF9FEDF9
:1026F000B50AB4EEC08AF1EE10FA48D2DDED030A55
:10270000B0EE600AFFF764F900EE100AB8EEC00AF6
:1027100020EE080AF0EE40AADDED020AB0EE600AF3
:10272000FFF756F900EE100AB8EEC00A20EE080ACC
:10273000B0EE40BADDED010AB0EE600AFFF748F9ED
:1027400000EE100AB8EEC00A20EE080AF0EE40BA19
:10275000DDED000AB0EE600AFFF73AF900EE100A6C
:10276000B8EEC00A20EE080AB0EE40CA1FEDFD2AFE
:10277000F0EE6A1AB0EE4B1AF0EE6B0AFFF7B0F803
:102780009FED910A38EE000AB0EE408A16E09DED0A
:10279000032AF0EE421A9DED022AB0EE421A9DED98
:1027A000012AF0EE420A9DED002AB0EE420A9FEDAA
:1027B000872AFFF795F8022001F08EFB00209FED9D
:1027C000710AFFF716F9002891D06F48C0ED028A10
:1027D00005B0BDEC0A8B00BD10B52DED068BB0EE3B
:1027E000408A6F4890ED010ABDEEC00AF0EE408AC3
:1027F0006D4890ED010ABDEEC00AB0EE409A6B48FC
:1028000090ED010ABDEEC00AF0EE409A684890EDE6
:10281000010ABDEEC00AB0EE40AA6D4890ED010A73
:10282000BDEEC00A10EE104A0BE0B0EE482AF8EEFA
:10283000CA1AB8EEE91AF8EEC90AB8EEE80AFFF7C4
:1028400080F8634890ED030AF7EE000AB4EEE00A60
:10285000F1EE10FA08D290ED030AFFEE000AB4EE92
:10286000E00AF1EE10FAE0DCBDEC068B10BD10B50D
:102870002DED0C8BB0EE408AF0EE608A9FED550B8B
:1028800003F0DEFBB0EE40CAF0EE60CA18EE100AAC
:1028900004F0E6FC41EC1D0B53EC1C2B04F0ECFAAD
:1028A00041EC1A0B9FED4B0B03F05AFBB0EE40CA04
:1028B000F0EE60CA18EE900A04F0D2FC41EC1D0B59
:1028C00053EC1C2B04F0D8FA41EC1B0B53EC1A2BE5
:1028D00004F0DCFB41EC190B04F042F800EE100AA6
:1028E000BDEC0C8B10BD10B52DED0C8BB0EE408AFD
:1028F000F0EE608A9FED370B03F0A2FBB0EE40CA0A
:10290000F0EE60CA18EE900A04F0AAFC41EC1D0B30
:1029100053EC1C2B04F0B0FA41EC1A0B9FED2D0B7D
:1029200003F01EFBB0EE40CAF0EE60CA18EE100ACB
:1029300004F096FC41EC1D0B53EC1C2B04F09CFAAC
:1029400041EC1B0B53EC1A2B04F03CF841EC190B37
:1029500004F006F800EE100ABDEC0C8B10BD07B5B4
:1029600084B00698012847D10498039005980490F4
:10297000039805900598012833D0059870BB022074
:1029800005902EE00000484278030020DB0F49400C
:10299000000034430000E143959E6B430000B443C4
:1029A0006C0000209803002090000020B40000205C
:1029B000D800002024000020840300200000C8C2AA
:1029C0000000C842000096439A99993E000000001A
:1029D000FC00002000000060FB21E9BFFFE70020B1
:1029E00005900498012806D0049810B9022004909C
:1029F00001E00020049000BF049801287DD10598D3
:102A000001287AD1DFEDFE0A1FED100AFFF72FFF34
:102A10008DED030ADFEDFA0A1FED140AFFF763FFDD
:102A20008DED020AF74890ED010A8DED010A90ED57
:102A3000000A8DED000ADDED031A9DED021ADDEDB1
:102A4000010A9DED000AFFF74DF8DFEDED0A9FED5D
:102A5000EE0AFFF70CFF8DED030ADFEDE90A9FEDAB
:102A6000EA0AFFF740FF8DED020AE64890ED010A01
:102A70008DED010A90ED000A8DED000ADDED031ADF
:102A80009DED021ADDED010A9DED000AFFF72AF81F
:102A9000DFEDDE0A9FEDDC0AFFF7E9FE8DED030AAC
:102AA000DFEDDA0A9FEDD80AFFF71DFF8DED020A70
:102AB000D44890ED010A8DED010A90ED000A8DEDEC
:102AC000000ADDED031A9DED021ADDED010A9DED10
:102AD000000AFFF707F8DFEDCD0A9FEDCD0AFFF7FB
:102AE000C6FE8DED030ADFEDC90A9FEDC90AFFF7A7
:102AF000FAFE8DED020AC34800E03FE090ED010AC6
:102B00008DED010A90ED000A8DED000ADDED031A4E
:102B10009DED021ADDED010A9DED000AFEF7E2FFD0
:102B20005FED560A9FEDBA0AFFF7A1FE8DED030A8D
:102B30005FED5A0A9FEDB60AFFF7D5FE8DED020A4A
:102B4000B04890ED010A8DED010A90ED000A8DED7F
:102B5000000ADDED031A9DED021ADDED010A9DED7F
:102B6000000AFEF7BFFFA74890ED020A8DED030AA9
:102B70005FED790A9DED030AFFF730FD0498012807
:102B80007DD1059800287AD1DFED9D0A1FED710AED
:102B9000FFF76DFE8DED030ADFED990A1FED750A53
:102BA000FFF7A1FE8DED020A964890ED010A8DED2A
:102BB000010A90ED000A8DED000ADDED031A9DED8E
:102BC000021ADDED010A9DED000AFEF78BFFDFED35
:102BD0008C0A9FED8D0AFFF74AFE8DED030ADFEDAB
:102BE000880A9FED890AFFF77EFE8DED020A85486F
:102BF00090ED010A8DED010A90ED000A8DED000ABD
:102C0000DDED031A9DED021ADDED010A9DED000ACE
:102C1000FEF768FFDFED7D0A9FED7B0AFFF727FED9
:102C20008DED030ADFED790A9FED770AFFF75BFE72
:102C30008DED020A734890ED010A8DED010A90EDC9
:102C4000000A8DED000ADDED031A9DED021ADDED9F
:102C5000010A9DED000AFEF745FFDFED6C0A9FEDCE
:102C60006C0AFFF704FE8DED030ADFED680A9FEDA5
:102C7000680AFFF738FE8DED020A624800E01CE0AA
:102C800090ED010A8DED010A90ED000A8DED000A2C
:102C9000DDED031A9DED021ADDED010A9DED000A3E
:102CA000FEF720FF574890ED020A8DED030A5FED15
:102CB000C80A9DED030AFFF791FC049801287DD115
:102CC000059802287AD1DFED510A1FEDC00AFFF7FF
:102CD000CEFD8DED030ADFED4D0A1FEDC40AFFF7AF
:102CE00002FE8DED020A474890ED010A8DED010AC2
:102CF00090ED000A8DED000ADDED031A9DED021A3C
:102D0000DDED010A9DED000AFEF7ECFEDFED3F0A66
:102D10009FED3D0AFFF7ABFD8DED030ADFED3B0AAA
:102D20009FED390AFFF7DFFD8DED020A354890ED82
:102D3000010A8DED010A90ED000A8DED000ADDED2E
:102D4000031A9DED021ADDED010A9DED000AFEF762
:102D5000C9FEDFED2B0A9FED2C0AFFF788FD8DEDF4
:102D6000030ADFED270A9FED280AFFF7BCFD8DED72
:102D7000020A244890ED010A8DED010A90ED000A47
:102D80008DED000ADDED031A9DED021ADDED010A5D
:102D90009DED000AFEF7A6FEDFED190A9FED1C0A65
:102DA000FFF765FD8DED030ADFED150A9FED180AAB
:102DB000FFF799FD8DED020A124800E01CE090ED4E
:102DC000010A8DED010A90ED000A8DED000ADDED9E
:102DD000031A9DED021ADDED010A9DED000AFEF7D2
:102DE00081FE084890ED020A8DED030ADFED090A25
:102DF0009DED030AFFF7F2FB049802287BD10BE05C
:102E00000000FAC37803002000409CC40000FA438D
:102E100000A00CC5000034430598E8BB5FED080A2C
:102E20001FED070AFFF723FD8DED030A5FED0C0A86
:102E30001FED0B0AFFF757FD8DED020ADDED031ABA
:102E40009DED021A5FED120A9FEDFD0AFEF74AFEA4
:102E50005FED120A1FED140AFFF709FD8DED030A5D
:102E60005FED160A1FED180AFFF73DFD8DED020A12
:102E7000F44890ED010A8DED010A90ED000A8DED08
:102E8000000ADDED031A9DED021ADDED010A9DED4C
:102E9000000AFEF727FE00E02DE05FED240A1FED9B
:102EA000240AFFF7E4FC8DED030A5FED280A1FED0D
:102EB000280AFFF718FD8DED020AE24890ED010A9D
:102EC0008DED010A90ED000A8DED000ADDED031A8B
:102ED0009DED021ADDED010A9DED000AFEF702FEEE
:102EE000D84890ED020A8DED030A5FED360A9DED9C
:102EF000030AFFF773FB049802287CD10598012888
:102F000079D15FED410A1FED400AFFF7B0FC8DED6E
:102F1000030A5FED450A1FED440AFFF7E4FC8DED5F
:102F2000020ADDED031A9DED021A5FED4B0A9FEDDB
:102F3000C40AFEF7D7FD5FED4B0A1FED4D0AFFF700
:102F400096FC8DED030A5FED4F0A1FED510AFFF766
:102F5000CAFC8DED020ABB4890ED010A8DED010A15
:102F600090ED000A8DED000ADDED031A9DED021AC9
:102F7000DDED010A9DED000AFEF7B4FD5FED5D0A8F
:102F80001FED5D0AFFF773FC8DED030A5FED610A2B
:102F90001FED610AFFF7A7FC8DED020AA94890ED2D
:102FA000010A8DED010A90ED000A8DED000ADDEDBC
:102FB000031A9DED021ADDED010A9DED000AFEF7F0
:102FC00091FDDFED9F0A1FED6E0AFFF750FC8DEDBE
:102FD000030ADFED9B0A1FED720AFFF784FC8DEDFB
:102FE000020A984890ED010A8DED010A90ED000A61
:102FF0008DED000A00E014E0DDED031A9DED021AEC
:10300000DDED010A9DED000AFEF76CFD8D4890EDA7
:10301000020A8DED030A5FED810A9DED030AFFF7B9
:10302000DDFA049802287CD10598022879D15FED59
:103030008C0A1FED8B0AFFF71AFC8DED030A5FED7A
:10304000900A1FED8F0AFFF74EFC8DED020ADDEDB1
:10305000031A9DED021A5FED960A9FED790AFEF7BD
:1030600041FD5FED960A1FED980AFFF700FC8DED1C
:10307000030A5FED9A0A1FED9C0AFFF734FC8DED01
:10308000020A704890ED010A8DED010A90ED000AE8
:103090008DED000ADDED031A9DED021ADDED010A4A
:1030A0009DED000AFEF71EFD5FEDA80A1FEDA80AC0
:1030B000FFF7DDFB8DED030A5FEDAC0A1FEDAC0AF7
:1030C000FFF711FC8DED020A5E4890ED010A8DEDCF
:1030D000010A90ED000A8DED000ADDED031A9DED69
:1030E000021ADDED010A9DED000AFEF7FBFC5FED23
:1030F000BC0A1FEDB90AFFF7BAFB8DED030A5FEDBD
:10310000C00A1FEDBD0AFFF7EEFB8DED020A4D4828
:1031100090ED010A8DED010A90ED000A8DED000A97
:1031200000E014E0DDED031A9DED021ADDED010A69
:103130009DED000AFEF7D6FC424890ED020A8DEDA7
:10314000030A5FEDCC0A9DED030AFFF747FA0498E6
:10315000F0BB059802286CD15FEDD40A1FEDD60AAA
:10316000FFF785FB8DED030A5FEDD80A1FEDDA0A44
:10317000FFF7B9FB8DED020ADDED031A9DED021A92
:103180005FEDDE0A9FED2E0AFEF7ACFC5FEDE40A70
:103190001FEDE30AFFF76BFB8DED030A5FEDE80A15
:1031A0001FEDE70AFFF79FFB8DED020A254890ED22
:1031B000010A8DED010A90ED000A8DED000ADDEDAA
:1031C000031A9DED021ADDED010A9DED000A00E0F3
:1031D0002FE0FEF787FC5FEDF60A1FEDF30AFFF71D
:1031E00046FB8DED030A5FEDFA0A1FEDF70AFFF7C4
:1031F0007AFB8DED020A134890ED010A8DED010A6C
:1032000090ED000A8DED000ADDED031A9DED021A26
:10321000DDED010A9DED000AFEF764FC094890ED22
:10322000020A8DED030ADFED080A9DED030AFFF7A0
:10323000D5F9049800287DD1059801287AD105E0B8
:10324000000000007803002000003443DFEDBF0AD7
:103250009FEDBF0AFFF70BFB8DED030ADFEDBB0A05
:103260009FEDBB0AFFF73FFB8DED020ADDED031A70
:103270009DED021ADFEDB50A1FED0F0AFEF732FCD5
:10328000DFEDB40A9FEDB20AFFF7F1FA8DED030A04
:10329000DFEDB00A9FEDAE0AFFF725FB8DED020AC8
:1032A000AD4890ED010A8DED010A90ED000A8DED1B
:1032B000000ADDED031A9DED021ADDED010A9DED18
:1032C000000AFEF70FFCDFEDA30A9FEDA40AFFF74B
:1032D000CEFA8DED030ADFED9F0A9FEDA00AFFF7FE
:1032E00002FB8DED020A9C4890ED010A8DED010A6A
:1032F00090ED000A8DED000ADDED031A9DED021A36
:10330000DDED010A9DED000AFEF7ECFB5FED340AEE
:103310009FED920AFFF7ABFA8DED030A5FED380AD5
:103320009FED8E0AFFF7DFFA8DED020A8A4890EDD5
:10333000010A00E01AE08DED010A90ED000A8DED22
:10334000000ADDED031A9DED021ADDED010A9DED87
:10335000000AFEF7C7FB804890ED020A8DED030AD4
:103360005FED470A9DED030AFFF738F9049800283E
:103370007ED1059800287BD1DFED740A9FED740A99
:10338000FFF775FA8DED030ADFED700A9FED700A05
:10339000FFF7A9FA8DED020ADDED031A9DED021A81
:1033A000DFED6A0A1FED5A0AFEF79CFBDFED690AA2
:1033B0009FED670AFFF75BFA8DED030ADFED650A03
:1033C0009FED630AFFF78FFA8DED020A624890EDD8
:1033D000010A8DED010A90ED000A8DED000ADDED88
:1033E000031A9DED021ADDED010A9DED000AFEF7BC
:1033F00079FBDFED580A9FED590AFFF738FA8DED9A
:10340000030ADFED540A9FED550AFFF76CFA8DEDC4
:10341000020A514890ED010A8DED010A90ED000A73
:103420008DED000ADDED031A9DED021ADDED010AB6
:103430009DED000AFEF756FBDFED440A9FED470ABB
:10344000FFF715FA8DED030ADFED400A9FED430A01
:10345000FFF749FA8DED020A3F4890ED010A8DED24
:10346000010A90ED000A8DED000ADDED031A00E07F
:1034700012E09DED021ADDED010A9DED000AFEF756
:1034800031FB354890ED020A8DED030A5FED920A9B
:103490009DED030AFFF7A2F807B000BD70470128B1
:1034A00000D100E000BF704702466FF002012C48D7
:1034B000D0ED030AF4EEC00AF1EE10FA09D2D0ED15
:1034C000030AB1EE401AF4EEC10AF1EE10FA00DD83
:1034D000491C2448D0ED030AF4EEC00AF1EE10FABC
:1034E00009D2D0ED030AB1EE401AF4EEC10AF1EEB2
:1034F00010FA00DD491C1C48D0ED030AF4EEC00AA6
:10350000F1EE10FA09D2D0ED030AB1EE401AF4EE52
:10351000C10AF1EE10FA00DD491C1448D0ED030A8F
:10352000F4EEC00AF1EE10FA09D2D0ED030AB1EEC2
:10353000401AF4EEC10AF1EE10FA00DD491C914286
:1035400001DD012070470020FCE700000000FA4385
:1035500000409CC40000FAC37803002000A00CC502
:103560006C00002090000020B4000020D800002053
:103570001CB50121202001F09DFB4FF4C06000909C
:1035800001208DF8040000208DF8060003208DF83E
:10359000050001208DF807006946044801F0ECF8A9
:1035A0004FF4C061014801F063F91CBD00140240F2
:1035B0001CB50121112001F07DFB1C200090002092
:1035C0008DF8040003208DF8050001208DF8070018
:1035D0006946354801F0D0F80120009002208DF8AE
:1035E00007006946314801F0C7F81CBD10B5044614
:1035F00014B101202E4908702D480078002837D0DA
:103600001021294801F01AF978B10821264801F063
:1036100015F950B10421244801F010F928B1012115
:10362000224801F00BF9012822D10A2000F054FCB5
:1036300000201F49087010211B4801F0FFF808B94D
:10364000012010BD0821184801F0F8F808B902203F
:10365000F7E70421144801F0F1F808B90320F0E776
:103660000121124801F0EAF801281BD10420E8E703
:1036700010210D4801F0E2F8012813D108210A4871
:1036800001F0DCF801280DD10421074801F0D6F83B
:10369000012807D10121054801F0D0F810B9012017
:1036A000034908700020CCE70010024000000240EF
:1036B0002800002010B50121084601F0FBFA012185
:1036C000022001F0F7FA0121042001F0F3FA0121B0
:1036D000082001F0EFFA0121102001F0EBFA01219E
:1036E000202001F0E7FA0121402001F0E3FA10BDAB
:1036F0001CB51020009000208DF8040002208DF8E9
:10370000050001208DF807006946F94801F034F8FA
:103710000120009000208DF8040002208DF80500A3
:1037200001208DF807006946F24801F025F80420D1
:10373000009000208DF8040002208DF80500012083
:103740008DF807006946EB4801F016F84FF48050F9
:10375000009000208DF8040002208DF80500012063
:103760008DF807006946E44801F006F84FF4804000
:10377000009000208DF8040002208DF80500012043
:103780008DF807006946DC4800F0F6FF0120009044
:1037900000208DF8040002208DF8050001208DF82E
:1037A00007006946D54800F0E7FF4FF4005000904D
:1037B00000208DF8040002208DF8050001208DF80E
:1037C00007006946CB4800F0D7FF1CBD10B510219B
:1037D000C74801F033F8012824D10121C54801F080
:1037E0002DF801281ED10421C24801F027F8012834
:1037F00018D10103C04801F021F8012812D181033A
:10380000BD4801F01BF801280CD10121BB4801F093
:1038100015F8012806D14103B64801F00FF8012838
:1038200000D110BD0020FCE710B51021B04801F018
:1038300005F810BB0121AF4801F000F8E8B90421F8
:10384000AC4800F0FBFFC0B94FF48051AA4800F02B
:10385000F5FF90B94FF48041A74800F0EFFF60B941
:103860000121A64800F0EAFF38B94FF40051A14801
:1038700000F0E4FF08B9012010BD0020FCE770B59E
:103880000546002410219A4800F0D8FF012801D1F4
:10389000601CC4B20121974800F0D0FF012801D17B
:1038A000601CC4B20421934800F0C8FF012801D174
:1038B000601CC4B24FF480518F4800F0BFFF012854
:1038C00001D1601CC4B24FF480418B4800F0B6FFB8
:1038D000012801D1601CC4B20121884800F0AEFF6C
:1038E000012801D1601CC4B24FF40051814800F09E
:1038F000A5FF012801D1601CC4B2AC4201DB01204C
:1039000070BD0020FCE710B51021794800F096FF4B
:10391000F0B90121774800F091FFC8B9042175483A
:1039200000F08CFFA0B94FF48051734800F086FF7F
:1039300070B94FF400516F4800F080FF012805D0A6
:1039400001216E4800F07AFF012801D1012010BD4D
:103950000020FCE710B54FF40051664800F06EFF00
:10396000F0B90121654800F069FFC8B94FF4804102
:10397000614800F063FF98B94FF480515E4800F051
:103980005DFF68B910215A4800F058FF012805D0A2
:103990000121584800F052FF012801D1012010BD3B
:1039A0000020FCE710B54FF40051524800F046FFEC
:1039B00020BB0121514800F041FFF8B910214C48CB
:1039C00000F03CFFD0B901214A4800F037FFA8B908
:1039D0000421484800F032FF01280DD04FF48051F7
:1039E000454800F02BFF012806D04FF480414248A3
:1039F00000F024FF012801D1012010BD0020FCE7C8
:103A000010B59FED3F2ADFED3F1A9FED3F1ADFED26
:103A10003E0A9FED3C0AFDF763FF012000F05CFACF
:103A200010BD10B59FED362ADFED371A9FED351A20
:103A3000DFED340A9FED340AFDF752FF012000F05C
:103A40004BFA10BD10B59FED2E2ADFED2F1A9FED1A
:103A50002E1ADFED2C0A9FED2B0AFDF741FF012006
:103A600000F03AFA10BD10B59FED252ADFED251ABA
:103A70009FED241ADFED240A9FED230AFDF730FFA6
:103A8000012000F029FA10BD10B59FED1D2ADFEDD1
:103A90001C1A9FED1B1ADFED1A0A9FED190AFDF79C
:103AA0001FFF012000F018FA10BD10B510211048BA
:103AB00000F0C4FE18B915A002F074F902E015A0D8
:103AC00002F070F901210B4800F0B8FE18B913A0FC
:103AD00002F068F902E013A002F064F9042105483D
:103AE00000F0ACFE18B911A002F05CF925E021E06D
:103AF0000008024000040240001402400018024086
:103B00000000000000004842000048C2313A20573F
:103B10000A000000313A20420A000000323A2057E1
:103B20000A000000323A20420A000000333A2057CF
:103B30000A00000058A002F035F94FF480515848AF
:103B400000F07CFE18B957A002F02CF902E057A053
:103B500002F028F94FF48041514800F06FFE18B987
:103B600054A002F01FF902E054A002F01BF9012159
:103B7000544800F063FE18B953A002F013F902E0B4
:103B800053A002F00FF94FF40051534800F056FED5
:103B900018B952A002F006F902E052A002F002F9B0
:103BA00010BD00205149087051490870704710B588
:103BB000FFF7F8FE38B14E4800784C4908700120F4
:103BC0004B49087023E0FFF79EFE38B14848007863
:103BD0004649087002204649087018E0FFF7BAFE0F
:103BE00038B14348007841490870032040490870C3
:103BF0000DE00420FFF743FE10B9FFF715FE30B1CA
:103C00003B48007839490870002039490870384825
:103C10000078E8B9FFF708FED0B1344800780228F0
:103C200001D13349087031480078032801D1304967
:103C300008702E48007801280AD10420FFF71FFEE3
:103C400018B100202A49087002E0012028490870B4
:103C50002748007878B1012804D0022805D003282D
:103C60000CD105E0FFF7CCFE0CE0FFF7EBFE09E01E
:103C7000FFF7F9FE06E0FFF707FF03E00A2000F078
:103C80002BF900BF00BF0420FFF7F9FD08B10120A8
:103C900010BD0020FCE70000333A20420A0000007B
:103CA00000140240343A20570A000000343A2042FF
:103CB0000A000000353A20570A000000353A204239
:103CC0000A00000000180240363A20570A0000009F
:103CD000363A20420A00000000040240373A2057DA
:103CE0000A000000373A20420A0000002A000020A3
:103CF000290000202DE9FE4F002000900190029045
:103D00004FF00B090026424F0025804600248246D2
:103D10001AE06D1C022D01D90A2D00D314E00A20EF
:103D200000F0DAF86946002000F0FAF900988044C3
:103D30000098B04200D9009E0098B84200D2009F7F
:103D40000A2000F0C9F800BF4D45E2D9A8EB0600F3
:103D5000C01B0521B0FBF1F440F6B830844201D31A
:103D60004FF0000A7D2C03D39B2C01D84FF0010AA1
:103D7000412C03D35F2C01D84FF0020A5046BDE816
:103D8000FE8F2DE9FE4F0646002000900190029024
:103D90004FF00B0A0027DFF87880002481460025C9
:103DA0008346002E31D01BE0641C022C01D90A2C62
:103DB00000D315E00A2000F08FF86946002000F0DB
:103DC00028FA009881440098B84200D9009F0098D2
:103DD000404501D2DDF800800A2000F07DF800BFE8
:103DE0005445E1D9A9EB0700A0EB08000521B0FB81
:103DF000F1F57D2D03D39B2D01D84FF0010B412D03
:103E000003D35F2D01D84FF0020B5846BDE8FE8F5B
:103E1000FFC99A3B10B504466FF0040000F008FC9F
:103E2000E11704EB5171C1F3C701394A1170104613
:103E3000007800EB4001C1EBC0104FF6FF7101EAC2
:103E4000C0003449088010BD0146314A12784A4307
:103E50004FF0E0235A6100229A611A46126942F03B
:103E600001021A6100BF4FF0E022106900F0010268
:103E70001AB100F48032002AF5D04FF0E022126926
:103E800022F001024FF0E0231A6100229A6170478C
:103E90000146204A12884A434FF0E0235A6100222B
:103EA0009A611A46126942F001021A6100BF4FF08E
:103EB000E022106900F001021AB100F48032002AF9
:103EC000F5D04FF0E022126922F001024FF0E0231A
:103ED0001A6100229A61704770B504464FF407706A
:103EE00094FBF0F0C6B24FF4077094FBF0F100FBC6
:103EF000114085B205E04FF40770FFF7C9FF701E4F
:103F0000C6B2002EF7D115B12846FFF7C1FF70BD2C
:103F10002C0000202E00002000BF704700BFF84A90
:103F2000128802F04002002AF9D0C2B2F44B9A8003
:103F3000704710B588B004460121084600F0BAFE6B
:103F40000121102000F010FF07220921ED4800F0A8
:103F50009EFC07220A21EB4800F099FC4FF4C06058
:103F6000069002208DF81C008DF81D0000208DF8B1
:103F70001E0001208DF81F0006A9E24800F0FCFB9E
:103F800002940020ADF80C00ADF80E00ADF8100062
:103F9000ADF814000C20ADF8120002A9D84801F0C9
:103FA00044F80121D64801F0C8F8012240F2255119
:103FB000D34801F078F925208DF8040003208DF80E
:103FC00005008DF8060001208DF8070001A800F01B
:103FD000E2FA08B010BD10B588B0044601210220F5
:103FE00000F068FE0121880400F0ADFE07220B21DD
:103FF000C54800F04CFC07220A21C34800F047FCEA
:104000004FF44060069002208DF81C008DF81D00D2
:1040100000208DF81E0001208DF81F0006A9BA4867
:1040200000F0AAFB02940020ADF80C00ADF80E00E1
:10403000ADF81000ADF814000C20ADF8120002A984
:10404000B24800F0F2FF0121B04801F076F80122F9
:1040500040F22551AD4801F026F927208DF80400E3
:1040600001208DF8050000208DF8060001208DF854
:10407000070001A800F08FFA08B010BD10B588B095
:1040800004460121084600F015FE0121480400F015
:104090005AFE072203219B4800F0F9FB0722022168
:1040A000984800F0F4FB0C20069002208DF81C00CC
:1040B0008DF81D0000208DF81E0001208DF81F00D6
:1040C00006A9904800F058FB02940020ADF80C00BF
:1040D000ADF80E00ADF81000ADF814000C20ADF8EE
:1040E000120002A98A4800F0A0FF0121884801F0CF
:1040F00024F8012240F22551854801F0D4F8262009
:104100008DF8040001208DF8050000208DF80600D0
:1041100001208DF8070001A800F03DFA08B010BD9D
:10412000FEB505460C460026002000900190029046
:1041300000BF8021754801F0DBF80028F9D0572135
:10414000724801F025F800BF4021704801F0D0F816
:104150000028F9D000BF80216C4801F0C9F8002880
:10416000F9D02946694801F013F800BF402167489B
:1041700001F0BEF80028F9D01420FFF7ADFE45E0AD
:1041800064480088752802D000206349087062489E
:10419000007808282FD100205F4908705D48C08949
:1041A000072827D15B4840880090009800020090C3
:1041B0005849898800980843009000982060554825
:1041C000C088019001980002019052490989019824
:1041D00008430190019860604E484089029002981F
:1041E000000202904B498989029808430290029884
:1041F000A0600CE00BE00120FFF76EFE701CC6B261
:104200000A2E03D100204449087000E0B8E700BF3F
:10421000FEBDFEB505460C4600260020009001902C
:10422000029000BF80213A4801F062F80028F9D0DE
:104230005721374800F0ACFF00BF4021344801F05F
:1042400057F80028F9D000BF8021314801F050F81C
:104250000028F9D029462E4800F09AFF00BF4021DF
:104260002B4801F045F80028F9D0C820FFF734FEAC
:1042700058E02A480088752802D000202849087094
:104280002748007808282FD10020254908702348A6
:10429000C089072827D12148408800900098000253
:1042A00000901E498988009808430090009820607B
:1042B0001A48C088019001980002019017490989A5
:1042C0000198084301900198606014484089029069
:1042D00002980002029011498989029808430290CD
:1042E0000298A0601FE01EE00120FFF7F5FD701CA2
:1042F000C6B20A2E16D100200949087013E000004A
:10430000001001400000024000040240004800404C
:104310000044004074040020360000209404002073
:1043200037000020A5E700BFFEBD70B504460E466D
:10433000154600BF80217C4800F0DAFF0028F9D044
:104340004C21794800F024FF00BF4021764800F05E
:10435000CFFF0028F9D000BF8021734800F0C8FFCC
:104360000028F9D02146704800F012FF00BF40211C
:104370006D4800F0BDFF0028F9D000BF80216A48D9
:1043800000F0B6FF0028F9D03146674800F000FF82
:1043900000BF4021644800F0ABFF0028F9D000BF07
:1043A0008021614800F0A4FF0028F9D029465E482A
:1043B00000F0EEFE00BF40215B4800F099FF0028AE
:1043C000F9D070BD70B504460E46154600BF802179
:1043D000564800F08DFF0028F9D04C21534800F0DA
:1043E000D7FE00BF4021514800F082FF0028F9D0DD
:1043F00000BF80214D4800F07BFF0028F9D0214606
:104400004A4800F0C5FE00BF4021484800F070FF58
:104410000028F9D000BF8021444800F069FF00283F
:10442000F9D03146414800F0B3FE00BF40213F487B
:1044300000F05EFF0028F9D000BF80213B4800F06B
:1044400057FF0028F9D02946384800F0A1FE00BFE8
:104450004021364800F04CFF0028F9D070BD10B55F
:1044600040F22551324800F059FF10B3304800F0B7
:1044700093FEC4B22F48008800F40040C8B92D480C
:10448000008800F4804060B10A2C03D00020294944
:10449000088020E02748008840F400402549088033
:1044A00019E00D2C06D12348008840F480402149B2
:1044B000088010E01F480088C0F30D001E490C540E
:1044C0001C480088401C1B49088008460088C728F3
:1044D00001DD0020088010BD10B540F225511248C2
:1044E00000F01CFF58B1104800F056FE13490A783E
:1044F0000978491C114B1970114921F8120010BD9F
:1045000010B540F22551094800F008FF58B107489E
:1045100000F042FE0B490A780978491C094B1970D2
:10452000094921F8120010BD004800400044004035
:104530000010014034000020AC03002036000020B1
:1045400074040020370000209404002009488047AC
:1045500009480047FEE7FEE7FEE7FEE7FEE7FEE765
:10456000FEE7FEE7FEE7FEE704480549054A064B7D
:104570007047000055060008890100081805002052
:10458000180B0020180700201807002032490143AB
:10459000324A1160704770B5002100230F22C478A1
:1045A0001CB32E4C246804F4E064C4F5E064C4F346
:1045B0000721C1F10404E3B20A4144789C40E1B20E
:1045C0008478144021430C07210E254C0578615551
:1045D000047804F01F050124AC4005786D11AD008E
:1045E00005F1E025C5F8004109E0047804F01F0555
:1045F0000124AC401B4D0678761145F8264070BD6D
:10460000194A0A400243154B1B1F1A60704739B103
:10461000124A121D12680243104B1B1D1A6006E05D
:104620000E4A121D126882430C4B1B1D1A60704704
:10463000042808D14FF0E021096941F004014FF04E
:10464000E022116107E04FF0E021096921F0040147
:104650004FF0E022116170470000FA050CED00E018
:1046600000E400E080E100E080FFFF1F10B5044699
:104670009848844208D10121084600F086FB0021B9
:10468000012000F082FB76E09348844208D10121AA
:10469000022000F07AFB0021022000F076FB6AE0A5
:1046A0008E48844208D10121042000F06EFB0021D5
:1046B000042000F06AFB5EE08948844208D10121B1
:1046C000082000F062FB0021082000F05EFB52E0B1
:1046D0008448844208D10121102000F056FB0021BB
:1046E000102000F052FB46E07F48844208D10121AF
:1046F000202000F04AFB0021202000F046FB3AE099
:104700007A48844208D10121402000F03EFB00217C
:10471000402000F03AFB2EE07548844208D1012188
:10472000802000F032FB0021802000F02EFB22E0F0
:104730007048844208D10121801500F026FB002139
:10474000A01500F022FB16E06B48844208D101213D
:10475000401500F01AFB0021601500F016FB0AE07E
:104760006648844207D10121001500F00EFB0021AC
:10477000201500F00AFB10BDF0B50A460021002309
:10478000002400BF3DE0012505FA01F3156805EAA4
:1047900003049C4234D105684F000326BE40B54354
:1047A000056015794E00B5400668354305601579FA
:1047B000012D02D01579022D16D185684F000326F0
:1047C000BE40B543856055794E00B5408668354397
:1047D0008560456801268E40B543456045689679F9
:1047E0008E40B6B235434560C5684F000326BE40D3
:1047F000B543C560D5794E00B540C6683543C56040
:10480000491C1029BFD3F0BD4FF6FF710160002194
:10481000017141718171C171704708B54FF48032E7
:104820000092009A0A430092009AC261C161009A04
:10483000C261C2690092C269009208BD02460020AE
:1048400013690B400BB1012000E0002070470146C6
:10485000086980B270470246002053690B400BB1D3
:10486000012000E0002070470146486980B270478F
:1048700001837047418370470AB1018300E041839F
:1048800070474161704742694A4042617047F0B5E4
:10489000002300244D07ED0E02FA05F3CE1000F1BF
:1048A000200555F826504E07F70E0F26BE40B5439B
:1048B000CF1000F1200646F82750CE1000F1200559
:1048C00055F8265045EA0304CE1000F1200545F8BE
:1048D0002640F0BD000002400004024000080240F3
:1048E000000C024000100240001402400018024078
:1048F000001C024000200240002402400028024028
:10490000F948006840F00100F74908600020F649C6
:1049100008310860F4480068F4490840F24908602A
:10492000F348091D0860F348EF4984310860F048F6
:104930001038091D0860EC48006820F48020EA491E
:1049400008600020E8490C310860E7498C310860B4
:1049500070470021E44A921C11701146087070479C
:1049600010B501460022002300204A11012A02D17D
:10497000DD4C236808E0022A03D1DB4C7034236845
:1049800002E0D94C7434236801F01F0201249440E2
:104990001C400CB1012000E0002010BD38B5002003
:1049A00000900024002500BF3120FFF7D9FF054605
:1049B0000098401C00900098B0F5A04F01D0002D49
:1049C000F2D03120FFF7CCFF08B1012400E0002431
:1049D000204638BD01460020C34A106820F0F80088
:1049E00040EAC10010607047C34908607047002169
:1049F000BD4A703211701170012802D004280AD10A
:104A000004E00121B84A7032117005E00521B64A70
:104A10007032117000E000BF00BF7047B7490860F6
:104A2000704770B5049C41EA82150126C6EB530617
:104A300045EA0645054345EA0465AB4E361D35603B
:104A400070BDAD4908667047820142EA0172A64B0B
:104A500084331A607047A8498866704710B583018F
:104A600043EA016343EA02739F4C8834236010BD1C
:104A7000A14908677047A049C864704702460020F2
:104A8000994B0833186820F0EC6042EA01031843A0
:104A9000954B08331860704702460020924B08334C
:104AA000186820F0784042EA010318438E4B08331F
:104AB00018607047014600208B4A0832106820F0C9
:104AC000030008431060704787480830006800F012
:104AD0000C00704701460020834A0832106820F01D
:104AE000F000084310607047014600207E4A0832FB
:104AF000106820F4E0500843106070470146002021
:104B0000794A0832106820F4604040EAC100106021
:104B10007047F0B500210022002402250026022360
:104B2000714F08373F6807F00C0121B1042905D007
:104B3000082937D105E0724F076036E0714F0760F2
:104B400033E0694F3F1D3F68C7F38056664F3F1DF6
:104B50003F6807F03F036EB16A4FB7FBF3F7DFF82A
:104B600088C10CF1040CDCF800C0CCF3881C07FBF6
:104B70000CF40CE0624FB7FBF3F7DFF86CC10CF1FB
:104B8000040CDCF800C0CCF3881C07FB0CF4564F77
:104B90003F1D3F68C7F301477F1C7D00B4FBF5F75D
:104BA000076002E0564F076000BF00BF4E4F083756
:104BB0003F6807F0F0010909534F7A5C0768D74056
:104BC0004760494F08373F6807F4E051890A4E4F64
:104BD0007A5C4768D7408760434F08373F6807F4DF
:104BE0006041490B484F7A5C4768D740C760F0BDC9
:104BF000002100F44072B2F5407F0AD13A4A0832EF
:104C0000116821F4F811414A02401143364A083232
:104C10001160354A70321268C0F30B031A43324BED
:104C200070331A607047354944390860704733491A
:104C300040390860704736490860704701460020D7
:104C4000294A8C32106820F01F004A1E1043264A61
:104C50008C321060704701460020234A8C32106865
:104C600020F4F8504A1E40EA02201F4A8C3210609D
:104C70007047014600201C4A8C32106820F4401016
:104C800008431060704701460020174A8C321068B4
:104C900020F4400008431060704701460020124A8B
:104CA0008C32106820F44030084310607047194976
:104CB0000860704739B10C4A3032126802430A4B1F
:104CC00030331A6006E0084A303212688243064BDD
:104CD00030331A607047F9B1034A34321268024324
:104CE000014B34331A601CE000380240FFFFF6EA43
:104CF000103000240030002000004742800E474260
:104D00000024F40000127A0038000020FFFCFF0F9E
:104D10005C014742E01147428F4A126882438E4B42
:104D20001A60704739B18C4A121D126802438A4BCF
:104D30001B1D1A6006E0884A121D12688243864BCA
:104D40001B1D1A60704739B1834A0C321268024346
:104D5000814B0C331A6006E07F4A0C3212688243A2
:104D60007D4B0C331A60704739B17B4A10321268A0
:104D70000243794B10331A6006E0774A103212680A
:104D80008243754B10331A60704739B1724A243A26
:104D900012680243704B243B1A6006E06E4A243AC4
:104DA000126882436C4B243B1A60704739B16A4ADF
:104DB000203A12680243684B203B1A6006E0664ABC
:104DC000203A12688243644B203B1A60704739B125
:104DD000614A1C3A126802435F4B1C3B1A6006E0B2
:104DE0005D4A1C3A126882435B4B1C3B1A60704759
:104DF00039B1594A143A12680243574B143B1A60AE
:104E000006E0554A143A12688243534B143B1A6029
:104E1000704739B1504A103A126802434E4B103B6A
:104E20001A6006E04C4A103A126882434A4B103B23
:104E30001A60704739B1484A1C3212680243464B27
:104E40001C331A6006E0444A1C3212688243424B0B
:104E50001C331A60704739B13F4A2032126802434E
:104E60003D4B20331A6006E03B4A203212688243F1
:104E7000394B20331A60704739B1374A24321268EF
:104E80000243354B24331A6006E0334A2432126859
:104E90008243314B24331A60704739B12E4A2C3289
:104EA000126802432C4B2C331A6006E02A4A2C323B
:104EB00012688243284B2C331A60704739B1264A56
:104EC000303212680243244B30331A6006E0224A23
:104ED000303212688243204B30331A607047012809
:104EE00008D11D493C31096841F008011A4A3C3299
:104EF000116007E018493C31096821F00801164AA1
:104F00003C321160704739B1134A273A1278024394
:104F1000114B273B1A7006E00F4A273A127882435A
:104F20000D4B273B1A7070470B484030006840F02B
:104F30008070094940310860704701460020064AE8
:104F4000283A12680A400AB1012000E000207047A8
:104F500001492639087070473438024010B50446BC
:104F6000FA48844208D101211020FFF752FF0021A6
:104F70001020FFF74EFF57E0F548844209D1012188
:104F80004804FFF735FF00214FF40030FFF730FFF2
:104F90004AE0F048844209D101218804FFF728FF44
:104FA00000214FF48020FFF723FF3DE0EA488442D0
:104FB00009D10121C804FFF71BFF00214FF4002095
:104FC000FFF716FF30E0E548844209D101210805CA
:104FD000FFF70EFF00214FF48010FFF709FF23E0D9
:104FE000DF48844208D101212020FFF712FF002171
:104FF0002020FFF70EFF17E0DA48844209D1012193
:105000008807FFF7F5FE00214FF08040FFF7F0FE24
:105010000AE0D548844207D101214005FFF7E8FEA8
:1050200000216005FFF7E4FE10BD2DE9FF470546AE
:105030000E460024A14600BFA046B08900B100BFC3
:105040002C8A24F44054F08804432C82AC8941F229
:105050000C608443B0883189084371890843044354
:10506000AC81AC8A24F44074B0890443AC826846B5
:10507000FFF74FFDB548854202D0B948854202D1BD
:10508000DDF80C9001E0DDF80890A88900F40040FC
:1050900040B109EBC90000EB091031684900B0FBD1
:1050A000F1F707E009EBC90000EB0910316889004E
:1050B000B0FBF1F76420B7FBF0F004012009642194
:1050C00001FB1078A88900F4004040B1322000EBC9
:1050D000C800B0FBF1F000F00700044308E0322004
:1050E00000EB08106421B0FBF1F000F00F00044366
:1050F0002C81BDE8FF874FF41651016000218180AB
:10510000C18001810C21418100218181704710B54E
:1051100002460020108A20F470600B884C882343DC
:105120008C882343CC8823431843108210BD002170
:10513000018041808180C180704721B1828942F421
:105140000052828104E082894DF6FF731A40828109
:105150007047028B02F47F420283028B0A43028370
:10516000704721B1828942F40042828103E0828942
:10517000C2F30E028281704721B1828A42F400623A
:10518000828204E0828A4FF2FF731A408282704763
:10519000C1F308028280704701468888C0F3080086
:1051A0007047028A4FF6F0731A400282028A0A435D
:1051B0000282704721B1828942F00202828104E0BA
:1051C00082894FF6FD731A408281704782894FF2BF
:1051D000FF731A40828182890A4382817047028A62
:1051E0004FF6DF731A400282028A0A430282704736
:1051F00021B1028A42F48042028204E0028A4BF624
:10520000FF731A4002827047818941F00101818158
:10521000704721B1828A42F00802828204E0828AC9
:105220004FF6F7731A4082827047028BD2B2028324
:10523000028B42EA01220283704721B1828A42F046
:105240002002828204E0828A4FF6DF731A40828253
:10525000704721B1828A42F01002828204E0828A81
:105260004FF6EF731A4082827047828A4FF6FB73C3
:105270001A408282828A0A438282704721B1828ADE
:1052800042F00202828204E0828A4FF6FD731A40E5
:10529000828270471AB1838A0B43838202E0838A39
:1052A0008B4383827047F0B5034600240026002517
:1052B000002040F66A17B94200D100BF1846C1F37A
:1052C000421401F01F06012707FA06F5012C01D14F
:1052D0000C3004E0022C01D1103000E014301AB17F
:1052E00007682F43076002E00768AF430760F0BD1F
:1052F00002460020B1F5007F00D100BF13880B40AB
:105300000BB1012000E00020704701F40072B2F5FB
:10531000007F00D100BFCA430280704770B50246CB
:10532000002400230025002040F66A16B14200D177
:1053300000BFC1F3421501F01F03012606FA03F373
:10534000012D13D19689334017E000000010014071
:105350000044004000480040004C00400050004025
:105360000014014000780040007C0040022D02D172
:10537000168A334001E0968A33400C12012606FA61
:1053800004F41688344013B10CB1012000E0002071
:1053900070BD10B50022002340F66A14A14200D16E
:1053A00000BF0A1201249440A3B2DC43048010BD64
:1053B00010B50446FE48844209D101214806FFF792
:1053C00017FD00214FF00070FFF712FD08E00121EA
:1053D0008806FFF70DFD00214FF08060FFF708FD04
:1053E00010BD30B5024600200023146824F00204EA
:1053F0001460146844F00104146000E05B1C5468FD
:1054000004F001041CB94FF6FF74A342F6D15468AE
:1054100004F001040CB900206CE08C79012C04D15B
:10542000146844F08004146003E0146824F08004DD
:105430001460CC79012C04D1146844F04004146049
:1054400003E0146824F0400414600C7A012C04D1A9
:10545000146844F02004146003E0146824F020046D
:1054600014604C7A012C04D1146844F010041460C8
:1054700003E0146824F0100414608C7A012C04D129
:10548000146844F00804146003E0146824F008046D
:105490001460CC7A012C04D1146844F00404146024
:1054A00003E0146824F0040414608C78A407CD7819
:1054B00044EA05640D7944EA05444D7944EA05540B
:1054C0000D886D1E2C43D461146824F0010414600F
:1054D000002300E05B1C546804F001041CB14FF68B
:1054E000FF74A342F6D1546804F001040CB100200B
:1054F00000E0012030BD10B50021837A012202FABC
:1055000003F1AC4A126842F00102AA4B1A60A94AA0
:105510001C3212688A43A74B1C331A60027BCAB93B
:10552000A44A0C3212688A43A24B0C331A60428898
:10553000C38842EA03439F4A4032847A42F83430B7
:105540000288838842EA03439A4A4032847A02EB13
:10555000C4025360027B012A19D1964A0C321268A8
:105560000A43944B0C331A604288038842EA03438F
:10557000904A4032847A42F83430C288838842EAC2
:1055800003438C4A4032847A02EBC4025360C27AED
:105590003AB9884A121D12688A43864B1B1D1A604D
:1055A00006E0844A121D12680A43824B1B1D1A60D2
:1055B000028932B97F4A143212688A437D4B143310
:1055C0001A600289012A06D17A4A143212680A4303
:1055D000784B14331A60427B012A06D1754A1C327B
:1055E00012680A43734B1C331A60724A126822F025
:1055F0000102704B1A6010BD00218171C1710172EE
:1056000041728172C1728170C170032101710221E6
:1056100041710121018070476649096841F001012B
:10562000644A11601146096843F60E729143614A5B
:1056300011601146096841EA0021116011460968AC
:1056400021F001011160704721B1026842F48032FB
:10565000026003E0026822F4803202607047E1B128
:10566000026842F0800202604FF4C272125842F4A3
:1056700080734FF4C27213504FF4CA72125842F43E
:1056800080734FF4CA7213504FF4D272125842F41E
:1056900080734FF4D27213501BE0026822F0800234
:1056A00002604FF4C272125822F480734FF4C27237
:1056B00013504FF4CA72125822F480734FF4CA7216
:1056C00013504FF4D272125822F480734FF4D272F6
:1056D0001350704710B502460020936803F08063B2
:1056E000B3F1806F00D110E0936803F00063B3F171
:1056F000006F01D1012008E0936803F08053B3F1FB
:10570000805F01D1022000E00420042879D002F556
:10571000C07303EB00131B6803F0010402F5C073B0
:1057200003EB00131C600B7A7BB94B7A0C8843EABD
:10573000445302F5C07404EB00142468234302F5BB
:10574000C07404EB0014236010E00B7A4C6843EA49
:10575000C4034C7A234302F5C07404EB001424689C
:10576000234302F5C07404EB001423608B7A03F02A
:105770000F038B7202F5C07303EB00135B6823F019
:105780000F0402F5C07303EB00135C6002F5C073F5
:1057900003EB00135B688C7A234302F5C07404EBBF
:1057A000001463608B7B1C064B7B44EA034403E0DC
:1057B00000640040006600400B7B44EA0323CC7A7F
:1057C000234302F5C07404EB0014A3608B7C1C0619
:1057D0004B7C44EA03440B7C44EA0323CC7B234305
:1057E00002F5C07404EB0014E36002F5C07303EB30
:1057F00000131B6843F0010402F5C07303EB0013B0
:105800001C6010BD10B50246002321B1012907D04C
:1058100002290FD109E09068F94C00EA04030BE07B
:105820009068F84C00EA040306E09068F64C00EA41
:10583000040301E0002300BF00BFF44C181BA34287
:1058400016D007DC83B16FF08060184470B1022875
:1058500018D111E0B0F5007F10D0ED4C204448B1D4
:10586000B0F5003F0ED10BE002230DE000230BE06A
:10587000002309E0002307E0012305E0012303E002
:10588000012301E0002300BF00BFD8B210BD21B149
:10589000012907D002290FD109E0826842F0800275
:1058A00082600AE0826842F40042826005E0826819
:1058B00042F40002826000E000BF00BF704710B5F4
:1058C00000F5D87303EB01131B6803F00403137294
:1058D000137A53B900F5D87303EB01131B6840F238
:1058E000FF7404EA5353136009E000F5D87303EB27
:1058F00001131B686FF0604404EAD303536000F5A2
:10590000D87303EB01131B6803F00203537200F515
:10591000D87303EB01135B6803F00F03937200F578
:10592000D87303EB01135B681B0AD37400F5D873BB
:1059300003EB01139B68D37200F5D87303EB0113DB
:105940009B681C0A147300F5D87303EB01139B6862
:105950001C0C547300F5D87303EB01139B681B0EEA
:10596000937300F5D87303EB0113DB68D37300F571
:10597000D87303EB0113DB681C0A147400F5D873A9
:1059800003EB0113DB681C0C547400F5D87303EBB4
:105990000113DB681B0E937421B9C36843F0200325
:1059A000C36003E0036943F02003036110BD21B924
:1059B000C26842F02002C26003E0026942F02002A5
:1059C000026170470246002019B9D36803F0030052
:1059D00006E0012903D1136903F0030000E0002071
:1059E000704710B502460B4600204FF6FF71BBB959
:1059F000146824F0020444F00104146000E0491E1D
:105A0000546804F00304012C01D00029F7D1546834
:105A100004F00304012C01D0002032E0012030E02A
:105A2000012B13D1146824F00304146000E0491E14
:105A3000546804F003040CB10029F8D1546804F050
:105A400003040CB100201CE001201AE0022B17D146
:105A5000146824F0010444F00204146000E0491EBC
:105A6000546804F00304022C01D00029F7D15468D3
:105A700004F00304022C01D0002002E0012000E029
:105A8000002010BD014600200A6822F0010242F009
:105A900002020A604A6802F00302022A00D10120D1
:105AA000704701464FF6FF7200200B6823F0020397
:105AB0000B6000E0521E4B6803F00203022B01D181
:105AC000002AF7D14B6803F00203022B00D001201B
:105AD0007047014600208A6902F070007047014655
