:020000040800F2
:10000000400B00201D6600081106000813060008BA
:10001000170600081B0600081F0600080000000065
:10002000000000000000000000000000230600089F
:100030002506000800000000270600082906000821
:10004000376600083766000837660008376600081C
:10005000376600083766000837660008376600080C
:1000600037660008376600083766000837660008FC
:1000700037660008376600083766000837660008EC
:10008000376600083766000837660008550900081B
:100090006B090008376600083766000837660008F5
:1000A00037660008376600083766000837660008BC
:1000B00037660008376600083766000837660008AC
:1000C000376600083766000837660008376600089C
:1000D00037660008E3640008B56500085D65000840
:1000E000376600083766000837660008376600087C
:1000F000376600083766000837660008376600086C
:10010000376600083766000837660008376600085B
:10011000376600083766000837660008376600084B
:10012000376600083766000837660008376600083B
:10013000376600083766000837660008376600082B
:10014000376600083766000837660008376600081B
:10015000376600083766000837660008DD65000866
:1001600037660008376600083766000837660008FB
:1001700037660008376600083766000837660008EB
:10018000376600083766000800F002F800F03CF817
:100190000AA090E8000C82448344AAF10107DA45E2
:1001A00001D100F031F8AFF2090EBAE80F0013F0F8
:1001B000010F18BFFB1A43F00103184724A00000E9
:1001C00044A00000103A24BF78C878C1FAD852077A
:1001D00024BF30C830C144BF04680C6070470000C1
:1001E0000023002400250026103A28BF78C1FBD840
:1001F000520728BF30C148BF0B6070471FB509F0D8
:1002000054FF1FBD10B510BD08F0CEFC1146FFF71E
:10021000F5FF00F06CF808F0ECFC03B4FFF7F2FF18
:1002200003BC05F0A3FD0000014600220020EC4BBA
:1002300018600AE0EB48EA4B1B6850F823000244C0
:10024000E7480068401CE64B1860E5480068032852
:10025000F0DB022A15D10020E14B18600DE0E148E7
:10026000DF4B1B6850F8230010B9DD480068704769
:10027000DB480068401CDA4B1860D9480068032846
:10028000EDDB012A13D1012907D1D64840680128A6
:1002900001D10020EBE70120E9E7022907D1D1488D
:1002A0000068012801D10220E1E70020DFE73AB928
:1002B000012901D10120DAE7022901D10020D6E786
:1002C00000BFD4E7C8488068002801DD01207047DE
:1002D000C5480068002801DD0020F8E7C248006931
:1002E000002801DD0220F2E74FF0FF30EFE72DEDAF
:1002F000048B00BF00254FF4E13005F044FD4FF4BE
:10030000E13005F0E5FD4FF4E13005F08EFD4FF4EE
:10031000E13005F02FFEA82005F0A6FC4FF4A06008
:1003200006F09CF904F04CF904F068F900F078FE4E
:1003300001F038F900F082FA05F01BF804F0E3F858
:1003400000260020A94908604FF4FA6005F0EEFC91
:1003500005F054FBA449886005F044FCA2490860FC
:1003600008468068F0BB03200861DFEDA10A9FED1D
:10037000A10A02F027FBB0EE408ADFED9D0A9FED57
:100380009D0A02F05BFBF0EE408AF0EE481AB0EEF8
:10039000681ADFED970A9FED960A01F02FFCDFED5A
:1003A000960A9FED940A02F00DFBB0EE408ADFED55
:1003B000920A9FED900A02F041FBF0EE408ADFEDD9
:1003C0008C0A9FED8C0A02F0FDFAB0EE409ADFED48
:1003D000880A9FED880A02F031FBF0EE409AF0EEB9
:1003E000481A00E00AE0B0EE681AF0EE490A01F09F
:1003F00005FC00208149086002240AE07A48006870
:1004000018B903207849086102E0002076490861A4
:100410000324E4E0062C7DD2DFE804F0DE033E4B4B
:10042000B6CE002507E09FED720A754800EB850007
:1004300080ED000A6D1C032DF5DB6C4802687148E5
:1004400001686E48006802F069FB68480068F0B90E
:100450000120664908606C48006801280AD1694893
:10046000006818B167480068022803D19FED670A49
:1004700004F012F86448006802280BD16148006853
:10048000012807D1B9EE040A04F006F802E00020C2
:10049000564908600224A1E004F079FF06463EB107
:1004A00004F067FF5148006808B9032400E0042401
:1004B00094E005F0A3FA4C49504A126841F8320022
:1004C0004E4A126851F8320005F012FB46494B4A79
:1004D000126801EBC201486043484849096850F876
:1004E0003100002801DC052478E03F4843490968D1
:1004F00000EBC1004068002825DD3B483F4A1268F8
:1005000000EBC2004168012003F053FC36483B4930
:10051000096800E060E000EBC10040683A4908600B
:100520003149364A126801EBC2014868FFF77CFE88
:10053000344908604FF0FF302B49304A126801EB14
:10054000C20148601EE028482C4A126850F8321058
:10055000002003F02EFC24482849096850F8310097
:10056000294908602049254A126851F83200FFF7EE
:100570005BFE244908604FF0FF301B491F4A126898
:1005800041F83200012429E01F4801681D48006835
:1005900003F0F1FD012113481A4A126840F82210B5
:1005A000FFF790FE1549086008460068002801DB47
:1005B000012400E0052411E09FED0D2ADFED0C1A67
:1005C0009FED0B1ADFED0A0A9FED090A01F0E2F92F
:1005D000012005F0ABFB01E0052400BF00BF19E7D7
:1005E000100000206C000020540000200C000020AF
:1005F00000000000000034C300007A430400002023
:1006000084030020080000200000002000009C421D
:10061000704700BFFEE700BFFEE700BFFEE700BF78
:10062000FEE7704770477047704700000CB5002028
:10063000019000907648006840F48030744908606A
:1006400000BF7348006800F4003000900198401C1F
:100650000190009818B90198B0F5A04FF1D16C48FD
:10066000006800F4003010B10120009001E000208B
:1006700000900098012846D165484030006840F05D
:1006800080506349403108606248006840F440404F
:10069000604908605E48083000685D4908310860BC
:1006A0000846006840F4004008600846006840F4CE
:1006B000A05008605848091F0860081F006840F0F3
:1006C0008070091F086000BF5148006800F000708A
:1006D0000028F9D040F20570504908604C480830B5
:1006E000006820F003004A490831086008460068A5
:1006F00040F00200086000BF45480830006800F084
:100700000C000828F8D10CBD10B54548006840F42D
:100710007000434908603E48006840F001003C49D1
:10072000086000203A4908310860394800683D49AE
:100730000840374908603C48091D0860081F0068E8
:1007400020F48020091F0860002031490C31086026
:10075000FFF76CFF4FF0006031498039086010BD31
:1007600070B500200022022300240221284D083504
:100770002D6805F00C0020B1042806D0082834D1DB
:1007800007E02A4D2A4E356033E02A4D284E356069
:100790002FE01F4D2D1D2D68C5F380541C4D2D1DC0
:1007A0002D6805F03F0154B1224DB5FBF1F5184E0F
:1007B000361D3668C6F3881605FB06F209E01B4DA8
:1007C000B5FBF1F5124E361D3668C6F3881605FBEB
:1007D00006F20F4D2D1D2D68C5F301456D1C6B00F4
:1007E000B2FBF3F5124E356003E0104D104E35604C
:1007F00000BF00BF064D08352D68C5F303150E4E2A
:10080000705D0B4D2D68C540094E356070BD000010
:10081000003802400070004008544007003C02408D
:1008200088ED00E0FFFFF6FE103000240024F40005
:100830001400002000127A001800002000B58BB0D0
:100840000121084606F09EFA0121480606F0E3FA67
:100850004FF4C050099002208DF8280000208DF838
:100860002A0003208DF8290001208DF82B0009A90A
:10087000FE4805F0E9FF09220B21FC4806F06FF85D
:1008800009220C21F94806F06AF8F94806F0F8FD4B
:1008900006A806F019FF00208DF81E008DF81F0035
:1008A0008DF8200001208DF8210000208DF8220015
:1008B0008DF823008DF81A008DF81B0008208DF8A4
:1008C0001C0003208DF81D00ADF8180006A9E848AB
:1008D00006F0EFFD00208DF812008DF813000120C6
:1008E0008DF814000020ADF80800ADF80A00ADF84E
:1008F0000C00ADF80E00ADF8100001208DF81500C9
:1009000002A806F060FE01220221D94807F05AF938
:1009100001221146D64807F055F914208DF804003D
:1009200002208DF8050001208DF806008DF80700E3
:1009300001A805F098FE13208DF8040001208DF821
:1009400005008DF806008DF8070001A805F08BFE64
:100950000BB000BD10B50121C54807F09BF918B1D7
:100960000121C34807F031FA10BD00B52DED048B0D
:1009700093B00EAA0021BE4807F009F840F2012109
:100980000E9888427ED10EA8017CC07B41EA0020EF
:1009900000B200EE100AB8EEC00AB64880ED050AB3
:1009A0000EA8827B407B42EA002000B200EE100AD3
:1009B000B8EEC00A10EE101A084609F005FB41EC2B
:1009C000190B9FEDAD0B53EC102B08F01BFF41EC06
:1009D000180B08F031FE00EE100AA64880ED030A5D
:1009E000008B68B9A348408B50B90EA8007B9DF8D6
:1009F000431040EA012000B29E49488308830CE07E
:100A00009C48408B9B4908830EA8007B9DF84310AF
:100A100040EA012000B297494883964890ED000AC9
:100A20008DED050A90ED010A8DED060A90ED020AA2
:100A30008DED070A90ED030A8DED080A90ED040A8A
:100A40008DED090A90ED050A8DED0A0A008BADF8CF
:100A50002C008848408BADF82E008648C0690C9069
:100A6000844890F820008DF83400142209A96846C3
:100A700008F050F805A80FC800F09CFA7D48D0EDAA
:100A8000010A00E004E030EE200A80ED010A33E2C2
:100A900040F202210E9888427ED10EA8017CC07BD4
:100AA00041EA002000B200EE100AB8EEC00A744815
:100AB00080ED050A0EA8827B407B42EA002000B24E
:100AC00000EE100AB8EEC00A10EE101A084609F03F
:100AD0007BFA41EC190B9FED680B53EC102B08F0DF
:100AE00091FE41EC180B08F0A7FD00EE100A6448D7
:100AF00080ED030A008B68B96148408B50B90EA89D
:100B0000007B9DF8431040EA012000B25C49488315
:100B100008830CE05A48408B594908830EA8007B93
:100B20009DF8431040EA012000B2554948835448DB
:100B300090ED000A8DED050A90ED010A8DED060A93
:100B400090ED020A8DED070A90ED030A8DED080A7B
:100B500090ED040A8DED090A90ED050A8DED0A0A63
:100B6000008BADF82C004648408BADF82E00444871
:100B7000C0690C90424890F820008DF8340014228F
:100B800009A9684607F0C6FF05A80FC800F012FAC9
:100B90003B48D0ED010A00E004E030EE200A80ED91
:100BA000010AA9E140F203210E9888425DD10EA806
:100BB000017CC07B41EA002000B200EE100AB8EED2
:100BC000C00A304880ED050A0EA8827B407B42EACD
:100BD000002000B200EE100AB8EEC00A10EE101AA3
:100BE000084609F0F1F941EC190B9FED230B53EC8A
:100BF000102B08F007FE41EC180B08F01DFD00EE6D
:100C0000100A204880ED030A008B68B91D48408B0C
:100C100050B90EA8007B9DF8431040EA012000B2B5
:100C20001849488308830CE01648408B154908830F
:100C30000EA8007B9DF8431040EA012000B2114944
:100C40004883104890ED000A8DED050A90ED010AE9
:100C50008DED060A90ED020A8DED070A90ED030A6C
:100C60008DED080A90ED040A0EE033E0000002402A
:100C700000640040780000200000000000003340C5
:100C80009C000020C00000208DED090A90ED050AAF
:100C90008DED0A0A008BADF82C00BD48408BADF8F5
:100CA0002E00BB48C0690C90B94890F820008DF820
:100CB0003400142209A9684607F02CFF05A80FC8C4
:100CC00000F078F9B248D0ED010A30EE200A80ED4C
:100CD000010A11E10E98B0F5017F7CD10EA8017CCC
:100CE000C07B41EA002000B200EE100AB8EEC00A54
:100CF000A84880ED050A0EA8827B407B42EA0020CE
:100D000000B200EE100AB8EEC00A10EE101A084643
:100D100009F05AF941EC190B1FED290B53EC102B7C
:100D200008F070FD41EC180B08F086FC00EE100A8C
:100D3000984880ED030A008B68B99648408B50B9FB
:100D40000EA8007B9DF8431040EA012000B29149B3
:100D5000488308830CE08F48408B8E4908830EA897
:100D6000007B9DF8431040EA012000B28949488386
:100D7000884890ED000A8DED050A90ED010A8DED91
:100D8000060A90ED020A8DED070A90ED030A8DED3B
:100D9000080A90ED040A8DED090A90ED050A8DED23
:100DA0000A0A008BADF82C007A48408BADF82E0073
:100DB0007848C0690C90774890F820008DF834008E
:100DC000142209A9684607F0A5FE05A80FC800F07F
:100DD000F1F8704800E006E0D0ED010A30EE200A9C
:100DE00080ED010A88E040F205210E9888427CD10E
:100DF0000EA8017CC07B41EA002000B200EE100A80
:100E0000B8EEC00A644880ED050A0EA8827B407BDC
:100E100042EA002000B200EE100AB8EEC00A10EE5E
:100E2000101A084609F0D0F841EC190B1FED6E0BB3
:100E300053EC102B08F0E6FC41EC180B08F0FCFB1F
:100E400000EE100A544880ED030A008B68B952483E
:100E5000408B50B90EA8007B9DF8431040EA01205A
:100E600000B24D49488308830CE04B48408B4A4907
:100E700008830EA8007B9DF8431040EA012000B2D1
:100E800045494883444890ED000A8DED050A90EDF0
:100E9000010A8DED060A90ED020A8DED070A90ED2C
:100EA000030A8DED080A90ED040A8DED090A90ED14
:100EB000050A8DED0A0A008BADF82C003648408BF0
:100EC000ADF82E003448C0690C90334890F82000EB
:100ED0008DF83400142209A9684607F01BFE05A806
:100EE0000FC800F067F82C4800E005E0D0ED010ADB
:100EF00030EE200A80ED010A13B0BDEC048B00BD7A
:100F0000F0B585B004460D4616461F4600208DF804
:100F100008008DF8090008208DF80A008001009073
:100F2000200A8DF80B00E1B28DF80C10290A8DF81B
:100F30000D10E9B28DF80E10310A8DF80F10F1B2D4
:100F40008DF81010390A8DF81110F9B28DF81210C1
:100F50006946124806F026FC05B0F0BD10B586B013
:100F6000044600208DF80C008DF80D0002208DF84D
:100F70000E0040F2FF100190200A8DF80F008DF84E
:100F8000104001A9054806F00DFC06B010BD000098
:100F9000C0000020E40000200801002000640040A0
:100FA000B5EEC00AF1EE10FA03D2F1EE400AB0EE4F
:100FB000600A70470FB400B5BDF91E00BDF91C10E2
:100FC000401A01EE100AB8EEC10AFFF7E9FFDFEDA3
:100FD000FE0AB4EEE00AF1EE10FA11DDB8EEC10A35
:100FE000FFF7DEFFF8EEC11AC1EE800AB8EEC10AC3
:100FF000DFEDF61A00EEE10ABDEEC00AB0EE401ACF
:10100000B8EEC10ADFEDF20A20EE200AF3EE031A71
:10101000C0EE210ADFEDED1A80EEA10A5DF814FBA7
:101020009FEDEC0AEC4880ED010A9FEDEA0AEB48DF
:1010300080ED010A9FEDE70AE94880ED010A9FED86
:10104000E50AE84880ED010A9FEDE20AE64880EDF6
:10105000010A0120E04981F82000E04981F82000E0
:10106000DF4981F82000DF4981F82000DE4981F85E
:1010700020009FEDD80AD84880ED020A9FEDD50ADE
:10108000D64880ED020A9FEDD30AD54880ED020ACA
:101090009FEDD00AD34880ED020A9FEDCE0A0846A4
:1010A00080ED020A70479FEDD10AD14880ED000A19
:1010B0009FEDD00A80ED010A9FEDC60A80ED020A7D
:1010C0009FEDCD0A80ED030A9FEDCC0A80ED040A66
:1010D0009FEDC00A80ED050A9FEDBE0A80ED060A6D
:1010E0000020C349C8619FEDC10AC54880ED000AD0
:1010F0009FEDC00A80ED010A9FEDB60A80ED020A5D
:101100009FEDBD0A80ED030A9FEDBC0A80ED040A45
:101110009FEDB00A80ED050A9FEDAE0A80ED060A4C
:101120000020B749C8619FEDB10AB64880ED000ABA
:101130009FEDB00A80ED010A9FEDA60A80ED020A3C
:101140009FEDAD0A80ED030A9FEDAC0A80ED040A25
:101150009FEDA00A80ED050A9FED9E0A80ED060A2C
:101160000020A849C8619FEDA10AA74880ED000AA8
:101170009FEDA00A80ED010A9FED960A80ED020A1C
:101180009FED9D0A80ED030A9FED9C0A80ED040A05
:101190009FED900A80ED050A9FED8E0A80ED060A0C
:1011A00000209949C8619FED910A984880ED000A96
:1011B0009FED900A80ED010A9FED860A80ED020AFC
:1011C0009FED8D0A80ED030A9FED8C0A80ED040AE5
:1011D0009FED800A80ED050A9FED7E0A80ED060AEC
:1011E00000208A49C86170479FED890A894880EDCF
:1011F000000AB1EE040A80ED010A9FED760A80ED47
:10120000020A9FED7D0A80ED030A9FED830A80EDBF
:10121000040A9FED700A80ED050A9FED6E0A80EDCD
:10122000060A00207B49C8619FED7C0A084680EDD4
:10123000090A9FED7B0A80ED080A9FED750A79483F
:1012400080ED000AB1EE040A80ED010A9FED610A0B
:1012500080ED020A9FED680A80ED030A9FED6E0A99
:1012600080ED040A9FED5B0A80ED050A9FED590AA7
:1012700080ED060A00206B49C8619FED680A0846A8
:1012800080ED090A9FED660A80ED080A9FED600A6D
:10129000654880ED000AB1EE040A80ED010A9FED79
:1012A0004D0A80ED020A9FED540A80ED030A9FED7E
:1012B0005A0A80ED040A9FED470A80ED050A9FED6A
:1012C000450A80ED060A00205749C8619FED530A80
:1012D000084680ED090A9FED520A80ED080A9FED4D
:1012E0004C0A524880ED000AB1EE040A80ED010A72
:1012F0009FED380A80ED020A9FED3F0A80ED030A58
:101300009FED450A80ED040A9FED320A80ED050A43
:101310009FED300A80ED060A00204449C8619FED28
:101320003F0A084680ED090A9FED3D0A80ED080A54
:101330009FED3F0A3F4880ED000AB1EE040A80EDC0
:10134000010A9FED240A80ED020A9FED2B0A80ED31
:10135000030A9FED310A80ED040A9FED1E0A80ED1D
:10136000050A9FED1C0A80ED060A00203149C8617C
:101370009FED2A0A084680ED090A9FED290A80EDB3
:10138000080A70479FED2C0A2C4880ED000A9FED5B
:10139000110A80ED010A9FED2A0A80ED020A9FEDF5
:1013A000160A80ED030A9FED270A80ED040A9FEDDF
:1013B000090A80ED050A9FED070A80ED060A002064
:1013C0001E49C86140E0000000007A450000004668
:1013D0000000B44300000000780000209C000020C2
:1013E000C0000020E4000020080100206666A63F3F
:1013F0007C0100208FC2F53C00007A4600806D45DC
:10140000F40100206C020020E40200205C030020B4
:1014100000007A435401002000409C4500007A44BB
:101420000000C843CC01002044020020BC02002080
:1014300000005C433403002085EBD13E2C010020EA
:1014400017B7D1380000FA44B3EE040A084680ED1D
:10145000090A9FEDFB0A80ED080A1FED090AF94809
:1014600080ED000A1FED250A80ED010A1FED0C0A30
:1014700080ED020A1FED200A80ED030A1FED0F0A1E
:1014800080ED040A1FED2D0A80ED050A1FED2F0ADD
:1014900080ED060A0020EB49C861B3EE040A084655
:1014A00080ED090A9FEDE60A80ED080A1FED1E0A8D
:1014B000E54880ED000A1FED390A80ED010A1FEDB5
:1014C000200A80ED020A1FED340A80ED030A1FEDA9
:1014D000230A80ED040A1FED410A80ED050A1FED85
:1014E000430A80ED060A0020D749C861B3EE040A1A
:1014F000084680ED090A9FEDD20A80ED080A1FED2B
:10150000320AD24880ED000A1FED4E0A80ED010A32
:101510001FED350A80ED020A1FED490A80ED030A2E
:101520001FED380A80ED040A1FED560A80ED050A0A
:101530001FED580A80ED060A0020C449C861B3EEC9
:10154000040A084680ED090A9FEDBD0A80ED080AED
:10155000B7EE000ABE4880ED000A1FED620A80ED7A
:10156000010A9FEDBC0A80ED020A1FED5D0A80EDC5
:10157000030A1FED4C0A80ED040A1FED6A0A80ED94
:10158000050A1FED6C0A80ED060A0020B049C8610B
:10159000B3EE040A084680ED090A9FEDA90A80ED22
:1015A000080A704700B5FFF77EFDFFF71DFEFFF745
:1015B000E9FE00BD00B5B0EE403AF0EE603A33EE21
:1015C000630AB0EE401AC169012914D1B0EE410A94
:1015D000FFF7E6FCD0ED090AB4EEE00AF1EE10FAEE
:1015E00004DB90ED080A60EE011A08E090ED000AB5
:1015F00060EE011A03E090ED000A60EE011A90ED32
:10160000010A20EE015A90ED050A30EE052A90ED10
:10161000040AB4EEC20AF1EE10FA04D290ED040A04
:1016200080ED050A15E090ED040AFFEE000A20EEB9
:10163000200AB4EEC20AF1EE10FA08DD90ED040AB9
:10164000FFEE000A20EE200A80ED050A01E080EDA1
:10165000052A90ED060A31EE404A90ED020A60EE4E
:10166000044A80ED061A90ED050A30EE210A70EE6C
:10167000242A90ED030AB4EEE20AF1EE10FA02D841
:1016800090ED030A00BD90ED030AFFEE000A20EE84
:10169000200AB4EEE20AF1EE10FA06DD90ED030A3C
:1016A000FFEE000A20EE200AECE7B0EE620AE9E75E
:1016B00010B5694890F82000012814D0022802D003
:1016C000052833D11FE0644890ED011AF0EE410A7D
:1016D00090ED001AB0EE410A6048FFF76BFF5E48DC
:1016E00080ED020A00BF5C4890ED031AF0EE410A5B
:1016F00090ED021AB0EE410A5948FFF75BFF5648D9
:1017000080ED040A00BF544890ED051AF0EE410A3E
:1017100090ED041AB0EE410A5248FFF74BFFBDEEC0
:10172000C00A10EE100A4C49C86100E000BF00BFBB
:101730004D4890F82000012814D0022802D0052836
:1017400033D11FE0484890ED011AF0EE410A90EDC8
:10175000001AB0EE410A3B48FFF72CFF424880EDEB
:10176000020A00BF404890ED031AF0EE410A90EDE6
:10177000021AB0EE410A3D48FFF71CFF3A4880EDDF
:10178000040A00BF384890ED051AF0EE410A90EDCA
:10179000041AB0EE410A3648FFF70CFFBDEEC00A4E
:1017A00010EE100A3049C86100E000BF00BF3148A8
:1017B00090F82000012814D0022802D0052833D147
:1017C0001FE02C4890ED011AF0EE410A90ED001A4E
:1017D000B0EE410A1C48FFF7EDFE264880ED020AF4
:1017E00000BF244890ED031AF0EE410A90ED021A72
:1017F000B0EE410A2048FFF7DDFE1E4880ED040AE6
:1018000000BF1C4890ED051AF0EE410A90ED041A55
:10181000B0EE410A1948FFF7CDFEBDEEC00A10EE4A
:10182000100A1449C86100E000BF00BF144890F8D6
:101830002000012836D0022824D0052855D141E0C7
:1018400000004842A40100201C0200209402002055
:101850000C0300200AD7233C780000202C01002034
:10186000540100207C0100209C000020CC010020BD
:10187000F4010020C0000020440200206C0200207F
:10188000E40000208D4890ED011AF0EE410A90ED41
:10189000001AB0EE410A8A48FFF78CFE874880EDB7
:1018A000020A00BF854890ED031AF0EE410A90ED60
:1018B000021AB0EE410A8348FFF77CFE7F4880EDB4
:1018C000040A00BF7D4890ED051AF0EE410A90ED44
:1018D000041AB0EE410A7C48FFF76CFEBDEEC00A68
:1018E00010EE100A7549C86100E000BF00BF7748DC
:1018F00090F82000012814D0022802D0052833D106
:101900001FE0724890ED011AF0EE410A90ED001AC6
:10191000B0EE410A6E48FFF74DFE6C4880ED020ABA
:1019200000BF6A4890ED031AF0EE410A90ED021AEA
:10193000B0EE410A6748FFF73DFE644880ED040AB7
:1019400000BF624890ED051AF0EE410A90ED041ACE
:10195000B0EE410A6048FFF72DFEBDEEC00A10EE62
:10196000100A5A49C86100E000BF00BF534CE46947
:1019700023B25A4CE46922B2594CE46921B2594C61
:10198000E46920B2FFF7BCFA5049C96908B2FFF711
:10199000E5FA10BD10B52DED068BB0EE40AAB0EE05
:1019A000608AF0EE418AB0EE619AF0EE429A012030
:1019B0004C4981F820004A4981F82000474981F8C4
:1019C00020003E4981F82000404981F82000454828
:1019D00080ED02AA424880ED028A4048C0ED028AAA
:1019E000364880ED029A0846C0ED029AFFF760FE85
:1019F000BDEC068B10BD10B52DED068BB0EE40AAE8
:101A0000B0EE608AF0EE418AB0EE619AF0EE429A52
:101A10000520344981F82000314981F820002F4900
:101A200081F82000254981F82000284981F820000C
:101A30002C4880ED00AA2A4880ED008A2748C0ED96
:101A4000008A1E4880ED009A0846C0ED009AFFF714
:101A50002FFEBDEC068B10BD10B52DED068BB0EE44
:101A600040AAB0EE608AF0EE418AB0EE619AF0EEE4
:101A7000429A02201B4981F82000194981F8200070
:101A8000164981F820000D4981F820000F4981F89E
:101A90002000144880ED00AA114880ED008A0F480C
:101AA000C0ED008A054880ED009A0846C0ED009A16
:101AB000FFF7FEFDBDEC068B10BD0000E40000202A
:101AC00094020020BC020020E40200200801002053
:101AD0000C030020340300205C030020C000002021
:101AE0009C00002078000020B5EEC00AF1EE10FA4C
:101AF00001D100207047B5EEC00AF1EE10FA01DD09
:101B00000120F7E74FF0FF30F4E702466FF00201E3
:101B1000FE48D0ED012AFE4890ED003A72EEC32A4D
:101B2000FC4890ED003A72EEC32AF0EE620AFA48E1
:101B3000D0ED012AF64890ED013A72EEC32AF5483D
:101B400090ED013A72EEC32AB0EE622AF348D0ED6E
:101B5000012AEF4890ED023A72EEC32AED4890ED6B
:101B6000023A72EEC32AB0EE621AED48D0ED012AB5
:101B7000E74890ED033A72EEC32AE64890ED033A47
:101B800072EEC32AF0EE621AF4EEC00AF1EE10FA19
:101B900007D2F1EE402AF4EEE20AF1EE10FA00DD8F
:101BA000491CB4EEC02AF1EE10FA07D2F1EE402A39
:101BB000B4EEE22AF1EE10FA00DD491CB4EEC01AD0
:101BC000F1EE10FA07D2F1EE402AB4EEE21AF1EE8D
:101BD00010FA00DD491CF4EEC01AF1EE10FA07D23B
:101BE000F1EE402AF4EEE21AF1EE10FA00DD491CA3
:101BF000914201DD012070470020FCE700B52DED8A
:101C0000040B99B09DED1B0ADDED190A30EE600A58
:101C1000DFEDC40A20EE200A8DED120A9DED1C0AAC
:101C2000DDED1A0A30EE600ADFEDBE0A20EE200A72
:101C30008DED110A9FEDBC0A8DED100AB34890EDB1
:101C4000010AB34880ED000AB34890ED010AB0489C
:101C500080ED010AB14890ED010AAD4880ED020A1D
:101C6000AF4890ED010AAA4880ED030A9DED120AE3
:101C70009FEDAE1AC0EE010A9FEDAD0A20EE800A7C
:101C8000A44880ED000A9DED110AB1EE400A9FEDD7
:101C9000A71AC0EE010A9FEDA60A20EE800A80ED89
:101CA000010A90ED000AB1EE400A80ED020A90EDC3
:101CB000010AB1EE400A80ED030A00209D49086048
:101CC00023E094489B49096800EB810090ED000AED
:101CD000B5EEC00AF1EE10FA09D29FED970A13A8EB
:101CE0009449096800EB810080ED000A08E09FED4F
:101CF000930A13A88F49096800EB810080ED000A60
:101D00008C480068401C8B4908608A480068042899
:101D1000D7DB00BF9DED100ADFED880AB4EEE00AC4
:101D2000F1EE10FA7DD2119808F04EF9CDE90001DC
:101D30009DED000B06F0E4FF8DED040B129808F00A
:101D400043F9CDE900019DED000B06F0D9FF8DEDC3
:101D5000020B9DED040B53EC102B9DED020B51EC8F
:101D6000100B07F09BFCCDE90801119808F02CF945
:101D7000CDE900019DED000B06F0C2FF8DED040BD7
:101D80009DED160A8DED000A9DED000AFFF7ACFEF1
:101D900000EE100AF8EEC00A9DED100A20EE800A4F
:101DA0008DED010A019808F00FF9CDE902019DEDD2
:101DB000040B53EC102B9DED020B51EC100B07F0B4
:101DC0000FFFCDE906019DED080B53EC102B9DEDA7
:101DD000060B51EC100B07F015FDCDE90A019DED46
:101DE0000A0B51EC100B07F027FC0F90119808F02C
:101DF000EBF8CDE900019DED000B06F081FF8DEDC4
:101E0000040B129808F0E0F8CDE900019DED000BFD
:101E100006F076FF8DED020B9DED040B53EC102BBD
:101E200000E03FE19DED020B51EC100B07F036FC9A
:101E3000CDE90801129808F0C7F8CDE900019DED41
:101E4000000B06F05DFF8DED040B9DED150A8DED89
:101E5000000A9DED000AFFF747FE00EE100AF8EEBB
:101E6000C00A9DED100A20EE800A8DED010A01984E
:101E700008F0AAF8CDE902019DED040B53EC102BFC
:101E80009DED020B51EC100B07F0AAFECDE9060107
:101E90009DED080B53EC102B9DED060B51EC100B38
:101EA00007F0B0FCCDE90A019DED0A0B51EC100BD7
:101EB00007F0C2FB0E90119808F086F8CDE90001FA
:101EC0009DED000B06F01CFF8DED040B129808F041
:101ED0007BF8CDE900019DED000B06F011FF8DEDC3
:101EE000020B9DED040B53EC102B9DED020B51ECFE
:101EF000100B07F0D3FBCDE90801119808F064F846
:101F0000CDE900019DED000B1AE0000078000020F3
:101F1000A4030020900300209C000020C0000020AB
:101F2000E40000206666863F00000000959E6B433B
:101F30000000B44328000020000096C30000964330
:101F400006F0DEFE8DED040B9DED140A8DED000A0A
:101F50009DED000AFFF7C8FD00EE100AF8EEC00A7A
:101F60009DED100A20EE800A8DED010A019808F01F
:101F70002BF8CDE902019DED040B53EC102B9DEDE8
:101F8000020B51EC100B07F02BFECDE906019DED85
:101F9000080B53EC102B9DED060B51EC100B07F0CA
:101FA00031FCCDE90A019DED0A0B51EC100B07F055
:101FB00043FB0D90119808F007F8CDE900019DED65
:101FC000000B06F09DFE8DED040B129807F0FCFF50
:101FD000CDE900019DED000B06F092FE8DED020BA8
:101FE0009DED040B53EC102B9DED020B51EC100BEF
:101FF00007F054FBCDE90801129807F0E5FFCDE9A1
:1020000000019DED000B06F07BFE8DED040B9DEDB8
:10201000130A8DED000A9DED000AFFF765FD00EE45
:10202000100AF8EEC00A9DED100A20EE800A8DED30
:10203000010A019807F0C8FFCDE902019DED040BEC
:1020400053EC102B9DED020B51EC100B07F0C8FD6B
:10205000CDE906019DED080B53EC102B9DED060B11
:1020600051EC100B07F0CEFBCDE90A019DED0A0BF8
:1020700051EC100B07F0E0FA1FED552A0C90DDED46
:102080000F1A9DED0E1ADDED0D0A9DED0C0AFFF7FE
:1020900081FC9DED100ADFEDFE0A30EE200A8DED89
:1020A000100A53E1119807F08FFFCDE900019DED73
:1020B000000B06F025FE8DED040B129807F084FF4F
:1020C000CDE900019DED000B06F01AFE8DED020B2F
:1020D0009DED040B53EC102B9DED020B51EC100BFE
:1020E00007F0DCFACDE90801119807F06DFFCDE9A2
:1020F00000019DED000B06F003FE8DED040B16981C
:10210000019007F061FFCDE902019DED040B53EC56
:10211000102B9DED020B51EC100B07F061FDCDE98A
:1021200006019DED080B53EC102B9DED060B51ECB9
:10213000100B07F067FBCDE90A019DED0A0B51EC8E
:10214000100B07F079FA0F90119807F03DFFCDE9D9
:1021500000019DED000B06F0D3FD8DED040B1298F0
:1021600007F032FFCDE900019DED000B06F0C8FD40
:102170008DED020B9DED040B53EC102B9DED020B2E
:1021800051EC100B07F08AFACDE90801129807F01C
:102190001BFFCDE900019DED000B06F0B1FD8DEDBB
:1021A000040B1598019007F00FFFCDE902019DED9A
:1021B000040B53EC102B9DED020B51EC100B07F0B0
:1021C0000FFDCDE906019DED080B53EC102B9DEDA5
:1021D000060B51EC100B07F015FBCDE90A019DED44
:1021E0000A0B51EC100B07F027FA0E90119807F02C
:1021F000EBFECDE900019DED000B06F081FD8DEDBC
:10220000040B129807F0E0FECDE900019DED000BF4
:1022100006F076FD8DED020B9DED040B53EC102BBB
:102220009DED020B51EC100B07F038FACDE90801D7
:10223000119807F0C9FECDE900019DED000B06F0F5
:102240005FFD8DED040B1498019007F0BDFECDE904
:1022500002019DED040B53EC102B9DED020B51EC94
:10226000100B07F0BDFCCDE906019DED080B53EC0A
:10227000102B9DED060B51EC100B07F0C3FACDE9C6
:102280000A019DED0A0B51EC100B07F0D5F90D90EA
:10229000119807F099FECDE900019DED000B06F0C5
:1022A0002FFD8DED040B129807F08EFECDE9000195
:1022B0009DED000B06F024FD8DED020B9DED040B52
:1022C00053EC102B9DED020B51EC100B07F0E6F9CF
:1022D000CDE90801129807F077FECDE900019DEDE8
:1022E000000B06F00DFD8DED040B1398019007F027
:1022F0006BFECDE902019DED040B53EC102B9DED1F
:10230000020B51EC100B07F06BFCCDE906019DEDC3
:10231000080B53EC102B9DED060B51EC100B07F046
:1023200071FACDE90A019DED0A0B51EC100B07F093
:1023300083F99FED582A0C90DDED0F1A9DED0E1AD2
:10234000DDED0D0A9DED0C0AFFF724FB022003F0E2
:10235000EDFC4FF0FF309FED500AFFF7D6FB002851
:102360003FF4D8AC9DED100ADFED4C0AB4EEE00A64
:10237000F1EE10FA03D29FED490A8DED100A00BF6D
:10238000119807F021FECDE900019DED000B06F04C
:10239000B7FC8DED040B129807F016FECDE9000195
:1023A0009DED000B06F0ACFC8DED020B9DED040BDA
:1023B00053EC102B9DED020B51EC100B07F06EF956
:1023C000CDE90801119807F0FFFDCDE900019DED71
:1023D000000B06F095FC8DED040B9DED160A8DEDBE
:1023E000000A9DED000AFFF77FFB00EE100AF8EEF1
:1023F000C00A9DED100A20EE800A8DED010A0198B9
:1024000007F0E2FDCDE902019DED040B53EC102B2A
:102410009DED020B51EC100B07F0E2FBCDE906013C
:102420009DED080B53EC102B9DED060B51EC100BA2
:1024300007F0E8F9CDE90A019DED0A0B51EC100B0C
:1024400007F0FAF80F90119807F0BEFDCDE90001F2
:102450009DED000B06F054FC8DED040B129807F077
:10246000B3FDCDE900019DED000B06F049FC8DEDBB
:10247000020B9DED040B53EC102B9DED020B51EC68
:10248000100B07F00BF9CDE90801129808E00000E5
:102490009A99193E000000000000AF430000484236
:1024A00007F092FDCDE900019DED000B06F028FC40
:1024B0008DED040B9DED150A8DED000A9DED000AD2
:1024C000FFF712FB00EE100AF8EEC00A9DED100AAD
:1024D00020EE800A8DED010A019807F075FDCDE927
:1024E00002019DED040B53EC102B9DED020B51EC02
:1024F000100B07F075FBCDE906019DED080B53ECC1
:10250000102B9DED060B51EC100B07F07BF9CDE97C
:102510000A019DED0A0B51EC100B07F08DF80E909F
:10252000119807F051FDCDE900019DED000B06F07B
:10253000E7FB8DED040B129807F046FDCDE9000195
:102540009DED000B06F0DCFB8DED020B9DED040B09
:1025500053EC102B9DED020B51EC100B07F09EF885
:10256000CDE90801119807F02FFDCDE900019DED9F
:10257000000B06F0C5FB8DED040B9DED140A8DEDEF
:10258000000A9DED000AFFF7AFFA00EE100AF8EE20
:10259000C00A9DED100A20EE800A8DED010A019817
:1025A00007F012FDCDE902019DED040B53EC102B59
:1025B0009DED020B51EC100B07F012FBCDE906016B
:1025C0009DED080B53EC102B9DED060B51EC100B01
:1025D00007F018F9CDE90A019DED0A0B51EC100B3B
:1025E00007F02AF80D90119807F0EEFCCDE90001F4
:1025F0009DED000B06F084FB8DED040B129807F0A7
:10260000E3FCCDE900019DED000B06F079FB8DEDBB
:10261000020B9DED040B53EC102B9DED020B51ECC6
:10262000100B07F03BF8CDE90801129807F0CCFC3D
:10263000CDE900019DED000B06F062FB8DED040B72
:102640009DED130A8DED000A9DED000AFFF74CFA8F
:1026500000EE100AF8EEC00A9DED100A20EE800A86
:102660008DED010A019807F0AFFCCDE902019DED67
:10267000040B53EC102B9DED020B51EC100B07F0EB
:10268000AFFACDE906019DED080B53EC102B9DED43
:10269000060B51EC100B07F0B5F8CDE90A019DEDE2
:1026A0000A0B51EC100B06F0C7FF1FED862A0C90A9
:1026B000DDED0F1A9DED0E1ADDED0D0A9DED0C0AF4
:1026C000FFF768F99DED100A5FED8C0AB4EEE00AA1
:1026D000F1EE10FA07DD9DED100ADFEDF60A30EE9F
:1026E000600A8DED100A022003F020FB4FF0FF304E
:1026F0001FED960AFFF709FA00283FF441AE9DED61
:102700001B0AED4880ED000A9DED1C0A80ED010AD0
:102710001DB000BD00B52DED0A8B85B0B0EE409A1E
:10272000F0EE608A1FEDA50AB0EE408A38EEC90AC5
:10273000DFEDE20A20EE200AF0EE409A9FEDE00A7B
:1027400029EE800ADFEDDF0A80EE201A9FEDDE0A17
:1027500061EE000AB0EE001A80EE810A9FEDDB1AEE
:10276000C0EE010A9FEDDA0A20EE800AB0EE40AA20
:10277000D84890ED010AD84880ED000AD74890ED7E
:10278000010AD54880ED010AD54890ED010AD248EA
:1027900080ED020AD34890ED010ACF4880ED030A8C
:1027A0000020D14908600DE0B1EE4A0ACF48CE4979
:1027B000096800EB810080ED000ACB480068401CEE
:1027C000C9490860C84800680428EDDB0020C649F4
:1027D000086023E0C548C449096800EB810090ED1A
:1027E000000AB5EEC00AF1EE10FA09D29FEDC00A58
:1027F0006846BD49096800EB810080ED000A08E0E9
:102800009FEDBC0A6846B849096800EB810080ED7D
:10281000000AB5480068401CB3490860B248006827
:102820000428D7DB00BF9FEDB40AB4EEC08AF1EEF6
:1028300010FA48D2DDED030AB0EE600AFFF754F952
:1028400000EE100AB8EEC00A20EE080AF0EE40AA28
:10285000DDED020AB0EE600AFFF746F900EE100A5D
:10286000B8EEC00A20EE080AB0EE40BADDED010A6B
:10287000B0EE600AFFF738F900EE100AB8EEC00AB1
:1028800020EE080AF0EE40BADDED000AB0EE600A74
:10289000FFF72AF900EE100AB8EEC00A20EE080A87
:1028A000B0EE40CA9FED952AF0EE6A1AB0EE4B1AD0
:1028B000F0EE6B0AFFF76EF89FED910A38EE000A12
:1028C000B0EE408A16E09DED032AF0EE421A9DED2F
:1028D000022AB0EE421A9DED012AF0EE420A9DED69
:1028E000002AB0EE420A9FED852AFFF753F8022036
:1028F00003F01CFA00209FED830AFFF706F9002879
:1029000091D06D48C0ED028A05B0BDEC0A8B00BDC8
:1029100010B52DED0A8BB0EE408A6E4890ED010A9D
:10292000BDEEC00AF0EE408A6C4890ED010ABDEEA3
:10293000C00AB0EE409A6A4890ED010ABDEEC00AA6
:10294000F0EE409A674890ED010ABDEEC00AB0EE85
:1029500040AA6D4890ED010ABDEEC00A10EE104A83
:102960000EE0B0EE482AF8EECA1AB8EEE91AF8EE10
:10297000C90AB8EEE80AFFF76FF8022003F0D6F9AB
:10298000614890ED010A30EE480A10EE101A084630
:1029900007F01AFB41EC1C0BB0EE4C0AF0EE6C0A8F
:1029A00006F0AEF9B0EE40BAF0EE60BA9FED570B0C
:1029B00053EC102B51EC1B0B07F0D6F8D1D2BDEC29
:1029C0000A8B10BD10B52DED0C8BB0EE408AF0EEE9
:1029D000608A9FED500B06F09FF9B0EE40CAF0EE12
:1029E00060CA18EE100A07F0EFFA41EC1D0B53EC29
:1029F0001C2B07F0F5F841EC1A0B9FED460B06F087
:102A00001BF9B0EE40CAF0EE60CA18EE900A07F06B
:102A1000DBFA41EC1D0B53EC1C2B07F0E1F841EC09
:102A20001B0B53EC1A2B07F0E5F941EC190B06F0E0
:102A300003FE00EE100ABDEC0C8B10BD10B52DEDA1
:102A40000C8BB0EE408AF0EE608A9FED320B06F000
:102A500063F9B0EE40CAF0EE60CA18EE900A07F0D3
:102A6000B3FA41EC1D0B53EC1C2B07F0B9F841EC09
:102A70001A0B9FED280B06F0DFF8B0EE40CAF0EE1F
:102A800060CA18EE100A07F09FFA41EC1D0B53ECD8
:102A90001C2B07F0A5F841EC1B0B53EC1A2B06F08E
:102AA000FDFD41EC190B06F0C7FD00EE100ABDEC70
:102AB0000C8B10BDCDCCCC3E840300203333833F40
:102AC000DB0F4940000034430000E143959E6B4317
:102AD0000000B44378000020A40300209C000020E4
:102AE000C0000020E4000020280000209003002007
:102AF0000000A0C20000A0420000964300000000B9
:102B0000CDCC4C3E000048420801002000000000EF
:102B10000000244000000060FB21E9BF07B584B03D
:102B2000069800287DD1049801287BD105980028BB
:102B300078D1DFEDFD0A1FED0F0AFFF743FF8DEDA2
:102B4000030ADFEDF90A1FED130AFFF777FF8DED9A
:102B5000020AF64890ED010A8DED010A90ED000A97
:102B60008DED000ADDED031A9DED021ADDED010A7F
:102B70009DED000AFFF742F8DFEDEB0A9FEDEC0A4E
:102B8000FFF720FF8DED030ADFEDE70A9FEDE80A6E
:102B9000FFF754FF8DED020AE44890ED010A8DED38
:102BA000010A90ED000A8DED000ADDED031A9DED9E
:102BB000021ADDED010A9DED000AFFF71FF8DFEDB7
:102BC000DD0A9FEDDB0AFFF7FDFE8DED030ADFED69
:102BD000D90A9FEDD70AFFF731FF8DED020AD348DE
:102BE00090ED010A8DED010A90ED000A8DED000ACD
:102BF000DDED031A9DED021ADDED010A9DED000ADF
:102C0000FEF7FCFFDFEDCB0A9FEDCB0AFFF7DAFE04
:102C10008DED030ADFEDC70A9FEDC70AFFF70EFF30
:102C200001E0EBE31FE08DED020AC04890ED010AE0
:102C30008DED010A90ED000A8DED000ADDED031A1D
:102C40009DED021ADDED010A9DED000AFEF7D6FFAB
:102C5000B64890ED020A8DED030A5FED660A9DED20
:102C6000030AFFF757FD049801287DD10598012834
:102C70007AD1DFEDAD0A1FED5F0AFFF7A3FE8DED00
:102C8000030ADFEDA90A1FED630AFFF7D7FE8DEDFA
:102C9000020AA64890ED010A8DED010A90ED000AA6
:102CA0008DED000ADDED031A9DED021ADDED010A3E
:102CB0009DED000AFEF7A2FFDFED9B0A9FED9C0A47
:102CC000FFF780FE8DED030ADFED970A9FED980A6E
:102CD000FFF7B4FE8DED020A944890ED010A8DEDE8
:102CE000010A90ED000A8DED000ADDED031A9DED5D
:102CF000021ADDED010A9DED000AFEF77FFFDFED10
:102D00008D0A9FED8B0AFFF75DFE8DED030ADFED67
:102D1000890A9FED870AFFF791FE8DED020A83482D
:102D200090ED010A8DED010A90ED000A8DED000A8B
:102D3000DDED031A9DED021ADDED010A9DED000A9D
:102D4000FEF75CFFDFED7B0A9FED7B0AFFF73AFEA3
:102D50008DED030ADFED770A9FED770AFFF76EFE30
:102D60008DED020A714800E036E090ED010A8DED2C
:102D7000010A90ED000A8DED000ADDED031A9DEDCC
:102D8000021ADDED010A9DED000AFEF737FF6748E4
:102D900090ED020A8DED030A5FEDB60A9DED030A80
:102DA000FFF7B8FCDFED650A1FEDAC0AFFF70AFE7E
:102DB0008DED030ADFED610A1FEDB00AFFF73EFE5D
:102DC0008DED020ADDED031A9DED021A5FEDB50AE5
:102DD0001FEDB60AFEF712FF049801287DD1059871
:102DE00002287AD1DFED500A1FEDBC0AFFF7EAFD99
:102DF0008DED030ADFED4C0A1FEDC00AFFF71EFE42
:102E00008DED020A494890ED010A8DED010A90ED21
:102E1000000A8DED000ADDED031A9DED021ADDEDCD
:102E2000010A9DED000AFEF7E9FEDFED3F0A9FED86
:102E3000400AFFF7C7FD8DED030ADFED3B0A9FED6A
:102E40003C0AFFF7FBFD8DED020A384890ED010AC0
:102E50008DED010A90ED000A8DED000ADDED031AFB
:102E60009DED021ADDED010A9DED000AFEF7C6FE9A
:102E7000DFED300A9FED2E0AFFF7A4FD8DED030A6A
:102E8000DFED2C0A9FED2A0AFFF7D8FD8DED020A2F
:102E9000264890ED010A8DED010A90ED000A8DEDB6
:102EA000000ADDED031A9DED021ADDED010A9DED2C
:102EB000000AFEF7A3FEDFED1F0A9FED1F0AFFF7D2
:102EC00081FD8DED030ADFED1B0A9FED1B0AFFF765
:102ED000B5FD8DED020A154800E049E090ED010ACC
:102EE0008DED010A90ED000A8DED000ADDED031A6B
:102EF0009DED021ADDED010A9DED000AFEF77EFE52
:102F00000A4890ED020A8DED030ADFED0D0A9DEDF2
:102F1000030AFFF7FFFBDFED0B0A9FED0B0AFFF73C
:102F200051FD8DED030A11E0008009C484030020E7
:102F3000000096C4008004440080EDC400C0024438
:102F40000000344300007A44000000005FED030AF3
:102F50001FED030AFFF772FD8DED020ADDED031A86
:102F60009DED021A5FED080A1FED090AFEF746FE05
:102F7000049802287DD1059800287AD15FED160AC1
:102F80001FED150AFFF71EFD8DED030A5FED1A0A0E
:102F90001FED190AFFF752FD8DED020A5FED1E0AC3
:102FA0001FED170AFFF70EFD8DED010A5FED220AF6
:102FB0001FED1B0AFFF742FD8DED000ADDED031A40
:102FC0009DED021ADDED010A9DED000AFEF716FEE9
:102FD0005FED280A1FED2A0AFFF7F4FC8DED030AC6
:102FE0005FED2C0A1FED2E0AFFF728FD8DED020A7A
:102FF000FC4890ED010A8DED010A90ED000A8DED7F
:10300000000ADDED031A9DED021ADDED010A9DEDCA
:10301000000AFEF7F3FD5FED390A1FED390AFFF7ED
:10302000D1FC8DED030A5FED3D0A1FED3D0AFFF770
:1030300005FD8DED020AEB4890ED010A8DED010AC8
:1030400090ED000A8DED000ADDED031A9DED021AE8
:10305000DDED010A9DED000AFEF7D0FDE14890ED9F
:10306000020A8DED030A5FED4A0A9DED030AFFF7A0
:1030700051FB049802287CD10598012879D15FED95
:10308000560A1FED550AFFF79DFC8DED030A5FED13
:103090005A0A1FED590AFFF7D1FC8DED020A5FEDC8
:1030A0005E0A1FED570AFFF78DFC8DED010A5FEDFB
:1030B000620A1FED5B0AFFF7C1FC8DED000ADDED32
:1030C000031A9DED021ADDED010A9DED000AFEF7DF
:1030D00095FD5FED680A1FED6A0AFFF773FC8DED41
:1030E000030A5FED6C0A1FED6E0AFFF7A7FC8DED7A
:1030F000020ABC4890ED010A8DED010A90ED000A2C
:103100008DED000ADDED031A9DED021ADDED010AD9
:103110009DED000AFEF772FD5FED7A0A1FED7A0A57
:10312000FFF750FC8DED030A5FED7E0A1FED7E0A6E
:10313000FFF784FC8DED020AAA4890ED010A8DED9F
:10314000010A90ED000A8DED000ADDED031A9DEDF8
:10315000021ADDED010A9DED000AFEF74FFDA148C0
:1031600090ED020A8DED030A5FED8B0A9DED030AD7
:1031700000E01BE0FFF7CEFA5FED900A1FED8E0A2C
:10318000FFF720FC8DED030A5FED940A1FED920A14
:10319000FFF754FC8DED020ADDED031A9DED021AD6
:1031A0005FED970A1FED980AFEF728FD04980228A4
:1031B0007ED1059802287BD15FEDA50A1FEDA40AF8
:1031C000FFF700FC8DED030A5FEDA90A1FEDA80AC9
:1031D000FFF734FC8DED020A5FEDAD0A1FEDA60A84
:1031E000FFF7F0FB8DED010A5FEDB10A1FEDAA0AB2
:1031F000FFF724FC8DED000ADDED031A9DED021AA8
:10320000DDED010A9DED000AFEF7F8FC5FEDB70A5F
:103210001FEDB90AFFF7D6FB8DED030A5FEDBB0A80
:103220001FEDBD0AFFF70AFC8DED020A6D4890ED17
:10323000010A8DED010A90ED000A8DED000ADDED29
:10324000031A9DED021ADDED010A9DED000AFEF75D
:10325000D5FC5FEDC80A1FEDC80AFFF7B3FB8DED83
:10326000030A5FEDCC0A1FEDCC0AFFF7E7FB8DEDFB
:10327000020A5C4890ED010A8DED010A90ED000A0A
:103280008DED000ADDED031A9DED021ADDED010A58
:103290009DED000AFEF7B2FC524890ED020A8DED5A
:1032A000030A5FEDD90A9DED030AFFF733FA00E048
:1032B00019E05FEDDC0A1FEDDC0AFFF783FB8DED03
:1032C000030A5FEDE00A1FEDE00AFFF7B7FB8DEDA3
:1032D000020ADDED031A9DED021A5FEDE50A1FED0E
:1032E000E60AFEF78BFC049800287AD1059800289E
:1032F00077D15FEDF30A1FEDEC0AFFF763FB8DED6D
:10330000030A5FEDF70A1FEDF00AFFF797FB8DED5B
:10331000020ADFED350A1FEDF40AFFF753FB8DEDCE
:10332000010ADFED310A1FEDF80AFFF787FB8DED8B
:10333000000ADDED031A9DED021ADDED010A9DED97
:10334000000AFEF75BFCDFED290A9FED290AFFF773
:1033500039FB8DED030ADFED250A9FED250AFFF706
:103360006DFB8DED020ADFED210A9FED220AFFF7CA
:1033700029FB8DED010ADFED1D0A9FED1E0AFFF707
:103380005DFB8DED000ADDED031A9DED021ADDED0A
:10339000010A9DED000AFEF731FCDFED170A9FEDF3
:1033A000140AFFF70FFB8DED030ADFED130A9FED03
:1033B000100AFFF743FB8DED020A0A4890ED010A5F
:1033C0008DED010A90ED000A8DED000ADDED031A86
:1033D0009DED021ADDED010A9DED000AFEF70EFCDF
:1033E0000DE03AE08403002000800944008009C415
:1033F000000096C4000000000080044474E15FED0A
:10340000020A9FEDFD0AFFF7DDFA8DED030A5FED7D
:10341000060A9FEDF90AFFF711FB8DED020AF74846
:1034200090ED010A8DED010A90ED000A8DED000A84
:10343000DDED031A9DED021ADDED010A9DED000A96
:10344000FEF7DCFBED4890ED020A8DED030ADFED9F
:10345000EC0A9DED030AFFF75DF9049800287AD184
:103460000598012877D15FED1F0A1FED1E0AFFF7AF
:10347000A9FA8DED030A5FED230A1FED220AFFF77B
:10348000DDFA8DED020A5FED280A1FED260AFFF72F
:1034900099FA8DED010A5FED2C0A1FED2A0AFFF75C
:1034A000CDFA8DED000ADDED031A9DED021ADDED7A
:1034B000010A9DED000AFEF7A1FB5FED340A1FED46
:1034C000340AFFF77FFA8DED030A5FED380A1FED2E
:1034D000380AFFF7B3FA8DED020A5FED3C0A1FEDE3
:1034E0003B0AFFF76FFA8DED010A5FED400A1FED11
:1034F0003F0AFFF7A3FA8DED000ADDED031A9DEDFB
:10350000021ADDED010A9DED000AFEF777FB5FED83
:10351000460A1FED490AFFF755FA8DED030A5FEDE4
:103520004A0A1FED4D0AFFF789FA8DED020AB348EA
:1035300090ED010A8DED010A90ED000A8DED000A73
:10354000DDED031A9DED021ADDED010A9DED000A85
:10355000FEF754FB00E047E05FED590A9FEDA60A35
:10356000FFF730FA8DED030A5FED5D0A9FEDA20AC9
:10357000FFF764FA8DED020AA04890ED010A8DED87
:10358000010A90ED000A8DED000ADDED031A9DEDB4
:10359000021ADDED010A9DED000AFEF72FFB9748A8
:1035A00090ED020A8DED030ADFED950A9DED030A09
:1035B000FFF7B0F8DFED930A1FED720AFFF702FA8A
:1035C0008DED030ADFED8F0A1FED760AFFF736FA5D
:1035D0008DED020ADDED031A9DED021A5FED7B0A07
:1035E0001FED7C0AFEF70AFB049800287CD10598A1
:1035F000022879D15FED830A1FED820AFFF7E2F915
:103600008DED030A5FED870A1FED860AFFF716FAB4
:103610008DED020A5FED8C0A1FED8A0AFFF7D2F9E1
:103620008DED010A5FED900A1FED8E0AFFF706FA95
:103630008DED000ADDED031A9DED021ADDED010AA4
:103640009DED000AFEF7DAFA5FED980A1FED980A81
:10365000FFF7B8F98DED030A5FED9C0A1FED9C0A98
:10366000FFF7ECF98DED020A5FEDA00A1FED9F0A4E
:10367000FFF7A8F98DED010A5FEDA40A1FEDA30A7B
:10368000FFF7DCF98DED000ADDED031A9DED021A5E
:10369000DDED010A9DED000AFEF7B0FA5FEDAA0A22
:1036A0001FEDAD0AFFF78EF98DED030A5FEDAE0A4F
:1036B0001FEDB10AFFF7C2F98DED020A4F4890EDF8
:1036C000010A8DED010A90ED000A8DED000ADDED95
:1036D000031A9DED021ADDED010A9DED000AFEF7C9
:1036E0008DFA5FEDBB0A00E045E09FED430AFFF76E
:1036F00069F98DED030A5FEDC00A9FED3F0AFFF700
:103700009DF98DED020A3D4890ED010A8DED010A0B
:1037100090ED000A8DED000ADDED031A9DED021A11
:10372000DDED010A9DED000AFEF768FA334890EDE1
:10373000020A8DED030ADFED320A9DED030AFEF762
:10374000E9FFDFED310A1FEDD50AFFF73BF98DEDFB
:10375000030ADFED2D0A1FEDD90AFFF76FF98DED92
:10376000020ADDED031A9DED021A5FEDDE0A1FED80
:10377000DF0AFEF743FA069801287DD10498012854
:103780005ED10598B0BB5FEDE50A9FED200AFFF71B
:1037900019F98DED030A5FEDE90A9FED1C0AFFF7A9
:1037A0004DF98DED020A154890ED010A8DED010AE3
:1037B00090ED000A8DED000ADDED031A9DED021A71
:1037C000DDED010A9DED000AFEF718FA0B4890EDB9
:1037D000020A8DED030ADFED0E0A9DED030AFEF7E6
:1037E00099FFDFED0C0A9FED0C0AFFF7EBF88DED6A
:1037F000030A13E024E000000080EDC484030020ED
:103800000000344300C0024400007A440000E1C4D8
:10381000000034C30000FFC3000000005FED030A96
:103820001FED030AFFF70AF98DED020ADDED031A19
:103830009DED021A5FED080A1FED090AFEF7DEF999
:10384000049801286FD1059801286CD1DFEDFE0A9C
:103850001FED0F0AFFF7B6F88DED030ADFEDFA0A48
:103860001FED130AFFF7EAF88DED020AF74890ED15
:10387000010A8DED010A00E081E290ED000A8DED74
:10388000000ADDED031A9DED021ADDED010A9DED42
:10389000000AFEF7B3F9DFEDEC0A1FED240AFFF78B
:1038A00091F88DED030ADFEDE80A1FED280AFFF716
:1038B000C5F88DED020AE54890ED010A8DED010A8B
:1038C00090ED000A8DED000ADDED031A9DED021A60
:1038D000DDED010A9DED000AFEF790F9DB4890ED61
:1038E000020A8DED030A5FED360A9DED030AFEF72D
:1038F00011FF5FED380A1FED380AFFF763F88DED11
:10390000030A5FED3C0A1FED3C0AFFF797F88DEDC7
:10391000020ADDED031A9DED021A5FED410A1FED6B
:10392000420AFEF76BF9049801286DD10598022828
:103930006AD1DFEDC70A1FED480AFFF743F88DEDA6
:10394000030ADFEDC30A1FED4C0AFFF777F88DED90
:10395000020ABE4890ED010A8DED010A90ED000AC1
:103960008DED000ADDED031A9DED021ADDED010A71
:103970009DED000AFEF742F9DFEDB50A1FED5D0A85
:10398000FFF720F88DED030ADFEDB10A1FED610AA4
:10399000FFF754F88DED020AAC4890ED010A8DED69
:1039A000010A90ED000A8DED000ADDED031A9DED90
:1039B000021ADDED010A9DED000AFEF71FF9A3488A
:1039C00090ED020A8DED030A5FED6F0A9DED030A8B
:1039D000FEF7A0FE5FED710A1FED710AFEF7F2FF20
:1039E0008DED030A5FED750A1FED750AFFF726F8E6
:1039F0008DED020ADDED031A9DED021A5FED7A0AE4
:103A00001FED7B0AFEF7FAF80498022854D10598B6
:103A1000F0BB5FED830A1FED800AFEF7D3FF8DED4B
:103A2000030A5FED870A1FED840AFFF707F88DEDA3
:103A3000020A864890ED010A8DED010A90ED000A18
:103A40008DED000ADDED031A9DED021ADDED010A90
:103A50009DED000AFEF7D2F85FED950A1FED950A7D
:103A6000FEF7B0FF8DED030A5FED990A1FED990A8D
:103A7000FEF7E4FF8DED020A744890ED010A8DED2A
:103A8000010A90ED000A8DED000ADDED031A00E059
:103A900012E09DED021ADDED010A9DED000AFEF730
:103AA000ADF86A4890ED020A8DED030A5FEDAC0AAD
:103AB0009DED030AFEF72EFE0498022853D10598C7
:103AC000012850D1DFED630A1FEDAD0AFEF77AFF42
:103AD0008DED030ADFED5F0A1FEDB10AFEF7AEFFC1
:103AE0008DED020A594890ED010A8DED010A90ED25
:103AF000000A8DED000ADDED031A9DED021ADDEDE1
:103B0000010A9DED000AFEF779F8DFED520A1FED7C
:103B1000C10AFEF757FF8DED030ADFED4E0A1FEDD8
:103B2000C50AFEF78BFF8DED020A484890ED010AA9
:103B30008DED010A90ED000A8DED000ADDED031A0E
:103B40009DED021ADDED010A9DED000AFEF756F823
:103B50003E4890ED020A8DED030A5FEDD70A9DED18
:103B6000030AFEF7D7FD0498022830D105980228F1
:103B70002DD15FEDD70A1FEDDB0AFEF723FF8DED98
:103B8000030A5FEDDB0A1FEDDF0AFEF757FF8DED3D
:103B9000020A2E4890ED010A8DED010A90ED000A0F
:103BA0008DED000ADDED031A9DED021ADDED010A2F
:103BB0009DED000AFEF722F8244890ED020A8DEDF3
:103BC000030A5FEDF10A9DED030AFEF7A3FD0498D9
:103BD00078BB059868BB5FEDF00A1FEDF40AFEF7AD
:103BE000F1FE8DED030A5FEDF40A1FEDF80AFEF712
:103BF00025FF8DED020A154890ED010A8DED010AB1
:103C000090ED000A8DED000ADDED031A9DED021A1C
:103C1000DDED010A9DED000AFDF7F0FF0B4890ED88
:103C2000020A8DED030ADFED0C0A9DED030AFEF793
:103C300071FD0498E0BB0598012860D1DFED020A10
:103C40009FED060A0CE0000000C001C484030020C0
:103C500000007AC400401044000034C3000000009B
:103C6000FEF7B0FE8DED030A5FED090A1FED050AB0
:103C7000FEF7E4FE8DED020AFE4890ED010A8DED9F
:103C8000010A90ED000A8DED000ADDED031A9DEDAD
:103C9000021ADDED010A9DED000AFDF7AFFF5FEDB1
:103CA000160A9FEDF50AFEF78DFE8DED030A00E082
:103CB00025E05FED1B0A9FEDF00AFEF7BFFE8DEDDC
:103CC000020AEC4890ED010A8DED010A90ED000A20
:103CD0008DED000ADDED031A9DED021ADDED010AFE
:103CE0009DED000AFDF78AFFE24890ED020A8DED96
:103CF000030A5FED270A9DED030AFEF70BFD04980A
:103D0000E8BB0598022852D15FED2F0A1FED2D0A5E
:103D1000FEF758FE8DED030A5FED330A1FED310A01
:103D2000FEF78CFE8DED020AD24890ED010A8DED72
:103D3000010A90ED000A8DED000ADDED031A9DEDFC
:103D4000021ADDED010A9DED000AFDF757FF5FED58
:103D5000400A9FEDC90AFEF735FE8DED030A5FEDBF
:103D6000440A9FEDC50AFEF769FE8DED020AC148BF
:103D700090ED010A8DED010A90ED000A00E016E0D9
:103D80008DED000ADDED031A9DED021ADDED010A4D
:103D90009DED000AFDF732FFB64890ED020A8DED69
:103DA000030A5FED530A9DED030AFEF7B3FC07B06B
:103DB00000BD70B52DED048B04460D46012C3FD19E
:103DC000012D3DD19FEDAD0AFEF7A2FD5FED5D0A2D
:103DD0009FEDAB0AFEF7F6FDB0EE408A5FED610A9B
:103DE0009FEDA70AFEF72AFEF0EE408AF0EE481A91
:103DF000B0EE681A5FED670A1FED680AFDF7FEFE78
:103E00009FEDA00AFEF784FD5FED6C0A9FED9E0A10
:103E1000FEF7D8FDB0EE408A5FED700A9FED9A0A7A
:103E2000FEF70CFEF0EE408A5FED741A1FED751A76
:103E3000F0EE480AFDF7E2FE9FED940AFEF768FDFA
:103E4000012C7CD1022D7AD1DFED910A1FED7D0A84
:103E5000FEF7B8FDB0EE408ADFED8D0A1FED810A56
:103E6000FEF7ECFDF0EE408AF0EE481AB0EE681A6C
:103E70005FED860A1FED870AFDF7C0FE9FED850AFC
:103E800000F00AFB9FED7D0AFEF742FDDFED800AA0
:103E90009FED810AFEF796FDB0EE408ADFED7C0AC9
:103EA0009FED7D0AFEF7CAFDF0EE408ADFED780A4D
:103EB0001FED960AFEF786FDB0EE409ADFED740A1C
:103EC0001FED9A0AFEF7BAFDF0EE409AF0EE481A9E
:103ED000B0EE681AF0EE490AFDF790FEF3EE0E0A16
:103EE0009FED6D0AFEF76EFDB0EE408AF3EE0E0A0E
:103EF0009FED690AFEF7A2FDF0EE408ADFED640A4D
:103F00009FED650AFEF75EFDB0EE409ADFED600AB8
:103F10009FED610AFEF792FDF0EE409AF0EE481A2E
:103F2000B0EE681AF0EE490AFDF768FE9FED550AFB
:103F3000FEF7EEFCF3EE0E0A1FEDB80A00E027E0F4
:103F4000FEF740FDB0EE408AF3EE0E0A1FEDBD0A0B
:103F5000FEF774FDF0EE408AF3EE0E0A9FED4E0A76
:103F6000FEF730FDB0EE409AF3EE0E0A9FED4A0ADE
:103F7000FEF764FDF0EE409AF0EE481AB0EE681AD3
:103F8000F0EE490AFDF73AFE9FED400AFEF7C0FC4D
:103F9000BCBB012D35D15FEDCF0A9FED390AFEF78D
:103FA00011FDB0EE408A5FEDD30A9FED350AFEF7B2
:103FB00045FDF0EE408AF0EE481AB0EE681A5FED6B
:103FC000D90A1FEDDA0AFDF719FE9FED300AFEF758
:103FD0009FFC5FEDDE0A9FED2A0AFEF7F3FCB0EED0
:103FE000408A5FEDE20A9FED260AFEF727FDF0EE1C
:103FF000408A5FEDE61A1FEDE71AF0EE480AFDF77A
:10400000FDFD002C7DD1022D7BD1DFED210A1FEDBE
:10401000ED0AFEF7D7FCB0EE408ADFED1D0A1FED7A
:10402000F10AFEF70BFDF0EE408AF0EE481AB0EE12
:10403000681A5FEDF60A1FEDF70AFDF7DFFD9FED49
:10404000150A00F029FADFED120A9FED130AFEF7B8
:10405000B9FCB0EE408ADFED0E0A9FED0F0AFEF7C5
:10406000EDFCF0EE408ADFED0A0A9FED0C0AFEF748
:10407000A9FC15E0840300200000E1C4008089C58C
:104080000000B44300609FC50000B9430000FAC4BB
:1040900000007A4300009C420000BE430000000084
:1040A000B0EE409A5FED060A1FED040AFEF7C6FC6B
:1040B000F0EE409AF0EE481AB0EE681AF0EE490AB7
:1040C000FDF79CFDF3EE0E0A1FED0D0AFEF77AFCDC
:1040D000B0EE408AF3EE0E0A1FED110AFEF7AEFCB9
:1040E000F0EE408A5FED160A1FED150AFEF76AFC36
:1040F000B0EE409A5FED1A0A1FED190AFEF79EFC1A
:1041000000E035E0F0EE409AF0EE481AB0EE681AA2
:10411000F0EE490AFDF772FD1FED240AFEF7F8FBE9
:10412000F3EE0E0A1FED230AFEF74CFCB0EE408AB8
:10413000F3EE0E0A1FED270AFEF780FCF0EE408A30
:10414000F3EE0E0A1FED2C0AFEF73CFCB0EE409A8F
:10415000F3EE0E0A1FED300AFEF770FCF0EE409A07
:10416000F0EE481AB0EE681AF0EE490AFDF746FD87
:10417000BDEC048B70BD70B52DED048B05460C466F
:10418000012D3FD1012C1CD11FED3C0AFEF7C0FBD5
:104190005FED3E0A9FEDB90AFEF714FCB0EE408ACF
:1041A0005FED420A9FEDB50AFEF748FCF0EE408A4B
:1041B0005FED461A1FED471AF0EE480AFDF71EFDA7
:1041C00008E1B9EE040A00F067F91FED4C0AFEF7AA
:1041D0009FFB5FED4E0A9FEDA90AFEF7F3FBB0EEE1
:1041E000408A5FED520A9FEDA50AFEF727FCF0EE2C
:1041F000408A5FED561A1FED571AF0EE480AFDF798
:10420000FDFCE7E0022C71D11FED5C0AFEF780FB9C
:10421000DFED9B0A1FED5F0AFEF7D4FBB0EE408A8C
:10422000DFED970A1FED630AFEF708FCF0EE408A07
:10423000F0EE481AB0EE681A5FED680A1FED690AE1
:10424000FDF7DCFCDFED8E0A9FED8E0AFEF7BAFB70
:10425000B0EE408ADFED8A0A9FED8A0AFEF7EEFB98
:10426000F0EE408ADFED860A1FED740AFEF7AAFB26
:10427000B0EE409ADFED820A1FED780AFEF7DEFB12
:10428000F0EE409AF0EE481AB0EE681AF0EE490AE5
:10429000FDF7B4FC00F037F95FED800A9FED790A75
:1042A000FEF790FBB0EE408A5FED840A9FED750A41
:1042B000FEF7C4FBF0EE408ADFED710A9FED710A54
:1042C000FEF780FBB0EE409ADFED6D0A9FED6D0AC0
:1042D000FEF7B4FBF0EE409AF0EE481AB0EE681A22
:1042E000F0EE490AFDF78AFC74E0FFE71FED970A3C
:1042F00000F0D2F81FED970AFEF70AFBDFED600A27
:104300001FED9A0AFEF75EFBB0EE408ADFED5C0A15
:104310001FED9E0AFEF792FBF0EE408AF0EE481A7F
:10432000B0EE681A5FEDA30A1FEDA40AFDF766FC64
:10433000DFED530A9FED530AFEF744FBB0EE408ACF
:10434000DFED4F0A9FED4F0AFEF778FBF0EE408A53
:10435000DFED4B0A1FEDAF0AFEF734FBB0EE409ADB
:10436000DFED470A1FEDB30AFEF768FBF0EE409A57
:10437000F0EE481AB0EE681AF0EE490AFDF73EFC7E
:1043800000F0C1F85FEDBB0A9FED3E0AFEF71AFB95
:10439000B0EE408A5FEDBF0A9FED3A0AFEF74EFB92
:1043A000F0EE408ADFED360A9FED360AFEF70AFB93
:1043B000B0EE409ADFED320A9FED320AFEF73EFB87
:1043C000F0EE409AF0EE481AB0EE681AF0EE490AA4
:1043D000FDF714FCBDEC048B70BD02466FF00201CA
:1043E0002948D0ED030AF4EEC00AF1EE10FA09D222
:1043F000D0ED030AB1EE401AF4EEC10AF1EE10FA64
:1044000000DD491C2148D0ED030AF4EEC00AF1EEAC
:1044100010FA09D2D0ED030AB1EE401AF4EEC10A47
:10442000F1EE10FA00DD491C1948D0ED030AF4EE54
:10443000C00AF1EE10FA09D2D0ED030AB1EE401A2B
:10444000F4EEC10AF1EE10FA00DD491C1148D0ED7E
:10445000030AF4EEC00AF1EE10FA09D2D0ED030A15
:10446000B1EE401AF4EEC10AF1EE10FA00DD491C7B
:10447000914201DD012070470020FCE700009643D7
:1044800000004843000096C3780000209C000020F4
:10449000C0000020E400002010B52DED028BB0EE2E
:1044A000408AB5EEC08AF1EE10FA0ED89FED3E0AB2
:1044B00028EE000ADFED3D0A80EE201A9FED3C0A4F
:1044C00030EE410AB0EE408A0DE09FED3A0A28EE48
:1044D000000A9FED361AC0EE010A9FED350A30EE54
:1044E000800AB0EE408ABDEEC80AB8EEC00AB0EE4F
:1044F000408ABCEEC80A10EE101A2F4803F055FF90
:10450000BDEC028B10BD00B58BB00121082002F07C
:1045100082FC0121084602F035FC022201212748D5
:1045200002F01DFA022009908DF8280003208DF872
:10453000290000208DF82A0001208DF82B0009A900
:104540001E4802F081F95320ADF818000020ADF8A4
:104550001A0044F61F6007904FF48070ADF82000F9
:1045600006A9154803F031FD6020ADF804000120D4
:10457000ADF806000220ADF8100001A90E4803F0C6
:10458000F2FD08210C4803F04BFF01210A4803F01B
:1045900087FD0121084803F0A1FDB9EE040AFFF7E9
:1045A0007BFF0BB000BD0000004083440000B4421C
:1045B00000EC9046004083C4000C00400000024024
:1045C00010B50121084602F0DDFB0121022002F0B6
:1045D000D9FB0121042002F0D5FB0121082002F0C3
:1045E000D1FB0121102002F0CDFB0121202002F09F
:1045F000C9FB0121402002F0C5FB10BD1CB5802085
:10460000009000208DF8040002208DF805000120A4
:104610008DF807006946FE4802F016F92020009048
:1046200000208DF8040002208DF8050001208DF88F
:1046300007006946F64802F007F9082000900020BC
:104640008DF8040002208DF8050001208DF8070088
:104650006946EF4802F0F8F84FF4804000900020DF
:104660008DF8040002208DF8050001208DF8070068
:104670006946E84802F0E8F84FF4805000900020C6
:104680008DF8040002208DF8050001208DF8070048
:104690006946E04802F0D8F84FF4806000900020AE
:1046A0008DF8040002208DF8050001208DF8070028
:1046B0006946D84802F0C8F88020009000208DF8A4
:1046C000040002208DF8050001208DF807006946DE
:1046D000D14802F0B9F84020009000208DF8040085
:1046E00002208DF8050001208DF807006946CB48AF
:1046F00002F0AAF81020009000208DF8040002209B
:104700008DF8050001208DF807006946C44802F0C5
:104710009BF80120009000208DF8040002208DF805
:10472000050001208DF807006946B94802F08CF8B1
:104730000420009000208DF8040002208DF8050070
:1047400001208DF807006946B14802F07DF84FF46A
:104750008050009000208DF8040002208DF80500A4
:1047600001208DF807006946AE4802F06DF84FF45D
:104770008040009000208DF8040002208DF8050094
:1047800001208DF807006946A64802F05DF8012077
:10479000009000208DF8040002208DF80500012013
:1047A0008DF8070069469B4802F04EF81CBD10B515
:1047B0008021974802F0AAF8012824D120219448AA
:1047C00002F0A4F801281ED10821914802F09EF8B9
:1047D000012818D181038F4802F098F8012812D1DE
:1047E00001038C4802F092F801280CD1810289481B
:1047F00002F08CF8012806D18021874802F086F863
:10480000012800D110BD0020FCE710B580218048B0
:1048100002F07CF8B8B920217D4802F077F890B911
:104820004FF480617B4802F071F860B980217A48CA
:1048300002F06CF838B94FF48041764802F066F81F
:10484000012800D110BD0020FCE710B5FFF7DDFF07
:1048500040B301216F4802F059F818BB4FF4804172
:10486000704802F053F8E8B94FF480516D4802F0F7
:104870004DF8B8B90421664802F048F890B9012112
:10488000634802F043F858B11021654802F03EF841
:10489000012805D04021614802F038F8012801D1F3
:1048A000012010BD0020FCE710B5FFF7AEFF40B3BC
:1048B00040215A4802F02AF818BB1021584802F04B
:1048C00025F8F0B90121524802F020F8C8B90421B6
:1048D0004F4802F01BF8A0B94FF48051514802F044
:1048E00015F860B14FF480414E4802F00FF80128EE
:1048F00005D00121474802F009F8012801D1012023
:1049000010BD0020FCE72DE9F04105460F46164694
:104910000024082F47D2DFE807F046040D17212BAB
:10492000343D80213C4801F0F1FF012801D1601C99
:10493000C4B200BF4FF48061364801F0E7FF0128A0
:1049400001D1601CC4B200BF4FF48051314801F066
:10495000DDFF012801D1601CC4B200BF4FF48041CB
:104960002C4801F0D3FF012801D1601CC4B200BF64
:104970000821274801F0CAFF012801D1601CC4B2F8
:1049800012E02021224801F0C1FF012801D1601C62
:10499000C4B209E080211E4801F0B8FF012801D10E
:1049A000601CC4B200E000BF00BF082E56D2DFE892
:1049B00006F055040D161F28404B4021174801F002
:1049C000A5FF012801D1601CC4B200BF102114480A
:1049D00001F09CFF012801D1601CC4B200BF01217D
:1049E0000B4801F093FF012801D1601CC4B200BF45
:1049F0000421074801F08AFF012801D1601CC4B2DC
:104A000000BF4FF48051074801F080FF01280BE000
:104A10000004024000180240000C02400000024066
:104A2000000802400014024002D1601CC0B20446DB
:104A300015E04FF48041FE4801F068FF012802D1E3
:104A4000601CC0B204460AE00121FA4801F05EFF92
:104A5000012802D1601CC0B2044600E000BF00BFC4
:104A6000012D01D0022D06D1012C02D10120BDE87B
:104A7000F0810020FBE7032D05D1022C01D101209C
:104A8000F5E70020F3E700BFF1E710B58021EA4821
:104A900001F03CFF012811D10121E64801F036FF69
:104AA00001280BD12021E44801F030FF30B94FF448
:104AB0008041DF4801F02AFF00287DD08021DE48B8
:104AC00001F024FF01281DD10121DA4801F01EFF69
:104AD000012817D12021D84801F018FF012811D151
:104AE0008103D34801F012FF01280BD10821D248DD
:104AF00001F00CFF30B94FF48051CD4801F006FFB2
:104B00000028DAD08021CC4801F000FF38BB012119
:104B1000C84801F0FBFE10BB2021C74801F0F6FE9B
:104B200001281CD18103C24801F0F0FE012816D1F2
:104B30000821C14801F0EAFE012810D10103BC4858
:104B400001F0E4FE01280AD18103BA4801F0DEFE3B
:104B500028B90421B84801F0D9FE0028ADD02021A1
:104B6000B54801F0D3FE40BB4FF48041B04801F09E
:104B7000CDFE10BB0821B04801F0C8FE01281FD1AE
:104B80000103AB4801F0C2FE012819D18103A948F5
:104B900001F0BCFE012813D10421A74801F0B6FEA4
:104BA00001280DD10103A34801F0B0FE28B901216D
:104BB000A14801F0ABFE01E09AE001E00028A0D09E
:104BC00008219D4801F0A2FE48BB4FF4805198484F
:104BD00001F09CFE18BB4FF48041964801F096FE10
:104BE00001281CD10421944801F090FE012816D11F
:104BF0000103904801F08AFE012810D101218E485E
:104C000001F084FE01280AD181028A4801F07EFE6B
:104C100028B91021894801F079FE002868D04FF4A6
:104C20008041844801F072FE38BB0421824801F0C3
:104C30006DFE10BB4FF480517E4801F067FE0128E5
:104C40001BD101217C4801F061FE012815D18102B0
:104C5000784801F05BFE01280FD11021774801F060
:104C600055FE012809D18021754801F04FFE20B979
:104C70004021744801F04AFED0B34FF480516D4892
:104C800001F044FEE8B901216B4801F03FFEC0B9D4
:104C90004FF48061674801F039FE012811D11021DD
:104CA000664801F033FE01280BD18021644801F0F1
:104CB0002DFE012805D14021624801F027FE012880
:104CC00016D04FF480615B4801F020FE90B91021AE
:104CD0005A4801F01BFE68B98021594801F016FEC0
:104CE000012807D14021574801F010FE012801D1C9
:104CF000012010BD8021504801F008FE012811D18B
:104D000001214C4801F002FE01280BD120214A4824
:104D100001F0FCFD30B94FF48041454801F0F6FD4B
:104D200000287DD08021444801F0F0FDE0B9012148
:104D3000404801F0EBFDB8B920213F4801F0E6FD05
:104D4000012811D181033A4801F0E0FD01280BD17F
:104D50000821394801F0DAFD30B94FF48051344868
:104D600001F0D4FD00285BD02021334801F0CEFDB6
:104D7000E0B94FF480412E4801F0C8FDB0B90821D8
:104D80002D4801F0C3FD012810D10103284801F08E
:104D9000BDFD01280AD18103264801F0B7FD28B9DD
:104DA0000421254801F0B2FD002839D0082122480D
:104DB00001F0ACFDE0B94FF480511D4801F0A6FDB3
:104DC000B0B94FF480411B4801F0A0FD01280FD17C
:104DD0000421194801F09AFD012809D10103154861
:104DE00001F094FD20B90121134801F08FFDB8B105
:104DF0004FF480410F4801F089FD50BB04210E485B
:104E000001F084FD28BB4FF480510A4801F07EFD7B
:104E100001281ED10121084801F078FD012800E099
:104E200050E016D18102034801F070FD88B90BE013
:104E30000014024000180240000402400008024032
:104E4000000C0240000002401021F74801F05EFD16
:104E5000C0B34FF48051F54801F058FDD8B9012195
:104E6000F34801F053FDB0B94FF48061EF4801F011
:104E70004DFD01280FD11021EB4801F047FD01281D
:104E800009D18021EB4801F041FD20B94021EA48D9
:104E900001F03CFDB0B14FF48061E44801F036FD13
:104EA00090B91021E04801F031FD68B98021E14856
:104EB00001F02CFD012807D14021DF4801F026FD3B
:104EC000012801D1022014E78021D94801F01EFDFC
:104ED00001281DD10121D54801F018FD012817D165
:104EE0002021D34801F012FD012811D18103D348BC
:104EF00001F00CFD01280BD10821CD4801F006FD81
:104F0000012805D10103CD4801F000FD01287CD026
:104F10002021C74801F0FAFC01281DD18103C748B0
:104F200001F0F4FC012817D10821C14801F0EEFC82
:104F3000012811D10103C14801F0E8FC01280BD17F
:104F40008103BA4801F0E2FC012805D10421B848E8
:104F500001F0DCFC01286FD00821B54801F0D6FC37
:104F600001281DD10103B54801F0D0FC012817D15B
:104F70008103AE4801F0CAFC012811D10421AC48DC
:104F800001F0C4FC01280BD10103A84801F0BEFCCC
:104F9000012805D10121A64801F0B8FC01284BD019
:104FA0004FF48041A14801F0B1FC01281DD104213A
:104FB0009F4801F0ABFC012817D101039B4801F089
:104FC000A5FC012811D10121994801F09FFC01287D
:104FD0000BD18102954801F099FC012805D11021DF
:104FE000914801F093FC012826D04FF480518F485E
:104FF00001F08CFC012821D101218D4801F086FCB3
:1050000001281BD18102894800E015E001F07EFCF7
:10501000012813D11021844801F078FC01280DD11A
:105020008021844801F072FC012807D14021824888
:1050300001F06CFC012801D103205AE6002058E65B
:1050400010B580217A4801F061FC10BB202178481E
:1050500001F05CFCE8B90821754801F057FCC0B9C3
:105060004FF48041714801F051FC90B94FF48051E8
:105070006E4801F04BFC60B94FF480616B4801F061
:1050800045FC30B980216B4801F040FC08B9012093
:1050900010BD0020FCE710B54021674801F036FC48
:1050A00008BB1021604801F031FCE0B901216048E3
:1050B00001F02CFCB8B904215D4801F027FC90B93F
:1050C0004FF480515D4801F021FC60B94FF48041FC
:1050D0005A4801F01BFC30B90121544801F016FC7C
:1050E00008B9012010BD0020FCE770B5054600247A
:1050F00080214F4801F00AFC012801D1601CC4B294
:1051000020214B4801F002FC012801D1601CC4B2EF
:105110000821474801F0FAFB012801D1601CC4B204
:105120004FF48041414801F0F1FB012801D1601C9E
:10513000C4B24FF480513D4801F0E8FB012801D191
:10514000601CC4B24FF48061384801F0DFFB0128D5
:1051500001D1601CC4B28021364801F0D7FB012880
:1051600001D1601CC4B2AC4201DB012070BD002043
:10517000FCE710B580212F4801F0C8FB28BB4FF495
:1051800080612A4801F0C2FBF8B94FF480512748EA
:1051900001F0BCFBC8B94FF48041244801F0B6FBD4
:1051A00098B98021224801F0B1FB01280BD02021C1
:1051B0001F4801F0ABFB012805D008211C4801F075
:1051C000A5FB012801D1012010BD0020FCE710B58E
:1051D0008021174801F09AFB28BB2021144801F0D8
:1051E00095FB00BB0821124801F090FBD8B94FF4A1
:1051F00080410E4801F08AFBA8B980210D4801F0DA
:1052000085FB01280DD04FF48061084801F07EFB3A
:10521000012806D04FF48051044801F077FB0128A3
:105220000ED1012010BD0BE0000802400018024022
:1052300000040240000C0240000002400014024042
:105240000020EFE710B58021FB4801F05FFBB8B903
:105250004FF48061F94801F059FB88B98021F84882
:1052600001F054FB60B92021F54801F04FFB38B93B
:105270004FF48041F14801F049FB012800D110BDF5
:105280000020FCE710B59FEDEF2AF3EE0E1ABBEEFF
:105290000E1AFBEE0E0AB3EE0E0AFCF77BFB0120A2
:1052A00000F044FD10BD10B59FEDE62AFBEE0E1A8E
:1052B000B3EE0E1AF3EE0E0ABBEE0E0AFCF76AFB13
:1052C000012000F033FD10BD10B59FEDDE2AF3EE96
:1052D0000E1AB3EE0E1AFBEE0E0ABBEE0E0AFCF728
:1052E00059FB012000F022FD10BD10B59FEDD52A1D
:1052F000FBEE0E1ABBEE0E1AF3EE0E0AB3EE0E0A1A
:10530000FCF748FB012000F011FD10BD10B59FED2A
:10531000CD2ADFEDCC1A9FEDCB1ADFEDCA0A9FED47
:10532000C90AFCF737FB012000F000FD10BD10B5E5
:105330009FEDC42AF3EE0E1AB3EE0E1AF3EE0E0A28
:10534000B3EE0E0AFCF726FB012000F0EFFC10BDC7
:1053500010B59FEDBC2AFBEE0E1ABBEE0E1AFBEE4B
:105360000E0ABBEE0E0AFCF715FB012000F0DEFC76
:1053700010BD0020B4490870B4490870B4490870E1
:10538000B4490870B4490870B4490870704710B542
:10539000B148007860B9FFF753FE30B1FFF77BFEEC
:1053A00018B10120AC49087002E00220AA49087037
:1053B000A9480078022873D1FFF767FB01281FD1A5
:1053C000A348007801281BD10020A24908700220C0
:1053D0009F490870002410E09C480078042802D1FE
:1053E000FFF7A5FF07E099480078052802D1FFF7ED
:1053F000AFFF00E003E0601CC4B2052CECDB31E041
:10540000FFF743FB02281FD19148007801281BD1E8
:1054100000209049087002208D490870002410E097
:105420008A480078042802D1FFF781FF07E0874807
:105430000078052802D1FFF78BFF00E003E0601C35
:10544000C4B20A2CECDB0DE0FFF71FFB032809D1E7
:105450007F480078012805D100207E49087002208D
:105460007B4908707A48007850BB784800787649C4
:1054700008700220754908707648007800BB8021CA
:105480006F4801F043FA01280BD101216B4801F06C
:105490003DFA012805D16F4908706D4908701FE079
:1054A00012E1FFF7CDFD60B10121644801F02EFA51
:1054B000012806D10220674908700120644908705C
:1054C0000EE080215E4801F021FA012808D1FFF7A3
:1054D000E2FD28B103205F49087001205C49087093
:1054E0005B480078012860D15A48007801281CD117
:1054F0008103524801F00AFA50B95848007838B987
:1055000052480078504908700320504908704CE018
:1055100002204F4908704D4800784B49087001201F
:105520004A4908704D4908703FE04A48007802280F
:105530001AD14103414801F0E9F950B947480078D0
:1055400038B9424800784049087003203F49087044
:105550002BE03E4800783C49087004203B49087025
:1055600001203E49087020E03A48007803281CD109
:105570000421334801F0CAF950B93848007838B9E5
:1055800032480078304908700320304908700CE038
:105590003248007848B92D4800782B49087005201A
:1055A0002A49087001202D490870294800780228EE
:1055B0003CD1FFF747FE38B12448007822490870F3
:1055C00001202249087014E0FFF701FE38B11F489E
:1055D00000781D49087002201C49087009E0FFF797
:1055E000C8FD30B1194800781749087003201749E1
:1055F000087016480078012818D11348007802284E
:1056000008D1002403E0FFF75FFE601CC4B20A2C3F
:10561000F9DB0BE00C480078032807D1002403E0F5
:10562000FFF763FE601CC4B20A2CF9DB0748007860
:1056300006282CD214E00000000C024000180240A2
:1056400000040240000000002D0000202C0000207B
:105650002E000020300000202F000020310000200C
:10566000DFE800F00C0306090F12FFF70BFE12E053
:10567000FFF72AFE0FE0FFF738FE0CE0FFF746FECB
:1056800009E0FFF754FE06E0FFF762FE03E00A20A0
:1056900000F04CFB00BF00BF0620FFF726FD88B1DD
:1056A000CB48007802280DD1FFF730FE0020C94911
:1056B0000870C94908700A20C5490870C7490870B0
:1056C000012010BD0020FCE7C5480078012807D064
:1056D000C3480078022803D0C1480078032873D15A
:1056E000FFF7D3F901281FD1B948007801281BD151
:1056F0000020BA4908700220B5490870002410E063
:10570000B4480078042802D1FFF711FE07E0B14841
:105710000078052802D1FFF71BFE00E003E0601CC3
:10572000C4B2052CECDB31E0FFF7AFF902281FD142
:10573000A748007801281BD10020A8490870022042
:10574000A3490870002410E0A2480078042802D180
:10575000FFF7EDFD07E09F480078052802D1FFF72D
:10576000F7FD00E003E0601CC4B20A2CECDB0DE0A6
:10577000FFF78BF9032809D195480078012805D156
:1057800000209649087002209149087090480078DE
:1057900050BB904800789049087002208D490870ED
:1057A0008E48007800BB80218E4801F0AFF80128B8
:1057B0000BD101218C4801F0A9F8012805D18749B6
:1057C0000870834908701FE0FDE0FFF764FC60B1DA
:1057D0008021864801F09AF8012806D102207F49ED
:1057E000087001207A4908700EE04021804801F0DD
:1057F0008DF8012808D1FFF723FC28B10320774951
:10580000087001207249087071480078012861D140
:105810007248007801281CD18103734801F076F8A2
:1058200050B97448007838B96A4800786A490870F5
:105830000220684908704DE00220654908706548FB
:10584000007865490870012062490870694908704C
:1058500040E06248007802281AD10821614801F02E
:1058600055F850B96348007838B95A4800785A4911
:1058700008700220574908702CE0564800785649B5
:10588000087004205349087001205A49087021E02B
:105890005248007803281DD14FF48051564801F03A
:1058A00035F850B95348007838B94A4800784A4921
:1058B00008700220474908700CE04E48007848B94B
:1058C0004448007844490870052042490870012086
:1058D000484908703E48007802283CD1FFF7B2FCE6
:1058E00038B13C4800783C490870012039490870BB
:1058F00014E0FFF76CFC38B1364800783649087080
:1059000002203449087009E0FFF733FC30B1314818
:1059100000783149087003202E4908702D4800781E
:10592000012818D12C480078022808D1002403E06F
:10593000FFF7CAFC601CC4B20A2CF9DB0BE0264856
:105940000078032807D1002403E0FFF7CEFC601C99
:10595000C4B20A2CF9DB1F480078062816D2DFE80B
:1059600000F00C0306090F12FFF78CFC12E0FFF7A2
:10597000ABFC0FE0FFF7B9FC0CE0FFF7C7FC09E058
:10598000FFF7D5FC06E0FFF7E3FC03E00A2000F098
:10599000CDF900BF00BF0620FFF7A7FB88B10C4878
:1059A000007802280DD1FFF7B1FC002009490870EA
:1059B000094908700A200649087008490870012042
:1059C0007FE600207DE602200549087000BF78E6EA
:1059D0002E0000202C0000202D0000203000002090
:1059E0002F0000200004024000180240000C02407A
:1059F0000000024031000020001402402DE9FE4F5B
:105A000000200090019002904FF006090026934F6D
:105A100000258046002482469149086013E09FEDEE
:105A2000912ADFED901A9FED8F1ADFED8E0A9FED20
:105A30008D0AFBF7AFFF022000F078F98848006874
:105A4000401C87490860864800681428E7DB2EE080
:105A50006D1C022D00D82AE04FF4FA7000F01EF9F8
:105A60009FED802ADFED7F1A9FED7E1ADFED7D0A24
:105A70009FED7C0AFBF78EFF6946002000F0CCFA10
:105A8000009880440098B04200D9009E0098B84227
:105A900000D2009F9FED732ADFED721A9FED711AFD
:105AA000DFED700A9FED6F0AFBF774FF00BF4D45F5
:105AB000CED9A8EB0600C01B0321B0FBF1F440F2E5
:105AC0008A20844201D34FF0000AB4F5D47F04D970
:105AD000B4F5F57F01D84FF0010AB4F5B47F04D3D3
