:020000040800F2
:10000000400B0020B15C0008E1040008E304000894
:10001000E7040008EB040008EF04000800000000FB
:10002000000000000000000000000000F3040008D1
:10003000F504000800000000F7040008F9040008B7
:10004000CB5C0008CB5C0008CB5C0008CB5C0008F4
:10005000CB5C0008CB5C0008CB5C0008CB5C0008E4
:10006000CB5C0008CB5C0008CB5C0008CB5C0008D4
:10007000CB5C0008CB5C0008CB5C0008CB5C0008C4
:10008000CB5C0008CB5C0008CB5C000825080008AE
:100090003B080008CB5C0008CB5C0008CB5C000888
:1000A000CB5C0008CB5C0008CB5C0008CB5C000894
:1000B000CB5C0008CB5C0008CB5C0008CB5C000884
:1000C000CB5C0008CB5C0008CB5C0008CB5C000874
:1000D000CB5C0008775B0008495C0008F15B000816
:1000E000CB5C0008CB5C0008CB5C0008CB5C000854
:1000F000CB5C0008CB5C0008CB5C0008CB5C000844
:10010000CB5C0008CB5C0008CB5C0008CB5C000833
:10011000CB5C0008CB5C0008CB5C0008CB5C000823
:10012000CB5C0008CB5C0008CB5C0008CB5C000813
:10013000CB5C0008CB5C0008CB5C0008CB5C000803
:10014000CB5C0008CB5C0008CB5C0008CB5C0008F3
:10015000CB5C0008CB5C0008CB5C0008715C00083D
:10016000CB5C0008CB5C0008CB5C0008CB5C0008D3
:10017000CB5C0008CB5C0008CB5C0008CB5C0008C3
:10018000CB5C0008CB5C000800F002F800F03CF803
:100190000AA090E8000C82448344AAF10107DA45E2
:1001A00001D100F031F8AFF2090EBAE80F0013F0F8
:1001B000010F18BFFB1A43F001031847B496000063
:1001C000D4960000103A24BF78C878C1FAD85207F4
:1001D00024BF30C830C144BF04680C6070470000C1
:1001E0000023002400250026103A28BF78C1FBD840
:1001F000520728BF30C148BF0B6070471FB509F0D8
:100200009CFA1FBD10B510BD08F018F81146FFF795
:10021000F5FF00F06CF808F036F803B4FFF7F2FFD2
:1002200003BC05F0EDF80000014600220020A34BBE
:1002300018600AE0A248A14B1B6850F82300024452
:100240009E480068401C9D4B18609C48006803282D
:10025000F0DB022A15D10020984B18600DE0984879
:10026000964B1B6850F8230010B9944800687047FB
:1002700092480068401C914B186090480068032821
:10028000EDDB012A13D1012907D18D4840680128EF
:1002900001D10020EBE70120E9E7022907D18848D6
:1002A0000068012801D10220E1E70020DFE73AB928
:1002B000012901D10120DAE7022901D10020D6E786
:1002C00000BFD4E77F488068002801DD0120704727
:1002D0007C480068002801DD0020F8E779480069C3
:1002E000002801DD0220F2E74FF0FF30EFE72DEDAF
:1002F000048B00BF00BF4FF4E13005F08EF84FF4DF
:10030000E13005F02FF94FF4E13005F0D8F84FF463
:10031000E13005F079F9A82004F0F0FF4FF4A06077
:1003200005F0E6FC04F0B6F804F0CAF800F0E0FDD1
:1003300001F0A0F800F0EAF904F08CFE04F04DF8AA
:100340000025002060490860DFED600A9FED600A2B
:1003500002F0A0FAB0EE408ADFED5C0A9FED5C0A85
:1003600002F0D4FAF0EE408AF0EE481AB0EE681AC5
:10037000DFED570A9FED560A01F0A8FB022005F0B9
:100380001FF8052499E0022C04D0042C0AD0052C77
:100390007ED17FE004F06AFE054615B104F05AFEF6
:1003A000052489E09FED4B0A02F01AFADFED4A0AB4
:1003B0009FED470A02F06EFAB0EE408ADFED460A82
:1003C0009FED430A02F0A2FAF0EE408AF0EE481ADE
:1003D000B0EE681ADFED3E0A9FED3D0A01F076FBB4
:1003E000DFED3D0A9FED3D0A02F054FAB0EE408A7F
:1003F000DFED390A9FED390A02F088FAF0EE408A03
:10040000DFED350A9FED320A02F044FAB0EE409A71
:10041000DFED310A9FED2E0A02F078FAF0EE409AF5
:10042000F0EE481AB0EE681AF0EE490A01F04EFB01
:10043000DFED270A9FED290A02F02CFAB0EE408A80
:10044000DFED230A9FED250A02F060FAF0EE408A04
:10045000DFED210A9FED210A02F01CFAB0EE409A6E
:10046000DFED1D0A9FED1D0A02F050FAF0EE409AF2
:10047000F0EE481AB0EE681AF0EE490A01F026FBD9
:100480009FED130A02F0ACF903F0A7FF052400E08A
:1004900010E000BF9FED0E2ADFED0D1A9FED0C1A44
:1004A000DFED0B0A9FED0A0A01F0DCF9012004F0F0
:1004B00087FF00BF052400BF00BF64E710000020D5
:1004C0006C000020540000200C00002000007A4343
:1004D000000000000000B4C300004843000096C3C1
:1004E000704700BFFEE700BFFEE700BFFEE700BFAA
:1004F000FEE7704770477047704700000CB500205A
:10050000019000907648006840F48030744908609B
:1005100000BF7348006800F4003000900198401C50
:100520000190009818B90198B0F5A04FF1D16C482E
:10053000006800F4003010B10120009001E00020BC
:1005400000900098012846D165484030006840F08E
:1005500080506349403108606248006840F4404080
:10056000604908605E48083000685D4908310860ED
:100570000846006840F4004008600846006840F4FF
:10058000A05008605848091F0860081F006840F024
:100590008070091F086000BF5148006800F00070BB
:1005A0000028F9D040F20570504908604C480830E6
:1005B000006820F003004A490831086008460068D6
:1005C00040F00200086000BF45480830006800F0B5
:1005D0000C000828F8D10CBD10B54548006840F45F
:1005E0007000434908603E48006840F001003C4903
:1005F000086000203A4908310860394800683D49E0
:100600000840374908603C48091D0860081F006819
:1006100020F48020091F0860002031490C31086057
:10062000FFF76CFF4FF0006031498039086010BD62
:1006300070B500200022022300240221284D083535
:100640002D6805F00C0020B1042806D0082834D10C
:1006500007E02A4D2A4E356033E02A4D284E35609A
:100660002FE01F4D2D1D2D68C5F380541C4D2D1DF1
:100670002D6805F03F0154B1224DB5FBF1F5184E40
:10068000361D3668C6F3881605FB06F209E01B4DD9
:10069000B5FBF1F5124E361D3668C6F3881605FB1C
:1006A00006F20F4D2D1D2D68C5F301456D1C6B0025
:1006B000B2FBF3F5124E356003E0104D104E35607D
:1006C00000BF00BF064D08352D68C5F303150E4E5B
:1006D000705D0B4D2D68C540094E356070BD000042
:1006E000003802400070004008544007003C0240BF
:1006F00088ED00E0FFFFF6FE103000240024F40037
:100700001400002000127A001800002000B58BB001
:100710000121084605F080FE0121480605F0C5FECE
:100720004FF4C050099002208DF8280000208DF869
:100730002A0003208DF8290001208DF82B0009A93B
:10074000FE4805F0CBFB09220B21FC4805F051FCCB
:1007500009220C21F94805F04CFCF94806F0DAF9B9
:1007600006A806F0FBFA00208DF81E008DF81F0089
:100770008DF8200001208DF8210000208DF8220046
:100780008DF823008DF81A008DF81B0008208DF8D5
:100790001C0003208DF81D00ADF8180006A9E848DC
:1007A00006F0D1F900208DF812008DF81300012019
:1007B0008DF814000020ADF80800ADF80A00ADF87F
:1007C0000C00ADF80E00ADF8100001208DF81500FA
:1007D00002A806F042FA01220221D94806F03CFDA7
:1007E00001221146D64806F037FD14208DF804008A
:1007F00002208DF8050001208DF806008DF8070015
:1008000001A805F07AFA13208DF8040001208DF874
:1008100005008DF806008DF8070001A805F06DFAB7
:100820000BB000BD10B50121C54806F07DFD18B123
:100830000121C34806F013FE10BD00B52DED048B59
:1008400093B00EAA0021BE4806F0EBFB40F2012156
:100850000E9888427ED10EA8017CC07B41EA002020
:1008600000B200EE100AB8EEC00AB64880ED050AE4
:100870000EA8827B407B42EA002000B200EE100A04
:10088000B8EEC00A10EE101A084608F0E5FE41EC7A
:10089000190B9FEDAD0B53EC102B08F0FBFA41EC5C
:1008A000180B08F011FA00EE100AA64880ED030AB2
:1008B000008B68B9A348408B50B90EA8007B9DF807
:1008C000431040EA012000B29E49488308830CE0AF
:1008D0009C48408B9B4908830EA8007B9DF84310E1
:1008E00040EA012000B297494883964890ED000AFB
:1008F0008DED050A90ED010A8DED060A90ED020AD4
:100900008DED070A90ED030A8DED080A90ED040ABB
:100910008DED090A90ED050A8DED0A0A008BADF800
:100920002C008848408BADF82E008648C0690C909A
:10093000844890F820008DF83400142209A96846F4
:1009400007F032FC05A80FC800F09CFA7D48D0EDF6
:10095000010A00E004E030EE200A80ED010A33E2F3
:1009600040F202210E9888427ED10EA8017CC07B05
:1009700041EA002000B200EE100AB8EEC00A744846
:1009800080ED050A0EA8827B407B42EA002000B27F
:1009900000EE100AB8EEC00A10EE101A084608F071
:1009A0005BFE41EC190B9FED680B53EC102B08F02C
:1009B00071FA41EC180B08F087F900EE100A644850
:1009C00080ED030A008B68B96148408B50B90EA8CE
:1009D000007B9DF8431040EA012000B25C49488347
:1009E00008830CE05A48408B594908830EA8007BC5
:1009F0009DF8431040EA012000B25549488354480D
:100A000090ED000A8DED050A90ED010A8DED060AC4
:100A100090ED020A8DED070A90ED030A8DED080AAC
:100A200090ED040A8DED090A90ED050A8DED0A0A94
:100A3000008BADF82C004648408BADF82E004448A2
:100A4000C0690C90424890F820008DF834001422C0
:100A500009A9684607F0A8FB05A80FC800F012FA1C
:100A60003B48D0ED010A00E004E030EE200A80EDC2
:100A7000010AA9E140F203210E9888425DD10EA837
:100A8000017CC07B41EA002000B200EE100AB8EE03
:100A9000C00A304880ED050A0EA8827B407B42EAFE
:100AA000002000B200EE100AB8EEC00A10EE101AD4
:100AB000084608F0D1FD41EC190B9FED230B53ECD8
:100AC000102B08F0E7F941EC180B08F0FDF800EEE8
:100AD000100A204880ED030A008B68B91D48408B3E
:100AE00050B90EA8007B9DF8431040EA012000B2E7
:100AF0001849488308830CE01648408B1549088341
:100B00000EA8007B9DF8431040EA012000B2114975
:100B10004883104890ED000A8DED050A90ED010A1A
:100B20008DED060A90ED020A8DED070A90ED030A9D
:100B30008DED080A90ED040A0EE033E0000002405B
:100B400000640040780000200000000000003340F6
:100B50009C000020C00000208DED090A90ED050AE0
:100B60008DED0A0A008BADF82C00BD48408BADF826
:100B70002E00BB48C0690C90B94890F820008DF851
:100B80003400142209A9684607F00EFB05A80FC817
:100B900000F078F9B248D0ED010A30EE200A80ED7D
:100BA000010A11E10E98B0F5017F7CD10EA8017CFD
:100BB000C07B41EA002000B200EE100AB8EEC00A85
:100BC000A84880ED050A0EA8827B407B42EA0020FF
:100BD00000B200EE100AB8EEC00A10EE101A084675
:100BE00008F03AFD41EC190B1FED290B53EC102BCB
:100BF00008F050F941EC180B08F066F800EE100A06
:100C0000984880ED030A008B68B99648408B50B92C
:100C10000EA8007B9DF8431040EA012000B29149E4
:100C2000488308830CE08F48408B8E4908830EA8C8
:100C3000007B9DF8431040EA012000B289494883B7
:100C4000884890ED000A8DED050A90ED010A8DEDC2
:100C5000060A90ED020A8DED070A90ED030A8DED6C
:100C6000080A90ED040A8DED090A90ED050A8DED54
:100C70000A0A008BADF82C007A48408BADF82E00A4
:100C80007848C0690C90774890F820008DF83400BF
:100C9000142209A9684607F087FA05A80FC800F0D2
:100CA000F1F8704800E006E0D0ED010A30EE200ACD
:100CB00080ED010A88E040F205210E9888427CD13F
:100CC0000EA8017CC07B41EA002000B200EE100AB1
:100CD000B8EEC00A644880ED050A0EA8827B407B0E
:100CE00042EA002000B200EE100AB8EEC00A10EE90
:100CF000101A084608F0B0FC41EC190B1FED6E0B02
:100D000053EC102B08F0C6F841EC180B07F0DCFF91
:100D100000EE100A544880ED030A008B68B952486F
:100D2000408B50B90EA8007B9DF8431040EA01208B
:100D300000B24D49488308830CE04B48408B4A4938
:100D400008830EA8007B9DF8431040EA012000B202
:100D500045494883444890ED000A8DED050A90ED21
:100D6000010A8DED060A90ED020A8DED070A90ED5D
:100D7000030A8DED080A90ED040A8DED090A90ED45
:100D8000050A8DED0A0A008BADF82C003648408B21
:100D9000ADF82E003448C0690C90334890F820001C
:100DA0008DF83400142209A9684607F0FDF905A85A
:100DB0000FC800F067F82C4800E005E0D0ED010A0C
:100DC00030EE200A80ED010A13B0BDEC048B00BDAB
:100DD000F0B585B004460D4616461F4600208DF836
:100DE00008008DF8090008208DF80A0080010090A5
:100DF000200A8DF80B00E1B28DF80C10290A8DF84D
:100E00000D10E9B28DF80E10310A8DF80F10F1B205
:100E10008DF81010390A8DF81110F9B28DF81210F2
:100E20006946124806F008F805B0F0BD10B586B066
:100E3000044600208DF80C008DF80D0002208DF87E
:100E40000E0040F2FF100190200A8DF80F008DF87F
:100E5000104001A9054805F0EFFF06B010BD0000E5
:100E6000C0000020E40000200801002000640040D1
:100E7000B5EEC00AF1EE10FA03D2F1EE400AB0EE80
:100E8000600A70470FB400B5BDF91E00BDF91C1013
:100E9000401A01EE100AB8EEC10AFFF7E9FFDFEDD4
:100EA000FE0AB4EEE00AF1EE10FA11DDB8EEC10A66
:100EB000FFF7DEFFF8EEC11AC1EE800AB8EEC10AF4
:100EC000DFEDF61A00EEE10ABDEEC00AB0EE401A00
:100ED000B8EEC10ADFEDF20A20EE200AF3EE031AA3
:100EE000C0EE210ADFEDED1A80EEA10A5DF814FBD9
:100EF0009FEDEC0AEC4880ED010A9FEDEA0AEB4811
:100F000080ED010A9FEDE70AE94880ED010A9FEDB7
:100F1000E50AE84880ED010A9FEDE20AE64880ED27
:100F2000010A0120E04981F82000E04981F8200011
:100F3000DF4981F82000DF4981F82000DE4981F88F
:100F400020009FEDD80AD84880ED020A9FEDD50A0F
:100F5000D64880ED020A9FEDD30AD54880ED020AFB
:100F60009FEDD00AD34880ED020A9FEDCE0A0846D5
:100F700080ED020A70479FEDD10AD14880ED000A4A
:100F80009FEDD00A80ED010A9FEDC60A80ED020AAE
:100F90009FEDCD0A80ED030A9FEDCC0A80ED040A97
:100FA0009FEDC00A80ED050A9FEDBE0A80ED060A9E
:100FB0000020C349C8619FEDC10AC54880ED000A01
:100FC0009FEDC00A80ED010A9FEDB60A80ED020A8E
:100FD0009FEDBD0A80ED030A9FEDBC0A80ED040A77
:100FE0009FEDB00A80ED050A9FEDAE0A80ED060A7E
:100FF0000020B749C8619FEDB10AB64880ED000AEC
:101000009FEDB00A80ED010A9FEDA60A80ED020A6D
:101010009FEDAD0A80ED030A9FEDAC0A80ED040A56
:101020009FEDA00A80ED050A9FED9E0A80ED060A5D
:101030000020A849C8619FEDA10AA74880ED000AD9
:101040009FEDA00A80ED010A9FED960A80ED020A4D
:101050009FED9D0A80ED030A9FED9C0A80ED040A36
:101060009FED900A80ED050A9FED8E0A80ED060A3D
:1010700000209949C8619FED910A984880ED000AC7
:101080009FED900A80ED010A9FED860A80ED020A2D
:101090009FED8D0A80ED030A9FED8C0A80ED040A16
:1010A0009FED800A80ED050A9FED7E0A80ED060A1D
:1010B00000208A49C86170479FED890A894880ED00
:1010C000000AB1EE040A80ED010A9FED760A80ED78
:1010D000020A9FED7D0A80ED030A9FED830A80EDF1
:1010E000040A9FED700A80ED050A9FED6E0A80EDFF
:1010F000060A00207B49C8619FED7C0A084680ED06
:10110000090A9FED7B0A80ED080A9FED750A794870
:1011100080ED000AB1EE040A80ED010A9FED610A3C
:1011200080ED020A9FED680A80ED030A9FED6E0ACA
:1011300080ED040A9FED5B0A80ED050A9FED590AD8
:1011400080ED060A00206B49C8619FED680A0846D9
:1011500080ED090A9FED660A80ED080A9FED600A9E
:10116000654880ED000AB1EE040A80ED010A9FEDAA
:101170004D0A80ED020A9FED540A80ED030A9FEDAF
:101180005A0A80ED040A9FED470A80ED050A9FED9B
:10119000450A80ED060A00205749C8619FED530AB1
:1011A000084680ED090A9FED520A80ED080A9FED7E
:1011B0004C0A524880ED000AB1EE040A80ED010AA3
:1011C0009FED380A80ED020A9FED3F0A80ED030A89
:1011D0009FED450A80ED040A9FED320A80ED050A75
:1011E0009FED300A80ED060A00204449C8619FED5A
:1011F0003F0A084680ED090A9FED3D0A80ED080A86
:101200009FED3F0A3F4880ED000AB1EE040A80EDF1
:10121000010A9FED240A80ED020A9FED2B0A80ED62
:10122000030A9FED310A80ED040A9FED1E0A80ED4E
:10123000050A9FED1C0A80ED060A00203149C861AD
:101240009FED2A0A084680ED090A9FED290A80EDE4
:10125000080A70479FED2C0A2C4880ED000A9FED8C
:10126000110A80ED010A9FED2A0A80ED020A9FED26
:10127000160A80ED030A9FED270A80ED040A9FED10
:10128000090A80ED050A9FED070A80ED060A002095
:101290001E49C86140E0000000007A450000004699
:1012A0000000B44300000000780000209C000020F3
:1012B000C0000020E4000020080100206666A63F70
:1012C0007C0100208FC2F53C00007A4600806D450D
:1012D000F40100206C020020E40200205C030020E6
:1012E00000007A435401002000409C4500007A44ED
:1012F0000000C843CC01002044020020BC020020B2
:1013000000005C433403002085EBD13E2C0100201B
:1013100017B7D1380000FA44B3EE040A084680ED4E
:10132000090A9FEDFB0A80ED080A1FED090AF9483A
:1013300080ED000A1FED250A80ED010A1FED0C0A61
:1013400080ED020A1FED200A80ED030A1FED0F0A4F
:1013500080ED040A1FED2D0A80ED050A1FED2F0A0E
:1013600080ED060A0020EB49C861B3EE040A084686
:1013700080ED090A9FEDE60A80ED080A1FED1E0ABE
:10138000E54880ED000A1FED390A80ED010A1FEDE6
:10139000200A80ED020A1FED340A80ED030A1FEDDA
:1013A000230A80ED040A1FED410A80ED050A1FEDB6
:1013B000430A80ED060A0020D749C861B3EE040A4B
:1013C000084680ED090A9FEDD20A80ED080A1FED5C
:1013D000320AD24880ED000A1FED4E0A80ED010A64
:1013E0001FED350A80ED020A1FED490A80ED030A60
:1013F0001FED380A80ED040A1FED560A80ED050A3C
:101400001FED580A80ED060A0020C449C861B3EEFA
:10141000040A084680ED090A9FEDBD0A80ED080A1E
:10142000B7EE000ABE4880ED000A1FED620A80EDAB
:10143000010A9FEDBC0A80ED020A1FED5D0A80EDF6
:10144000030A1FED4C0A80ED040A1FED6A0A80EDC5
:10145000050A1FED6C0A80ED060A0020B049C8613C
:10146000B3EE040A084680ED090A9FEDA90A80ED53
:10147000080A704700B5FFF77EFDFFF71DFEFFF776
:10148000E9FE00BD00B5B0EE403AF0EE603A33EE52
:10149000630AB0EE401AC169012914D1B0EE410AC5
:1014A000FFF7E6FCD0ED090AB4EEE00AF1EE10FA1F
:1014B00004DB90ED080A60EE011A08E090ED000AE6
:1014C00060EE011A03E090ED000A60EE011A90ED63
:1014D000010A20EE015A90ED050A30EE052A90ED42
:1014E000040AB4EEC20AF1EE10FA04D290ED040A36
:1014F00080ED050A15E090ED040AFFEE000A20EEEB
:10150000200AB4EEC20AF1EE10FA08DD90ED040AEA
:10151000FFEE000A20EE200A80ED050A01E080EDD2
:10152000052A90ED060A31EE404A90ED020A60EE7F
:10153000044A80ED061A90ED050A30EE210A70EE9D
:10154000242A90ED030AB4EEE20AF1EE10FA02D872
:1015500090ED030A00BD90ED030AFFEE000A20EEB5
:10156000200AB4EEE20AF1EE10FA06DD90ED030A6D
:10157000FFEE000A20EE200AECE7B0EE620AE9E78F
:1015800010B5694890F82000012814D0022802D034
:10159000052833D11FE0644890ED011AF0EE410AAE
:1015A00090ED001AB0EE410A6048FFF76BFF5E480D
:1015B00080ED020A00BF5C4890ED031AF0EE410A8C
:1015C00090ED021AB0EE410A5948FFF75BFF56480A
:1015D00080ED040A00BF544890ED051AF0EE410A70
:1015E00090ED041AB0EE410A5248FFF74BFFBDEEF2
:1015F000C00A10EE100A4C49C86100E000BF00BFED
:101600004D4890F82000012814D0022802D0052867
:1016100033D11FE0484890ED011AF0EE410A90EDF9
:10162000001AB0EE410A3B48FFF72CFF424880ED1C
:10163000020A00BF404890ED031AF0EE410A90ED17
:10164000021AB0EE410A3D48FFF71CFF3A4880ED10
:10165000040A00BF384890ED051AF0EE410A90EDFB
:10166000041AB0EE410A3648FFF70CFFBDEEC00A7F
:1016700010EE100A3049C86100E000BF00BF3148D9
:1016800090F82000012814D0022802D0052833D178
:101690001FE02C4890ED011AF0EE410A90ED001A7F
:1016A000B0EE410A1C48FFF7EDFE264880ED020A25
:1016B00000BF244890ED031AF0EE410A90ED021AA3
:1016C000B0EE410A2048FFF7DDFE1E4880ED040A17
:1016D00000BF1C4890ED051AF0EE410A90ED041A87
:1016E000B0EE410A1948FFF7CDFEBDEEC00A10EE7C
:1016F000100A1449C86100E000BF00BF144890F808
:101700002000012836D0022824D0052855D141E0F8
:1017100000004842A40100201C0200209402002086
:101720000C0300200AD7233C780000202C01002065
:10173000540100207C0100209C000020CC010020EE
:10174000F4010020C0000020440200206C020020B0
:10175000E40000208D4890ED011AF0EE410A90ED72
:10176000001AB0EE410A8A48FFF78CFE874880EDE8
:10177000020A00BF854890ED031AF0EE410A90ED91
:10178000021AB0EE410A8348FFF77CFE7F4880EDE5
:10179000040A00BF7D4890ED051AF0EE410A90ED75
:1017A000041AB0EE410A7C48FFF76CFEBDEEC00A99
:1017B00010EE100A7549C86100E000BF00BF77480D
:1017C00090F82000012814D0022802D0052833D137
:1017D0001FE0724890ED011AF0EE410A90ED001AF8
:1017E000B0EE410A6E48FFF74DFE6C4880ED020AEC
:1017F00000BF6A4890ED031AF0EE410A90ED021A1C
:10180000B0EE410A6748FFF73DFE644880ED040AE8
:1018100000BF624890ED051AF0EE410A90ED041AFF
:10182000B0EE410A6048FFF72DFEBDEEC00A10EE93
:10183000100A5A49C86100E000BF00BF534CE46978
:1018400023B25A4CE46922B2594CE46921B2594C92
:10185000E46920B2FFF7BCFA5049C96908B2FFF742
:10186000E5FA10BD10B52DED068BB0EE40AAB0EE36
:10187000608AF0EE418AB0EE619AF0EE429A012061
:101880004C4981F820004A4981F82000474981F8F5
:1018900020003E4981F82000404981F82000454859
:1018A00080ED02AA424880ED028A4048C0ED028ADB
:1018B000364880ED029A0846C0ED029AFFF760FEB6
:1018C000BDEC068B10BD10B52DED068BB0EE40AA19
:1018D000B0EE608AF0EE418AB0EE619AF0EE429A84
:1018E0000520344981F82000314981F820002F4932
:1018F00081F82000254981F82000284981F820003E
:101900002C4880ED00AA2A4880ED008A2748C0EDC7
:10191000008A1E4880ED009A0846C0ED009AFFF745
:101920002FFEBDEC068B10BD10B52DED068BB0EE75
:1019300040AAB0EE608AF0EE418AB0EE619AF0EE15
:10194000429A02201B4981F82000194981F82000A1
:10195000164981F820000D4981F820000F4981F8CF
:101960002000144880ED00AA114880ED008A0F483D
:10197000C0ED008A054880ED009A0846C0ED009A47
:10198000FFF7FEFDBDEC068B10BD0000E40000205B
:1019900094020020BC020020E40200200801002084
:1019A0000C030020340300205C030020C000002052
:1019B0009C00002078000020B5EEC00AF1EE10FA7D
:1019C00001D100207047B5EEC00AF1EE10FA01DD3A
:1019D0000120F7E74FF0FF30F4E702466FF0020115
:1019E000FE48D0ED012AFE4890ED003A72EEC32A7F
:1019F000FC4890ED003A72EEC32AF0EE620AFA4813
:101A0000D0ED012AF64890ED013A72EEC32AF5486E
:101A100090ED013A72EEC32AB0EE622AF348D0ED9F
:101A2000012AEF4890ED023A72EEC32AED4890ED9C
:101A3000023A72EEC32AB0EE621AED48D0ED012AE6
:101A4000E74890ED033A72EEC32AE64890ED033A78
:101A500072EEC32AF0EE621AF4EEC00AF1EE10FA4A
:101A600007D2F1EE402AF4EEE20AF1EE10FA00DDC0
:101A7000491CB4EEC02AF1EE10FA07D2F1EE402A6A
:101A8000B4EEE22AF1EE10FA00DD491CB4EEC01A01
:101A9000F1EE10FA07D2F1EE402AB4EEE21AF1EEBE
:101AA00010FA00DD491CF4EEC01AF1EE10FA07D26C
:101AB000F1EE402AF4EEE21AF1EE10FA00DD491CD4
:101AC000914201DD012070470020FCE700B52DEDBB
:101AD000040B99B09DED1B0ADDED190A30EE600A8A
:101AE000DFEDC40A20EE200A8DED120A9DED1C0ADE
:101AF000DDED1A0A30EE600ADFEDBE0A20EE200AA4
:101B00008DED110A9FEDBC0A8DED100AB34890EDE2
:101B1000010AB34880ED000AB34890ED010AB048CD
:101B200080ED010AB14890ED010AAD4880ED020A4E
:101B3000AF4890ED010AAA4880ED030A9DED120A14
:101B40009FEDAE1AC0EE010A9FEDAD0A20EE800AAD
:101B5000A44880ED000A9DED110AB1EE400A9FED08
:101B6000A71AC0EE010A9FEDA60A20EE800A80EDBA
:101B7000010A90ED000AB1EE400A80ED020A90EDF4
:101B8000010AB1EE400A80ED030A00209D49086079
:101B900023E094489B49096800EB810090ED000A1E
:101BA000B5EEC00AF1EE10FA09D29FED970A13A81C
:101BB0009449096800EB810080ED000A08E09FED80
:101BC000930A13A88F49096800EB810080ED000A91
:101BD0008C480068401C8B4908608A4800680428CB
:101BE000D7DB00BF9DED100ADFED880AB4EEE00AF6
:101BF000F1EE10FA7DD2119807F02EFDCDE900012B
:101C00009DED000B06F0C4FB8DED040B129807F060
:101C100023FDCDE900019DED000B06F0B9FB8DED34
:101C2000020B9DED040B53EC102B9DED020B51ECC0
:101C3000100B07F07BF8CDE90801119807F00CFDB7
:101C4000CDE900019DED000B06F0A2FB8DED040B2C
:101C50009DED160A8DED000A9DED000AFFF7ACFE22
:101C600000EE100AF8EEC00A9DED100A20EE800A80
:101C70008DED010A019807F0EFFCCDE902019DED21
:101C8000040B53EC102B9DED020B51EC100B07F0E5
:101C9000EFFACDE906019DED080B53EC102B9DEDFD
:101CA000060B51EC100B07F0F5F8CDE90A019DED9C
:101CB0000A0B51EC100B07F007F80F90119807F082
:101CC000CBFCCDE900019DED000B06F061FB8DED35
:101CD000040B129807F0C0FCCDE900019DED000B4C
:101CE00006F056FB8DED020B9DED040B53EC102B13
:101CF00000E03FE19DED020B51EC100B07F016F8F0
:101D0000CDE90801129807F0A7FCCDE900019DED8F
:101D1000000B06F03DFB8DED040B9DED150A8DEDDE
:101D2000000A9DED000AFFF747FE00EE100AF8EEEC
:101D3000C00A9DED100A20EE800A8DED010A01987F
:101D400007F08AFCCDE902019DED040B53EC102B4A
:101D50009DED020B51EC100B07F08AFACDE906015C
:101D60009DED080B53EC102B9DED060B51EC100B69
:101D700007F090F8CDE90A019DED0A0B51EC100B2C
:101D800006F0A2FF0E90119807F066FCCDE9000165
:101D90009DED000B06F0FCFA8DED040B129807F098
:101DA0005BFCCDE900019DED000B06F0F1FA8DED35
:101DB000020B9DED040B53EC102B9DED020B51EC2F
:101DC000100B06F0B3FFCDE90801119807F044FCB1
:101DD000CDE900019DED000B1AE000007800002025
:101DE000A4030020900300209C000020C0000020DD
:101DF000E40000206666863F00000000959E6B436D
:101E00000000B44328000020000096C30000964361
:101E100006F0BEFA8DED040B9DED140A8DED000A5F
:101E20009DED000AFFF7C8FD00EE100AF8EEC00AAB
:101E30009DED100A20EE800A8DED010A019807F051
:101E40000BFCCDE902019DED040B53EC102B9DED35
:101E5000020B51EC100B07F00BFACDE906019DEDDA
:101E6000080B53EC102B9DED060B51EC100B07F0FB
:101E700011F8CDE90A019DED0A0B51EC100B06F0AB
:101E800023FF0D90119807F0E7FBCDE900019DEDD0
:101E9000000B06F07DFA8DED040B129807F0DCFBC9
:101EA000CDE900019DED000B06F072FA8DED020BFD
:101EB0009DED040B53EC102B9DED020B51EC100B20
:101EC00006F034FFCDE90801129807F0C5FBCDE913
:101ED00000019DED000B06F05BFA8DED040B9DED0E
:101EE000130A8DED000A9DED000AFFF765FD00EE77
:101EF000100AF8EEC00A9DED100A20EE800A8DED62
:101F0000010A019807F0A8FBCDE902019DED040B41
:101F100053EC102B9DED020B51EC100B07F0A8F9C0
:101F2000CDE906019DED080B53EC102B9DED060B42
:101F300051EC100B06F0AEFFCDE90A019DED0A0B46
:101F400051EC100B06F0C0FE1FED552A0C90DDED94
:101F50000F1A9DED0E1ADDED0D0A9DED0C0AFFF72F
:101F600081FC9DED100ADFEDFE0A30EE200A8DEDBA
:101F7000100A53E1119807F06FFBCDE900019DEDC8
:101F8000000B06F005FA8DED040B129807F064FBC8
:101F9000CDE900019DED000B06F0FAF98DED020B85
:101FA0009DED040B53EC102B9DED020B51EC100B2F
:101FB00006F0BCFECDE90801119807F04DFBCDE914
:101FC00000019DED000B06F0E3F98DED040B169872
:101FD000019007F041FBCDE902019DED040B53ECAC
:101FE000102B9DED020B51EC100B07F041F9CDE9E0
:101FF00006019DED080B53EC102B9DED060B51ECEB
:10200000100B06F047FFCDE90A019DED0A0B51ECDC
:10201000100B06F059FE0F90119807F01DFBCDE94B
:1020200000019DED000B06F0B3F98DED040B129845
:1020300007F012FBCDE900019DED000B06F0A8F9B9
:102040008DED020B9DED040B53EC102B9DED020B5F
:1020500051EC100B06F06AFECDE90801129807F06A
:10206000FBFACDE900019DED000B06F091F98DED35
:10207000040B1598019007F0EFFACDE902019DEDF0
:10208000040B53EC102B9DED020B51EC100B07F0E1
:10209000EFF8CDE906019DED080B53EC102B9DEDFB
:1020A000060B51EC100B06F0F5FECDE90A019DED93
:1020B0000A0B51EC100B06F007FE0E90119807F07A
:1020C000CBFACDE900019DED000B06F061F98DED35
:1020D000040B129807F0C0FACDE900019DED000B4A
:1020E00006F056F98DED020B9DED040B53EC102B11
:1020F0009DED020B51EC100B06F018FECDE9080126
:10210000119807F0A9FACDE900019DED000B06F04A
:102110003FF98DED040B1498019007F09DFACDE97D
:1021200002019DED040B53EC102B9DED020B51ECC5
:10213000100B07F09DF8CDE906019DED080B53EC5F
:10214000102B9DED060B51EC100B06F0A3FECDE914
:102150000A019DED0A0B51EC100B06F0B5FD0D9038
:10216000119807F079FACDE900019DED000B06F01A
:102170000FF98DED040B129807F06EFACDE900010E
:102180009DED000B06F004F98DED020B9DED040BA7
:1021900053EC102B9DED020B51EC100B06F0C6FD1D
:1021A000CDE90801129807F057FACDE900019DED3D
:1021B000000B06F0EDF88DED040B1398019007F07D
:1021C0004BFACDE902019DED040B53EC102B9DED74
:1021D000020B51EC100B07F04BF8CDE906019DED19
:1021E000080B53EC102B9DED060B51EC100B06F079
:1021F00051FECDE90A019DED0A0B51EC100B06F0E2
:1022000063FD9FED582A0C90DDED0F1A9DED0E1A1F
:10221000DDED0D0A9DED0C0AFFF724FB022003F013
:10222000CFF84FF0FF309FED500AFFF7D6FB0028A4
:102230003FF4D8AC9DED100ADFED4C0AB4EEE00A95
:10224000F1EE10FA03D29FED490A8DED100A00BF9E
:10225000119807F001FACDE900019DED000B06F0A1
:1022600097F88DED040B129807F0F6F9CDE900010F
:102270009DED000B06F08CF88DED020B9DED040B2F
:1022800053EC102B9DED020B51EC100B06F04EFDA4
:10229000CDE90801119807F0DFF9CDE900019DEDC6
:1022A000000B06F075F88DED040B9DED160A8DED13
:1022B000000A9DED000AFFF77FFB00EE100AF8EE22
:1022C000C00A9DED100A20EE800A8DED010A0198EA
:1022D00007F0C2F9CDE902019DED040B53EC102B80
:1022E0009DED020B51EC100B06F0C2FFCDE906018B
:1022F0009DED080B53EC102B9DED060B51EC100BD4
:1023000006F0C8FDCDE90A019DED0A0B51EC100B5A
:1023100006F0DAFC0F90119807F09EF9CDE9000164
:102320009DED000B06F034F88DED040B129807F0CC
:1023300093F9CDE900019DED000B06F029F88DED34
:10234000020B9DED040B53EC102B9DED020B51EC99
:10235000100B06F0EBFCCDE90801129808E0000034
:10236000CDCCCC3D000000000000FA430000484204
:1023700007F072F9CDE900019DED000B06F008F8B9
:102380008DED040B9DED150A8DED000A9DED000A03
:10239000FFF712FB00EE100AF8EEC00A9DED100ADE
:1023A00020EE800A8DED010A019807F055F9CDE97C
:1023B00002019DED040B53EC102B9DED020B51EC33
:1023C000100B06F055FFCDE906019DED080B53EC0F
:1023D000102B9DED060B51EC100B06F05BFDCDE9CB
:1023E0000A019DED0A0B51EC100B06F06DFC0E90EE
:1023F000119807F031F9CDE900019DED000B05F0D2
:10240000C7FF8DED040B129807F026F9CDE9000106
:102410009DED000B05F0BCFF8DED020B9DED040B57
:1024200053EC102B9DED020B51EC100B06F07EFCD3
:10243000CDE90801119807F00FF9CDE900019DEDF4
:10244000000B05F0A5FF8DED040B9DED140A8DED3D
:10245000000A9DED000AFFF7AFFA00EE100AF8EE51
:10246000C00A9DED100A20EE800A8DED010A019848
:1024700007F0F2F8CDE902019DED040B53EC102BAF
:102480009DED020B51EC100B06F0F2FECDE90601BA
:102490009DED080B53EC102B9DED060B51EC100B32
:1024A00006F0F8FCCDE90A019DED0A0B51EC100B8A
:1024B00006F00AFC0D90119807F0CEF8CDE9000166
:1024C0009DED000B05F064FF8DED040B129807F0F5
:1024D000C3F8CDE900019DED000B05F059FF8DED2E
:1024E000020B9DED040B53EC102B9DED020B51ECF8
:1024F000100B06F01BFCCDE90801129807F0ACF8B0
:10250000CDE900019DED000B05F042FF8DED040BC0
:102510009DED130A8DED000A9DED000AFFF74CFAC0
:1025200000EE100AF8EEC00A9DED100A20EE800AB7
:102530008DED010A019807F08FF8CDE902019DEDBC
:10254000040B53EC102B9DED020B51EC100B06F01D
:102550008FFECDE906019DED080B53EC102B9DED90
:10256000060B51EC100B06F095FCCDE90A019DED30
:102570000A0B51EC100B06F0A7FB1FED862A0C90FE
:10258000DDED0F1A9DED0E1ADDED0D0A9DED0C0A25
:10259000FFF768F99DED100A5FED8C0AB4EEE00AD2
:1025A000F1EE10FA07DD9DED100ADFEDF60A30EED0
:1025B000600A8DED100A022002F002FF4FF0FF309A
:1025C0001FED960AFFF709FA00283FF441AE9DED92
:1025D0001B0AED4880ED000A9DED1C0A80ED010A02
:1025E0001DB000BD00B52DED0A8B85B0B0EE409A50
:1025F000F0EE608A1FEDA50AB0EE408A38EEC90AF7
:10260000DFEDE20A20EE200AF0EE409A9FEDE00AAC
:1026100029EE800ADFEDDF0A80EE201A9FEDDE0A48
:1026200061EE000AB0EE001A80EE810A9FEDDB1A1F
:10263000C0EE010A9FEDDA0A20EE800AB0EE40AA51
:10264000D84890ED010AD84880ED000AD74890EDAF
:10265000010AD54880ED010AD54890ED010AD2481B
:1026600080ED020AD34890ED010ACF4880ED030ABD
:102670000020D14908600DE0B1EE4A0ACF48CE49AA
:10268000096800EB810080ED000ACB480068401C1F
:10269000C9490860C84800680428EDDB0020C64925
:1026A000086023E0C548C449096800EB810090ED4B
:1026B000000AB5EEC00AF1EE10FA09D29FEDC00A89
:1026C0006846BD49096800EB810080ED000A08E01A
:1026D0009FEDBC0A6846B849096800EB810080EDAF
:1026E000000AB5480068401CB3490860B248006859
:1026F0000428D7DB00BF9FEDB40AB4EEC08AF1EE28
:1027000010FA48D2DDED030AB0EE600AFFF754F983
:1027100000EE100AB8EEC00A20EE080AF0EE40AA59
:10272000DDED020AB0EE600AFFF746F900EE100A8E
:10273000B8EEC00A20EE080AB0EE40BADDED010A9C
:10274000B0EE600AFFF738F900EE100AB8EEC00AE2
:1027500020EE080AF0EE40BADDED000AB0EE600AA5
:10276000FFF72AF900EE100AB8EEC00A20EE080AB8
:10277000B0EE40CA9FED952AF0EE6A1AB0EE4B1A01
:10278000F0EE6B0AFFF76EF89FED910A38EE000A43
:10279000B0EE408A16E09DED032AF0EE421A9DED60
:1027A000022AB0EE421A9DED012AF0EE420A9DED9A
:1027B000002AB0EE420A9FED852AFFF753F8022067
:1027C00002F0FEFD00209FED830AFFF706F90028C6
:1027D00091D06D48C0ED028A05B0BDEC0A8B00BDFA
:1027E00010B52DED0A8BB0EE408A6E4890ED010ACF
:1027F000BDEEC00AF0EE408A6C4890ED010ABDEED5
:10280000C00AB0EE409A6A4890ED010ABDEEC00AD7
:10281000F0EE409A674890ED010ABDEEC00AB0EEB6
:1028200040AA6D4890ED010ABDEEC00A10EE104AB4
:102830000EE0B0EE482AF8EECA1AB8EEE91AF8EE41
:10284000C90AB8EEE80AFFF76FF8022002F0B8FDF7
:10285000614890ED010A30EE480A10EE101A084661
:1028600006F0FAFE41EC1C0BB0EE4C0AF0EE6C0ADE
:1028700005F08EFDB0EE40BAF0EE60BA9FED570B5A
:1028800053EC102B51EC1B0B06F0B6FCD1D2BDEC77
:102890000A8B10BD10B52DED0C8BB0EE408AF0EE1A
:1028A000608A9FED500B05F07FFDB0EE40CAF0EE60
:1028B00060CA18EE100A06F0CFFE41EC1D0B53EC77
:1028C0001C2B06F0D5FC41EC1A0B9FED460B05F0D6
:1028D000FBFCB0EE40CAF0EE60CA18EE900A06F0BB
:1028E000BBFE41EC1D0B53EC1C2B06F0C1FC41EC74
:1028F0001B0B53EC1A2B06F0C5FD41EC190B06F02F
:10290000E3F900EE100ABDEC0C8B10BD10B52DEDF7
:102910000C8BB0EE408AF0EE608A9FED320B05F032
:1029200043FDB0EE40CAF0EE60CA18EE900A06F021
:1029300093FE41EC1D0B53EC1C2B06F099FC41EC73
:102940001A0B9FED280B05F0BFFCB0EE40CAF0EE6D
:1029500060CA18EE100A06F07FFE41EC1D0B53EC26
:102960001C2B06F085FC41EC1B0B53EC1A2B06F0DC
:10297000DDF941EC190B06F0A7F900EE100ABDECE9
:102980000C8B10BDCDCCCC3E840300203333833F71
:10299000DB0F4940000034430000E143959E6B4348
:1029A0000000B44378000020A40300209C00002015
:1029B000C0000020E4000020280000209003002038
:1029C0000000A0C20000A0420000964300000000EA
:1029D000CDCC4C3E00004842080100200000000021
:1029E0000000244000000060FB21E9BF07B584B06F
:1029F000069800287DD1049801287BD105980028ED
:102A000078D1DFEDFD0A1FED0F0AFFF743FF8DEDD3
:102A1000030ADFEDF90A1FED130AFFF777FF8DEDCB
:102A2000020AF64890ED010A8DED010A90ED000AC8
:102A30008DED000ADDED031A9DED021ADDED010AB0
:102A40009DED000AFFF742F8DFEDEB0A9FEDEC0A7F
:102A5000FFF720FF8DED030ADFEDE70A9FEDE80A9F
:102A6000FFF754FF8DED020AE44890ED010A8DED69
:102A7000010A90ED000A8DED000ADDED031A9DEDCF
:102A8000021ADDED010A9DED000AFFF71FF8DFEDE8
:102A9000DD0A9FEDDB0AFFF7FDFE8DED030ADFED9A
:102AA000D90A9FEDD70AFFF731FF8DED020AD3480F
:102AB00090ED010A8DED010A90ED000A8DED000AFE
:102AC000DDED031A9DED021ADDED010A9DED000A10
:102AD000FEF7FCFFDFEDCB0A9FEDCB0AFFF7DAFE36
:102AE0008DED030ADFEDC70A9FEDC70AFFF70EFF62
:102AF00001E0EBE31FE08DED020AC04890ED010A12
:102B00008DED010A90ED000A8DED000ADDED031A4E
:102B10009DED021ADDED010A9DED000AFEF7D6FFDC
:102B2000B64890ED020A8DED030A5FED660A9DED51
:102B3000030AFFF757FD049801287DD10598012865
:102B40007AD1DFEDAD0A1FED5F0AFFF7A3FE8DED31
:102B5000030ADFEDA90A1FED630AFFF7D7FE8DED2B
:102B6000020AA64890ED010A8DED010A90ED000AD7
:102B70008DED000ADDED031A9DED021ADDED010A6F
:102B80009DED000AFEF7A2FFDFED9B0A9FED9C0A78
:102B9000FFF780FE8DED030ADFED970A9FED980A9F
:102BA000FFF7B4FE8DED020A944890ED010A8DED19
:102BB000010A90ED000A8DED000ADDED031A9DED8E
:102BC000021ADDED010A9DED000AFEF77FFFDFED41
:102BD0008D0A9FED8B0AFFF75DFE8DED030ADFED99
:102BE000890A9FED870AFFF791FE8DED020A83485F
:102BF00090ED010A8DED010A90ED000A8DED000ABD
:102C0000DDED031A9DED021ADDED010A9DED000ACE
:102C1000FEF75CFFDFED7B0A9FED7B0AFFF73AFED4
:102C20008DED030ADFED770A9FED770AFFF76EFE61
:102C30008DED020A714800E036E090ED010A8DED5D
:102C4000010A90ED000A8DED000ADDED031A9DEDFD
:102C5000021ADDED010A9DED000AFEF737FF674815
:102C600090ED020A8DED030A5FEDB60A9DED030AB1
:102C7000FFF7B8FCDFED650A1FEDAC0AFFF70AFEAF
:102C80008DED030ADFED610A1FEDB00AFFF73EFE8E
:102C90008DED020ADDED031A9DED021A5FEDB50A16
:102CA0001FEDB60AFEF712FF049801287DD10598A2
:102CB00002287AD1DFED500A1FEDBC0AFFF7EAFDCA
:102CC0008DED030ADFED4C0A1FEDC00AFFF71EFE73
:102CD0008DED020A494890ED010A8DED010A90ED53
:102CE000000A8DED000ADDED031A9DED021ADDEDFF
:102CF000010A9DED000AFEF7E9FEDFED3F0A9FEDB8
:102D0000400AFFF7C7FD8DED030ADFED3B0A9FED9B
:102D10003C0AFFF7FBFD8DED020A384890ED010AF1
:102D20008DED010A90ED000A8DED000ADDED031A2C
:102D30009DED021ADDED010A9DED000AFEF7C6FECB
:102D4000DFED300A9FED2E0AFFF7A4FD8DED030A9B
:102D5000DFED2C0A9FED2A0AFFF7D8FD8DED020A60
:102D6000264890ED010A8DED010A90ED000A8DEDE7
:102D7000000ADDED031A9DED021ADDED010A9DED5D
:102D8000000AFEF7A3FEDFED1F0A9FED1F0AFFF703
:102D900081FD8DED030ADFED1B0A9FED1B0AFFF796
:102DA000B5FD8DED020A154800E049E090ED010AFD
:102DB0008DED010A90ED000A8DED000ADDED031A9C
:102DC0009DED021ADDED010A9DED000AFEF77EFE83
:102DD0000A4890ED020A8DED030ADFED0D0A9DED24
:102DE000030AFFF7FFFBDFED0B0A9FED0B0AFFF76E
:102DF00051FD8DED030A11E0008009C48403002019
:102E0000000096C4008004440080EDC400C0024469
:102E10000000344300808944000000005FED030A95
:102E20001FED030AFFF772FD8DED020ADDED031AB7
:102E30009DED021A5FED080A1FED090AFEF746FE36
:102E4000049802287DD1059800287AD15FED160AF2
:102E50001FED150AFFF71EFD8DED030A5FED1A0A3F
:102E60001FED190AFFF752FD8DED020A5FED1E0AF4
:102E70001FED170AFFF70EFD8DED010A5FED220A27
:102E80001FED1B0AFFF742FD8DED000ADDED031A71
:102E90009DED021ADDED010A9DED000AFEF716FE1A
:102EA0005FED280A1FED2A0AFFF7F4FC8DED030AF7
:102EB0005FED2C0A1FED2E0AFFF728FD8DED020AAB
:102EC000FC4890ED010A8DED010A90ED000A8DEDB0
:102ED000000ADDED031A9DED021ADDED010A9DEDFC
:102EE000000AFEF7F3FD5FED390A1FED390AFFF71F
:102EF000D1FC8DED030A5FED3D0A1FED3D0AFFF7A2
:102F000005FD8DED020AEB4890ED010A8DED010AF9
:102F100090ED000A8DED000ADDED031A9DED021A19
:102F2000DDED010A9DED000AFEF7D0FDE14890EDD0
:102F3000020A8DED030A5FED4A0A9DED030AFFF7D1
:102F400051FB049802287CD10598012879D15FEDC6
:102F5000560A1FED550AFFF79DFC8DED030A5FED44
:102F60005A0A1FED590AFFF7D1FC8DED020A5FEDF9
:102F70005E0A1FED570AFFF78DFC8DED010A5FED2C
:102F8000620A1FED5B0AFFF7C1FC8DED000ADDED63
:102F9000031A9DED021ADDED010A9DED000AFEF710
:102FA00095FD5FED680A1FED6A0AFFF773FC8DED72
:102FB000030A5FED6C0A1FED6E0AFFF7A7FC8DEDAB
:102FC000020ABC4890ED010A8DED010A90ED000A5D
:102FD0008DED000ADDED031A9DED021ADDED010A0B
:102FE0009DED000AFEF772FD5FED7A0A1FED7A0A89
:102FF000FFF750FC8DED030A5FED7E0A1FED7E0AA0
:10300000FFF784FC8DED020AAA4890ED010A8DEDD0
:10301000010A90ED000A8DED000ADDED031A9DED29
:10302000021ADDED010A9DED000AFEF74FFDA148F1
:1030300090ED020A8DED030A5FED8B0A9DED030A08
:1030400000E01BE0FFF7CEFA5FED900A1FED8E0A5D
:10305000FFF720FC8DED030A5FED940A1FED920A45
:10306000FFF754FC8DED020ADDED031A9DED021A07
:103070005FED970A1FED980AFEF728FD04980228D5
:103080007ED1059802287BD15FEDA50A1FEDA40A29
:10309000FFF700FC8DED030A5FEDA90A1FEDA80AFA
:1030A000FFF734FC8DED020A5FEDAD0A1FEDA60AB5
:1030B000FFF7F0FB8DED010A5FEDB10A1FEDAA0AE3
:1030C000FFF724FC8DED000ADDED031A9DED021AD9
:1030D000DDED010A9DED000AFEF7F8FC5FEDB70A91
:1030E0001FEDB90AFFF7D6FB8DED030A5FEDBB0AB2
:1030F0001FEDBD0AFFF70AFC8DED020A6D4890ED49
:10310000010A8DED010A90ED000A8DED000ADDED5A
:10311000031A9DED021ADDED010A9DED000AFEF78E
:10312000D5FC5FEDC80A1FEDC80AFFF7B3FB8DEDB4
:10313000030A5FEDCC0A1FEDCC0AFFF7E7FB8DED2C
:10314000020A5C4890ED010A8DED010A90ED000A3B
:103150008DED000ADDED031A9DED021ADDED010A89
:103160009DED000AFEF7B2FC524890ED020A8DED8B
:10317000030A5FEDD90A9DED030AFFF733FA00E079
:1031800019E05FEDDC0A1FEDDC0AFFF783FB8DED34
:10319000030A5FEDE00A1FEDE00AFFF7B7FB8DEDD4
:1031A000020ADDED031A9DED021A5FEDE50A1FED3F
:1031B000E60AFEF78BFC049800287AD105980028CF
:1031C00077D15FEDF30A1FEDEC0AFFF763FB8DED9E
:1031D000030A5FEDF70A1FEDF00AFFF797FB8DED8D
:1031E000020ADFED350A1FEDF40AFFF753FB8DED00
:1031F000010ADFED310A1FEDF80AFFF787FB8DEDBD
:10320000000ADDED031A9DED021ADDED010A9DEDC8
:10321000000AFEF75BFCDFED290A9FED290AFFF7A4
:1032200039FB8DED030ADFED250A9FED250AFFF737
:103230006DFB8DED020ADFED210A9FED220AFFF7FB
:1032400029FB8DED010ADFED1D0A9FED1E0AFFF738
:103250005DFB8DED000ADDED031A9DED021ADDED3B
:10326000010A9DED000AFEF731FCDFED170A9FED24
:10327000140AFFF70FFB8DED030ADFED130A9FED34
:10328000100AFFF743FB8DED020A0A4890ED010A90
:103290008DED010A90ED000A8DED000ADDED031AB7
:1032A0009DED021ADDED010A9DED000AFEF70EFC10
:1032B0000DE03AE08403002000800944008009C446
:1032C000000096C4000000000080044474E15FED3B
:1032D000020A9FEDFD0AFFF7DDFA8DED030A5FEDAF
:1032E000060A9FEDF90AFFF711FB8DED020AF74878
:1032F00090ED010A8DED010A90ED000A8DED000AB6
:10330000DDED031A9DED021ADDED010A9DED000AC7
:10331000FEF7DCFBED4890ED020A8DED030ADFEDD0
:10332000EC0A9DED030AFFF75DF9049800287AD1B5
:103330000598012877D15FED1F0A1FED1E0AFFF7E0
:10334000A9FA8DED030A5FED230A1FED220AFFF7AC
:10335000DDFA8DED020A5FED280A1FED260AFFF760
:1033600099FA8DED010A5FED2C0A1FED2A0AFFF78D
:10337000CDFA8DED000ADDED031A9DED021ADDEDAB
:10338000010A9DED000AFEF7A1FB5FED340A1FED77
:10339000340AFFF77FFA8DED030A5FED380A1FED5F
:1033A000380AFFF7B3FA8DED020A5FED3C0A1FED14
:1033B0003B0AFFF76FFA8DED010A5FED400A1FED42
:1033C0003F0AFFF7A3FA8DED000ADDED031A9DED2C
:1033D000021ADDED010A9DED000AFEF777FB5FEDB5
:1033E000460A1FED490AFFF755FA8DED030A5FED16
:1033F0004A0A1FED4D0AFFF789FA8DED020AB3481C
:1034000090ED010A8DED010A90ED000A8DED000AA4
:10341000DDED031A9DED021ADDED010A9DED000AB6
:10342000FEF754FB00E047E05FED590A9FEDA60A66
:10343000FFF730FA8DED030A5FED5D0A9FEDA20AFA
:10344000FFF764FA8DED020AA04890ED010A8DEDB8
:10345000010A90ED000A8DED000ADDED031A9DEDE5
:10346000021ADDED010A9DED000AFEF72FFB9748D9
:1034700090ED020A8DED030ADFED950A9DED030A3A
:10348000FFF7B0F8DFED930A1FED720AFFF702FABB
:103490008DED030ADFED8F0A1FED760AFFF736FA8E
:1034A0008DED020ADDED031A9DED021A5FED7B0A38
:1034B0001FED7C0AFEF70AFB049800287CD10598D2
:1034C000022879D15FED830A1FED820AFFF7E2F946
:1034D0008DED030A5FED870A1FED860AFFF716FAE6
:1034E0008DED020A5FED8C0A1FED8A0AFFF7D2F913
:1034F0008DED010A5FED900A1FED8E0AFFF706FAC7
:103500008DED000ADDED031A9DED021ADDED010AD5
:103510009DED000AFEF7DAFA5FED980A1FED980AB2
:10352000FFF7B8F98DED030A5FED9C0A1FED9C0AC9
:10353000FFF7ECF98DED020A5FEDA00A1FED9F0A7F
:10354000FFF7A8F98DED010A5FEDA40A1FEDA30AAC
:10355000FFF7DCF98DED000ADDED031A9DED021A8F
:10356000DDED010A9DED000AFEF7B0FA5FEDAA0A53
:103570001FEDAD0AFFF78EF98DED030A5FEDAE0A80
:103580001FEDB10AFFF7C2F98DED020A4F4890ED29
:10359000010A8DED010A90ED000A8DED000ADDEDC6
:1035A000031A9DED021ADDED010A9DED000AFEF7FA
:1035B0008DFA5FEDBB0A00E045E09FED430AFFF79F
:1035C00069F98DED030A5FEDC00A9FED3F0AFFF731
:1035D0009DF98DED020A3D4890ED010A8DED010A3D
:1035E00090ED000A8DED000ADDED031A9DED021A43
:1035F000DDED010A9DED000AFEF768FA334890ED13
:10360000020A8DED030ADFED320A9DED030AFEF793
:10361000E9FFDFED310A1FEDD50AFFF73BF98DED2C
:10362000030ADFED2D0A1FEDD90AFFF76FF98DEDC3
:10363000020ADDED031A9DED021A5FEDDE0A1FEDB1
:10364000DF0AFEF743FA069801287DD10498012885
:103650005ED10598B0BB5FEDE50A9FED200AFFF74C
:1036600019F98DED030A5FEDE90A9FED1C0AFFF7DA
:103670004DF98DED020A154890ED010A8DED010A14
:1036800090ED000A8DED000ADDED031A9DED021AA2
:10369000DDED010A9DED000AFEF718FA0B4890EDEA
:1036A000020A8DED030ADFED0E0A9DED030AFEF717
:1036B00099FFDFED0C0A9FED0C0AFFF7EBF88DED9B
:1036C000030A13E024E000000080EDC4840300201E
:1036D0000000344300C00244008089440000E1C47B
:1036E000000034C30000FFC3000000005FED030AC8
:1036F0001FED030AFFF70AF98DED020ADDED031A4B
:103700009DED021A5FED080A1FED090AFEF7DEF9CA
:10371000049801286FD1059801286CD1DFEDFE0ACD
:103720001FED0F0AFFF7B6F88DED030ADFEDFA0A79
:103730001FED130AFFF7EAF88DED020AF74890ED46
:10374000010A8DED010A00E081E290ED000A8DEDA5
:10375000000ADDED031A9DED021ADDED010A9DED73
:10376000000AFEF7B3F9DFEDEC0A1FED240AFFF7BC
:1037700091F88DED030ADFEDE80A1FED280AFFF747
:10378000C5F88DED020AE54890ED010A8DED010ABC
:1037900090ED000A8DED000ADDED031A9DED021A91
:1037A000DDED010A9DED000AFEF790F9DB4890ED92
:1037B000020A8DED030A5FED360A9DED030AFEF75E
:1037C00011FF5FED380A1FED380AFFF763F88DED42
:1037D000030A5FED3C0A1FED3C0AFFF797F88DEDF9
:1037E000020ADDED031A9DED021A5FED410A1FED9D
:1037F000420AFEF76BF9049801286DD1059802285A
:103800006AD1DFEDC70A1FED480AFFF743F88DEDD7
:10381000030ADFEDC30A1FED4C0AFFF777F88DEDC1
:10382000020ABE4890ED010A8DED010A90ED000AF2
:103830008DED000ADDED031A9DED021ADDED010AA2
:103840009DED000AFEF742F9DFEDB50A1FED5D0AB6
:10385000FFF720F88DED030ADFEDB10A1FED610AD5
:10386000FFF754F88DED020AAC4890ED010A8DED9A
:10387000010A90ED000A8DED000ADDED031A9DEDC1
:10388000021ADDED010A9DED000AFEF71FF9A348BB
:1038900090ED020A8DED030A5FED6F0A9DED030ABC
:1038A000FEF7A0FE5FED710A1FED710AFEF7F2FF51
:1038B0008DED030A5FED750A1FED750AFFF726F817
:1038C0008DED020ADDED031A9DED021A5FED7A0A15
:1038D0001FED7B0AFEF7FAF80498022854D10598E8
:1038E000F0BB5FED830A1FED800AFEF7D3FF8DED7D
:1038F000030A5FED870A1FED840AFFF707F88DEDD5
:10390000020A864890ED010A8DED010A90ED000A49
:103910008DED000ADDED031A9DED021ADDED010AC1
:103920009DED000AFEF7D2F85FED950A1FED950AAE
:10393000FEF7B0FF8DED030A5FED990A1FED990ABE
:10394000FEF7E4FF8DED020A744890ED010A8DED5B
:10395000010A90ED000A8DED000ADDED031A00E08A
:1039600012E09DED021ADDED010A9DED000AFEF761
:10397000ADF86A4890ED020A8DED030A5FEDAC0ADE
:103980009DED030AFEF72EFE0498022853D10598F8
:10399000012850D1DFED630A1FEDAD0AFEF77AFF73
:1039A0008DED030ADFED5F0A1FEDB10AFEF7AEFFF2
:1039B0008DED020A594890ED010A8DED010A90ED56
:1039C000000A8DED000ADDED031A9DED021ADDED12
:1039D000010A9DED000AFEF779F8DFED520A1FEDAE
:1039E000C10AFEF757FF8DED030ADFED4E0A1FED0A
:1039F000C50AFEF78BFF8DED020A484890ED010ADB
:103A00008DED010A90ED000A8DED000ADDED031A3F
:103A10009DED021ADDED010A9DED000AFEF756F854
:103A20003E4890ED020A8DED030A5FEDD70A9DED49
:103A3000030AFEF7D7FD0498022830D10598022822
:103A40002DD15FEDD70A1FEDDB0AFEF723FF8DEDC9
:103A5000030A5FEDDB0A1FEDDF0AFEF757FF8DED6E
:103A6000020A2E4890ED010A8DED010A90ED000A40
:103A70008DED000ADDED031A9DED021ADDED010A60
:103A80009DED000AFEF722F8244890ED020A8DED24
:103A9000030A5FEDF10A9DED030AFEF7A3FD04980A
:103AA00078BB059868BB5FEDF00A1FEDF40AFEF7DE
:103AB000F1FE8DED030A5FEDF40A1FEDF80AFEF743
:103AC00025FF8DED020A154890ED010A8DED010AE2
:103AD00090ED000A8DED000ADDED031A9DED021A4E
:103AE000DDED010A9DED000AFDF7F0FF0B4890EDBA
:103AF000020A8DED030ADFED0C0A9DED030AFEF7C5
:103B000071FD0498E0BB0598012860D1DFED020A41
:103B10009FED060A0CE0000000C001C484030020F1
:103B200000007AC400401044000034C300000000CC
:103B3000FEF7B0FE8DED030A5FED090A1FED050AE1
:103B4000FEF7E4FE8DED020AFE4890ED010A8DEDD0
:103B5000010A90ED000A8DED000ADDED031A9DEDDE
:103B6000021ADDED010A9DED000AFDF7AFFF5FEDE2
:103B7000160A9FEDF50AFEF78DFE8DED030A00E0B3
:103B800025E05FED1B0A9FEDF00AFEF7BFFE8DED0D
:103B9000020AEC4890ED010A8DED010A90ED000A51
:103BA0008DED000ADDED031A9DED021ADDED010A2F
:103BB0009DED000AFDF78AFFE24890ED020A8DEDC7
:103BC000030A5FED270A9DED030AFEF70BFD04983B
:103BD000E8BB0598022852D15FED2F0A1FED2D0A90
:103BE000FEF758FE8DED030A5FED330A1FED310A33
:103BF000FEF78CFE8DED020AD24890ED010A8DEDA4
:103C0000010A90ED000A8DED000ADDED031A9DED2D
:103C1000021ADDED010A9DED000AFDF757FFDFED09
:103C2000CB0A9FEDC90AFEF735FE8DED030ADFEDE5
:103C3000C70A9FEDC50AFEF769FE8DED020AC1486D
:103C400090ED010A8DED010A90ED000A00E016E00A
:103C50008DED000ADDED031A9DED021ADDED010A7E
:103C60009DED000AFDF732FFB64890ED020A8DED9A
:103C7000030A5FED530A9DED030AFEF7B3FC07B09C
:103C800000BD70B52DED048B04460D46012C3FD1CF
:103C9000012D3DD19FEDAE0AFEF7A2FD5FED5D0A5D
:103CA0009FEDAC0AFEF7F6FDB0EE408A5FED610ACB
:103CB0009FEDA80AFEF72AFEF0EE408AF0EE481AC1
:103CC000B0EE681A5FED670A1FED680AFDF7FEFEA9
:103CD0009FEDA10AFEF784FD5FED6C0A9FED9F0A40
:103CE000FEF7D8FDB0EE408A5FED700A9FED9B0AAB
:103CF000FEF70CFEF0EE408A5FED741A1FED751AA8
:103D0000F0EE480AFDF7E2FE9FED950AFEF768FD2A
:103D1000012C7CD1022D7AD1DFED920A1FED7D0AB4
:103D2000FEF7B8FDB0EE408ADFED8E0A1FED810A86
:103D3000FEF7ECFDF0EE408AF0EE481AB0EE681A9D
:103D40005FED860A1FED870AFDF7C0FE9FED860A2C
:103D500000F00CFB9FED7E0AFEF742FDDFED810ACD
:103D60009FED820AFEF796FDB0EE408ADFED7D0AF8
:103D70009FED7E0AFEF7CAFDF0EE408ADFED790A7C
:103D80001FED960AFEF786FDB0EE409ADFED750A4C
:103D90001FED9A0AFEF7BAFDF0EE409AF0EE481ACF
:103DA000B0EE681AF0EE490AFDF790FEF3EE0E0A47
:103DB0009FED6E0AFEF76EFDB0EE408AF3EE0E0A3E
:103DC0009FED6A0AFEF7A2FDF0EE408ADFED650A7C
:103DD0009FED660AFEF75EFDB0EE409ADFED610AE8
:103DE0009FED620AFEF792FDF0EE409AF0EE481A5F
:103DF000B0EE681AF0EE490AFDF768FE9FED560A2C
:103E0000FEF7EEFCF3EE0E0A1FEDB80A00E027E025
:103E1000FEF740FDB0EE408AF3EE0E0A1FEDBD0A3C
:103E2000FEF774FDF0EE408AF3EE0E0A9FED4F0AA6
:103E3000FEF730FDB0EE409AF3EE0E0A9FED4B0A0E
:103E4000FEF764FDF0EE409AF0EE481AB0EE681A04
:103E5000F0EE490AFDF73AFE9FED410AFEF7C0FC7D
:103E6000BCBB012D35D15FEDCF0A9FED3A0AFEF7BD
:103E700011FDB0EE408A5FEDD30A9FED360AFEF7E2
:103E800045FDF0EE408AF0EE481AB0EE681A5FED9C
:103E9000D90A1FEDDA0AFDF719FE9FED310AFEF788
:103EA0009FFC5FEDDE0A9FED2B0AFEF7F3FCB0EE00
:103EB000408A5FEDE20A9FED270AFEF727FDF0EE4C
:103EC000408A5FEDE61A1FEDE71AF0EE480AFDF7AB
:103ED000FDFD002C7BD1022D79D1DFED220A1FEDF3
:103EE000ED0AFEF7D7FCB0EE408ADFED1E0A1FEDAB
:103EF000F10AFEF70BFDF0EE408AF0EE481AB0EE44
:103F0000681A5FEDF60A1FEDF70AFDF7DFFD9FED7A
:103F1000160A00F02BFADFED130A9FED140AFEF7E4
:103F2000B9FCB0EE408ADFED0F0A9FED100AFEF7F4
:103F3000EDFCF0EE408ADFED0B0A9FED0D0AFEF777
:103F4000A9FC17E0840300200000E1C4008089C4BC
:103F5000000096C50000B44300C0A8C50000B943E6
:103F60000000FAC400007A430000A4420000BE43EF
:103F700000000000B0EE409A5FED060A1FED040A53
:103F8000FEF7C4FCF0EE409AF0EE481AB0EE681A64
:103F9000F0EE490AFDF79AFDF3EE0E0A1FED0D0A49
:103FA000FEF778FCB0EE408AF3EE0E0A1FED110A20
:103FB000FEF7ACFCF0EE408A5FED160A1FED150A25
:103FC000FEF768FCB0EE409A5FED1A0A00E039E0B7
:103FD0001FED1A0AFEF79AFCF0EE409AF0EE481A2E
:103FE000B0EE681AF0EE490AFDF770FD1FED240AE5
:103FF000FEF7F6FBF3EE0E0A1FED230AFEF74AFC6E
:10400000B0EE408AF3EE0E0A1FED270AFEF77EFCA3
:10401000F0EE408AF3EE0E0A1FED2C0AFEF73AFC92
:10402000B0EE409AF3EE0E0A1FED300AFEF76EFC7A
:10403000F0EE409AF0EE481AB0EE681AF0EE490A37
:10404000FDF744FDBDEC048B70BD70B52DED048B08
:1040500005460C46012D3FD1012C1CD11FED3C0A19
:10406000FEF7BEFB5FED3E0A9FEDB90AFEF712FCBC
:10407000B0EE408A5FED420A9FEDB50AFEF746FCBE
:10408000F0EE408A5FED461A1FED471AF0EE480A3F
:10409000FDF71CFD08E1BEEE000A00F067F91FED18
:1040A0004C0AFEF79DFB5FED4E0A9FEDA90AFEF755
:1040B000F1FBB0EE408A5FED520A9FEDA50AFEF7D4
:1040C00025FCF0EE408A5FED561A1FED571AF0EE10
:1040D000480AFDF7FBFCE7E0022C71D11FED5C0AFA
:1040E000FEF77EFBDFED9B0A1FED5F0AFEF7D2FBBA
:1040F000B0EE408ADFED970A1FED630AFEF706FC7B
:10410000F0EE408AF0EE481AB0EE681A5FED680AE9
:104110001FED690AFDF7DAFCDFED8E0A9FED8E0ACE
:10412000FEF7B8FBB0EE408ADFED8A0A9FED8A0AFF
:10413000FEF7ECFBF0EE408ADFED860A1FED740A15
:10414000FEF7A8FBB0EE409ADFED820A1FED780A79
:10415000FEF7DCFBF0EE409AF0EE481AB0EE681A7B
:10416000F0EE490AFDF7B2FC00F037F95FED800A86
:104170009FED790AFEF78EFBB0EE408A5FED840A70
:104180009FED750AFEF7C2FBF0EE408ADFED710A83
:104190009FED710AFEF77EFBB0EE409ADFED6D0AEF
:1041A0009FED6D0AFEF7B2FBF0EE409AF0EE481A72
:1041B000B0EE681AF0EE490AFDF788FC74E0FFE7FC
:1041C0001FED970A00F0D2F81FED970AFEF708FBE3
:1041D000DFED600A1FED9A0AFEF75CFBB0EE408A45
:1041E000DFED5C0A1FED9E0AFEF790FBF0EE408AC1
:1041F000F0EE481AB0EE681A5FEDA30A1FEDA40AAC
:10420000FDF764FCDFED530A9FED530AFEF742FB16
:10421000B0EE408ADFED4F0A9FED4F0AFEF776FBC6
:10422000F0EE408ADFED4B0A1FEDAF0AFEF732FBDE
:10423000B0EE409ADFED470A1FEDB30AFEF766FBCA
:10424000F0EE409AF0EE481AB0EE681AF0EE490A25
:10425000FDF73CFC00F0C1F85FEDBB0A9FED3E0AA4
:10426000FEF718FBB0EE408A5FEDBF0A9FED3A0AF9
:10427000FEF74CFBF0EE408ADFED360A9FED360A82
:10428000FEF708FBB0EE409ADFED320A9FED320AEE
:10429000FEF73CFBF0EE409AF0EE481AB0EE681ADA
:1042A000F0EE490AFDF712FCBDEC048B70BD02462E
:1042B0006FF002012948D0ED030AF4EEC00AF1EED6
:1042C00010FA09D2D0ED030AB1EE401AF4EEC10A99
:1042D000F1EE10FA00DD491C2148D0ED030AF4EE9E
:1042E000C00AF1EE10FA09D2D0ED030AB1EE401A7D
:1042F000F4EEC10AF1EE10FA00DD491C1948D0EDC8
:10430000030AF4EEC00AF1EE10FA09D2D0ED030A66
:10431000B1EE401AF4EEC10AF1EE10FA00DD491CCC
:104320001148D0ED030AF4EEC00AF1EE10FA09D2FA
:10433000D0ED030AB1EE401AF4EEC10AF1EE10FA24
:1043400000DD491C914201DD012070470020FCE79F
:104350000000964300004843000096C37800002008
:104360009C000020C0000020E400002010B52DEDCE
:10437000028BB0EE408AB5EEC08AF1EE10FA0ED88C
:104380009FED3E0A28EE000ADFED3D0A80EE201A7E
:104390009FED3C0A30EE410AB0EE408A0DE09FED01
:1043A0003A0A28EE000A9FED361AC0EE010A9FED88
:1043B000350A30EE800AB0EE408ABDEEC80AB8EE8B
:1043C000C00AB0EE408ABCEEC80A10EE101A2F48A0
:1043D00003F035FBBDEC028B10BD00B58BB00121A5
:1043E000082002F062F80121084602F015F80222C6
:1043F0000121274801F0FDFD022009908DF82800D9
:1044000003208DF8290000208DF82A0001208DF866
:104410002B0009A91E4801F061FD5320ADF81800DA
:104420000020ADF81A0044F61F6007904FF480702A
:10443000ADF8200006A9154803F011F96020ADF889
:1044400004000120ADF806000220ADF8100001A91B
:104450000E4803F0D2F908210C4803F02BFB012190
:104460000A4803F067F90121084803F081F9BEEE1C
:10447000000AFFF77BFF0BB000BD00000040834443
:104480000000B44200EC9046004083C4000C0040A1
:104490000000024010B50121084601F0BDFF0121D6
:1044A000022001F0B9FF0121042001F0B5FF012134
:1044B000082001F0B1FF0121102001F0ADFF10BD77
:1044C0001CB58020009000208DF8040002208DF89B
:1044D000050001208DF807006946FE4801F0FEFC4A
:1044E0002020009000208DF8040002208DF80500A7
:1044F00001208DF807006946F64801F0EFFC8020A6
:10450000009000208DF8040002208DF805000120A5
:104510008DF807006946F04801F0E0FC202000908B
:1045200000208DF8040002208DF8050001208DF890
:1045300007006946E84801F0D1FC082000900020FF
:104540008DF8040002208DF8050001208DF8070089
:104550006946E14801F0C2FC0220009000208DF87D
:10456000040002208DF8050001208DF8070069463F
:10457000D94801F0B3FC4FF48050009000208DF832
:10458000040002208DF8050001208DF8070069461F
:10459000D24801F0A3FC4020009000208DF80400D8
:1045A00002208DF8050001208DF807006946CC48EF
:1045B00001F094FC1020009000208DF804000220EF
:1045C0008DF8050001208DF807006946C34801F009
:1045D00085FC0120009000208DF8040002208DF859
:1045E000050001208DF807006946BA4801F076FC05
:1045F0008020009000208DF8040002208DF8050036
:1046000001208DF807006946B64801F067FC4FF4B9
:104610000070009000208DF8040002208DF8050045
:1046200001208DF807006946AE4801F057FC4FF4B1
:104630000060009000208DF8040002208DF8050035
:1046400001208DF807006946A64801F047FC4FF4A9
:104650000050009000208DF8040002208DF8050025
:1046600001208DF8070069469E4801F037FC1CBD0B
:1046700010B58021974801F093FC012824D1202116
:10468000944801F08DFC01281ED18021924801F050
:1046900087FC012818D120218F4801F081FC0128D6
:1046A00012D108218C4801F07BFC01280CD1022199
:1046B000894801F075FC012806D10103874801F003
:1046C0006FFC012800D110BD0020FCE710B580214F
:1046D000804801F065FCB0B920217E4801F060FC03
:1046E00088B902217C4801F05BFC60B94FF480512D
:1046F0007A4801F055FC30B92021774801F050FC90
:10470000012800D110BD0020FCE710B5FFF7DEFF47
:1047100048B34FF40051734801F042FC18BB4FF40A
:104720000061704801F03CFCE8B94FF400716D483D
:1047300001F036FCB8B980216A4801F031FC90B92B
:104740000121644801F02CFC58B11021634801F0AC
:1047500027FC012805D04021614801F021FC0128F7
:1047600001D1012010BD0020FCE710B5FFF7AEFF1E
:1047700048B340215A4801F013FC20BB1021574890
:1047800001F00EFCF8B90121524801F009FCD0B942
:104790008021544801F004FCA8B94FF4007151483D
:1047A00001F0FEFB68B14FF400614E4801F0F8FBE8
:1047B000012806D04FF400514A4801F0F1FB0128CE
:1047C00001D1012010BD0020FCE72DE9F041054694
:1047D0000F4616460024082F45D2DFE807F04404B0
:1047E0000E172029323B4FF480513C4801F0D8FB92
:1047F000012801D1601CC4B200BF0221364801F07B
:10480000CFFB012801D1601CC4B200BF082132488F
:1048100001F0C6FB012801D1601CC4B200BF2021F9
:104820002D4801F0BDFB012801D1601CC4B200BFBE
:104830008021294801F0B4FB012801D1601CC4B2D9
:1048400012E02021234801F0ABFB012801D1601CBC
:10485000C4B209E080211F4801F0A2FB012801D168
:10486000601CC4B200E000BF00BF082E55D2DFE8D4
:1048700006F054040D161F283E494021184801F047
:104880008FFB012801D1601CC4B200BF1021134866
:1048900001F086FB012801D1601CC4B200BF0121D8
:1048A0000C4801F07DFB012801D1601CC4B200BF9F
:1048B00080210C4801F074FB012801D1601CC4B2B6
:1048C00000BF4FF40071074801F06AFB01280DD1C9
:1048D000601C09E000040240000C02400008024095
:1048E0000000024000100240C0B2044616E04FF43F
:1048F0000061FE4801F054FB012802D1601CC0B2E7
:1049000004460BE04FF40051F84801F049FB012840
:1049100002D1601CC0B2044600E000BF00BF012D00
:1049200001D0022D06D1012C02D10120BDE8F08179
:104930000020FBE7032D05D1022C01D10120F5E772
:104940000020F3E700BFF1E710B58021E84801F04F
:1049500027FB012811D14103E44801F021FB012884
:104960000BD12021E24801F01BFB30B94FF400616C
:10497000DE4801F015FB00287ED08021DC4801F0E4
:104980000FFB01281DD14103D84801F009FB012884
:1049900017D12021D64801F003FB012811D1C10213
:1049A000D24801F0FDFA01280BD18021D14801F055
:1049B000F7FA30B94FF40071CC4801F0F1FA002851
:1049C000DAD08021CA4801F0EBFA40BB4FF4005125
:1049D000C64801F0E5FA10BB2021C54801F0E0FA15
:1049E00001281CD1C102C14801F0DAFA012816D110
:1049F0008021C04801F0D4FA012810D14102BB48FF
:104A000001F0CEFA01280AD12021BA4801F0C8FAF3
:104A100028B98021B54801F0C3FA0028ACD0202184
:104A2000B34801F0BDFA40BB4FF40061AF4801F05C
:104A3000B7FA10BB8021AF4801F0B2FA01281FD1AC
:104A40004102AA4801F0ACFA012819D12021A94855
:104A500001F0A6FA012813D18021A44801F0A0FAA0
:104A600001280DD10821A34801F09AFA28B90121A3
:104A70009F4801F095FA01E095E001E000289FD001
:104A800080219C4801F08CFA40BB4FF4007197489C
:104A900001F086FA10BB2021964801F081FA012826
:104AA0001CD18021914801F07BFA012816D1082100
:104AB000904801F075FA012810D101218C4801F0CD
:104AC0006FFA01280AD102218A4801F069FA28B94F
:104AD0001021894801F064FA002864D0202185481B
:104AE00001F05EFA30BB8021804801F059FA08BB22
:104AF0000821804801F054FA01281BD101217C488B
:104B000001F04EFA012815D102217A4801F048FA45
:104B100001280FD11021784801F042FA012809D16B
:104B20000103754801F03CFA20B94021734801F0B7
:104B300037FAC0B308216F4801F032FAE0B9012119
:104B40006B4801F02DFAB8B902216A4801F028FA41
:104B5000012811D11021684801F022FA01280BD157
:104B60000103654801F01CFA012805D14021634882
:104B700001F016FA012816D002215E4801F010FA61
:104B800098B910215C4801F00BFA70B94FF48051CC
:104B9000594801F005FA012807D14021574801F092
:104BA000FFF9012801D1012010BD8021504801F0FA
:104BB000F7F901281DD141034C4801F0F1F9012812
:104BC00017D120214A4801F0EBF9012811D1C10287
:104BD000464801F0E5F901280BD18021454801F054
:104BE000DFF9012805D14102404801F0D9F9012837
:104BF0007AD020213E4801F0D3F901281DD1C1020D
:104C00003A4801F0CDF9012817D18021394801F047
:104C1000C7F9012811D14102344801F0C1F9012836
:104C20000BD12021334801F0BBF9012805D18021A7
:104C30002E4801F0B5F9012878D080212D4801F0E7
:104C4000AFF901281DD14102284801F0A9F9012836
:104C500017D12021274801F0A3F9012811D1802183
:104C6000224801F09DF901280BD10821214801F0CB
:104C700097F9012805D101211D4801F091F901287A
:104C800054D020211B4801F08BF901281DD180212F
:104C9000164801F085F9012817D10821154801F0BF
:104CA0007FF9012811D10121114801F079F901287A
:104CB0000BD102210F4801F073F9012805D1102111
:104CC0000D4801F06DF9012830D00821094801F0A4
:104CD00067F901282CD10121054801F061F901286B
:104CE00026D1022103480BE020E000000010024022
:104CF00000040240000C0240000802400000024094
:104D000001F04EF9012813D11021FE4801F048F9B5
:104D100001280DD10103FB4801F042F9012807D118
:104D20004021F94801F03CF9012801D102203BE77C
:104D3000002039E710B58021F44801F031F900BBBB
:104D40002021F24801F02CF9D8B98021F04801F077
:104D500027F9B0B92021EE4801F022F988B90821DD
:104D6000EB4801F01DF960B90221E94801F018F99A
:104D700038B94FF48051E34801F012F908B9012025
:104D800010BD0020FCE710B54021DF4801F008F914
:104D900010BB1021DB4801F003F9E8B90121DB4821
:104DA00001F0FEF8C0B98021DA4801F0F9F898B9AD
:104DB0004FF40071D74801F0F3F868B94FF400617F
:104DC000D44801F0EDF838B94FF40051D14801F062
:104DD000E7F808B9012010BD0020FCE770B50546D2
:104DE00000248021C94801F0DBF8012801D1601CB2
:104DF000C4B22021C54801F0D3F8012801D1601CBC
:104E0000C4B28021C24801F0CBF8012801D1601C56
:104E1000C4B22021BE4801F0C3F8012801D1601CB2
:104E2000C4B20821BA4801F0BBF8012801D1601CC6
:104E3000C4B20221B64801F0B3F8012801D1601CC8
:104E4000C4B24FF48051AF4801F0AAF8012801D153
:104E5000601CC4B2AC4201DB012070BD0020FCE745
:104E600010B54FF48051A74801F09AF810BB022109
:104E7000A74801F095F8E8B90821A54801F090F895
:104E8000C0B92021A24801F08BF898B980219F4831
:104E900001F086F801280BD020219C4801F080F811
:104EA000012805D080219A4801F07AF8012801D123
:104EB000012010BD0020FCE710B58021934801F0CF
:104EC0006FF818BB2021914801F06AF8F0B98021F1
:104ED0008F4801F065F8C8B920218D4801F060F8CD
:104EE000A0B94FF48051874801F05AF801280BD03F
:104EF0000221874801F054F8012805D00821844890
:104F000001F04EF8012801D1012010BD0020FCE77E
:104F100010B54FF480517B4801F042F808BB0221E4
:104F20007B4801F03DF8E0B98021784801F038F87D
:104F3000B8B92021754801F033F890B98021744840
:104F400001F02EF801280CD12021714801F028F839
:104F5000012806D108216E4801F022F8012800D16D
:104F600010BD0020FCE710B59FED6B2AF3EE0E1A82
:104F7000BBEE0E1AFBEE0E0AB3EE0E0AFCF772FC45
:104F8000012000F01DFA10BD10B59FED632AFBEE65
:104F90000E1AB3EE0E1AF3EE0E0ABBEE0E0AFCF773
:104FA00061FC012000F00CFA10BD10B59FED5A2AEB
:104FB000F3EE0E1AB3EE0E1AFBEE0E0ABBEE0E0A5D
:104FC000FCF750FC012000F0FBF910BD10B59FED7F
:104FD000522AFBEE0E1ABBEE0E1AF3EE0E0AB3EED9
:104FE0000E0AFCF73FFC012000F0EAF910BD10B5F5
:104FF0009FED492ADFED481A9FED471ADFED460A7B
:105000009FED450AFCF72EFC012000F0D9F910BDF8
:1050100010B59FED412AF3EE0E1AB3EE0E1AF3EE21
:105020000E0AB3EE0E0AFCF71DFC012000F0C8F9D1
:1050300010BD10B59FED382AFBEE0E1ABBEE0E1A0E
:10504000FBEE0E0ABBEE0E0AFCF70CFC012000F092
:10505000B7F910BD00203149087031490870314955
:1050600008703149087031490870704710B5FFF772
:105070006BFC01281FD12B48007801281BD1002090
:1050800029490870022027490870002410E02448AC
:105090000078042802D1FFF7BBFF07E02048007822
:1050A000052802D1FFF7C5FF00E003E0601CC4B291
:1050B000012CECDB0DE0FFF747FC022809D1194871
:1050C0000078012805D100201749087002201549F1
:1050D00008701448007858BB114800780F490870D0
:1050E00002200F4908701048007808BB802107484B
:1050F00000F056FF012822D14103064800F050FF7E
:10510000012816E0000802400000024000040240AE
:10511000000C024000100240000000002D000020A2
:105120002C0000202E000020300000202F00002046
:1051300025E004D16A4908706A4908701FE0FFF74A
:10514000F9FD68B14FF40051674800F029FF0128CC
:1051500006D10220624908700120624908700EE001
:105160008021624800F01CFF012808D1FFF70BFEE8
:1051700028B103205A49087001205A49087059483B
:10518000007801284FD156480078012818D12021F5
:10519000574800F005FF01280AD102205149087044
:1051A00054480078544908700120524908703AE088
:1051B000504800785049087003204E49087032E08A
:1051C00047480078022815D18021494800F0E8FEC0
:1051D000012807D14748007847490870042045490D
:1051E000087020E043480078434908700320414993
:1051F000087018E03A480078032814D180213A4812
:1052000000F0CEFE012807D13A4800783A490870EC
:1052100005203849087006E036480078364908709D
:105220000320344908702F48007802281FD1FFF767
:105230006FFE38B12F4800782F49087001202D49A2
:10524000087014E0FFF738FE38B12A4800782A4980
:10525000087002202749087009E0FFF701FE30B10D
:105260002448007824490870032022490870214806
:105270000078062816D2DFE800F00C0306090F12AA
:10528000FFF771FE12E0FFF790FE0FE0FFF79EFEC2
:105290000CE0FFF7ACFE09E0FFF7BAFE06E0FFF70F
:1052A000C8FE03E00A2000F08BF800BF00BF062014
:1052B000FFF794FD88B10B48007802280DD1FFF765
:1052C00096FE00200B4908700B4908700A2005491A
:1052D000087003490870012010BD0020FCE70000A1
:1052E000300000202E000020001002400004024088
:1052F000000C02402C0000202D00002010B50446B8
:105300006FF0040000F046FDE11704EB5171C1F3AA
:10531000C701394A11701046007800EB4001C1EB1B
:10532000C0104FF6FF7101EAC0003449088010BD7B
:105330000146314A12784A434FF0E0235A61002275
:105340009A611A46126942F001021A6100BF4FF0D9
:10535000E022106900F001021AB100F48032002A44
:10536000F5D04FF0E022126922F001024FF0E02365
:105370001A6100229A6170470146204A12884A4306
:105380004FF0E0235A6100229A611A46126942F0F6
:1053900001021A6100BF4FF0E022106900F0010223
:1053A0001AB100F48032002AF5D04FF0E0221269E1
:1053B00022F001024FF0E0231A6100229A61704747
:1053C00070B504464FF4077094FBF0F0C6B24FF48A
:1053D000077094FBF0F100FB114085B205E04FF43B
:1053E0000770FFF7C9FF701EC6B2002EF7D115B1C6
:1053F0002846FFF7C1FF70BD3200002034000020B6
:1054000000BF704700BFFE4A128802F04002002A27
:10541000F9D0C2B2FA4B9A80704710B588B00446F2
:105420000121084600F0F8FF0121102001F04EF89C
:1054300007220921F34800F0DCFD07220A21F14888
:1054400000F0D7FD4FF4C060069002208DF81C00DC
:105450008DF81D0000208DF81E0001208DF81F0022
:1054600006A9E84800F03AFD02940020ADF80C00CF
:10547000ADF80E00ADF81000ADF814000C20ADF83A
:10548000120002A9DE4801F082F90121DC4801F096
:1054900006FA012240F22551D94801F0B6FA25203A
:1054A0008DF8040003208DF805008DF8060001201A
:1054B0008DF8070001A800F020FC08B010BD10B561
:1054C00088B004460121022000F0A6FF01218804D3
:1054D00000F0EBFF07220B21CB4800F08AFD0722EA
:1054E0000A21C94800F085FD4FF440600690022073
:1054F0008DF81C008DF81D0000208DF81E00012085
:105500008DF81F0006A9C04800F0E8FC02940020B6
:10551000ADF80C00ADF80E00ADF81000ADF81400B9
:105520000C20ADF8120002A9B84801F030F90121B1
:10553000B64801F0B4F9012240F22551B34801F018
:1055400064FA27208DF8040001208DF80500002062
:105550008DF8060001208DF8070001A800F0CDFBB2
:1055600008B010BD10B588B004460121084600F00F
:1055700053FF0121480400F098FF07220321A148AE
:1055800000F037FD072202219E4800F032FD0C207A
:10559000069002208DF81C008DF81D0000208DF86B
:1055A0001E0001208DF81F0006A9964800F096FC09
:1055B00002940020ADF80C00ADF80E00ADF810001C
:1055C000ADF814000C20ADF8120002A9904801F0CB
:1055D000DEF801218E4801F062F9012240F22551E6
:1055E0008B4801F012FA26208DF8040001208DF876
:1055F000050000208DF8060001208DF8070001A8A5
:1056000000F07BFB08B010BD10B588B00446012146
:10561000042000F001FF0121202000F057FF0822A4
:1056200006217C4800F0E5FC08220721794800F0BB
:10563000E0FCC020069002208DF81C008DF81D00B3
:1056400000208DF81E0001208DF81F0006A971486A
:1056500000F044FC02940020ADF80C00ADF80E0000
:10566000ADF81000ADF814000C20ADF8120002A93E
:10567000694801F08CF80121674801F010F9012216
:1056800040F22551644801F0C0F947208DF804002C
:1056900001208DF8050000208DF8060001208DF80E
:1056A000070001A800F029FB08B010BDFEB50546B3
:1056B0000C460026002000900190029000BF80213F
:1056C000524801F0C7F90028F9D057214F4801F09E
:1056D00011F900BF40214D4801F0BCF90028F9D074
:1056E00000BF8021494801F0B5F90028F9D02946CA
:1056F000464801F0FFF800BF4021444801F0AAF9F4
:105700000028F9D00F20FFF75BFE45E043480088F2
:10571000752802D0002042490870414800780828C6
:105720002FD100203E4908703C48C089072827D166
:105730003A484088009000980002009037498988D4
:10574000009808430090009820603448C088019079
:10575000019800020190314909890198084301909C
:10576000019860602D4840890290029800020290E2
:105770002A4989890298084302900298A0600CE0A7
:105780000BE00120FFF71CFE701CC6B20A2E03D1ED
:1057900000202349087000E0B8E700BFFEBDFEB559
:1057A00005460C460026002000900190029000BFA4
:1057B0008021174801F04EF90028F9D057211448EC
:1057C00001F098F800BF4021114801F043F900288A
:1057D000F9D000BF80210E4801F03CF90028F9D033
:1057E00029460B4801F086F800BF4021084801F027
:1057F00031F90028F9D00F20FFF7E2FD58E0000052
:105800000010014000000240000402400048004037
:1058100000440040000802400014014080040020C1
:105820003E000020FC480088752802D00020FB497B
:105830000870FA48007808282FD10020F74908702E
:10584000F548C089072827D1F34840880090009880
:1058500000020090F0498988009808430090009861
:105860002060ED48C0880190019800020190EA494B
:10587000098901980843019001986060E6484089D1
:105880000290029800020290E34989890298084335
:1058900002900298A0600CE00BE00120FFF790FD61
:1058A000701CC6B20A2E03D10020DC49087000E04B
:1058B000B8E700BFFEBDFEB505460C460026002039
:1058C00000900190029000BF8021D54801F0C2F8FD
:1058D0000028F9D05721D24801F00CF800BF402130
:1058E000CF4801F0B7F80028F9D000BF8021CC489C
:1058F00001F0B0F80028F9D02946C94800F0FAFFB5
:1059000000BF4021C64801F0A5F80028F9D00F20BB
:10591000FFF756FD45E0C3480088752802D00020F7
:10592000C1490870C048007808282FD10020BE491E
:105930000870BC48C089072827D1BA484088009021
:10594000009800020090B7498988009808430090A9
:1059500000982060B348C08801900198000201902F
:10596000B049098901980843019001986060AD48E9
:1059700040890290029800020290AA4989890298FF
:10598000084302900298A0600CE00BE00120FFF7B2
:1059900017FD701CC6B20A2E03D10020A249087060
:1059A00000E0B8E700BFFEBD70B504460E461546E0
:1059B00000BF80219D4801F04DF80028F9D04C210E
:1059C0009A4800F097FF00BF4021984801F042F844
:1059D0000028F9D000BF8021944801F03BF800284E
:1059E000F9D02146914800F085FF00BF40218F4843
:1059F00001F030F80028F9D000BF80218B4801F079
:105A000029F80028F9D03146884800F073FF00BF1C
:105A10004021864801F01EF80028F9D000BF8021FF
:105A2000824801F017F80028F9D029467F4800F095
:105A300061FF00BF40217D4801F00CF80028F9D03B
:105A400070BD70B504460E46154600BF80217848EB
:105A500001F000F80028F9D04C21754800F04AFF09
:105A600000BF4021724800F0F5FF0028F9D000BFC8
:105A700080216F4800F0EEFF0028F9D021466C48E5
:105A800000F038FF00BF4021694800F0E3FF002824
:105A9000F9D000BF8021664800F0DCFF0028F9D073
:105AA0003146634800F026FF00BF4021604800F007
:105AB000D1FF0028F9D000BF80215D4800F0CAFF67
:105AC0000028F9D029465A4800F014FF00BF4021B1
:105AD000574800F0BFFF0028F9D070BD70B50446EC
