:020000040800F2
:10000000100B0020113A0008850300088703000840
:100010008B0300088F030008930300080000000012
:10002000000000000000000000000000970300082E
:1000300099030008000000009B0300089D030008CE
:100040002B3A00082B3A00082B3A00082B3A0008FC
:100050002B3A00082B3A00082B3A00082B3A0008EC
:100060002B3A00082B3A00082B3A00082B3A0008DC
:100070002B3A00082B3A00082B3A00082B3A0008CC
:100080002B3A00082B3A00082B3A0008C906000852
:10009000DF0600082B3A00082B3A00082B3A00082C
:1000A0002B3A00082B3A00082B3A00082B3A00089C
:1000B0002B3A00082B3A00082B3A00082B3A00088C
:1000C0002B3A00082B3A00082B3A00082B3A00087C
:1000D0002B3A0008D7380008A93900085139000820
:1000E0002B3A00082B3A00082B3A00082B3A00085C
:1000F0002B3A00082B3A00082B3A00082B3A00084C
:100100002B3A00082B3A00082B3A00082B3A00083B
:100110002B3A00082B3A00082B3A00082B3A00082B
:100120002B3A00082B3A00082B3A00082B3A00081B
:100130002B3A00082B3A00082B3A00082B3A00080B
:100140002B3A00082B3A00082B3A00082B3A0008FB
:100150002B3A00082B3A00082B3A0008D139000846
:100160002B3A00082B3A00082B3A00082B3A0008DB
:100170002B3A00082B3A00082B3A00082B3A0008CB
:100180002B3A00082B3A000800F002F800F03CF887
:100190000AA090E8000C82448344AAF10107DA45E2
:1001A00001D100F031F8AFF2090EBAE80F0013F0F8
:1001B000010F18BFFB1A43F001031847D06200007B
:1001C000F0620000103A24BF78C878C1FAD852070C
:1001D00024BF30C830C144BF04680C6070470000C1
:1001E0000023002400250026103A28BF78C1FBD840
:1001F000520728BF30C148BF0B6070471FB506F0DB
:100200003AF91FBD10B510BD05F0B8FE1146FFF755
:10021000F5FF00F06CF805F0D6FE03B4FFF7F2FF2F
:1002200003BC02F09DFF0000014600220020514B5C
:1002300018600AE050484F4B1B6850F823000244F6
:100240004C480068401C4B4B18604A480068032823
:10025000F0DB022A15D10020464B18600DE046481D
:10026000444B1B6850F8230010B94248006870479F
:1002700040480068401C3F4B18603E480068032817
:10028000EDDB012A13D1012907D13B484068012841
:1002900001D10020EBE70120E9E7022907D1364828
:1002A0000068012801D10220E1E70020DFE73AB928
:1002B000012901D10120DAE7022901D10020D6E786
:1002C00000BFD4E72D488068002801DD0120704779
:1002D0002A480068002801DD0020F8E72748006967
:1002E000002801DD0220F2E74FF0FF30EFE70EB506
:1002F00000BF00BF4FF4E13002F03FFF4FF4E130A8
:1003000002F0E0FF4FF4E13002F089FF4FF4E130FA
:1003100003F02AF8A82002F0A1FE4FF4A06003F039
:1003200097FB01F02FFB01F04BFB00F033FD00F0D9
:10033000F3FF00F03DF902F022FA01F0C6FA00BF27
:1003400000200F490860401E0290019000900FE0CD
:1003500002F041FE0090052002F0E2FE02F048FDAE
:100360000290029802F0BEFD01900A2002F0D8FE31
:10037000EEE70000100000206C0000205400002078
:100380000C000020704700BFFEE700BFFEE700BF83
:10039000FEE700BFFEE770477047704770470000F8
:1003A0000CB50020019000907648006840F4803041
:1003B0007449086000BF7348006800F40030009082
:1003C0000198401C0190009818B90198B0F5A04F11
:1003D000F1D16C48006800F4003010B101200090A9
:1003E00001E0002000900098012846D16548403087
:1003F000006840F0805063494031086062480068FE
:1004000040F44040604908605E48083000685D493B
:10041000083108600846006840F40040086008465B
:10042000006840F4A05008605848091F0860081F81
:10043000006840F08070091F086000BF51480068E4
:1004400000F000700028F9D040F2057050490860B3
:100450004C480830006820F003004A490831086021
:100460000846006840F00200086000BF45480830B8
:10047000006800F00C000828F8D10CBD10B5454804
:10048000006840F47000434908603E48006840F04E
:1004900001003C49086000203A49083108603948A9
:1004A00000683D490840374908603C48091D08601C
:1004B000081F006820F48020091F086000203149CF
:1004C0000C310860FFF76CFF4FF000603149803954
:1004D000086010BD70B50020002202230024022114
:1004E000284D08352D6805F00C0020B1042806D0F1
:1004F000082834D107E02A4D2A4E356033E02A4DD2
:10050000284E35602FE01F4D2D1D2D68C5F38054FA
:100510001C4D2D1D2D6805F03F0154B1224DB5FB3A
:10052000F1F5184E361D3668C6F3881605FB06F23F
:1005300009E01B4DB5FBF1F5124E361D3668C6F3CA
:10054000881605FB06F20F4D2D1D2D68C5F30145DC
:100550006D1C6B00B2FBF3F5124E356003E0104DDD
:10056000104E356000BF00BF064D08352D68C5F33D
:1005700003150E4E705D0B4D2D68C540094E35605C
:1005800070BD000000380240007000400854400771
:10059000003C024088ED00E0FFFFF6FE1030002432
:1005A0000024F4001400002000127A00180000203B
:1005B00000B58BB00121084603F0DEFD012148069D
:1005C00003F023FE4FF4C050099002208DF828005C
:1005D00000208DF82A0003208DF8290001208DF8D5
:1005E0002B0009A9FE4803F029FB09220B21FC4836
:1005F00003F0AFFB09220C21F94803F0AAFBF948EC
:1006000004F038F906A804F059FA00208DF81E000D
:100610008DF81F008DF8200001208DF821000020AA
:100620008DF822008DF823008DF81A008DF81B003C
:1006300008208DF81C0003208DF81D00ADF818006F
:1006400006A9E84804F02FF900208DF812008DF873
:10065000130001208DF814000020ADF80800ADF85B
:100660000A00ADF80C00ADF80E00ADF81000012046
:100670008DF8150002A804F0A0F901220221D94842
:1006800004F09AFC01221146D64804F095FC14208F
:100690008DF8040002208DF8050001208DF8060079
:1006A0008DF8070001A803F0D8F913208DF8040095
:1006B00001208DF805008DF806008DF8070001A8CF
:1006C00003F0CBF90BB000BD10B50121C54804F013
:1006D000DBFC18B10121C34804F071FD10BD00B569
:1006E0002DED048B93B00EAA0021BE4804F049FB07
:1006F00040F201210E9888427ED10EA8017CC07B79
:1007000041EA002000B200EE100AB8EEC00AB64876
:1007100080ED050A0EA8827B407B42EA002000B2F1
:1007200000EE100AB8EEC00A10EE101A084605F0E6
:1007300031FE41EC190B9FEDAD0B53EC102B05F086
:100740007DFC41EC180B05F047FC00EE100AA648B2
:1007500080ED030A008B68B9A348408B50B90EA8FE
:10076000007B9DF8431040EA012000B29E49488377
:1007700008830CE09C48408B9B4908830EA8007BB3
:100780009DF8431040EA012000B2974948839648FB
:1007900090ED000A8DED050A90ED010A8DED060A37
:1007A00090ED020A8DED070A90ED030A8DED080A1F
:1007B00090ED040A8DED090A90ED050A8DED0A0A07
:1007C000008BADF82C008848408BADF82E00864891
:1007D000C0690C90844890F820008DF834001422F1
:1007E00009A9684605F090FB05A80FC800F09CFA1F
:1007F0007D48D0ED010A00E004E030EE200A80EDF3
:10080000010A33E240F202210E9888427ED10EA8FE
:10081000017CC07B41EA002000B200EE100AB8EE75
:10082000C00A744880ED050A0EA8827B407B42EA2C
:10083000002000B200EE100AB8EEC00A10EE101A46
:10084000084605F0A7FD41EC190B9FED680B53EC32
:10085000102B05F0F3FB41EC180B05F0BDFB00EE8F
:10086000100A644880ED030A008B68B96148408B28
:1008700050B90EA8007B9DF8431040EA012000B259
:100880005C49488308830CE05A48408B59490883E7
:100890000EA8007B9DF8431040EA012000B25549A4
:1008A0004883544890ED000A8DED050A90ED010A49
:1008B0008DED060A90ED020A8DED070A90ED030A10
:1008C0008DED080A90ED040A8DED090A90ED050AF8
:1008D0008DED0A0A008BADF82C004648408BADF830
:1008E0002E004448C0690C90424890F820008DF8D2
:1008F0003400142209A9684605F006FB05A80FC8B4
:1009000000F012FA3B48D0ED010A00E004E030EEBE
:10091000200A80ED010AA9E140F203210E988842E5
:100920005DD10EA8017CC07B41EA002000B200EE40
:10093000100AB8EEC00A304880ED050A0EA8827B86
:10094000407B42EA002000B200EE100AB8EEC00A76
:1009500010EE101A084605F01DFD41EC190B9FED35
:10096000230B53EC102B05F069FB41EC180B05F041
:1009700033FB00EE100A204880ED030A008B68B9B3
:100980001D48408B50B90EA8007B9DF8431040EAEB
:10099000012000B21849488308830CE01648408BB8
:1009A000154908830EA8007B9DF8431040EA0120FA
:1009B00000B211494883104890ED000A8DED050AF8
:1009C00090ED010A8DED060A90ED020A8DED070A01
:1009D00090ED030A8DED080A90ED040A0EE033E075
:1009E0000000024000640040780000200000000089
:1009F000000033409C000020C00000208DED090A5B
:100A000090ED050A8DED0A0A008BADF82C00BD486B
:100A1000408BADF82E00BB48C0690C90B94890F8E7
:100A200020008DF83400142209A9684605F06CFAFC
:100A300005A80FC800F078F9B248D0ED010A30EEF1
:100A4000200A80ED010A11E10E98B0F5017F7CD1FA
:100A50000EA8017CC07B41EA002000B200EE100A23
:100A6000B8EEC00AA84880ED050A0EA8827B407B3C
:100A700042EA002000B200EE100AB8EEC00A10EE02
:100A8000101A084605F086FC41EC190B1FED290BE6
:100A900053EC102B05F0D2FA41EC180B05F09CFA40
:100AA00000EE100A984880ED030A008B68B996485A
:100AB000408B50B90EA8007B9DF8431040EA0120FE
:100AC00000B29149488308830CE08F48408B8E49DF
:100AD00008830EA8007B9DF8431040EA012000B275
:100AE00089494883884890ED000A8DED050A90ED0C
:100AF000010A8DED060A90ED020A8DED070A90EDD0
:100B0000030A8DED080A90ED040A8DED090A90EDB7
:100B1000050A8DED0A0A008BADF82C007A48408B4F
:100B2000ADF82E007848C0690C90774890F8200006
:100B30008DF83400142209A9684605F0E5F905A8E6
:100B40000FC800F0F1F8704800E006E0D0ED010AAF
:100B500030EE200A80ED010A88E040F205210E986F
:100B600088427CD10EA8017CC07B41EA002000B203
:100B700000EE100AB8EEC00A644880ED050A0EA81F
:100B8000827B407B42EA002000B200EE100AB8EE01
:100B9000C00A10EE101A084605F0FCFB41EC190BD8
:100BA0001FED6E0B53EC102B05F048FA41EC180BBF
:100BB00005F012FA00EE100A544880ED030A008B8B
:100BC00068B95248408B50B90EA8007B9DF843107D
:100BD00040EA012000B24D49488308830CE04B48AD
:100BE000408B4A4908830EA8007B9DF8431040EAD9
:100BF000012000B245494883444890ED000A8DED3C
:100C0000050A90ED010A8DED060A90ED020A8DEDC0
:100C1000070A90ED030A8DED080A90ED040A8DEDA8
:100C2000090A90ED050A8DED0A0A008BADF82C003B
:100C30003648408BADF82E003448C0690C903348DC
:100C400090F820008DF83400142209A9684605F0B8
:100C50005BF905A80FC800F067F82C4800E005E034
:100C6000D0ED010A30EE200A80ED010A13B0BDEC90
:100C7000048B00BDF0B585B004460D4616461F46F0
:100C800000208DF808008DF8090008208DF80A0072
:100C900080010090200A8DF80B00E1B28DF80C1055
:100CA000290A8DF80D10E9B28DF80E10310A8DF871
:100CB0000F10F1B28DF81010390A8DF81110F9B239
:100CC0008DF812106946124803F066FF05B0F0BDBA
:100CD00010B586B0044600208DF80C008DF80D008C
:100CE00002208DF80E0040F2FF100190200A8DF8CE
:100CF0000F008DF8104001A9054803F04DFF06B024
:100D000010BD0000C0000020E40000200801002009
:100D100000640040B5EEC00AF1EE10FA03D2F1EE25
:100D2000400AB0EE600A70470FB400B5BDF91E006E
:100D3000BDF91C10401A01EE100AB8EEC10AFFF707
:100D4000E9FFDFEDFE0AB4EEE00AF1EE10FA11DD84
:100D5000B8EEC10AFFF7DEFFF8EEC11AC1EE800A55
:100D6000B8EEC10ADFEDF61A00EEE10ABDEEC00AE8
:100D7000B0EE401AB8EEC10ADFEDF20A20EE200A0A
:100D8000F3EE031AC0EE210ADFEDED1A80EEA10AA0
:100D90005DF814FB9FEDEC0AEC4880ED010A9FED35
:100DA000EA0AEB4880ED010A9FEDE70AE94880ED89
:100DB000010A9FEDE50AE84880ED010A9FEDE20A8D
:100DC000E64880ED010A0120E04981F82000E04971
:100DD00081F82000DF4981F82000DF4981F82000F8
:100DE000DE4981F820009FEDD80AD84880ED020A3C
:100DF0009FEDD50AD64880ED020A9FEDD30AD5486B
:100E000080ED020A9FEDD00AD34880ED020A9FEDE3
:100E1000CE0A084680ED020A70479FEDD10AD148FC
:100E200080ED000A9FEDD00A80ED010A9FEDC60A11
:100E300080ED020A9FEDCD0A80ED030A9FEDCC0AFA
:100E400080ED040A9FEDC00A80ED050A9FEDBE0A01
:100E500080ED060A0020C349C8619FEDC10AC5485C
:100E600080ED000A9FEDC00A80ED010A9FEDB60AF1
:100E700080ED020A9FEDBD0A80ED030A9FEDBC0ADA
:100E800080ED040A9FEDB00A80ED050A9FEDAE0AE1
:100E900080ED060A0020B749C8619FEDB10AB64847
:100EA00080ED000A9FEDB00A80ED010A9FEDA60AD1
:100EB00080ED020A9FEDAD0A80ED030A9FEDAC0ABA
:100EC00080ED040A9FEDA00A80ED050A9FED9E0AC1
:100ED00080ED060A0020A849C8619FEDA10AA74835
:100EE00080ED000A9FEDA00A80ED010A9FED960AB1
:100EF00080ED020A9FED9D0A80ED030A9FED9C0A9A
:100F000080ED040A9FED900A80ED050A9FED8E0AA0
:100F100080ED060A00209949C8619FED910A984822
:100F200080ED000A9FED900A80ED010A9FED860A90
:100F300080ED020A9FED8D0A80ED030A9FED8C0A79
:100F400080ED040A9FED800A80ED050A9FED7E0A80
:100F500080ED060A00208A49C86170479FED890A22
:100F6000894880ED000AB1EE040A80ED010A9FED88
:100F7000760A80ED020A9FED7D0A80ED030A9FED5F
:100F8000830A80ED040A9FED700A80ED050A9FED4B
:100F90006E0A80ED060A00207B49C8619FED7C0A3D
:100FA000084680ED090A9FED7B0A80ED080A9FED57
:100FB000750A794880ED000AB1EE040A80ED010A55
:100FC0009FED610A80ED020A9FED680A80ED030A39
:100FD0009FED6E0A80ED040A9FED5B0A80ED050A25
:100FE0009FED590A80ED060A00206B49C8619FED0C
:100FF000680A084680ED090A9FED660A80ED080A36
:101000009FED600A654880ED000AB1EE040A80EDAC
:10101000010A9FED4D0A80ED020A9FED540A80ED12
:10102000030A9FED5A0A80ED040A9FED470A80EDFE
:10103000050A9FED450A80ED060A00205749C86160
:101040009FED530A084680ED090A9FED520A80ED94
:10105000080A9FED4C0A524880ED000AB1EE040ADE
:1010600080ED010A9FED380A80ED020A9FED3F0AEC
:1010700080ED030A9FED450A80ED040A9FED320AD8
:1010800080ED050A9FED300A80ED060A00204449F4
:10109000C8619FED3F0A084680ED090A9FED3D0AB1
:1010A00080ED080A9FED3F0A3F4880ED000AB1EE4F
:1010B000040A80ED010A9FED240A80ED020A9FEDEB
:1010C0002B0A80ED030A9FED310A80ED040A9FEDA3
:1010D0001E0A80ED050A9FED1C0A80ED060A00201D
:1010E0003149C8619FED2A0A084680ED090A9FED43
:1010F000290A80ED080A70479FED2C0A2C4880EDE4
:10110000000A9FED110A80ED010A9FED2A0A80ED89
:10111000020A9FED160A80ED030A9FED270A80ED73
:10112000040A9FED090A80ED050A9FED070A80ED8C
:10113000060A00201E49C86140E0000000007A4510
:10114000000000460000B4430000000078000020CA
:101150009C000020C0000020E400002008010020C6
:101160006666A63F7C0100208FC2F53C00007A46EF
:1011700000806D45F40100206C020020E402002094
:101180005C03002000007A435401002000409C458D
:1011900000007A440000C843CC0100204402002033
:1011A000BC02002000005C433403002085EBD13EEC
:1011B0002C01002017B7D1380000FA44B3EE040A1E
:1011C000084680ED090A9FEDFB0A80ED080A1FED35
:1011D000090AF94880ED000A1FED250A80ED010A91
:1011E0001FED0C0A80ED020A1FED200A80ED030AB4
:1011F0001FED0F0A80ED040A1FED2D0A80ED050A90
:101200001FED2F0A80ED060A0020EB49C861B3EEFE
:10121000040A084680ED090A9FEDE60A80ED080AF7
:101220001FED1E0AE54880ED000A1FED390A80ED2A
:10123000010A1FED200A80ED020A1FED340A80ED3D
:10124000030A1FED230A80ED040A1FED410A80ED19
:10125000050A1FED430A80ED060A0020D749C86140
:10126000B3EE040A084680ED090A9FEDD20A80ED2C
:10127000080A1FED320AD24880ED000A1FED4E0A1F
:1012800080ED010A1FED350A80ED020A1FED490AC3
:1012900080ED030A1FED380A80ED040A1FED560A9F
:1012A00080ED050A1FED580A80ED060A0020C449AA
:1012B000C861B3EE040A084680ED090A9FEDBD0A35
:1012C00080ED080AB7EE000ABE4880ED000A1FED67
:1012D000620A80ED010A9FEDBC0A80ED020A1FED53
:1012E0005D0A80ED030A1FED4C0A80ED040A1FED34
:1012F0006A0A80ED050A1FED6C0A80ED060A0020DF
:10130000B049C861B3EE040A084680ED090A9FEDB2
:10131000A90A80ED080A704700B5FFF77EFDFFF7C8
:101320001DFEFFF7E9FE00BD00B5B0EE403AF0EE5D
:10133000603A33EE630AB0EE401AC169012914D154
:10134000B0EE410AFFF7E6FCD0ED090AB4EEE00A80
:10135000F1EE10FA04DB90ED080A60EE011A08E0E5
:1013600090ED000A60EE011A03E090ED000A60EED5
:10137000011A90ED010A20EE015A90ED050A30EEB7
:10138000052A90ED040AB4EEC20AF1EE10FA04D276
:1013900090ED040A80ED050A15E090ED040AFFEED9
:1013A000000A20EE200AB4EEC20AF1EE10FA08DDBF
:1013B00090ED040AFFEE000A20EE200A80ED050AF7
:1013C00001E080ED052A90ED060A31EE404A90EDED
:1013D000020A60EE044A80ED061A90ED050A30EE2E
:1013E000210A70EE242A90ED030AB4EEE20AF1EE2F
:1013F00010FA02D890ED030A00BD90ED030AFFEE4B
:10140000000A20EE200AB4EEE20AF1EE10FA06DD40
:1014100090ED030AFFEE000A20EE200AECE7B0EEA2
:10142000620AE9E710B5694890F82000012814D055
:10143000022802D0052833D11FE0644890ED011A3C
:10144000F0EE410A90ED001AB0EE410A6048FFF755
:101450006BFF5E4880ED020A00BF5C4890ED031A06
:10146000F0EE410A90ED021AB0EE410A5948FFF73A
:101470005BFF564880ED040A00BF544890ED051A02
:10148000F0EE410A90ED041AB0EE410A5248FFF71F
:101490004BFFBDEEC00A10EE100A4C49C86100E0D7
:1014A00000BF00BF4D4890F82000012814D002284A
:1014B00002D0052833D11FE0484890ED011AF0EE24
:1014C000410A90ED001AB0EE410A3B48FFF72CFFAD
:1014D000424880ED020A00BF404890ED031AF0EE4A
:1014E000410A90ED021AB0EE410A3D48FFF71CFF99
:1014F0003A4880ED040A00BF384890ED051AF0EE36
:10150000410A90ED041AB0EE410A3648FFF70CFF8D
:10151000BDEEC00A10EE100A3049C86100E000BFFD
:1015200000BF314890F82000012814D0022802D0D2
:10153000052833D11FE02C4890ED011AF0EE410A46
:1015400090ED001AB0EE410A1C48FFF7EDFE264868
:1015500080ED020A00BF244890ED031AF0EE410A24
:1015600090ED021AB0EE410A2048FFF7DDFE1E485A
:1015700080ED040A00BF1C4890ED051AF0EE410A08
:1015800090ED041AB0EE410A1948FFF7CDFEBDEE0A
:10159000C00A10EE100A1449C86100E000BF00BF85
:1015A000144890F82000012836D0022824D00528BD
:1015B00055D141E000004842A40100201C02002057
:1015C000940200200C0300200AD7233C780000205E
:1015D0002C010020540100207C0100209C000020F0
:1015E000CC010020F4010020C000002044020020B3
:1015F0006C020020E40000208D4890ED011AF0EE0E
:10160000410A90ED001AB0EE410A8A48FFF78CFEBD
:10161000874880ED020A00BF854890ED031AF0EE7E
:10162000410A90ED021AB0EE410A8348FFF77CFEB2
:101630007F4880ED040A00BF7D4890ED051AF0EE6A
:10164000410A90ED041AB0EE410A7C48FFF76CFEA7
:10165000BDEEC00A10EE100A7549C86100E000BF77
:1016600000BF774890F82000012814D0022802D04B
:10167000052833D11FE0724890ED011AF0EE410ABF
:1016800090ED001AB0EE410A6E48FFF74DFE6C482F
:1016900080ED020A00BF6A4890ED031AF0EE410A9D
:1016A00090ED021AB0EE410A6748FFF73DFE64482C
:1016B00080ED040A00BF624890ED051AF0EE410A81
:1016C00090ED041AB0EE410A6048FFF72DFEBDEE22
:1016D000C00A10EE100A5A49C86100E000BF00BFFE
:1016E000534CE46923B25A4CE46922B2594CE46980
:1016F00021B2594CE46920B2FFF7BCFA5049C969DC
:1017000008B2FFF7E5FA10BD10B52DED068BB0EE6F
:1017100040AAB0EE608AF0EE418AB0EE619AF0EE37
:10172000429A01204C4981F820004A4981F8200062
:10173000474981F820003E4981F82000404981F85E
:101740002000454880ED02AA424880ED028A4048C8
:10175000C0ED028A364880ED029A0846C0ED029A32
:10176000FFF760FEBDEC068B10BD10B52DED068BAE
:10177000B0EE40AAB0EE608AF0EE418AB0EE619A17
:10178000F0EE429A0520344981F82000314981F871
:1017900020002F4981F82000254981F820002849A0
:1017A00081F820002C4880ED00AA2A4880ED008AAC
:1017B0002748C0ED008A1E4880ED009A0846C0ED1B
:1017C000009AFFF72FFEBDEC068B10BD10B52DED76
:1017D000068BB0EE40AAB0EE608AF0EE418AB0EE21
:1017E000619AF0EE429A02201B4981F820001949C3
:1017F00081F82000164981F820000D4981F8200069
:101800000F4981F82000144880ED00AA114880EDAE
:10181000008A0F48C0ED008A054880ED009A08460E
:10182000C0ED009AFFF7FEFDBDEC068B10BD000079
:10183000E400002094020020BC020020E40200200A
:10184000080100200C030020340300205C0300206A
:10185000C00000209C0000207800002010B52DED75
:10186000028BB0EE408AB5EEC08AF1EE10FA0ED8C7
:101870009FED3E0A28EE000ADFED3D0A80EE201AB9
:101880009FED3C0A30EE410AB0EE408A0DE09FED3C
:101890003A0A28EE000A9FED361AC0EE010A9FEDC3
:1018A000350A30EE800AB0EE408ABDEEC80AB8EEC6
:1018B000C00AB0EE408ABCEEC80A10EE101A2F48DB
:1018C00003F06DFFBDEC028B10BD00B58BB00121A4
:1018D000082002F09AFC0121084602F04DFC022289
:1018E0000121274802F035FA022009908DF82800DE
:1018F00003208DF8290000208DF82A0001208DF8A2
:101900002B0009A91E4802F099F95320ADF81800E0
:101910000020ADF81A0044F61F6007904FF4807065
:10192000ADF8200006A9154803F049FD6020ADF888
:1019300004000120ADF806000220ADF8100001A956
:101940000E4803F00AFE08210C4803F063FF012152
:101950000A4803F09FFD0121084803F0B9FDB9EEE4
:10196000040AFFF77BFF0BB000BD0000004083447A
:101970000000B44200EC9046004083C4000C0040DC
:101980000000024010B50121084602F0F5FB0121DC
:10199000022002F0F1FB0121042002F0EDFB012105
:1019A000082002F0E9FB0121102002F0E5FB0121F3
:1019B000202002F0E1FB0121402002F0DDFB10BD00
:1019C0001CB58020009000208DF8040002208DF8C6
:1019D000050001208DF807006946FE4802F02EF947
:1019E0002020009000208DF8040002208DF80500D2
:1019F00001208DF807006946F64802F01FF908201B
:101A0000009000208DF8040002208DF805000120D0
:101A10008DF807006946EF4802F010F94FF4804056
:101A2000009000208DF8040002208DF805000120B0
:101A30008DF807006946E84802F000F94FF480503D
:101A4000009000208DF8040002208DF80500012090
:101A50008DF807006946E04802F0F0F84FF4806026
:101A6000009000208DF8040002208DF80500012070
:101A70008DF807006946D84802F0E0F88020009011
:101A800000208DF8040002208DF8050001208DF85B
:101A900007006946D14802F0D1F8402000900020AC
:101AA0008DF8040002208DF8050001208DF8070054
:101AB0006946CB4802F0C2F81020009000208DF853
:101AC000040002208DF8050001208DF8070069460A
:101AD000C44802F0B3F80120009000208DF8040003
:101AE00002208DF8050001208DF807006946B948ED
:101AF00002F0A4F80420009000208DF804000220D9
:101B00008DF8050001208DF807006946B14802F004
:101B100095F84FF48050009000208DF804000220CA
:101B20008DF8050001208DF807006946AE4802F0E7
:101B300085F84FF48040009000208DF804000220CA
:101B40008DF8050001208DF807006946A64802F0CF
:101B500075F80120009000208DF8040002208DF817
:101B6000050001208DF8070069469B4802F066F8E1
:101B70001CBD10B58021974802F0C2F8012824D17D
:101B80002021944802F0BCF801281ED10821914878
:101B900002F0B6F8012818D181038F4802F0B0F89E
:101BA000012812D101038C4802F0AAF801280CD1B7
:101BB0008102894802F0A4F8012806D180218748D3
:101BC00002F09EF8012800D110BD0020FCE710B5FE
:101BD0008021804802F094F8B8B920217D4802F0B5
:101BE0008FF890B94FF480617B4802F089F860B9B2
:101BF00080217A4802F084F838B94FF48041764861
:101C000002F07EF8012800D110BD0020FCE710B5DD
:101C1000FFF7DDFF40B301216F4802F071F818BBF8
:101C20004FF48041704802F06BF8E8B94FF48051EE
:101C30006D4802F065F8B8B90421664802F060F812
:101C400090B90121634802F05BF858B11021654852
:101C500002F056F8012805D04021614802F050F802
:101C6000012801D1012010BD0020FCE710B5FFF7CD
:101C7000AEFF40B340215A4802F042F818BB102191
:101C8000584802F03DF8F0B90121524802F038F806
:101C9000C8B904214F4802F033F8A0B94FF480517D
:101CA000514802F02DF860B14FF480414E4802F0E7
:101CB00027F8012805D00121474802F021F8012822
:101CC00001D1012010BD0020FCE72DE9F0410546BF
:101CD0000F4616460024082F47D2DFE807F04604D7
:101CE0000D17212B343D80213C4802F009F80128D2
:101CF00001D1601CC4B200BF4FF48061364801F0CE
:101D0000FFFF012801D1601CC4B200BF4FF4805115
:101D1000314801F0F5FF012801D1601CC4B200BFB9
:101D20004FF480412C4801F0EBFF012801D1601CE9
:101D3000C4B200BF0821274801F0E2FF012801D109
:101D4000601CC4B212E02021224801F0D9FF012812
:101D500001D1601CC4B209E080211E4801F0D0FF0F
:101D6000012801D1601CC4B200E000BF00BF082EF2
:101D700056D2DFE806F055040D161F28404B4021CF
:101D8000174801F0BDFF012801D1601CC4B200BF9B
:101D90001021144801F0B4FF012801D1601CC4B225
:101DA00000BF01210B4801F0ABFF012801D1601CED
:101DB000C4B200BF0421074801F0A2FF012801D1ED
:101DC000601CC4B200BF4FF48051074801F098FF77
:101DD00001280BE00004024000180240000C024001
:101DE00000000240000802400014024002D1601CC2
:101DF000C0B2044615E04FF48041FE4801F080FF78
:101E0000012802D1601CC0B204460AE00121FA4850
:101E100001F076FF012802D1601CC0B2044600E048
:101E200000BF00BF012D01D0022D06D1012C02D12F
:101E30000120BDE8F0810020FBE7032D05D1022C35
:101E400001D10120F5E70020F3E700BFF1E710B56D
:101E50008021EA4801F054FF012811D10121E64810
:101E600001F04EFF01280BD12021E44801F048FF8A
:101E700030B94FF48041DF4801F042FF00287DD0A7
:101E80008021DE4801F03CFF01281DD10121DA4804
:101E900001F036FF012817D12021D84801F030FF8A
:101EA000012811D18103D34801F02AFF01280BD169
:101EB0000821D24801F024FF30B94FF48051CD48B9
:101EC00001F01EFF0028DAD08021CC4801F018FF75
:101ED00038BB0121C84801F013FF10BB2021C748BF
:101EE00001F00EFF01281CD18103C24801F008FF58
:101EF000012816D10821C14801F002FF012810D1A4
:101F00000103BC4801F0FCFE01280AD18103BA4854
:101F100001F0F6FE28B90421B84801F0F1FE0028CE
:101F2000ADD02021B54801F0EBFE40BB4FF480411D
:101F3000B04801F0E5FE10BB0821B04801F0E0FE1A
:101F400001281FD10103AB4801F0DAFE012819D1A5
:101F50008103A94801F0D4FE012813D10421A74828
:101F600001F0CEFE01280DD10103A34801F0C8FE07
:101F700028B90121A14801F0C3FE01E09AE001E087
:101F80000028A0D008219D4801F0BAFE48BB4FF4BC
:101F90008051984801F0B4FE18BB4FF48041964838
:101FA00001F0AEFE01281CD10421944801F0A8FEE6
:101FB000012816D10103904801F0A2FE012810D19A
:101FC00001218E4801F09CFE01280AD181028A4835
:101FD00001F096FE28B91021894801F091FE0028F1
:101FE00068D04FF48041844801F08AFE38BB042158
:101FF000824801F085FE10BB4FF480517E4801F00D
:102000007FFE01281BD101217C4801F079FE0128C7
:1020100015D18102784801F073FE01280FD11021FB
:10202000774801F06DFE012809D18021754801F043
:1020300067FE20B94021744801F062FED0B34FF42E
:1020400080516D4801F05CFEE8B901216B4801F058
:1020500057FEC0B94FF48061674801F051FE012876
:1020600011D11021664801F04BFE01280BD18021CF
:10207000644801F045FE012805D14021624801F085
:102080003FFE012816D04FF480615B4801F038FE16
:1020900090B910215A4801F033FE68B9802159489F
:1020A00001F02EFE012807D14021574801F028FEFB
:1020B000012801D1012010BD8021504801F020FEEF
:1020C000012811D101214C4801F01AFE01280BD141
:1020D00020214A4801F014FE30B94FF480414548B0
:1020E00001F00EFE00287DD08021444801F008FE5A
:1020F000E0B90121404801F003FEB8B920213F4872
:1021000001F0FEFD012811D181033A4801F0F8FDEC
:1021100001280BD10821394801F0F2FD30B94FF404
:102120008051344801F0ECFD00285BD02021334879
:1021300001F0E6FDE0B94FF480412E4801F0E0FDEA
:10214000B0B908212D4801F0DBFD012810D10103B1
:10215000284801F0D5FD01280AD18103264801F065
:10216000CFFD28B90421254801F0CAFD002839D047
:102170000821224801F0C4FDE0B94FF480511D4808
:1021800001F0BEFDB0B94FF480411B4801F0B8FD2D
:1021900001280FD10421194801F0B2FD012809D10D
:1021A0000103154801F0ACFD20B90121134801F0ED
:1021B000A7FDB8B14FF480410F4801F0A1FD50BB1D
:1021C00004210E4801F09CFD28BB4FF480510A48C1
:1021D00001F096FD01281ED10121084801F090FD73
:1021E000012800E050E016D18102034801F088FD8B
:1021F00088B90BE0001402400018024000040240BD
:1022000000080240000C0240000002401021F74884
:1022100001F076FDC0B34FF48051F54801F070FD38
:10222000D8B90121F34801F06BFDB0B94FF48061DA
:10223000EF4801F065FD01280FD11021EB4801F0B6
:102240005FFD012809D18021EB4801F059FD20B93B
:102250004021EA4801F054FDB0B14FF48061E448F8
:1022600001F04EFD90B91021E04801F049FD68B938
:102270008021E14801F044FD012807D14021DF48D9
:1022800001F03EFD012801D1022014E78021D94848
:1022900001F036FD01281DD10121D54801F030FDA6
:1022A000012817D12021D34801F02AFD012811D19E
:1022B0008103D34801F024FD01280BD10821CD482A
:1022C00001F01EFD012805D10103CD4801F018FDE4
:1022D00001287CD02021C74801F012FD01281DD122
:1022E0008103C74801F00CFD012817D10821C1481E
:1022F00001F006FD012811D10103C14801F000FDE4
:1023000001280BD18103BA4801F0FAFC012805D15C
:102310000421B84801F0F4FC01286FD00821B54829
:1023200001F0EEFC01281DD10103B54801F0E8FCE5
:10233000012817D18103AE4801F0E2FC012811D138
:102340000421AC4801F0DCFC01280BD10103A848B2
:1023500001F0D6FC012805D10121A64801F0D0FCEE
:1023600001284BD04FF48041A14801F0C9FC01285D
:102370001DD104219F4801F0C3FC012817D101039E
:102380009B4801F0BDFC012811D10121994801F0C1
:10239000B7FC01280BD18102954801F0B1FC01285E
:1023A00005D11021914801F0ABFC012826D04FF453
:1023B00080518F4801F0A4FC012821D101218D48D2
:1023C00001F09EFC01281BD18102894800E015E044
:1023D00001F096FC012813D11021844801F090FCF3
:1023E00001280DD18021844801F08AFC012807D101
:1023F0004021824801F084FC012801D103205AE6E3
:10240000002058E610B580217A4801F079FC10BB15
:102410002021784801F074FCE8B90821754801F0E2
:102420006FFCC0B94FF48041714801F069FC90B96C
:102430004FF480516E4801F063FC60B94FF4806145
:102440006B4801F05DFC30B980216B4801F058FC0D
:1024500008B9012010BD0020FCE710B540216748F5
:1024600001F04EFC08BB1021604801F049FCE0B9C6
:102470000121604801F044FCB8B904215D4801F035
:102480003FFC90B94FF480515D4801F039FC60B9D0
:102490004FF480415A4801F033FC30B901215448CF
:1024A00001F02EFC08B9012010BD0020FCE770B53A
:1024B0000546002480214F4801F022FC012801D16B
:1024C000601CC4B220214B4801F01AFC012801D144
:1024D000601CC4B20821474801F012FC012801D158
:1024E000601CC4B24FF48041414801F009FC01284E
:1024F00001D1601CC4B24FF480513D4801F000FC92
:10250000012801D1601CC4B24FF48061384801F049
:10251000F7FB012801D1601CC4B28021364801F0CC
:10252000EFFB012801D1601CC4B2AC4201DB0120E9
:1025300070BD0020FCE710B580212F4801F0E0FBC2
:1025400028BB4FF480612A4801F0DAFBF8B94FF458
:102550008051274801F0D4FBC8B94FF4804124488A
:1025600001F0CEFB98B98021224801F0C9FB012877
:102570000BD020211F4801F0C3FB012805D0082102
:102580001C4801F0BDFB012801D1012010BD002035
:10259000FCE710B58021174801F0B2FB28BB2021D1
:1025A000144801F0ADFB00BB0821124801F0A8FB64
:1025B000D8B94FF480410E4801F0A2FBA8B98021A0
:1025C0000D4801F09DFB01280DD04FF480610848B3
:1025D00001F096FB012806D04FF48051044801F029
:1025E0008FFB01280ED1012010BD0BE00008024036
:1025F0000018024000040240000C024000000240AB
:10260000001402400020EFE710B58021FA4801F0E5
:1026100077FBB8B94FF48061F84801F071FB88B9D5
:102620008021F74801F06CFB60B92021F44801F0EB
:1026300067FB38B94FF48041F04801F061FB012895
:1026400000D110BD0020FCE710B52DED028BB0EEDF
:10265000408A9FEDEC2AF0EE481AB1EE481AF1EEEE
:10266000480AB0EE480AFFF74FF8012000F058FD85
:10267000BDEC028B10BD10B52DED028BB0EE408A83
:102680009FEDE02AF1EE481AB0EE481AF0EE480A43
:10269000B1EE480AFFF738F8012000F041FDBDEC2B
:1026A000028B10BD10B52DED028BB0EE408A9FED70
:1026B000D52AF0EE481AB0EE481AF1EE480AB1EE0B
:1026C000480AFFF721F8012000F02AFDBDEC028B3B
:1026D00010BD10B52DED028BB0EE408A9FEDC92ADA
:1026E000F1EE481AB1EE481AF0EE480AB0EE480A88
:1026F000FFF70AF8012000F013FDBDEC028B10BDBE
:1027000010B59FEDC02ADFEDBF1A9FEDBE1ADFEDB9
:10271000BD0A9FEDBC0AFEF7F7FF012000F000FDA7
:1027200010BD10B52DED028BB0EE408A9FEDB52A9D
:10273000F0EE481AB0EE481AF0EE480AB0EE480A39
:10274000FEF7E2FF012000F0EBFCBDEC028B10BDB8
:1027500010B52DED028BB0EE408A9FEDAA2AF1EE66
:10276000481AB1EE481AF1EE480AB1EE480AFEF7EF
:10277000CBFF012000F0D4FCBDEC028B10BD00208B
:10278000A1490870A1490870A1490870A1490870C1
:10279000A1490870A1490870704710B52DED028B52
:1027A000B0EE408A9C480078D0B9FFF72BFE30B1DC
:1027B000FFF753FE18B101209749087010E0FFF7AA
:1027C00021FE18B102209449087009E0FFF745FE88
:1027D00018B103209049087002E004208E49087067
:1027E0008D48007804287DD1FFF731FB01280AD1FC
:1027F00087480078012806D1002086490870022009
:10280000834908701CE0FFF722FB02280AD18048A8
:102810000078012806D100207E49087002207C49FA
:1028200008700DE0FFF713FB032809D17848007802
:10283000012805D1002077490870022074490870EA
:102840007348007848BB714800786F4908700220CF
:102850006E4908706F480078F8B98021684801F027
:102860004FFA01280AD10121644801F049FA0128F0
:1028700004D168490870664908701EE0FFF7C2FD80
:1028800060B101215D4801F03BFA012806D1022028
:102890006049087001205E4908700EE080215848A8
:1028A00001F02EFA012808D1FFF7D7FD28B1032047
:1028B0005849087001205649087055480078012889
:1028C00062D15448007801281ED181034B4801F0A1
:1028D00017FA60B95148007848B94C4800784A491D
:1028E000087000E0EEE00320484908704CE0022048
:1028F000474908704548007843490870012043491A
:102900000870464908703FE04248007802281AD112
:1029100041033A4801F0F4F950B94048007838B919
:102920003A480078384908700320384908702BE08D
:102930003648007834490870042034490870012072
:102940003649087020E03348007803281CD1042160
:102950002B4801F0D5F950B93048007838B92B48E8
:102960000078294908700320284908700CE02B489A
:10297000007848B925480078234908700520234984
:10298000087001202549087021480078022855D197
:10299000FFF73AFE38B11D4800781B490870012046
:1029A0001A49087014E0FFF7F4FD38B117480078B1
:1029B0001549087002201549087009E0FFF7BBFDB2
:1029C00030B1124800781049087003200F49087090
:1029D0000E480078012831D10B48007802281FD119
:1029E000002405E0B0EE480AFFF75CFE601CC4B2AC
:1029F0000A2CF7DB22E00000000C02400018024025
:102A000000040240000000002D0000202C000020E7
:102A10002E000020300000202F0000203100002078
:102A2000E9480078032809D1002405E0B0EE480AFF
:102A3000FFF74FFE601CC4B20A2CF7DBE3480078B6
:102A4000062820D2DFE800F01203080D151AB0EEB8
:102A5000480AFFF7F9FD1AE0B0EE480AFFF722FE38
:102A600015E0B0EE480AFFF734FE10E0FFF748FE2D
:102A70000DE0B0EE480AFFF754FE08E0B0EE480A59
:102A8000FFF766FE03E00A2000F04AFB00BF00BF2C
:102A90000620FFF70CFD98B1CD48007802280FD131
:102AA000FFF72EFE0020C9490870C74908700A20A8
:102AB000C7490870C74908700120BDEC028B10BDE2
:102AC0000020FAE7C4480078012807D0C2480078FF
:102AD000022803D0C0480078032878D1FFF7B7F95F
:102AE00001280AD1BA480078012806D10020B94946
:102AF00008700220B64908701CE0FFF7A8F9022808
:102B00000AD1B3480078012806D10020B1490870E5
:102B10000220AF4908700DE0FFF799F9032809D1A9
:102B2000AB480078012805D10020AA49087002208E
:102B3000A7490870A648007868BBA4480078A24955
:102B400008700220A1490870A248007818BBA2486A
:102B50000078012830D18021A04801F0D1F8012867
:102B60000AD101219E4801F0CBF8012804D19949EE
:102B700008709749087035E0FFF76FFC60B180215D
:102B8000984801F0BDF8012806D10220914908704B
:102B900001208F49087025E04021934801F0B0F8EA
:102BA00001281FD1FFF72EFCE0B1032089490870EE
:102BB00001208749087015E087480078022807D16E
:102BC0000320844908700120814908700AE0F6E07A
:102BD00081480078032805D102207E490870012031
:102BE0007B4908707A480078012861D179480078DB
:102BF00001281CD181037A4801F082F850B97B4842
:102C0000007838B9714800786F49087002206F4920
:102C100008704DE002206E4908706C4800786A49DF
:102C200008700120694908707049087040E06948DF
:102C3000007802281AD10121684801F061F850B9E2
:102C40006A48007838B9614800785F490870022006
:102C50005E4908702CE05D4800785B4908700420EC
:102C60005A49087001206149087021E059480078EC
:102C700003281DD14FF48051594801F041F850B953
:102C80005A48007838B9514800784F4908700220F6
:102C90004E4908700CE05548007848B94B48007818
:102CA0004949087005204949087001204F490870BA
:102CB00047480078022840D1FFF7A6FC38B14348C6
:102CC00000784149087001204049087014E0FFF77E
:102CD00060FC38B13D4800783B49087002203B4910
:102CE000087009E0FFF727FC30B138480078364912
:102CF00008700320354908703448007801281CD139
:102D00003148007802280AD1002405E0B0EE480AD4
:102D1000FFF7C8FC601CC4B20A2CF7DB0DE02A48A0
:102D20000078032809D1002405E0B0EE480AFFF737
:102D3000D0FC601CC4B20A2CF7DB244800780628BB
:102D400020D2DFE800F01203080D151AB0EE480A91
:102D5000FFF77AFC1AE0B0EE480AFFF7A3FC15E093
:102D6000B0EE480AFFF7B5FC10E0FFF7C9FC0DE034
:102D7000B0EE480AFFF7D5FC08E0B0EE480AFFF7CE
:102D8000E7FC03E00A2000F0CBF900BF00BF0620FB
:102D9000FFF78DFB88B10E48007802280DD1FFF7B0
:102DA000AFFC002009490870074908700A2008494B
:102DB00008700849087001207FE600207DE60220A7
:102DC0000549087000BF78E62D0000202C00002087
:102DD0002E000020300000202F00002000040240C0
:102DE00000180240000C02400000024031000020A8
:102DF0002DE9FE4F00200090019002904FF006094F
:102E00000026934F002580460024824691490860A1
:102E100013E09FED912ADFED901A9FED8F1ADFED01
:102E20008E0A9FED8D0AFEF76FFC022000F078F904
:102E300088480068401C8749086086480068142854
:102E4000E7DB2EE06D1C022D00D82AE04FF4FA706B
:102E500000F01EF99FED802ADFED7F1A9FED7E1AAC
:102E6000DFED7D0A9FED7C0AFEF74EFC69460020EF
:102E700000F0CCFA009880440098B04200D9009E3F
:102E80000098B84200D2009F9FED732ADFED721ABE
:102E90009FED711ADFED700A9FED6F0AFEF734FCAB
:102EA00000BF4D45CED9A8EB0600C01B0321B0FBE7
:102EB000F1F440F28A20844201D34FF0000AB4F5C5
:102EC000DA7F04D3B4F5FA7F01D84FF0010AB4F5E4
:102ED000B47F04D3B4F5DA7F01D24FF0020A504632
:102EE000BDE8FE8F2DE9FE4F0646002000900190C0
:102EF00002904FF0060A0027DFF854810025814632
:102F0000002483465349086013E09FED532ADFED08
:102F1000521A9FED511ADFED500A9FED4F0AFEF74E
:102F2000F3FB022000F0FCF84A480068401C4949C5
:102F30000860484800681428E7DB002E48D02FE0DE
:102F40006D1C022D00D82BE04FF4FA7000F0A0F8B1
:102F50009FED412ADFED401A9FED3F1ADFED3E0A5B
:102F60009FED3D0AFEF7D0FB6946002000F0C7FA4E
:102F7000009881440098B84200D9009F00984045CD
:102F800001D2DDF800809FED342ADFED331A9FED8A
:102F9000321ADFED310A9FED300AFEF7B5FB00BFB4
:102FA0005545CDD9A9EB0700A0EB08000321B0FBE4
:102FB000F1F4B4F5977F04D9B4F5BE7F01D84FF092
:102FC000010BE12C04D3B4F5977F01D84FF0020B2D
:102FD0005846BDE8FE8F2DE9FE4F0020009001907D
:102FE00002904FF004090025194E00240027804666
:102FF000824619E0641C022C00D815E04FF4FA70E8
:1030000000F046F86946002000F005FB00980744F0
:103010000098A84200D9009D0098B04200D2009EBE
:10302000012000F07DF800BF4C45E3D9B81BA0EBB0
:103030000508B8F1FA0F05D3B8F5617F02D84FF053
:10304000030A01E04FF0000A5046BDE8FE8F000081
:10305000FFC99A3B280000200000000010B504467C
:103060006FF0040000F046FDE11704EB5171C1F36D
:10307000C701394A11701046007800EB4001C1EBDE
:10308000C0104FF6FF7101EAC0003449088010BD3E
:103090000146314A12784A434FF0E0235A61002238
:1030A0009A611A46126942F001021A6100BF4FF09C
:1030B000E022106900F001021AB100F48032002A07
:1030C000F5D04FF0E022126922F001024FF0E02328
:1030D0001A6100229A6170470146204A12884A43C9
:1030E0004FF0E0235A6100229A611A46126942F0B9
:1030F00001021A6100BF4FF0E022106900F00102E6
:103100001AB100F48032002AF5D04FF0E0221269A3
:1031100022F001024FF0E0231A6100229A61704709
:1031200070B504464FF4077094FBF0F0C6B24FF44C
:10313000077094FBF0F100FB114085B205E04FF4FD
:103140000770FFF7C9FF701EC6B2002EF7D115B188
:103150002846FFF7C1FF70BD320000203400002078
:1031600000BF704700BFFE4A128802F04002002AEA
:10317000F9D0C2B2FA4B9A80704710B588B00446B5
:103180000121084600F0F8FF0121102001F04EF85F
:1031900007220921F34800F0DCFD07220A21F1484B
:1031A00000F0D7FD4FF4C060069002208DF81C009F
:1031B0008DF81D0000208DF81E0001208DF81F00E5
:1031C00006A9E84800F03AFD02940020ADF80C0092
:1031D000ADF80E00ADF81000ADF814000C20ADF8FD
:1031E000120002A9DE4801F082F90121DC4801F059
:1031F00006FA012240F22551D94801F0B6FA2520FD
:103200008DF8040003208DF805008DF806000120DC
:103210008DF8070001A800F020FC08B010BD10B523
:1032200088B004460121022000F0A6FF0121880495
:1032300000F0EBFF07220B21CB4800F08AFD0722AC
:103240000A21C94800F085FD4FF440600690022035
:103250008DF81C008DF81D0000208DF81E00012047
:103260008DF81F0006A9C04800F0E8FC0294002079
:10327000ADF80C00ADF80E00ADF81000ADF814007C
:103280000C20ADF8120002A9B84801F030F9012174
:10329000B64801F0B4F9012240F22551B34801F0DB
:1032A00064FA27208DF8040001208DF80500002025
:1032B0008DF8060001208DF8070001A800F0CDFB75
:1032C00008B010BD10B588B004460121084600F0D2
:1032D00053FF0121480400F098FF07220321A14871
:1032E00000F037FD072202219E4800F032FD0C203D
:1032F000069002208DF81C008DF81D0000208DF82E
:103300001E0001208DF81F0006A9964800F096FCCB
:1033100002940020ADF80C00ADF80E00ADF81000DE
:10332000ADF814000C20ADF8120002A9904801F08D
:10333000DEF801218E4801F062F9012240F22551A8
:103340008B4801F012FA26208DF8040001208DF838
:10335000050000208DF8060001208DF8070001A867
:1033600000F07BFB08B010BD10B588B00446012109
:10337000042000F001FF0121202000F057FF082267
:1033800006217C4800F0E5FC08220721794800F07E
:10339000E0FCC020069002208DF81C008DF81D0076
:1033A00000208DF81E0001208DF81F0006A971482D
:1033B00000F044FC02940020ADF80C00ADF80E00C3
:1033C000ADF81000ADF814000C20ADF8120002A901
:1033D000694801F08CF80121674801F010F90122D9
:1033E00040F22551644801F0C0F947208DF80400EF
:1033F00001208DF8050000208DF8060001208DF8D1
:10340000070001A800F029FB08B010BDFEB5054675
:103410000C460026002000900190029000BF802101
:10342000524801F0C7F90028F9D057214F4801F060
:1034300011F900BF40214D4801F0BCF90028F9D036
:1034400000BF8021494801F0B5F90028F9D029468C
:10345000464801F0FFF800BF4021444801F0AAF9B6
:103460000028F9D00F20FFF75BFE45E043480088B5
:10347000752802D000204249087041480078082889
:103480002FD100203E4908703C48C089072827D129
:103490003A48408800900098000200903749898897
:1034A000009808430090009820603448C08801903C
:1034B000019800020190314909890198084301905F
:1034C000019860602D4840890290029800020290A5
:1034D0002A4989890298084302900298A0600CE06A
:1034E0000BE00120FFF71CFE701CC6B20A2E03D1B0
:1034F00000202349087000E0B8E700BFFEBDFEB51C
:1035000005460C460026002000900190029000BF66
:103510008021174801F04EF90028F9D057211448AE
:1035200001F098F800BF4021114801F043F900284C
:10353000F9D000BF80210E4801F03CF90028F9D0F5
:1035400029460B4801F086F800BF4021084801F0E9
:1035500031F90028F9D00F20FFF7E2FD58E0000014
:1035600000100140000002400004024000480040FA
:103570000044004000080240001401404C040020B8
:103580003E000020FC480088752802D00020FB493E
:103590000870FA48007808282FD10020F7490870F1
:1035A000F548C089072827D1F34840880090009843
:1035B00000020090F0498988009808430090009824
:1035C0002060ED48C0880190019800020190EA490E
:1035D000098901980843019001986060E648408994
:1035E0000290029800020290E349898902980843F8
:1035F00002900298A0600CE00BE00120FFF790FD24
:10360000701CC6B20A2E03D10020DC49087000E00D
:10361000B8E700BFFEBDFEB505460C4600260020FB
:1036200000900190029000BF8021D54801F0C2F8BF
:103630000028F9D05721D24801F00CF800BF4021F2
:10364000CF4801F0B7F80028F9D000BF8021CC485E
:1036500001F0B0F80028F9D02946C94800F0FAFF77
:1036600000BF4021C64801F0A5F80028F9D00F207E
:10367000FFF756FD45E0C3480088752802D00020BA
:10368000C1490870C048007808282FD10020BE49E1
:103690000870BC48C089072827D1BA4840880090E4
:1036A000009800020090B74989880098084300906C
:1036B00000982060B348C0880190019800020190F2
:1036C000B049098901980843019001986060AD48AC
:1036D00040890290029800020290AA4989890298C2
:1036E000084302900298A0600CE00BE00120FFF775
:1036F00017FD701CC6B20A2E03D10020A249087023
:1037000000E0B8E700BFFEBD70B504460E461546A2
:1037100000BF80219D4801F04DF80028F9D04C21D0
:103720009A4800F097FF00BF4021984801F042F806
:103730000028F9D000BF8021944801F03BF8002810
:10374000F9D02146914800F085FF00BF40218F4805
:1037500001F030F80028F9D000BF80218B4801F03B
:1037600029F80028F9D03146884800F073FF00BFDF
:103770004021864801F01EF80028F9D000BF8021C2
:10378000824801F017F80028F9D029467F4800F058
:1037900061FF00BF40217D4801F00CF80028F9D0FE
:1037A00070BD70B504460E46154600BF80217848AE
:1037B00001F000F80028F9D04C21754800F04AFFCC
:1037C00000BF4021724800F0F5FF0028F9D000BF8B
:1037D00080216F4800F0EEFF0028F9D021466C48A8
:1037E00000F038FF00BF4021694800F0E3FF0028E7
:1037F000F9D000BF8021664800F0DCFF0028F9D036
:103800003146634800F026FF00BF4021604800F0C9
:10381000D1FF0028F9D000BF80215D4800F0CAFF29
:103820000028F9D029465A4800F014FF00BF402173
:10383000574800F0BFFF0028F9D070BD70B50446AE
:103840000E46154600BF80214D4800F0B3FF00280A
:10385000F9D04C214A4800F0FDFE00BF4021484805
:1038600000F0A8FF0028F9D000BF8021444800F0F4
:10387000A1FF0028F9D02146414800F0EBFE00BF2F
:1038800040213F4800F096FF0028F9D000BF80217A
:103890003B4800F08FFF0028F9D03146384800F04F
:1038A000D9FE00BF4021364800F084FF0028F9D03F
:1038B00000BF8021324800F07DFF0028F9D0294662
:1038C0002F4800F0C7FE00BF40212D4800F072FFD6
:1038D0000028F9D070BD10B540F225512D4800F0F8
:1038E0007FFF10B32B4800F0B9FEC4B22A4800880D
:1038F00000F40040C8B92848008800F4804060B156
:103900000A2C03D000202449088020E022480088A7
:1039100040F400402049088019E00D2C06D11E48D3
:10392000008840F480401C49088010E01A48008854
:10393000C0F30D0019490C5417480088401C164963
:10394000088008460088C72801DD0020088010BDD7
:1039500010B540F225510D4800F042FF58B10B4818
:1039600000F07CFE0E490A780978491C0C4B19704E
:103970000C4921F8120010BD6C0400203F0000200B
:10398000001401408C04002040000020004800404A
:1039900000440040001001403C000020840300204F
:1039A0003E0000204C04002010B540F22551124882
:1039B00000F016FF58B1104800F050FE0F490A7889
:1039C0000978491C0D4B19700D4921F8120010BDE2
:1039D00010B540F225510B4800F002FF58B10948DC
:1039E00000F03CFE08490A780978491C064B19701A
:1039F000064921F8120010BD004400403F0000209D
:103A00006C04002000140140400000208C040020C1
:103A10000948804709480047FEE7FEE7FEE7FEE762
:103A2000FEE7FEE7FEE7FEE7FEE7FEE7044805499E
:103A3000054A064B704700007D0400088901000814
:103A400010050020100B0020100700201007002098
:103A500032490143324A1160704770B5002100239A
:103A60000F22C4781CB32E4C246804F4E064C4F51F
:103A7000E064C4F30721C1F10404E3B20A414478CD
:103A80009C40E1B28478144021430C07210E254C60
:103A900005786155047804F01F050124AC400578D1
:103AA0006D11AD0005F1E025C5F8004109E004788D
:103AB00004F01F050124AC401B4D0678761145F833
:103AC000264070BD194A0A400243154B1B1F1A605D
:103AD000704739B1124A121D12680243104B1B1D68
:103AE0001A6006E00E4A121D126882430C4B1B1D21
:103AF0001A607047042808D14FF0E021096941F0AD
:103B000004014FF0E022116107E04FF0E021096964
:103B100021F004014FF0E022116170470000FA0526
:103B20000CED00E000E400E080E100E080FFFF1F1A
:103B300010B504469848844208D10121084600F097
:103B400086FB0021012000F082FB76E0934884424E
:103B500008D10121022000F07AFB0021022000F0B0
:103B600076FB6AE08E48844208D10121042000F0EF
:103B70006EFB0021042000F06AFB5EE0894884426D
:103B800008D10121082000F062FB0021082000F08C
:103B90005EFB52E08448844208D10121102000F0ED
:103BA00056FB0021102000F052FB46E07F48844283
:103BB00008D10121202000F04AFB0021202000F044
:103BC00046FB3AE07A48844208D10121402000F0C7
:103BD0003EFB0021402000F03AFB2EE07548844275
:103BE00008D10121802000F032FB0021802000F06C
:103BF0002EFB22E07048844208D10121801500F09C
:103C000026FB0021A01500F022FB16E06B48844241
:103C100008D10121401500F01AFB0021601500F0C9
:103C200016FB0AE06648844207D10121001500F026
:103C30000EFB0021201500F00AFB10BDF0B50A466E
:103C400000210023002400BF3DE0012505FA01F317
:103C5000156805EA03049C4234D105684F00032629
:103C6000BE40B543056015794E00B5400668354342
:103C700005601579012D02D01579022D16D18568C0
:103C80004F000326BE40B543856055794E00B540D0
:103C9000866835438560456801268E40B54345609A
:103CA000456896798E40B6B235434560C5684F0089
:103CB0000326BE40B543C560D5794E00B540C66801
:103CC0003543C560491C1029BFD3F0BD4FF6FF71C5
:103CD00001600021017141718171C171704708B5A6
:103CE0004FF480320092009A0A430092009AC26117
:103CF000C161009AC261C2690092C269009208BDA6
:103D00000246002013690B400BB1012000E00020A7
:103D100070470146086980B2704702460020536927
:103D20000B400BB1012000E00020704701464869BC
:103D300080B2704701837047418370470AB10183A5
:103D400000E0418370474161704742694A404261E7
:103D50007047F0B5002300244D07ED0E02FA05F37D
:103D6000CE1000F1200555F826504E07F70E0F260D
:103D7000BE40B543CF1000F1200646F82750CE10C4
:103D800000F1200555F8265045EA0304CE1000F155
:103D9000200545F82640F0BD000002400004024026
:103DA00000080240000C02400010024000140240D3
:103DB00000180240001C0240002002400024024083
:103DC00000280240F948006840F00100F749086007
:103DD0000020F64908310860F4480068F4490840BA
:103DE000F2490860F348091D0860F348EF4984313F
:103DF0000860F0481038091D0860EC48006820F49D
:103E00008020EA4908600020E8490C310860E74951
:103E10008C31086070470021E44A921C11701146F1
:103E20000870704710B501460022002300204A1197
:103E3000012A02D1DD4C236808E0022A03D1DB4CC1
:103E40007034236802E0D94C7434236801F01F02F7
:103E5000012494401C400CB1012000E0002010BD62
:103E600038B5002000900024002500BF3120FFF766
:103E7000D9FF05460098401C00900098B0F5A04F6F
:103E800001D0002DF2D03120FFF7CCFF08B1012482
:103E900000E00024204638BD01460020C34A1068D7
:103EA00020F0F80040EAC10010607047C349086084
:103EB00070470021BD4A703211701170012802D084
:103EC00004280AD104E00121B84A7032117005E0DB
:103ED0000521B64A7032117000E000BF00BF704784
:103EE000B7490860704770B5049C41EA8215012605
:103EF000C6EB530645EA0645054345EA0465AB4E65
:103F0000361D356070BDAD4908667047820142EAD2
:103F10000172A64B84331A607047A84988667047BF
:103F200010B5830143EA016343EA02739F4C88346E
:103F3000236010BDA14908677047A049C864704755
:103F400002460020994B0833186820F0EC6042EAE2
:103F500001031843954B0833186070470246002050
:103F6000924B0833186820F0784042EA0103184366
:103F70008E4B083318607047014600208B4A083288
:103F8000106820F00300084310607047874808302D
:103F9000006800F00C00704701460020834A083298
:103FA000106820F0F00008431060704701460020C0
:103FB0007E4A0832106820F4E050084310607047D1
:103FC00001460020794A0832106820F4604040EA37
:103FD000C10010607047F0B50021002200240225C6
:103FE00000260223714F08373F6807F00C0121B10A
:103FF000042905D0082937D105E0724F076036E063
:10400000714F076033E0694F3F1D3F68C7F380562B
:10401000664F3F1D3F6807F03F036EB16A4FB7FB25
:10402000F3F7DFF888C10CF1040CDCF800C0CCF326
:10403000881C07FB0CF40CE0624FB7FBF3F7DFF8CA
:104040006CC10CF1040CDCF800C0CCF3881C07FB3D
:104050000CF4564F3F1D3F68C7F301477F1C7D009E
:10406000B4FBF5F7076002E0564F076000BF00BFE2
:104070004E4F08373F6807F0F0010909534F7A5C4B
:104080000768D7404760494F08373F6807F4E05159
:10409000890A4E4F7A5C4768D7408760434F08379C
:1040A0003F6807F46041490B484F7A5C4768D74046
:1040B000C760F0BD002100F44072B2F5407F0AD124
:1040C0003A4A0832116821F4F811414A024011437A
:1040D000364A08321160354A70321268C0F30B0359
:1040E0001A43324B70331A607047354944390860BF
:1040F0007047334940390860704736490860704757
:1041000001460020294A8C32106820F01F004A1E08
:104110001043264A8C321060704701460020234A23
:104120008C32106820F4F8504A1E40EA02201F4AE0
:104130008C3210607047014600201C4A8C32106897
:1041400020F4401008431060704701460020174AD1
:104150008C32106820F4400008431060704701461C
:104160000020124A8C32106820F44030084310605E
:10417000704719490860704739B10C4A30321268EB
:1041800002430A4B30331A6006E0084A30321268A4
:104190008243064B30331A607047F9B1034A343218
:1041A00012680243014B34331A601CE000380240AD
:1041B000FFFFF6EA103000240030002000004742E4
:1041C000800E47420024F40000127A0041000020D3
:1041D000FFFCFF0F5C014742E01147428F4A126823
:1041E00082438E4B1A60704739B18C4A121D126897
:1041F00002438A4B1B1D1A6006E0884A121D126892
:104200008243864B1B1D1A60704739B1834A0C32BA
:1042100012680243814B0C331A6006E07F4A0C326D
:10422000126882437D4B0C331A60704739B17B4A68
:10423000103212680243794B10331A6006E0774A55
:10424000103212688243754B10331A60704739B1CF
:10425000724A243A12680243704B243B1A6006E00B
:104260006E4A243A126882436C4B243B1A607047B2
:1042700039B16A4A203A12680243684B203B1A60FF
:1042800006E0664A203A12688243644B203B1A607B
:10429000704739B1614A1C3A126802435F4B1C3BBC
:1042A0001A6006E05D4A1C3A126882435B4B1C3B75
:1042B0001A60704739B1594A143A12680243574B91
:1042C000143B1A6006E0554A143A12688243534B75
:1042D000143B1A60704739B1504A103A12680243D1
:1042E0004E4B103B1A6006E04C4A103A126882436B
:1042F0004A4B103B1A60704739B1484A1C32126869
:104300000243464B1C331A6006E0444A1C321268D2
:104310008243424B1C331A60704739B13F4A203206
:10432000126802433D4B20331A6006E03B4A2032BC
:1043300012688243394B20331A60704739B1374ACB
:10434000243212680243354B24331A6006E0334AA4
:10435000243212688243314B24331A60704739B1DA
:104360002E4A2C32126802432C4B2C331A6006E082
:104370002A4A2C3212688243284B2C331A60704729
:1043800039B1264A303212680243244B30331A6066
:1043900006E0224A303212688243204B30331A60E2
:1043A0007047012808D11D493C31096841F00801D6
:1043B0001A4A3C32116007E018493C31096821F083
:1043C0000801164A3C321160704739B1134A273A46
:1043D00012780243114B273B1A7006E00F4A273A26
:1043E000127882430D4B273B1A7070470B484030C0
:1043F000006840F08070094940310860704701460C
:104400000020064A283A12680A400AB1012000E05A
:10441000002070470149263908707047343802403F
:1044200010B50446FA48844208D101211020FFF754
:1044300052FF00211020FFF74EFF57E0F54884425D
:1044400009D101214804FFF735FF00214FF4003066
:10445000FFF730FF4AE0F048844209D10121880487
:10446000FFF728FF00214FF48020FFF723FF3DE0F6
:10447000EA48844209D10121C804FFF71BFF00214B
:104480004FF40020FFF716FF30E0E548844209D1E1
:1044900001210805FFF70EFF00214FF48010FFF700
:1044A00009FF23E0DF48844208D101212020FFF7E3
:1044B00012FF00212020FFF70EFF17E0DA488442A8
:1044C00009D101218807FFF7F5FE00214FF0804058
:1044D000FFF7F0FE0AE0D548844207D101214005EC
:1044E000FFF7E8FE00216005FFF7E4FE10BD2DE9AF
:1044F000FF4705460E460024A14600BFA046B089EE
:1045000000B100BF2C8A24F44054F08804432C826C
:10451000AC8941F20C608443B088318908437189C9
:1045200008430443AC81AC8A24F44074B08904434A
:10453000AC826846FFF74FFDB548854202D0B948C6
:10454000854202D1DDF80C9001E0DDF80890A889E1
:1045500000F4004040B109EBC90000EB09103168DC
:104560004900B0FBF1F707E009EBC90000EB0910C7
:1045700031688900B0FBF1F76420B7FBF0F004016B
:104580002009642101FB1078A88900F4004040B1A3
:10459000322000EBC800B0FBF1F000F0070004434C
:1045A00008E0322000EB08106421B0FBF1F000F0CD
:1045B0000F0004432C81BDE8FF874FF416510160C2
:1045C00000218180C18001810C21418100218181F4
:1045D000704710B502460020108A20F470600B88E6
:1045E0004C8823438C882343CC8823431843108270
:1045F00010BD0021018041808180C180704721B1C0
:10460000828942F40052828104E082894DF6FF7370
:104610001A4082817047028B02F47F420283028B30
:104620000A430283704721B1828942F400428281A9
:1046300003E08289C2F30E028281704721B1828A2F
:1046400042F40062828204E0828A4FF2FF731A40D1
:1046500082827047C1F308028280704701468888D1
:10466000C0F308007047028A4FF6F0731A400282C6
:10467000028A0A430282704721B1828942F0020213
:10468000828104E082894FF6FD731A40828170476F
:1046900082894FF2FF731A40828182890A438281A4
:1046A0007047028A4FF6DF731A400282028A0A4379
:1046B0000282704721B1028A42F48042028204E001
:1046C000028A4BF6FF731A4002827047818941F0DB
:1046D00001018181704721B1828A42F00802828201
:1046E00004E0828A4FF6F7731A4082827047028B89
:1046F000D2B20283028B42EA01220283704721B1C7
:10470000828A42F02002828204E0828A4FF6DF73BE
:104710001A408282704721B1828A42F0100282825E
:1047200004E0828A4FF6EF731A4082827047828AD1
:104730004FF6FB731A408282828A0A438282704754
:1047400021B1828A42F00202828204E0828A4FF61C
:10475000FD731A40828270471AB1838A0B438382A9
:1047600002E0838A8B4383827047F0B503460024BE
:1047700000260025002040F66A17B94200D100BF8C
:104780001846C1F3421401F01F06012707FA06F587
:10479000012C01D10C3004E0022C01D1103000E0DA
:1047A00014301AB107682F43076002E00768AF436F
:1047B0000760F0BD02460020B1F5007F00D100BFC8
:1047C00013880B400BB1012000E00020704701F47A
:1047D0000072B2F5007F00D100BFCA43028070476B
:1047E00070B50246002400230025002040F66A161A
:1047F000B14200D100BFC1F3421501F01F030126F1
:1048000006FA03F3012D13D19689334017E0000017
:10481000001001400044004000480040004C0040AF
:10482000005000400014014000780040007C00402F
:10483000022D02D1168A334001E0968A33400C12D1
:10484000012606FA04F41688344013B10CB1012095
:1048500000E0002070BD10B50022002340F66A146D
:10486000A14200D100BF0A1201249440A3B2DC434C
:10487000048010BD10B50446FE48844209D10121D0
:104880004806FFF717FD00214FF00070FFF712FDFB
:1048900008E001218806FFF70DFD00214FF0806040
:1048A000FFF708FD10BD30B5024600200023146854
:1048B00024F002041460146844F00104146000E061
:1048C0005B1C546804F001041CB94FF6FF74A3424A
:1048D000F6D1546804F001040CB900206CE08C7926
:1048E000012C04D1146844F08004146003E01468BF
:1048F00024F080041460CC79012C04D1146844F0B5
:104900004004146003E0146824F0400414600C7A3E
:10491000012C04D1146844F02004146003E01468EE
:1049200024F0200414604C7A012C04D1146844F063
:104930001004146003E0146824F0100414608C7AEE
:10494000012C04D1146844F00804146003E01468D6
:1049500024F008041460CC7A012C04D1146844F0CB
:104960000404146003E0146824F0040414608C78D8
:10497000A407CD7844EA05640D7944EA05444D79ED
:1049800044EA05540D886D1E2C43D461146824F04C
:1049900001041460002300E05B1C546804F001046F
:1049A0001CB14FF6FF74A342F6D1546804F0010421
:1049B0000CB1002000E0012030BD10B50021837A49
:1049C000012202FA03F1AC4A126842F00102AA4B3A
:1049D0001A60A94A1C3212688A43A74B1C331A601A
:1049E000027BCAB9A44A0C3212688A43A24B0C3328
:1049F0001A604288C38842EA03439F4A4032847A5D
:104A000042F834300288838842EA03439A4A4032AB
:104A1000847A02EBC4025360027B012A19D1964AC0
:104A20000C3212680A43944B0C331A604288038894
:104A300042EA0343904A4032847A42F83430C288D2
:104A4000838842EA03438C4A4032847A02EBC402F0
:104A50005360C27A3AB9884A121D12688A43864B5B
:104A60001B1D1A6006E0844A121D12680A43824B1D
:104A70001B1D1A60028932B97F4A143212688A43B8
:104A80007D4B14331A600289012A06D17A4A143206
:104A900012680A43784B14331A60427B012A06D10C
:104AA000754A1C3212680A43734B1C331A60724AEF
:104AB000126822F00102704B1A6010BD0021817152
:104AC000C171017241728172C1728170C170032122
:104AD0000171022141710121018070476649096815
:104AE00041F00101644A11601146096843F60E72F3
:104AF0009143614A11601146096841EA0021116041
:104B00001146096821F001011160704721B1026866
:104B100042F48032026003E0026822F480320260D4
:104B20007047E1B1026842F0800202604FF4C27245
:104B3000125842F480734FF4C27213504FF4CA7289
:104B4000125842F480734FF4CA7213504FF4D27269
:104B5000125842F480734FF4D27213501BE0026873
:104B600022F0800202604FF4C272125822F4807365
:104B70004FF4C27213504FF4CA72125822F4807369
:104B80004FF4CA7213504FF4D272125822F4807349
:104B90004FF4D2721350704710B50246002093684C
:104BA00003F08063B3F1806F00D110E0936803F0ED
:104BB0000063B3F1006F01D1012008E0936803F0B6
:104BC0008053B3F1805F01D1022000E0042004286B
:104BD00079D002F5C07303EB00131B6803F00104E6
:104BE00002F5C07303EB00131C600B7A7BB94B7AA0
:104BF0000C8843EA445302F5C07404EB00142468A3
:104C0000234302F5C07404EB0014236010E00B7A18
:104C10004C6843EAC4034C7A234302F5C07404EBA6
:104C200000142468234302F5C07404EB00142360CD
:104C30008B7A03F00F038B7202F5C07303EB001342
:104C40005B6823F00F0402F5C07303EB00135C6094
:104C500002F5C07303EB00135B688C7A234302F503
:104C6000C07404EB001463608B7B1C064B7B44EA2E
:104C7000034403E000640040006600400B7B44EA0C
:104C80000323CC7A234302F5C07404EB0014A36021
:104C90008B7C1C064B7C44EA03440B7C44EA0323D4
:104CA000CC7B234302F5C07404EB0014E36002F5EF
:104CB000C07303EB00131B6843F0010402F5C073DB
:104CC00003EB00131C6010BD10B50246002321B198
:104CD000012907D002290FD109E09068F94C00EAB8
:104CE00004030BE09068F84C00EA040306E09068C7
:104CF000F64C00EA040301E0002300BF00BFF44CBF
:104D0000181BA34216D007DC83B16FF080601844F3
:104D100070B1022818D111E0B0F5007F10D0ED4C31
:104D2000204448B1B0F5003F0ED10BE002230DE066
:104D300000230BE0002309E0002307E0012305E046
:104D4000012303E0012301E0002300BF00BFD8B22C
:104D500010BD21B1012907D002290FD109E08268D5
:104D600042F0800282600AE0826842F4004282607F
:104D700005E0826842F40002826000E000BF00BFEC
:104D8000704710B500F5D87303EB01131B6803F0EF
:104D900004031372137A53B900F5D87303EB0113AC
:104DA0001B6840F2FF7404EA5353136009E000F5F6
:104DB000D87303EB01131B686FF0604404EAD3035C
:104DC000536000F5D87303EB01131B6803F0020373
:104DD000537200F5D87303EB01135B6803F00F0304
:104DE000937200F5D87303EB01135B681B0AD3744D
:104DF00000F5D87303EB01139B68D37200F5D873E9
:104E000003EB01139B681C0A147300F5D87303EBC2
:104E100001139B681C0C547300F5D87303EB01134A
:104E20009B681B0E937300F5D87303EB0113DB68CB
:104E3000D37300F5D87303EB0113DB681C0A1474F9
:104E400000F5D87303EB0113DB681C0C547400F5F8
:104E5000D87303EB0113DB681B0E937421B9C3688D
:104E600043F02003C36003E0036943F020030361C0
:104E700010BD21B9C26842F02002C26003E002699D
:104E800042F02002026170470246002019B9D3683F
:104E900003F0030006E0012903D1136903F00300C6
:104EA00000E00020704710B502460B4600204FF688
:104EB000FF71BBB9146824F0020444F001041460CB
:104EC00000E0491E546804F00304012C01D00029BD
:104ED000F7D1546804F00304012C01D0002032E023
:104EE000012030E0012B13D1146824F00304146076
:104EF00000E0491E546804F003040CB10029F8D105
:104F0000546804F003040CB100201CE001201AE0F6
:104F1000022B17D1146824F0010444F00204146039
:104F200000E0491E546804F00304022C01D000295B
:104F3000F7D1546804F00304022C01D0002002E0F1
:104F4000012000E0002010BD014600200A6822F088
:104F5000010242F002020A604A6802F00302022AD9
:104F600000D10120704701464FF6FF7200200B6808
:104F700023F002030B6000E0521E4B6803F00203B3
:104F8000022B01D1002AF7D14B6803F00203022B58
:104F900000D001207047014600208A6902F07000AD
:104FA0007047014600208A69100E704701460020B4
:104FB0008A69C2F3074070471AB143690B434361E2
:104FC00002E043698B434361704710B502460020FD
:104FD00001F4700343B19369C1F3130423400BB18F
:104FE00001202DE000202BE001F0807343B15368D5
:104FF000C1F3130423400BB1012021E000201FE086
:1050000001F0006343B19368C1F3130423400BB173
:10501000012015E0002013E001F0007343B1D368D4
:10502000C1F3130423400BB1012009E0002007E085
:105030001369C1F3130423400BB1012000E00020E9
:1050400010BD0022244B994202D10023836111E05C
:10505000C1F3130201F000730BB1C2600AE001F06A
:1050600080630BB1026105E001F000630BB1826067
:1050700000E0426070470246002002EA01030BB1E3
:10508000012000E00020704770B504460D46002660
:1050900060692840002872D0B5F5807F69D01DDC9A
:1050A000082D42D006DC012D2DD0022D31D0042D4B
:1050B0007FD134E0102D3ED0202D42D0402D78D12C
:1050C00045E0000003000004000300080000031096
:1050D000000100080001FFF77000F030B5F5004F47
:1050E00061D009DCB5F5007F4AD0B5F5806F4DD0B1
:1050F000B5F5006F5DD150E0B5F5803F2DD0B5F529
:10510000003F56D12FE0A0685549FFF7B4FF06468F
:1051100051E0E0680321FFF7AEFF06464BE0E06890
:105120000821FFF7A8FF064645E0E0681021FFF7D9
:10513000A2FF06463FE020690321FFF79CFF0646D9
:1051400039E020690821FFF796FF064633E0206921
:105150001021FFF790FF06462DE060680821FFF759
:105160008AFF064627E060681021FFF784FF0646A5
:1051700021E0A0690121FFF77EFF06461BE01BE04E
:10518000A0690221FFF777FF064614E0A069042119
:10519000FFF771FF06460EE00BE0A0697021FFF7F4
:1051A0006AFF064607E060680421FFF764FF0646D1
:1051B00001E0002600BF00E00026304670BDB1F5DA
:1051C000007F3AD00FDC202928D006DC01291CD032
:1051D00004291DD0082940D11DE0402921D0B1F576
:1051E000807F3AD126E0B1F5004F31D006DCB1F531
:1051F000806F25D0B1F5006F2FD124E0B1F5803F4D
:1052000012D0B1F5003F28D111E0154A826025E0A7
:105210000822C26022E01022C2601FE00822026160
:105220001CE01022026119E00822426016E0102200
:10523000426013E00422426010E0042242600DE06C
:10524000042242600AE0002282610422426005E0FA
:10525000002282610422426000E000BF00BF70476C
:105260000101010010B50446FE48844208D1012125
:105270000846FFF730F800210120FFF72CF89DE0E9
:10528000B4F1804F08D101210846FFF713F800213F
:105290000120FFF70FF891E0F348844208D1012183
:1052A0000220FFF707F800210220FFF703F885E04E
:1052B000EE48844208D101210420FEF7FBFF0021C3
:1052C0000420FEF7F7FF79E0E948844208D1012184
:1052D0000820FEF7EFFF00210820FEF7EBFF6DE04E
:1052E000E448844208D101211020FEF7E3FF0021A9
:1052F0001020FEF7DFFF61E0DF48844208D1012182
:105300002020FEF7D7FF00212020FEF7D3FF55E035
:10531000DA48844208D101210220FEF7DCFF002197
:105320000220FEF7D8FF49E0D548844209D1012187
:105330000804FEF7D0FF00214FF48030FEF7CBFFCA
:105340003CE0D048844209D101214804FEF7C3FF64
:1053500000214FF40030FEF7BEFF2FE0CA48844220
:1053600009D101218804FEF7B6FF00214FF4802007
:10537000FEF7B1FF22E0C548844208D10121402058
:10538000FEF798FF00214020FEF794FF16E0C0488A
:10539000844208D101218020FEF78CFF002180206B
:1053A000FEF788FF0AE0BB48844207D1012180153F
:1053B000FEF780FF0021A015FEF77CFF10BD002244
:1053C0000288A84B98420ED0AC4B98420BD0B0F15B
:1053D000804F08D0A44B984205D0A44B984202D0ED
:1053E000A34B984204D14FF68F731A404B881A434F
:1053F000A04B984207D0A04B984204D04FF6FF43F1
:105400001A400B891A4302804B68C3620B880385DC
:10541000944B984202D0994B984201D18B7A0386E3
:105420000123838270474FF0FF31416000210180EA
:1054300001814180817270470185828270470A46EE
:10544000002101884FF68F73194011430180704786
:1054500041627047C16270470146486A7047014621
:10546000088D704721B1028842F00202028004E0F8
:1054700002884FF6FD731A400280704721B10288FE
:1054800042F00402028004E002884FF6FB731A40E7
:105490000280704721B1028842F08002028004E05D
:1054A00002884FF67F731A400280704702884FF6D9
:1054B000F7731A40028002880A430280704702880C
:1054C0004FF6FF431A40028002880A430280704769
:1054D00021B1028842F00102028004E002884FF606
:1054E000FE731A400280704770B50024002200232A
:1054F000058C4FF6FE7635400584028C8388048B3C
:105500004FF68F752C40B51E2C400D882C43751E10
:105510002A408D892A434D882A43524DA84202D001
:10552000564DA84213D14FF6F7752A40CD892A432C
:105530004FF6FB752A408D882A434FF6FF652B40B6
:105540004FF6FF552B400D8A2B434D8A2B4383800A
:1055500004838D684563028470BD70B50024002209
:105560000023058C4FF6EF7635400584028C838846
:10557000048B48F6FF752C404FF6FF452C400D88F4
:105580004FF6FF7606EA05252C434FF6DF752A40D5
:105590008D8906EA05152A434D8806EA05152A4332
:1055A000304DA84202D0354DA8421DD14FF67F752F
:1055B0002A40CD894FF6FF7606EA05152A434FF6B5
:1055C000BF752A408D8806EA05152A434FF6FF3538
:1055D0002B404FF2FF752B400D8A06EA85052B43C1
:1055E0004D8A06EA85052B43838004838D68856395
:1055F000028470BD70B5002400220023058C4FF694
:10560000FF6635400584028C8388848B4FF68F7546
:105610002C404FF6FC752C400D882C434FF6FF555F
:105620002A408D894FF6FF7606EA05252A434D88E4
:1056300006EA05252A430B4DA84202D00F4DA84289
:1056400038D14FF2FF752A40CD894FF6FF7606EA32
:1056500005252A434FF6FF352A408D8806EA0525A1
:105660002A4319E000000140000400400008004007
:10567000000C0040001000400014004000040140F5
:105680000040014000440140004801400018004033
:10569000001C0040002000404EF6FF752B404DF6E8
:1056A000FF752B400D8A06EA05152B434D8A06EA45
:1056B00005152B43838084838D68C563028470BD88
:1056C00070B5002200230024058C4EF6FF7635408D
:1056D0000584038C8488828B48F6FF752A404FF638
:1056E000FF452A400D884FF6FF7606EA05252A4336
:1056F0004DF6FF752B408D8906EA05352B434D8805
:1057000006EA05352B43FE4DA84202D0FD4DA842C6
:1057100008D14BF6FF752C400D8A4FF6FF7606EA4E
:1057200085152C43848082838D680564038470BD55
:10573000002101804180818081608181C18101825D
:105740004182704770B50346002000241846183087
:1057500001258D40ACB21D8CA5431D8409B10829DB
:105760000AD100EB610005684FF68F763540056081
:105770000568154305600FE00D1FC5F34E0528446D
:10578000056848F6FF763540056005684FF6FF76F8
:1057900006EA02263543056070BD416370478163A8
:1057A0007047C1637047016470470A460021018B4E
:1057B0004FF68F7319401143018370470A46002149
:1057C000018B48F6FF7319404FF6FF7303EA02237B
:1057D0001943018370470A460021818B4FF68F736E
:1057E00019401143818370470A460021818B48F696
:1057F000FF7319404FF6FF7303EA022319438183B5
:1058000070470A460021018B4FF6F7731940114388
:10581000018370470A460021018B4FF2FF73194044
:105820004FF6FF7303EA02231943018370470A46C8
:105830000021818B4FF6F773194011438183704724
:105840000A460021818B4FF2FF7319404FF6FF7318
:1058500003EA02231943818370470A460021018B22
:105860004FF6FB7319401143018370470A4600212C
:10587000018B4FF6FF3319404FF6FF7303EA022303
:105880001943018370470A460021818B4FF6FB7351
:1058900019401143818370470A460021818B4FF6DE
:1058A000FF3319404FF6FF7303EA02231943818344
:1058B00070470A460021018B4FF67F731940114350
:1058C000018370470A460021018BC1F30E014FF698
:1058D000FF7303EA02231943018370470A4600213C
:1058E000818B4FF67F7319401143818370470A46BD
:1058F0000021818BC1F30E014FF6FF7303EA0223EF
:105900001943818370470A460021018C4FF6FD73CD
:1059100019401143018470470A460021018C4FF65B
:10592000F77319401143018470470A460021018C26
:105930004FF6DF7319404FF6FF7303EA0213194362
:10594000018470470A460021018C4FF67F7319408D
:105950004FF6FF7303EA02131943018470470A46A6
:105960000021018C4FF6FF5319404FF6FF7303EAF5
:1059700002231943018470470A460021018C4FF22B
:10598000FF7319404FF6FF7303EA022319430184A2
:1059900070470A460021018C4DF6FF7319404FF6FF
:1059A000FF7303EA023319430184704730B50023C3
:1059B00001248C40A3B2048C9C430484048C02FA1E
:1059C00001F5ADB22C43048430BD30B5002304246E
:1059D0008C40A3B2048C9C430484048C02FA01F52D
:1059E000ADB22C43048430BD828B4FF2FF331A409A
:1059F0008283828B4FF6FF7303EA01231A4382836B
:105A00007047F0B50C461546002100220026078C91
:105A10004EF6FF7C07EA0C070784818B028C4FF659
:105A2000FF7707EA043640F6FF4739404FF6FF7725
:105A300007EA052739434FF6FF7707EA033739436B
:105A400045F6FF773A4046F480573A438183028413
:105A5000F0BD828B4FF6F3731A408283828B0A4328
:105A600082837047F0B50C461546002100220026BF
:105A7000078C4FF6FF6C07EA0C070784818B028CBA
:105A80004FF6FF7707EA04264FF60C7739404FF6BA
:105A9000FF7707EA03172F4339434FF2FF573A4086
:105AA00046F480773A4381830284F0BD028B4FF243
:105AB000FF331A400283028B4FF6FF7303EA012380
:105AC0001A4302837047F0B50C46154600210022A8
:105AD0000026078C4FF6EF7C07EA0C070784018B42
