:020000040800F2
:10000000400B00204D620008A9040008AB04000862
:10001000AF040008B3040008B704000800000000A3
:10002000000000000000000000000000BB04000809
:10003000BD04000800000000BF040008C10400085F
:10004000676200086762000867620008676200086C
:10005000676200086762000867620008676200085C
:10006000676200086762000867620008676200084C
:10007000676200086762000867620008676200083C
:10008000676200086762000867620008ED07000801
:1000900003080008676200086762000867620008DA
:1000A000676200086762000867620008676200080C
:1000B00067620008676200086762000867620008FC
:1000C00067620008676200086762000867620008EC
:1000D0006762000813610008E56100088D6100088F
:1000E00067620008676200086762000867620008CC
:1000F00067620008676200086762000867620008BC
:1001000067620008676200086762000867620008AB
:10011000676200086762000867620008676200089B
:10012000676200086762000867620008676200088B
:10013000676200086762000867620008676200087B
:10014000676200086762000867620008676200086B
:100150006762000867620008676200080D620008B5
:10016000676200086762000867620008676200084B
:10017000676200086762000867620008676200083B
:10018000676200086762000800F002F800F03CF8BF
:100190000AA090E8000C82448344AAF10107DA45E2
:1001A00001D100F031F8AFF2090EBAE80F0013F0F8
:1001B000010F18BFFB1A43F001031847549C0000BD
:1001C000749C0000103A24BF78C878C1FAD852074E
:1001D00024BF30C830C144BF04680C6070470000C1
:1001E0000023002400250026103A28BF78C1FBD840
:1001F000520728BF30C148BF0B6070471FB509F0D8
:100200006CFD1FBD10B510BD08F0E6FA1146FFF7F2
:10021000F5FF00F06CF808F004FB03B4FFF7F2FF01
:1002200003BC05F0BBFB0000014600220020964BFA
:1002300018600AE09548944B1B6850F8230002446C
:1002400091480068401C904B18608F480068032854
:10025000F0DB022A15D100208B4B18600DE08B4893
:10026000894B1B6850F8230010B987480068704715
:1002700085480068401C844B186083480068032848
:10028000EDDB012A13D1012907D1804840680128FC
:1002900001D10020EBE70120E9E7022907D17B48E3
:1002A0000068012801D10220E1E70020DFE73AB928
:1002B000012901D10120DAE7022901D10020D6E786
:1002C00000BFD4E772488068002801DD0120704734
:1002D0006F480068002801DD0020F8E76C480069DD
:1002E000002801DD0220F2E74FF0FF30EFE72DEDAF
:1002F000048B00BF00BF4FF4E13005F05CFB4FF40E
:10030000E13005F0FDFB4FF4E13005F0A6FB4FF4C2
:10031000E13005F047FCA82005F0BEFA4FF4A060DC
:1003200005F0B4FF04F09AF804F0B6F800F0C4FD4C
:1003300001F084F800F0CEF904F069FF04F031F820
:100340000025002053490860022005F007FB022425
:1003500099E0022C04D0042C0AD0052C7ED17FE039
:1003600004F063FF054615B104F051FF052489E050
:100370009FED490A02F018FADFED480A9FED480A9E
:1003800002F06CFAB0EE408ADFED440A9FED440AB9
:1003900002F0A0FAF0EE408AF0EE481AB0EE681AC9
:1003A000DFED3F0A9FED3E0A01F074FBDFED3B0AF3
:1003B0009FED3C0A02F052FAB0EE408ADFED370AB8
:1003C0009FED380A02F086FAF0EE408ADFED330A3C
:1003D0009FED330A02F042FAB0EE409ADFED2F0AA9
:1003E0009FED2F0A02F076FAF0EE409AF0EE481AEE
:1003F000B0EE681AF0EE490A01F04CFBDFED280A76
:100400009FED280A02F02AFAB0EE408ADFED240AB6
:100410009FED240A02F05EFAF0EE408ADFED1F0A3B
:100420009FED200A02F01AFAB0EE409ADFED1B0AA7
:100430009FED1C0A02F04EFAF0EE409AF0EE481AD8
:10044000B0EE681AF0EE490A01F024FB9FED140AA1
:1004500002F0AAF903F0A5FF052400E010E000BFB8
:100460009FED0F2ADFED0E1A9FED0D1ADFED0C0A3E
:100470009FED0B0A01F0DAF9012005F06FFA00BFD9
:10048000052400BF00BF64E7100000206C000020BE
:10049000540000200C0000200000B4C300004843BA
:1004A00000000000000096C3704700BFFEE700BFD9
:1004B000FEE700BFFEE700BFFEE7704770477047EA
:1004C000704700000CB5002001900090764800684D
:1004D00040F480307449086000BF7348006800F43D
:1004E000003000900198401C0190009818B90198C4
:1004F000B0F5A04FF1D16C48006800F4003010B1A5
:100500000120009001E0002000900098012846D1D1
:1005100065484030006840F08050634940310860D1
:100520006248006840F44040604908605E48083016
:1005300000685D49083108600846006840F40040E2
:1005400008600846006840F4A05008605848091F39
:100550000860081F006840F08070091F086000BF35
:100560005148006800F000700028F9D040F2057092
:10057000504908604C480830006820F003004A49A0
:10058000083108600846006840F00200086000BFBB
:1005900045480830006800F00C000828F8D10CBD70
:1005A00010B54548006840F47000434908603E4873
:1005B000006840F001003C49086000203A490831D9
:1005C0000860394800683D490840374908603C48A0
:1005D000091D0860081F006820F48020091F0860BA
:1005E000002031490C310860FFF76CFF4FF00060CC
:1005F00031498039086010BD70B500200022022307
:1006000000240221284D08352D6805F00C0020B18A
:10061000042806D0082834D107E02A4D2A4E356038
:1006200033E02A4D284E35602FE01F4D2D1D2D68DB
:10063000C5F380541C4D2D1D2D6805F03F0154B1AC
:10064000224DB5FBF1F5184E361D3668C6F38816F7
:1006500005FB06F209E01B4DB5FBF1F5124E361D08
:100660003668C6F3881605FB06F20F4D2D1D2D6862
:10067000C5F301456D1C6B00B2FBF3F5124E3560FE
:1006800003E0104D104E356000BF00BF064D083529
:100690002D68C5F303150E4E705D0B4D2D68C540DA
:1006A000094E356070BD0000003802400070004007
:1006B00008544007003C024088ED00E0FFFFF6FED2
:1006C000103000240024F4001400002000127A00EE
:1006D0001800002000B58BB00121084606F06AF929
:1006E0000121480606F0AFF94FF4C05009900220EE
:1006F0008DF8280000208DF82A0003208DF82900AD
:1007000001208DF82B0009A9FE4805F0B5FE09224D
:100710000B21FC4805F03BFF09220C21F94805F0AC
:1007200036FFF94806F0C4FC06A806F0E5FD0020F7
:100730008DF81E008DF81F008DF8200001208DF827
:10074000210000208DF822008DF823008DF81A007A
:100750008DF81B0008208DF81C0003208DF81D006B
:10076000ADF8180006A9E84806F0BBFC00208DF89B
:1007700012008DF8130001208DF814000020ADF850
:100780000800ADF80A00ADF80C00ADF80E00ADF8A9
:10079000100001208DF8150002A806F02CFD0122A2
:1007A0000221D94807F026F801221146D64807F061
:1007B00021F814208DF8040002208DF80500012096
:1007C0008DF806008DF8070001A805F064FD1320E0
:1007D0008DF8040001208DF805008DF806008DF8D5
:1007E000070001A805F057FD0BB000BD10B50121B1
:1007F000C54807F067F818B10121C34807F0FDF8B4
:1008000010BD00B52DED048B93B00EAA0021BE489B
:1008100006F0D5FE40F201210E9888427ED10EA846
:10082000017CC07B41EA002000B200EE100AB8EE65
:10083000C00AB64880ED050A0EA8827B407B42EADA
:10084000002000B200EE100AB8EEC00A10EE101A36
:10085000084609F0D1F941EC190B9FEDAD0B53ECB3
:10086000102B08F0E7FD41EC180B08F0FDFC00EE42
:10087000100AA64880ED030A008B68B9A348408B94
:1008800050B90EA8007B9DF8431040EA012000B249
:100890009E49488308830CE09C48408B9B49088311
:1008A0000EA8007B9DF8431040EA012000B2974952
:1008B0004883964890ED000A8DED050A90ED010AF7
:1008C0008DED060A90ED020A8DED070A90ED030A00
:1008D0008DED080A90ED040A8DED090A90ED050AE8
:1008E0008DED0A0A008BADF82C008848408BADF8DE
:1008F0002E008648C0690C90844890F820008DF83E
:100900003400142209A9684607F01CFF05A80FC887
:1009100000F09CFA7D48D0ED010A00E004E030EEE2
:10092000200A80ED010A33E240F202210E9888424B
:100930007ED10EA8017CC07B41EA002000B200EE0F
:10094000100AB8EEC00A744880ED050A0EA8827B32
:10095000407B42EA002000B200EE100AB8EEC00A66
:1009600010EE101A084609F047F941EC190B9FEDFB
:10097000680B53EC102B08F05DFD41EC180B08F0F0
:1009800073FC00EE100A644880ED030A008B68B91E
:100990006148408B50B90EA8007B9DF8431040EA97
:1009A000012000B25C49488308830CE05A48408B20
:1009B000594908830EA8007B9DF8431040EA0120A6
:1009C00000B255494883544890ED000A8DED050A60
:1009D00090ED010A8DED060A90ED020A8DED070AF1
:1009E00090ED030A8DED080A90ED040A8DED090AD9
:1009F00090ED050A8DED0A0A008BADF82C004648F3
:100A0000408BADF82E004448C0690C90424890F8E5
:100A100020008DF83400142209A9684607F092FEE0
:100A200005A80FC800F012FA3B48D0ED010A00E01B
:100A300004E030EE200A80ED010AA9E140F2032132
:100A40000E9888425DD10EA8017CC07B41EA00204F
:100A500000B200EE100AB8EEC00A304880ED050A78
:100A60000EA8827B407B42EA002000B200EE100A12
:100A7000B8EEC00A10EE101A084609F0BDF841ECB5
:100A8000190B9FED230B53EC102B08F0D3FC41EC1A
:100A9000180B08F0E9FB00EE100A204880ED030A6D
:100AA000008B68B91D48408B50B90EA8007B9DF89B
:100AB000431040EA012000B21849488308830CE043
:100AC0001648408B154908830EA8007B9DF84310FB
:100AD00040EA012000B211494883104890ED000A15
:100AE0008DED050A90ED010A8DED060A90ED020AE2
:100AF0008DED070A90ED030A8DED080A90ED040ACA
:100B00000EE033E000000240006400407800002066
:100B100000000000000033409C000020C0000020C6
:100B20008DED090A90ED050A8DED0A0A008BADF8EE
:100B30002C00BD48408BADF82E00BB48C0690C901E
:100B4000B94890F820008DF83400142209A96846AD
:100B500007F0F8FD05A80FC800F078F9B248D0ED0D
:100B6000010A30EE200A80ED010A11E10E98B0F57D
:100B7000017F7CD10EA8017CC07B41EA002000B23D
:100B800000EE100AB8EEC00AA84880ED050A0EA8CB
:100B9000827B407B42EA002000B200EE100AB8EEF1
:100BA000C00A10EE101A084609F026F841EC190B9D
:100BB0001FED290B53EC102B08F03CFC41EC180BFB
:100BC00008F052FB00EE100A984880ED030A008BF3
:100BD00068B99648408B50B90EA8007B9DF8431029
:100BE00040EA012000B29149488308830CE08F4815
:100BF000408B8E4908830EA8007B9DF8431040EA85
:100C0000012000B289494883884890ED000A8DEDA3
:100C1000050A90ED010A8DED060A90ED020A8DEDB0
:100C2000070A90ED030A8DED080A90ED040A8DED98
:100C3000090A90ED050A8DED0A0A008BADF82C002B
:100C40007A48408BADF82E007848C0690C90774800
:100C500090F820008DF83400142209A9684607F0A6
:100C600071FD05A80FC800F0F1F8704800E006E03B
:100C7000D0ED010A30EE200A80ED010A88E040F252
:100C800005210E9888427CD10EA8017CC07B41EAE8
:100C9000002000B200EE100AB8EEC00A644880EDF1
:100CA000050A0EA8827B407B42EA002000B200EEDB
:100CB000100AB8EEC00A10EE101A084608F09CFFA1
:100CC00041EC190B1FED6E0B53EC102B08F0B2FB2F
:100CD00041EC180B08F0C8FA00EE100A544880EDF9
:100CE000030A008B68B95248408B50B90EA8007BAC
:100CF0009DF8431040EA012000B24D494883088323
:100D00000CE04B48408B4A4908830EA8007B9DF8B5
:100D1000431040EA012000B245494883444890ED21
:100D2000000A8DED050A90ED010A8DED060A90EDA1
:100D3000020A8DED070A90ED030A8DED080A90ED89
:100D4000040A8DED090A90ED050A8DED0A0A008B63
:100D5000ADF82C003648408BADF82E003448C06901
:100D60000C90334890F820008DF83400142209A923
:100D7000684607F0E7FC05A80FC800F067F82C48A4
:100D800000E005E0D0ED010A30EE200A80ED010A16
:100D900013B0BDEC048B00BDF0B585B004460D4624
:100DA00016461F4600208DF808008DF8090008201F
:100DB0008DF80A0080010090200A8DF80B00E1B246
:100DC0008DF80C10290A8DF80D10E9B28DF80E106F
:100DD000310A8DF80F10F1B28DF81010390A8DF824
:100DE0001110F9B28DF812106946124806F0F2FAA5
:100DF00005B0F0BD10B586B0044600208DF80C009B
:100E00008DF80D0002208DF80E0040F2FF100190C9
:100E1000200A8DF80F008DF8104001A9054806F052
:100E2000D9FA06B010BD0000C0000020E400002088
:100E30000801002000640040B5EEC00AF1EE10FA8F
:100E400003D2F1EE400AB0EE600A70470FB400B56D
:100E5000BDF91E00BDF91C10401A01EE100AB8EED3
:100E6000C10AFFF7E9FFDFEDFE0AB4EEE00AF1EE9A
:100E700010FA11DDB8EEC10AFFF7DEFFF8EEC11A75
:100E8000C1EE800AB8EEC10ADFEDF61A00EEE10A03
:100E9000BDEEC00AB0EE401AB8EEC10ADFEDF20AAC
:100EA00020EE200AF3EE031AC0EE210ADFEDED1A60
:100EB00080EEA10A5DF814FB9FEDEC0AEC4880ED92
:100EC000010A9FEDEA0AEB4880ED010A9FEDE70A6F
:100ED000E94880ED010A9FEDE50AE84880ED010A46
:100EE0009FEDE20AE64880ED010A0120E04981F821
:100EF0002000E04981F82000DF4981F82000DF4927
:100F000081F82000DE4981F820009FEDD80AD848FA
:100F100080ED020A9FEDD50AD64880ED020A9FEDCA
:100F2000D30AD54880ED020A9FEDD00AD34880ED60
:100F3000020A9FEDCE0A084680ED020A70479FED37
:100F4000D10AD14880ED000A9FEDD00A80ED010A58
:100F50009FEDC60A80ED020A9FEDCD0A80ED030ADF
:100F60009FEDCC0A80ED040A9FEDC00A80ED050AD2
:100F70009FEDBE0A80ED060A0020C349C8619FEDBF
:100F8000C10AC54880ED000A9FEDC00A80ED010A44
:100F90009FEDB60A80ED020A9FEDBD0A80ED030ABF
:100FA0009FEDBC0A80ED040A9FEDB00A80ED050AB2
:100FB0009FEDAE0A80ED060A0020B749C8619FED9B
:100FC000B10AB64880ED000A9FEDB00A80ED010A33
:100FD0009FEDA60A80ED020A9FEDAD0A80ED030A9F
:100FE0009FEDAC0A80ED040A9FEDA00A80ED050A92
:100FF0009FED9E0A80ED060A0020A849C8619FED7A
:10100000A10AA74880ED000A9FEDA00A80ED010A21
:101010009FED960A80ED020A9FED9D0A80ED030A7E
:101020009FED9C0A80ED040A9FED900A80ED050A71
:101030009FED8E0A80ED060A00209949C8619FED58
:10104000910A984880ED000A9FED900A80ED010A10
:101050009FED860A80ED020A9FED8D0A80ED030A5E
:101060009FED8C0A80ED040A9FED800A80ED050A51
:101070009FED7E0A80ED060A00208A49C86170470C
:101080009FED890A894880ED000AB1EE040A80EDDF
:10109000010A9FED760A80ED020A9FED7D0A80ED40
:1010A000030A9FED830A80ED040A9FED700A80ED2C
:1010B000050A9FED6E0A80ED060A00207B49C86193
:1010C0009FED7C0A084680ED090A9FED7B0A80EDC2
:1010D000080A9FED750A794880ED000AB1EE040A0E
:1010E00080ED010A9FED610A80ED020A9FED680A1A
:1010F00080ED030A9FED6E0A80ED040A9FED5B0A06
:1011000080ED050A9FED590A80ED060A00206B4923
:10111000C8619FED680A084680ED090A9FED660ADE
:1011200080ED080A9FED600A654880ED000AB1EE87
:10113000040A80ED010A9FED4D0A80ED020A9FED41
:10114000540A80ED030A9FED5A0A80ED040A9FEDD0
:10115000470A80ED050A9FED450A80ED060A00204A
:101160005749C8619FED530A084680ED090A9FED73
:10117000520A80ED080A9FED4C0A524880ED000AA1
:10118000B1EE040A80ED010A9FED380A80ED020AF3
:101190009FED3F0A80ED030A9FED450A80ED040AAA
:1011A0009FED320A80ED050A9FED300A80ED060AB8
:1011B00000204449C8619FED3F0A084680ED090AB6
:1011C0009FED3D0A80ED080A9FED3F0A3F4880ED04
:1011D000000AB1EE040A80ED010A9FED240A80EDB9
:1011E000020A9FED2B0A80ED030A9FED310A80ED84
:1011F000040A9FED1E0A80ED050A9FED1C0A80ED92
:10120000060A00203149C8619FED2A0A084680ED90
:10121000090A9FED290A80ED080A70479FED2C0A04
:101220002C4880ED000A9FED110A80ED010A9FED28
:101230002A0A80ED020A9FED160A80ED030A9FED4F
:10124000270A80ED040A9FED090A80ED050A9FED4B
:10125000070A80ED060A00201E49C86140E0000030
:1012600000007A45000000460000B4430000000082
:10127000780000209C000020C0000020E400002036
:10128000080100206666A63F7C0100208FC2F53C65
:1012900000007A4600806D45F40100206C020020B9
:1012A000E40200205C03002000007A435401002087
:1012B00000409C4500007A440000C843CC01002057
:1012C00044020020BC02002000005C4334030020E4
:1012D00085EBD13E2C01002017B7D1380000FA442D
:1012E000B3EE040A084680ED090A9FEDFB0A80ED83
:1012F000080A1FED090AF94880ED000A1FED250ACA
:1013000080ED010A1FED0C0A80ED020A1FED200A94
:1013100080ED030A1FED0F0A80ED040A1FED2D0A70
:1013200080ED050A1FED2F0A80ED060A0020EB492B
:10133000C861B3EE040A084680ED090A9FEDE60A8B
:1013400080ED080A1FED1E0AE54880ED000A1FED3A
:10135000390A80ED010A1FED200A80ED020A1FED17
:10136000340A80ED030A1FED230A80ED040A1FED05
:10137000410A80ED050A1FED430A80ED060A0020B0
:10138000D749C861B3EE040A084680ED090A9FED0B
:10139000D20A80ED080A1FED320AD24880ED000A19
:1013A0001FED4E0A80ED010A1FED350A80ED020A9D
:1013B0001FED490A80ED030A1FED380A80ED040A8B
:1013C0001FED560A80ED050A1FED580A80ED060A4A
:1013D0000020C449C861B3EE040A084680ED090A3A
:1013E0009FEDBD0A80ED080AB7EE000ABE4880ED09
:1013F000000A1FED620A80ED010A9FEDBC0A80ED34
:10140000020A1FED5D0A80ED030A1FED4C0A80ED14
:10141000040A1FED6A0A80ED050A1FED6C0A80EDD3
:10142000060A0020B049C861B3EE040A084680ED00
:10143000090A9FEDA90A80ED080A704700B5FFF779
:101440007EFDFFF71DFEFFF7E9FE00BD00B5B0EE23
:10145000403AF0EE603A33EE630AB0EE401AC169EA
:10146000012914D1B0EE410AFFF7E6FCD0ED090ADC
:10147000B4EEE00AF1EE10FA04DB90ED080A60EE3B
:10148000011A08E090ED000A60EE011A03E090ED09
:10149000000A60EE011A90ED010A20EE015A90ED6B
:1014A000050A30EE052A90ED040AB4EEC20AF1EE08
:1014B00010FA04D290ED040A80ED050A15E090EDD3
:1014C000040AFFEE000A20EE200AB4EEC20AF1EE92
:1014D00010FA08DD90ED040AFFEE000A20EE200A63
:1014E00080ED050A01E080ED052A90ED060A31EE57
:1014F000404A90ED020A60EE044A80ED061A90ED33
:10150000050A30EE210A70EE242A90ED030AB4EEAB
:10151000E20AF1EE10FA02D890ED030A00BD90ED58
:10152000030AFFEE000A20EE200AB4EEE20AF1EE12
:1015300010FA06DD90ED030AFFEE000A20EE200A05
:10154000ECE7B0EE620AE9E710B5694890F82000D0
:10155000012814D0022802D0052833D11FE06448A6
:1015600090ED011AF0EE410A90ED001AB0EE410A3A
:101570006048FFF76BFF5E4880ED020A00BF5C48E1
:1015800090ED031AF0EE410A90ED021AB0EE410A16
:101590005948FFF75BFF564880ED040A00BF5448E6
:1015A00090ED051AF0EE410A90ED041AB0EE410AF2
:1015B0005248FFF74BFFBDEEC00A10EE100A4C492F
:1015C000C86100E000BF00BF4D4890F8200001282E
:1015D00014D0022802D0052833D11FE0484890EDEE
:1015E000011AF0EE410A90ED001AB0EE410A3B48B4
:1015F000FFF72CFF424880ED020A00BF404890ED03
:10160000031AF0EE410A90ED021AB0EE410A3D488D
:10161000FFF71CFF3A4880ED040A00BF384890ED00
:10162000051AF0EE410A90ED041AB0EE410A364870
:10163000FFF70CFFBDEEC00A10EE100A3049C8617A
:1016400000E000BF00BF314890F82000012814D00E
:10165000022802D0052833D11FE02C4890ED011A52
:10166000F0EE410A90ED001AB0EE410A1C48FFF777
:10167000EDFE264880ED020A00BF244890ED031AD3
:10168000F0EE410A90ED021AB0EE410A2048FFF751
:10169000DDFE1E4880ED040A00BF1C4890ED051ACF
:1016A000F0EE410A90ED041AB0EE410A1948FFF736
:1016B000CDFEBDEEC00A10EE100A1449C86100E06C
:1016C00000BF00BF144890F82000012836D002283F
:1016D00024D0052855D141E000004842A401002053
:1016E0001C020020940200200C0300200AD7233C97
:1016F000780000202C010020540100207C010020F3
:101700009C000020CC010020F4010020C00000203B
:10171000440200206C020020E40000208D4890ED7F
:10172000011AF0EE410A90ED001AB0EE410A8A4823
:10173000FFF78CFE874880ED020A00BF854890EDD8
:10174000031AF0EE410A90ED021AB0EE410A834806
:10175000FFF77CFE7F4880ED040A00BF7D4890EDD6
:10176000051AF0EE410A90ED041AB0EE410A7C48E9
:10177000FFF76CFEBDEEC00A10EE100A7549C86195
:1017800000E000BF00BF774890F82000012814D087
:10179000022802D0052833D11FE0724890ED011ACB
:1017A000F0EE410A90ED001AB0EE410A6E48FFF7E4
:1017B0004DFE6C4880ED020A00BF6A4890ED031AA6
:1017C000F0EE410A90ED021AB0EE410A6748FFF7C9
:1017D0003DFE644880ED040A00BF624890ED051AA2
:1017E000F0EE410A90ED041AB0EE410A6048FFF7AE
:1017F0002DFEBDEEC00A10EE100A5A49C86100E085
:1018000000BF00BF534CE46923B25A4CE46922B2D2
:10181000594CE46921B2594CE46920B2FFF7BCFA93
:101820005049C96908B2FFF7E5FA10BD10B52DEDB2
:10183000068BB0EE40AAB0EE608AF0EE418AB0EEC0
:10184000619AF0EE429A01204C4981F820004A4901
:1018500081F82000474981F820003E4981F82000A6
:10186000404981F82000454880ED02AA424880EDB9
:10187000028A4048C0ED028A364880ED029A084646
:10188000C0ED029AFFF760FEBDEC068B10BD10B5EF
:101890002DED068BB0EE40AAB0EE608AF0EE418AE4
:1018A000B0EE619AF0EE429A0520344981F82000AA
:1018B000314981F820002F4981F82000254981F81D
:1018C0002000284981F820002C4880ED00AA2A48F1
:1018D00080ED008A2748C0ED008A1E4880ED009AFE
:1018E0000846C0ED009AFFF72FFEBDEC068B10BD39
:1018F00010B52DED068BB0EE40AAB0EE608AF0EE8A
:10190000418AB0EE619AF0EE429A02201B4981F8BA
:101910002000194981F82000164981F820000D495E
:1019200081F820000F4981F82000144880ED00AABA
:10193000114880ED008A0F48C0ED008A054880ED0F
:10194000009A0846C0ED009AFFF7FEFDBDEC068B3D
:1019500010BD0000E400002094020020BC02002022
:10196000E4020020080100200C03002034030020C2
:101970005C030020C00000209C00002078000020B4
:10198000B5EEC00AF1EE10FA01D100207047B5EEB5
:10199000C00AF1EE10FA01DD0120F7E74FF0FF3049
:1019A000F4E702466FF00201FE48D0ED012AFE483E
:1019B00090ED003A72EEC32AFC4890ED003A72EEC8
:1019C000C32AF0EE620AFA48D0ED012AF64890EDFB
:1019D000013A72EEC32AF54890ED013A72EEC32A3D
:1019E000B0EE622AF348D0ED012AEF4890ED023ABA
:1019F00072EEC32AED4890ED023A72EEC32AB0EEC1
:101A0000621AED48D0ED012AE74890ED033A72EEF4
:101A1000C32AE64890ED033A72EEC32AF0EE621A4A
:101A2000F4EEC00AF1EE10FA07D2F1EE402AF4EE1D
:101A3000E20AF1EE10FA00DD491CB4EEC02AF1EE24
:101A400010FA07D2F1EE402AB4EEE22AF1EE10FAD3
:101A500000DD491CB4EEC01AF1EE10FA07D2F1EE27
:101A6000402AB4EEE21AF1EE10FA00DD491CF4EE61
:101A7000C01AF1EE10FA07D2F1EE402AF4EEE21AA3
:101A8000F1EE10FA00DD491C914201DD01207047A2
:101A90000020FCE700B52DED040B99B09DED1B0A6D
:101AA000DDED190A30EE600ADFEDC40A20EE200AEF
:101AB0008DED120A9DED1C0ADDED1A0A30EE600A6A
:101AC000DFEDBE0A20EE200A8DED110A9FEDBC0A63
:101AD0008DED100AB34890ED010AB34880ED000A7D
:101AE000B34890ED010AB04880ED010AB14890ED8D
:101AF000010AAD4880ED020AAF4890ED010AAA48FC
:101B000080ED030A9DED120A9FEDAE1AC0EE010AA8
:101B10009FEDAD0A20EE800AA44880ED000A9DEDFD
:101B2000110AB1EE400A9FEDA71AC0EE010A9FED1F
:101B3000A60A20EE800A80ED010A90ED000AB1EEBF
:101B4000400A80ED020A90ED010AB1EE400A80EDF4
:101B5000030A00209D49086023E094489B490968D6
:101B600000EB810090ED000AB5EEC00AF1EE10FA2C
:101B700009D29FED970A13A89449096800EB8100E8
:101B800080ED000A08E09FED930A13A88F490968C9
:101B900000EB810080ED000A8C480068401C8B49F6
:101BA00008608A4800680428D7DB00BF9DED100A52
:101BB000DFED880AB4EEE00AF1EE10FA7DD211985A
:101BC00008F01AF8CDE900019DED000B06F0B0FE1B
:101BD0008DED040B129808F00FF8CDE900019DED92
:101BE000000B06F0A5FE8DED020B9DED040B53ECF2
:101BF000102B9DED020B51EC100B07F067FBCDE9AC
:101C00000801119807F0F8FFCDE900019DED000BE8
:101C100006F08EFE8DED040B9DED160A8DED000A8B
:101C20009DED000AFFF7ACFE00EE100AF8EEC00AC8
:101C30009DED100A20EE800A8DED010A019807F053
:101C4000DBFFCDE902019DED040B53EC102B9DED64
:101C5000020B51EC100B07F0DBFDCDE906019DED09
:101C6000080B53EC102B9DED060B51EC100B07F0FD
:101C7000E1FBCDE90A019DED0A0B51EC100B07F0D9
:101C8000F3FA0F90119807F0B7FFCDE900019DED31
:101C9000000B06F04DFE8DED040B129807F0ACFF23
:101CA000CDE900019DED000B06F042FE8DED020B2B
:101CB0009DED040B53EC102B00E03FE19DED020B7A
:101CC00051EC100B07F002FBCDE90801129807F068
:101CD00093FFCDE900019DED000B06F029FE8DED8F
:101CE000040B9DED150A8DED000A9DED000AFFF72E
:101CF00047FE00EE100AF8EEC00A9DED100A20EE35
:101D0000800A8DED010A019807F076FFCDE9020106
:101D10009DED040B53EC102B9DED020B51EC100BC1
:101D200007F076FDCDE906019DED080B53EC102B75
:101D30009DED060B51EC100B07F07CFBCDE90A0181
:101D40009DED0A0B51EC100B07F08EFA0E901198D6
:101D500007F052FFCDE900019DED000B06F0E8FD14
:101D60008DED040B129807F047FFCDE900019DEDC2
:101D7000000B06F0DDFD8DED020B9DED040B53EC29
:101D8000102B9DED020B51EC100B07F09FFACDE9E3
:101D90000801119807F030FFCDE900019DED000B1F
:101DA0001AE0000078000020A40300209003002027
:101DB0009C000020C0000020E40000206666863FF2
:101DC00000000000959E6B430000B44328000020F3
:101DD000000096C30000964306F0AAFD8DED040BAB
:101DE0009DED140A8DED000A9DED000AFFF7C8FD78
:101DF00000EE100AF8EEC00A9DED100A20EE800AEF
:101E00008DED010A019807F0F7FECDE902019DED85
:101E1000040B53EC102B9DED020B51EC100B07F053
:101E2000F7FCCDE906019DED080B53EC102B9DED61
:101E3000060B51EC100B07F0FDFACDE90A019DED00
:101E40000A0B51EC100B07F00FFA0D90119807F0E8
:101E5000D3FECDE900019DED000B06F069FD8DED8F
:101E6000040B129807F0C8FECDE900019DED000BB0
:101E700006F05EFD8DED020B9DED040B53EC102B77
:101E80009DED020B51EC100B07F020FACDE9080193
:101E9000129807F0B1FECDE900019DED000B06F0B0
:101EA00047FD8DED040B9DED130A8DED000A9DEDB0
:101EB000000AFFF765FD00EE100AF8EEC00A9DED7E
:101EC000100A20EE800A8DED010A019807F094FEB9
:101ED000CDE902019DED040B53EC102B9DED020B9F
:101EE00051EC100B07F094FCCDE906019DED080BB9
:101EF00053EC102B9DED060B51EC100B07F09AFAEA
:101F0000CDE90A019DED0A0B51EC100B07F0ACF97D
:101F10001FED552A0C90DDED0F1A9DED0E1ADDED2B
:101F20000D0A9DED0C0AFFF781FC9DED100ADFED17
:101F3000FE0A30EE200A8DED100A53E1119807F0E9
:101F40005BFECDE900019DED000B06F0F1FC8DED8F
:101F5000040B129807F050FECDE900019DED000B37
:101F600006F0E6FC8DED020B9DED040B53EC102BFF
:101F70009DED020B51EC100B07F0A8F9CDE908011B
:101F8000119807F039FECDE900019DED000B06F038
:101F9000CFFC8DED040B1698019007F02DFECDE9D6
:101FA00002019DED040B53EC102B9DED020B51EC47
:101FB000100B07F02DFCCDE906019DED080B53EC4D
:101FC000102B9DED060B51EC100B07F033FACDE909
:101FD0000A019DED0A0B51EC100B07F045F90F902B
:101FE000119807F009FECDE900019DED000B06F008
:101FF0009FFC8DED040B129807F0FEFDCDE900016A
:102000009DED000B06F094FC8DED020B9DED040B95
:1020100053EC102B9DED020B51EC100B07F056F911
:10202000CDE90801129807F0E7FDCDE900019DED2B
:10203000000B06F07DFC8DED040B1598019007F068
:10204000DBFDCDE902019DED040B53EC102B9DED62
:10205000020B51EC100B07F0DBFBCDE906019DED07
:10206000080B53EC102B9DED060B51EC100B07F0F9
:10207000E1F9CDE90A019DED0A0B51EC100B07F0D7
:10208000F3F80E90119807F0B7FDCDE900019DED32
:10209000000B06F04DFC8DED040B129807F0ACFD23
:1020A000CDE900019DED000B06F042FC8DED020B29
:1020B0009DED040B53EC102B9DED020B51EC100B1E
:1020C00007F004F9CDE90801119807F095FDCDE975
:1020D00000019DED000B06F02BFC8DED040B149818
:1020E000019007F089FDCDE902019DED040B53EC51
:1020F000102B9DED020B51EC100B07F089FBCDE985
:1021000006019DED080B53EC102B9DED060B51ECD9
:10211000100B07F08FF9CDE90A019DED0A0B51EC88
:10212000100B07F0A1F80D90119807F065FDCDE9AF
:1021300000019DED000B06F0FBFB8DED040B1298EA
:1021400007F05AFDCDE900019DED000B06F0F0FB14
:102150008DED020B9DED040B53EC102B9DED020B4E
:1021600051EC100B07F0B2F8CDE90801129807F016
:1021700043FDCDE900019DED000B06F0D9FB8DED8F
:10218000040B1398019007F037FDCDE902019DED96
:10219000040B53EC102B9DED020B51EC100B07F0D0
:1021A00037FBCDE906019DED080B53EC102B9DED9F
:1021B000060B51EC100B07F03DF9CDE90A019DED3E
:1021C0000A0B51EC100B07F04FF89FED582A0C90BA
:1021D000DDED0F1A9DED0E1ADDED0D0A9DED0C0AD9
:1021E000FFF724FB022003F0B9FB4FF0FF309FED17
:1021F000500AFFF7D6FB00283FF4D8AC9DED100A3B
:10220000DFED4C0AB4EEE00AF1EE10FA03D29FEDD6
:10221000490A8DED100A00BF119807F0EDFCCDE9D9
:1022200000019DED000B06F083FB8DED040B129871
:1022300007F0E2FCCDE900019DED000B06F078FB14
:102240008DED020B9DED040B53EC102B9DED020B5D
:1022500051EC100B07F03AF8CDE90801119807F09E
:10226000CBFCCDE900019DED000B06F061FB8DED8F
:10227000040B9DED160A8DED000A9DED000AFFF797
:102280007FFB00EE100AF8EEC00A9DED100A20EE6A
:10229000800A8DED010A019807F0AEFCCDE902013C
:1022A0009DED040B53EC102B9DED020B51EC100B2C
:1022B00007F0AEFACDE906019DED080B53EC102BAB
:1022C0009DED060B51EC100B07F0B4F8CDE90A01B7
:1022D0009DED0A0B51EC100B06F0C6FF0F90119804
:1022E00007F08AFCCDE900019DED000B06F020FB14
:1022F0008DED040B129807F07FFCCDE900019DEDF8
:10230000000B06F015FB8DED020B9DED040B53EC5D
:10231000102B9DED020B51EC100B06F0D7FFCDE911
:102320000801129808E000009A99193E0000000088
:102330000000AF430000484207F05EFCCDE9000119
:102340009DED000B06F0F4FA8DED040B9DED150AE2
:102350008DED000A9DED000AFFF712FB00EE100A5A
:10236000F8EEC00A9DED100A20EE800A8DED010AFC
:10237000019807F041FCCDE902019DED040B53ECFF
:10238000102B9DED020B51EC100B07F041FACDE93B
:1023900006019DED080B53EC102B9DED060B51EC47
:1023A000100B07F047F8CDE90A019DED0A0B51EC3F
:1023B000100B06F059FF0E90119807F01DFCCDE9A7
:1023C00000019DED000B06F0B3FA8DED040B1298A1
:1023D00007F012FCCDE900019DED000B06F0A8FA14
:1023E0008DED020B9DED040B53EC102B9DED020BBC
:1023F00051EC100B06F06AFFCDE90801119807F0C7
:10240000FBFBCDE900019DED000B06F091FA8DED8F
:10241000040B9DED140A8DED000A9DED000AFFF7F7
:10242000AFFA00EE100AF8EEC00A9DED100A20EE99
:10243000800A8DED010A019807F0DEFBCDE902016B
:102440009DED040B53EC102B9DED020B51EC100B8A
:1024500007F0DEF9CDE906019DED080B53EC102BDA
:102460009DED060B51EC100B06F0E4FFCDE90A01DF
:102470009DED0A0B51EC100B06F0F6FE0D90119835
:1024800007F0BAFBCDE900019DED000B06F050FA14
:102490008DED040B129807F0AFFBCDE900019DED27
:1024A000000B06F045FA8DED020B9DED040B53EC8D
:1024B000102B9DED020B51EC100B06F007FFCDE940
:1024C0000801129807F098FBCDE900019DED000B83
:1024D00006F02EFA8DED040B9DED130A8DED000A2A
:1024E0009DED000AFFF74CFA00EE100AF8EEC00A64
:1024F0009DED100A20EE800A8DED010A019807F08B
:102500007BFBCDE902019DED040B53EC102B9DEDFF
:10251000020B51EC100B07F07BF9CDE906019DEDA4
:10252000080B53EC102B9DED060B51EC100B06F035
:1025300081FFCDE90A019DED0A0B51EC100B06F06D
:1025400093FE1FED862A0C90DDED0F1A9DED0E1AFD
:10255000DDED0D0A9DED0C0AFFF768F99DED100AFF
:102560005FED8C0AB4EEE00AF1EE10FA07DD9DEDA6
:10257000100ADFEDF60A30EE600A8DED100A022037
:1025800003F0ECF94FF0FF301FED960AFFF709FA60
:1025900000283FF441AE9DED1B0AED4880ED000A96
:1025A0009DED1C0A80ED010A1DB000BD00B52DEDAA
:1025B0000A8B85B0B0EE409AF0EE608A1FEDA50A56
:1025C000B0EE408A38EEC90ADFEDE20A20EE200ABA
:1025D000F0EE409A9FEDE00A29EE800ADFEDDF0A77
:1025E00080EE201A9FEDDE0A61EE000AB0EE001ABE
:1025F00080EE810A9FEDDB1AC0EE010A9FEDDA0A38
:1026000020EE800AB0EE40AAD84890ED010AD848E2
:1026100080ED000AD74890ED010AD54880ED010A07
:10262000D54890ED010AD24880ED020AD34890EDDA
:10263000010ACF4880ED030A0020D14908600DE06F
:10264000B1EE4A0ACF48CE49096800EB810080ED1F
:10265000000ACB480068401CC9490860C8480068A7
:102660000428EDDB0020C649086023E0C548C449C2
:10267000096800EB810090ED000AB5EEC00AF1EEAA
:1026800010FA09D29FEDC00A6846BD49096800EBFF
:10269000810080ED000A08E09FEDBC0A6846B84959
:1026A000096800EB810080ED000AB5480068401C15
:1026B000B3490860B24800680428D7DB00BF9FED2B
:1026C000B40AB4EEC08AF1EE10FA48D2DDED030A86
:1026D000B0EE600AFFF754F900EE100AB8EEC00A37
:1026E00020EE080AF0EE40AADDED020AB0EE600A24
:1026F000FFF746F900EE100AB8EEC00A20EE080A0D
:10270000B0EE40BADDED010AB0EE600AFFF738F92D
:1027100000EE100AB8EEC00A20EE080AF0EE40BA49
:10272000DDED000AB0EE600AFFF72AF900EE100AAC
:10273000B8EEC00A20EE080AB0EE40CA9FED952A16
:10274000F0EE6A1AB0EE4B1AF0EE6B0AFFF76EF875
:102750009FED910A38EE000AB0EE408A16E09DED3A
:10276000032AF0EE421A9DED022AB0EE421A9DEDC8
:10277000012AF0EE420A9DED002AB0EE420A9FEDDA
:10278000852AFFF753F8022003F0E8F800209FEDB8
:10279000830AFFF706F9002891D06D48C0ED028A40
:1027A00005B0BDEC0A8B00BD10B52DED0A8BB0EE67
:1027B000408A6E4890ED010ABDEEC00AF0EE408AF4
:1027C0006C4890ED010ABDEEC00AB0EE409A6A482E
:1027D00090ED010ABDEEC00AF0EE409A674890ED18
:1027E000010ABDEEC00AB0EE40AA6D4890ED010AA4
:1027F000BDEEC00A10EE104A0EE0B0EE482AF8EE28
:10280000CA1AB8EEE91AF8EEC90AB8EEE80AFFF7F4
:102810006FF8022003F0A2F8614890ED010A30EE53
:10282000480A10EE101A084607F0E6F941EC1C0BB6
:10283000B0EE4C0AF0EE6C0A06F07AF8B0EE40BA50
:10284000F0EE60BA9FED570B53EC102B51EC1B0BC5
:1028500006F0A2FFD1D2BDEC0A8B10BD10B52DED54
:102860000C8BB0EE408AF0EE608A9FED500B06F0C4
:102870006BF8B0EE40CAF0EE60CA18EE100A07F02E
:10288000BBF941EC1D0B53EC1C2B06F0C1FF41ECD6
:102890001A0B9FED460B05F0E7FFB0EE40CAF0EED5
:1028A00060CA18EE900A07F0A7F941EC1D0B53EC33
:1028B0001C2B06F0ADFF41EC1B0B53EC1A2B07F061
:1028C000B1F841EC190B06F0CFFC00EE100ABDEC9C
:1028D0000C8B10BD10B52DED0C8BB0EE408AF0EED8
:1028E000608A9FED320B06F02FF8B0EE40CAF0EE92
:1028F00060CA18EE900A07F07FF941EC1D0B53EC0B
:102900001C2B06F085FF41EC1A0B9FED280B05F000
:10291000ABFFB0EE40CAF0EE60CA18EE100A07F046
:102920006BF941EC1D0B53EC1C2B06F071FF41ECD5
:102930001B0B53EC1A2B06F0C9FC41EC190B06F0EB
:1029400093FC00EE100ABDEC0C8B10BDCDCCCC3E40
:10295000840300203333833FDB0F494000003443BE
:102960000000E143959E6B430000B44378000020D3
:10297000A40300209C000020C0000020E4000020F0
:1029800028000020900300200000A0C20000A04208
:102990000000964300000000CDCC4C3E00004842B1
:1029A000080100200000000000002440000000603A
:1029B000FB21E9BF07B584B0069800287DD10498B3
:1029C00001287BD10598002878D1DFEDFD0A1FEDA5
:1029D0000F0AFFF743FF8DED030ADFEDF90A1FED44
:1029E000130AFFF777FF8DED020AF64890ED010A12
:1029F0008DED010A90ED000A8DED000ADDED031A60
:102A00009DED021ADDED010A9DED000AFFF742F887
:102A1000DFEDEB0A9FEDEC0AFFF720FF8DED030AD7
:102A2000DFEDE70A9FEDE80AFFF754FF8DED020A9C
:102A3000E44890ED010A8DED010A90ED000A8DED5C
:102A4000000ADDED031A9DED021ADDED010A9DED90
:102A5000000AFFF71FF8DFEDDD0A9FEDDB0AFFF745
:102A6000FDFE8DED030ADFEDD90A9FEDD70AFFF7D2
:102A700031FF8DED020AD34890ED010A8DED010A78
:102A800090ED000A8DED000ADDED031A9DED021AAE
:102A9000DDED010A9DED000AFEF7FCFFDFEDCB0A3C
:102AA0009FEDCB0AFFF7DAFE8DED030ADFEDC70AD3
:102AB0009FEDC70AFFF70EFF01E0EBE31FE08DED8E
:102AC000020AC04890ED010A8DED010A90ED000A5E
:102AD0008DED000ADDED031A9DED021ADDED010A10
:102AE0009DED000AFEF7D6FFB64890ED020A8DED87
:102AF000030A5FED660A9DED030AFFF757FD049890
:102B000001287DD1059801287AD1DFEDAD0A1FEDAE
:102B10005F0AFFF7A3FE8DED030ADFEDA90A1FEDA3
:102B2000630AFFF7D7FE8DED020AA64890ED010A71
:102B30008DED010A90ED000A8DED000ADDED031A1E
:102B40009DED021ADDED010A9DED000AFEF7A2FFE0
:102B5000DFED9B0A9FED9C0AFFF780FE8DED030AD7
:102B6000DFED970A9FED980AFFF7B4FE8DED020A9C
:102B7000944890ED010A8DED010A90ED000A8DED6B
:102B8000000ADDED031A9DED021ADDED010A9DED4F
:102B9000000AFEF77FFFDFED8D0A9FED8B0AFFF73E
:102BA0005DFE8DED030ADFED890A9FED870AFFF7D1
:102BB00091FE8DED020A834890ED010A8DED010A28
:102BC00090ED000A8DED000ADDED031A9DED021A6D
:102BD000DDED010A9DED000AFEF75CFFDFED7B0AEB
:102BE0009FED7B0AFFF73AFE8DED030ADFED770AD2
:102BF0009FED770AFFF76EFE8DED020A714800E047
:102C000036E090ED010A8DED010A90ED000A8DEDA0
:102C1000000ADDED031A9DED021ADDED010A9DEDBE
:102C2000000AFEF737FF674890ED020A8DED030AB0
:102C30005FEDB60A9DED030AFFF7B8FCDFED650A0C
:102C40001FEDAC0AFFF70AFE8DED030ADFED610A06
:102C50001FEDB00AFFF73EFE8DED020ADDED031A0F
:102C60009DED021A5FEDB50A1FEDB60AFEF712FFE1
:102C7000049801287DD1059802287AD1DFED500A09
:102C80001FEDBC0AFFF7EAFD8DED030ADFED4C0AEC
:102C90001FEDC00AFFF71EFE8DED020A494890EDB8
:102CA000010A8DED010A90ED000A8DED000ADDEDBF
:102CB000031A9DED021ADDED010A9DED000AFEF7F3
:102CC000E9FEDFED3F0A9FED400AFFF7C7FD8DEDFE
:102CD000030ADFED3B0A9FED3C0AFFF7FBFD8DED9C
:102CE000020A384890ED010A8DED010A90ED000AC4
:102CF0008DED000ADDED031A9DED021ADDED010AEE
:102D00009DED000AFEF7C6FEDFED300A9FED2E0AAC
:102D1000FFF7A4FD8DED030ADFED2C0A9FED2A0AD3
:102D2000FFF7D8FD8DED020A264890ED010A8DEDE2
:102D3000010A90ED000A8DED000ADDED031A9DED0C
:102D4000021ADDED010A9DED000AFEF7A3FEDFED9C
:102D50001F0A9FED1F0AFFF781FD8DED030ADFEDCE
:102D60001B0A9FED1B0AFFF7B5FD8DED020A154802
:102D700000E049E090ED010A8DED010A90ED000AB6
:102D80008DED000ADDED031A9DED021ADDED010A5D
:102D90009DED000AFEF77EFE0A4890ED020A8DEDD9
:102DA000030ADFED0D0A9DED030AFFF7FFFBDFEDE0
:102DB0000B0A9FED0B0AFFF751FD8DED030A11E0A1
:102DC000008009C484030020000096C400800444ED
:102DD0000080EDC400C002440000344300808944F8
:102DE000000000005FED030A1FED030AFFF772FD0C
:102DF0008DED020ADDED031A9DED021A5FED080A62
:102E00001FED090AFEF746FE049802287DD10598B9
:102E100000287AD15FED160A1FED150AFFF71EFD97
:102E20008DED030A5FED1A0A1FED190AFFF752FD37
:102E30008DED020A5FED1E0A1FED170AFFF70EFD6A
:102E40008DED010A5FED220A1FED1B0AFFF742FD1F
:102E50008DED000ADDED031A9DED021ADDED010A8C
:102E60009DED000AFEF716FE5FED280A1FED2A0A07
:102E7000FFF7F4FC8DED030A5FED2C0A1FED2E0A1F
:102E8000FFF728FD8DED020AFC4890ED010A8DED5B
:102E9000010A90ED000A8DED000ADDED031A9DEDAB
:102EA000021ADDED010A9DED000AFEF7F3FD5FED6C
:102EB000390A1FED390AFFF7D1FC8DED030A5FEDEA
:102EC0003D0A1FED3D0AFFF705FD8DED020AEB48B7
:102ED00090ED010A8DED010A90ED000A8DED000ADA
:102EE000DDED031A9DED021ADDED010A9DED000AEC
:102EF000FEF7D0FDE14890ED020A8DED030A5FED8B
:102F00004A0A9DED030AFFF751FB049802287CD181
:102F10000598012879D15FED560A1FED550AFFF794
:102F20009DFC8DED030A5FED5A0A1FED590AFFF76C
:102F3000D1FC8DED020A5FED5E0A1FED570AFFF727
:102F40008DFC8DED010A5FED620A1FED5B0AFFF754
:102F5000C1FC8DED000ADDED031A9DED021ADDEDD9
:102F6000010A9DED000AFEF795FD5FED680A1FED71
:102F70006A0AFFF773FC8DED030A5FED6C0A1FED23
:102F80006E0AFFF7A7FC8DED020ABC4890ED010A1E
:102F90008DED010A90ED000A8DED000ADDED031ABA
:102FA0009DED021ADDED010A9DED000AFEF772FDAE
:102FB0005FED7A0A1FED7A0AFFF750FC8DED030AE8
:102FC0005FED7E0A1FED7E0AFFF784FC8DED020A9D
:102FD000AA4890ED010A8DED010A90ED000A8DEDF1
:102FE000000ADDED031A9DED021ADDED010A9DEDEB
:102FF000000AFEF74FFDA14890ED020A8DED030A8D
:103000005FED8B0A9DED030A00E01BE0FFF7CEFAAF
:103010005FED900A1FED8E0AFFF720FC8DED030A8D
:103020005FED940A1FED920AFFF754FC8DED020A42
:10303000DDED031A9DED021A5FED970A1FED980A68
:10304000FEF728FD049802287ED1059802287BD13E
:103050005FEDA50A1FEDA40AFFF700FC8DED030A42
:103060005FEDA90A1FEDA80AFFF734FC8DED020AF7
:103070005FEDAD0A1FEDA60AFFF7F0FB8DED010A2B
:103080005FEDB10A1FEDAA0AFFF724FC8DED000ADF
:10309000DDED031A9DED021ADDED010A9DED000A3A
:1030A000FEF7F8FC5FEDB70A1FEDB90AFFF7D6FB94
:1030B0008DED030A5FEDBB0A1FEDBD0AFFF70AFCA9
:1030C0008DED020A6D4890ED010A8DED010A90ED3B
:1030D000000A8DED000ADDED031A9DED021ADDED0B
:1030E000010A9DED000AFEF7D5FC5FEDC80A1FED51
:1030F000C80AFFF7B3FB8DED030A5FEDCC0A1FEDA5
:10310000CC0AFFF7E7FB8DED020A5C4890ED010A5F
:103110008DED010A90ED000A8DED000ADDED031A38
:103120009DED021ADDED010A9DED000AFEF7B2FCED
:10313000524890ED020A8DED030A5FEDD90A9DED2C
:10314000030AFFF733FA00E019E05FEDDC0A1FED38
:10315000DC0AFFF783FB8DED030A5FEDE00A1FED4C
:10316000E00AFFF7B7FB8DED020ADDED031A9DEDD6
:10317000021A5FEDE50A1FEDE60AFEF78BFC0498E4
:1031800000287AD10598002877D15FEDF30A1FED6A
:10319000EC0AFFF763FB8DED030A5FEDF70A1FED05
:1031A000F00AFFF797FB8DED020ADFED350A1FED00
:1031B000F40AFFF753FB8DED010ADFED310A1FED35
:1031C000F80AFFF787FB8DED000ADDED031A9DED90
:1031D000021ADDED010A9DED000AFEF75BFCDFED52
:1031E000290A9FED290AFFF739FB8DED030ADFED70
:1031F000250A9FED250AFFF76DFB8DED020ADFED35
:10320000210A9FED220AFFF729FB8DED010ADFED70
:103210001D0A9FED1E0AFFF75DFB8DED000ADDED37
:10322000031A9DED021ADDED010A9DED000AFEF77D
:1032300031FCDFED170A9FED140AFFF70FFB8DED50
:10324000030ADFED130A9FED100AFFF743FB8DED34
:10325000020A0A4890ED010A8DED010A90ED000A7C
:103260008DED000ADDED031A9DED021ADDED010A78
:103270009DED000AFEF70EFC0DE03AE0840300200D
:1032800000800944008009C4000096C400000000CA
:103290000080044474E15FED020A9FEDFD0AFFF730
:1032A000DDFA8DED030A5FED060A9FEDF90AFFF7DF
:1032B00011FB8DED020AF74890ED010A8DED010A30
:1032C00090ED000A8DED000ADDED031A9DED021A66
:1032D000DDED010A9DED000AFEF7DCFBED4890ED07
:1032E000020A8DED030ADFEDEC0A9DED030AFFF7FC
:1032F0005DF9049800287AD10598012877D15FED0F
:103300001F0A1FED1E0AFFF7A9FA8DED030A5FEDF4
:10331000230A1FED220AFFF7DDFA8DED020A5FEDA9
:10332000280A1FED260AFFF799FA8DED010A5FEDD5
:103330002C0A1FED2A0AFFF7CDFA8DED000ADDED0C
:10334000031A9DED021ADDED010A9DED000AFEF75C
:10335000A1FB5FED340A1FED340AFFF77FFA8DED14
:10336000030A5FED380A1FED380AFFF7B3FA8DED57
:10337000020A5FED3C0A1FED3B0AFFF76FFA8DED85
:10338000010A5FED400A1FED3F0AFFF7A3FA8DED3A
:10339000000ADDED031A9DED021ADDED010A9DED37
:1033A000000AFEF777FB5FED460A1FED490AFFF7BB
:1033B00055FA8DED030A5FED4A0A1FED4D0AFFF73E
:1033C00089FA8DED020AB34890ED010A8DED010AEC
:1033D00090ED000A8DED000ADDED031A9DED021A55
:1033E000DDED010A9DED000AFEF754FB00E047E029
:1033F0005FED590A9FEDA60AFFF730FA8DED030A3B
:103400005FED5D0A9FEDA20AFFF764FA8DED020AF7
:10341000A04890ED010A8DED010A90ED000A8DEDB6
:10342000000ADDED031A9DED021ADDED010A9DEDA6
:10343000000AFEF72FFB974890ED020A8DED030A74
:10344000DFED950A9DED030AFFF7B0F8DFED930A73
:103450001FED720AFFF702FA8DED030ADFED8F0A06
:103460001FED760AFFF736FA8DED020ADDED031A3D
:103470009DED021A5FED7B0A1FED7C0AFEF70AFB49
:10348000049800287CD10598022879D15FED830A41
:103490001FED820AFFF7E2F98DED030A5FED870A5F
:1034A0001FED860AFFF716FA8DED020A5FED8C0A12
:1034B0001FED8A0AFFF7D2F98DED010A5FED900A40
:1034C0001FED8E0AFFF706FA8DED000ADDED031AF7
:1034D0009DED021ADDED010A9DED000AFEF7DAFA14
:1034E0005FED980A1FED980AFFF7B8F98DED030A12
:1034F0005FED9C0A1FED9C0AFFF7ECF98DED020AC7
:103500005FEDA00A1FED9F0AFFF7A8F98DED010AF4
:103510005FEDA40A1FEDA30AFFF7DCF98DED000AA9
:10352000DDED031A9DED021ADDED010A9DED000AA5
:10353000FEF7B0FA5FEDAA0A1FEDAD0AFFF78EF9AC
:103540008DED030A5FEDAE0A1FEDB10AFFF7C2F978
:103550008DED020A4F4890ED010A8DED010A90EDC4
:10356000000A8DED000ADDED031A9DED021ADDED76
:10357000010A9DED000AFEF78DFA5FEDBB0A00E03F
:1035800045E09FED430AFFF769F98DED030A5FED12
:10359000C00A9FED3F0AFFF79DF98DED020A3D48F5
:1035A00090ED010A8DED010A90ED000A8DED000A03
:1035B000DDED031A9DED021ADDED010A9DED000A15
:1035C000FEF768FA334890ED020A8DED030ADFED4D
:1035D000320A9DED030AFEF7E9FFDFED310A1FED28
:1035E000D50AFFF73BF98DED030ADFED2D0A1FED3C
:1035F000D90AFFF76FF98DED020ADDED031A9DED93
:10360000021A5FEDDE0A1FEDDF0AFEF743FA0698A5
:1036100001287DD1049801285ED10598B0BB5FEDEB
:10362000E50A9FED200AFFF719F98DED030A5FED1A
:10363000E90A9FED1C0AFFF74DF98DED020A1548C6
:1036400090ED010A8DED010A90ED000A8DED000A62
:10365000DDED031A9DED021ADDED010A9DED000A74
:10366000FEF718FA0B4890ED020A8DED030ADFED24
:103670000E0A9DED030AFEF799FFDFED0C0A9FEDA0
:103680000C0AFFF7EBF88DED030A13E024E00000CD
:103690000080EDC4840300200000344300C00244D5
:1036A000008089440000E1C4000034C30000FFC36F
:1036B000000000005FED030A1FED030AFFF70AF99F
:1036C0008DED020ADDED031A9DED021A5FED080A89
:1036D0001FED090AFEF7DEF9049801286FD105985D
:1036E00001286CD1DFEDFE0A1FED0F0AFFF7B6F8D7
:1036F0008DED030ADFEDFA0A1FED130AFFF7EAF872
:103700008DED020AF74890ED010A8DED010A00E007
:1037100081E290ED000A8DED000ADDED031A9DEDCA
:10372000021ADDED010A9DED000AFEF7B3F9DFEDA7
:10373000EC0A1FED240AFFF791F88DED030ADFED87
:10374000E80A1FED280AFFF7C5F88DED020AE548E3
:1037500090ED010A8DED010A90ED000A8DED000A51
:10376000DDED031A9DED021ADDED010A9DED000A63
:10377000FEF790F9DB4890ED020A8DED030A5FED4C
:10378000360A9DED030AFEF711FF5FED380A1FEDC3
:10379000380AFFF763F88DED030A5FED3C0A1FED71
:1037A0003C0AFFF797F88DED020ADDED031A9DED57
:1037B000021A5FED410A1FED420AFEF76BF9049809
:1037C00001286DD1059802286AD1DFEDC70A1FEDE7
:1037D000480AFFF743F88DED030ADFEDC30A1FED3A
:1037E0004C0AFFF777F88DED020ABE4890ED010A0A
:1037F0008DED010A90ED000A8DED000ADDED031A52
:103800009DED021ADDED010A9DED000AFEF742F979
:10381000DFEDB50A1FED5D0AFFF720F88DED030A15
:10382000DFEDB10A1FED610AFFF754F88DED020AD2
:10383000AC4890ED010A8DED010A90ED000A8DED86
:10384000000ADDED031A9DED021ADDED010A9DED82
:10385000000AFEF71FF9A34890ED020A8DED030A56
:103860005FED6F0A9DED030AFEF7A0FE5FED710AA2
:103870001FED710AFEF7F2FF8DED030A5FED750A89
:103880001FED750AFFF726F88DED020ADDED031A2C
:103890009DED021A5FED7A0A1FED7B0AFEF7FAF83A
:1038A0000498022854D10598F0BB5FED830A1FED00
:1038B000800AFEF7D3FF8DED030A5FED870A1FED47
:1038C000840AFFF707F88DED020A864890ED010A99
:1038D0008DED010A90ED000A8DED000ADDED031A71
:1038E0009DED021ADDED010A9DED000AFEF7D2F80A
:1038F0005FED950A1FED950AFEF7B0FF8DED030A07
:103900005FED990A1FED990AFEF7E4FF8DED020ABB
:10391000744890ED010A8DED010A90ED000A8DEDDD
:10392000000ADDED031A00E012E09DED021ADDED64
:10393000010A9DED000AFEF7ADF86A4890ED020A13
:103940008DED030A5FEDAC0A9DED030AFEF72EFE36
:103950000498022853D10598012850D1DFED630A5D
:103960001FEDAD0AFEF77AFF8DED030ADFED5F0A6A
:103970001FEDB10AFEF7AEFF8DED020A594890ED3A
:10398000010A8DED010A90ED000A8DED000ADDEDD2
:10399000031A9DED021ADDED010A9DED000AFEF706
:1039A00079F8DFED520A1FEDC10AFEF757FF8DEDE2
:1039B000030ADFED4E0A1FEDC50AFEF78BFF8DED02
:1039C000020A484890ED010A8DED010A90ED000AC7
:1039D0008DED000ADDED031A9DED021ADDED010A01
:1039E0009DED000AFEF756F83E4890ED020A8DED77
:1039F000030A5FEDD70A9DED030AFEF7D7FD049891
:103A0000022830D1059802282DD15FEDD70A1FED8D
:103A1000DB0AFEF723FF8DED030A5FEDDB0A1FEDE6
:103A2000DF0AFEF757FF8DED020A2E4890ED010ADE
:103A30008DED010A90ED000A8DED000ADDED031A0F
:103A40009DED021ADDED010A9DED000AFEF722F858
:103A5000244890ED020A8DED030A5FEDF10A9DED19
:103A6000030AFEF7A3FD049878BB059868BB5FEDD9
:103A7000F00A1FEDF40AFEF7F1FE8DED030A5FED8B
:103A8000F40A1FEDF80AFEF725FF8DED020A15482E
:103A900090ED010A8DED010A90ED000A8DED000A0E
:103AA000DDED031A9DED021ADDED010A9DED000A20
:103AB000FDF7F0FF0B4890ED020A8DED030ADFEDF4
:103AC0000C0A9DED030AFEF771FD0498E0BB059812
:103AD000012860D1DFED020A9FED060A0CE000002C
:103AE00000C001C48403002000007AC400401044D8
:103AF000000034C300000000FEF7B0FE8DED030AA5
:103B00005FED090A1FED050AFEF7E4FE8DED020ADE
:103B1000FE4890ED010A8DED010A90ED000A8DED51
:103B2000000ADDED031A9DED021ADDED010A9DED9F
:103B3000000AFDF7AFFF5FED160A9FEDF50AFEF7ED
:103B40008DFE8DED030A00E025E05FED1B0A9FED81
:103B5000F00AFEF7BFFE8DED020AEC4890ED010A77
:103B60008DED010A90ED000A8DED000ADDED031ADE
:103B70009DED021ADDED010A9DED000AFDF78AFFB9
:103B8000E24890ED020A8DED030A5FED270A9DEDF4
:103B9000030AFEF70BFD0498E8BB0598022852D1F2
:103BA0005FED2F0A1FED2D0AFEF758FE8DED030A7B
:103BB0005FED330A1FED310AFEF78CFE8DED020A30
:103BC000D24890ED010A8DED010A90ED000A8DEDCD
:103BD000000ADDED031A9DED021ADDED010A9DEDEF
:103BE000000AFDF757FFDFEDCB0A9FEDC90AFEF78C
:103BF00035FE8DED030ADFEDC70A9FEDC50AFEF71E
:103C000069FE8DED020AC14890ED010A8DED010AB1
:103C100090ED000A00E016E08DED000ADDED031ADC
:103C20009DED021ADDED010A9DED000AFDF732FF60
:103C3000B64890ED020A8DED030A5FED530A9DED43
:103C4000030AFEF7B3FC07B000BD70B52DED048B81
:103C500004460D46012C3FD1012D3DD19FEDAE0A0A
:103C6000FEF7A2FD5FED5D0A9FEDAC0AFEF7F6FDE3
:103C7000B0EE408A5FED610A9FEDA80AFEF72AFECA
:103C8000F0EE408AF0EE481AB0EE681A5FED670A6F
:103C90001FED680AFDF7FEFE9FEDA10AFEF784FD09
:103CA0005FED6C0A9FED9F0AFEF7D8FDB0EE408AEB
:103CB0005FED700A9FED9B0AFEF70CFEF0EE408A66
:103CC0005FED741A1FED751AF0EE480AFDF7E2FE7B
:103CD0009FED950AFEF768FD012C7CD1022D7AD16B
:103CE000DFED920A1FED7D0AFEF7B8FDB0EE408AC7
:103CF000DFED8E0A1FED810AFEF7ECFDF0EE408A43
:103D0000F0EE481AB0EE681A5FED860A1FED870ADA
:103D1000FDF7C0FE9FED860A00F00CFB9FED7E0ACA
:103D2000FEF742FDDFED810A9FED820AFEF796FD68
:103D3000B0EE408ADFED7D0A9FED7E0AFEF7CAFDF8
:103D4000F0EE408ADFED790A1FED960AFEF786FD58
:103D5000B0EE409ADFED750A1FED9A0AFEF7BAFD44
:103D6000F0EE409AF0EE481AB0EE681AF0EE490A0A
:103D7000FDF790FEF3EE0E0A9FED6E0AFEF76EFD64
:103D8000B0EE408AF3EE0E0A9FED6A0AFEF7A2FD3E
:103D9000F0EE408ADFED650A9FED660AFEF75EFDF4
:103DA000B0EE409ADFED610A9FED620AFEF792FDE8
:103DB000F0EE409AF0EE481AB0EE681AF0EE490ABA
:103DC000FDF768FE9FED560AFEF7EEFCF3EE0E0AD5
:103DD0001FEDB80A00E027E0FEF740FDB0EE408A94
:103DE000F3EE0E0A1FEDBD0AFEF774FDF0EE408AF9
:103DF000F3EE0E0A9FED4F0AFEF730FDB0EE409A4B
:103E0000F3EE0E0A9FED4B0AFEF764FDF0EE409ACA
:103E1000F0EE481AB0EE681AF0EE490AFDF73AFEE5
:103E20009FED410AFEF7C0FCBCBB012D35D15FED13
:103E3000CF0A9FED3A0AFEF711FDB0EE408A5FED22
:103E4000D30A9FED360AFEF745FDF0EE408AF0EE0C
:103E5000481AB0EE681A5FEDD90A1FEDDA0AFDF7CD
:103E600019FE9FED310AFEF79FFC5FEDDE0A9FED24
:103E70002B0AFEF7F3FCB0EE408A5FEDE20A9FEDFD
:103E8000270AFEF727FDF0EE408A5FEDE61A1FEDE8
:103E9000E71AF0EE480AFDF7FDFD002C7BD1022D5C
:103EA00079D1DFED220A1FEDED0AFEF7D7FCB0EE67
:103EB000408ADFED1E0A1FEDF10AFEF70BFDF0EE62
:103EC000408AF0EE481AB0EE681A5FEDF60A1FED70
:103ED000F70AFDF7DFFD9FED160A00F02BFADFED84
:103EE000130A9FED140AFEF7B9FCB0EE408ADFED2D
:103EF0000F0A9FED100AFEF7EDFCF0EE408ADFEDB1
:103F00000B0A9FED0D0AFEF7A9FC17E084030020C1
:103F10000000E1C4008089C4000096C50000B443DD
:103F200000C0A8C50000B9430000FAC400007A43ED
:103F30000000A4420000BE4300000000B0EE409A22
:103F40005FED060A1FED040AFEF7C4FCF0EE409A8E
:103F5000F0EE481AB0EE681AF0EE490AFDF79AFD45
:103F6000F3EE0E0A1FED0D0AFEF778FCB0EE408A64
:103F7000F3EE0E0A1FED110AFEF7ACFCF0EE408ADC
:103F80005FED160A1FED150AFEF768FCB0EE409AC9
:103F90005FED1A0A00E039E01FED1A0AFEF79AFCFD
:103FA000F0EE409AF0EE481AB0EE681AF0EE490AC8
:103FB000FDF770FD1FED240AFEF7F6FBF3EE0E0A87
:103FC0001FED230AFEF74AFCB0EE408AF3EE0E0A1C
:103FD0001FED270AFEF77EFCF0EE408AF3EE0E0A94
:103FE0001FED2C0AFEF73AFCB0EE409AF3EE0E0AF3
:103FF0001FED300AFEF76EFCF0EE409AF0EE481A24
:10400000B0EE681AF0EE490AFDF744FDBDEC048BF2
:1040100070BD70B52DED048B05460C46012D3FD1CA
:10402000012C1CD11FED3C0AFEF7BEFB5FED3E0AE2
:104030009FEDB90AFEF712FCB0EE408A5FED420A2E
:104040009FEDB50AFEF746FCF0EE408A5FED461A9A
:104050001FED471AF0EE480AFDF71CFD08E1BEEE21
:10406000000A00F067F91FED4C0AFEF79DFB5FEDBB
:104070004E0A9FEDA90AFEF7F1FBB0EE408A5FED14
:10408000520A9FEDA50AFEF725FCF0EE408A5FED8F
:10409000561A1FED571AF0EE480AFDF7FBFCE7E051
:1040A000022C71D11FED5C0AFEF77EFBDFED9B0A4F
:1040B0001FED5F0AFEF7D2FBB0EE408ADFED970AF4
:1040C0001FED630AFEF706FCF0EE408AF0EE481A98
:1040D000B0EE681A5FED680A1FED690AFDF7DAFCB9
:1040E000DFED8E0A9FED8E0AFEF7B8FBB0EE408A38
:1040F000DFED8A0A9FED8A0AFEF7ECFBF0EE408ABC
:10410000DFED860A1FED740AFEF7A8FBB0EE409AB9
:10411000DFED820A1FED780AFEF7DCFBF0EE409A35
:10412000F0EE481AB0EE681AF0EE490AFDF7B2FC5C
:1041300000F037F95FED800A9FED790AFEF78EFBFC
:10414000B0EE408A5FED840A9FED750AFEF7C2FB70
:10415000F0EE408ADFED710A9FED710AFEF77EFBFB
:10416000B0EE409ADFED6D0A9FED6D0AFEF7B2FBEF
:10417000F0EE409AF0EE481AB0EE681AF0EE490AF6
:10418000FDF788FC74E0FFE71FED970A00F0D2F816
:104190001FED970AFEF708FBDFED600A1FED9A0A94
:1041A000FEF75CFBB0EE408ADFED5C0A1FED9E0A75
:1041B000FEF790FBF0EE408AF0EE481AB0EE681A77
:1041C0005FEDA30A1FEDA40AFDF764FCDFED530ABF
:1041D0009FED530AFEF742FBB0EE408ADFED4F0A37
:1041E0009FED4F0AFEF776FBF0EE408ADFED4B0ABB
:1041F0001FEDAF0AFEF732FBB0EE409ADFED470A43
:104200001FEDB30AFEF766FBF0EE409AF0EE481A97
:10421000B0EE681AF0EE490AFDF73CFC00F0C1F878
:104220005FEDBB0A9FED3E0AFEF718FBB0EE408A39
:104230005FEDBF0A9FED3A0AFEF74CFBF0EE408AB5
:10424000DFED360A9FED360AFEF708FBB0EE409A26
:10425000DFED320A9FED320AFEF73CFBF0EE409AAA
:10426000F0EE481AB0EE681AF0EE490AFDF712FCBB
:10427000BDEC048B70BD02466FF002012948D0ED01
:10428000030AF4EEC00AF1EE10FA09D2D0ED030AE7
:10429000B1EE401AF4EEC10AF1EE10FA00DD491C4D
:1042A0002148D0ED030AF4EEC00AF1EE10FA09D26B
:1042B000D0ED030AB1EE401AF4EEC10AF1EE10FAA5
:1042C00000DD491C1948D0ED030AF4EEC00AF1EEF6
:1042D00010FA09D2D0ED030AB1EE401AF4EEC10A89
:1042E000F1EE10FA00DD491C1148D0ED030AF4EE9E
:1042F000C00AF1EE10FA09D2D0ED030AB1EE401A6D
:10430000F4EEC10AF1EE10FA00DD491C914201DD24
:10431000012070470020FCE700009643000048435E
:10432000000096C3780000209C000020C000002000
:10433000E400002010B52DED028BB0EE408AB5EE02
:10434000C08AF1EE10FA0ED89FED3E0A28EE000A60
:10435000DFED3D0A80EE201A9FED3C0A30EE410A67
:10436000B0EE408A0DE09FED3A0A28EE000A9FED7C
:10437000361AC0EE010A9FED350A30EE800AB0EE23
:10438000408ABDEEC80AB8EEC00AB0EE408ABCEE64
:10439000C80A10EE101A2F4803F01FFEBDEC028B66
:1043A00010BD00B58BB00121082002F04CFB0121AB
:1043B000084602F0FFFA02220121274802F0E7F83E
:1043C000022009908DF8280003208DF82900002094
:1043D0008DF82A0001208DF82B0009A91E4802F053
:1043E0004BF85320ADF818000020ADF81A0044F641
:1043F0001F6007904FF48070ADF8200006A91548A3
:1044000003F0FBFB6020ADF804000120ADF80600CE
:104410000220ADF8100001A90E4803F0BCFC0821F1
:104420000C4803F015FE01210A4803F051FC01215C
:10443000084803F06BFCBEEE000AFFF77BFF0BB0F1
:1044400000BD0000004083440000B44200EC9046F0
:10445000004083C4000C00400000024010B5012160
:10446000084602F0A7FA0121022002F0A3FA012176
:10447000042002F09FFA0121082002F09BFA01219A
:10448000102002F097FA0121202002F093FA012176
:10449000402002F08FFA10BD1CB580200090002053
:1044A0008DF8040002208DF8050001208DF807002A
:1044B0006946FE4801F0E0FF2020009000208DF8C2
:1044C000040002208DF8050001208DF807006946E0
:1044D000F64801F0D1FF0820009000208DF804007C
:1044E00002208DF8050001208DF807006946EF488D
:1044F00001F0C2FF4FF48040009000208DF80400CE
:1045000002208DF8050001208DF807006946E84873
:1045100001F0B2FF4FF48050009000208DF80400AD
:1045200002208DF8050001208DF807006946E0485B
:1045300001F0A2FF4FF48060009000208DF804008D
:1045400002208DF8050001208DF807006946D84843
:1045500001F092FF8020009000208DF804000220DE
:104560008DF8050001208DF807006946D14801F05B
:1045700083FF4020009000208DF8040002208DF879
:10458000050001208DF807006946CB4801F074FF53
:104590001020009000208DF8040002208DF8050006
:1045A00001208DF807006946C44801F065FF01202D
:1045B000009000208DF8040002208DF805000120F5
:1045C0008DF807006946B94801F056FF04200090B5
:1045D00000208DF8040002208DF8050001208DF8E0
:1045E00007006946B14801F047FF4FF48050009042
:1045F00000208DF8040002208DF8050001208DF8C0
:1046000007006946AE4801F037FF4FF48040009044
:1046100000208DF8040002208DF8050001208DF89F
:1046200007006946A64801F027FF012000900020FE
:104630008DF8040002208DF8050001208DF8070098
:1046400069469B4801F018FF1CBD10B580219748B2
:1046500001F074FF012824D12021944801F06EFF5D
:1046600001281ED10821914801F068FF012818D1C6
:1046700081038F4801F062FF012812D101038C48A9
:1046800001F05CFF01280CD18102894801F056FF3E
:10469000012806D18021874801F050FF012800D170
:1046A00010BD0020FCE710B58021804801F046FFD6
:1046B000B8B920217D4801F041FF90B94FF48061E5
:1046C0007B4801F03BFF60B980217A4801F036FF5A
:1046D00038B94FF48041764801F030FF012800D10D
:1046E00010BD0020FCE710B5FFF7DDFF40B301214E
:1046F0006F4801F023FF18BB4FF48041704801F070
:104700001DFFE8B94FF480516D4801F017FFB8B9AB
:104710000421664801F012FF90B90121634801F0BD
:104720000DFF58B11021654801F008FF012805D0A0
:104730004021614801F002FF012801D1012010BD94
:104740000020FCE710B5FFF7AEFF40B340215A4808
:1047500001F0F4FE18BB1021584801F0EFFEF0B94B
:104760000121524801F0EAFEC8B904214F4801F086
:10477000E5FEA0B94FF48051514801F0DFFE60B171
:104780004FF480414E4801F0D9FE012805D00121A7
:10479000474801F0D3FE012801D1012010BD0020BF
:1047A000FCE72DE9F04105460F4616460024082F88
:1047B00047D2DFE807F046040D17212B343D802156
:1047C0003C4801F0BBFE012801D1601CC4B200BF0F
:1047D0004FF48061364801F0B1FE012801D1601C20
:1047E000C4B200BF4FF48051314801F0A7FE012848
:1047F00001D1601CC4B200BF4FF480412C4801F0CD
:104800009DFE012801D1601CC4B200BF08212748C9
:1048100001F094FE012801D1601CC4B212E02021F5
:10482000224801F08BFE012801D1601CC4B209E0CE
:1048300080211E4801F082FE012801D1601CC4B213
:1048400000E000BF00BF082E56D2DFE806F0550496
:104850000D161F28404B4021174801F06FFE01281C
:1048600001D1601CC4B200BF1021144801F066FEE3
:10487000012801D1601CC4B200BF01210B4801F026
:104880005DFE012801D1601CC4B200BF04210748AD
:1048900001F054FE012801D1601CC4B200BF4FF4E6
:1048A0008051074801F04AFE01280BE00004024055
:1048B00000180240000C02400000024000080240C4
:1048C0000014024002D1601CC0B2044615E04FF44F
:1048D0008041FE4801F032FE012802D1601CC0B2C6
:1048E00004460AE00121FA4801F028FE012802D11D
:1048F000601CC0B2044600E000BF00BF012D01D023
:10490000022D06D1012C02D10120BDE8F08100204A
:10491000FBE7032D05D1022C01D10120F5E7002092
:10492000F3E700BFF1E710B58021EA4801F006FE89
:10493000012811D10121E64801F000FE01280BD128
:104940002021E44801F0FAFD30B94FF48041DF48FE
:1049500001F0F4FD00287DD08021DE4801F0EEFD5D
:1049600001281DD10121DA4801F0E8FD012817D105
:104970002021D84801F0E2FD012811D18103D3485C
:1049800001F0DCFD01280BD10821D24801F0D6FD51
:1049900030B94FF48051CD4801F0D0FD0028DAD075
:1049A0008021CC4801F0CAFD38BB0121C84801F084
:1049B000C5FD10BB2021C74801F0C0FD01281CD156
:1049C0008103C24801F0BAFD012816D10821C1486F
:1049D00001F0B4FD012810D10103BC4801F0AEFD87
:1049E00001280AD18103BA4801F0A8FD28B90421A1
:1049F000B84801F0A3FD0028ADD02021B54801F052
:104A00009DFD40BB4FF48041B04801F097FD10BBC5
:104A10000821B04801F092FD01281FD10103AB48E5
:104A200001F08CFD012819D18103A94801F086FD10
:104A3000012813D10421A74801F080FD01280DD1E0
:104A40000103A34801F07AFD28B90121A14801F032
:104A500075FD01E09AE001E00028A0D008219D4802
:104A600001F06CFD48BB4FF48051984801F066FDA1
:104A700018BB4FF48041964801F060FD01281CD11D
:104A80000421944801F05AFD012816D101039048F1
:104A900001F054FD012810D101218E4801F04EFD96
:104AA00001280AD181028A4801F048FD28B9102165
:104AB000894801F043FD002868D04FF480418448C4
:104AC00001F03CFD38BB0421824801F037FD10BBEA
:104AD0004FF480517E4801F031FD01281BD10121A6
:104AE0007C4801F02BFD012815D18102784801F0A6
:104AF00025FD01280FD11021774801F01FFD012865
:104B000009D18021754801F019FD20B94021744870
:104B100001F014FDD0B34FF480516D4801F00EFD4B
:104B2000E8B901216B4801F009FDC0B94FF480617B
:104B3000674801F003FD012811D11021664801F0FA
:104B4000FDFC01280BD18021644801F0F7FC01280D
:104B500005D14021624801F0F1FC012816D04FF444
:104B600080615B4801F0EAFC90B910215A4801F0DD
:104B7000E5FC68B98021594801F0E0FC012807D123
:104B80004021574801F0DAFC012801D1012010BD75
:104B90008021504801F0D2FC012811D101214C485C
:104BA00001F0CCFC01280BD120214A4801F0C6FCC1
:104BB00030B94FF48041454801F0C0FC00287DD059
:104BC0008021444801F0BAFCE0B90121404801F0DD
:104BD000B5FCB8B920213F4801F0B0FC012811D143
:104BE00081033A4801F0AAFC01280BD10821394879
:104BF00001F0A4FC30B94FF48051344801F09EFC20
:104C000000285BD02021334801F098FCE0B94FF434
:104C100080412E4801F092FCB0B908212D4801F0E6
:104C20008DFC012810D10103284801F087FC0128E0
:104C30000AD18103264801F081FC28B904212548C6
:104C400001F07CFC002839D00821224801F076FCD4
:104C5000E0B94FF480511D4801F070FCB0B94FF439
:104C600080411B4801F06AFC01280FD1042119483A
:104C700001F064FC012809D10103154801F05EFC34
:104C800020B90121134801F059FCB8B14FF480411B
:104C90000F4801F053FC50BB04210E4801F04EFCBC
:104CA00028BB4FF480510A4801F048FC01281ED16E
:104CB0000121084801F042FC012800E050E016D133
:104CC0008102034801F03AFC88B90BE0001402406D
:104CD000001802400004024000080240000C02409C
:104CE000000002401021F74801F028FCC0B34FF447
:104CF0008051F54801F022FCD8B90121F34801F0B8
:104D00001DFCB0B94FF48061EF4801F017FC012899
:104D10000FD11021EB4801F011FC012809D18021AD
:104D2000EB4801F00BFC20B94021EA4801F006FCF9
:104D3000B0B14FF48061E44801F000FC90B910215B
:104D4000E04801F0FBFB68B98021E14801F0F6FB87
:104D5000012807D14021DF4801F0F0FB012801D1F3
:104D6000022014E78021D94801F0E8FB01281DD179
:104D70000121D54801F0E2FB012817D12021D348B9
:104D800001F0DCFB012811D18103D34801F0D6FBEF
:104D900001280BD10821CD4801F0D0FB012805D115
:104DA0000103CD4801F0CAFB01287CD02021C7486F
:104DB00001F0C4FB01281DD18103C74801F0BEFBEF
:104DC000012817D10821C14801F0B8FB012811D1F1
:104DD0000103C14801F0B2FB01280BD18103BA489D
:104DE00001F0ACFB012805D10421B84801F0A6FB75
:104DF00001286FD00821B54801F0A0FB01281DD182
:104E00000103B54801F09AFB012817D18103AE4890
:104E100001F094FB012811D10421AC4801F08EFB74
:104E200001280BD10103A84801F088FB012805D116
:104E30000121A64801F082FB01284BD04FF48041AC
:104E4000A14801F07BFB01281DD104219F4801F0FE
:104E500075FB012817D101039B4801F06FFB012866
:104E600011D10121994801F069FB01280BD1810280
:104E7000954801F063FB012805D11021914801F00C
:104E80005DFB012826D04FF480518F4801F056FB7E
:104E9000012821D101218D4801F050FB01281BD1AF
:104EA0008102894800E015E001F048FB012813D198
:104EB0001021844801F042FB01280DD18021844853
:104EC00001F03CFB012807D14021824801F036FB6C
:104ED000012801D103205AE6002058E610B58021B0
:104EE0007A4801F02BFB10BB2021784801F026FB0B
:104EF000E8B90821754801F021FBC0B94FF48041A1
:104F0000714801F01BFB90B94FF480516E4801F0DD
:104F100015FB60B94FF480616B4801F00FFB30B9AD
:104F200080216B4801F00AFB08B9012010BD002068
:104F3000FCE710B54021674801F000FB08BB1021D9
:104F4000604801F0FBFAE0B90121604801F0F6FA8F
:104F5000B8B904215D4801F0F1FA90B94FF48051DD
:104F60005D4801F0EBFA60B94FF480415A4801F016
:104F7000E5FA30B90121544801F0E0FA08B90120FE
:104F800010BD0020FCE770B50546002480214F4885
:104F900001F0D4FA012801D1601CC4B220214B4891
:104FA00001F0CCFA012801D1601CC4B208214748A5
:104FB00001F0C4FA012801D1601CC4B24FF4804151
:104FC000414801F0BBFA012801D1601CC4B24FF482
:104FD00080513D4801F0B2FA012801D1601CC4B2F1
:104FE0004FF48061384801F0A9FA012801D1601C12
:104FF000C4B28021364801F0A1FA012801D1601C19
:10500000C4B2AC4201DB012070BD0020FCE710B54A
:1050100080212F4801F092FA28BB4FF480612A4882
:1050200001F08CFAF8B94FF48051274801F086FA64
:10503000C8B94FF48041244801F080FA98B9802122
:10504000224801F07BFA01280BD020211F4801F0F3
:1050500075FA012805D008211C4801F06FFA0128D3
:1050600001D1012010BD0020FCE710B580211748B8
:1050700001F064FA28BB2021144801F05FFA00BB5C
:105080000821124801F05AFAD8B94FF480410E486D
:1050900001F054FAA8B980210D4801F04FFA012817
:1050A0000DD04FF48061084801F048FA012806D07D
:1050B0004FF48051044801F041FA01280ED101203B
:1050C00010BD0BE00008024000180240000402403E
:1050D000000C024000000240001402400020EFE7F4
:1050E00010B58021FB4801F029FAB8B94FF480616E
:1050F000F94801F023FA88B98021F84801F01EFA36
:1051000060B92021F54801F019FA38B94FF480410F
:10511000F14801F013FA012800D110BD0020FCE78E
:1051200010B59FEDEF2AF3EE0E1ABBEE0E1AFBEE52
:105130000E0AB3EE0E0AFCF779FB012000F00EFC1C
:1051400010BD10B59FEDE62AFBEE0E1AB3EE0E1A57
:10515000F3EE0E0ABBEE0E0AFCF768FB012000F02E
:10516000FDFB10BD10B59FEDDE2AF3EE0E1AB3EE77
:105170000E1AFBEE0E0ABBEE0E0AFCF757FB0120DF
:1051800000F0ECFB10BD10B59FEDD52AFBEE0E1A1A
:10519000BBEE0E1AF3EE0E0AB3EE0E0AFCF746FB58
:1051A000012000F0DBFB10BD10B59FEDCD2ADFED37
:1051B000CC1A9FEDCB1ADFEDCA0A9FEDC90AFCF7A6
:1051C00035FB012000F0CAFB10BD10B59FEDC42ACD
:1051D000F3EE0E1AB3EE0E1AF3EE0E0AB3EE0E0A4B
:1051E000FCF724FB012000F0B9FB10BD10B59FEDCA
:1051F000BC2AFBEE0E1ABBEE0E1AFBEE0E0ABBEE3D
:105200000E0AFCF713FB012000F0A8FB10BD0020E4
:10521000B4490870B4490870B4490870B4490870BA
:10522000B4490870B4490870704710B5B1480078A7
:1052300060B9FFF753FE30B1FFF77BFE18B10120D4
:10524000AC49087002E00220AA490870A948007819
:10525000022873D1FFF767FB01281FD1A34800780C
:1052600001281BD10020A249087002209F49087024
:10527000002410E09C480078042802D1FFF7A5FF25
:1052800007E099480078052802D1FFF7AFFF00E05A
:1052900003E0601CC4B2052CECDB31E0FFF743FBFC
:1052A00002281FD19148007801281BD10020904985
:1052B000087002208D490870002410E08A480078A8
:1052C000042802D1FFF781FF07E08748007805280E
:1052D00002D1FFF78BFF00E003E0601CC4B20A2C90
:1052E000ECDB0DE0FFF71FFB032809D17F480078B6
:1052F000012805D100207E49087002207B490870F2
:105300007A48007850BB78480078764908700220C7
:10531000754908707648007800BB80216F4801F01D
:105320000DF901280BD101216B4801F007F9012883
:1053300005D16F4908706D4908701FE012E1FFF751
:10534000CDFD60B10121644801F0F8F8012806D1D3
:105350000220674908700120644908700EE080212E
:105360005E4801F0EBF8012808D1FFF7E2FD28B113
:1053700003205F49087001205C4908705B48007891
:10538000012860D15A48007801281CD18103524875
:1053900001F0D4F850B95848007838B9524800782C
:1053A000504908700320504908704CE002204F49D2
:1053B00008704D4800784B49087001204A49087030
:1053C0004D4908703FE04A48007802281AD141034D
:1053D000414801F0B3F850B94748007838B942481D
:1053E00000784049087003203F4908702BE03E4890
:1053F00000783C49087004203B49087001203E4970
:10540000087020E03A48007803281CD10421334872
:1054100001F094F850B93848007838B9324800782B
:10542000304908700320304908700CE03248007899
:1054300048B92D4800782B49087005202A49087082
:1054400001202D4908702948007802283CD1FFF737
:1054500047FE38B1244800782249087001202249CB
:10546000087014E0FFF701FE38B11F4800781D49AD
:10547000087002201C49087009E0FFF7C8FD30B130
:105480001948007817490870032017490870164812
:105490000078012818D113480078022808D1002488
:1054A00003E0FFF75FFE601CC4B20A2CF9DB0BE0DF
:1054B0000C480078032807D1002403E0FFF763FEBF
:1054C000601CC4B20A2CF9DB0748007806282CD2ED
:1054D00014E00000000C02400018024000040240EA
:1054E000000000002D0000202C0000202E000020D5
:1054F000300000202F00002031000020DFE800F005
:105500000C0306090F12FFF70BFE12E0FFF72AFE4D
:105510000FE0FFF738FE0CE0FFF746FE09E0FFF76B
:1055200054FE06E0FFF762FE03E00A2000F016FAE0
:1055300000BF00BF0620FFF726FD88B1CB480078EA
:1055400002280DD1FFF730FE0020C9490870C94973
:1055500008700A20C5490870C7490870012010BDAD
:105560000020FCE7C5480078012807D0C348007830
:10557000022803D0C1480078032873D1FFF7D3F97C
:1055800001281FD1B948007801281BD10020BA4951
:1055900008700220B5490870002410E0B448007873
:1055A000042802D1FFF711FE07E0B1480078052872
:1055B00002D1FFF71BFE00E003E0601CC4B2052C23
:1055C000ECDB31E0FFF7AFF902281FD1A7480078E4
:1055D00001281BD10020A84908700220A3490870A7
:1055E000002410E0A2480078042802D1FFF7EDFD66
:1055F00007E09F480078052802D1FFF7F7FD00E09B
:1056000003E0601CC4B20A2CECDB0DE0FFF78BF961
:10561000032809D195480078012805D10020964932
:1056200008700220914908709048007850BB90485B
:1056300000789049087002208D4908708E480078E3
:1056400000BB80218E4800F079FF01280BD1012199
:105650008C4800F073FF012805D187490870834901
:1056600008701FE0FDE0FFF764FC60B18021864810
:1056700000F064FF012806D102207F490870012054
:105680007A4908700EE04021804800F057FF012859
:1056900008D1FFF723FC28B10320774908700120C7
:1056A0007249087071480078012861D17248007809
:1056B00001281CD18103734800F040FF50B97448A1
:1056C000007838B96A4800786A4908700220684949
:1056D00008704DE00220654908706548007865490A
:1056E00008700120624908706949087040E062480A
:1056F000007802281AD10821614800F01FFF50B934
:105700006348007838B95A4800785A49087002202E
:10571000574908702CE05648007856490870042014
:105720005349087001205A49087021E05248007816
:1057300003281DD14FF48051564800F0FFFE50B9A8
:105740005348007838B94A4800784A49087002201E
:10575000474908700CE04E48007848B94448007842
:1057600044490870052042490870012048490870E2
:105770003E48007802283CD1FFF7B2FC38B13C48E3
:1057800000783C49087001203949087014E0FFF79F
:105790006CFC38B13648007836490870022034492C
:1057A000087009E0FFF733FC30B131480078314927
:1057B000087003202E4908702D480078012818D160
:1057C0002C480078022808D1002403E0FFF7CAFC27
:1057D000601CC4B20A2CF9DB0BE0264800780328D1
:1057E00007D1002403E0FFF7CEFC601CC4B20A2CF2
:1057F000F9DB1F480078062816D2DFE800F00C031A
:1058000006090F12FFF78CFC12E0FFF7ABFC0FE06C
:10581000FFF7B9FC0CE0FFF7C7FC09E0FFF7D5FC88
:1058200006E0FFF7E3FC03E00A2000F097F800BF72
:1058300000BF0620FFF7A7FB88B10C4800780228BC
:105840000DD1FFF7B1FC0020094908700949087023
:105850000A20064908700849087001207FE60020E8
:105860007DE602200549087000BF78E62E00002082
:105870002C0000202D000020300000202F000020F0
:105880000004024000180240000C024000000240E8
:10589000310000200014024010B504466FF00400EF
:1058A00000F046FDE11704EB5171C1F3C701394A1D
:1058B00011701046007800EB4001C1EBC0104FF6AC
:1058C000FF7101EAC0003449088010BD0146314A29
:1058D00012784A434FF0E0235A6100229A611A4637
:1058E000126942F001021A6100BF4FF0E022106914
:1058F00000F001021AB100F48032002AF5D04FF016
:10590000E022126922F001024FF0E0231A61002226
:105910009A6170470146204A12884A434FF0E023BB
:105920005A6100229A611A46126942F001021A6114
:1059300000BF4FF0E022106900F001021AB100F43C
:105940008032002AF5D04FF0E022126922F00102E5
:105950004FF0E0231A6100229A61704770B5044647
:105960004FF4077094FBF0F0C6B24FF4077094FB4D
:10597000F0F100FB114085B205E04FF40770FFF72E
:10598000C9FF701EC6B2002EF7D115B12846FFF729
:10599000C1FF70BD320000203400002000BF7047FE
:1059A00000BFFE4A128802F04002002AF9D0C2B2BB
:1059B000FA4B9A80704710B588B00446012108461A
:1059C00000F0F8FF0121102001F04EF80722092114
:1059D000F34800F0DCFD07220A21F14800F0D7FD72
:1059E0004FF4C060069002208DF81C008DF81D0059
:1059F00000208DF81E0001208DF81F0006A9E84840
:105A000000F03AFD02940020ADF80C00ADF80E0055
:105A1000ADF81000ADF814000C20ADF8120002A98A
:105A2000DE4801F082F90121DC4801F006FA01228A
:105A300040F22551D94801F0B6FA25208DF804002E
:105A400003208DF805008DF8060001208DF8070071
:105A500001A800F020FC08B010BD10B588B00446C5
:105A60000121022000F0A6FF0121880400F0EBFFD5
:105A700007220B21CB4800F08AFD07220A21C948E2
:105A800000F085FD4FF44060069002208DF81C0068
:105A90008DF81D0000208DF81E0001208DF81F00DC
:105AA00006A9C04800F0E8FC02940020ADF80C0004
:105AB000ADF80E00ADF81000ADF814000C20ADF8F4
:105AC000120002A9B84801F030F90121B64801F0EE
:105AD000B4F9012240F22551B34801F064FA2720BD
