:020000040800F2
:10000000400B00207160000811060008130600086C
:10001000170600081B0600081F0600080000000065
:10002000000000000000000000000000230600089F
:100030002506000800000000270600082906000821
:100040008B6000088B6000088B6000088B600008E4
:100050008B6000088B6000088B6000088B600008D4
:100060008B6000088B6000088B6000088B600008C4
:100070008B6000088B6000088B6000088B600008B4
:100080008B6000088B6000088B6000085509000831
:100090006B0900088B6000088B6000088B6000080B
:1000A0008B6000088B6000088B6000088B60000884
:1000B0008B6000088B6000088B6000088B60000874
:1000C0008B6000088B6000088B6000088B60000864
:1000D0008B600008375F000809600008B15F000806
:1000E0008B6000088B6000088B6000088B60000844
:1000F0008B6000088B6000088B6000088B60000834
:100100008B6000088B6000088B6000088B60000823
:100110008B6000088B6000088B6000088B60000813
:100120008B6000088B6000088B6000088B60000803
:100130008B6000088B6000088B6000088B600008F3
:100140008B6000088B6000088B6000088B600008E3
:100150008B6000088B6000088B600008316000082D
:100160008B6000088B6000088B6000088B600008C3
:100170008B6000088B6000088B6000088B600008B3
:100180008B6000088B60000800F002F800F03CF87B
:100190000AA090E8000C82448344AAF10107DA45E2
:1001A00001D100F031F8AFF2090EBAE80F0013F0F8
:1001B000010F18BFFB1A43F001031847749A00009F
:1001C000949A0000103A24BF78C878C1FAD8520730
:1001D00024BF30C830C144BF04680C6070470000C1
:1001E0000023002400250026103A28BF78C1FBD840
:1001F000520728BF30C148BF0B6070471FB509F0D8
:100200007CFC1FBD10B510BD08F0F8F91146FFF7D2
:10021000F5FF00F06CF808F016FA03B4FFF7F2FFF0
:1002200003BC05F0CDFA0000014600220020EC4B93
:1002300018600AE0EB48EA4B1B6850F823000244C0
:10024000E7480068401CE64B1860E5480068032852
:10025000F0DB022A15D10020E14B18600DE0E148E7
:10026000DF4B1B6850F8230010B9DD480068704769
:10027000DB480068401CDA4B1860D9480068032846
:10028000EDDB012A13D1012907D1D64840680128A6
:1002900001D10020EBE70120E9E7022907D1D1488D
:1002A0000068012801D10220E1E70020DFE73AB928
:1002B000012901D10120DAE7022901D10020D6E786
:1002C00000BFD4E7C8488068002801DD01207047DE
:1002D000C5480068002801DD0020F8E7C248006931
:1002E000002801DD0220F2E74FF0FF30EFE72DEDAF
:1002F000048B00BF00254FF4E13005F06EFA4FF497
:10030000E13005F00FFB4FF4E13005F0B8FA4FF49F
:10031000E13005F059FBA82005F0D0F94FF4A060BA
:1003200005F0C6FE04F04EF904F062F900F078FE24
:1003300001F038F900F082FA04F035FF04F0E5F836
:1003400000260020A94908604FF4FA6005F018FA69
:1003500005F07EF8A449886005F06DF9A2490860AF
:1003600008468068F0BB03200861DFEDA10A9FED1D
:10037000A10A02F027FBB0EE408ADFED9D0A9FED57
:100380009D0A02F05BFBF0EE408AF0EE481AB0EEF8
:10039000681ADFED970A9FED960A01F02FFCDFED5A
:1003A000960A9FED940A02F00DFBB0EE408ADFED55
:1003B000920A9FED900A02F041FBF0EE408ADFEDD9
:1003C0008C0A9FED8C0A02F0FDFAB0EE409ADFED48
:1003D000880A9FED880A02F031FBF0EE409AF0EEB9
:1003E000481A00E00AE0B0EE681AF0EE490A01F09F
:1003F00005FC00208149086002240AE07A48006870
:1004000018B903207849086102E0002076490861A4
:100410000324E4E0062C7DD2DFE804F0DE033E4B4B
:10042000B6CE002507E09FED720A754800EB850007
:1004300080ED000A6D1C032DF5DB6C4802687148E5
:1004400001686E48006802F069FB68480068F0B90E
:100450000120664908606C48006801280AD1694893
:10046000006818B167480068022803D19FED670A49
:1004700004F014F86448006802280BD16148006851
:10048000012807D1BEEE000A04F008F802E00020BF
:10049000564908600224A1E004F091FE06463EB1F0
:1004A00004F081FE5148006808B9032400E00424E8
:1004B00094E004F0CDFF4C49504A126841F83200F4
:1004C0004E4A126851F8320005F03CF846494B4A52
:1004D000126801EBC201486043484849096850F876
:1004E0003100002801DC052478E03F4843490968D1
:1004F00000EBC1004068002825DD3B483F4A1268F8
:1005000000EBC2004168012003F053FC36483B4930
:10051000096800E060E000EBC10040683A4908600B
:100520003149364A126801EBC2014868FFF77CFE88
:10053000344908604FF0FF302B49304A126801EB14
:10054000C20148601EE028482C4A126850F8321058
:10055000002003F02EFC24482849096850F8310097
:10056000294908602049254A126851F83200FFF7EE
:100570005BFE244908604FF0FF301B491F4A126898
:1005800041F83200012429E01F4801681D48006835
:1005900003F0F3FD012113481A4A126840F82210B3
:1005A000FFF790FE1549086008460068002801DB47
:1005B000012400E0052411E09FED0D2ADFED0C1A67
:1005C0009FED0B1ADFED0A0A9FED090A01F0E2F92F
:1005D000012005F0D5F801E0052400BF00BF19E7B0
:1005E000100000206C000020540000200C000020AF
:1005F00000000000000034C300007A430400002023
:100600008403002008000020000000200000A44215
:10061000704700BFFEE700BFFEE700BFFEE700BF78
:10062000FEE7704770477047704700000CB5002028
:10063000019000907648006840F48030744908606A
:1006400000BF7348006800F4003000900198401C1F
:100650000190009818B90198B0F5A04FF1D16C48FD
:10066000006800F4003010B10120009001E000208B
:1006700000900098012846D165484030006840F05D
:1006800080506349403108606248006840F440404F
:10069000604908605E48083000685D4908310860BC
:1006A0000846006840F4004008600846006840F4CE
:1006B000A05008605848091F0860081F006840F0F3
:1006C0008070091F086000BF5148006800F000708A
:1006D0000028F9D040F20570504908604C480830B5
:1006E000006820F003004A490831086008460068A5
:1006F00040F00200086000BF45480830006800F084
:100700000C000828F8D10CBD10B54548006840F42D
:100710007000434908603E48006840F001003C49D1
:10072000086000203A4908310860394800683D49AE
:100730000840374908603C48091D0860081F0068E8
:1007400020F48020091F0860002031490C31086026
:10075000FFF76CFF4FF0006031498039086010BD31
:1007600070B500200022022300240221284D083504
:100770002D6805F00C0020B1042806D0082834D1DB
:1007800007E02A4D2A4E356033E02A4D284E356069
:100790002FE01F4D2D1D2D68C5F380541C4D2D1DC0
:1007A0002D6805F03F0154B1224DB5FBF1F5184E0F
:1007B000361D3668C6F3881605FB06F209E01B4DA8
:1007C000B5FBF1F5124E361D3668C6F3881605FBEB
:1007D00006F20F4D2D1D2D68C5F301456D1C6B00F4
:1007E000B2FBF3F5124E356003E0104D104E35604C
:1007F00000BF00BF064D08352D68C5F303150E4E2A
:10080000705D0B4D2D68C540094E356070BD000010
:10081000003802400070004008544007003C02408D
:1008200088ED00E0FFFFF6FE103000240024F40005
:100830001400002000127A001800002000B58BB0D0
:100840000121084605F0C8FF0121480606F00DF811
:100850004FF4C050099002208DF8280000208DF838
:100860002A0003208DF8290001208DF82B0009A90A
:10087000FE4805F013FD09220B21FC4805F099FD07
:1008800009220C21F94805F094FDF94806F022FBF5
:1008900006A806F043FC00208DF81E008DF81F000E
:1008A0008DF8200001208DF8210000208DF8220015
:1008B0008DF823008DF81A008DF81B0008208DF8A4
:1008C0001C0003208DF81D00ADF8180006A9E848AB
:1008D00006F019FB00208DF812008DF8130001209E
:1008E0008DF814000020ADF80800ADF80A00ADF84E
:1008F0000C00ADF80E00ADF8100001208DF81500C9
:1009000002A806F08AFB01220221D94806F084FEE3
:1009100001221146D64806F07FFE14208DF804000F
:1009200002208DF8050001208DF806008DF80700E3
:1009300001A805F0C2FB13208DF8040001208DF8FA
:1009400005008DF806008DF8070001A805F0B5FB3D
:100950000BB000BD10B50121C54806F0C5FE18B1A9
:100960000121C34806F05BFF10BD00B52DED048BDF
:1009700093B00EAA0021BE4806F033FD40F20121DB
:100980000E9888427ED10EA8017CC07B41EA0020EF
:1009900000B200EE100AB8EEC00AB64880ED050AB3
:1009A0000EA8827B407B42EA002000B200EE100AD3
:1009B000B8EEC00A10EE101A084609F02DF841EC06
:1009C000190B9FEDAD0B53EC102B08F043FC41ECE1
:1009D000180B08F059FB00EE100AA64880ED030A38
:1009E000008B68B9A348408B50B90EA8007B9DF8D6
:1009F000431040EA012000B29E49488308830CE07E
:100A00009C48408B9B4908830EA8007B9DF84310AF
:100A100040EA012000B297494883964890ED000AC9
:100A20008DED050A90ED010A8DED060A90ED020AA2
:100A30008DED070A90ED030A8DED080A90ED040A8A
:100A40008DED090A90ED050A8DED0A0A008BADF8CF
:100A50002C008848408BADF82E008648C0690C9069
:100A6000844890F820008DF83400142209A96846C3
:100A700007F07AFD05A80FC800F09CFA7D48D0ED7C
:100A8000010A00E004E030EE200A80ED010A33E2C2
:100A900040F202210E9888427ED10EA8017CC07BD4
:100AA00041EA002000B200EE100AB8EEC00A744815
:100AB00080ED050A0EA8827B407B42EA002000B24E
:100AC00000EE100AB8EEC00A10EE101A084608F040
:100AD000A3FF41EC190B9FED680B53EC102B08F0B2
:100AE000B9FB41EC180B08F0CFFA00EE100A64488D
:100AF00080ED030A008B68B96148408B50B90EA89D
:100B0000007B9DF8431040EA012000B25C49488315
:100B100008830CE05A48408B594908830EA8007B93
:100B20009DF8431040EA012000B2554948835448DB
:100B300090ED000A8DED050A90ED010A8DED060A93
:100B400090ED020A8DED070A90ED030A8DED080A7B
:100B500090ED040A8DED090A90ED050A8DED0A0A63
:100B6000008BADF82C004648408BADF82E00444871
:100B7000C0690C90424890F820008DF8340014228F
:100B800009A9684607F0F0FC05A80FC800F012FAA2
:100B90003B48D0ED010A00E004E030EE200A80ED91
:100BA000010AA9E140F203210E9888425DD10EA806
:100BB000017CC07B41EA002000B200EE100AB8EED2
:100BC000C00A304880ED050A0EA8827B407B42EACD
:100BD000002000B200EE100AB8EEC00A10EE101AA3
:100BE000084608F019FF41EC190B9FED230B53EC5D
:100BF000102B08F02FFB41EC180B08F045FA00EE23
:100C0000100A204880ED030A008B68B91D48408B0C
:100C100050B90EA8007B9DF8431040EA012000B2B5
:100C20001849488308830CE01648408B154908830F
:100C30000EA8007B9DF8431040EA012000B2114944
:100C40004883104890ED000A8DED050A90ED010AE9
:100C50008DED060A90ED020A8DED070A90ED030A6C
:100C60008DED080A90ED040A0EE033E0000002402A
:100C700000640040780000200000000000003340C5
:100C80009C000020C00000208DED090A90ED050AAF
:100C90008DED0A0A008BADF82C00BD48408BADF8F5
:100CA0002E00BB48C0690C90B94890F820008DF820
:100CB0003400142209A9684607F056FC05A80FC89D
:100CC00000F078F9B248D0ED010A30EE200A80ED4C
:100CD000010A11E10E98B0F5017F7CD10EA8017CCC
:100CE000C07B41EA002000B200EE100AB8EEC00A54
:100CF000A84880ED050A0EA8827B407B42EA0020CE
:100D000000B200EE100AB8EEC00A10EE101A084643
:100D100008F082FE41EC190B1FED290B53EC102B50
:100D200008F098FA41EC180B08F0AEF900EE100A42
:100D3000984880ED030A008B68B99648408B50B9FB
:100D40000EA8007B9DF8431040EA012000B29149B3
:100D5000488308830CE08F48408B8E4908830EA897
:100D6000007B9DF8431040EA012000B28949488386
:100D7000884890ED000A8DED050A90ED010A8DED91
:100D8000060A90ED020A8DED070A90ED030A8DED3B
:100D9000080A90ED040A8DED090A90ED050A8DED23
:100DA0000A0A008BADF82C007A48408BADF82E0073
:100DB0007848C0690C90774890F820008DF834008E
:100DC000142209A9684607F0CFFB05A80FC800F058
:100DD000F1F8704800E006E0D0ED010A30EE200A9C
:100DE00080ED010A88E040F205210E9888427CD10E
:100DF0000EA8017CC07B41EA002000B200EE100A80
:100E0000B8EEC00A644880ED050A0EA8827B407BDC
:100E100042EA002000B200EE100AB8EEC00A10EE5E
:100E2000101A084608F0F8FD41EC190B1FED6E0B87
:100E300053EC102B08F00EFA41EC180B08F024F9D3
:100E400000EE100A544880ED030A008B68B952483E
:100E5000408B50B90EA8007B9DF8431040EA01205A
:100E600000B24D49488308830CE04B48408B4A4907
:100E700008830EA8007B9DF8431040EA012000B2D1
:100E800045494883444890ED000A8DED050A90EDF0
:100E9000010A8DED060A90ED020A8DED070A90ED2C
:100EA000030A8DED080A90ED040A8DED090A90ED14
:100EB000050A8DED0A0A008BADF82C003648408BF0
:100EC000ADF82E003448C0690C90334890F82000EB
:100ED0008DF83400142209A9684607F045FB05A8DF
:100EE0000FC800F067F82C4800E005E0D0ED010ADB
:100EF00030EE200A80ED010A13B0BDEC048B00BD7A
:100F0000F0B585B004460D4616461F4600208DF804
:100F100008008DF8090008208DF80A008001009073
:100F2000200A8DF80B00E1B28DF80C10290A8DF81B
:100F30000D10E9B28DF80E10310A8DF80F10F1B2D4
:100F40008DF81010390A8DF81110F9B28DF81210C1
:100F50006946124806F050F905B0F0BD10B586B0EC
:100F6000044600208DF80C008DF80D0002208DF84D
:100F70000E0040F2FF100190200A8DF80F008DF84E
:100F8000104001A9054806F037F906B010BD000071
:100F9000C0000020E40000200801002000640040A0
:100FA000B5EEC00AF1EE10FA03D2F1EE400AB0EE4F
:100FB000600A70470FB400B5BDF91E00BDF91C10E2
:100FC000401A01EE100AB8EEC10AFFF7E9FFDFEDA3
:100FD000FE0AB4EEE00AF1EE10FA11DDB8EEC10A35
:100FE000FFF7DEFFF8EEC11AC1EE800AB8EEC10AC3
:100FF000DFEDF61A00EEE10ABDEEC00AB0EE401ACF
:10100000B8EEC10ADFEDF20A20EE200AF3EE031A71
:10101000C0EE210ADFEDED1A80EEA10A5DF814FBA7
:101020009FEDEC0AEC4880ED010A9FEDEA0AEB48DF
:1010300080ED010A9FEDE70AE94880ED010A9FED86
:10104000E50AE84880ED010A9FEDE20AE64880EDF6
:10105000010A0120E04981F82000E04981F82000E0
:10106000DF4981F82000DF4981F82000DE4981F85E
:1010700020009FEDD80AD84880ED020A9FEDD50ADE
:10108000D64880ED020A9FEDD30AD54880ED020ACA
:101090009FEDD00AD34880ED020A9FEDCE0A0846A4
:1010A00080ED020A70479FEDD10AD14880ED000A19
:1010B0009FEDD00A80ED010A9FEDC60A80ED020A7D
:1010C0009FEDCD0A80ED030A9FEDCC0A80ED040A66
:1010D0009FEDC00A80ED050A9FEDBE0A80ED060A6D
:1010E0000020C349C8619FEDC10AC54880ED000AD0
:1010F0009FEDC00A80ED010A9FEDB60A80ED020A5D
:101100009FEDBD0A80ED030A9FEDBC0A80ED040A45
:101110009FEDB00A80ED050A9FEDAE0A80ED060A4C
:101120000020B749C8619FEDB10AB64880ED000ABA
:101130009FEDB00A80ED010A9FEDA60A80ED020A3C
:101140009FEDAD0A80ED030A9FEDAC0A80ED040A25
:101150009FEDA00A80ED050A9FED9E0A80ED060A2C
:101160000020A849C8619FEDA10AA74880ED000AA8
:101170009FEDA00A80ED010A9FED960A80ED020A1C
:101180009FED9D0A80ED030A9FED9C0A80ED040A05
:101190009FED900A80ED050A9FED8E0A80ED060A0C
:1011A00000209949C8619FED910A984880ED000A96
:1011B0009FED900A80ED010A9FED860A80ED020AFC
:1011C0009FED8D0A80ED030A9FED8C0A80ED040AE5
:1011D0009FED800A80ED050A9FED7E0A80ED060AEC
:1011E00000208A49C86170479FED890A894880EDCF
:1011F000000AB1EE040A80ED010A9FED760A80ED47
:10120000020A9FED7D0A80ED030A9FED830A80EDBF
:10121000040A9FED700A80ED050A9FED6E0A80EDCD
:10122000060A00207B49C8619FED7C0A084680EDD4
:10123000090A9FED7B0A80ED080A9FED750A79483F
:1012400080ED000AB1EE040A80ED010A9FED610A0B
:1012500080ED020A9FED680A80ED030A9FED6E0A99
:1012600080ED040A9FED5B0A80ED050A9FED590AA7
:1012700080ED060A00206B49C8619FED680A0846A8
:1012800080ED090A9FED660A80ED080A9FED600A6D
:10129000654880ED000AB1EE040A80ED010A9FED79
:1012A0004D0A80ED020A9FED540A80ED030A9FED7E
:1012B0005A0A80ED040A9FED470A80ED050A9FED6A
:1012C000450A80ED060A00205749C8619FED530A80
:1012D000084680ED090A9FED520A80ED080A9FED4D
:1012E0004C0A524880ED000AB1EE040A80ED010A72
:1012F0009FED380A80ED020A9FED3F0A80ED030A58
:101300009FED450A80ED040A9FED320A80ED050A43
:101310009FED300A80ED060A00204449C8619FED28
:101320003F0A084680ED090A9FED3D0A80ED080A54
:101330009FED3F0A3F4880ED000AB1EE040A80EDC0
:10134000010A9FED240A80ED020A9FED2B0A80ED31
:10135000030A9FED310A80ED040A9FED1E0A80ED1D
:10136000050A9FED1C0A80ED060A00203149C8617C
:101370009FED2A0A084680ED090A9FED290A80EDB3
:10138000080A70479FED2C0A2C4880ED000A9FED5B
:10139000110A80ED010A9FED2A0A80ED020A9FEDF5
:1013A000160A80ED030A9FED270A80ED040A9FEDDF
:1013B000090A80ED050A9FED070A80ED060A002064
:1013C0001E49C86140E0000000007A450000004668
:1013D0000000B44300000000780000209C000020C2
:1013E000C0000020E4000020080100206666A63F3F
:1013F0007C0100208FC2F53C00007A4600806D45DC
:10140000F40100206C020020E40200205C030020B4
:1014100000007A435401002000409C4500007A44BB
:101420000000C843CC01002044020020BC02002080
:1014300000005C433403002085EBD13E2C010020EA
:1014400017B7D1380000FA44B3EE040A084680ED1D
:10145000090A9FEDFB0A80ED080A1FED090AF94809
:1014600080ED000A1FED250A80ED010A1FED0C0A30
:1014700080ED020A1FED200A80ED030A1FED0F0A1E
:1014800080ED040A1FED2D0A80ED050A1FED2F0ADD
:1014900080ED060A0020EB49C861B3EE040A084655
:1014A00080ED090A9FEDE60A80ED080A1FED1E0A8D
:1014B000E54880ED000A1FED390A80ED010A1FEDB5
:1014C000200A80ED020A1FED340A80ED030A1FEDA9
:1014D000230A80ED040A1FED410A80ED050A1FED85
:1014E000430A80ED060A0020D749C861B3EE040A1A
:1014F000084680ED090A9FEDD20A80ED080A1FED2B
:10150000320AD24880ED000A1FED4E0A80ED010A32
:101510001FED350A80ED020A1FED490A80ED030A2E
:101520001FED380A80ED040A1FED560A80ED050A0A
:101530001FED580A80ED060A0020C449C861B3EEC9
:10154000040A084680ED090A9FEDBD0A80ED080AED
:10155000B7EE000ABE4880ED000A1FED620A80ED7A
:10156000010A9FEDBC0A80ED020A1FED5D0A80EDC5
:10157000030A1FED4C0A80ED040A1FED6A0A80ED94
:10158000050A1FED6C0A80ED060A0020B049C8610B
:10159000B3EE040A084680ED090A9FEDA90A80ED22
:1015A000080A704700B5FFF77EFDFFF71DFEFFF745
:1015B000E9FE00BD00B5B0EE403AF0EE603A33EE21
:1015C000630AB0EE401AC169012914D1B0EE410A94
:1015D000FFF7E6FCD0ED090AB4EEE00AF1EE10FAEE
:1015E00004DB90ED080A60EE011A08E090ED000AB5
:1015F00060EE011A03E090ED000A60EE011A90ED32
:10160000010A20EE015A90ED050A30EE052A90ED10
:10161000040AB4EEC20AF1EE10FA04D290ED040A04
:1016200080ED050A15E090ED040AFFEE000A20EEB9
:10163000200AB4EEC20AF1EE10FA08DD90ED040AB9
:10164000FFEE000A20EE200A80ED050A01E080EDA1
:10165000052A90ED060A31EE404A90ED020A60EE4E
:10166000044A80ED061A90ED050A30EE210A70EE6C
:10167000242A90ED030AB4EEE20AF1EE10FA02D841
:1016800090ED030A00BD90ED030AFFEE000A20EE84
:10169000200AB4EEE20AF1EE10FA06DD90ED030A3C
:1016A000FFEE000A20EE200AECE7B0EE620AE9E75E
:1016B00010B5694890F82000012814D0022802D003
:1016C000052833D11FE0644890ED011AF0EE410A7D
:1016D00090ED001AB0EE410A6048FFF76BFF5E48DC
:1016E00080ED020A00BF5C4890ED031AF0EE410A5B
:1016F00090ED021AB0EE410A5948FFF75BFF5648D9
:1017000080ED040A00BF544890ED051AF0EE410A3E
:1017100090ED041AB0EE410A5248FFF74BFFBDEEC0
:10172000C00A10EE100A4C49C86100E000BF00BFBB
:101730004D4890F82000012814D0022802D0052836
:1017400033D11FE0484890ED011AF0EE410A90EDC8
:10175000001AB0EE410A3B48FFF72CFF424880EDEB
:10176000020A00BF404890ED031AF0EE410A90EDE6
:10177000021AB0EE410A3D48FFF71CFF3A4880EDDF
:10178000040A00BF384890ED051AF0EE410A90EDCA
:10179000041AB0EE410A3648FFF70CFFBDEEC00A4E
:1017A00010EE100A3049C86100E000BF00BF3148A8
:1017B00090F82000012814D0022802D0052833D147
:1017C0001FE02C4890ED011AF0EE410A90ED001A4E
:1017D000B0EE410A1C48FFF7EDFE264880ED020AF4
:1017E00000BF244890ED031AF0EE410A90ED021A72
:1017F000B0EE410A2048FFF7DDFE1E4880ED040AE6
:1018000000BF1C4890ED051AF0EE410A90ED041A55
:10181000B0EE410A1948FFF7CDFEBDEEC00A10EE4A
:10182000100A1449C86100E000BF00BF144890F8D6
:101830002000012836D0022824D0052855D141E0C7
:1018400000004842A40100201C0200209402002055
:101850000C0300200AD7233C780000202C01002034
:10186000540100207C0100209C000020CC010020BD
:10187000F4010020C0000020440200206C0200207F
:10188000E40000208D4890ED011AF0EE410A90ED41
:10189000001AB0EE410A8A48FFF78CFE874880EDB7
:1018A000020A00BF854890ED031AF0EE410A90ED60
:1018B000021AB0EE410A8348FFF77CFE7F4880EDB4
:1018C000040A00BF7D4890ED051AF0EE410A90ED44
:1018D000041AB0EE410A7C48FFF76CFEBDEEC00A68
:1018E00010EE100A7549C86100E000BF00BF7748DC
:1018F00090F82000012814D0022802D0052833D106
:101900001FE0724890ED011AF0EE410A90ED001AC6
:10191000B0EE410A6E48FFF74DFE6C4880ED020ABA
:1019200000BF6A4890ED031AF0EE410A90ED021AEA
:10193000B0EE410A6748FFF73DFE644880ED040AB7
:1019400000BF624890ED051AF0EE410A90ED041ACE
:10195000B0EE410A6048FFF72DFEBDEEC00A10EE62
:10196000100A5A49C86100E000BF00BF534CE46947
:1019700023B25A4CE46922B2594CE46921B2594C61
:10198000E46920B2FFF7BCFA5049C96908B2FFF711
:10199000E5FA10BD10B52DED068BB0EE40AAB0EE05
:1019A000608AF0EE418AB0EE619AF0EE429A012030
:1019B0004C4981F820004A4981F82000474981F8C4
:1019C00020003E4981F82000404981F82000454828
:1019D00080ED02AA424880ED028A4048C0ED028AAA
:1019E000364880ED029A0846C0ED029AFFF760FE85
:1019F000BDEC068B10BD10B52DED068BB0EE40AAE8
:101A0000B0EE608AF0EE418AB0EE619AF0EE429A52
:101A10000520344981F82000314981F820002F4900
:101A200081F82000254981F82000284981F820000C
:101A30002C4880ED00AA2A4880ED008A2748C0ED96
:101A4000008A1E4880ED009A0846C0ED009AFFF714
:101A50002FFEBDEC068B10BD10B52DED068BB0EE44
:101A600040AAB0EE608AF0EE418AB0EE619AF0EEE4
:101A7000429A02201B4981F82000194981F8200070
:101A8000164981F820000D4981F820000F4981F89E
:101A90002000144880ED00AA114880ED008A0F480C
:101AA000C0ED008A054880ED009A0846C0ED009A16
:101AB000FFF7FEFDBDEC068B10BD0000E40000202A
:101AC00094020020BC020020E40200200801002053
:101AD0000C030020340300205C030020C000002021
:101AE0009C00002078000020B5EEC00AF1EE10FA4C
:101AF00001D100207047B5EEC00AF1EE10FA01DD09
:101B00000120F7E74FF0FF30F4E702466FF00201E3
:101B1000FE48D0ED012AFE4890ED003A72EEC32A4D
:101B2000FC4890ED003A72EEC32AF0EE620AFA48E1
:101B3000D0ED012AF64890ED013A72EEC32AF5483D
:101B400090ED013A72EEC32AB0EE622AF348D0ED6E
:101B5000012AEF4890ED023A72EEC32AED4890ED6B
:101B6000023A72EEC32AB0EE621AED48D0ED012AB5
:101B7000E74890ED033A72EEC32AE64890ED033A47
:101B800072EEC32AF0EE621AF4EEC00AF1EE10FA19
:101B900007D2F1EE402AF4EEE20AF1EE10FA00DD8F
:101BA000491CB4EEC02AF1EE10FA07D2F1EE402A39
:101BB000B4EEE22AF1EE10FA00DD491CB4EEC01AD0
:101BC000F1EE10FA07D2F1EE402AB4EEE21AF1EE8D
:101BD00010FA00DD491CF4EEC01AF1EE10FA07D23B
:101BE000F1EE402AF4EEE21AF1EE10FA00DD491CA3
:101BF000914201DD012070470020FCE700B52DED8A
:101C0000040B99B09DED1B0ADDED190A30EE600A58
:101C1000DFEDC40A20EE200A8DED120A9DED1C0AAC
:101C2000DDED1A0A30EE600ADFEDBE0A20EE200A72
:101C30008DED110A9FEDBC0A8DED100AB34890EDB1
:101C4000010AB34880ED000AB34890ED010AB0489C
:101C500080ED010AB14890ED010AAD4880ED020A1D
:101C6000AF4890ED010AAA4880ED030A9DED120AE3
:101C70009FEDAE1AC0EE010A9FEDAD0A20EE800A7C
:101C8000A44880ED000A9DED110AB1EE400A9FEDD7
:101C9000A71AC0EE010A9FEDA60A20EE800A80ED89
:101CA000010A90ED000AB1EE400A80ED020A90EDC3
:101CB000010AB1EE400A80ED030A00209D49086048
:101CC00023E094489B49096800EB810090ED000AED
:101CD000B5EEC00AF1EE10FA09D29FED970A13A8EB
:101CE0009449096800EB810080ED000A08E09FED4F
:101CF000930A13A88F49096800EB810080ED000A60
:101D00008C480068401C8B4908608A480068042899
:101D1000D7DB00BF9DED100ADFED880AB4EEE00AC4
:101D2000F1EE10FA7DD2119807F076FECDE90001B0
:101D30009DED000B06F00CFD8DED040B129807F0E5
:101D40006BFECDE900019DED000B06F001FD8DED70
:101D5000020B9DED040B53EC102B9DED020B51EC8F
:101D6000100B07F0C3F9CDE90801119807F054FEF4
:101D7000CDE900019DED000B06F0EAFC8DED040BB2
:101D80009DED160A8DED000A9DED000AFFF7ACFEF1
:101D900000EE100AF8EEC00A9DED100A20EE800A4F
:101DA0008DED010A019807F037FECDE902019DEDA6
:101DB000040B53EC102B9DED020B51EC100B07F0B4
:101DC00037FCCDE906019DED080B53EC102B9DED82
:101DD000060B51EC100B07F03DFACDE90A019DED21
:101DE0000A0B51EC100B07F04FF90F90119807F008
:101DF00013FECDE900019DED000B06F0A9FC8DED71
:101E0000040B129807F008FECDE900019DED000BD0
:101E100006F09EFC8DED020B9DED040B53EC102B98
:101E200000E03FE19DED020B51EC100B07F05EF975
:101E3000CDE90801129807F0EFFDCDE900019DED15
:101E4000000B06F085FC8DED040B9DED150A8DED64
:101E5000000A9DED000AFFF747FE00EE100AF8EEBB
:101E6000C00A9DED100A20EE800A8DED010A01984E
:101E700007F0D2FDCDE902019DED040B53EC102BD0
:101E80009DED020B51EC100B07F0D2FBCDE90601E2
:101E90009DED080B53EC102B9DED060B51EC100B38
:101EA00007F0D8F9CDE90A019DED0A0B51EC100BB2
:101EB00007F0EAF80E90119807F0AEFDCDE90001A9
:101EC0009DED000B06F044FC8DED040B129807F01D
:101ED000A3FDCDE900019DED000B06F039FC8DED71
:101EE000020B9DED040B53EC102B9DED020B51ECFE
:101EF000100B07F0FBF8CDE90801119807F08CFDF5
:101F0000CDE900019DED000B1AE0000078000020F3
:101F1000A4030020900300209C000020C0000020AB
:101F2000E40000206666863F00000000959E6B433B
:101F30000000B44328000020000096C30000964330
:101F400006F006FC8DED040B9DED140A8DED000AE4
:101F50009DED000AFFF7C8FD00EE100AF8EEC00A7A
:101F60009DED100A20EE800A8DED010A019807F020
:101F700053FDCDE902019DED040B53EC102B9DEDBB
:101F8000020B51EC100B07F053FBCDE906019DED60
:101F9000080B53EC102B9DED060B51EC100B07F0CA
:101FA00059F9CDE90A019DED0A0B51EC100B07F030
:101FB0006BF80D90119807F02FFDCDE900019DED14
:101FC000000B06F0C5FB8DED040B129807F024FD05
:101FD000CDE900019DED000B06F0BAFB8DED020B83
:101FE0009DED040B53EC102B9DED020B51EC100BEF
:101FF00007F07CF8CDE90801129807F00DFDCDE956
:1020000000019DED000B06F0A3FB8DED040B9DED93
:10201000130A8DED000A9DED000AFFF765FD00EE45
:10202000100AF8EEC00A9DED100A20EE800A8DED30
:10203000010A019807F0F0FCCDE902019DED040BC7
:1020400053EC102B9DED020B51EC100B07F0F0FA46
:10205000CDE906019DED080B53EC102B9DED060B11
:1020600051EC100B07F0F6F8CDE90A019DED0A0BD3
:1020700051EC100B07F008F81FED552A0C90DDED20
:102080000F1A9DED0E1ADDED0D0A9DED0C0AFFF7FE
:1020900081FC9DED100ADFEDFE0A30EE200A8DED89
:1020A000100A53E1119807F0B7FCCDE900019DED4E
:1020B000000B06F04DFB8DED040B129807F0ACFC05
:1020C000CDE900019DED000B06F042FB8DED020B0A
:1020D0009DED040B53EC102B9DED020B51EC100BFE
:1020E00007F004F8CDE90801119807F095FCCDE957
:1020F00000019DED000B06F02BFB8DED040B1698F7
:10210000019007F089FCCDE902019DED040B53EC31
:10211000102B9DED020B51EC100B07F089FACDE965
:1021200006019DED080B53EC102B9DED060B51ECB9
:10213000100B07F08FF8CDE90A019DED0A0B51EC69
:10214000100B06F0A1FF0F90119807F065FCCDE988
:1021500000019DED000B06F0FBFA8DED040B1298CB
:1021600007F05AFCCDE900019DED000B06F0F0FAF6
:102170008DED020B9DED040B53EC102B9DED020B2E
:1021800051EC100B06F0B2FFCDE90801129807F0F0
:1021900043FCCDE900019DED000B06F0D9FA8DED71
:1021A000040B1598019007F037FCCDE902019DED75
:1021B000040B53EC102B9DED020B51EC100B07F0B0
:1021C00037FACDE906019DED080B53EC102B9DED80
:1021D000060B51EC100B07F03DF8CDE90A019DED1F
:1021E0000A0B51EC100B06F04FFF0E90119807F000
:1021F00013FCCDE900019DED000B06F0A9FA8DED71
:10220000040B129807F008FCCDE900019DED000BCE
:1022100006F09EFA8DED020B9DED040B53EC102B96
:102220009DED020B51EC100B06F060FFCDE90801AB
:10223000119807F0F1FBCDE900019DED000B06F0D0
:1022400087FA8DED040B1498019007F0E5FBCDE9BA
:1022500002019DED040B53EC102B9DED020B51EC94
:10226000100B07F0E5F9CDE906019DED080B53ECE5
:10227000102B9DED060B51EC100B06F0EBFFCDE99A
:102280000A019DED0A0B51EC100B06F0FDFE0D90BE
:10229000119807F0C1FBCDE900019DED000B06F0A0
:1022A00057FA8DED040B129807F0B6FBCDE900014B
:1022B0009DED000B06F04CFA8DED020B9DED040B2D
:1022C00053EC102B9DED020B51EC100B06F00EFFA2
:1022D000CDE90801129807F09FFBCDE900019DEDC3
:1022E000000B06F035FA8DED040B1398019007F002
:1022F00093FBCDE902019DED040B53EC102B9DEDFA
:10230000020B51EC100B07F093F9CDE906019DED9E
:10231000080B53EC102B9DED060B51EC100B06F047
:1023200099FFCDE90A019DED0A0B51EC100B06F067
:10233000ABFE9FED582A0C90DDED0F1A9DED0E1AA5
:10234000DDED0D0A9DED0C0AFFF724FB022003F0E2
:1023500017FA4FF0FF309FED500AFFF7D6FB002829
:102360003FF4D8AC9DED100ADFED4C0AB4EEE00A64
:10237000F1EE10FA03D29FED490A8DED100A00BF6D
:10238000119807F049FBCDE900019DED000B06F027
:10239000DFF98DED040B129807F03EFBCDE900014B
:1023A0009DED000B06F0D4F98DED020B9DED040BB5
:1023B00053EC102B9DED020B51EC100B06F096FE2A
:1023C000CDE90801119807F027FBCDE900019DED4B
:1023D000000B06F0BDF98DED040B9DED160A8DED99
:1023E000000A9DED000AFFF77FFB00EE100AF8EEF1
:1023F000C00A9DED100A20EE800A8DED010A0198B9
:1024000007F00AFBCDE902019DED040B53EC102B04
:102410009DED020B51EC100B07F00AF9CDE9060116
:102420009DED080B53EC102B9DED060B51EC100BA2
:1024300006F010FFCDE90A019DED0A0B51EC100BDF
:1024400006F022FE0F90119807F0E6FACDE90001A0
:102450009DED000B06F07CF98DED040B129807F052
:10246000DBFACDE900019DED000B06F071F98DED71
:10247000020B9DED040B53EC102B9DED020B51EC68
:10248000100B06F033FECDE90801129808E00000B9
:10249000CDCCCC3D000000000000FA4300004842D3
:1024A00007F0BAFACDE900019DED000B06F050F9F6
:1024B0008DED040B9DED150A8DED000A9DED000AD2
:1024C000FFF712FB00EE100AF8EEC00A9DED100AAD
:1024D00020EE800A8DED010A019807F09DFACDE902
:1024E00002019DED040B53EC102B9DED020B51EC02
:1024F000100B07F09DF8CDE906019DED080B53EC9C
:10250000102B9DED060B51EC100B06F0A3FECDE950
:102510000A019DED0A0B51EC100B06F0B5FD0E9073
:10252000119807F079FACDE900019DED000B06F056
:102530000FF98DED040B129807F06EFACDE900014A
:102540009DED000B06F004F98DED020B9DED040BE3
:1025500053EC102B9DED020B51EC100B06F0C6FD59
:10256000CDE90801119807F057FACDE900019DED7A
:10257000000B06F0EDF88DED040B9DED140A8DEDCA
:10258000000A9DED000AFFF7AFFA00EE100AF8EE20
:10259000C00A9DED100A20EE800A8DED010A019817
:1025A00007F03AFACDE902019DED040B53EC102B34
:1025B0009DED020B51EC100B07F03AF8CDE9060146
:1025C0009DED080B53EC102B9DED060B51EC100B01
:1025D00006F040FECDE90A019DED0A0B51EC100B0F
:1025E00006F052FD0D90119807F016FACDE90001A2
:1025F0009DED000B06F0ACF88DED040B129807F082
:102600000BFACDE900019DED000B06F0A1F88DED70
:10261000020B9DED040B53EC102B9DED020B51ECC6
:10262000100B06F063FDCDE90801129807F0F4F9EC
:10263000CDE900019DED000B06F08AF88DED040B4D
:102640009DED130A8DED000A9DED000AFFF74CFA8F
:1026500000EE100AF8EEC00A9DED100A20EE800A86
:102660008DED010A019807F0D7F9CDE902019DED42
:10267000040B53EC102B9DED020B51EC100B06F0EC
:10268000D7FFCDE906019DED080B53EC102B9DED16
:10269000060B51EC100B06F0DDFDCDE90A019DEDB6
:1026A0000A0B51EC100B06F0EFFC1FED862A0C9084
:1026B000DDED0F1A9DED0E1ADDED0D0A9DED0C0AF4
:1026C000FFF768F99DED100A5FED8C0AB4EEE00AA1
:1026D000F1EE10FA07DD9DED100ADFEDF60A30EE9F
:1026E000600A8DED100A022003F04AF84FF0FF3027
:1026F0001FED960AFFF709FA00283FF441AE9DED61
:102700001B0AED4880ED000A9DED1C0A80ED010AD0
:102710001DB000BD00B52DED0A8B85B0B0EE409A1E
:10272000F0EE608A1FEDA50AB0EE408A38EEC90AC5
:10273000DFEDE20A20EE200AF0EE409A9FEDE00A7B
:1027400029EE800ADFEDDF0A80EE201A9FEDDE0A17
:1027500061EE000AB0EE001A80EE810A9FEDDB1AEE
:10276000C0EE010A9FEDDA0A20EE800AB0EE40AA20
:10277000D84890ED010AD84880ED000AD74890ED7E
:10278000010AD54880ED010AD54890ED010AD248EA
:1027900080ED020AD34890ED010ACF4880ED030A8C
:1027A0000020D14908600DE0B1EE4A0ACF48CE4979
:1027B000096800EB810080ED000ACB480068401CEE
:1027C000C9490860C84800680428EDDB0020C649F4
:1027D000086023E0C548C449096800EB810090ED1A
:1027E000000AB5EEC00AF1EE10FA09D29FEDC00A58
:1027F0006846BD49096800EB810080ED000A08E0E9
:102800009FEDBC0A6846B849096800EB810080ED7D
:10281000000AB5480068401CB3490860B248006827
:102820000428D7DB00BF9FEDB40AB4EEC08AF1EEF6
:1028300010FA48D2DDED030AB0EE600AFFF754F952
:1028400000EE100AB8EEC00A20EE080AF0EE40AA28
:10285000DDED020AB0EE600AFFF746F900EE100A5D
:10286000B8EEC00A20EE080AB0EE40BADDED010A6B
:10287000B0EE600AFFF738F900EE100AB8EEC00AB1
:1028800020EE080AF0EE40BADDED000AB0EE600A74
:10289000FFF72AF900EE100AB8EEC00A20EE080A87
:1028A000B0EE40CA9FED952AF0EE6A1AB0EE4B1AD0
:1028B000F0EE6B0AFFF76EF89FED910A38EE000A12
:1028C000B0EE408A16E09DED032AF0EE421A9DED2F
:1028D000022AB0EE421A9DED012AF0EE420A9DED69
:1028E000002AB0EE420A9FED852AFFF753F8022036
:1028F00002F046FF00209FED830AFFF706F900284B
:1029000091D06D48C0ED028A05B0BDEC0A8B00BDC8
:1029100010B52DED0A8BB0EE408A6E4890ED010A9D
:10292000BDEEC00AF0EE408A6C4890ED010ABDEEA3
:10293000C00AB0EE409A6A4890ED010ABDEEC00AA6
:10294000F0EE409A674890ED010ABDEEC00AB0EE85
:1029500040AA6D4890ED010ABDEEC00A10EE104A83
:102960000EE0B0EE482AF8EECA1AB8EEE91AF8EE10
:10297000C90AB8EEE80AFFF76FF8022002F000FF7C
:10298000614890ED010A30EE480A10EE101A084630
:1029900007F042F841EC1C0BB0EE4C0AF0EE6C0A6A
:1029A00005F0D6FEB0EE40BAF0EE60BA9FED570BE0
:1029B00053EC102B51EC1B0B06F0FEFDD1D2BDECFD
:1029C0000A8B10BD10B52DED0C8BB0EE408AF0EEE9
:1029D000608A9FED500B05F0C7FEB0EE40CAF0EEE6
:1029E00060CA18EE100A07F017F841EC1D0B53EC03
:1029F0001C2B06F01DFE41EC1A0B9FED460B05F05B
:102A000043FEB0EE40CAF0EE60CA18EE900A07F03E
:102A100003F841EC1D0B53EC1C2B06F009FE41ECB6
:102A20001B0B53EC1A2B06F00DFF41EC190B06F0B3
:102A30002BFB00EE100ABDEC0C8B10BD10B52DED7C
:102A40000C8BB0EE408AF0EE608A9FED320B05F001
:102A50008BFEB0EE40CAF0EE60CA18EE900A06F0A7
:102A6000DBFF41EC1D0B53EC1C2B06F0E1FD41ECB0
:102A70001A0B9FED280B05F007FEB0EE40CAF0EEF2
:102A800060CA18EE100A06F0C7FF41EC1D0B53ECAC
:102A90001C2B06F0CDFD41EC1B0B53EC1A2B06F062
:102AA00025FB41EC190B06F0EFFA00EE100ABDEC25
:102AB0000C8B10BDCDCCCC3E840300203333833F40
:102AC000DB0F4940000034430000E143959E6B4317
:102AD0000000B44378000020A40300209C000020E4
:102AE000C0000020E4000020280000209003002007
:102AF0000000A0C20000A0420000964300000000B9
:102B0000CDCC4C3E000048420801002000000000EF
:102B10000000244000000060FB21E9BF07B584B03D
:102B2000069800287DD1049801287BD105980028BB
:102B300078D1DFEDFD0A1FED0F0AFFF743FF8DEDA2
:102B4000030ADFEDF90A1FED130AFFF777FF8DED9A
:102B5000020AF64890ED010A8DED010A90ED000A97
:102B60008DED000ADDED031A9DED021ADDED010A7F
:102B70009DED000AFFF742F8DFEDEB0A9FEDEC0A4E
:102B8000FFF720FF8DED030ADFEDE70A9FEDE80A6E
:102B9000FFF754FF8DED020AE44890ED010A8DED38
:102BA000010A90ED000A8DED000ADDED031A9DED9E
:102BB000021ADDED010A9DED000AFFF71FF8DFEDB7
:102BC000DD0A9FEDDB0AFFF7FDFE8DED030ADFED69
:102BD000D90A9FEDD70AFFF731FF8DED020AD348DE
:102BE00090ED010A8DED010A90ED000A8DED000ACD
:102BF000DDED031A9DED021ADDED010A9DED000ADF
:102C0000FEF7FCFFDFEDCB0A9FEDCB0AFFF7DAFE04
:102C10008DED030ADFEDC70A9FEDC70AFFF70EFF30
:102C200001E0EBE31FE08DED020AC04890ED010AE0
:102C30008DED010A90ED000A8DED000ADDED031A1D
:102C40009DED021ADDED010A9DED000AFEF7D6FFAB
:102C5000B64890ED020A8DED030A5FED660A9DED20
:102C6000030AFFF757FD049801287DD10598012834
:102C70007AD1DFEDAD0A1FED5F0AFFF7A3FE8DED00
:102C8000030ADFEDA90A1FED630AFFF7D7FE8DEDFA
:102C9000020AA64890ED010A8DED010A90ED000AA6
:102CA0008DED000ADDED031A9DED021ADDED010A3E
:102CB0009DED000AFEF7A2FFDFED9B0A9FED9C0A47
:102CC000FFF780FE8DED030ADFED970A9FED980A6E
:102CD000FFF7B4FE8DED020A944890ED010A8DEDE8
:102CE000010A90ED000A8DED000ADDED031A9DED5D
:102CF000021ADDED010A9DED000AFEF77FFFDFED10
:102D00008D0A9FED8B0AFFF75DFE8DED030ADFED67
:102D1000890A9FED870AFFF791FE8DED020A83482D
:102D200090ED010A8DED010A90ED000A8DED000A8B
:102D3000DDED031A9DED021ADDED010A9DED000A9D
:102D4000FEF75CFFDFED7B0A9FED7B0AFFF73AFEA3
:102D50008DED030ADFED770A9FED770AFFF76EFE30
:102D60008DED020A714800E036E090ED010A8DED2C
:102D7000010A90ED000A8DED000ADDED031A9DEDCC
:102D8000021ADDED010A9DED000AFEF737FF6748E4
:102D900090ED020A8DED030A5FEDB60A9DED030A80
:102DA000FFF7B8FCDFED650A1FEDAC0AFFF70AFE7E
:102DB0008DED030ADFED610A1FEDB00AFFF73EFE5D
:102DC0008DED020ADDED031A9DED021A5FEDB50AE5
:102DD0001FEDB60AFEF712FF049801287DD1059871
:102DE00002287AD1DFED500A1FEDBC0AFFF7EAFD99
:102DF0008DED030ADFED4C0A1FEDC00AFFF71EFE42
:102E00008DED020A494890ED010A8DED010A90ED21
:102E1000000A8DED000ADDED031A9DED021ADDEDCD
:102E2000010A9DED000AFEF7E9FEDFED3F0A9FED86
:102E3000400AFFF7C7FD8DED030ADFED3B0A9FED6A
:102E40003C0AFFF7FBFD8DED020A384890ED010AC0
:102E50008DED010A90ED000A8DED000ADDED031AFB
:102E60009DED021ADDED010A9DED000AFEF7C6FE9A
:102E7000DFED300A9FED2E0AFFF7A4FD8DED030A6A
:102E8000DFED2C0A9FED2A0AFFF7D8FD8DED020A2F
:102E9000264890ED010A8DED010A90ED000A8DEDB6
:102EA000000ADDED031A9DED021ADDED010A9DED2C
:102EB000000AFEF7A3FEDFED1F0A9FED1F0AFFF7D2
:102EC00081FD8DED030ADFED1B0A9FED1B0AFFF765
:102ED000B5FD8DED020A154800E049E090ED010ACC
:102EE0008DED010A90ED000A8DED000ADDED031A6B
:102EF0009DED021ADDED010A9DED000AFEF77EFE52
:102F00000A4890ED020A8DED030ADFED0D0A9DEDF2
:102F1000030AFFF7FFFBDFED0B0A9FED0B0AFFF73C
:102F200051FD8DED030A11E0008009C484030020E7
:102F3000000096C4008004440080EDC400C0024438
:102F40000000344300808944000000005FED030A64
:102F50001FED030AFFF772FD8DED020ADDED031A86
:102F60009DED021A5FED080A1FED090AFEF746FE05
:102F7000049802287DD1059800287AD15FED160AC1
:102F80001FED150AFFF71EFD8DED030A5FED1A0A0E
:102F90001FED190AFFF752FD8DED020A5FED1E0AC3
:102FA0001FED170AFFF70EFD8DED010A5FED220AF6
:102FB0001FED1B0AFFF742FD8DED000ADDED031A40
:102FC0009DED021ADDED010A9DED000AFEF716FEE9
:102FD0005FED280A1FED2A0AFFF7F4FC8DED030AC6
:102FE0005FED2C0A1FED2E0AFFF728FD8DED020A7A
:102FF000FC4890ED010A8DED010A90ED000A8DED7F
:10300000000ADDED031A9DED021ADDED010A9DEDCA
:10301000000AFEF7F3FD5FED390A1FED390AFFF7ED
:10302000D1FC8DED030A5FED3D0A1FED3D0AFFF770
:1030300005FD8DED020AEB4890ED010A8DED010AC8
:1030400090ED000A8DED000ADDED031A9DED021AE8
:10305000DDED010A9DED000AFEF7D0FDE14890ED9F
:10306000020A8DED030A5FED4A0A9DED030AFFF7A0
:1030700051FB049802287CD10598012879D15FED95
:10308000560A1FED550AFFF79DFC8DED030A5FED13
:103090005A0A1FED590AFFF7D1FC8DED020A5FEDC8
:1030A0005E0A1FED570AFFF78DFC8DED010A5FEDFB
:1030B000620A1FED5B0AFFF7C1FC8DED000ADDED32
:1030C000031A9DED021ADDED010A9DED000AFEF7DF
:1030D00095FD5FED680A1FED6A0AFFF773FC8DED41
:1030E000030A5FED6C0A1FED6E0AFFF7A7FC8DED7A
:1030F000020ABC4890ED010A8DED010A90ED000A2C
:103100008DED000ADDED031A9DED021ADDED010AD9
:103110009DED000AFEF772FD5FED7A0A1FED7A0A57
:10312000FFF750FC8DED030A5FED7E0A1FED7E0A6E
:10313000FFF784FC8DED020AAA4890ED010A8DED9F
:10314000010A90ED000A8DED000ADDED031A9DEDF8
:10315000021ADDED010A9DED000AFEF74FFDA148C0
:1031600090ED020A8DED030A5FED8B0A9DED030AD7
:1031700000E01BE0FFF7CEFA5FED900A1FED8E0A2C
:10318000FFF720FC8DED030A5FED940A1FED920A14
:10319000FFF754FC8DED020ADDED031A9DED021AD6
:1031A0005FED970A1FED980AFEF728FD04980228A4
:1031B0007ED1059802287BD15FEDA50A1FEDA40AF8
:1031C000FFF700FC8DED030A5FEDA90A1FEDA80AC9
:1031D000FFF734FC8DED020A5FEDAD0A1FEDA60A84
:1031E000FFF7F0FB8DED010A5FEDB10A1FEDAA0AB2
:1031F000FFF724FC8DED000ADDED031A9DED021AA8
:10320000DDED010A9DED000AFEF7F8FC5FEDB70A5F
:103210001FEDB90AFFF7D6FB8DED030A5FEDBB0A80
:103220001FEDBD0AFFF70AFC8DED020A6D4890ED17
:10323000010A8DED010A90ED000A8DED000ADDED29
:10324000031A9DED021ADDED010A9DED000AFEF75D
:10325000D5FC5FEDC80A1FEDC80AFFF7B3FB8DED83
:10326000030A5FEDCC0A1FEDCC0AFFF7E7FB8DEDFB
:10327000020A5C4890ED010A8DED010A90ED000A0A
:103280008DED000ADDED031A9DED021ADDED010A58
:103290009DED000AFEF7B2FC524890ED020A8DED5A
:1032A000030A5FEDD90A9DED030AFFF733FA00E048
:1032B00019E05FEDDC0A1FEDDC0AFFF783FB8DED03
:1032C000030A5FEDE00A1FEDE00AFFF7B7FB8DEDA3
:1032D000020ADDED031A9DED021A5FEDE50A1FED0E
:1032E000E60AFEF78BFC049800287AD1059800289E
:1032F00077D15FEDF30A1FEDEC0AFFF763FB8DED6D
:10330000030A5FEDF70A1FEDF00AFFF797FB8DED5B
:10331000020ADFED350A1FEDF40AFFF753FB8DEDCE
:10332000010ADFED310A1FEDF80AFFF787FB8DED8B
:10333000000ADDED031A9DED021ADDED010A9DED97
:10334000000AFEF75BFCDFED290A9FED290AFFF773
:1033500039FB8DED030ADFED250A9FED250AFFF706
:103360006DFB8DED020ADFED210A9FED220AFFF7CA
:1033700029FB8DED010ADFED1D0A9FED1E0AFFF707
:103380005DFB8DED000ADDED031A9DED021ADDED0A
:10339000010A9DED000AFEF731FCDFED170A9FEDF3
:1033A000140AFFF70FFB8DED030ADFED130A9FED03
:1033B000100AFFF743FB8DED020A0A4890ED010A5F
:1033C0008DED010A90ED000A8DED000ADDED031A86
:1033D0009DED021ADDED010A9DED000AFEF70EFCDF
:1033E0000DE03AE08403002000800944008009C415
:1033F000000096C4000000000080044474E15FED0A
:10340000020A9FEDFD0AFFF7DDFA8DED030A5FED7D
:10341000060A9FEDF90AFFF711FB8DED020AF74846
:1034200090ED010A8DED010A90ED000A8DED000A84
:10343000DDED031A9DED021ADDED010A9DED000A96
:10344000FEF7DCFBED4890ED020A8DED030ADFED9F
:10345000EC0A9DED030AFFF75DF9049800287AD184
:103460000598012877D15FED1F0A1FED1E0AFFF7AF
:10347000A9FA8DED030A5FED230A1FED220AFFF77B
:10348000DDFA8DED020A5FED280A1FED260AFFF72F
:1034900099FA8DED010A5FED2C0A1FED2A0AFFF75C
:1034A000CDFA8DED000ADDED031A9DED021ADDED7A
:1034B000010A9DED000AFEF7A1FB5FED340A1FED46
:1034C000340AFFF77FFA8DED030A5FED380A1FED2E
:1034D000380AFFF7B3FA8DED020A5FED3C0A1FEDE3
:1034E0003B0AFFF76FFA8DED010A5FED400A1FED11
:1034F0003F0AFFF7A3FA8DED000ADDED031A9DEDFB
:10350000021ADDED010A9DED000AFEF777FB5FED83
:10351000460A1FED490AFFF755FA8DED030A5FEDE4
:103520004A0A1FED4D0AFFF789FA8DED020AB348EA
:1035300090ED010A8DED010A90ED000A8DED000A73
:10354000DDED031A9DED021ADDED010A9DED000A85
:10355000FEF754FB00E047E05FED590A9FEDA60A35
:10356000FFF730FA8DED030A5FED5D0A9FEDA20AC9
:10357000FFF764FA8DED020AA04890ED010A8DED87
:10358000010A90ED000A8DED000ADDED031A9DEDB4
:10359000021ADDED010A9DED000AFEF72FFB9748A8
:1035A00090ED020A8DED030ADFED950A9DED030A09
:1035B000FFF7B0F8DFED930A1FED720AFFF702FA8A
:1035C0008DED030ADFED8F0A1FED760AFFF736FA5D
:1035D0008DED020ADDED031A9DED021A5FED7B0A07
:1035E0001FED7C0AFEF70AFB049800287CD10598A1
:1035F000022879D15FED830A1FED820AFFF7E2F915
:103600008DED030A5FED870A1FED860AFFF716FAB4
:103610008DED020A5FED8C0A1FED8A0AFFF7D2F9E1
:103620008DED010A5FED900A1FED8E0AFFF706FA95
:103630008DED000ADDED031A9DED021ADDED010AA4
:103640009DED000AFEF7DAFA5FED980A1FED980A81
:10365000FFF7B8F98DED030A5FED9C0A1FED9C0A98
:10366000FFF7ECF98DED020A5FEDA00A1FED9F0A4E
:10367000FFF7A8F98DED010A5FEDA40A1FEDA30A7B
:10368000FFF7DCF98DED000ADDED031A9DED021A5E
:10369000DDED010A9DED000AFEF7B0FA5FEDAA0A22
:1036A0001FEDAD0AFFF78EF98DED030A5FEDAE0A4F
:1036B0001FEDB10AFFF7C2F98DED020A4F4890EDF8
:1036C000010A8DED010A90ED000A8DED000ADDED95
:1036D000031A9DED021ADDED010A9DED000AFEF7C9
:1036E0008DFA5FEDBB0A00E045E09FED430AFFF76E
:1036F00069F98DED030A5FEDC00A9FED3F0AFFF700
:103700009DF98DED020A3D4890ED010A8DED010A0B
:1037100090ED000A8DED000ADDED031A9DED021A11
:10372000DDED010A9DED000AFEF768FA334890EDE1
:10373000020A8DED030ADFED320A9DED030AFEF762
:10374000E9FFDFED310A1FEDD50AFFF73BF98DEDFB
:10375000030ADFED2D0A1FEDD90AFFF76FF98DED92
:10376000020ADDED031A9DED021A5FEDDE0A1FED80
:10377000DF0AFEF743FA069801287DD10498012854
:103780005ED10598B0BB5FEDE50A9FED200AFFF71B
:1037900019F98DED030A5FEDE90A9FED1C0AFFF7A9
:1037A0004DF98DED020A154890ED010A8DED010AE3
:1037B00090ED000A8DED000ADDED031A9DED021A71
:1037C000DDED010A9DED000AFEF718FA0B4890EDB9
:1037D000020A8DED030ADFED0E0A9DED030AFEF7E6
:1037E00099FFDFED0C0A9FED0C0AFFF7EBF88DED6A
:1037F000030A13E024E000000080EDC484030020ED
:103800000000344300C00244008089440000E1C449
:10381000000034C30000FFC3000000005FED030A96
:103820001FED030AFFF70AF98DED020ADDED031A19
:103830009DED021A5FED080A1FED090AFEF7DEF999
:10384000049801286FD1059801286CD1DFEDFE0A9C
:103850001FED0F0AFFF7B6F88DED030ADFEDFA0A48
:103860001FED130AFFF7EAF88DED020AF74890ED15
:10387000010A8DED010A00E081E290ED000A8DED74
:10388000000ADDED031A9DED021ADDED010A9DED42
:10389000000AFEF7B3F9DFEDEC0A1FED240AFFF78B
:1038A00091F88DED030ADFEDE80A1FED280AFFF716
:1038B000C5F88DED020AE54890ED010A8DED010A8B
:1038C00090ED000A8DED000ADDED031A9DED021A60
:1038D000DDED010A9DED000AFEF790F9DB4890ED61
:1038E000020A8DED030A5FED360A9DED030AFEF72D
:1038F00011FF5FED380A1FED380AFFF763F88DED11
:10390000030A5FED3C0A1FED3C0AFFF797F88DEDC7
:10391000020ADDED031A9DED021A5FED410A1FED6B
:10392000420AFEF76BF9049801286DD10598022828
:103930006AD1DFEDC70A1FED480AFFF743F88DEDA6
:10394000030ADFEDC30A1FED4C0AFFF777F88DED90
:10395000020ABE4890ED010A8DED010A90ED000AC1
:103960008DED000ADDED031A9DED021ADDED010A71
:103970009DED000AFEF742F9DFEDB50A1FED5D0A85
:10398000FFF720F88DED030ADFEDB10A1FED610AA4
:10399000FFF754F88DED020AAC4890ED010A8DED69
:1039A000010A90ED000A8DED000ADDED031A9DED90
:1039B000021ADDED010A9DED000AFEF71FF9A3488A
:1039C00090ED020A8DED030A5FED6F0A9DED030A8B
:1039D000FEF7A0FE5FED710A1FED710AFEF7F2FF20
:1039E0008DED030A5FED750A1FED750AFFF726F8E6
:1039F0008DED020ADDED031A9DED021A5FED7A0AE4
:103A00001FED7B0AFEF7FAF80498022854D10598B6
:103A1000F0BB5FED830A1FED800AFEF7D3FF8DED4B
:103A2000030A5FED870A1FED840AFFF707F88DEDA3
:103A3000020A864890ED010A8DED010A90ED000A18
:103A40008DED000ADDED031A9DED021ADDED010A90
:103A50009DED000AFEF7D2F85FED950A1FED950A7D
:103A6000FEF7B0FF8DED030A5FED990A1FED990A8D
:103A7000FEF7E4FF8DED020A744890ED010A8DED2A
:103A8000010A90ED000A8DED000ADDED031A00E059
:103A900012E09DED021ADDED010A9DED000AFEF730
:103AA000ADF86A4890ED020A8DED030A5FEDAC0AAD
:103AB0009DED030AFEF72EFE0498022853D10598C7
:103AC000012850D1DFED630A1FEDAD0AFEF77AFF42
:103AD0008DED030ADFED5F0A1FEDB10AFEF7AEFFC1
:103AE0008DED020A594890ED010A8DED010A90ED25
:103AF000000A8DED000ADDED031A9DED021ADDEDE1
:103B0000010A9DED000AFEF779F8DFED520A1FED7C
:103B1000C10AFEF757FF8DED030ADFED4E0A1FEDD8
:103B2000C50AFEF78BFF8DED020A484890ED010AA9
:103B30008DED010A90ED000A8DED000ADDED031A0E
:103B40009DED021ADDED010A9DED000AFEF756F823
:103B50003E4890ED020A8DED030A5FEDD70A9DED18
:103B6000030AFEF7D7FD0498022830D105980228F1
:103B70002DD15FEDD70A1FEDDB0AFEF723FF8DED98
:103B8000030A5FEDDB0A1FEDDF0AFEF757FF8DED3D
:103B9000020A2E4890ED010A8DED010A90ED000A0F
:103BA0008DED000ADDED031A9DED021ADDED010A2F
:103BB0009DED000AFEF722F8244890ED020A8DEDF3
:103BC000030A5FEDF10A9DED030AFEF7A3FD0498D9
:103BD00078BB059868BB5FEDF00A1FEDF40AFEF7AD
:103BE000F1FE8DED030A5FEDF40A1FEDF80AFEF712
:103BF00025FF8DED020A154890ED010A8DED010AB1
:103C000090ED000A8DED000ADDED031A9DED021A1C
:103C1000DDED010A9DED000AFDF7F0FF0B4890ED88
:103C2000020A8DED030ADFED0C0A9DED030AFEF793
:103C300071FD0498E0BB0598012860D1DFED020A10
:103C40009FED060A0CE0000000C001C484030020C0
:103C500000007AC400401044000034C3000000009B
:103C6000FEF7B0FE8DED030A5FED090A1FED050AB0
:103C7000FEF7E4FE8DED020AFE4890ED010A8DED9F
:103C8000010A90ED000A8DED000ADDED031A9DEDAD
:103C9000021ADDED010A9DED000AFDF7AFFF5FEDB1
:103CA000160A9FEDF50AFEF78DFE8DED030A00E082
:103CB00025E05FED1B0A9FEDF00AFEF7BFFE8DEDDC
:103CC000020AEC4890ED010A8DED010A90ED000A20
:103CD0008DED000ADDED031A9DED021ADDED010AFE
:103CE0009DED000AFDF78AFFE24890ED020A8DED96
:103CF000030A5FED270A9DED030AFEF70BFD04980A
:103D0000E8BB0598022852D15FED2F0A1FED2D0A5E
:103D1000FEF758FE8DED030A5FED330A1FED310A01
:103D2000FEF78CFE8DED020AD24890ED010A8DED72
:103D3000010A90ED000A8DED000ADDED031A9DEDFC
:103D4000021ADDED010A9DED000AFDF757FFDFEDD8
:103D5000CB0A9FEDC90AFEF735FE8DED030ADFEDB4
:103D6000C70A9FEDC50AFEF769FE8DED020AC1483C
:103D700090ED010A8DED010A90ED000A00E016E0D9
:103D80008DED000ADDED031A9DED021ADDED010A4D
:103D90009DED000AFDF732FFB64890ED020A8DED69
:103DA000030A5FED530A9DED030AFEF7B3FC07B06B
:103DB00000BD70B52DED048B04460D46012C3FD19E
:103DC000012D3DD19FEDAE0AFEF7A2FD5FED5D0A2C
:103DD0009FEDAC0AFEF7F6FDB0EE408A5FED610A9A
:103DE0009FEDA80AFEF72AFEF0EE408AF0EE481A90
:103DF000B0EE681A5FED670A1FED680AFDF7FEFE78
:103E00009FEDA10AFEF784FD5FED6C0A9FED9F0A0E
:103E1000FEF7D8FDB0EE408A5FED700A9FED9B0A79
:103E2000FEF70CFEF0EE408A5FED741A1FED751A76
:103E3000F0EE480AFDF7E2FE9FED950AFEF768FDF9
:103E4000012C7CD1022D7AD1DFED920A1FED7D0A83
:103E5000FEF7B8FDB0EE408ADFED8E0A1FED810A55
:103E6000FEF7ECFDF0EE408AF0EE481AB0EE681A6C
:103E70005FED860A1FED870AFDF7C0FE9FED860AFB
:103E800000F00CFB9FED7E0AFEF742FDDFED810A9C
:103E90009FED820AFEF796FDB0EE408ADFED7D0AC7
:103EA0009FED7E0AFEF7CAFDF0EE408ADFED790A4B
:103EB0001FED960AFEF786FDB0EE409ADFED750A1B
:103EC0001FED9A0AFEF7BAFDF0EE409AF0EE481A9E
:103ED000B0EE681AF0EE490AFDF790FEF3EE0E0A16
:103EE0009FED6E0AFEF76EFDB0EE408AF3EE0E0A0D
:103EF0009FED6A0AFEF7A2FDF0EE408ADFED650A4B
:103F00009FED660AFEF75EFDB0EE409ADFED610AB6
:103F10009FED620AFEF792FDF0EE409AF0EE481A2D
:103F2000B0EE681AF0EE490AFDF768FE9FED560AFA
:103F3000FEF7EEFCF3EE0E0A1FEDB80A00E027E0F4
:103F4000FEF740FDB0EE408AF3EE0E0A1FEDBD0A0B
:103F5000FEF774FDF0EE408AF3EE0E0A9FED4F0A75
:103F6000FEF730FDB0EE409AF3EE0E0A9FED4B0ADD
:103F7000FEF764FDF0EE409AF0EE481AB0EE681AD3
:103F8000F0EE490AFDF73AFE9FED410AFEF7C0FC4C
:103F9000BCBB012D35D15FEDCF0A9FED3A0AFEF78C
:103FA00011FDB0EE408A5FEDD30A9FED360AFEF7B1
:103FB00045FDF0EE408AF0EE481AB0EE681A5FED6B
:103FC000D90A1FEDDA0AFDF719FE9FED310AFEF757
:103FD0009FFC5FEDDE0A9FED2B0AFEF7F3FCB0EECF
:103FE000408A5FEDE20A9FED270AFEF727FDF0EE1B
:103FF000408A5FEDE61A1FEDE71AF0EE480AFDF77A
:10400000FDFD002C7BD1022D79D1DFED220A1FEDC1
:10401000ED0AFEF7D7FCB0EE408ADFED1E0A1FED79
:10402000F10AFEF70BFDF0EE408AF0EE481AB0EE12
:10403000681A5FEDF60A1FEDF70AFDF7DFFD9FED49
:10404000160A00F02BFADFED130A9FED140AFEF7B3
:10405000B9FCB0EE408ADFED0F0A9FED100AFEF7C3
:10406000EDFCF0EE408ADFED0B0A9FED0D0AFEF746
:10407000A9FC17E0840300200000E1C4008089C48B
:10408000000096C50000B44300C0A8C50000B943B5
:104090000000FAC400007A430000A4420000BE43BE
:1040A00000000000B0EE409A5FED060A1FED040A22
:1040B000FEF7C4FCF0EE409AF0EE481AB0EE681A33
:1040C000F0EE490AFDF79AFDF3EE0E0A1FED0D0A18
:1040D000FEF778FCB0EE408AF3EE0E0A1FED110AEF
:1040E000FEF7ACFCF0EE408A5FED160A1FED150AF4
:1040F000FEF768FCB0EE409A5FED1A0A00E039E086
:104100001FED1A0AFEF79AFCF0EE409AF0EE481AFC
:10411000B0EE681AF0EE490AFDF770FD1FED240AB3
:10412000FEF7F6FBF3EE0E0A1FED230AFEF74AFC3C
:10413000B0EE408AF3EE0E0A1FED270AFEF77EFC72
:10414000F0EE408AF3EE0E0A1FED2C0AFEF73AFC61
:10415000B0EE409AF3EE0E0A1FED300AFEF76EFC49
:10416000F0EE409AF0EE481AB0EE681AF0EE490A06
:10417000FDF744FDBDEC048B70BD70B52DED048BD7
:1041800005460C46012D3FD1012C1CD11FED3C0AE8
:10419000FEF7BEFB5FED3E0A9FEDB90AFEF712FC8B
:1041A000B0EE408A5FED420A9FEDB50AFEF746FC8D
:1041B000F0EE408A5FED461A1FED471AF0EE480A0E
:1041C000FDF71CFD08E1BEEE000A00F067F91FEDE7
:1041D0004C0AFEF79DFB5FED4E0A9FEDA90AFEF724
:1041E000F1FBB0EE408A5FED520A9FEDA50AFEF7A3
:1041F00025FCF0EE408A5FED561A1FED571AF0EEDF
:10420000480AFDF7FBFCE7E0022C71D11FED5C0AC8
:10421000FEF77EFBDFED9B0A1FED5F0AFEF7D2FB88
:10422000B0EE408ADFED970A1FED630AFEF706FC49
:10423000F0EE408AF0EE481AB0EE681A5FED680AB8
:104240001FED690AFDF7DAFCDFED8E0A9FED8E0A9D
:10425000FEF7B8FBB0EE408ADFED8A0A9FED8A0ACE
:10426000FEF7ECFBF0EE408ADFED860A1FED740AE4
:10427000FEF7A8FBB0EE409ADFED820A1FED780A48
:10428000FEF7DCFBF0EE409AF0EE481AB0EE681A4A
:10429000F0EE490AFDF7B2FC00F037F95FED800A55
:1042A0009FED790AFEF78EFBB0EE408A5FED840A3F
:1042B0009FED750AFEF7C2FBF0EE408ADFED710A52
:1042C0009FED710AFEF77EFBB0EE409ADFED6D0ABE
:1042D0009FED6D0AFEF7B2FBF0EE409AF0EE481A41
:1042E000B0EE681AF0EE490AFDF788FC74E0FFE7CB
:1042F0001FED970A00F0D2F81FED970AFEF708FBB2
:10430000DFED600A1FED9A0AFEF75CFBB0EE408A13
:10431000DFED5C0A1FED9E0AFEF790FBF0EE408A8F
:10432000F0EE481AB0EE681A5FEDA30A1FEDA40A7A
:10433000FDF764FCDFED530A9FED530AFEF742FBE5
:10434000B0EE408ADFED4F0A9FED4F0AFEF776FB95
:10435000F0EE408ADFED4B0A1FEDAF0AFEF732FBAD
:10436000B0EE409ADFED470A1FEDB30AFEF766FB99
:10437000F0EE409AF0EE481AB0EE681AF0EE490AF4
:10438000FDF73CFC00F0C1F85FEDBB0A9FED3E0A73
:10439000FEF718FBB0EE408A5FEDBF0A9FED3A0AC8
:1043A000FEF74CFBF0EE408ADFED360A9FED360A51
:1043B000FEF708FBB0EE409ADFED320A9FED320ABD
:1043C000FEF73CFBF0EE409AF0EE481AB0EE681AA9
:1043D000F0EE490AFDF712FCBDEC048B70BD0246FD
:1043E0006FF002012948D0ED030AF4EEC00AF1EEA5
:1043F00010FA09D2D0ED030AB1EE401AF4EEC10A68
:10440000F1EE10FA00DD491C2148D0ED030AF4EE6C
:10441000C00AF1EE10FA09D2D0ED030AB1EE401A4B
:10442000F4EEC10AF1EE10FA00DD491C1948D0ED96
:10443000030AF4EEC00AF1EE10FA09D2D0ED030A35
:10444000B1EE401AF4EEC10AF1EE10FA00DD491C9B
:104450001148D0ED030AF4EEC00AF1EE10FA09D2C9
:10446000D0ED030AB1EE401AF4EEC10AF1EE10FAF3
:1044700000DD491C914201DD012070470020FCE76E
:104480000000964300004843000096C378000020D7
:104490009C000020C0000020E400002010B52DED9D
:1044A000028BB0EE408AB5EEC08AF1EE10FA0ED85B
:1044B0009FED3E0A28EE000ADFED3D0A80EE201A4D
:1044C0009FED3C0A30EE410AB0EE408A0DE09FEDD0
:1044D0003A0A28EE000A9FED361AC0EE010A9FED57
:1044E000350A30EE800AB0EE408ABDEEC80AB8EE5A
:1044F000C00AB0EE408ABCEEC80A10EE101A2F486F
:1045000003F07DFCBDEC028B10BD00B58BB001212A
:10451000082002F0AAF90121084602F05DF9022202
:104520000121274801F045FF022009908DF828005D
:1045300003208DF8290000208DF82A0001208DF835
:104540002B0009A91E4801F0A9FE5320ADF8180060
:104550000020ADF81A0044F61F6007904FF48070F9
:10456000ADF8200006A9154803F059FA6020ADF80F
:1045700004000120ADF806000220ADF8100001A9EA
:104580000E4803F01AFB08210C4803F073FC0121CC
:104590000A4803F0AFFA0121084803F0C9FABEEE59
:1045A000000AFFF77BFF0BB000BD00000040834412
:1045B0000000B44200EC9046004083C4000C004070
:1045C0000000024010B50121084602F005F9012162
:1045D000022002F001F90121042002F0FDF801217E
:1045E000082002F0F9F80121102002F0F5F810BDC2
:1045F0001CB54020009000208DF8040002208DF8AA
:10460000050001208DF807006946FE4801F046FECE
:104610001020009000208DF8040002208DF8050085
:1046200001208DF807006946F74801F037FE0120A8
:10463000009000208DF8040002208DF80500012074
:104640008DF807006946F14801F028FE042000902B
:1046500000208DF8040002208DF8050001208DF85F
:1046600007006946E94801F019FE4FF480500090B8
:1046700000208DF8040002208DF8050001208DF83F
:1046800007006946E24801F009FE4FF480400090BF
:1046900000208DF8040002208DF8050001208DF81F
:1046A00007006946DA4801F0F9FD0120009000207A
:1046B0008DF8040002208DF8050001208DF8070018
:1046C0006946D44801F0EAFD8020009000208DF872
:1046D000040002208DF8050001208DF807006946CE
:1046E000CA4801F0DBFD2020009000208DF8040076
:1046F00002208DF8050001208DF807006946C348A7
:1047000001F0CCFD0820009000208DF8040002206C
:104710008DF8050001208DF807006946BB4801F0BF
:10472000BDFD4FF48040009000208DF80400022071
:104730008DF8050001208DF807006946B54801F0A5
:10474000ADFD4FF48050009000208DF80400022051
:104750008DF8050001208DF807006946AD4801F08D
:104760009DFD4FF48060009000208DF80400022031
:104770008DF8050001208DF807006946A54801F075
:104780008DFD8020009000208DF8040002208DF81F
:10479000050001208DF8070069469F4801F07EFD65
:1047A0001CBD10B58021974801F0DAFD012824D105
:1047B0002021954801F0D4FD01281ED108219348FD
:1047C00001F0CEFD012818D18103904801F0C8FD09
:1047D000012812D101038E4801F0C2FD01280CD13D
:1047E00081028B4801F0BCFD012806D18021894857
:1047F00001F0B6FD012800D110BD0020FCE710B586
:104800008021804801F0ACFDB8B920217E4801F03C
:10481000A7FD90B94FF480617D4801F0A1FD60B91A
:1048200080217C4801F09CFD38B94FF480417748E5
:1048300001F096FD012800D110BD0020FCE710B565
:10484000FFF7DDFF40B30121734801F089FD18BB7C
:104850004FF480416F4801F083FDE8B94FF4805177
:104860006C4801F07DFDB8B904216A4801F078FD7B
:1048700090B90121654801F073FD58B110216348DA
:1048800001F06EFD012805D04021604801F068FD6F
:10489000012801D1012010BD0020FCE710B5FFF771
:1048A000AEFF40B34021594801F05AFD18BB10211A
:1048B000564801F055FDF0B90121544801F050FD72
:1048C000C8B90421534801F04BFDA0B94FF4805101
:1048D000504801F045FD60B14FF480414D4801F072
:1048E0003FFD012805D001214B4801F039FD012889
:1048F00001D1012010BD0020FCE72DE9F041054663
:104900000F4616460024082F47D2DFE807F046047A
:104910000D17212B343D80213E4801F021FD012857
:1049200001D1601CC4B200BF4FF48061384801F06F
:1049300017FD012801D1601CC4B200BF4FF48051A3
:10494000334801F00DFD012801D1601CC4B200BF45
:104950004FF480412D4801F003FD012801D1601C76
:10496000C4B200BF0821294801F0FAFC012801D196
:10497000601CC4B212E02021234801F0F1FC0128A0
:1049800001D1601CC4B209E080211E4801F0E8FC9E
:10499000012801D1601CC4B200E000BF00BF082E96
:1049A00056D2DFE806F055040D161F28404B402173
:1049B000164801F0D5FC012801D1601CC4B200BF2B
:1049C0001021124801F0CCFC012801D1601CC4B2B6
:1049D00000BF01210D4801F0C3FC012801D1601C7A
:1049E000C4B200BF04210B4801F0BAFC012801D178
:1049F000601CC4B200BF4FF48051064801F0B0FC07
:104A000001280BE0000002400008024000040240C0
:104A10000014024000180240000C024002D1601C49
:104A2000C0B2044615E04FF48041FD4801F098FC07
:104A3000012802D1601CC0B204460AE00121F948F5
:104A400001F08EFC012802D1601CC0B2044600E0D7
:104A500000BF00BF012D01D0022D06D1012C02D1D3
:104A60000120BDE8F0810020FBE7032D05D1022CD9
:104A700001D10120F5E70020F3E700BFF1E710B511
:104A80008021E94801F06CFC012811D10121E548A1
:104A900001F066FC01280BD12021E44801F060FC04
:104AA00030B94FF48041DE4801F05AFC00287DD037
:104AB0008021DD4801F054FC01281DD10121D94895
:104AC00001F04EFC012817D12021D84801F048FC04
:104AD000012811D18103D24801F042FC01280BD1F9
:104AE0000821D34801F03CFC30B94FF48051CC4848
:104AF00001F036FC0028DAD08021CB4801F030FCF0
:104B000038BB0121C74801F02BFC10BB2021C7484E
:104B100001F026FC01281CD18103C14801F020FCD2
:104B2000012816D10821C24801F01AFC012810D131
:104B30000103BB4801F014FC01280AD18103BC48E1
:104B400001F00EFC28B90421B54801F009FC002849
:104B5000ADD02021B54801F003FC40BB4FF48041AB
:104B6000AF4801F0FDFB10BB0821B14801F0F8FB94
:104B700001281FD10103AA4801F0F2FB012819D135
:104B80008103AB4801F0ECFB012813D10421A448B8
:104B900001F0E6FB01280DD10103A64801F0E0FB7E
:104BA00028B90121A24801F0DBFB01E09AE001E015
:104BB0000028A0D008219E4801F0D2FB48BB4FF44A
:104BC0008051974801F0CCFB18BB4FF480419848C6
:104BD00001F0C6FB01281CD10421914801F0C0FB63
:104BE000012816D10103934801F0BAFB012810D126
:104BF00001218F4801F0B4FB01280AD181028D48C0
:104C000001F0AEFB28B91021894801F0A9FB00286A
:104C100068D04FF48041864801F0A2FB38BB0421E4
:104C20007F4801F09DFB10BB4FF48051814801F09B
:104C300097FB01281BD101217D4801F091FB012840
:104C400015D181027B4801F08BFB01280FD1102187
:104C5000774801F085FB012809D18021704801F0D7
:104C60007FFB20B94021724801F07AFBD0B34FF4AA
:104C70008051704801F074FBE8B901216C4801F0E3
:104C80006FFBC0B94FF480616A4801F069FB0128ED
:104C900011D11021664801F063FB01280BD180215E
:104CA0005F4801F05DFB012805D14021604801F01B
:104CB00057FB012816D04FF480615E4801F050FB8D
:104CC00090B910215A4801F04BFB68B98021544833
:104CD00001F046FB012807D14021554801F040FB77
:104CE000012801D1012010BD80214F4801F038FB7F
:104CF00001281DD101214B4801F032FB012817D1B9
:104D000020214A4801F02CFB012811D1810344489D
:104D100001F026FB01280BD10821454801F020FBBA
:104D2000012805D101033E4801F01AFB012876D085
:104D300020213E4801F014FB01281DD18103384891
:104D400001F00EFB012817D10821394801F008FBBA
:104D5000012811D10103324801F002FB01280BD1D7
:104D60008103334801F0FCFA012805D104212C48C5
:104D700001F0F6FA01287BD008212D4801F0F0FA65
:104D800001281DD10103264801F0EAFA012817D1B4
:104D90008103274801F0E4FA012811D104212048B9
:104DA00001F0DEFA01280BD10103224801F0D8FA04
:104DB000012805D101211E4801F0D2FA012857D05F
:104DC0004FF480411A4801F0CBFA01281DD104218B
:104DD000134801F0C5FA012817D10103154801F065
:104DE000BFFA012811D10121114801F0B9FA0128B7
:104DF0000BD181020F4801F0B3FA012805D110212F
:104E00000B4801F0ADFA012832D04FF48051094827
:104E100001F0A6FA01282DD1012105480CE027E078
:104E200000180240000C024000000240000802404E
:104E3000000402400014024001F092FA012819D146
:104E40008102FE4801F08CFA012813D11021FC48A0
:104E500001F086FA01280DD18021FA4801F080FA8C
:104E6000012807D14021F64801F07AFA012801D142
:104E7000022038E7002036E710B58021F24801F023
:104E80006FFA10BB2021F14801F06AFAE8B9082155
:104E9000EB4801F065FAC0B94FF48041E84801F0F1
:104EA0005FFA90B94FF48051E44801F059FA60B9C3
:104EB0004FF48061E14801F053FA30B98021E148B4
:104EC00001F04EFA08B9012010BD0020FCE710B532
:104ED0004021DB4801F044FA08BB1021D84801F01A
:104EE0003FFAE0B90121D64801F03AFAB8B90421F5
:104EF000D44801F035FA90B94FF48051D14801F00F
:104F00002FFA60B94FF48041CE4801F029FA30B948
:104F10000121CF4801F024FA08B9012010BD00207A
:104F2000FCE770B5054600248021C74801F018FA57
:104F3000012801D1601CC4B22021C44801F010FA3C
:104F4000012801D1601CC4B20821BD4801F008FA53
:104F5000012801D1601CC4B24FF48041B84801F06F
:104F6000FFF9012801D1601CC4B24FF48051B3484D
:104F700001F0F6F9012801D1601CC4B24FF4806140
:104F8000AE4801F0EDF9012801D1601CC4B28021C6
:104F9000AC4801F0E5F9012801D1601CC4B2AC4273
:104FA00001DB012070BD0020FCE710B58021A54881
:104FB00001F0D6F928BB4FF48061A04801F0D0F988
:104FC000F8B94FF480519D4801F0CAF9C8B94FF4BF
:104FD00080419B4801F0C4F998B980219A4801F0BA
:104FE000BFF901280BD02021984801F0B9F9012818
:104FF00005D00821924801F0B3F9012801D1012020
:1050000010BD0020FCE710B580218F4801F0A8F901
:1050100028BB20218D4801F0A3F900BB0821884856
:1050200001F09EF9D8B94FF48041854801F098F914
:10503000A8B98021834801F093F901280DD04FF4DD
:1050400080617E4801F08CF9012806D04FF4805130
:105050007A4801F085F9012801D1012010BD002016
:10506000FCE710B58021774801F07AF910BB4FF4C6
:105070008061724801F074F9E0B98021724801F052
:105080006FF9B8B92021714801F06AF990B9082187
:105090006B4801F065F901280CD18103684801F0E3
:1050A0005FF9012806D10103644801F059F901288C
:1050B00000D110BD0020FCE710B59FED662AF3EE8D
:1050C0000E1ABBEE0E1AFBEE0E0AB3EE0E0AFCF73A
:1050D00061FC012000F054FB10BD10B59FED5D2A6E
:1050E000FBEE0E1AB3EE0E1AF3EE0E0ABBEE0E0A2C
:1050F000FCF750FC012000F043FB10BD10B59FED04
:10510000552AF3EE0E1AB3EE0E1AFBEE0E0ABBEEA4
:105110000E0AFCF73FFC012000F032FB10BD10B579
:105120009FED4C2AFBEE0E1ABBEE0E1AF3EE0E0AA2
:10513000B3EE0E0AFCF72EFC012000F021FB10BD9F
:1051400010B59FED442ADFED431A9FED421ADFEDC3
:10515000410A9FED400AFCF71DFC012000F010FB06
:1051600010BD10B59FED3B2AF3EE0E1AB3EE0E1AEA
:10517000F3EE0E0AB3EE0E0AFCF70CFC012000F071
:10518000FFFA10BD10B59FED332AFBEE0E1ABBEEF1
:105190000E1AFBEE0E0ABBEE0E0AFCF7FBFB01201B
:1051A00000F0EEFA10BD00202B4908702B49087062
:1051B0002B4908702B4908702B490870704710B5AF
:1051C000FFF75DFC01281FD12548007801281BD17D
:1051D000002024490870022021490870002410E0B2
:1051E0001E480078042802D1FFF7BBFF07E01B48E8
:1051F0000078052802D1FFF7C5FF00E003E0601C3E
:10520000C4B2012CECDB0DE0FFF739FC022809D118
:1052100013480078012805D10020124908700220A7
:105220000F4908700E48007890BB0C4800780A4976
:1052300008700220094908700A4817E0001402406B
:105240000004024000180240000002400008024032
:10525000000C0240000000002D0000202C00002067
:105260002E000020300000202F000020007878B9A8
:1052700080216F4801F074F801280AD101216D489E
:1052800001F06EF8012804D16B4908706B49087071
:105290001EE0FFF7F1FD60B10121664801F060F802
:1052A000012806D102206449087001206349087072
:1052B0000EE080215E4801F053F8012808D1FFF785
:1052C00006FE28B103205C49087001205B49087084
:1052D0005A48007801284FD157480078012818D142
:1052E0008103574801F03CF801280AD102205349B4
:1052F00008705448007854490870012051490870DA
:105300003AE0504800785049087003204D49087031
:1053100032E049480078022815D10821484801F0B8
:105320001FF8012807D14748007847490870042032
:105330004449087020E0434800784349087003203E
:105340004049087018E03C480078032814D1042133
:105350003E4801F005F8012807D13A4800783A495B
:10536000087005203749087006E03648007836494D
:1053700008700320334908703048007802281FD194
:10538000FFF76FFE38B12F4800782F4908700120D1
:105390002C49087014E0FFF736FE38B12948007830
:1053A0002949087002202749087009E0FFF7FDFD30
:1053B00030B124480078244908700320214908703E
:1053C00020480078062816D2DFE800F00C03060912
:1053D0000F12FFF771FE12E0FFF790FE0FE0FFF7EC
:1053E0009EFE0CE0FFF7ACFE09E0FFF7BAFE06E018
:1053F000FFF7C8FE03E00A2000F0C2F900BF00BFBB
:105400000620FFF78EFD88B10C48007802280DD1E8
:10541000FFF796FE00200B4908700B4908700A2020
:105420000649087004490870012010BD0020FCE7FF
:1054300000000240000C0240300000202E0000203E
:10544000000402402C0000202D0000200018024023
:105450002DE9FE4F00200090019002904FF00609C8
:105460000026934F0025804600248246914908601B
:1054700013E09FED912ADFED901A9FED8F1ADFED7B
:105480008E0A9FED8D0AFCF785FA022000F078F96C
:1054900088480068401C87490860864800681428CE
:1054A000E7DB2EE06D1C022D00D82AE04FF4FA70E5
:1054B00000F01EF99FED802ADFED7F1A9FED7E1A26
:1054C000DFED7D0A9FED7C0AFCF764FA6946002057
:1054D00000F0CCFA009880440098B04200D9009EB9
:1054E0000098B84200D2009F9FED732ADFED721A38
:1054F0009FED711ADFED700A9FED6F0AFCF74AFA13
:1055000000BF4D45CED9A8EB0600C01B0321B0FB60
:10551000F1F440F28A20844201D34FF0000AB4F53E
:10552000D77F04D3B4F5F77F01D24FF0010AB4F569
:10553000B67F04D9B4F5D67F01D24FF0020A5046A7
:10554000BDE8FE8F2DE9FE4F064600200090019039
:1055500002904FF0060A0027DFF8548100258146AB
:10556000002483465349086013E09FED532ADFED82
:10557000521A9FED511ADFED500A9FED4F0AFCF7CA
:1055800009FA022000F0FCF84A480068401C49492A
:105590000860484800681428E7DB002E48D02FE058
:1055A0006D1C022D00D82BE04FF4FA7000F0A0F82B
:1055B0009FED412ADFED401A9FED3F1ADFED3E0AD5
:1055C0009FED3D0AFCF7E6F96946002000F0C7FAB6
:1055D000009881440098B84200D9009F0098404547
:1055E00001D2DDF800809FED342ADFED331A9FED04
:1055F000321ADFED310A9FED300AFCF7CBF900BF1C
:105600005545CDD9A9EB0700A0EB08000321B0FB5D
:10561000F1F4B4F5977F04D3B4F5B47F01D84FF01B
:10562000010BFA2C04D3B4F5957F01D24FF0020B95
:105630005846BDE8FE8F2DE9FE4F002000900190F6
:1056400002904FF004090025194E002400278046DF
:10565000824619E0641C022C00D815E04FF4FA7061
:1056600000F046F86946002000F005FB009807446A
:105670000098A84200D9009D0098B04200D2009E38
:10568000012000F07DF800BF4C45E3D9B81BA0EB2A
:105690000508B8F5C87F05D3B8F5487F02D84FF0A4
:1056A000030A01E04FF0000A5046BDE8FE8F0000FB
:1056B000FFC99A3B280000200000000010B50446F6
:1056C0006FF0040000F046FDE11704EB5171C1F3E7
:1056D000C701394A11701046007800EB4001C1EB58
:1056E000C0104FF6FF7101EAC0003449088010BDB8
:1056F0000146314A12784A434FF0E0235A610022B2
:105700009A611A46126942F001021A6100BF4FF015
:10571000E022106900F001021AB100F48032002A80
:10572000F5D04FF0E022126922F001024FF0E023A1
:105730001A6100229A6170470146204A12884A4342
:105740004FF0E0235A6100229A611A46126942F032
:1057500001021A6100BF4FF0E022106900F001025F
:105760001AB100F48032002AF5D04FF0E02212691D
:1057700022F001024FF0E0231A6100229A61704783
:1057800070B504464FF4077094FBF0F0C6B24FF4C6
:10579000077094FBF0F100FB114085B205E04FF477
:1057A0000770FFF7C9FF701EC6B2002EF7D115B102
:1057B0002846FFF7C1FF70BD3200002034000020F2
:1057C00000BF704700BFFE4A128802F04002002A64
:1057D000F9D0C2B2FA4B9A80704710B588B004462F
:1057E0000121084600F0F8FF0121102001F04EF8D9
:1057F00007220921F34800F0DCFD07220A21F148C5
:1058000000F0D7FD4FF4C060069002208DF81C0018
:105810008DF81D0000208DF81E0001208DF81F005E
:1058200006A9E84800F03AFD02940020ADF80C000B
:10583000ADF80E00ADF81000ADF814000C20ADF876
:10584000120002A9DE4801F082F90121DC4801F0D2
:1058500006FA012240F22551D94801F0B6FA252076
:105860008DF8040003208DF805008DF80600012056
:105870008DF8070001A800F020FC08B010BD10B59D
:1058800088B004460121022000F0A6FF012188040F
:1058900000F0EBFF07220B21CB4800F08AFD072226
:1058A0000A21C94800F085FD4FF4406006900220AF
:1058B0008DF81C008DF81D0000208DF81E000120C1
:1058C0008DF81F0006A9C04800F0E8FC02940020F3
:1058D000ADF80C00ADF80E00ADF81000ADF81400F6
:1058E0000C20ADF8120002A9B84801F030F90121EE
:1058F000B64801F0B4F9012240F22551B34801F055
:1059000064FA27208DF8040001208DF8050000209E
:105910008DF8060001208DF8070001A800F0CDFBEE
:1059200008B010BD10B588B004460121084600F04B
:1059300053FF0121480400F098FF07220321A148EA
:1059400000F037FD072202219E4800F032FD0C20B6
:10595000069002208DF81C008DF81D0000208DF8A7
:105960001E0001208DF81F0006A9964800F096FC45
:1059700002940020ADF80C00ADF80E00ADF8100058
:10598000ADF814000C20ADF8120002A9904801F007
:10599000DEF801218E4801F062F9012240F2255122
:1059A0008B4801F012FA26208DF8040001208DF8B2
:1059B000050000208DF8060001208DF8070001A8E1
:1059C00000F07BFB08B010BD10B588B00446012183
:1059D000042000F001FF0121202000F057FF0822E1
:1059E00006217C4800F0E5FC08220721794800F0F8
:1059F000E0FCC020069002208DF81C008DF81D00F0
:105A000000208DF81E0001208DF81F0006A97148A6
:105A100000F044FC02940020ADF80C00ADF80E003C
:105A2000ADF81000ADF814000C20ADF8120002A97A
:105A3000694801F08CF80121674801F010F9012252
:105A400040F22551644801F0C0F947208DF8040068
:105A500001208DF8050000208DF8060001208DF84A
:105A6000070001A800F029FB08B010BDFEB50546EF
:105A70000C460026002000900190029000BF80217B
:105A8000524801F0C7F90028F9D057214F4801F0DA
:105A900011F900BF40214D4801F0BCF90028F9D0B0
:105AA00000BF8021494801F0B5F90028F9D0294606
:105AB000464801F0FFF800BF4021444801F0AAF930
:105AC0000028F9D00F20FFF75BFE45E0434800882F
:105AD000752802D000204249087041480078082803
