:020000040800F2
:10000000400B0020D1870008690600086B06000835
:100010006F0600087306000877060008000000005D
:100020000000000000000000000000007B06000847
:100030007D060008000000007F0600088106000819
:10004000EB870008EB870008EB870008EB870008C8
:10005000EB870008EB870008EB870008EB870008B8
:10006000EB870008EB870008EB870008EB870008A8
:10007000EB870008EB870008EB870008EB87000898
:10008000EB870008EB870008EB870008AD09000844
:10009000C3090008EB870008EB870008EB8700081E
:1000A000EB870008EB870008EB870008EB87000868
:1000B000EB870008EB870008EB870008EB87000858
:1000C000EB870008EB870008EB870008EB87000848
:1000D000EB870008978600086987000811870008E9
:1000E000EB870008EB870008EB870008EB87000828
:1000F000EB870008EB870008EB870008EB87000818
:10010000EB870008EB870008EB870008EB87000807
:10011000EB870008EB870008EB870008EB870008F7
:10012000EB870008EB870008EB870008EB870008E7
:10013000EB870008EB870008EB870008EB870008D7
:10014000EB870008EB870008EB870008EB870008C7
:10015000EB870008EB870008EB8700089187000811
:10016000EB870008EB870008EB870008EB870008A7
:10017000EB870008EB870008EB870008EB87000897
:10018000EB870008EB87000800F002F800F03CF86D
:100190000AA090E8000C82448344AAF10107DA45E2
:1001A00001D100F031F8AFF2090EBAE80F0013F0F8
:1001B000010F18BFFB1A43F001031847D4C1000018
:1001C000F4C10000103A24BF78C878C1FAD85207A9
:1001D00024BF30C830C144BF04680C6070470000C1
:1001E0000023002400250026103A28BF78C1FBD840
:1001F000520728BF30C148BF0B6070471FB50CF0D5
:100200002CF81FBD10B510BD0AF0A8FD1146FFF770
:10021000F5FF00F06CF80AF0C6FD03B4FFF7F2FF3B
:1002200003BC07F07DFE0000014600220020F74BD2
:1002300018600AE0F648F54B1B6850F823000244AA
:10024000F2480068401CF14B1860F0480068032831
:10025000F0DB022A15D10020EC4B18600DE0EC48D1
:10026000EA4B1B6850F8230010B9E8480068704753
:10027000E6480068401CE54B1860E4480068032825
:10028000EDDB012A13D1012907D1E148406801289B
:1002900001D10020EBE70120E9E7022907D1DC4882
:1002A0000068012801D10220E1E70020DFE73AB928
:1002B000012901D10120DAE7022901D10020D6E786
:1002C00000BFD4E7D3488068002801DD01207047D3
:1002D000D0480068002801DD0020F8E7CD4800691B
:1002E000002801DD0220F2E74FF0FF30EFE72DEDAF
:1002F000048B002600BF00254FF4E13007F01DFEFF
:100300004FF4E13007F0BEFE4FF4E13007F067FE36
:100310004FF4E13007F008FFA82007F07FFD4FF40D
:10032000A06008F075FA06F0DBF906F0F7F900F0C6
:10033000A3FE01F063F900F0ADFA07F0C2F806F091
:1003400072F900270020B4490860804604E0B3EE4B
:100350000E0A07F0CEFB8046B8F1000FF7D000BFC1
:100360000020AA49086006E007F078F8A74800686E
:10037000401CA6490860A5480068B0F57A7FF3DB09
:1003800007F016FCA349886007F005FDA149086045
:1003900008468068F0BB03200861DFEDA00A9FEDEE
:1003A000A00A04F003FCB0EE408ADFED9C0A9FED4A
:1003B0009C0A04F037FCF0EE408AF0EE481AB0EEEA
:1003C000681ADFED960A9FED950A01F043FCDFED18
:1003D000950A9FED930A04F0E9FBB0EE408ADFED49
:1003E000910A9FED8F0A04F01DFCF0EE408ADFEDCC
:1003F0008B0A9FED8B0A04F0D9FBB0EE409ADFED3B
:10040000870A9FED870A04F00DFCF0EE409AF0EEAB
:10041000481A00E00AE0B0EE681AF0EE490A01F06E
:1004200019FC00208049086002240AE0794800682D
:1004300018B903207749086102E000207549086176
:10044000032410E1062C7CD2DFE804F07B033E4D50
:10045000C9FA002507E09FED710A744800EB85009A
:1004600080ED000A6D1C032DF5DB6B4802687048B7
:1004700001686D48006804F043FC67480068F0B903
:100480000120654908606B48006801280AD1684866
:10049000006818B166480068022803D19FED660A1B
:1004A00006F08AF86348006802280BD160480068AB
:1004B000012807D1B9EE0C0A06F07EF802E0002010
:1004C000554908600224CDE0B3EE0E0A07F007F8A4
:1004D00007463FB106F0F5FF4F48006808B903240E
:1004E00000E00424BEE007F063FB4A494E4A12686C
:1004F00041F83200AEB94C4A126851F8320007F0A8
:10050000D1FB4449484A126801EBC20148604148A6
:100510004549096800EBC1004068002808DD012654
:1005200006E000203B49404A126801EBC2014860E6
:1005300038483D49096850F83100002802DC05249C
:1005400090E08DE033483849096800EBC10040680D
:10055000002823DD2F48344A126800EBC2004168AE
:10056000012005F009FD2B482F49096800EBC10067
:1005700040683049086027492B4A126801EBC201E4
:100580004868FFF751FE2A4908604FF0FF302149C3
:10059000254A126801EBC20148601EE01D48224A4C
:1005A000126850F83210002005F0E6FC19481E4988
:1005B000096850F831001F49086016491A4A126844
:1005C00051F83200FFF730FE194908604FF0FF3153
:1005D0001048154A126840F83210012442E01548CC
:1005E00001681348006805F0CDFE01200849104A53
:1005F000126841F82200FFF765FE0B4908600846C3
:10060000006800281ADB012419E019E0100000201E
:100610006C000020540000200C00002000000000AE
:10062000000034C300007A4304000020840300204B
:10063000080000200000002000009442052411E082
:100640001FED0A2A5FED0B1A1FED0C1A5FED0D0A64
:100650001FED0E0A01F0CAF9012007F041FC01E08C
:10066000052400BF00BFEDE6704700BFFEE700BFF6
:10067000FEE700BFFEE700BFFEE770477047704728
:10068000704700000CB5002001900090764800688B
:1006900040F480307449086000BF7348006800F47B
:1006A000003000900198401C0190009818B9019802
:1006B000B0F5A04FF1D16C48006800F4003010B1E3
:1006C0000120009001E0002000900098012846D110
:1006D00065484030006840F0805063494031086010
:1006E0006248006840F44040604908605E48083055
:1006F00000685D49083108600846006840F4004021
:1007000008600846006840F4A05008605848091F77
:100710000860081F006840F08070091F086000BF73
:100720005148006800F000700028F9D040F20570D0
:10073000504908604C480830006820F003004A49DE
:10074000083108600846006840F00200086000BFF9
:1007500045480830006800F00C000828F8D10CBDAE
:1007600010B54548006840F47000434908603E48B1
:10077000006840F001003C49086000203A49083117
:100780000860394800683D490840374908603C48DE
:10079000091D0860081F006820F48020091F0860F8
:1007A000002031490C310860FFF76CFF4FF000600A
:1007B00031498039086010BD70B500200022022345
:1007C00000240221284D08352D6805F00C0020B1C9
:1007D000042806D0082834D107E02A4D2A4E356077
:1007E00033E02A4D284E35602FE01F4D2D1D2D681A
:1007F000C5F380541C4D2D1D2D6805F03F0154B1EB
:10080000224DB5FBF1F5184E361D3668C6F3881635
:1008100005FB06F209E01B4DB5FBF1F5124E361D46
:100820003668C6F3881605FB06F20F4D2D1D2D68A0
:10083000C5F301456D1C6B00B2FBF3F5124E35603C
:1008400003E0104D104E356000BF00BF064D083567
:100850002D68C5F303150E4E705D0B4D2D68C54018
:10086000094E356070BD0000003802400070004045
:1008700008544007003C024088ED00E0FFFFF6FE10
:10088000103000240024F4001400002000127A002C
:100890001800002000B58BB00121084608F04CFB81
:1008A0000121480608F091FB4FF4C0500990022046
:1008B0008DF8280000208DF82A0003208DF82900EB
:1008C00001208DF82B0009A9FE4808F097F80922AD
:1008D0000B21FC4808F01DF909220C21F94808F009
:1008E00018F9F94808F0A6FE06A808F0C7FF00208E
:1008F0008DF81E008DF81F008DF8200001208DF866
:10090000210000208DF822008DF823008DF81A00B8
:100910008DF81B0008208DF81C0003208DF81D00A9
:10092000ADF8180006A9E84808F09DFE00208DF8F3
:1009300012008DF8130001208DF814000020ADF88E
:100940000800ADF80A00ADF80C00ADF80E00ADF8E7
:10095000100001208DF8150002A808F00EFF0122FA
:100960000221D94809F008FA01221146D64809F0B7
:1009700003FA14208DF8040002208DF805000120F0
:100980008DF806008DF8070001A807F046FF132038
:100990008DF8040001208DF805008DF806008DF813
:1009A000070001A807F039FF0BB000BD10B5012109
:1009B000C54809F049FA18B10121C34809F0DFFA26
:1009C00010BD00B52DED048B93B00EAA0021BE48DA
:1009D00009F0B7F840F201210E9888427ED10EA8A6
:1009E000017CC07B41EA002000B200EE100AB8EEA4
:1009F000C00AB64880ED050A0EA8827B407B42EA19
:100A0000002000B200EE100AB8EEC00A10EE101A74
:100A100008460BF0B1FB41EC190B9FEDAD0B53EC0D
:100A2000102B0AF0C7FF41EC180B0AF0DDFE00EEB8
:100A3000100AA64880ED030A008B68B9A348408BD2
:100A400050B90EA8007B9DF8431040EA012000B287
:100A50009E49488308830CE09C48408B9B4908834F
:100A60000EA8007B9DF8431040EA012000B2974990
:100A70004883964890ED000A8DED050A90ED010A35
:100A80008DED060A90ED020A8DED070A90ED030A3E
:100A90008DED080A90ED040A8DED090A90ED050A26
:100AA0008DED0A0A008BADF82C008848408BADF81C
:100AB0002E008648C0690C90844890F820008DF87C
:100AC0003400142209A968460AF0FEF805A80FC8E8
:100AD00000F09CFA7D48D0ED010A00E004E030EE21
:100AE000200A80ED010A33E240F202210E9888428A
:100AF0007ED10EA8017CC07B41EA002000B200EE4E
:100B0000100AB8EEC00A744880ED050A0EA8827B70
:100B1000407B42EA002000B200EE100AB8EEC00AA4
:100B200010EE101A08460BF027FB41EC190B9FED55
:100B3000680B53EC102B0AF03DFF41EC180B0AF048
:100B400053FE00EE100A644880ED030A008B68B97A
:100B50006148408B50B90EA8007B9DF8431040EAD5
:100B6000012000B25C49488308830CE05A48408B5E
:100B7000594908830EA8007B9DF8431040EA0120E4
:100B800000B255494883544890ED000A8DED050A9E
:100B900090ED010A8DED060A90ED020A8DED070A2F
:100BA00090ED030A8DED080A90ED040A8DED090A17
:100BB00090ED050A8DED0A0A008BADF82C00464831
:100BC000408BADF82E004448C0690C90424890F824
:100BD00020008DF83400142209A968460AF074F840
:100BE00005A80FC800F012FA3B48D0ED010A00E05A
:100BF00004E030EE200A80ED010AA9E140F2032171
:100C00000E9888425DD10EA8017CC07B41EA00208D
:100C100000B200EE100AB8EEC00A304880ED050AB6
:100C20000EA8827B407B42EA002000B200EE100A50
:100C3000B8EEC00A10EE101A08460BF09DFA41EC0F
:100C4000190B9FED230B53EC102B0AF0B3FE41EC74
:100C5000180B0AF0C9FD00EE100A204880ED030AC7
:100C6000008B68B91D48408B50B90EA8007B9DF8D9
:100C7000431040EA012000B21849488308830CE081
:100C80001648408B154908830EA8007B9DF8431039
:100C900040EA012000B211494883104890ED000A53
:100CA0008DED050A90ED010A8DED060A90ED020A20
:100CB0008DED070A90ED030A8DED080A90ED040A08
:100CC0000EE033E0000002400064004078000020A5
:100CD00000000000000033409C000020C000002005
:100CE0008DED090A90ED050A8DED0A0A008BADF82D
:100CF0002C00BD48408BADF82E00BB48C0690C905D
:100D0000B94890F820008DF83400142209A96846EB
:100D100009F0DAFF05A80FC800F078F9B248D0ED65
:100D2000010A30EE200A80ED010A11E10E98B0F5BB
:100D3000017F7CD10EA8017CC07B41EA002000B27B
:100D400000EE100AB8EEC00AA84880ED050A0EA809
:100D5000827B407B42EA002000B200EE100AB8EE2F
:100D6000C00A10EE101A08460BF006FA41EC190BF7
:100D70001FED290B53EC102B0AF01CFE41EC180B55
:100D80000AF032FD00EE100A984880ED030A008B4D
:100D900068B99648408B50B90EA8007B9DF8431067
:100DA00040EA012000B29149488308830CE08F4853
:100DB000408B8E4908830EA8007B9DF8431040EAC3
:100DC000012000B289494883884890ED000A8DEDE2
:100DD000050A90ED010A8DED060A90ED020A8DEDEF
:100DE000070A90ED030A8DED080A90ED040A8DEDD7
:100DF000090A90ED050A8DED0A0A008BADF82C006A
:100E00007A48408BADF82E007848C0690C9077483E
:100E100090F820008DF83400142209A9684609F0E2
:100E200053FF05A80FC800F0F1F8704800E006E095
:100E3000D0ED010A30EE200A80ED010A88E040F290
:100E400005210E9888427CD10EA8017CC07B41EA26
:100E5000002000B200EE100AB8EEC00A644880ED2F
:100E6000050A0EA8827B407B42EA002000B200EE19
:100E7000100AB8EEC00A10EE101A08460BF07CF902
:100E800041EC190B1FED6E0B53EC102B0AF092FD89
:100E900041EC180B0AF0A8FC00EE100A544880ED53
:100EA000030A008B68B95248408B50B90EA8007BEA
:100EB0009DF8431040EA012000B24D494883088361
:100EC0000CE04B48408B4A4908830EA8007B9DF8F4
:100ED000431040EA012000B245494883444890ED60
:100EE000000A8DED050A90ED010A8DED060A90EDE0
:100EF000020A8DED070A90ED030A8DED080A90EDC8
:100F0000040A8DED090A90ED050A8DED0A0A008BA1
:100F1000ADF82C003648408BADF82E003448C0693F
:100F20000C90334890F820008DF83400142209A961
:100F3000684609F0C9FE05A80FC800F067F82C48FC
:100F400000E005E0D0ED010A30EE200A80ED010A54
:100F500013B0BDEC048B00BDF0B585B004460D4662
:100F600016461F4600208DF808008DF8090008205D
:100F70008DF80A0080010090200A8DF80B00E1B284
:100F80008DF80C10290A8DF80D10E9B28DF80E10AD
:100F9000310A8DF80F10F1B28DF81010390A8DF862
:100FA0001110F9B28DF812106946124808F0D4FCFD
:100FB00005B0F0BD10B586B0044600208DF80C00D9
:100FC0008DF80D0002208DF80E0040F2FF10019008
:100FD000200A8DF80F008DF8104001A9054808F08F
:100FE000BBFC06B010BD0000C0000020E4000020E3
:100FF0000801002000640040B5EEC00AF1EE10FACE
:1010000003D2F1EE400AB0EE600A70470FB400B5AB
:10101000BDF91E00BDF91C10401A01EE100AB8EE11
:10102000C10AFFF7E9FFDFEDFE0AB4EEE00AF1EED8
:1010300010FA11DDB8EEC10AFFF7DEFFF8EEC11AB3
:10104000C1EE800AB8EEC10ADFEDF61A00EEE10A41
:10105000BDEEC00AB0EE401AB8EEC10ADFEDF20AEA
:1010600020EE200AF3EE031AC0EE210ADFEDED1A9E
:1010700080EEA10A5DF814FB9FEDEC0AEC4880EDD0
:10108000010A9FEDEA0AEB4880ED010A9FEDE70AAD
:10109000E94880ED010A9FEDE50AE84880ED010A84
:1010A0009FEDE20AE64880ED010A0120E04981F85F
:1010B0002000E04981F82000DF4981F82000DF4965
:1010C00081F82000DE4981F820009FEDD80AD84839
:1010D00080ED020A9FEDD50AD64880ED020A9FED09
:1010E000D30AD54880ED020A9FEDD00AD34880ED9F
:1010F000020A9FEDCE0A084680ED020A70479FED76
:10110000D10AD14880ED000A9FEDD00A80ED010A96
:101110009FEDC60A80ED020A9FEDCD0A80ED030A1D
:101120009FEDCC0A80ED040A9FEDC00A80ED050A10
:101130009FEDBE0A80ED060A0020C349C8619FEDFD
:10114000C10AC54880ED000A9FEDC00A80ED010A82
:101150009FEDB60A80ED020A9FEDBD0A80ED030AFD
:101160009FEDBC0A80ED040A9FEDB00A80ED050AF0
:101170009FEDAE0A80ED060A0020B749C8619FEDD9
:10118000B10AB64880ED000A9FEDB00A80ED010A71
:101190009FEDA60A80ED020A9FEDAD0A80ED030ADD
:1011A0009FEDAC0A80ED040A9FEDA00A80ED050AD0
:1011B0009FED9E0A80ED060A0020A849C8619FEDB8
:1011C000A10AA74880ED000A9FEDA00A80ED010A60
:1011D0009FED960A80ED020A9FED9D0A80ED030ABD
:1011E0009FED9C0A80ED040A9FED900A80ED050AB0
:1011F0009FED8E0A80ED060A00209949C8619FED97
:10120000910A984880ED000A9FED900A80ED010A4E
:101210009FED860A80ED020A9FED8D0A80ED030A9C
:101220009FED8C0A80ED040A9FED800A80ED050A8F
:101230009FED7E0A80ED060A00208A49C86170474A
:101240009FED890A894880ED000AB1EE040A80ED1D
:10125000010A9FED760A80ED020A9FED7D0A80ED7E
:10126000030A9FED830A80ED040A9FED700A80ED6A
:10127000050A9FED6E0A80ED060A00207B49C861D1
:101280009FED7C0A084680ED090A9FED7B0A80ED00
:10129000080A9FED750A794880ED000AB1EE040A4C
:1012A00080ED010A9FED610A80ED020A9FED680A58
:1012B00080ED030A9FED6E0A80ED040A9FED5B0A44
:1012C00080ED050A9FED590A80ED060A00206B4962
:1012D000C8619FED680A084680ED090A9FED660A1D
:1012E00080ED080A9FED600A654880ED000AB1EEC6
:1012F000040A80ED010A9FED4D0A80ED020A9FED80
:10130000540A80ED030A9FED5A0A80ED040A9FED0E
:10131000470A80ED050A9FED450A80ED060A002088
:101320005749C8619FED530A084680ED090A9FEDB1
:10133000520A80ED080A9FED4C0A524880ED000ADF
:10134000B1EE040A80ED010A9FED380A80ED020A31
:101350009FED3F0A80ED030A9FED450A80ED040AE8
:101360009FED320A80ED050A9FED300A80ED060AF6
:1013700000204449C8619FED3F0A084680ED090AF4
:101380009FED3D0A80ED080A9FED3F0A3F4880ED42
:10139000000AB1EE040A80ED010A9FED240A80EDF7
:1013A000020A9FED2B0A80ED030A9FED310A80EDC2
:1013B000040A9FED1E0A80ED050A9FED1C0A80EDD0
:1013C000060A00203149C8619FED2A0A084680EDCF
:1013D000090A9FED290A80ED080A70479FED2C0A43
:1013E0002C4880ED000A9FED110A80ED010A9FED67
:1013F0002A0A80ED020A9FED160A80ED030A9FED8E
:10140000270A80ED040A9FED090A80ED050A9FED89
:10141000070A80ED060A00201E49C86140E000006E
:1014200000007A45000000460000B44300000000C0
:10143000780000209C000020C0000020E400002074
:10144000080100206666A63F7C0100208FC2F53CA3
:1014500000007A4600806D45F40100206C020020F7
:10146000E40200205C03002000007A4354010020C5
:1014700000409C4500007A440000C843CC01002095
:1014800044020020BC02002000005C433403002022
:1014900085EBD13E2C01002017B7D1380000FA446B
:1014A000B3EE040A084680ED090A9FEDFB0A80EDC1
:1014B000080A1FED090AF94880ED000A1FED250A08
:1014C00080ED010A1FED0C0A80ED020A1FED200AD3
:1014D00080ED030A1FED0F0A80ED040A1FED2D0AAF
:1014E00080ED050A1FED2F0A80ED060A0020EB496A
:1014F000C861B3EE040A084680ED090A9FEDE60ACA
:1015000080ED080A1FED1E0AE54880ED000A1FED78
:10151000390A80ED010A1FED200A80ED020A1FED55
:10152000340A80ED030A1FED230A80ED040A1FED43
:10153000410A80ED050A1FED430A80ED060A0020EE
:10154000D749C861B3EE040A084680ED090A9FED49
:10155000D20A80ED080A1FED320AD24880ED000A57
:101560001FED4E0A80ED010A1FED350A80ED020ADB
:101570001FED490A80ED030A1FED380A80ED040AC9
:101580001FED560A80ED050A1FED580A80ED060A88
:101590000020C449C861B3EE040A084680ED090A78
:1015A0009FEDBD0A80ED080AB7EE000ABE4880ED47
:1015B000000A1FED620A80ED010A9FEDBC0A80ED72
:1015C000020A1FED5D0A80ED030A1FED4C0A80ED53
:1015D000040A1FED6A0A80ED050A1FED6C0A80ED12
:1015E000060A0020B049C861B3EE040A084680ED3F
:1015F000090A9FEDA90A80ED080A704700B5FFF7B8
:101600007EFDFFF71DFEFFF7E9FE00BD00B5B0EE61
:10161000403AF0EE603A33EE630AB0EE401AC16928
:10162000012914D1B0EE410AFFF7E6FCD0ED090A1A
:10163000B4EEE00AF1EE10FA04DB90ED080A60EE79
:10164000011A08E090ED000A60EE011A03E090ED47
:10165000000A60EE011A90ED010A20EE015A90EDA9
:10166000050A30EE052A90ED040AB4EEC20AF1EE46
:1016700010FA04D290ED040A80ED050A15E090ED11
:10168000040AFFEE000A20EE200AB4EEC20AF1EED0
:1016900010FA08DD90ED040AFFEE000A20EE200AA1
:1016A00080ED050A01E080ED052A90ED060A31EE95
:1016B000404A90ED020A60EE044A80ED061A90ED71
:1016C000050A30EE210A70EE242A90ED030AB4EEEA
:1016D000E20AF1EE10FA02D890ED030A00BD90ED97
:1016E000030AFFEE000A20EE200AB4EEE20AF1EE51
:1016F00010FA06DD90ED030AFFEE000A20EE200A44
:10170000ECE7B0EE620AE9E710B5694890F820000E
:10171000012814D0022802D0052833D11FE06448E4
:1017200090ED011AF0EE410A90ED001AB0EE410A78
:101730006048FFF76BFF5E4880ED020A00BF5C481F
:1017400090ED031AF0EE410A90ED021AB0EE410A54
:101750005948FFF75BFF564880ED040A00BF544824
:1017600090ED051AF0EE410A90ED041AB0EE410A30
:101770005248FFF74BFFBDEEC00A10EE100A4C496D
:10178000C86100E000BF00BF4D4890F8200001286C
:1017900014D0022802D0052833D11FE0484890ED2C
:1017A000011AF0EE410A90ED001AB0EE410A3B48F2
:1017B000FFF72CFF424880ED020A00BF404890ED41
:1017C000031AF0EE410A90ED021AB0EE410A3D48CC
:1017D000FFF71CFF3A4880ED040A00BF384890ED3F
:1017E000051AF0EE410A90ED041AB0EE410A3648AF
:1017F000FFF70CFFBDEEC00A10EE100A3049C861B9
:1018000000E000BF00BF314890F82000012814D04C
:10181000022802D0052833D11FE02C4890ED011A90
:10182000F0EE410A90ED001AB0EE410A1C48FFF7B5
:10183000EDFE264880ED020A00BF244890ED031A11
:10184000F0EE410A90ED021AB0EE410A2048FFF78F
:10185000DDFE1E4880ED040A00BF1C4890ED051A0D
:10186000F0EE410A90ED041AB0EE410A1948FFF774
:10187000CDFEBDEEC00A10EE100A1449C86100E0AA
:1018800000BF00BF144890F82000012836D002287D
:1018900024D0052855D141E000004842A401002091
:1018A0001C020020940200200C0300200AD7233CD5
:1018B000780000202C010020540100207C01002031
:1018C0009C000020CC010020F4010020C00000207A
:1018D000440200206C020020E40000208D4890EDBE
:1018E000011AF0EE410A90ED001AB0EE410A8A4862
:1018F000FFF78CFE874880ED020A00BF854890ED17
:10190000031AF0EE410A90ED021AB0EE410A834844
:10191000FFF77CFE7F4880ED040A00BF7D4890ED14
:10192000051AF0EE410A90ED041AB0EE410A7C4827
:10193000FFF76CFEBDEEC00A10EE100A7549C861D3
:1019400000E000BF00BF774890F82000012814D0C5
:10195000022802D0052833D11FE0724890ED011A09
:10196000F0EE410A90ED001AB0EE410A6E48FFF722
:101970004DFE6C4880ED020A00BF6A4890ED031AE4
:10198000F0EE410A90ED021AB0EE410A6748FFF707
:101990003DFE644880ED040A00BF624890ED051AE0
:1019A000F0EE410A90ED041AB0EE410A6048FFF7EC
:1019B0002DFEBDEEC00A10EE100A5A49C86100E0C3
:1019C00000BF00BF534CE46923B25A4CE46922B211
:1019D000594CE46921B2594CE46920B2FFF7BCFAD2
:1019E0005049C96908B2FFF7E5FA10BD10B52DEDF1
:1019F000068BB0EE40AAB0EE608AF0EE418AB0EEFF
:101A0000619AF0EE429A01204C4981F820004A493F
:101A100081F82000474981F820003E4981F82000E4
:101A2000404981F82000454880ED02AA424880EDF7
:101A3000028A4048C0ED028A364880ED029A084684
:101A4000C0ED029AFFF760FEBDEC068B10BD10B52D
:101A50002DED068BB0EE40AAB0EE608AF0EE418A22
:101A6000B0EE619AF0EE429A0520344981F82000E8
:101A7000314981F820002F4981F82000254981F85B
:101A80002000284981F820002C4880ED00AA2A482F
:101A900080ED008A2748C0ED008A1E4880ED009A3C
:101AA0000846C0ED009AFFF72FFEBDEC068B10BD77
:101AB00010B52DED068BB0EE40AAB0EE608AF0EEC8
:101AC000418AB0EE619AF0EE429A02201B4981F8F9
:101AD0002000194981F82000164981F820000D499D
:101AE00081F820000F4981F82000144880ED00AAF9
:101AF000114880ED008A0F48C0ED008A054880ED4E
:101B0000009A0846C0ED009AFFF7FEFDBDEC068B7B
:101B100010BD0000E400002094020020BC02002060
:101B2000E4020020080100200C0300203403002000
:101B30005C030020C00000209C00002078000020F2
:101B4000B5EEC00AF1EE10FA01D100207047B5EEF3
:101B5000C00AF1EE10FA01DD0120F7E74FF0FF3087
:101B6000F4E702466FF00201FE48D0ED012AFE487C
:101B700090ED003A72EEC32AFC4890ED003A72EE06
:101B8000C32AF0EE620AFA48D0ED012AF64890ED39
:101B9000013A72EEC32AF54890ED013A72EEC32A7B
:101BA000B0EE622AF348D0ED012AEF4890ED023AF8
:101BB00072EEC32AED4890ED023A72EEC32AB0EEFF
:101BC000621AED48D0ED012AE74890ED033A72EE33
:101BD000C32AE64890ED033A72EEC32AF0EE621A89
:101BE000F4EEC00AF1EE10FA07D2F1EE402AF4EE5C
:101BF000E20AF1EE10FA00DD491CB4EEC02AF1EE63
:101C000010FA07D2F1EE402AB4EEE22AF1EE10FA11
:101C100000DD491CB4EEC01AF1EE10FA07D2F1EE65
:101C2000402AB4EEE21AF1EE10FA00DD491CF4EE9F
:101C3000C01AF1EE10FA07D2F1EE402AF4EEE21AE1
:101C4000F1EE10FA00DD491C914201DD01207047E0
:101C50000020FCE700B52DED040B99B09DED1B0AAB
:101C6000DDED190A30EE600ADFEDC40A20EE200A2D
:101C70008DED120A9DED1C0ADDED1A0A30EE600AA8
:101C8000DFEDBE0A20EE200A8DED110A9FEDBC0AA1
:101C90008DED100AB34890ED010AB34880ED000ABB
:101CA000B34890ED010AB04880ED010AB14890EDCB
:101CB000010AAD4880ED020AAF4890ED010AAA483A
:101CC00080ED030A9DED120A9FEDAE1AC0EE010AE7
:101CD0009FEDAD0A20EE800AA44880ED000A9DED3C
:101CE000110AB1EE400A9FEDA71AC0EE010A9FED5E
:101CF000A60A20EE800A80ED010A90ED000AB1EEFE
:101D0000400A80ED020A90ED010AB1EE400A80ED32
:101D1000030A00209D49086023E094489B49096814
:101D200000EB810090ED000AB5EEC00AF1EE10FA6A
:101D300009D29FED970A13A89449096800EB810026
:101D400080ED000A08E09FED930A13A88F49096807
:101D500000EB810080ED000A8C480068401C8B4934
:101D600008608A4800680428D7DB00BF9DED100A90
:101D7000DFED880AB4EEE00AF1EE10FA7DD2119898
:101D80000AF0FAF9CDE900019DED000B09F090F899
:101D90008DED040B12980AF0EFF9CDE900019DEDED
:101DA000000B09F085F88DED020B9DED040B53EC53
:101DB000102B9DED020B51EC100B09F047FDCDE906
:101DC000080111980AF0D8F9CDE900019DED000B4A
:101DD00009F06EF88DED040B9DED160A8DED000AED
:101DE0009DED000AFFF7ACFE00EE100AF8EEC00A07
:101DF0009DED100A20EE800A8DED010A01980AF08F
:101E0000BBF9CDE902019DED040B53EC102B9DEDC8
:101E1000020B51EC100B09F0BBFFCDE906019DED63
:101E2000080B53EC102B9DED060B51EC100B09F039
:101E3000C1FDCDE90A019DED0A0B51EC100B09F033
:101E4000D3FC0F9011980AF097F9CDE900019DEDB0
:101E5000000B09F02DF88DED040B12980AF08CF9A7
:101E6000CDE900019DED000B09F022F88DED020B8C
:101E70009DED040B53EC102B00E03FE19DED020BB8
:101E800051EC100B09F0E2FCCDE9080112980AF0C0
:101E900073F9CDE900019DED000B09F009F88DED16
:101EA000040B9DED150A8DED000A9DED000AFFF76C
:101EB00047FE00EE100AF8EEC00A9DED100A20EE73
:101EC000800A8DED010A01980AF056F9CDE9020168
:101ED0009DED040B53EC102B9DED020B51EC100B00
:101EE00009F056FFCDE906019DED080B53EC102BD0
:101EF0009DED060B51EC100B09F05CFDCDE90A01DC
:101F00009DED0A0B51EC100B09F06EFC0E90119830
:101F10000AF032F9CDE900019DED000B08F0C8FF91
:101F20008DED040B12980AF027F9CDE900019DED23
:101F3000000B08F0BDFF8DED020B9DED040B53EC83
:101F4000102B9DED020B51EC100B09F07FFCCDE93D
:101F5000080111980AF010F9CDE900019DED000B80
:101F60001AE0000078000020A40300209003002065
:101F70009C000020C0000020E40000206666863F30
:101F800000000000959E6B430000B4432800002031
:101F9000000048C30000484308F08AFF8DED040BA1
:101FA0009DED140A8DED000A9DED000AFFF7C8FDB6
:101FB00000EE100AF8EEC00A9DED100A20EE800A2D
:101FC0008DED010A01980AF0D7F8CDE902019DEDE7
:101FD000040B53EC102B9DED020B51EC100B09F090
:101FE000D7FECDE906019DED080B53EC102B9DEDBE
:101FF000060B51EC100B09F0DDFCCDE90A019DED5B
:102000000A0B51EC100B09F0EFFB0D9011980AF040
:10201000B3F8CDE900019DED000B08F049FF8DED0F
:10202000040B12980AF0A8F8CDE900019DED000B11
:1020300008F03EFF8DED020B9DED040B53EC102BD1
:102040009DED020B51EC100B09F000FCCDE90801ED
:1020500012980AF091F8CDE900019DED000B08F00F
:1020600027FF8DED040B9DED130A8DED000A9DED0C
:10207000000AFFF765FD00EE100AF8EEC00A9DEDBC
:10208000100A20EE800A8DED010A01980AF074F81A
:10209000CDE902019DED040B53EC102B9DED020BDD
:1020A00051EC100B09F074FECDE906019DED080B13
:1020B00053EC102B9DED060B51EC100B09F07AFC44
:1020C000CDE90A019DED0A0B51EC100B09F08CFBD8
:1020D0001FED552A0C90DDED0F1A9DED0E1ADDED6A
:1020E0000D0A9DED0C0AFFF781FC9DED100ADFED56
:1020F000FE0A30EE200A8DED100A53E111980AF025
:102100003BF8CDE900019DED000B08F0D1FE8DED0F
:10211000040B12980AF030F8CDE900019DED000B98
:1021200008F0C6FE8DED020B9DED040B53EC102B59
:102130009DED020B51EC100B09F088FBCDE9080175
:1021400011980AF019F8CDE900019DED000B08F097
:10215000AFFE8DED040B169801900AF00DF8CDE955
:1021600002019DED040B53EC102B9DED020B51EC85
:10217000100B09F00DFECDE906019DED080B53ECA7
:10218000102B9DED060B51EC100B09F013FCCDE963
:102190000A019DED0A0B51EC100B09F025FB0F9085
:1021A000119809F0E9FFCDE900019DED000B08F061
:1021B0007FFE8DED040B129809F0DEFFCDE90001E2
:1021C0009DED000B08F074FE8DED020B9DED040BF0
:1021D00053EC102B9DED020B51EC100B09F036FB6C
:1021E000CDE90801129809F0C7FFCDE900019DED86
:1021F000000B08F05DFE8DED040B1598019009F0C1
:10220000BBFFCDE902019DED040B53EC102B9DEDBE
:10221000020B51EC100B09F0BBFDCDE906019DED61
:10222000080B53EC102B9DED060B51EC100B09F035
:10223000C1FBCDE90A019DED0A0B51EC100B09F031
:10224000D3FA0E90119809F097FFCDE900019DEDAA
:10225000000B08F02DFE8DED040B129809F08CFF99
:10226000CDE900019DED000B08F022FE8DED020B83
:102270009DED040B53EC102B9DED020B51EC100B5C
:1022800009F0E4FACDE90801119809F075FFCDE9EC
:1022900000019DED000B08F00BFE8DED040B149872
:1022A000019009F069FFCDE902019DED040B53ECAB
:1022B000102B9DED020B51EC100B09F069FDCDE9DF
:1022C00006019DED080B53EC102B9DED060B51EC18
:1022D000100B09F06FFBCDE90A019DED0A0B51ECE3
:1022E000100B09F081FA0D90119809F045FFCDE926
:1022F00000019DED000B08F0DBFD8DED040B129845
:1023000009F03AFFCDE900019DED000B08F0D0FD8A
:102310008DED020B9DED040B53EC102B9DED020B8C
:1023200051EC100B09F092FACDE90801129809F06E
:1023300023FFCDE900019DED000B08F0B9FD8DED07
:10234000040B1398019009F017FFCDE902019DEDF0
:10235000040B53EC102B9DED020B51EC100B09F00C
:1023600017FDCDE906019DED080B53EC102B9DEDFB
:10237000060B51EC100B09F01DFBCDE90A019DED98
:102380000A0B51EC100B09F02FFA9FED582A0C9014
:10239000DDED0F1A9DED0E1ADDED0D0A9DED0C0A17
:1023A000FFF724FB022005F09BFD4FF0FF309FED6F
:1023B000500AFFF7D6FB00283FF4D8AC9DED100A79
:1023C000DFED4C0AB4EEE00AF1EE10FA03D29FED15
:1023D000490A8DED100A00BF119809F0CDFECDE934
:1023E00000019DED000B08F063FD8DED040B1298CC
:1023F00009F0C2FECDE900019DED000B08F058FD8B
:102400008DED020B9DED040B53EC102B9DED020B9B
:1024100051EC100B09F01AFACDE90801119809F0F6
:10242000ABFECDE900019DED000B08F041FD8DED07
:10243000040B9DED160A8DED000A9DED000AFFF7D5
:102440007FFB00EE100AF8EEC00A9DED100A20EEA8
:10245000800A8DED010A019809F08EFECDE9020196
:102460009DED040B53EC102B9DED020B51EC100B6A
:1024700009F08EFCCDE906019DED080B53EC102B05
:102480009DED060B51EC100B09F094FACDE90A0111
:102490009DED0A0B51EC100B09F0A6F90F90119865
:1024A00009F06AFECDE900019DED000B08F000FD8A
:1024B0008DED040B129809F05FFECDE900019DED52
:1024C000000B08F0F5FC8DED020B9DED040B53ECB9
:1024D000102B9DED020B51EC100B09F0B7F9CDE973
:1024E0000801129808E000009A99193E00000000C7
:1024F0000000C8430000484209F03EFECDE900015B
:102500009DED000B08F0D4FC8DED040B9DED150A3C
:102510008DED000A9DED000AFFF712FB00EE100A98
:10252000F8EEC00A9DED100A20EE800A8DED010A3A
:10253000019809F021FECDE902019DED040B53EC59
:10254000102B9DED020B51EC100B09F021FCCDE995
:1025500006019DED080B53EC102B9DED060B51EC85
:10256000100B09F027FACDE90A019DED0A0B51EC99
:10257000100B09F039F90E90119809F0FDFDCDE925
:1025800000019DED000B08F093FC8DED040B1298FB
:1025900009F0F2FDCDE900019DED000B08F088FC8B
:1025A0008DED020B9DED040B53EC102B9DED020BFA
:1025B00051EC100B09F04AF9CDE90801119809F026
:1025C000DBFDCDE900019DED000B08F071FC8DED08
:1025D000040B9DED140A8DED000A9DED000AFFF736
:1025E000AFFA00EE100AF8EEC00A9DED100A20EED8
:1025F000800A8DED010A019809F0BEFDCDE90201C6
:102600009DED040B53EC102B9DED020B51EC100BC8
:1026100009F0BEFBCDE906019DED080B53EC102B34
:102620009DED060B51EC100B09F0C4F9CDE90A0140
:102630009DED0A0B51EC100B09F0D6F80D90119896
:1026400009F09AFDCDE900019DED000B08F030FC8A
:102650008DED040B129809F08FFDCDE900019DED81
:10266000000B08F025FC8DED020B9DED040B53ECE7
:10267000102B9DED020B51EC100B09F0E7F8CDE9A2
:102680000801129809F078FDCDE900019DED000BDD
:1026900008F00EFC8DED040B9DED130A8DED000A84
:1026A0009DED000AFFF74CFA00EE100AF8EEC00AA2
:1026B0009DED100A20EE800A8DED010A019809F0C7
:1026C0005BFDCDE902019DED040B53EC102B9DED5C
:1026D000020B51EC100B09F05BFBCDE906019DEDFF
:1026E000080B53EC102B9DED060B51EC100B09F071
:1026F00061F9CDE90A019DED0A0B51EC100B09F0CF
:1027000073F81FED862A0C90DDED0F1A9DED0E1A61
:10271000DDED0D0A9DED0C0AFFF768F99DED100A3D
:102720005FED8C0AB4EEE00AF1EE10FA07DD9DEDE4
:10273000100ADFEDFE0A30EE600A8DED100A02206D
:1027400005F0CEFB4FF0FF301FED960AFFF709FAB8
:1027500000283FF441AE9DED1B0AF54880ED000ACC
:102760009DED1C0A80ED010A1DB000BD00B52DEDE8
:10277000040B99B09DED1B0ADDED190A30EE600ADD
:10278000DFEDEC0A20EE200A8DED120A9DED1C0A09
:10279000DDED1A0A30EE600ADFEDE60A20EE200ACF
:1027A0008DED110A1FEDAF0A8DED100AE24890ED94
:1027B000010AE24880ED000AE14890ED010ADF4895
:1027C00080ED010ADF4890ED010ADC4880ED020A45
:1027D000DD4890ED010AD94880ED030A9DED120A0B
:1027E0009FEDDA1AC0EE010A9FEDD90A20EE800AA9
:1027F000D84880ED000A9DED110AB1EE400A9FED28
:10280000D31AC0EE010A9FEDD20A20EE800A80EDB5
:10281000010A90ED000AB1EE400A80ED020A90ED47
:10282000010AB1EE400A80ED030A0020CA4908609F
:1028300023E0C848C849096800EB810090ED000A10
:10284000B5EEC00AF1EE10FA09D29FEDC40A13A842
:10285000C149096800EB810080ED000A08E01FED26
:10286000DC0A13A8BC49096800EB810080ED000A6E
:10287000B9480068401CB8490860B7480068042897
:10288000D7DB00BF9DED100A5FEDE70AB4EEE00A6A
:10289000F1EE10FA7DD2119809F06EFCCDE900013D
:1028A0009DED000B08F004FB8DED040B129809F070
:1028B00063FCCDE900019DED000B08F0F9FA8DED08
:1028C000020B9DED040B53EC102B9DED020B51EC14
:1028D000100B08F0BBFFCDE90801119809F04CFC82
:1028E000CDE900019DED000B08F0E2FA8DED040B3F
:1028F0009DED160A8DED000A9DED000AFFF720F907
:1029000000EE100AF8EEC00A9DED100A20EE800AD3
:102910008DED010A019809F02FFCCDE902019DED32
:10292000040B53EC102B9DED020B51EC100B09F036
:102930002FFACDE906019DED080B53EC102B9DED10
:10294000060B51EC100B09F035F8CDE90A019DEDAD
:102950000A0B51EC100B08F047FF0F90119809F08B
:102960000BFCCDE900019DED000B08F0A1FA8DED07
:10297000040B129809F000FCCDE900019DED000B5D
:1029800008F096FA8DED020B9DED040B53EC102B25
:1029900000E03FE19DED020B51EC100B08F056FFFB
:1029A000CDE90801129809F0E7FBCDE900019DEDA2
:1029B000000B08F07DFA8DED040B9DED150A8DEDF1
:1029C000000A9DED000AFFF7BBF800EE100AF8EED2
:1029D000C00A9DED100A20EE800A8DED010A0198D3
:1029E00009F0CAFBCDE902019DED040B53EC102B5D
:1029F0009DED020B51EC100B09F0CAF9CDE906016F
:102A00009DED080B53EC102B9DED060B51EC100BBC
:102A100008F0D0FFCDE90A019DED0A0B51EC100B37
:102A200008F0E2FE0E90119809F0A6FBCDE9000136
:102A30009DED000B08F03CFA8DED040B129809F0A7
:102A40009BFBCDE900019DED000B08F031FA8DED07
:102A5000020B9DED040B53EC102B9DED020B51EC82
:102A6000100B08F0F3FECDE90801119809F084FB82
:102A7000CDE900019DED000B08F01AFA8DED040B75
:102A80009DED140A8DED000A9DED000AFFF758F840
:102A900000EE100AF8EEC00A9DED100A20EE800A42
:102AA0008DED010A019809F067FBCDE902019DED6A
:102AB000040B53EC102B9DED020B51EC100B09F0A5
:102AC00067F9CDE906019DED080B53EC102B9DED48
:102AD000060B51EC100B08F06DFFCDE90A019DEDDE
:102AE0000A0B51EC100B08F07FFE0D90119809F0C5
:102AF00043FBCDE900019DED000B08F0D9F98DED08
:102B0000040B129809F038FBCDE900019DED000B94
:102B100008F0CEF98DED020B9DED040B53EC102B5C
:102B20009DED020B51EC100B1AE00000CDCCCC3E19
:102B3000840300206666863F78000020A4030020FE
:102B40009C000020C0000020E4000020959E6B4304
:102B50000000B44390030020280000200000C8C3F8
:102B600008F074FECDE90801129809F005FBCDE9E3
:102B700000019DED000B08F09BF98DED040B9DED20
:102B8000130A8DED000A9DED000AFEF7D9FF00EE55
:102B9000100AF8EEC00A9DED100A20EE800A8DEDB5
:102BA000010A019809F0E8FACDE902019DED040B54
:102BB00053EC102B9DED020B51EC100B09F0E8F8D3
:102BC000CDE906019DED080B53EC102B9DED060B96
:102BD00051EC100B08F0EEFECDE90A019DED0A0B59
:102BE00051EC100B08F000FE9FEDFE2A0C90DDED7D
:102BF0000F1A9DED0E1ADDED0D0A9DED0C0AFEF784
:102C0000F5FE9DED100A5FED370A30EE200A8DEDDE
:102C1000100A53E1119809F0AFFACDE900019DEDDA
:102C2000000B08F045F98DED040B129809F0A4FA99
:102C3000CDE900019DED000B08F03AF98DED020B96
:102C40009DED040B53EC102B9DED020B51EC100B82
:102C500008F0FCFDCDE90801119809F08DFACDE9E5
:102C600000019DED000B08F023F98DED040B169883
:102C7000019009F081FACDE902019DED040B53ECBE
:102C8000102B9DED020B51EC100B09F081F8CDE9F2
:102C900006019DED080B53EC102B9DED060B51EC3E
:102CA000100B08F087FECDE90A019DED0A0B51ECEF
:102CB000100B08F099FD0F90119809F05DFACDE91D
:102CC00000019DED000B08F0F3F88DED040B129858
:102CD00009F052FACDE900019DED000B08F0E8F88B
:102CE0008DED020B9DED040B53EC102B9DED020BB3
:102CF00051EC100B08F0AAFDCDE90801129809F07B
:102D00003BFACDE900019DED000B08F0D1F88DED07
:102D1000040B1598019009F02FFACDE902019DED01
:102D2000040B53EC102B9DED020B51EC100B09F032
:102D30002FF8CDE906019DED080B53EC102B9DED0E
:102D4000060B51EC100B08F035FECDE90A019DEDA4
:102D50000A0B51EC100B08F047FD0E90119809F08A
:102D60000BFACDE900019DED000B08F0A1F88DED07
:102D7000040B129809F000FACDE900019DED000B5B
:102D800008F096F88DED020B9DED040B53EC102B23
:102D90009DED020B51EC100B08F058FDCDE9080138
:102DA000119809F0E9F9CDE900019DED000B08F05B
:102DB0007FF88DED040B1498019009F0DDF9CDE951
:102DC00002019DED040B53EC102B9DED020B51EC19
:102DD000100B08F0DDFFCDE906019DED080B53EC6B
:102DE000102B9DED060B51EC100B08F0E3FDCDE927
:102DF0000A019DED0A0B51EC100B08F0F5FC0D904B
:102E0000119809F0B9F9CDE900019DED000B08F02A
:102E10004FF88DED040B129809F0AEF9CDE90001E1
:102E20009DED000B08F044F88DED020B9DED040BB9
:102E300053EC102B9DED020B51EC100B08F006FD2E
:102E4000CDE90801129809F097F9CDE900019DED4F
:102E5000000B08F02DF88DED040B1398019009F08C
:102E60008BF9CDE902019DED040B53EC102B9DED88
:102E7000020B51EC100B08F08BFFCDE906019DED24
:102E8000080B53EC102B9DED060B51EC100B08F0CA
:102E900091FDCDE90A019DED0A0B51EC100B08F0F4
:102EA000A3FC9FED502A0C90DDED0F1A9DED0E1A3C
:102EB000DDED0D0A9DED0C0AFEF798FD022005F0F0
:102EC0000FF84FF0FF309FED480AFEF74AFE00284A
:102ED0003FF4D8AC9DED100ADFED440AB4EEE00AF1
:102EE000F1EE10FA03D29FED410A8DED100A00BFFA
:102EF000119809F041F9CDE900019DED000B07F0B3
:102F0000D7FF8DED040B129809F036F9CDE90001D9
:102F10009DED000B07F0CCFF8DED020B9DED040B3A
:102F200053EC102B9DED020B51EC100B08F08EFCB6
:102F3000CDE90801119809F01FF9CDE900019DEDD7
:102F4000000B07F0B5FF8DED040B9DED160A8DED1E
:102F5000000A9DED000AFEF7F3FD00EE100AF8EE00
:102F6000C00A9DED100A20EE800A8DED010A01983D
:102F700009F002F9CDE902019DED040B53EC102B91
:102F80009DED020B51EC100B08F002FFCDE906019C
:102F90009DED080B53EC102B9DED060B51EC100B27
:102FA00008F008FDCDE90A019DED0A0B51EC100B6C
:102FB00008F01AFC0F90119809F0DEF8CDE9000135
:102FC0009DED000B07F074FF8DED040B129809F0D6
:102FD000D3F8CDE900019DED000B07F069FF8DED01
:102FE000020B05E000000000008009440000C84218
:102FF0009DED040B53EC102B9DED020B51EC100BCF
:1030000008F024FCCDE90801129809F0B5F8CDE9E3
:1030100000019DED000B07F04BFF8DED040B9DEDC6
:10302000150A8DED000A9DED000AFEF789FD00EE00
:10303000100AF8EEC00A9DED100A20EE800A8DED10
:10304000010A019809F098F8CDE902019DED040B01
:1030500053EC102B9DED020B51EC100B08F098FE79
:10306000CDE906019DED080B53EC102B9DED060BF1
:1030700051EC100B08F09EFCCDE90A019DED0A0B06
:1030800051EC100B08F0B0FB0E90119809F074F899
:10309000CDE900019DED000B07F00AFF8DED040B5B
:1030A000129809F069F8CDE900019DED000B07F0D9
:1030B000FFFE8DED020B9DED040B53EC102B9DEDEF
:1030C000020B51EC100B08F0C1FBCDE9080111987F
:1030D00009F052F8CDE900019DED000B07F0E8FE84
:1030E0008DED040B9DED140A8DED000A9DED000A97
:1030F000FEF726FD00EE100AF8EEC00A9DED100A5C
:1031000020EE800A8DED010A019809F035F8CDE92D
:1031100002019DED040B53EC102B9DED020B51ECC5
:10312000100B08F035FECDE906019DED080B53ECC0
:10313000102B9DED060B51EC100B08F03BFCCDE97C
:103140000A019DED0A0B51EC100B08F04DFB0D90A0
:10315000119809F011F8CDE900019DED000B07F081
:10316000A7FE8DED040B129809F006F8CDE90001D9
:103170009DED000B07F09CFE8DED020B9DED040B09
:1031800053EC102B9DED020B51EC100B08F05EFB85
:10319000CDE90801129808F0EFFFCDE900019DED9F
:1031A000000B07F085FE8DED040B9DED130A8DEDF0
:1031B000000A9DED000AFEF7C3FC00EE100AF8EECF
:1031C000C00A9DED100A20EE800A8DED010A0198DB
:1031D00008F0D2FFCDE902019DED040B53EC102B5A
:1031E0009DED020B51EC100B08F0D2FDCDE906016C
:1031F0009DED080B53EC102B9DED060B51EC100BC5
:1032000008F0D8FBCDE90A019DED0A0B51EC100B3B
:1032100008F0EAFA1FED8D2A0C90DDED0F1A9DEDF6
:103220000E1ADDED0D0A9DED0C0AFEF7DFFB9DED9C
:10323000100A5FED920AB4EEE00AF1EE10FA07DD33
:103240009DED100ADFEDFE0A30EE600A8DED100AEA
:10325000022004F045FE4FF0FF301FED9C0AFEF700
:1032600080FC00283FF444AE9DED1B0AF54880ED3C
:10327000000A9DED1C0A80ED010A1DB000BD00B5DD
:103280002DED040B99B09DED1B0ADDED190A30EE12
:10329000600ADFEDED0A20EE200A8DED120A9DEDA9
:1032A0001C0ADDED1A0A30EE600ADFEDE70A20EEB7
:1032B000200A8DED110A1FEDB50A8DED100AE348C5
:1032C00090ED010AE24880ED000AE24890ED010A23
:1032D000DF4880ED010AE04890ED010ADC4880ED0E
:1032E000020ADE4890ED010AD94880ED030A9DEDFF
:1032F000120A9FEDDB1AC0EE010A9FEDDA0A20EEFA
:10330000800AD94880ED000A9DED110AB1EE400A0D
:103310009FEDD31AC0EE010A9FEDD20A20EE800A7B
:1033200080ED010A90ED000AB1EE400A80ED020A3C
:1033300090ED010AB1EE400A80ED030A0020CB496E
:10334000086023E0C848C949096800EB810090ED96
:10335000000AB5EEC00AF1EE10FA09D29FEDC40AD8
:1033600013A8C249096800EB810080ED000A08E05B
:103370009FEDC00A13A8BD49096800EB810080EDEC
:10338000000ABA480068401CB8490860B74800689D
:103390000428D7DB00BF9DED100ADFEDB70AB4EEBD
:1033A000E00AF1EE10FA7DD2119808F0E5FECDE9C1
:1033B00000019DED000B07F07BFD8DED040B1298D5
:1033C00008F0DAFECDE900019DED000B07F070FD7D
:1033D0008DED020B9DED040B53EC102B9DED020BBC
:1033E00051EC100B08F032FACDE90801119808F001
:1033F000C3FECDE900019DED000B07F059FD8DEDF9
:10340000040B9DED160A8DED000A9DED000AFEF7F6
:1034100097FB00EE100AF8EEC00A9DED100A20EEB0
:10342000800A8DED010A019808F0A6FECDE902019F
:103430009DED040B53EC102B9DED020B51EC100B8A
:1034400008F0A6FCCDE906019DED080B53EC102B0E
:103450009DED060B51EC100B08F0ACFACDE90A011A
:103460009DED0A0B51EC100B08F0BEF90F9011986E
:1034700008F082FECDE900019DED000B07F018FD7C
:103480008DED040B129808F077FECDE900019DED5B
:10349000000B07F00DFD8DED020B9DED040B53ECC1
:1034A000102B00E042E19DED020B51EC100B08F0F7
:1034B000CDF9CDE90801129808F05EFECDE90001D2
:1034C0009DED000B07F0F4FC8DED040B9DED150A4E
:1034D0008DED000A9DED000AFEF732FB00EE100AAA
:1034E000F8EEC00A9DED100A20EE800A8DED010A6B
:1034F000019808F041FECDE902019DED040B53EC6B
:10350000102B9DED020B51EC100B08F041FCCDE9A6
:1035100006019DED080B53EC102B9DED060B51ECB5
:10352000100B08F047FACDE90A019DED0A0B51ECAA
:10353000100B08F059F90E90119808F01DFECDE916
:1035400000019DED000B07F0B3FC8DED040B12980C
:1035500008F012FECDE900019DED000B07F0A8FC7C
:103560008DED020B9DED040B53EC102B9DED020B2A
:1035700051EC100B08F06AF9CDE90801119808F038
:10358000FBFDCDE900019DED000B07F091FC8DEDF9
:10359000040B9DED140A8DED000A9DED000AFEF767
:1035A000CFFA00EE100AF8EEC00A9DED100A20EEE8
:1035B000800A8DED010A019808F0DEFDCDE90201D7
:1035C0009DED040B53EC102B9DED020B51EC100BF9
:1035D00008F0DEFBCDE906019DED080B53EC102B46
:1035E0009DED060B51EC100B08F0E4F9CDE90A0152
:1035F0009DED0A0B51EC100B08F0F6F80D901198A8
:1036000008F0BAFDCDE900019DED000B07F050FC7C
:103610008DED040B129808F0AFFDCDE900019DED92
:10362000000B07F045FC8DED020B9DED040B53ECF8
:10363000102B9DED020B51EC100B08F007F91DE06B
:103640009A99193F840300206666863F780000201F
:10365000A40300209C000020C0000020E400002003
:10366000959E6B430000B443900300202800002087
:10367000000016C4000016440000C843CDE908014C
:10368000129808F079FDCDE900019DED000B07F0DF
:103690000FFC8DED040B9DED130A8DED000A9DEDE1
:1036A000000AFEF74DFA00EE100AF8EEC00A9DED92
:1036B000100A20EE800A8DED010A019808F05CFDE9
:1036C000CDE902019DED040B53EC102B9DED020B97
:1036D00051EC100B08F05CFBCDE906019DED080BE9
:1036E00053EC102B9DED060B51EC100B08F062F91A
:1036F000CDE90A019DED0A0B51EC100B08F074F8AE
:103700009FEDFE2A0C90DDED0F1A9DED0E1ADDEDFA
:103710000D0A9DED0C0AFEF769F99DED100ADFED2B
:10372000F80A30EE200A8DED100A53E1119808F0E6
:1037300023FDCDE900019DED000B07F0B9FB8DEDF8
:10374000040B129808F018FDCDE900019DED000B67
:1037500007F0AEFB8DED020B9DED040B53EC102B2F
:103760009DED020B51EC100B08F070F8CDE908014B
:10377000119808F001FDCDE900019DED000B07F067
:1037800097FB8DED040B1698019008F0F5FCCDE940
:1037900002019DED040B53EC102B9DED020B51EC3F
:1037A000100B08F0F5FACDE906019DED080B53EC7E
:1037B000102B9DED060B51EC100B08F0FBF8CDE93A
:1037C0000A019DED0A0B51EC100B08F00DF80F905B
:1037D000119808F0D1FCCDE900019DED000B07F038
:1037E00067FB8DED040B129808F0C6FCCDE90001D3
:1037F0009DED000B07F05CFB8DED020B9DED040BC6
:1038000053EC102B9DED020B51EC100B08F01EF841
:10381000CDE90801129808F0AFFCCDE900019DED5B
:10382000000B07F045FB8DED040B1598019008F097
:10383000A3FCCDE902019DED040B53EC102B9DED93
:10384000020B51EC100B08F0A3FACDE906019DED37
:10385000080B53EC102B9DED060B51EC100B08F0F0
:10386000A9F8CDE90A019DED0A0B51EC100B07F008
:10387000BBFF0E90119808F07FFCCDE900019DED93
:10388000000B07F015FB8DED040B129808F074FC8B
:10389000CDE900019DED000B07F00AFB8DED020B59
:1038A0009DED040B53EC102B9DED020B51EC100B16
:1038B00007F0CCFFCDE90801119808F05DFCCDE9D7
:1038C00000019DED000B07F0F3FA8DED040B149849
:1038D000019008F051FCCDE902019DED040B53EC81
:1038E000102B9DED020B51EC100B08F051FACDE9B5
:1038F00006019DED080B53EC102B9DED060B51ECD2
:10390000100B08F057F8CDE90A019DED0A0B51ECB8
:10391000100B07F069FF0D90119808F02DFCCDE910
:1039200000019DED000B07F0C3FA8DED040B12981A
:1039300008F022FCCDE900019DED000B07F0B8FA7C
:103940008DED020B9DED040B53EC102B9DED020B46
:1039500051EC100B07F07AFFCDE90801129808F03E
:103960000BFCCDE900019DED000B07F0A1FA8DEDF8
:10397000040B1398019008F0FFFBCDE902019DEDC7
:10398000040B53EC102B9DED020B51EC100B08F0C7
:10399000FFF9CDE906019DED080B53EC102B9DEDD1
:1039A000060B51EC100B08F005F8CDE90A019DED6E
:1039B0000A0B51EC100B07F017FF9FED502A0C90EB
:1039C000DDED0F1A9DED0E1ADDED0D0A9DED0C0AD1
:1039D000FEF70CF8022004F083FA4FF0FF309FED61
:1039E000490AFEF7BEF800283FF4D5AC9DED100A59
:1039F000DFED450AB4EEE00AF1EE10FA03D29FEDD6
:103A0000420A8DED100A00BF119808F0B5FBCDE910
:103A100000019DED000B07F04BFA8DED040B1298A1
:103A200008F0AAFBCDE900019DED000B07F040FA7C
:103A30008DED020B9DED040B53EC102B9DED020B55
:103A400051EC100B07F002FFCDE90801119808F0C6
:103A500093FBCDE900019DED000B07F029FA8DEDF8
:103A6000040B9DED160A8DED000A9DED000AFEF790
:103A700067F800EE100AF8EEC00A9DED100A20EE7D
:103A8000800A8DED010A019808F076FBCDE902016C
:103A90009DED040B53EC102B9DED020B51EC100B24
:103AA00008F076F9CDE906019DED080B53EC102BDB
:103AB0009DED060B51EC100B07F07CFFCDE90A01E0
:103AC0009DED0A0B51EC100B07F08EFE0F90119834
:103AD00008F052FBCDE900019DED000B07F0E8F97D
:103AE0008DED040B129808F047FBCDE900019DED28
:103AF000000B07F0DDF98DED020B07E00000000080
:103B0000CDCCCC3E000048440000C8429DED040BE3
:103B100053EC102B9DED020B51EC100B07F096FEB1
:103B2000CDE90801129808F027FBCDE900019DEDD1
:103B3000000B07F0BDF98DED040B9DED150A8DED21
:103B4000000A9DED000AFDF7FBFF00EE100AF8EEFB
:103B5000C00A9DED100A20EE800A8DED010A019841
:103B600008F00AFBCDE902019DED040B53EC102B8C
:103B70009DED020B51EC100B08F00AF9CDE906019E
:103B80009DED080B53EC102B9DED060B51EC100B2B
:103B900007F010FFCDE90A019DED0A0B51EC100B67
:103BA00007F022FE0E90119808F0E6FACDE9000128
:103BB0009DED000B07F07CF98DED040B129808F0D9
:103BC000DBFACDE900019DED000B07F071F98DEDF9
:103BD000020B9DED040B53EC102B9DED020B51ECF1
:103BE000100B07F033FECDE90801119808F0C4FA74
:103BF000CDE900019DED000B07F05AF98DED040BA6
:103C00009DED140A8DED000A9DED000AFDF798FF69
:103C100000EE100AF8EEC00A9DED100A20EE800AB0
:103C20008DED010A019808F0A7FACDE902019DED9A
:103C3000040B53EC102B9DED020B51EC100B08F014
:103C4000A7F8CDE906019DED080B53EC102B9DED77
:103C5000060B51EC100B07F0ADFECDE90A019DED0E
:103C60000A0B51EC100B07F0BFFD0D90119808F0F6
:103C700083FACDE900019DED000B07F019F98DEDF8
:103C8000040B129808F078FACDE900019DED000BC5
:103C900007F00EF98DED020B9DED040B53EC102B8C
:103CA0009DED020B51EC100B07F0D0FDCDE90801A2
:103CB000129808F061FACDE900019DED000B07F0C4
:103CC000F7F88DED040B9DED130A8DED000A9DEDC7
:103CD000000AFDF735FF00EE100AF8EEC00A9DED70
:103CE000100A20EE800A8DED010A019808F044FACE
:103CF000CDE902019DED040B53EC102B9DED020B61
:103D000051EC100B08F044F8CDE906019DED080BCD
:103D100053EC102B9DED060B51EC100B07F04AFEF7
:103D2000CDE90A019DED0A0B51EC100B07F05CFD8B
:103D30001FED8E2A0C90DDED0F1A9DED0E1ADDEDB4
:103D40000D0A9DED0C0AFDF751FE9DED100A5FED89
:103D5000920AB4EEE00AF1EE10FA07DD9DED100ACA
:103D6000DFEDFE0A30EE600A8DED100A022004F04D
:103D7000B7F84FF0FF301FED9C0AFDF7F2FE002868
:103D80003FF442AE9DED1B0AF54880ED000A9DED23
:103D90001C0A80ED010A1DB000BD30B52DED108B61
:103DA00093B0B0EE409AF0EE609AB0EE418AF0EE39
:103DB000618A38EE490ADFEDEB0A20EE200A10EEA8
:103DC000104A38EEE90ADFEDE70A20EE200A10EE8D
:103DD000105A1FEDB60A8DED0C0AE34890ED010A6A
:103DE000E24880ED000AE24890ED010ADF4880EDEC
:103DF000010AE04890ED010ADC4880ED020ADE4845
:103E000090ED010AD94880ED030A204608F0B4F984
:103E100041EC1F0BB0EE4F0AF0EE6F0A07F048F8C6
:103E20008DED040B204608F0A7F9CDE902019DEDC8
:103E3000040B53EC102B9DED020B51EC100B07F013
:103E4000B9FD9FEDCE0B53EC102BCDE906019DED96
:103E5000060B51EC100B07F09BFF41EC1D0B9FED87
:103E6000C90B53EC102B07F093FF41EC1E0B9FED99
:103E7000C50B53EC102B07F08BFF41EC1B0B2046BE
:103E800008F07AF941EC1C0B53EC1B2B07F0DEFC1D
:103E900041EC1A0B9FEDBD0B53EC102B07F08AFD84
:103EA0009FEDBC0B53EC102BCDE908019DED080BE9
:103EB00051EC100B07F06CFFCDE90A019DED0A0BE8
:103EC00051EC100B07F090FCB4490860284608F04C
:103ED00053F9CDE900019DED000B06F0E9FF8DEDF2
:103EE000020B284608F048F941EC1E0B9DED020B31
:103EF00053EC102B07F05EFD9FEDA00B53EC102B45
:103F0000CDE904019DED040B51EC100B07F040FFCF
:103F100041EC1D0B9FED9B0B53EC102B07F038FF72
:103F20009FED980B53EC102BCDE906019DED060B90
:103F300051EC100B07F02CFF41EC1B0B284608F04E
:103F40001BF941EC1C0B53EC1B2B07F07FFC41ECE5
:103F50001A0B07F03DFC41EC1F0B9FED8C0B53EC53
:103F6000102B07F027FD9FED8B0B53EC102BCDE9A9
:103F700008019DED080B51EC100B07F009FFCDE98E
:103F80000A019DED0A0B51EC100B07F02DFC834943
:103F90004860084690ED000AB1EE400A80ED020A42
:103FA00090ED010AB1EE400A80ED030A00207C4941
:103FB000086023E079487A49096800EB810090EDB8
:103FC000000AB5EEC00AF1EE10FA09D29FED750AAB
:103FD0000DA87349096800EB810080ED000A08E034
:103FE0009FED710A0DA86E49096800EB810080ED14
:103FF000000A6B480068401C69490860684800680E
:104000000428D7DB00BF284608F0B6F841EC1D0BAA
:10401000B0EE4D0AF0EE6D0A06F04AFFB0EE40BA7F
:10402000F0EE60BA204608F0A7F841EC1D0BB0EEA8
:104030004D0AF0EE6D0A06F03BFFB0EE40CAF0EE1E
:1040400060CA53EC1B2B51EC1C0B07F0FFFB41EC3F
:104050001A0B284608F090F841EC1D0BB0EE4D0A03
:10406000F0EE6D0A06F024FFB0EE40BAF0EE60BA52
:104070009DED100A10EE101A084608F07DF841EC8C
:104080001C0B53EC1B2B07F083FE41EC1E0B53EC77
:104090001A2B07F08FFC41EC1F0B07F0A5FB0B90D0
:1040A000284608F069F841EC1D0BB0EE4D0AF0EE21
:1040B0006D0A06F0FDFEB0EE40EAF0EE60EA204642
:1040C00008F05AF841EC1D0BB0EE4D0AF0EE6D0A07
:1040D00006F0EEFEB0EE40CAF0EE60CA53EC1E2BC6
:1040E00051EC1C0B07F0B2FB41EC1F0B204608F013
:1040F00043F841EC1E0BB0EE4E0AF0EE6E0A06F0ED
:10410000D7FEB0EE40CAF0EE60CA9DED0F0A10EE89
:10411000101A084608F030F841EC1D0B53EC1C2B2C
:1041200007F036FE41EC1B0B53EC1F2B07F042FC53
:1041300041EC1A0B07F058FB0A90284608F01CF8CF
:1041400041EC1D0BB0EE4D0AF0EE6D0A06F0B0FE2C
:10415000B0EE40BAF0EE60BA204627E09A99193FD7
:10416000840300206666863F78000020A4030020B8
:104170009C000020C0000020E40000204DDBBFB206
:10418000D2A4443F0000000000007940000000A0DD
:10419000D2736D4000000000008076409003002044
:1041A000280000200000C8C30000C84307F0E4FF57
:1041B00041EC1D0BB0EE4D0AF0EE6D0A06F078FEF4
:1041C000B0EE40CAF0EE60CA53EC1B2B51EC1C0B56
:1041D00007F03CFB41EC1A0B284607F0CDFF41EC01
:1041E0001D0BB0EE4D0AF0EE6D0A06F061FEB0EE6A
:1041F00040BAF0EE60BA9DED0E0A10EE101A0846B5
:1042000007F0BAFF41EC1C0B53EC1B2B07F0C0FD71
:1042100041EC1E0B53EC1A2B07F0CCFB41EC1F0BAF
:1042200007F0E2FA0990284607F0A6FF41EC1D0BC3
:10423000B0EE4D0AF0EE6D0A06F03AFEB0EE40BA6E
:10424000F0EE60BA204607F097FF41EC1D0BB0EE90
:104250004D0AF0EE6D0A06F02BFEB0EE40CAF0EE0D
:1042600060CA53EC1B2B51EC1C0B07F0EFFA41EC2E
:104270001A0B204607F080FF41EC1D0BB0EE4D0AF3
:10428000F0EE6D0A06F014FEB0EE40BAF0EE60BA41
:104290009DED0D0A10EE101A084607F06DFF41EC77
:1042A0001C0B53EC1B2B07F073FD41EC1E0B53EC66
:1042B0001A2B07F07FFB41EC1F0B07F095FA9FEDDF
:1042C000FE2A0890DDED0B1A9DED0A1ADDED090AB4
:1042D0009DED080AFDF78AFB012003F001FE4FF077
:1042E000FF309FEDF60AFDF73CFC00283FF48BAE53
:1042F0009DED0C0ADFEDF20AB4EEE00AF1EE10FAE1
:1043000003D29FEDEF0A8DED0C0A0020ED49086005
:1043100013E09FEDE92ADFEDE81A9FEDE71ADFEDE4
:10432000E60A9FEDE50AFDF761FB012003F0D8FDE9
:10433000E4480068401CE3490860E248006814282B
:10434000E7DBE14880ED008AC0ED018A13B0BDECE7
:10435000108B30BD30B52DED108B93B0B0EE409A80
:10436000F0EE609AB0EE418AF0EE618A38EE490ACA
:104370005FED840A20EE200A10EE104A38EEE90ABA
:104380005FED880A20EE200A10EE105A9FEDCA0A4F
:104390008DED0C0ACD4890ED010ACD4880ED000A64
:1043A000CC4890ED010ACA4880ED010ACA4890ED58
:1043B000010AC74880ED020AC84890ED010AC448C6
:1043C00080ED030A204607F0D7FE41EC1F0BB0EE4C
:1043D0004F0AF0EE6F0A06F06BFD8DED040B2046E0
:1043E00007F0CAFECDE902019DED040B53EC102B42
:1043F0009DED020B51EC100B07F0DCFA1FEDA10B49
:1044000053EC102BCDE906019DED060B51EC100B82
:1044100007F0BEFC41EC1D0B9FEDB10B53EC102BD4
:1044200007F0B6FC41EC1E0B9FEDAD0B53EC102BCF
:1044300007F0AEFC41EC1B0B204607F09DFE41EC63
:104440001C0B53EC1B2B07F001FA41EC1A0B1FED70
:10445000B10B53EC102B07F0ADFA1FEDB20B53EC80
:10446000102BCDE908019DED080B51EC100B07F066
:104470008FFCCDE90A019DED0A0B51EC100B07F002
:10448000B3F999490860284607F076FECDE90001A6
:104490009DED000B06F00CFD8DED020B284607F09C
:1044A0006BFE41EC1E0B9DED020B53EC102B07F045
:1044B00081FA1FEDCE0B53EC102BCDE904019DEDDD
:1044C000040B51EC100B07F063FC41EC1D0B9FED4E
:1044D000840B53EC102B07F05BFC9FED810B53EC2E
:1044E000102BCDE906019DED060B51EC100B07F0EA
:1044F0004FFC41EC1B0B284607F03EFE41EC1C0B29
:1045000053EC1B2B07F0A2F941EC1A0B07F060F9F2
:1045100041EC1F0B1FEDE30B53EC102B07F04AFA95
:104520001FEDE40B53EC102BCDE908019DED080BBA
:1045300051EC100B07F02CFCCDE90A019DED0A0BA4
:1045400051EC100B07F050F967494860084690EDB0
:10455000000AB1EE400A80ED020A90ED010AB1EEC8
:10456000400A80ED030A00205649086023E05E48B7
:104570005449096800EB810090ED000AB5EEC00ACD
:10458000F1EE10FA09D29FED590A0DA84D490968BC
:1045900000EB810080ED000A08E09FED550A0DA8B0
:1045A0004849096800EB810080ED000A4548006831
:1045B000401C44490860434800680428D7DB00BF1A
:1045C000284607F0D9FD41EC1D0BB0EE4D0AF0EE88
:1045D0006D0A06F06DFCB0EE40BAF0EE60BA20460F
:1045E00007F0CAFD41EC1D0BB0EE4D0AF0EE6D0A6E
:1045F00006F05EFCB0EE40CAF0EE60CA53EC1B2B36
:1046000051EC1C0B07F022F941EC1A0B284607F07D
:10461000B3FD41EC1D0BB0EE4D0AF0EE6D0A06F055
:1046200047FCB0EE40BAF0EE60BA9DED100A10EE15
:10463000101A084607F0A0FD41EC1C0B53EC1B2B95
:1046400007F0A6FB41EC1E0B53EC1A2B07F0B2F956
:1046500041EC1F0B07F0C8F80B90284607F08CFDC3
:1046600041EC1D0BB0EE4D0AF0EE6D0A06F020FC99
:10467000B0EE40EAF0EE60EA204607F07DFD41EC46
:104680001D0BB0EE4D0AF0EE6D0A06F011FCB0EE17
:1046900040CAF0EE60CA53EC1E2B51EC1C0B07F025
:1046A000D5F841EC1F0B204607F066FD41EC1E0BD0
:1046B000B0EE4E0A1EE000000000000000002042A4
:1046C00000004842280000208403002078000020D9
:1046D000A40300209C000020C0000020E400002073
:1046E0000000000000406F409003002000007AC3EB
:1046F00000007A43F0EE6E0A06F0DAFBB0EE40CA34
:10470000F0EE60CA9DED0F0A10EE101A084607F091
:1047100033FD41EC1D0B53EC1C2B07F039FB41EC36
:104720001B0B53EC1F2B07F045F941EC1A0B07F05C
:104730005BF80A90284607F01FFD41EC1D0BB0EE18
:104740004D0AF0EE6D0A06F0B3FBB0EE40BAF0EEA3
:1047500060BA204607F010FD41EC1D0BB0EE4D0A8B
:10476000F0EE6D0A06F0A4FBB0EE40CAF0EE60CAAF
:1047700053EC1B2B51EC1C0B07F068F841EC1A0BA7
:10478000284607F0F9FC41EC1D0BB0EE4D0AF0EEA7
:104790006D0A06F08DFBB0EE40BAF0EE60BA9DED0A
:1047A0000E0A10EE101A084607F0E6FC41EC1C0B4E
:1047B00053EC1B2B07F0ECFA41EC1E0B53EC1A2BBD
:1047C00007F0F8F841EC1F0B07F00EF809902846A7
:1047D00007F0D2FC41EC1D0BB0EE4D0AF0EE6D0A75
:1047E00006F066FBB0EE40BAF0EE60BA204607F085
:1047F000C3FC41EC1D0BB0EE4D0AF0EE6D0A06F065
:1048000057FBB0EE40CAF0EE60CA53EC1B2B51ECE4
:104810001C0B07F01BF841EC1A0B204607F0ACFC10
:1048200041EC1D0BB0EE4D0AF0EE6D0A06F040FBB8
:10483000B0EE40BAF0EE60BA9DED0D0A10EE101A1F
:10484000084607F099FC41EC1C0B53EC1B2B07F0BE
:104850009FFA41EC1E0B53EC1A2B07F0ABF841EC1E
:104860001F0B06F0C1FF1FED6C2A0890DDED0B1A3F
:104870009DED0A1ADDED090A9DED080AFDF7B6F86F
:10488000012003F02DFB4FF0FF301FED740AFDF700
:1048900068F900283FF494AE9DED0C0A5FED780AAC
:1048A000B4EEE00AF1EE10FA03D21FED7B0A8DEDB3
:1048B0000C0A0020F949086013E01FED812A5FED22
:1048C000821A1FED831A5FED840A1FED850AFDF73A
:1048D0008DF8012003F004FBF0480068401CEF490C
:1048E0000860EE4800681428E7DBED4880ED008A98
:1048F000C0ED018A13B0BDEC108B30BD00B52DEDBD
:104900000A8B85B0B0EE409AF0EE608A1FED960AF1
:10491000B0EE408A38EEC90ADFEDE20A20EE200A46
:10492000F0EE409A9FEDE00A29EE800ADFEDDF0A03
:1049300080EE201A9FEDDE0A61EE000AB0EE001A4A
:1049400080EE810A9FEDDB1AC0EE010A9FEDDA0AC4
:1049500020EE800AB0EE40AAD84890ED010AD8486F
:1049600080ED000AD74890ED010AD54880ED010A94
:10497000D54890ED010AD24880ED020AD34890ED67
:10498000010ACF4880ED030A0020C44908600DE009
:10499000B1EE4A0ACE48C149096800EB810080EDBA
:1049A000000ABE480068401CBC490860BB4800685B
:1049B0000428EDDB0020B949086023E0C448B7496A
:1049C000096800EB810090ED000AB5EEC00AF1EE37
:1049D00010FA09D29FEDBF0A6846B049096800EB9A
:1049E000810080ED000A08E09FEDBB0A6846AB49F4
:1049F000096800EB810080ED000AA8480068401CAF
:104A0000A6490860A54800680428D7DB00BF9FEDD1
:104A1000B30AB4EEC08AF1EE10FA48D2DDED030A13
:104A2000B0EE600AFDF78CF800EE100AB8EEC00A8E
:104A300020EE080AF0EE40AADDED020AB0EE600AB0
:104A4000FDF77EF800EE100AB8EEC00A20EE080A64
:104A5000B0EE40BADDED010AB0EE600AFDF770F885
:104A600000EE100AB8EEC00A20EE080AF0EE40BAD6
:104A7000DDED000AB0EE600AFDF762F800EE100A04
:104A8000B8EEC00A20EE080AB0EE40CA1FEDF62AC2
:104A9000F0EE6A1AB0EE4B1AF0EE6B0AFCF7A6FFC6
:104AA0009FED8F0A38EE000AB0EE408A16E09DEDC9
:104AB000032AF0EE421A9DED022AB0EE421A9DED55
:104AC000012AF0EE420A9DED002AB0EE420A9FED67
:104AD000852AFCF78BFF022003F002FA00209FEDED
:104AE000820AFDF73EF8002891D06D48C0ED028A99
:104AF00005B0BDEC0A8B00BD10B52DED0A8BB0EEF4
:104B0000408A6E4890ED010ABDEEC00AF0EE408A80
:104B10006C4890ED010ABDEEC00AB0EE409A6A48BA
:104B200090ED010ABDEEC00AF0EE409A674890EDA4
:104B3000010ABDEEC00AB0EE40AA6C4890ED010A31
:104B4000BDEEC00A10EE104A0EE0B0EE482AF8EEB4
:104B5000CA1AB8EEE91AF8EEC90AB8EEE80AFCF784
:104B6000A7FF022003F0BCF9604890ED010A30EE87
:104B7000480A10EE101A084607F0FEFA41EC1C0B2A
:104B8000B0EE4C0AF0EE6C0A06F092F9B0EE40BAC4
:104B9000F0EE60BA9FED560B53EC102B51EC1B0B53
:104BA00007F0BAF8D1D2BDEC0A8B10BD10B52DEDCF
:104BB0000C8BB0EE408AF0EE608A9FED4F0B06F052
:104BC00083F9B0EE40CAF0EE60CA18EE100A07F0A2
:104BD000D3FA41EC1D0B53EC1C2B07F0D9F841EC38
:104BE0001A0B9FED450B06F0FFF8B0EE40CAF0EE51
:104BF00060CA18EE900A07F0BFFA41EC1D0B53ECA7
:104C00001C2B07F0C5F841EC1B0B53EC1A2B07F0DB
:104C1000C9F941EC190B06F0E7FD00EE100ABDECF6
:104C20000C8B10BD10B52DED0C8BB0EE408AF0EE64
:104C3000608A9FED310B06F047F9B0EE40CAF0EE06
:104C400060CA18EE900A07F097FA41EC1D0B53EC7E
:104C50001C2B07F09DF841EC1A0B9FED270B06F07B
:104C6000C3F8B0EE40CAF0EE60CA18EE100A07F0C2
:104C700083FA41EC1D0B53EC1C2B07F089F841EC37
:104C80001B0B53EC1A2B06F0E1FD41EC190B06F05F
:104C9000ABFD00EE100ABDEC0C8B10BD280000200F
:104CA000840300203333833FDB0F4940000034434B
:104CB0000000E143959E6B430000B4437800002060
:104CC000A40300209C000020C0000020E40000207D
:104CD000900300200000A0C20000A0420000484352
:104CE000CDCC4C3E000000000000484208010020EE
:104CF000000000000000244000000060FB21E9BF2C
:104D000007B584B0069800287DD1049801287BD18E
:104D10000598002878D1DFEDFE0A1FED0E0AFFF797
:104D200045FF8DED030ADFEDFA0A1FED120AFFF7CA
:104D300079FF8DED020AF74890ED010A8DED010A29
:104D400090ED000A8DED000ADDED031A9DED021ACB
:104D5000DDED010A9DED000AFCF77CFFDFEDEC0ABA
:104D60009FEDED0AFFF722FF8DED030ADFEDE80A64
:104D70009FEDE90AFFF756FF8DED020AE54890ED39
:104D8000010A8DED010A90ED000A8DED000ADDEDBE
:104D9000031A9DED021ADDED010A9DED000AFDF7F3
:104DA000E5FCDFEDDE0A9FEDDC0AFFF7FFFE8DED8F
:104DB000030ADFEDDA0A9FEDD80AFFF733FF8DED26
:104DC000020AD44890ED010A8DED010A90ED000A27
:104DD0008DED000ADDED031A9DED021ADDED010AED
:104DE0009DED000AFCF736FFDFEDCC0A9FEDCC0A03
:104DF000FFF7DCFE8DED030ADFEDC80A9FEDC80A60
:104E0000FFF710FF01E0FDE31FE08DED020AC1484E
:104E100090ED010A8DED010A90ED000A8DED000A7A
:104E2000DDED031A9DED021ADDED010A9DED000A8C
:104E3000FDF79CFCB74890ED020A8DED030A5FED8B
:104E4000650A9DED030AFFF759FD049801287DD1FD
:104E5000059801287AD1DFEDAE0A1FED5E0AFFF753
:104E6000A5FE8DED030ADFEDAA0A1FED620AFFF72A
:104E7000D9FE8DED020AA74890ED010A8DED010AD9
:104E800090ED000A8DED000ADDED031A9DED021A8A
:104E9000DDED010A9DED000AFCF7DCFEDFED9C0A6A
:104EA0009FED9D0AFFF782FE8DED030ADFED980A64
:104EB0009FED990AFFF7B6FE8DED020A954890ED39
:104EC000010A8DED010A90ED000A8DED000ADDED7D
:104ED000031A9DED021ADDED010A9DED000AFDF7B2
:104EE00045FCDFED8E0A9FED8C0AFFF75FFE8DED2E
:104EF000030ADFED8A0A9FED880AFFF793FE8DED26
:104F0000020A844890ED010A8DED010A90ED000A35
:104F10008DED000ADDED031A9DED021ADDED010AAB
:104F20009DED000AFCF796FEDFED7C0A9FED7C0A02
:104F3000FFF73CFE8DED030ADFED780A9FED780A5E
:104F4000FFF770FE8DED020A724800E036E090ED4A
:104F5000010A8DED010A90ED000A8DED000ADDEDEC
:104F6000031A9DED021ADDED010A9DED000AFDF721
:104F7000FDFB684890ED020A8DED030A5FEDB50A6E
:104F80009DED030AFFF7BAFCDFED660A1FEDAB0AE1
:104F9000FFF70CFE8DED030ADFED620A1FEDAF0A8D
:104FA000FFF740FE8DED020ADDED031A9DED021ABA
:104FB0005FEDB40A1FEDB50AFCF74CFE049801281A
:104FC0007DD1059802287AD1DFED510A1FEDBB0A89
:104FD000FFF7ECFD8DED030ADFED4D0A1FEDBF0A73
:104FE000FFF720FE8DED020A4A4890ED010A8DED93
:104FF000010A90ED000A8DED000ADDED031A9DED2A
:10500000021ADDED010A9DED000AFCF723FEDFED3B
:10501000400A9FED410AFFF7C9FD8DED030ADFED60
:105020003C0A9FED3D0AFFF7FDFD8DED020A394870
:1050300090ED010A8DED010A90ED000A8DED000A58
:10504000DDED031A9DED021ADDED010A9DED000A6A
:10505000FDF78CFBDFED310A9FED2F0AFFF7A6FD70
:105060008DED030ADFED2D0A9FED2B0AFFF7DAFD28
:105070008DED020A274890ED010A8DED010A90EDB1
:10508000000A8DED000ADDED031A9DED021ADDED3B
:10509000010A9DED000AFCF7DDFDDFED200A9FED22
:1050A000200AFFF783FD8DED030ADFED1C0A9FED5B
:1050B0001C0AFFF7B7FD8DED020A164800E049E033
:1050C00090ED010A8DED010A90ED000A8DED000AC8
:1050D000DDED031A9DED021ADDED010A9DED000ADA
:1050E000FDF744FB0B4890ED020A8DED030ADFED5E
:1050F0000E0A9DED030AFFF701FCDFED0C0A9FEDA0
:105100000C0AFFF753FD8DED030ADFED080A11E0ED
:10511000008009C484030020004092C400001644AB
:105120000000FAC400C002440000344300007A4486
:10513000000000001FED020AFFF774FD8DED020A6A
:10514000DDED031A9DED021A5FED070A1FED080A57
:10515000FCF780FD049802287DD1059800287AD1BB
:105160005FED150A9FEDFE0AFFF720FD8DED030AA6
:105170005FED190A9FEDFA0AFFF754FD8DED020A63
:105180005FED1D0A1FED160AFFF710FD8DED010AF8
:105190005FED210A1FED1A0AFFF744FD8DED000AAD
:1051A000DDED031A9DED021ADDED010A9DED000A09
:1051B000FDF7DCFA5FED270A9FEDE90AFFF7F6FC41
:1051C0008DED030A5FED2B0A9FEDE50AFFF72AFD3F
:1051D0008DED020AE34890ED010A8DED010A90ED94
:1051E000000A8DED000ADDED031A9DED021ADDEDDA
:1051F000010A9DED000AFCF72DFD5FED380A1FED59
:10520000380AFFF7D3FC8DED030A5FED3C0A1FED72
:105210003C0AFFF707FD8DED020AD24890ED010A26
:105220008DED010A90ED000A8DED000ADDED031A07
:105230009DED021ADDED010A9DED000AFDF796FADB
:10524000C84890ED020A8DED030A5FED490A9DED15
:10525000030AFFF753FB049802287CD10598012824
:1052600079D15FED550A9FEDBE0AFFF79FFC8DEDEA
:10527000030A5FED590A9FEDBA0AFFF7D3FC8DEDE3
:10528000020A5FED5D0A1FED560AFFF78FFC8DEDF8
:10529000010A5FED610A1FED5A0AFFF7C3FC8DEDAD
:1052A000000ADDED031A9DED021ADDED010A9DED08
:1052B000000AFDF75BFA5FED670A9FEDA90AFFF7A9
:1052C00075FC8DED030A5FED6B0A9FEDA50AFFF7F4
:1052D000A9FC8DED020AA34890ED010A8DED010AAB
:1052E00090ED000A8DED000ADDED031A9DED021A26
:1052F000DDED010A9DED000AFCF7ACFC5FED790ADB
:105300001FED790AFFF752FC8DED030A5FED7D0A70
:105310001FED7D0AFFF786FC8DED020A914890EDA6
:10532000010A8DED010A90ED000A8DED000ADDED18
:10533000031A9DED021ADDED010A9DED000AFDF74D
:1053400015FA884890ED020A8DED030A5FED8A0A8E
:105350009DED030A00E01BE0FFF7D0FA5FED8F0A36
:105360001FED8D0AFFF722FC8DED030A5FED930A16
:105370001FED910AFFF756FC8DED020ADDED031AD1
:105380009DED021A5FED960A1FED970AFCF762FC8D
:10539000049802287ED1059802287BD15FEDA40AEB
:1053A0009FED6F0AFFF702FC8DED030A5FEDA80A7F
:1053B0009FED6B0AFFF736FC8DED020A5FEDAC0A3C
:1053C0001FEDA50AFFF7F2FB8DED010A5FEDB00AB4
:1053D0001FEDA90AFFF726FC8DED000ADDED031A8B
:1053E0009DED021ADDED010A9DED000AFDF7BEF903
:1053F0005FEDB60A9FED5A0AFFF7D8FB8DED030A61
:105400005FEDBA0A9FED560AFFF70CFC8DED020A1C
:10541000544890ED010A8DED010A90ED000A8DEDE2
:10542000000ADDED031A9DED021ADDED010A9DED86
:10543000000AFCF70FFC5FEDC70A1FEDC70AFFF774
:10544000B5FB8DED030A5FEDCB0A1FEDCB0AFFF72D
:10545000E9FB8DED020A434890ED010A8DED010A4A
:1054600090ED000A8DED000ADDED031A9DED021AA4
:10547000DDED010A9DED000AFDF778F9394890ED60
:10548000020A8DED030A5FEDD80A9DED030AFFF7CE
:1054900035FA00E019E05FEDDB0A1FEDDB0AFFF7EC
:1054A00085FB8DED030A5FEDDF0A1FEDDF0AFFF7D5
:1054B000B9FB8DED020ADDED031A9DED021A5FEDD9
:1054C000E40A1FEDE50AFCF7C5FB049800287DD12E
:1054D000059800287AD15FEDF20A1FEDEB0AFFF77D
:1054E00065FB8DED030A5FEDF60A1FEDEF0AFFF78E
:1054F00099FB8DED020ADFED1C0A1FEDF30AFFF7A1
:1055000055FB8DED010ADFED180A1FEDF70AFFF7D5
:1055100089FB8DED000ADDED031A9DED021ADDED2C
:10552000010A9DED000AFCF795FBDFED100A9FEDE7
:10553000100AFFF73BFB8DED030ADFED0C0A9FED30
:105540000C0AFFF76FFB8DED020ADFED080A9FEDF5
:10555000090AFFF72BFB8DED010ADFED040A0BE0D2
:10556000000096C48403002000800944008009C420
:1055700000008CC4000000001FED020AFFF752FB80
:105580008DED000ADDED031A9DED021ADDED010A35
:105590009DED000AFDF7EAF8DFEDFE0A1FED0C0AAB
:1055A000FFF704FB8DED030ADFEDFA0A1FED100A89
:1055B000FFF738FB8DED020AF74890ED010A8DEDFB
:1055C000010A90ED000A8DED000A00E039E0DDED02
:1055D000031A9DED021ADDED010A9DED000AFCF7AC
:1055E00039FBDFEDEC0A9FEDED0AFFF7DFFA8DEDF9
:1055F000030ADFEDE80A9FEDE90AFFF713FB8DEDE3
:10560000020A00E0F3E0E44890ED010A8DED010AA2
:1056100090ED000A8DED000ADDED031A9DED021AF2
:10562000DDED010A9DED000AFDF7A0F8DA4890EDE6
:10563000020A8DED030ADFEDDA0A9DED030AFFF79A
:105640005DF9049800287DD1059801287AD15FED95
:10565000370A1FED390AFFF7A9FA8DED030A5FED4E
:105660003B0A1FED3D0AFFF7DDFA8DED020ACA483D
:1056700090ED010A8DED010A90ED000A8DED000A12
:10568000DDED031A9DED021ADDED010A9DED000A24
:10569000FCF7E0FADFEDC30A1FED4B0AFFF786FACD
:1056A0008DED030ADFEDBF0A1FED4F0AFFF7BAFACF
:1056B0008DED020AB84890ED010A8DED010A90EDDA
:1056C000000A8DED000ADDED031A9DED021ADDEDF5
:1056D000010A9DED000AFCF7BDFADFEDB20A9FED6D
:1056E000AF0AFFF763FA8DED030ADFEDAE0A9FED17
:1056F000AB0AFFF797FA8DED020AA74890ED010A71
:105700008DED010A90ED000A8DED000ADDED031A22
:105710009DED021ADDED010A9DED000AFCF79AFAF3
:105720009D4890ED020A8DED030ADFED9F0A9DED85
:10573000030AFFF7E3F8DFED9D0A1FED720AFFF79A
:1057400035FA00E013E08DED030ADFED980A1FED56
:10575000770AFFF767FA8DED020ADDED031A9DED7A
:10576000021A5FED7C0A1FED7D0AFCF773FA0498BC
:10577000E8BB0598022875D15FED820A1FED840A07
:10578000FFF714FA8DED030A5FED860A1FED880A14
:10579000FFF748FA8DED020A7F4890ED010A8DED82
:1057A000010A90ED000A8DED000ADDED031A9DED72
:1057B000021ADDED010A9DED000AFCF74BFADFED60
:1057C000790A1FED950AFFF7F1F98DED030ADFED78
:1057D000750A1FED990AFFF725FA8DED020A6E484A
:1057E00090ED010A8DED010A90ED000A00E039E02C
:1057F0008DED000ADDED031A9DED021ADDED010AC3
:105800009DED000AFCF726FADFED660A9FED630ABC
:10581000FFF7CCF98DED030ADFED620A9FED5F0A19
:10582000FFF700FA8DED020A5B4890ED010A8DED5D
:10583000010A90ED000A8DED000ADDED031A9DEDE1
:10584000021ADDED010A9DED000AFCF703FA524849
:1058500090ED020A8DED030ADFED530A9DED030A78
:10586000FFF74CF8069801287ED1049801284BD107
:105870000598E0BB5FEDC10A9FED4D0AFFF796F971
:105880008DED030A5FEDC50A9FED490AFFF7CAF9DE
:105890008DED020A404890ED010A8DED010A90ED70
:1058A000000A8DED000ADDED031A9DED021ADDED13
:1058B000010A9DED000AFDF7E2FC374890ED020A6F
:1058C0008DED030ADFED380A9DED030AFFF716F8A8
:1058D000DFED360A1FEDD90AFFF768F98DED030AEF
:1058E000DFED320A1FEDDD0AFFF79CF900E00BE067
:1058F0008DED020ADDED031A9DED021A5FEDE30A5C
:105900001FEDE40AFCF7A6F9049801287ED105985A
:1059100001287BD1DFED270A1FEDEA0AFFF746F9E0
:105920008DED030ADFED230A1FEDEE0AFFF77AF98A
:105930008DED020A184890ED010A8DED010A90EDF7
:10594000000A8DED000ADDED031A9DED021ADDED72
:10595000010A9DED000AFCF77DF9DFED160A9FEDC7
:10596000140AFFF723F900E0C9E28DED030ADFED29
:10597000110A9FED0F0AFFF755F98DED020A06484F
:1059800090ED010A8DED010A90ED000A8DED000AFF
:1059900012E0000000001644840300200000FAC456
:1059A0000000344300007AC4000034C3000016C471
:1059B00000C0F3C400C001C4DDED031A9DED021A5E
:1059C000DDED010A9DED000AFDF759FCFE4890ED62
:1059D000020A8DED030A5FED0C0A9DED030AFEF746
:1059E0008DFF5FED0E0A9FEDF90AFFF7DFF88DEDF1
:1059F000030A5FED120A9FEDF50AFFF713F98DED2B
:105A0000020ADDED031A9DED021A00E005E0DFED6C
:105A1000EF0A9FEDEE0AFCF71DF9049801286DD1FD
:105A2000059802286AD15FED210A9FEDE80AFFF789
:105A3000BDF88DED030A5FED250A9FEDE40AFFF73F
:105A4000F1F88DED020AE04890ED010A8DED010AB2
:105A500090ED000A8DED000ADDED031A9DED021AAE
:105A6000DDED010A9DED000AFCF7F4F85FED330A65
:105A70001FED310AFFF79AF88DED030A5FED370A43
:105A80001FED350AFFF7CEF88DED020ACE4890EDF6
:105A9000010A8DED010A90ED000A8DED000ADDEDA1
:105AA000031A9DED021ADDED010A9DED000AFDF7D6
:105AB000E6FBC54890ED020A8DED030A5FED460A4C
:105AC0009DED030AFEF71AFF5FED480A9FEDBF0A3E
:105AD000FFF76CF88DED030A5FED4C0A9FEDBB0AF2
