:020000040800F2
:10000000400B0020D987000841060008430600087D
:10001000470600084B0600084F06000800000000D5
:10002000000000000000000000000000530600086F
:100030005506000800000000570600085906000891
:10004000F3870008F3870008F3870008F3870008A8
:10005000F3870008F3870008F3870008F387000898
:10006000F3870008F3870008F3870008F387000888
:10007000F3870008F3870008F3870008F387000878
:10008000F3870008F3870008F38700088509000854
:100090009B090008F3870008F3870008F38700082E
:1000A000F3870008F3870008F3870008F387000848
:1000B000F3870008F3870008F3870008F387000838
:1000C000F3870008F3870008F3870008F387000828
:1000D000F38700089F8600087187000819870008C9
:1000E000F3870008F3870008F3870008F387000808
:1000F000F3870008F3870008F3870008F3870008F8
:10010000F3870008F3870008F3870008F3870008E7
:10011000F3870008F3870008F3870008F3870008D7
:10012000F3870008F3870008F3870008F3870008C7
:10013000F3870008F3870008F3870008F3870008B7
:10014000F3870008F3870008F3870008F3870008A7
:10015000F3870008F3870008F387000899870008F1
:10016000F3870008F3870008F3870008F387000887
:10017000F3870008F3870008F3870008F387000877
:10018000F3870008F387000800F002F800F03CF85D
:100190000AA090E8000C82448344AAF10107DA45E2
:1001A00001D100F031F8AFF2090EBAE80F0013F0F8
:1001B000010F18BFFB1A43F001031847DCC1000010
:1001C000FCC10000103A24BF78C878C1FAD85207A1
:1001D00024BF30C830C144BF04680C6070470000C1
:1001E0000023002400250026103A28BF78C1FBD840
:1001F000520728BF30C148BF0B6070471FB50CF0D5
:1002000030F81FBD10B510BD0AF0ACFD1146FFF768
:10021000F5FF00F06CF80AF0CAFD03B4FFF7F2FF37
:1002200003BC07F081FE0000014600220020F74BCE
:1002300018600AE0F648F54B1B6850F823000244AA
:10024000F2480068401CF14B1860F0480068032831
:10025000F0DB022A15D10020EC4B18600DE0EC48D1
:10026000EA4B1B6850F8230010B9E8480068704753
:10027000E6480068401CE54B1860E4480068032825
:10028000EDDB012A13D1012907D1E148406801289B
:1002900001D10020EBE70120E9E7022907D1DC4882
:1002A0000068012801D10220E1E70020DFE73AB928
:1002B000012901D10120DAE7022901D10020D6E786
:1002C00000BFD4E7D3488068002801DD01207047D3
:1002D000D0480068002801DD0020F8E7CD4800691B
:1002E000002801DD0220F2E74FF0FF30EFE72DEDAF
:1002F000048B002600BF00254FF4E13007F021FEFB
:100300004FF4E13007F0C2FE4FF4E13007F06BFE2E
:100310004FF4E13007F00CFFA82007F083FD4FF405
:10032000A06008F079FA06F0A7F906F0C3F900F02A
:100330008FFE01F04FF900F099FA07F08EF806F001
:100340003EF900270020B4490860804604E0B3EE7F
:100350000E0A07F09AFB8046B8F1000FF7D000BFF5
:100360000020AA49086006E007F044F8A7480068A2
:10037000401CA6490860A5480068B0F57A7FF3DB09
:1003800007F0E2FBA349886007F009FDA149086076
:1003900008468068F0BB03200861DFEDA00A9FEDEE
:1003A000A00A04F0EFFBB0EE408ADFED9C0A9FED5F
:1003B0009C0A04F023FCF0EE408AF0EE481AB0EEFE
:1003C000681ADFED960A9FED950A01F02FFCDFED2C
:1003D000950A9FED930A04F0D5FBB0EE408ADFED5D
:1003E000910A9FED8F0A04F009FCF0EE408ADFEDE0
:1003F0008B0A9FED8B0A04F0C5FBB0EE409ADFED4F
:10040000870A9FED870A04F0F9FBF0EE409AF0EEC0
:10041000481A00E00AE0B0EE681AF0EE490A01F06E
:1004200005FC00208049086002240AE07948006841
:1004300018B903207749086102E000207549086176
:100440000324FCE0062C7DD2DFE804F0F6032B3A0F
:10045000B7CF002507E09FED710A744800EB8500D7
:1004600080ED000A6D1C032DF5DB6B4802687048B7
:1004700001686D48006804F02FFC6748006858B9AF
:100480000120654908606A480068012807D1B9EE73
:100490000C0A06F05DF802E000205F4908600224C3
:1004A000CCE0B3EE0E0A06F0E6FF07463FB106F0D9
:1004B000D4FF5948006808B9032400E00424BDE0D3
:1004C00007F042FB5349584A126841F83200AEB96E
:1004D000554A126851F8320007F0C6FB4D49524A9E
:1004E000126801EBC20148604A484F49096800EBB5
:1004F000C1004068002808DD012606E000204549CB
:10050000494A126801EBC2014860424846490968FD
:1005100050F83100002801DC05248FE03D484249B5
:10052000096800EBC1004068002825DD39483E4AD3
:10053000126800EBC2004168012005F009FD354852
:10054000394900E078E0096800EBC10040683949AA
:1005500008603049344A126801EBC2014868FFF76D
:1005600063FE334908604FF0FF302A492E4A126873
:1005700001EBC20148601EE026482B4A126850F881
:100580003210002005F0E4FC22482749096850F8A1
:100590003100284908601F49234A126851F8320087
:1005A000FFF742FE224908604FF0FF3119481E4A0A
:1005B000126840F83210012440E01E4801681C48CF
:1005C000006805F0CDFE01201149194A126841F872
:1005D0002200FFF777FE14490860084600680028EB
:1005E00001DB012400E0052428E09FED0C2ADFED6B
:1005F0000B1A9FED0A1ADFED090A9FED080A01F0B8
:10060000E1F9012007F070FC18E000001000002064
:100610006C000020540000200C00002000000000AE
:10062000000034C300007A4304000020840300204B
:100630000800002000000020052400BF00BF01E7E3
:10064000704700BFFEE700BFFEE700BFFEE700BF48
:10065000FEE7704770477047704700000CB50020F8
:10066000019000907648006840F48030744908603A
:1006700000BF7348006800F4003000900198401CEF
:100680000190009818B90198B0F5A04FF1D16C48CD
:10069000006800F4003010B10120009001E000205B
:1006A00000900098012846D165484030006840F02D
:1006B00080506349403108606248006840F440401F
:1006C000604908605E48083000685D49083108608C
:1006D0000846006840F4004008600846006840F49E
:1006E000A05008605848091F0860081F006840F0C3
:1006F0008070091F086000BF5148006800F000705A
:100700000028F9D040F20570504908604C48083084
:10071000006820F003004A49083108600846006874
:1007200040F00200086000BF45480830006800F053
:100730000C000828F8D10CBD10B54548006840F4FD
:100740007000434908603E48006840F001003C49A1
:10075000086000203A4908310860394800683D497E
:100760000840374908603C48091D0860081F0068B8
:1007700020F48020091F0860002031490C310860F6
:10078000FFF76CFF4FF0006031498039086010BD01
:1007900070B500200022022300240221284D0835D4
:1007A0002D6805F00C0020B1042806D0082834D1AB
:1007B00007E02A4D2A4E356033E02A4D284E356039
:1007C0002FE01F4D2D1D2D68C5F380541C4D2D1D90
:1007D0002D6805F03F0154B1224DB5FBF1F5184EDF
:1007E000361D3668C6F3881605FB06F209E01B4D78
:1007F000B5FBF1F5124E361D3668C6F3881605FBBB
:1008000006F20F4D2D1D2D68C5F301456D1C6B00C3
:10081000B2FBF3F5124E356003E0104D104E35601B
:1008200000BF00BF064D08352D68C5F303150E4EF9
:10083000705D0B4D2D68C540094E356070BD0000E0
:10084000003802400070004008544007003C02405D
:1008500088ED00E0FFFFF6FE103000240024F400D5
:100860001400002000127A001800002000B58BB0A0
:100870000121084608F064FB0121480608F0A9FBA5
:100880004FF4C050099002208DF8280000208DF808
:100890002A0003208DF8290001208DF82B0009A9DA
:1008A000FE4808F0AFF809220B21FC4808F035F9A2
:1008B00009220C21F94808F030F9F94808F0BEFE89
:1008C00006A808F0DFFF00208DF81E008DF81F003D
:1008D0008DF8200001208DF8210000208DF82200E5
:1008E0008DF823008DF81A008DF81B0008208DF874
:1008F0001C0003208DF81D00ADF8180006A9E8487B
:1009000008F0B5FE00208DF812008DF813000120CC
:100910008DF814000020ADF80800ADF80A00ADF81D
:100920000C00ADF80E00ADF8100001208DF8150098
:1009300002A808F026FF01220221D94809F020FA76
:1009400001221146D64809F01BFA14208DF8040044
:1009500002208DF8050001208DF806008DF80700B3
:1009600001A807F05EFF13208DF8040001208DF828
:1009700005008DF806008DF8070001A807F051FF6B
:100980000BB000BD10B50121C54809F061FA18B1DE
:100990000121C34809F0F7FA10BD00B52DED048B15
:1009A00093B00EAA0021BE4809F0CFF840F2012111
:1009B0000E9888427ED10EA8017CC07B41EA0020BF
:1009C00000B200EE100AB8EEC00AB64880ED050A83
:1009D0000EA8827B407B42EA002000B200EE100AA3
:1009E000B8EEC00A10EE101A08460BF0C9FB41EC35
:1009F000190B9FEDAD0B53EC102B0AF0DFFF41EC10
:100A0000180B0AF0F5FE00EE100AA64880ED030A66
:100A1000008B68B9A348408B50B90EA8007B9DF8A5
:100A2000431040EA012000B29E49488308830CE04D
:100A30009C48408B9B4908830EA8007B9DF843107F
:100A400040EA012000B297494883964890ED000A99
:100A50008DED050A90ED010A8DED060A90ED020A72
:100A60008DED070A90ED030A8DED080A90ED040A5A
:100A70008DED090A90ED050A8DED0A0A008BADF89F
:100A80002C008848408BADF82E008648C0690C9039
:100A9000844890F820008DF83400142209A9684693
:100AA0000AF016F905A80FC800F09CFA7D48D0EDB1
:100AB000010A00E004E030EE200A80ED010A33E292
:100AC00040F202210E9888427ED10EA8017CC07BA4
:100AD00041EA002000B200EE100AB8EEC00A7448E5
:100AE00080ED050A0EA8827B407B42EA002000B21E
:100AF00000EE100AB8EEC00A10EE101A08460BF00D
:100B00003FFB41EC190B9FED680B53EC102B0AF0E7
:100B100055FF41EC180B0AF06BFE00EE100A64481A
:100B200080ED030A008B68B96148408B50B90EA86C
:100B3000007B9DF8431040EA012000B25C494883E5
:100B400008830CE05A48408B594908830EA8007B63
:100B50009DF8431040EA012000B2554948835448AB
:100B600090ED000A8DED050A90ED010A8DED060A63
:100B700090ED020A8DED070A90ED030A8DED080A4B
:100B800090ED040A8DED090A90ED050A8DED0A0A33
:100B9000008BADF82C004648408BADF82E00444841
:100BA000C0690C90424890F820008DF8340014225F
:100BB00009A968460AF08CF805A80FC800F012FAD7
:100BC0003B48D0ED010A00E004E030EE200A80ED61
:100BD000010AA9E140F203210E9888425DD10EA8D6
:100BE000017CC07B41EA002000B200EE100AB8EEA2
:100BF000C00A304880ED050A0EA8827B407B42EA9D
:100C0000002000B200EE100AB8EEC00A10EE101A72
:100C100008460BF0B5FA41EC190B9FED230B53EC92
:100C2000102B0AF0CBFE41EC180B0AF0E1FD00EEB0
:100C3000100A204880ED030A008B68B91D48408BDC
:100C400050B90EA8007B9DF8431040EA012000B285
:100C50001849488308830CE01648408B15490883DF
:100C60000EA8007B9DF8431040EA012000B2114914
:100C70004883104890ED000A8DED050A90ED010AB9
:100C80008DED060A90ED020A8DED070A90ED030A3C
:100C90008DED080A90ED040A0EE033E000000240FA
:100CA0000064004078000020000000000000334095
:100CB0009C000020C00000208DED090A90ED050A7F
:100CC0008DED0A0A008BADF82C00BD48408BADF8C5
:100CD0002E00BB48C0690C90B94890F820008DF8F0
:100CE0003400142209A9684609F0F2FF05A80FC8CC
:100CF00000F078F9B248D0ED010A30EE200A80ED1C
:100D0000010A11E10E98B0F5017F7CD10EA8017C9B
:100D1000C07B41EA002000B200EE100AB8EEC00A23
:100D2000A84880ED050A0EA8827B407B42EA00209D
:100D300000B200EE100AB8EEC00A10EE101A084613
:100D40000BF01EFA41EC190B1FED290B53EC102B85
:100D50000AF034FE41EC180B0AF04AFD00EE100ACE
:100D6000984880ED030A008B68B99648408B50B9CB
:100D70000EA8007B9DF8431040EA012000B2914983
:100D8000488308830CE08F48408B8E4908830EA867
:100D9000007B9DF8431040EA012000B28949488356
:100DA000884890ED000A8DED050A90ED010A8DED61
:100DB000060A90ED020A8DED070A90ED030A8DED0B
:100DC000080A90ED040A8DED090A90ED050A8DEDF3
:100DD0000A0A008BADF82C007A48408BADF82E0043
:100DE0007848C0690C90774890F820008DF834005E
:100DF000142209A9684609F06BFF05A80FC800F086
:100E0000F1F8704800E006E0D0ED010A30EE200A6B
:100E100080ED010A88E040F205210E9888427CD1DD
:100E20000EA8017CC07B41EA002000B200EE100A4F
:100E3000B8EEC00A644880ED050A0EA8827B407BAC
:100E400042EA002000B200EE100AB8EEC00A10EE2E
:100E5000101A08460BF094F941EC190B1FED6E0BBC
:100E600053EC102B0AF0AAFD41EC180B0AF0C0FC61
:100E700000EE100A544880ED030A008B68B952480E
:100E8000408B50B90EA8007B9DF8431040EA01202A
:100E900000B24D49488308830CE04B48408B4A49D7
:100EA00008830EA8007B9DF8431040EA012000B2A1
:100EB00045494883444890ED000A8DED050A90EDC0
:100EC000010A8DED060A90ED020A8DED070A90EDFC
:100ED000030A8DED080A90ED040A8DED090A90EDE4
:100EE000050A8DED0A0A008BADF82C003648408BC0
:100EF000ADF82E003448C0690C90334890F82000BB
:100F00008DF83400142209A9684609F0E1FE05A80D
:100F10000FC800F067F82C4800E005E0D0ED010AAA
:100F200030EE200A80ED010A13B0BDEC048B00BD49
:100F3000F0B585B004460D4616461F4600208DF8D4
:100F400008008DF8090008208DF80A008001009043
:100F5000200A8DF80B00E1B28DF80C10290A8DF8EB
:100F60000D10E9B28DF80E10310A8DF80F10F1B2A4
:100F70008DF81010390A8DF81110F9B28DF8121091
:100F80006946124808F0ECFC05B0F0BD10B586B01B
:100F9000044600208DF80C008DF80D0002208DF81D
:100FA0000E0040F2FF100190200A8DF80F008DF81E
:100FB000104001A9054808F0D3FC06B010BD0000A0
:100FC000C0000020E4000020080100200064004070
:100FD000B5EEC00AF1EE10FA03D2F1EE400AB0EE1F
:100FE000600A70470FB400B5BDF91E00BDF91C10B2
:100FF000401A01EE100AB8EEC10AFFF7E9FFDFED73
:10100000FE0AB4EEE00AF1EE10FA11DDB8EEC10A04
:10101000FFF7DEFFF8EEC11AC1EE800AB8EEC10A92
:10102000DFEDF61A00EEE10ABDEEC00AB0EE401A9E
:10103000B8EEC10ADFEDF20A20EE200AF3EE031A41
:10104000C0EE210ADFEDED1A80EEA10A5DF814FB77
:101050009FEDEC0AEC4880ED010A9FEDEA0AEB48AF
:1010600080ED010A9FEDE70AE94880ED010A9FED56
:10107000E50AE84880ED010A9FEDE20AE64880EDC6
:10108000010A0120E04981F82000E04981F82000B0
:10109000DF4981F82000DF4981F82000DE4981F82E
:1010A00020009FEDD80AD84880ED020A9FEDD50AAE
:1010B000D64880ED020A9FEDD30AD54880ED020A9A
:1010C0009FEDD00AD34880ED020A9FEDCE0A084674
:1010D00080ED020A70479FEDD10AD14880ED000AE9
:1010E0009FEDD00A80ED010A9FEDC60A80ED020A4D
:1010F0009FEDCD0A80ED030A9FEDCC0A80ED040A36
:101100009FEDC00A80ED050A9FEDBE0A80ED060A3C
:101110000020C349C8619FEDC10AC54880ED000A9F
:101120009FEDC00A80ED010A9FEDB60A80ED020A2C
:101130009FEDBD0A80ED030A9FEDBC0A80ED040A15
:101140009FEDB00A80ED050A9FEDAE0A80ED060A1C
:101150000020B749C8619FEDB10AB64880ED000A8A
:101160009FEDB00A80ED010A9FEDA60A80ED020A0C
:101170009FEDAD0A80ED030A9FEDAC0A80ED040AF5
:101180009FEDA00A80ED050A9FED9E0A80ED060AFC
:101190000020A849C8619FEDA10AA74880ED000A78
:1011A0009FEDA00A80ED010A9FED960A80ED020AEC
:1011B0009FED9D0A80ED030A9FED9C0A80ED040AD5
:1011C0009FED900A80ED050A9FED8E0A80ED060ADC
:1011D00000209949C8619FED910A984880ED000A66
:1011E0009FED900A80ED010A9FED860A80ED020ACC
:1011F0009FED8D0A80ED030A9FED8C0A80ED040AB5
:101200009FED800A80ED050A9FED7E0A80ED060ABB
:1012100000208A49C86170479FED890A894880ED9E
:10122000000AB1EE040A80ED010A9FED760A80ED16
:10123000020A9FED7D0A80ED030A9FED830A80ED8F
:10124000040A9FED700A80ED050A9FED6E0A80ED9D
:10125000060A00207B49C8619FED7C0A084680EDA4
:10126000090A9FED7B0A80ED080A9FED750A79480F
:1012700080ED000AB1EE040A80ED010A9FED610ADB
:1012800080ED020A9FED680A80ED030A9FED6E0A69
:1012900080ED040A9FED5B0A80ED050A9FED590A77
:1012A00080ED060A00206B49C8619FED680A084678
:1012B00080ED090A9FED660A80ED080A9FED600A3D
:1012C000654880ED000AB1EE040A80ED010A9FED49
:1012D0004D0A80ED020A9FED540A80ED030A9FED4E
:1012E0005A0A80ED040A9FED470A80ED050A9FED3A
:1012F000450A80ED060A00205749C8619FED530A50
:10130000084680ED090A9FED520A80ED080A9FED1C
:101310004C0A524880ED000AB1EE040A80ED010A41
:101320009FED380A80ED020A9FED3F0A80ED030A27
:101330009FED450A80ED040A9FED320A80ED050A13
:101340009FED300A80ED060A00204449C8619FEDF8
:101350003F0A084680ED090A9FED3D0A80ED080A24
:101360009FED3F0A3F4880ED000AB1EE040A80ED90
:10137000010A9FED240A80ED020A9FED2B0A80ED01
:10138000030A9FED310A80ED040A9FED1E0A80EDED
:10139000050A9FED1C0A80ED060A00203149C8614C
:1013A0009FED2A0A084680ED090A9FED290A80ED83
:1013B000080A70479FED2C0A2C4880ED000A9FED2B
:1013C000110A80ED010A9FED2A0A80ED020A9FEDC5
:1013D000160A80ED030A9FED270A80ED040A9FEDAF
:1013E000090A80ED050A9FED070A80ED060A002034
:1013F0001E49C86140E0000000007A450000004638
:101400000000B44300000000780000209C00002091
:10141000C0000020E4000020080100206666A63F0E
:101420007C0100208FC2F53C00007A4600806D45AB
:10143000F40100206C020020E40200205C03002084
:1014400000007A435401002000409C4500007A448B
:101450000000C843CC01002044020020BC02002050
:1014600000005C433403002085EBD13E2C010020BA
:1014700017B7D1380000FA44B3EE040A084680EDED
:10148000090A9FEDFB0A80ED080A1FED090AF948D9
:1014900080ED000A1FED250A80ED010A1FED0C0A00
:1014A00080ED020A1FED200A80ED030A1FED0F0AEE
:1014B00080ED040A1FED2D0A80ED050A1FED2F0AAD
:1014C00080ED060A0020EB49C861B3EE040A084625
:1014D00080ED090A9FEDE60A80ED080A1FED1E0A5D
:1014E000E54880ED000A1FED390A80ED010A1FED85
:1014F000200A80ED020A1FED340A80ED030A1FED79
:10150000230A80ED040A1FED410A80ED050A1FED54
:10151000430A80ED060A0020D749C861B3EE040AE9
:10152000084680ED090A9FEDD20A80ED080A1FEDFA
:10153000320AD24880ED000A1FED4E0A80ED010A02
:101540001FED350A80ED020A1FED490A80ED030AFE
:101550001FED380A80ED040A1FED560A80ED050ADA
:101560001FED580A80ED060A0020C449C861B3EE99
:10157000040A084680ED090A9FEDBD0A80ED080ABD
:10158000B7EE000ABE4880ED000A1FED620A80ED4A
:10159000010A9FEDBC0A80ED020A1FED5D0A80ED95
:1015A000030A1FED4C0A80ED040A1FED6A0A80ED64
:1015B000050A1FED6C0A80ED060A0020B049C861DB
:1015C000B3EE040A084680ED090A9FEDA90A80EDF2
:1015D000080A704700B5FFF77EFDFFF71DFEFFF715
:1015E000E9FE00BD00B5B0EE403AF0EE603A33EEF1
:1015F000630AB0EE401AC169012914D1B0EE410A64
:10160000FFF7E6FCD0ED090AB4EEE00AF1EE10FABD
:1016100004DB90ED080A60EE011A08E090ED000A84
:1016200060EE011A03E090ED000A60EE011A90ED01
:10163000010A20EE015A90ED050A30EE052A90EDE0
:10164000040AB4EEC20AF1EE10FA04D290ED040AD4
:1016500080ED050A15E090ED040AFFEE000A20EE89
:10166000200AB4EEC20AF1EE10FA08DD90ED040A89
:10167000FFEE000A20EE200A80ED050A01E080ED71
:10168000052A90ED060A31EE404A90ED020A60EE1E
:10169000044A80ED061A90ED050A30EE210A70EE3C
:1016A000242A90ED030AB4EEE20AF1EE10FA02D811
:1016B00090ED030A00BD90ED030AFFEE000A20EE54
:1016C000200AB4EEE20AF1EE10FA06DD90ED030A0C
:1016D000FFEE000A20EE200AECE7B0EE620AE9E72E
:1016E00010B5694890F82000012814D0022802D0D3
:1016F000052833D11FE0644890ED011AF0EE410A4D
:1017000090ED001AB0EE410A6048FFF76BFF5E48AB
:1017100080ED020A00BF5C4890ED031AF0EE410A2A
:1017200090ED021AB0EE410A5948FFF75BFF5648A8
:1017300080ED040A00BF544890ED051AF0EE410A0E
:1017400090ED041AB0EE410A5248FFF74BFFBDEE90
:10175000C00A10EE100A4C49C86100E000BF00BF8B
:101760004D4890F82000012814D0022802D0052806
:1017700033D11FE0484890ED011AF0EE410A90ED98
:10178000001AB0EE410A3B48FFF72CFF424880EDBB
:10179000020A00BF404890ED031AF0EE410A90EDB6
:1017A000021AB0EE410A3D48FFF71CFF3A4880EDAF
:1017B000040A00BF384890ED051AF0EE410A90ED9A
:1017C000041AB0EE410A3648FFF70CFFBDEEC00A1E
:1017D00010EE100A3049C86100E000BF00BF314878
:1017E00090F82000012814D0022802D0052833D117
:1017F0001FE02C4890ED011AF0EE410A90ED001A1E
:10180000B0EE410A1C48FFF7EDFE264880ED020AC3
:1018100000BF244890ED031AF0EE410A90ED021A41
:10182000B0EE410A2048FFF7DDFE1E4880ED040AB5
:1018300000BF1C4890ED051AF0EE410A90ED041A25
:10184000B0EE410A1948FFF7CDFEBDEEC00A10EE1A
:10185000100A1449C86100E000BF00BF144890F8A6
:101860002000012836D0022824D0052855D141E097
:1018700000004842A40100201C0200209402002025
:101880000C0300200AD7233C780000202C01002004
:10189000540100207C0100209C000020CC0100208D
:1018A000F4010020C0000020440200206C0200204F
:1018B000E40000208D4890ED011AF0EE410A90ED11
:1018C000001AB0EE410A8A48FFF78CFE874880ED87
:1018D000020A00BF854890ED031AF0EE410A90ED30
:1018E000021AB0EE410A8348FFF77CFE7F4880ED84
:1018F000040A00BF7D4890ED051AF0EE410A90ED14
:10190000041AB0EE410A7C48FFF76CFEBDEEC00A37
:1019100010EE100A7549C86100E000BF00BF7748AB
:1019200090F82000012814D0022802D0052833D1D5
:101930001FE0724890ED011AF0EE410A90ED001A96
:10194000B0EE410A6E48FFF74DFE6C4880ED020A8A
:1019500000BF6A4890ED031AF0EE410A90ED021ABA
:10196000B0EE410A6748FFF73DFE644880ED040A87
:1019700000BF624890ED051AF0EE410A90ED041A9E
:10198000B0EE410A6048FFF72DFEBDEEC00A10EE32
:10199000100A5A49C86100E000BF00BF534CE46917
:1019A00023B25A4CE46922B2594CE46921B2594C31
:1019B000E46920B2FFF7BCFA5049C96908B2FFF7E1
:1019C000E5FA10BD10B52DED068BB0EE40AAB0EED5
:1019D000608AF0EE418AB0EE619AF0EE429A012000
:1019E0004C4981F820004A4981F82000474981F894
:1019F00020003E4981F82000404981F820004548F8
:101A000080ED02AA424880ED028A4048C0ED028A79
:101A1000364880ED029A0846C0ED029AFFF760FE54
:101A2000BDEC068B10BD10B52DED068BB0EE40AAB7
:101A3000B0EE608AF0EE418AB0EE619AF0EE429A22
:101A40000520344981F82000314981F820002F49D0
:101A500081F82000254981F82000284981F82000DC
:101A60002C4880ED00AA2A4880ED008A2748C0ED66
:101A7000008A1E4880ED009A0846C0ED009AFFF7E4
:101A80002FFEBDEC068B10BD10B52DED068BB0EE14
:101A900040AAB0EE608AF0EE418AB0EE619AF0EEB4
:101AA000429A02201B4981F82000194981F8200040
:101AB000164981F820000D4981F820000F4981F86E
:101AC0002000144880ED00AA114880ED008A0F48DC
:101AD000C0ED008A054880ED009A0846C0ED009AE6
:101AE000FFF7FEFDBDEC068B10BD0000E4000020FA
:101AF00094020020BC020020E40200200801002023
:101B00000C030020340300205C030020C0000020F0
:101B10009C00002078000020B5EEC00AF1EE10FA1B
:101B200001D100207047B5EEC00AF1EE10FA01DDD8
:101B30000120F7E74FF0FF30F4E702466FF00201B3
:101B4000FE48D0ED012AFE4890ED003A72EEC32A1D
:101B5000FC4890ED003A72EEC32AF0EE620AFA48B1
:101B6000D0ED012AF64890ED013A72EEC32AF5480D
:101B700090ED013A72EEC32AB0EE622AF348D0ED3E
:101B8000012AEF4890ED023A72EEC32AED4890ED3B
:101B9000023A72EEC32AB0EE621AED48D0ED012A85
:101BA000E74890ED033A72EEC32AE64890ED033A17
:101BB00072EEC32AF0EE621AF4EEC00AF1EE10FAE9
:101BC00007D2F1EE402AF4EEE20AF1EE10FA00DD5F
:101BD000491CB4EEC02AF1EE10FA07D2F1EE402A09
:101BE000B4EEE22AF1EE10FA00DD491CB4EEC01AA0
:101BF000F1EE10FA07D2F1EE402AB4EEE21AF1EE5D
:101C000010FA00DD491CF4EEC01AF1EE10FA07D20A
:101C1000F1EE402AF4EEE21AF1EE10FA00DD491C72
:101C2000914201DD012070470020FCE700B52DED59
:101C3000040B99B09DED1B0ADDED190A30EE600A28
:101C4000DFEDC40A20EE200A8DED120A9DED1C0A7C
:101C5000DDED1A0A30EE600ADFEDBE0A20EE200A42
:101C60008DED110A9FEDBC0A8DED100AB34890ED81
:101C7000010AB34880ED000AB34890ED010AB0486C
:101C800080ED010AB14890ED010AAD4880ED020AED
:101C9000AF4890ED010AAA4880ED030A9DED120AB3
:101CA0009FEDAE1AC0EE010A9FEDAD0A20EE800A4C
:101CB000A44880ED000A9DED110AB1EE400A9FEDA7
:101CC000A71AC0EE010A9FEDA60A20EE800A80ED59
:101CD000010A90ED000AB1EE400A80ED020A90ED93
:101CE000010AB1EE400A80ED030A00209D49086018
:101CF00023E094489B49096800EB810090ED000ABD
:101D0000B5EEC00AF1EE10FA09D29FED970A13A8BA
:101D10009449096800EB810080ED000A08E09FED1E
:101D2000930A13A88F49096800EB810080ED000A2F
:101D30008C480068401C8B4908608A480068042869
:101D4000D7DB00BF9DED100ADFED880AB4EEE00A94
:101D5000F1EE10FA7DD211980AF012FACDE90001E5
:101D60009DED000B09F0A8F88DED040B12980AF018
:101D700007FACDE900019DED000B09F09DF88DED0E
:101D8000020B9DED040B53EC102B9DED020B51EC5F
:101D9000100B09F05FFDCDE9080111980AF0F0F988
:101DA000CDE900019DED000B09F086F88DED040BE7
:101DB0009DED160A8DED000A9DED000AFFF7ACFEC1
:101DC00000EE100AF8EEC00A9DED100A20EE800A1F
:101DD0008DED010A01980AF0D3F9CDE902019DEDDC
:101DE000040B53EC102B9DED020B51EC100B09F082
:101DF000D3FFCDE906019DED080B53EC102B9DEDB3
:101E0000060B51EC100B09F0D9FDCDE90A019DED4F
:101E10000A0B51EC100B09F0EBFC0F9011980AF033
:101E2000AFF9CDE900019DED000B09F045F88DED0E
:101E3000040B12980AF0A4F9CDE900019DED000B06
:101E400009F03AF88DED020B9DED040B53EC102BCD
:101E500000E03FE19DED020B51EC100B09F0FAFCA4
:101E6000CDE9080112980AF08BF9CDE900019DED4A
:101E7000000B09F021F88DED040B9DED150A8DED99
:101E8000000A9DED000AFFF747FE00EE100AF8EE8B
:101E9000C00A9DED100A20EE800A8DED010A01981E
:101EA0000AF06EF9CDE902019DED040B53EC102B05
:101EB0009DED020B51EC100B09F06EFFCDE9060110
:101EC0009DED080B53EC102B9DED060B51EC100B08
:101ED00009F074FDCDE90A019DED0A0B51EC100BE0
:101EE00009F086FC0E9011980AF04AF9CDE900013C
:101EF0009DED000B08F0E0FF8DED040B12980AF049
:101F00003FF9CDE900019DED000B08F0D5FF8DED07
:101F1000020B9DED040B53EC102B9DED020B51ECCD
:101F2000100B09F097FCCDE9080111980AF028F987
:101F3000CDE900019DED000B1AE0000078000020C3
:101F4000A4030020900300209C000020C00000207B
:101F5000E40000206666863F00000000959E6B430B
:101F60000000B44328000020000048C3000048439C
:101F700008F0A2FF8DED040B9DED140A8DED000A13
:101F80009DED000AFFF7C8FD00EE100AF8EEC00A4A
:101F90009DED100A20EE800A8DED010A01980AF0ED
:101FA000EFF8CDE902019DED040B53EC102B9DEDF4
:101FB000020B51EC100B09F0EFFECDE906019DED8F
:101FC000080B53EC102B9DED060B51EC100B09F098
:101FD000F5FCCDE90A019DED0A0B51EC100B09F05F
:101FE00007FC0D9011980AF0CBF8CDE900019DEDAA
:101FF000000B08F061FF8DED040B12980AF0C0F899
:10200000CDE900019DED000B08F056FF8DED020BB0
:102010009DED040B53EC102B9DED020B51EC100BBE
:1020200009F018FCCDE9080112980AF0A9F8CDE9E9
:1020300000019DED000B08F03FFF8DED040B9DEDC1
:10204000130A8DED000A9DED000AFFF765FD00EE15
:10205000100AF8EEC00A9DED100A20EE800A8DED00
:10206000010A01980AF08CF8CDE902019DED040BFC
:1020700053EC102B9DED020B51EC100B09F08CFE74
:10208000CDE906019DED080B53EC102B9DED060BE1
:1020900051EC100B09F092FCCDE90A019DED0A0B01
:1020A00051EC100B09F0A4FB1FED552A0C90DDED4F
:1020B0000F1A9DED0E1ADDED0D0A9DED0C0AFFF7CE
:1020C00081FC9DED100ADFEDFE0A30EE200A8DED59
:1020D000100A53E111980AF053F8CDE900019DED83
:1020E000000B08F0E9FE8DED040B12980AF048F899
:1020F000CDE900019DED000B08F0DEFE8DED020B39
:102100009DED040B53EC102B9DED020B51EC100BCD
:1021100009F0A0FBCDE9080111980AF031F8CDE9EA
:1021200000019DED000B08F0C7FE8DED040B169825
:1021300001900AF025F8CDE902019DED040B53EC66
:10214000102B9DED020B51EC100B09F025FECDE993
:1021500006019DED080B53EC102B9DED060B51EC89
:10216000100B09F02BFCCDE90A019DED0A0B51EC97
:10217000100B09F03DFB0F9011980AF001F8CDE922
:1021800000019DED000B08F097FE8DED040B1298F9
:1021900009F0F6FFCDE900019DED000B08F08CFE83
:1021A0008DED020B9DED040B53EC102B9DED020BFE
:1021B00051EC100B09F04EFBCDE90801129809F023
:1021C000DFFFCDE900019DED000B08F075FE8DED00
:1021D000040B1598019009F0D3FFCDE902019DEDA4
:1021E000040B53EC102B9DED020B51EC100B09F07E
:1021F000D3FDCDE906019DED080B53EC102B9DEDB1
:10220000060B51EC100B09F0D9FBCDE90A019DED4D
:102210000A0B51EC100B09F0EBFA0E90119809F033
:10222000AFFFCDE900019DED000B08F045FE8DEDFF
:10223000040B129809F0A4FFCDE900019DED000BFD
:1022400008F03AFE8DED020B9DED040B53EC102BC4
:102250009DED020B51EC100B09F0FCFACDE90801E1
:10226000119809F08DFFCDE900019DED000B08F0FC
:1022700023FE8DED040B1498019009F081FFCDE948
:1022800002019DED040B53EC102B9DED020B51EC64
:10229000100B09F081FDCDE906019DED080B53EC13
:1022A000102B9DED060B51EC100B09F087FBCDE9CF
:1022B0000A019DED0A0B51EC100B09F099FA0D90F3
:1022C000119809F05DFFCDE900019DED000B08F0CC
:1022D000F3FD8DED040B129809F052FFCDE90001DA
:1022E0009DED000B08F0E8FD8DED020B9DED040B5C
:1022F00053EC102B9DED020B51EC100B09F0AAFAD8
:10230000CDE90801129809F03BFFCDE900019DEDF0
:10231000000B08F0D1FD8DED040B1398019009F02E
:102320002FFFCDE902019DED040B53EC102B9DED29
:10233000020B51EC100B09F02FFDCDE906019DEDCC
:10234000080B53EC102B9DED060B51EC100B09F014
:1023500035FBCDE90A019DED0A0B51EC100B09F09C
:1023600047FA9FED582A0C90DDED0F1A9DED0E1ADD
:10237000DDED0D0A9DED0C0AFFF724FB022005F0B0
:10238000B3FD4FF0FF309FED500AFFF7D6FB00285A
:102390003FF4D8AC9DED100ADFED4C0AB4EEE00A34
:1023A000F1EE10FA03D29FED490A8DED100A00BF3D
:1023B000119809F0E5FECDE900019DED000B08F054
:1023C0007BFD8DED040B129809F0DAFECDE90001DA
:1023D0009DED000B08F070FD8DED020B9DED040BE3
:1023E00053EC102B9DED020B51EC100B09F032FA5F
:1023F000CDE90801119809F0C3FECDE900019DED7A
:10240000000B08F059FD8DED040B9DED160A8DEDC6
:10241000000A9DED000AFFF77FFB00EE100AF8EEC0
:10242000C00A9DED100A20EE800A8DED010A019888
:1024300009F0A6FECDE902019DED040B53EC102B33
:102440009DED020B51EC100B09F0A6FCCDE9060145
:102450009DED080B53EC102B9DED060B51EC100B72
:1024600009F0ACFACDE90A019DED0A0B51EC100B15
:1024700009F0BEF90F90119809F082FECDE9000134
:102480009DED000B08F018FD8DED040B129809F07E
:1024900077FECDE900019DED000B08F00DFD8DEDFF
:1024A000020B9DED040B53EC102B9DED020B51EC38
:1024B000100B09F0CFF9CDE90801129808E00000EF
:1024C000CDCCCC3D000000000000C84300004842D5
:1024D00009F056FECDE900019DED000B08F0ECFC83
:1024E0008DED040B9DED150A8DED000A9DED000AA2
:1024F000FFF712FB00EE100AF8EEC00A9DED100A7D
:1025000020EE800A8DED010A019809F039FECDE92F
:1025100002019DED040B53EC102B9DED020B51ECD1
:10252000100B09F039FCCDE906019DED080B53ECC9
:10253000102B9DED060B51EC100B09F03FFACDE985
:102540000A019DED0A0B51EC100B09F051F90E90A8
:10255000119809F015FECDE900019DED000B08F082
:10256000ABFC8DED040B129809F00AFECDE90001D9
:102570009DED000B08F0A0FC8DED020B9DED040B12
:1025800053EC102B9DED020B51EC100B09F062F98E
:10259000CDE90801119809F0F3FDCDE900019DEDA9
:1025A000000B08F089FC8DED040B9DED140A8DEDF8
:1025B000000A9DED000AFFF7AFFA00EE100AF8EEF0
:1025C000C00A9DED100A20EE800A8DED010A0198E7
:1025D00009F0D6FDCDE902019DED040B53EC102B63
:1025E0009DED020B51EC100B09F0D6FBCDE9060175
:1025F0009DED080B53EC102B9DED060B51EC100BD1
:1026000009F0DCF9CDE90A019DED0A0B51EC100B44
:1026100009F0EEF80D90119809F0B2FDCDE9000136
:102620009DED000B08F048FC8DED040B129809F0AD
:10263000A7FDCDE900019DED000B08F03DFC8DEDFF
:10264000020B9DED040B53EC102B9DED020B51EC96
:10265000100B09F0FFF8CDE90801129809F090FD80
:10266000CDE900019DED000B08F026FC8DED040B7B
:102670009DED130A8DED000A9DED000AFFF74CFA5F
:1026800000EE100AF8EEC00A9DED100A20EE800A56
:102690008DED010A019809F073FDCDE902019DED70
:1026A000040B53EC102B9DED020B51EC100B09F0B9
:1026B00073FBCDE906019DED080B53EC102B9DED4E
:1026C000060B51EC100B09F079F9CDE90A019DEDEB
:1026D0000A0B51EC100B09F08BF81FED862A0C90B9
:1026E000DDED0F1A9DED0E1ADDED0D0A9DED0C0AC4
:1026F000FFF768F99DED100A5FED8C0AB4EEE00A71
:10270000F1EE10FA07DD9DED100ADFEDFE0A30EE66
:10271000600A8DED100A022005F0E6FB4FF0FF3055
:102720001FED960AFFF709FA00283FF441AE9DED30
:102730001B0AF54880ED000A9DED1C0A80ED010A98
:102740001DB000BD00B52DED040B99B09DED1B0A29
:10275000DDED190A30EE600ADFEDEC0A20EE200A0A
:102760008DED120A9DED1C0ADDED1A0A30EE600AAD
:10277000DFEDE60A20EE200A8DED110A1FEDAF0A0B
:102780008DED100AE24890ED010AE24880ED000A62
:10279000E14890ED010ADF4880ED010ADF4890ED45
:1027A000010ADC4880ED020ADD4890ED010AD948B3
:1027B00080ED030A9DED120A9FEDDA1AC0EE010AC0
:1027C0009FEDD90A20EE800AD84880ED000A9DEDE1
:1027D000110AB1EE400A9FEDD31AC0EE010A9FED37
:1027E000D20A20EE800A80ED010A90ED000AB1EED7
:1027F000400A80ED020A90ED010AB1EE400A80ED38
:10280000030A0020CA49086023E0C848C84909688B
:1028100000EB810090ED000AB5EEC00AF1EE10FA6F
:1028200009D29FEDC40A13A8C149096800EB8100D1
:1028300080ED000A08E01FEDDC0A13A8BC49096816
:1028400000EB810080ED000AB9480068401CB849DF
:102850000860B74800680428D7DB00BF9DED100A68
:102860005FEDE70AB4EEE00AF1EE10FA7DD21198BE
:1028700009F086FCCDE900019DED000B08F01CFB82
:102880008DED040B129809F07BFCCDE900019DED64
:10289000000B08F011FB8DED020B9DED040B53ECCA
:1028A000102B9DED020B51EC100B08F0D3FFCDE97E
:1028B0000801119809F064FCCDE900019DED000BC1
:1028C00008F0FAFA8DED040B9DED160A8DED000A65
:1028D0009DED000AFFF720F900EE100AF8EEC00A9D
:1028E0009DED100A20EE800A8DED010A019809F095
:1028F00047FCCDE902019DED040B53EC102B9DED3F
:10290000020B51EC100B09F047FACDE906019DEDE1
:10291000080B53EC102B9DED060B51EC100B09F03E
:102920004DF8CDE90A019DED0A0B51EC100B08F0B2
:102930005FFF0F90119809F023FCCDE900019DED98
:10294000000B08F0B9FA8DED040B129809F018FC91
:10295000CDE900019DED000B08F0AEFA8DED020B04
:102960009DED040B53EC102B00E03FE19DED020BBD
:1029700051EC100B08F06EFFCDE90801129809F038
:10298000FFFBCDE900019DED000B08F095FA8DED00
:10299000040B9DED150A8DED000A9DED000AFFF771
:1029A000BBF800EE100AF8EEC00A9DED100A20EE0A
:1029B000800A8DED010A019809F0E2FBCDE90201E0
:1029C0009DED040B53EC102B9DED020B51EC100B05
:1029D00009F0E2F9CDE906019DED080B53EC102B4F
:1029E0009DED060B51EC100B08F0E8FFCDE90A0154
:1029F0009DED0A0B51EC100B08F0FAFE0E901198A9
:102A000009F0BEFBCDE900019DED000B08F054FA82
:102A10008DED040B129809F0B3FBCDE900019DED9B
:102A2000000B08F049FA8DED020B9DED040B53EC01
:102A3000102B9DED020B51EC100B08F00BFFCDE9B4
:102A40000801119809F09CFBCDE900019DED000BF8
:102A500008F032FA8DED040B9DED140A8DED000A9D
:102A60009DED000AFFF758F800EE100AF8EEC00AD4
:102A70009DED100A20EE800A8DED010A019809F003
:102A80007FFBCDE902019DED040B53EC102B9DED76
:102A9000020B51EC100B09F07FF9CDE906019DED19
:102AA000080B53EC102B9DED060B51EC100B08F0AE
:102AB00085FFCDE90A019DED0A0B51EC100B08F0E2
:102AC00097FE0D90119809F05BFBCDE900019DED9B
:102AD000000B08F0F1F98DED040B129809F050FB92
:102AE000CDE900019DED000B08F0E6F98DED020B3C
:102AF0009DED040B53EC102B9DED020B51EC100BD4
:102B00001AE00000CDCCCC3E840300206666863FF0
:102B100078000020A40300209C000020C0000020BA
:102B2000E4000020959E6B430000B4439003002016
:102B3000280000200000C8C308F08CFECDE9080181
:102B4000129809F01DFBCDE900019DED000B08F086
:102B5000B3F98DED040B9DED130A8DED000A9DED8B
:102B6000000AFEF7D9FF00EE100AF8EEC00A9DED4C
:102B7000100A20EE800A8DED010A019809F000FB91
:102B8000CDE902019DED040B53EC102B9DED020BE2
:102B900051EC100B09F000F9CDE906019DED080B91
:102BA00053EC102B9DED060B51EC100B08F006FFBB
:102BB000CDE90A019DED0A0B51EC100B08F018FE4F
:102BC0009FEDFE2A0C90DDED0F1A9DED0E1ADDED46
:102BD0000D0A9DED0C0AFEF7F5FE9DED100A5FED66
:102BE000370A30EE200A8DED100A53E1119809F0F2
:102BF000C7FACDE900019DED000B08F05DF98DED00
:102C0000040B129809F0BCFACDE900019DED000B10
:102C100008F052F98DED020B9DED040B53EC102BD7
:102C20009DED020B51EC100B08F014FECDE90801EC
:102C3000119809F0A5FACDE900019DED000B08F00F
:102C40003BF98DED040B1698019009F099FACDE946
:102C500002019DED040B53EC102B9DED020B51EC8A
:102C6000100B09F099F8CDE906019DED080B53EC26
:102C7000102B9DED060B51EC100B08F09FFECDE9DB
:102C80000A019DED0A0B51EC100B08F0B1FD0F90FD
:102C9000119809F075FACDE900019DED000B08F0DF
:102CA0000BF98DED040B129809F06AFACDE90001D9
:102CB0009DED000B08F000F98DED020B9DED040B6E
:102CC00053EC102B9DED020B51EC100B08F0C2FDE4
:102CD000CDE90801129809F053FACDE900019DED04
:102CE000000B08F0E9F88DED040B1598019009F040
:102CF00047FACDE902019DED040B53EC102B9DED3D
:102D0000020B51EC100B09F047F8CDE906019DEDDF
:102D1000080B53EC102B9DED060B51EC100B08F03B
:102D20004DFECDE90A019DED0A0B51EC100B08F0A8
:102D30005FFD0E90119809F023FACDE900019DED99
:102D4000000B08F0B9F88DED040B129809F018FA91
:102D5000CDE900019DED000B08F0AEF88DED020B02
:102D60009DED040B53EC102B9DED020B51EC100B61
:102D700008F070FDCDE90801119809F001FACDE9DC
:102D800000019DED000B08F097F88DED040B1498F1
:102D9000019009F0F5F9CDE902019DED040B53EC2A
:102DA000102B9DED020B51EC100B08F0F5FFCDE957
:102DB00006019DED080B53EC102B9DED060B51EC1D
:102DC000100B08F0FBFDCDE90A019DED0A0B51EC5B
:102DD000100B08F00DFD0D90119809F0D1F9CDE917
:102DE00000019DED000B08F067F88DED040B1298C3
:102DF00009F0C6F9CDE900019DED000B08F05CF883
:102E00008DED020B9DED040B53EC102B9DED020B91
:102E100051EC100B08F01EFDCDE90801129809F0E5
:102E2000AFF9CDE900019DED000B08F045F88DEDFF
:102E3000040B1398019009F0A3F9CDE902019DED6F
:102E4000040B53EC102B9DED020B51EC100B08F012
:102E5000A3FFCDE906019DED080B53EC102B9DED72
:102E6000060B51EC100B08F0A9FDCDE90A019DED10
:102E70000A0B51EC100B08F0BBFC9FED502A0C9094
:102E8000DDED0F1A9DED0E1ADDED0D0A9DED0C0A1C
:102E9000FEF798FD022005F027F84FF0FF309FED78
:102EA000480AFEF74AFE00283FF4D8AC9DED100A10
:102EB000DFED440AB4EEE00AF1EE10FA03D29FED22
:102EC000410A8DED100A00BF119809F059F9CDE9BA
:102ED00000019DED000B07F0EFFF8DED040B129844
:102EE00009F04EF9CDE900019DED000B07F0E4FF7C
:102EF0008DED020B9DED040B53EC102B9DED020BA1
:102F000051EC100B08F0A6FCCDE90801119809F06E
:102F100037F9CDE900019DED000B07F0CDFF8DEDF8
:102F2000040B9DED160A8DED000A9DED000AFEF7DB
:102F3000F3FD00EE100AF8EEC00A9DED100A20EE37
:102F4000800A8DED010A019809F01AF9CDE9020114
:102F50009DED040B53EC102B9DED020B51EC100B6F
:102F600008F01AFFCDE906019DED080B53EC102B7C
:102F70009DED060B51EC100B08F020FDCDE90A0188
:102F80009DED0A0B51EC100B08F032FC0F901198DC
:102F900009F0F6F8CDE900019DED000B07F08CFF7C
:102FA0008DED040B129809F0EBF8CDE900019DEDD1
:102FB000000B07F081FF8DED020B05E00000000023
:102FC000008009440000C8429DED040B53EC102B17
:102FD0009DED020B51EC100B08F03CFCCDE9080113
:102FE000129809F0CDF8CDE900019DED000B07F036
:102FF00063FF8DED040B9DED150A8DED000A9DED2F
:10300000000AFEF789FD00EE100AF8EEC00A9DEDF9
:10301000100A20EE800A8DED010A019809F0B0F83F
:10302000CDE902019DED040B53EC102B9DED020B3D
:1030300051EC100B08F0B0FECDE906019DED080B38
:1030400053EC102B9DED060B51EC100B08F0B6FC69
:10305000CDE90A019DED0A0B51EC100B08F0C8FBFD
:103060000E90119809F08CF8CDE900019DED000B50
:1030700007F022FF8DED040B129809F081F8CDE9DD
:1030800000019DED000B07F017FF8DED020B9DED8C
:10309000040B53EC102B9DED020B51EC100B08F0C0
:1030A000D9FBCDE90801119809F06AF8CDE90001D2
:1030B0009DED000B07F000FF8DED040B9DED140A54
:1030C0008DED000A9DED000AFEF726FD00EE100AC8
:1030D000F8EEC00A9DED100A20EE800A8DED010A7F
:1030E000019809F04DF8CDE902019DED040B53EC78
:1030F000102B9DED020B51EC100B08F04DFECDE9AD
:1031000006019DED080B53EC102B9DED060B51ECC9
:10311000100B08F053FCCDE90A019DED0A0B51ECB0
:10312000100B08F065FB0D90119809F029F8CDE916
:1031300000019DED000B07F0BFFE8DED040B129812
:1031400009F01EF8CDE900019DED000B07F0B4FE7B
:103150008DED020B9DED040B53EC102B9DED020B3E
:1031600051EC100B08F076FBCDE90801129809F03C
:1031700007F8CDE900019DED000B07F09DFE8DEDF8
:10318000040B9DED130A8DED000A9DED000AFEF77C
:10319000C3FC00EE100AF8EEC00A9DED100A20EE06
:1031A000800A8DED010A019808F0EAFFCDE90201DD
:1031B0009DED040B53EC102B9DED020B51EC100B0D
:1031C00008F0EAFDCDE906019DED080B53EC102B4C
:1031D0009DED060B51EC100B08F0F0FBCDE90A0158
:1031E0009DED0A0B51EC100B08F002FB1FED8D2A30
:1031F0000C90DDED0F1A9DED0E1ADDED0D0A9DED23
:103200000C0AFEF7DFFB9DED100A5FED920AB4EEAB
:10321000E00AF1EE10FA07DD9DED100ADFEDFE0A7F
:1032200030EE600A8DED100A022004F05DFE4FF0D2
:10323000FF301FED9C0AFEF780FC00283FF444AEEF
:103240009DED1B0AF54880ED000A9DED1C0A80EDFE
:10325000010A1DB000BD00B52DED040B99B09DED28
:103260001B0ADDED190A30EE600ADFEDED0A20EEF3
:10327000200A8DED120A9DED1C0ADDED1A0A30EED2
:10328000600ADFEDE70A20EE200A8DED110A1FED3E
:10329000B50A8DED100AE34890ED010AE24880ED91
:1032A000000AE24890ED010ADF4880ED010AE0489B
:1032B00090ED010ADC4880ED020ADE4890ED010A3B
:1032C000D94880ED030A9DED120A9FEDDB1AC0EE8E
:1032D000010A9FEDDA0A20EE800AD94880ED000A43
:1032E0009DED110AB1EE400A9FEDD31AC0EE010A1E
:1032F0009FEDD20A20EE800A80ED010A90ED000ACF
:10330000B1EE400A80ED020A90ED010AB1EE400AEA
:1033100080ED030A0020CB49086023E0C848C94972
:10332000096800EB810090ED000AB5EEC00AF1EEED
:1033300010FA09D29FEDC40A13A8C249096800EB2C
:10334000810080ED000A08E09FEDC00A13A8BD4986
:10335000096800EB810080ED000ABA480068401C53
:10336000B8490860B74800680428D7DB00BF9DED66
:10337000100ADFEDB70AB4EEE00AF1EE10FA7DD2E2
:10338000119808F0FDFECDE900019DED000B07F05E
:1033900093FD8DED040B129808F0F2FECDE90001CB
:1033A0009DED000B07F088FD8DED020B9DED040BEC
:1033B00053EC102B9DED020B51EC100B08F04AFA68
:1033C000CDE90801119808F0DBFECDE900019DED83
:1033D000000B07F071FD8DED040B9DED160A8DEDD0
:1033E000000A9DED000AFEF797FB00EE100AF8EECA
:1033F000C00A9DED100A20EE800A8DED010A0198A9
:1034000008F0BEFECDE902019DED040B53EC102B3C
:103410009DED020B51EC100B08F0BEFCCDE906014E
:103420009DED080B53EC102B9DED060B51EC100B92
:1034300008F0C4FACDE90A019DED0A0B51EC100B1E
:1034400008F0D6F90F90119808F09AFECDE9000126
:103450009DED000B07F030FD8DED040B129808F088
:103460008FFECDE900019DED000B07F025FD8DEDF0
:10347000020B9DED040B53EC102B00E042E19DED9F
:10348000020B51EC100B08F0E5F9CDE90801129898
:1034900008F076FECDE900019DED000B07F00CFD74
:1034A0008DED040B9DED150A8DED000A9DED000AD2
:1034B000FEF732FB00EE100AF8EEC00A9DED100A8E
:1034C00020EE800A8DED010A019808F059FECDE941
:1034D00002019DED040B53EC102B9DED020B51EC02
:1034E000100B08F059FCCDE906019DED080B53ECDB
:1034F000102B9DED060B51EC100B08F05FFACDE997
:103500000A019DED0A0B51EC100B08F071F90E90B9
:10351000119808F035FECDE900019DED000B07F094
:10352000CBFC8DED040B129808F02AFECDE90001CA
:103530009DED000B07F0C0FC8DED020B9DED040B23
:1035400053EC102B9DED020B51EC100B08F082F99F
:10355000CDE90801119808F013FECDE900019DEDB9
:10356000000B07F0A9FC8DED040B9DED140A8DED09
:10357000000A9DED000AFEF7CFFA00EE100AF8EE01
:10358000C00A9DED100A20EE800A8DED010A019817
:1035900008F0F6FDCDE902019DED040B53EC102B74
:1035A0009DED020B51EC100B08F0F6FBCDE9060186
:1035B0009DED080B53EC102B9DED060B51EC100B01
:1035C00008F0FCF9CDE90A019DED0A0B51EC100B56
:1035D00008F00EF90D90119808F0D2FDCDE9000128
:1035E0009DED000B07F068FC8DED040B129808F0C0
:1035F000C7FDCDE900019DED000B07F05DFC8DEDF1
:10360000020B9DED040B53EC102B9DED020B51ECC6
:10361000100B08F01FF91DE09A99193F8403002050
:103620006666863F78000020A40300209C000020EE
:10363000C0000020E4000020959E6B430000B443CE
:1036400090030020280000200000FAC30000FA4385
:103650000000C843CDE90801129808F091FDCDE9BA
:1036600000019DED000B07F027FC8DED040B9DED97
:10367000130A8DED000A9DED000AFEF74DFA00EEEB
:10368000100AF8EEC00A9DED100A20EE800A8DEDBA
:10369000010A019808F074FDCDE902019DED040BCB
:1036A00053EC102B9DED020B51EC100B08F074FB4A
:1036B000CDE906019DED080B53EC102B9DED060B9B
:1036C00051EC100B08F07AF9CDE90A019DED0A0BD7
:1036D00051EC100B08F08CF89FEDFE2A0C90DDEDFC
:1036E0000F1A9DED0E1ADDED0D0A9DED0C0AFEF789
:1036F00069F99DED100ADFEDF80A30EE200A8DED34
:10370000100A53E1119808F03BFDCDE900019DED51
:10371000000B07F0D1FB8DED040B129808F030FD83
:10372000CDE900019DED000B07F0C6FB8DED020B0E
:103730009DED040B53EC102B9DED020B51EC100B87
:1037400008F088F8CDE90801119808F019FDCDE9D5
:1037500000019DED000B07F0AFFB8DED040B1698FB
:10376000019008F00DFDCDE902019DED040B53EC35
:10377000102B9DED020B51EC100B08F00DFBCDE969
:1037800006019DED080B53EC102B9DED060B51EC43
:10379000100B08F013F9CDE90A019DED0A0B51EC6D
:1037A000100B08F025F80F90119808F0E9FCCDE90E
:1037B00000019DED000B07F07FFB8DED040B1298CF
:1037C00008F0DEFCCDE900019DED000B07F074FB75
:1037D0008DED020B9DED040B53EC102B9DED020BB8
:1037E00051EC100B08F036F8CDE90801129808F0FA
:1037F000C7FCCDE900019DED000B07F05DFB8DEDF1
:10380000040B1598019008F0BBFCCDE902019DED79
:10381000040B53EC102B9DED020B51EC100B08F038
:10382000BBFACDE906019DED080B53EC102B9DED85
:10383000060B51EC100B08F0C1F8CDE90A019DED23
:103840000A0B51EC100B07F0D3FF0E90119808F003
:1038500097FCCDE900019DED000B07F02DFB8DEDF0
:10386000040B129808F08CFCCDE900019DED000BD3
:1038700007F022FB8DED020B9DED040B53EC102B9A
:103880009DED020B51EC100B07F0E4FFCDE90801B0
:10389000119808F075FCCDE900019DED000B07F0D3
:1038A0000BFB8DED040B1498019008F069FCCDE939
:1038B00002019DED040B53EC102B9DED020B51EC1E
:1038C000100B08F069FACDE906019DED080B53ECE9
:1038D000102B9DED060B51EC100B08F06FF8CDE9A5
:1038E0000A019DED0A0B51EC100B07F081FF0D90C2
:1038F000119808F045FCCDE900019DED000B07F0A3
:10390000DBFA8DED040B129808F03AFCCDE90001CA
:103910009DED000B07F0D0FA8DED020B9DED040B31
:1039200053EC102B9DED020B51EC100B07F092FFA6
:10393000CDE90801129808F023FCCDE900019DEDC6
:10394000000B07F0B9FA8DED040B1398019008F005
:1039500017FCCDE902019DED040B53EC102B9DEDFE
:10396000020B51EC100B08F017FACDE906019DEDA2
:10397000080B53EC102B9DED060B51EC100B08F0CF
:103980001DF8CDE90A019DED0A0B51EC100B07F073
:103990002FFF9FED502A0C90DDED0F1A9DED0E1AB2
:1039A000DDED0D0A9DED0C0AFEF70CF8022004F087
:1039B0009BFA4FF0FF309FED490AFEF7BEF8002852
:1039C0003FF4D5AC9DED100ADFED450AB4EEE00AF8
:1039D000F1EE10FA03D29FED420A8DED100A00BFFE
:1039E000119808F0CDFBCDE900019DED000B07F02B
:1039F00063FA8DED040B129808F0C2FBCDE90001CB
:103A00009DED000B07F058FA8DED020B9DED040BB8
:103A100053EC102B9DED020B51EC100B07F01AFF2D
:103A2000CDE90801119808F0ABFBCDE900019DED4F
:103A3000000B07F041FA8DED040B9DED160A8DED9C
:103A4000000A9DED000AFEF767F800EE100AF8EE96
:103A5000C00A9DED100A20EE800A8DED010A019842
:103A600008F08EFBCDE902019DED040B53EC102B09
:103A70009DED020B51EC100B08F08EF9CDE906011B
:103A80009DED080B53EC102B9DED060B51EC100B2C
:103A900007F094FFCDE90A019DED0A0B51EC100BE4
:103AA00007F0A6FE0F90119808F06AFBCDE900011F
:103AB0009DED000B07F000FA8DED040B129808F055
:103AC0005FFBCDE900019DED000B07F0F5F98DEDF1
:103AD000020B07E000000000CDCCCC3E00002F44DC
:103AE0000000C8429DED040B53EC102B9DED020B22
:103AF00051EC100B07F0AEFECDE90801129808F06A
:103B00003FFBCDE900019DED000B07F0D5F98DEDF0
:103B1000040B9DED150A8DED000A9DED000AFDF7E1
:103B2000FBFF00EE100AF8EEC00A9DED100A20EE31
:103B3000800A8DED010A019808F022FBCDE902010F
:103B40009DED040B53EC102B9DED020B51EC100B73
:103B500008F022F9CDE906019DED080B53EC102B7E
:103B60009DED060B51EC100B07F028FFCDE90A0183
:103B70009DED0A0B51EC100B07F03AFE0E901198D8
:103B800008F0FEFACDE900019DED000B07F094F975
:103B90008DED040B129808F0F3FACDE900019DEDCC
:103BA000000B07F089F98DED020B9DED040B53EC32
:103BB000102B9DED020B51EC100B07F04BFECDE9E5
:103BC0000801119808F0DCFACDE900019DED000B29
:103BD00007F072F98DED040B9DED140A8DED000ACE
:103BE0009DED000AFDF798FF00EE100AF8EEC00AFE
:103BF0009DED100A20EE800A8DED010A019808F073
:103C0000BFFACDE902019DED040B53EC102B9DEDA5
:103C1000020B51EC100B08F0BFF8CDE906019DED49
:103C2000080B53EC102B9DED060B51EC100B07F01D
:103C3000C5FECDE90A019DED0A0B51EC100B07F012
:103C4000D7FD0D90119808F09BFACDE900019DED8C
:103C5000000B07F031F98DED040B129808F090FA83
:103C6000CDE900019DED000B07F026F98DED020B6B
:103C70009DED040B53EC102B9DED020B51EC100B42
:103C800007F0E8FDCDE90801129808F079FACDE9CE
:103C900000019DED000B07F00FF98DED040B9DED7C
:103CA000130A8DED000A9DED000AFDF735FF00EEC9
:103CB000100AF8EEC00A9DED100A20EE800A8DED84
:103CC000010A019808F05CFACDE902019DED040BB0
:103CD00053EC102B9DED020B51EC100B08F05CF82F
:103CE000CDE906019DED080B53EC102B9DED060B65
:103CF00051EC100B07F062FECDE90A019DED0A0BB5
:103D000051EC100B07F074FD1FED8E2A0C90DDEDC9
:103D10000F1A9DED0E1ADDED0D0A9DED0C0AFDF753
:103D200051FE9DED100A5FED920AB4EEE00AF1EE4D
:103D300010FA07DD9DED100ADFEDFE0A30EE600A95
:103D40008DED100A022004F0CFF84FF0FF301FED88
:103D50009C0AFDF7F2FE00283FF442AE9DED1B0ADF
:103D6000F54880ED000A9DED1C0A80ED010A1DB0AA
:103D700000BD30B52DED108B93B0B0EE409AF0EE53
:103D8000609AB0EE418AF0EE618A38EE490ADFEDC2
:103D9000EB0A20EE200A10EE104A38EEE90ADFEDB9
:103DA000E70A20EE200A10EE105A1FEDB60A8DED3C
:103DB0000C0AE34890ED010AE24880ED000AE2486F
:103DC00090ED010ADF4880ED010AE04890ED010A1C
:103DD000DC4880ED020ADE4890ED010AD94880ED0A
:103DE000030A204608F0CCF941EC1F0BB0EE4F0A55
:103DF000F0EE6F0A07F060F88DED040B204608F036
:103E0000BFF9CDE902019DED040B53EC102B9DEDA4
:103E1000020B51EC100B07F0D1FD9FEDCE0B53ECD4
:103E2000102BCDE906019DED060B51EC100B07F0B0
:103E3000B3FF41EC1D0B9FEDC90B53EC102B07F0AA
:103E4000ABFF41EC1E0B9FEDC50B53EC102B07F0A5
:103E5000A3FF41EC1B0B204608F092F941EC1C0B30
:103E600053EC1B2B07F0F6FC41EC1A0B9FEDBD0B3E
:103E700053EC102B07F0A2FD9FEDBC0B53EC102B65
:103E8000CDE908019DED080B51EC100B07F084FF04
:103E9000CDE90A019DED0A0B51EC100B07F0A8FCCF
:103EA000B4490860284608F06BF9CDE900019DEDA2
:103EB000000B07F001F88DED020B284608F060F9C1
:103EC00041EC1E0B9DED020B53EC102B07F076FD21
:103ED0009FEDA00B53EC102BCDE904019DED040BDD
:103EE00051EC100B07F058FF41EC1D0B9FED9B0BA5
:103EF00053EC102B07F050FF9FED980B53EC102B59
:103F0000CDE906019DED060B51EC100B07F044FFC7
:103F100041EC1B0B284608F033F941EC1C0B53EC29
:103F20001B2B07F097FC41EC1A0B07F055FC41ECFA
:103F30001F0B9FED8C0B53EC102B07F03FFD9FEDFB
:103F40008B0B53EC102BCDE908019DED080B51ECC8
:103F5000100B07F021FFCDE90A019DED0A0B51EC92
:103F6000100B07F045FC83494860084690ED000AB5
:103F7000B1EE400A80ED020A90ED010AB1EE400A6E
:103F800080ED030A00207C49086023E079487A49E3
:103F9000096800EB810090ED000AB5EEC00AF1EE71
:103FA00010FA09D29FED750A0DA87349096800EB54
:103FB000810080ED000A08E09FED710A0DA86E49AE
:103FC000096800EB810080ED000A6B480068401C26
:103FD00069490860684800680428D7DB00BF2846A4
:103FE00008F0CEF841EC1D0BB0EE4D0AF0EE6D0A74
:103FF00006F062FFB0EE40BAF0EE60BA204608F07C
:10400000BFF841EC1D0BB0EE4D0AF0EE6D0A06F064
:1040100053FFB0EE40CAF0EE60CA53EC1B2B51ECDC
:104020001C0B07F017FC41EC1A0B284608F0A8F807
:1040300041EC1D0BB0EE4D0AF0EE6D0A06F03CFFB0
:10404000B0EE40BAF0EE60BA9DED100A10EE101A14
:10405000084608F095F841EC1C0B53EC1B2B07F0BD
:104060009BFE41EC1E0B53EC1A2B07F0A7FC41EC16
:104070001F0B07F0BDFB0B90284608F081F841ECC0
:104080001D0BB0EE4D0AF0EE6D0A06F015FFB0EE16
:1040900040EAF0EE60EA204608F072F841EC1D0BB1
:1040A000B0EE4D0AF0EE6D0A06F006FFB0EE40CA23
:1040B000F0EE60CA53EC1E2B51EC1C0B07F0CAFB50
:1040C00041EC1F0B204608F05BF841EC1E0BB0EEF4
:1040D0004E0AF0EE6E0A06F0EFFEB0EE40CAF0EEC9
:1040E00060CA9DED0F0A10EE101A084608F048F855
:1040F00041EC1D0B53EC1C2B07F04EFE41EC1B0B4F
:1041000053EC1F2B07F05AFC41EC1A0B07F070FB25
:104110000A90284608F034F841EC1D0BB0EE4D0A29
:10412000F0EE6D0A06F0C8FEB0EE40BAF0EE60BAEE
:10413000204627E09A99193F840300206666863F4F
:1041400078000020A40300209C000020C000002074
:10415000E40000204DDBBFB2D2A4443F00000000C9
:1041600000007940000000A0D2736D400000000004
:104170000080764090030020280000200000C8C383
:104180000000C84307F0FCFF41EC1D0BB0EE4D0AE8
:10419000F0EE6D0A06F090FEB0EE40CAF0EE60CA96
:1041A00053EC1B2B51EC1C0B07F054FB41EC1A0B8E
:1041B000284607F0E5FF41EC1D0BB0EE4D0AF0EE8E
:1041C0006D0A06F079FEB0EE40BAF0EE60BA9DEDF1
:1041D0000E0A10EE101A084607F0D2FF41EC1C0B35
:1041E00053EC1B2B07F0D8FD41EC1E0B53EC1A2BA4
:1041F00007F0E4FB41EC1F0B07F0FAFA09902846A0
:1042000007F0BEFF41EC1D0BB0EE4D0AF0EE6D0A5B
:1042100006F052FEB0EE40BAF0EE60BA204607F06B
:10422000AFFF41EC1D0BB0EE4D0AF0EE6D0A06F04B
:1042300043FEB0EE40CAF0EE60CA53EC1B2B51ECCB
:104240001C0B07F007FB41EC1A0B204607F098FF08
:1042500041EC1D0BB0EE4D0AF0EE6D0A06F02CFE9F
:10426000B0EE40BAF0EE60BA9DED0D0A10EE101AF5
:10427000084607F085FF41EC1C0B53EC1B2B07F0A5
:104280008BFD41EC1E0B53EC1A2B07F097FB41EC16
:104290001F0B07F0ADFA9FEDFE2A0890DDED0B1A1B
:1042A0009DED0A1ADDED090A9DED080AFDF78AFB6E
:1042B000012003F019FE4FF0FF309FEDF60AFDF7E5
:1042C0003CFC00283FF48BAE9DED0C0ADFEDF20ABA
:1042D000B4EEE00AF1EE10FA03D29FEDEF0A8DED95
:1042E0000C0A0020ED49086013E09FEDE92ADFED9C
:1042F000E81A9FEDE71ADFEDE60A9FEDE50AFDF704
:1043000061FB012003F0F0FDE4480068401CE34934
:104310000860E24800681428E7DBE14880ED008A85
:10432000C0ED018A13B0BDEC108B30BD30B52DED62
:10433000108B93B0B0EE409AF0EE609AB0EE418AE6
:10434000F0EE618A38EE490A5FED840A20EE200A19
:1043500010EE104A38EEE90A5FED880A20EE200AD6
:1043600010EE105A9FEDCA0A8DED0C0ACD4890ED63
:10437000010ACD4880ED000ACC4890ED010ACA48F8
:1043800080ED010ACA4890ED010AC74880ED020A93
:10439000C84890ED010AC44880ED030A204607F0A2
:1043A000EFFE41EC1F0BB0EE4F0AF0EE6F0A06F085
:1043B00083FD8DED040B204607F0E2FECDE90201FE
:1043C0009DED040B53EC102B9DED020B51EC100BEB
:1043D00007F0F4FA1FEDA10B53EC102BCDE9060109
:1043E0009DED060B51EC100B07F0D6FC41EC1D0BBC
:1043F0009FEDB10B53EC102B07F0CEFC41EC1E0BE4
:104400009FEDAD0B53EC102B07F0C6FC41EC1B0BE2
:10441000204607F0B5FE41EC1C0B53EC1B2B07F0BC
:1044200019FA41EC1A0B1FEDB10B53EC102B07F0EE
:10443000C5FA1FEDB20B53EC102BCDE908019DED31
:10444000080B51EC100B07F0A7FCCDE90A019DED1C
:104450000A0B51EC100B07F0CBF99949086028467C
:1044600007F08EFECDE900019DED000B06F024FD66
:104470008DED020B284607F083FE41EC1E0B9DEDEF
:10448000020B53EC102B07F099FA1FEDCE0B53ECF7
:10449000102BCDE904019DED040B51EC100B07F03E
:1044A0007BFC41EC1D0B9FED840B53EC102B07F0B4
:1044B00073FC9FED810B53EC102BCDE906019DEDB4
:1044C000060B51EC100B07F067FC41EC1B0B284668
:1044D00007F056FE41EC1C0B53EC1B2B07F0BAF90E
:1044E00041EC1A0B07F078F941EC1F0B1FEDE30BC1
:1044F00053EC102B07F062FA1FEDE40B53EC102B7A
:10450000CDE908019DED080B51EC100B07F044FCC0
:10451000CDE90A019DED0A0B51EC100B07F068F98B
:1045200067494860084690ED000AB1EE400A80ED08
:10453000020A90ED010AB1EE400A80ED030A002064
:104540005649086023E05E485449096800EB810041
:1045500090ED000AB5EEC00AF1EE10FA09D29FED17
:10456000590A0DA84D49096800EB810080ED000A49
:1045700008E09FED550A0DA84849096800EB810045
:1045800080ED000A45480068401C444908604348E3
:1045900000680428D7DB00BF284607F0F1FD41EC96
:1045A0001D0BB0EE4D0AF0EE6D0A06F085FCB0EE84
:1045B00040BAF0EE60BA204607F0E2FD41EC1D0B78
:1045C000B0EE4D0AF0EE6D0A06F076FCB0EE40CA91
:1045D000F0EE60CA53EC1B2B51EC1C0B07F03AF9C0
:1045E00041EC1A0B284607F0CBFD41EC1D0BB0EE59
:1045F0004D0AF0EE6D0A06F05FFCB0EE40BAF0EE48
:1046000060BA9DED100A10EE101A084607F0B8FDCA
:1046100041EC1C0B53EC1B2B07F0BEFB41EC1E0BBB
:1046200053EC1A2B07F0CAF941EC1F0B07F0E0F826
:104630000B90284607F0A4FD41EC1D0BB0EE4D0A8F
:10464000F0EE6D0A06F038FCB0EE40EAF0EE60EAFB
:10465000204607F095FD41EC1D0BB0EE4D0AF0EE43
:104660006D0A06F029FCB0EE40CAF0EE60CA53ECC9
:104670001E2B51EC1C0B07F0EDF841EC1F0B2046F4
:1046800007F07EFD41EC1E0BB0EE4E0A1EE000006E
:1046900000000000000020420000484228000020E6
:1046A0008403002078000020A40300209C00002048
:1046B000C0000020E40000200000000000406F4027
:1046C0009003002000007AC300007A43F0EE6E0AE7
:1046D00006F0F2FBB0EE40CAF0EE60CA9DED0F0AA4
:1046E00010EE101A084607F04BFD41EC1D0B53EC81
:1046F0001C2B07F051FB41EC1B0B53EC1F2B07F05D
:104700005DF941EC1A0B07F073F80A90284607F0A0
:1047100037FD41EC1D0BB0EE4D0AF0EE6D0A06F0D0
:10472000CBFBB0EE40BAF0EE60BA204607F028FDB1
:1047300041EC1D0BB0EE4D0AF0EE6D0A06F0BCFB2D
:10474000B0EE40CAF0EE60CA53EC1B2B51EC1C0BD0
:1047500007F080F841EC1A0B284607F011FD41ECF8
:104760001D0BB0EE4D0AF0EE6D0A06F0A5FBB0EEA3
:1047700040BAF0EE60BA9DED0E0A10EE101A08462F
:1047800007F0FEFC41EC1C0B53EC1B2B07F004FB69
:1047900041EC1E0B53EC1A2B07F010F941EC1F0BE8
:1047A00007F026F80990284607F0EAFC41EC1D0BBB
:1047B000B0EE4D0AF0EE6D0A06F07EFBB0EE40BAA8
:1047C000F0EE60BA204607F0DBFC41EC1D0BB0EECA
:1047D0004D0AF0EE6D0A06F06FFBB0EE40CAF0EE47
:1047E00060CA53EC1B2B51EC1C0B07F033F841EC67
:1047F0001A0B204607F0C4FC41EC1D0BB0EE4D0A2D
:10480000F0EE6D0A06F058FBB0EE40BAF0EE60BA7A
:104810009DED0D0A10EE101A084607F0B1FC41ECB0
:104820001C0B53EC1B2B07F0B7FA41EC1E0B53EC9F
:104830001A2B07F0C3F841EC1F0B06F0D9FF1FED50
:104840006C2A0890DDED0B1A9DED0A1ADDED090AC0
:104850009DED080AFDF7B6F8012003F045FB4FF087
:10486000FF301FED740AFDF768F900283FF494AE9D
:104870009DED0C0A5FED780AB4EEE00AF1EE10FA55
:1048800003D21FED7B0A8DED0C0A0020F949086068
:1048900013E01FED812A5FED821A1FED831A5FED91
:1048A000840A1FED850AFDF78DF8012003F01CFB3B
:1048B000F0480068401CEF490860EE480068142882
:1048C000E7DBED4880ED008AC0ED018A13B0BDEC56
:1048D000108B30BD00B52DED0A8B85B0B0EE409A3F
:1048E000F0EE608A1FED960AB0EE408A38EEC90AF3
:1048F000DFEDE20A20EE200AF0EE409A9FEDE00A9A
:1049000029EE800ADFEDDF0A80EE201A9FEDDE0A35
:1049100061EE000AB0EE001A80EE810A9FEDDB1A0C
:10492000C0EE010A9FEDDA0A20EE800AB0EE40AA3E
:10493000D84890ED010AD84880ED000AD74890ED9C
:10494000010AD54880ED010AD54890ED010AD24808
:1049500080ED020AD34890ED010ACF4880ED030AAA
:104960000020C44908600DE0B1EE4A0ACE48C149B2
:10497000096800EB810080ED000ABE480068401C19
:10498000BC490860BB4800680428EDDB0020B94939
:10499000086023E0C448B749096800EB810090ED46
:1049A000000AB5EEC00AF1EE10FA09D29FEDBF0A77
:1049B0006846B049096800EB810080ED000A08E014
:1049C0009FEDBB0A6846AB49096800EB810080EDAA
:1049D000000AA8480068401CA6490860A54800686D
:1049E0000428D7DB00BF9FEDB30AB4EEC08AF1EE16
:1049F00010FA48D2DDED030AB0EE600AFDF78CF83C
:104A000000EE100AB8EEC00A20EE080AF0EE40AA46
:104A1000DDED020AB0EE600AFDF77EF800EE100A46
:104A2000B8EEC00A20EE080AB0EE40BADDED010A89
:104A3000B0EE600AFDF770F800EE100AB8EEC00A9A
:104A400020EE080AF0EE40BADDED000AB0EE600A92
:104A5000FDF762F800EE100AB8EEC00A20EE080A70
:104A6000B0EE40CA1FEDF62AF0EE6A1AB0EE4B1A0D
:104A7000F0EE6B0AFCF7A6FF9FED8F0A38EE000AF6
:104A8000B0EE408A16E09DED032AF0EE421A9DED4D
:104A9000022AB0EE421A9DED012AF0EE420A9DED87
:104AA000002AB0EE420A9FED852AFCF78BFF022018
:104AB00003F01AFA00209FED820AFDF73EF8002865
:104AC00091D06D48C0ED028A05B0BDEC0A8B00BDE7
:104AD00010B52DED0A8BB0EE408A6E4890ED010ABC
:104AE000BDEEC00AF0EE408A6C4890ED010ABDEEC2
:104AF000C00AB0EE409A6A4890ED010ABDEEC00AC5
:104B0000F0EE409A674890ED010ABDEEC00AB0EEA3
:104B100040AA6C4890ED010ABDEEC00A10EE104AA2
:104B20000EE0B0EE482AF8EECA1AB8EEE91AF8EE2E
:104B3000C90AB8EEE80AFCF7A7FF022003F0D4F98F
:104B4000604890ED010A30EE480A10EE101A08464F
:104B500007F016FB41EC1C0BB0EE4C0AF0EE6C0AB1
:104B600006F0AAF9B0EE40BAF0EE60BA9FED560B2F
:104B700053EC102B51EC1B0B07F0D2F8D1D2BDEC4B
:104B80000A8B10BD10B52DED0C8BB0EE408AF0EE07
:104B9000608A9FED4F0B06F09BF9B0EE40CAF0EE35
:104BA00060CA18EE100A07F0EBFA41EC1D0B53EC4B
:104BB0001C2B07F0F1F841EC1A0B9FED450B06F0AA
:104BC00017F9B0EE40CAF0EE60CA18EE900A07F08E
:104BD000D7FA41EC1D0B53EC1C2B07F0DDF841EC30
:104BE0001B0B53EC1A2B07F0E1F941EC190B06F003
:104BF000FFFD00EE100ABDEC0C8B10BD10B52DEDC5
:104C00000C8BB0EE408AF0EE608A9FED310B06F01F
:104C10005FF9B0EE40CAF0EE60CA18EE900A07F0F5
:104C2000AFFA41EC1D0B53EC1C2B07F0B5F841EC2F
:104C30001A0B9FED270B06F0DBF8B0EE40CAF0EE42
:104C400060CA18EE100A07F09BFA41EC1D0B53ECFA
:104C50001C2B07F0A1F841EC1B0B53EC1A2B06F0B0
:104C6000F9FD41EC190B06F0C3FD00EE100ABDEC96
:104C70000C8B10BD28000020840300203333833FB9
:104C8000DB0F4940000034430000E143959E6B4335
:104C90000000B44378000020A40300209C00002002
:104CA000C0000020E4000020900300200000A0C20B
:104CB0000000A04200004843CDCC4C3E0000000064
:104CC00000004842080100200000000000002440CD
:104CD00000000060FB21E9BF07B584B006980028FA
:104CE0007DD1049801287BD10598002878D1DFED8B
:104CF000FE0A1FED0E0AFFF745FF8DED030ADFEDFB
:104D0000FA0A1FED120AFFF779FF8DED020AF74844
:104D100090ED010A8DED010A90ED000A8DED000A7B
:104D2000DDED031A9DED021ADDED010A9DED000A8D
:104D3000FCF77CFFDFEDEC0A9FEDED0AFFF722FFA9
:104D40008DED030ADFEDE80A9FEDE90AFFF756FF54
:104D50008DED020AE54890ED010A8DED010A90ED16
:104D6000000A8DED000ADDED031A9DED021ADDED5E
:104D7000010A9DED000AFDF7E5FCDFEDDE0A9FED7F
:104D8000DC0AFFF7FFFE8DED030ADFEDDA0A9FED87
:104D9000D80AFFF733FF8DED020AD44890ED010ADF
:104DA0008DED010A90ED000A8DED000ADDED031A8C
:104DB0009DED021ADDED010A9DED000AFCF736FFBC
:104DC000DFEDCC0A9FEDCC0AFFF7DCFE8DED030A88
:104DD000DFEDC80A9FEDC80AFFF710FF01E0FDE311
:104DE0001FE08DED020AC14890ED010A8DED010A28
:104DF00090ED000A8DED000ADDED031A9DED021A1B
:104E0000DDED010A9DED000AFDF79CFCB74890ED31
:104E1000020A8DED030A5FED650A9DED030AFFF7B7
:104E200059FD049801287DD1059801287AD1DFED3C
:104E3000AE0A1FED5E0AFFF7A5FE8DED030ADFED5A
:104E4000AA0A1FED620AFFF7D9FE8DED020AA748F4
:104E500090ED010A8DED010A90ED000A8DED000A3A
:104E6000DDED031A9DED021ADDED010A9DED000A4C
:104E7000FCF7DCFEDFED9C0A9FED9D0AFFF782FE4A
:104E80008DED030ADFED980A9FED990AFFF7B6FE54
:104E90008DED020A954890ED010A8DED010A90ED25
:104EA000000A8DED000ADDED031A9DED021ADDED1D
:104EB000010A9DED000AFDF745FCDFED8E0A9FED2E
:104EC0008C0AFFF75FFE8DED030ADFED8A0A9FED86
:104ED000880AFFF793FE8DED020A844890ED010ADF
:104EE0008DED010A90ED000A8DED000ADDED031A4B
:104EF0009DED021ADDED010A9DED000AFCF796FE1C
:104F0000DFED7C0A9FED7C0AFFF73CFE8DED030A86
:104F1000DFED780A9FED780AFFF770FE8DED020A4B
:104F2000724800E036E090ED010A8DED010A90ED47
:104F3000000A8DED000ADDED031A9DED021ADDED8C
:104F4000010A9DED000AFDF7FDFB684890ED020A9D
:104F50008DED030A5FEDB50A9DED030AFFF7BAFC7C
:104F6000DFED660A1FEDAB0AFFF70CFE8DED030ABD
:104F7000DFED620A1FEDAF0AFFF740FE8DED020A7A
:104F8000DDED031A9DED021A5FEDB40A1FEDB50ABF
:104F9000FCF74CFE049801287DD1059802287AD1AF
:104FA000DFED510A1FEDBB0AFFF7ECFD8DED030AA3
:104FB000DFED4D0A1FEDBF0AFFF720FE8DED020A5F
:104FC0004A4890ED010A8DED010A90ED000A8DED41
:104FD000000ADDED031A9DED021ADDED010A9DEDDB
:104FE000000AFCF723FEDFED400A9FED410AFFF7C0
:104FF000C9FD8DED030ADFED3C0A9FED3D0AFFF789
:10500000FDFD8DED020A394890ED010A8DED010A92
:1050100090ED000A8DED000ADDED031A9DED021AF8
:10502000DDED010A9DED000AFDF78CFBDFED310A95
:105030009FED2F0AFFF7A6FD8DED030ADFED2D0A88
:105040009FED2B0AFFF7DAFD8DED020A274890ED60
:10505000010A8DED010A90ED000A8DED000ADDEDEB
:10506000031A9DED021ADDED010A9DED000AFCF721
:10507000DDFDDFED200A9FED200AFFF783FD8DEDBA
:10508000030ADFED1C0A9FED1C0AFFF7B7FD8DED4B
:10509000020A164800E049E090ED010A8DED010A90
:1050A00090ED000A8DED000ADDED031A9DED021A68
:1050B000DDED010A9DED000AFDF744FB0B4890ED84
:1050C000020A8DED030ADFED0E0A9DED030AFFF7DC
:1050D00001FCDFED0C0A9FED0C0AFFF753FD8DED8F
:1050E000030ADFED080A11E0008009C484030020F0
:1050F000004092C4000016440000FAC400C00244FC
:105100000000344300007A44000000001FED020A52
:10511000FFF774FD8DED020ADDED031A9DED021A15
:105120005FED070A1FED080AFCF780FD04980228CE
:105130007DD1059800287AD15FED150A9FEDFE0A12
:10514000FFF720FD8DED030A5FED190A9FEDFA0AC6
:10515000FFF754FD8DED020A5FED1D0A1FED160AE3
:10516000FFF710FD8DED010A5FED210A1FED1A0A10
:10517000FFF744FD8DED000ADDED031A9DED021AE7
:10518000DDED010A9DED000AFDF7DCFA5FED270A6F
:105190009FEDE90AFFF7F6FC8DED030A5FED2B0AA0
:1051A0009FEDE50AFFF72AFD8DED020AE34890ED39
:1051B000010A8DED010A90ED000A8DED000ADDED8A
:1051C000031A9DED021ADDED010A9DED000AFCF7C0
:1051D0002DFD5FED380A1FED380AFFF7D3FC8DED8A
:1051E000030A5FED3C0A1FED3C0AFFF707FD8DED5A
:1051F000020AD24890ED010A8DED010A90ED000AF5
:105200008DED000ADDED031A9DED021ADDED010AB8
:105210009DED000AFDF796FAC84890ED020A8DED63
:10522000030A5FED490A9DED030AFFF753FB04985B
:1052300002287CD10598012879D15FED550A9FEDB0
:10524000BE0AFFF79FFC8DED030A5FED590A9FED43
:10525000BA0AFFF7D3FC8DED020A5FED5D0A1FED80
:10526000560AFFF78FFC8DED010A5FED610A1FED15
:105270005A0AFFF7C3FC8DED000ADDED031A9DED20
:10528000021ADDED010A9DED000AFDF75BFA5FED04
:10529000670A9FEDA90AFFF775FC8DED030A5FED24
:1052A0006B0A9FEDA50AFFF7A9FC8DED020AA34842
:1052B00090ED010A8DED010A90ED000A8DED000AD6
:1052C000DDED031A9DED021ADDED010A9DED000AE8
:1052D000FCF7ACFC5FED790A1FED790AFFF752FC91
:1052E0008DED030A5FED7D0A1FED7D0AFFF786FC59
:1052F0008DED020A914890ED010A8DED010A90EDC5
:10530000000A8DED000ADDED031A9DED021ADDEDB8
:10531000010A9DED000AFDF715FA884890ED020A92
:105320008DED030A5FED8A0A9DED030A00E01BE0A4
:10533000FFF7D0FA5FED8F0A1FED8D0AFFF722FC11
:105340008DED030A5FED930A1FED910AFFF756FCFE
:105350008DED020ADDED031A9DED021A5FED960A4E
:105360001FED970AFCF762FC049802287ED105988D
:1053700002287BD15FEDA40A9FED6F0AFFF702FCC4
:105380008DED030A5FEDA80A9FED6B0AFFF736FC6F
:105390008DED020A5FEDAC0A1FEDA50AFFF7F2FBE7
:1053A0008DED010A5FEDB00A1FEDA90AFFF726FC9B
:1053B0008DED000ADDED031A9DED021ADDED010A07
:1053C0009DED000AFDF7BEF95FEDB60A9FED5A0AA2
:1053D000FFF7D8FB8DED030A5FEDBA0A9FED560A81
:1053E000FFF70CFC8DED020A544890ED010A8DED9B
:1053F000010A90ED000A8DED000ADDED031A9DED26
:10540000021ADDED010A9DED000AFCF70FFC5FEDCD
:10541000C70A1FEDC70AFFF7B5FB8DED030A5FED65
:10542000CB0A1FEDCB0AFFF7E9FB8DED020A4348DB
:1054300090ED010A8DED010A90ED000A8DED000A54
:10544000DDED031A9DED021ADDED010A9DED000A66
:10545000FDF778F9394890ED020A8DED030A5FED0A
:10546000D80A9DED030AFFF735FA00E019E05FED79
:10547000DB0A1FEDDB0AFFF785FB8DED030A5FED0D
:10548000DF0A1FEDDF0AFFF7B9FB8DED020ADDED44
:10549000031A9DED021A5FEDE40A1FEDE50AFCF721
:1054A000C5FB049800287DD1059800287AD15FEDCE
:1054B000F20A1FEDEB0AFFF765FB8DED030A5FEDC6
:1054C000F60A1FEDEF0AFFF799FB8DED020ADFEDFB
:1054D0001C0A1FEDF30AFFF755FB8DED010ADFED06
:1054E000180A1FEDF70AFFF789FB8DED000ADDEDC5
:1054F000031A9DED021ADDED010A9DED000AFCF78D
:1055000095FBDFED100A9FED100AFFF73BFB8DEDD9
:10551000030ADFED0C0A9FED0C0AFFF76FFB8DED20
:10552000020ADFED080A9FED090AFFF72BFB8DED5C
:10553000010ADFED040A0BE0000096C4840300209A
:1055400000800944008009C400808EC4000000006F
:105550001FED020AFFF752FB8DED000ADDED031A85
:105560009DED021ADDED010A9DED000AFDF7EAF856
:10557000DFEDFE0A1FED0C0AFFF704FB8DED030AB9
:10558000DFEDFA0A1FED100AFFF738FB8DED020A76
:10559000F74890ED010A8DED010A90ED000A8DEDBE
:1055A000000A00E039E0DDED031A9DED021ADDEDA1
:1055B000010A9DED000AFCF739FBDFEDEC0A9FEDD7
:1055C000ED0AFFF7DFFA8DED030ADFEDE80A9FED44
:1055D000E90AFFF713FB8DED020A00E0F3E0E4486F
:1055E00090ED010A8DED010A90ED000A8DED000AA3
:1055F000DDED031A9DED021ADDED010A9DED000AB5
:10560000FDF7A0F8DA4890ED020A8DED030ADFED10
:10561000DA0A9DED030AFFF75DF9049800287DD1B1
:10562000059801287AD15FED370A9FEDD40AFFF77C
:10563000A9FA8DED030A5FED3B0A9FEDD00AFFF753
:10564000DDFA8DED020ACA4890ED010A8DED010ADE
:1056500090ED000A8DED000ADDED031A9DED021AB2
:10566000DDED010A9DED000AFCF7E0FADFEDC40A6A
:105670009FEDC20AFFF786FA8DED030ADFEDC00A3F
:105680009FEDBE0AFFF7BAFA8DED020AB84890ED19
:10569000010A8DED010A90ED000A8DED000ADDEDA5
:1056A000031A9DED021ADDED010A9DED000AFCF7DB
:1056B000BDFADFEDB30A9FEDAF0AFFF763FA8DED98
:1056C000030ADFEDAF0A9FEDAB0AFFF797FA8DED06
:1056D000020AA74890ED010A8DED010A90ED000A3B
:1056E0008DED000ADDED031A9DED021ADDED010AD4
:1056F0009DED000AFCF79AFA9D4890ED020A8DEDA7
:10570000030ADFEDA00A9DED030AFFF7E3F8DFEDE2
:105710009E0A1FED720AFFF735FA00E013E08DEDE7
:10572000030ADFED990A1FED770AFFF767FA8DED9F
:10573000020ADDED031A9DED021A5FED7C0A1FEDF2
:105740007D0AFCF773FA0498E8BB0598022875D126
:105750005FED820A9FED890AFFF714FA8DED030AC7
:105760005FED860A9FED850AFFF748FA8DED020A84
:105770007F4890ED010A8DED010A90ED000A8DED54
:10578000000ADDED031A9DED021ADDED010A9DED23
:10579000000AFCF74BFADFED7A0A9FED780AFFF773
:1057A000F1F98DED030ADFED760A9FED740AFFF73C
:1057B00025FA8DED020A6E4890ED010A8DED010A81
:1057C00090ED000A00E039E08DED000ADDED031AEE
:1057D0009DED021ADDED010A9DED000AFCF726FAA7
:1057E000DFED670A9FED630AFFF7CCF98DED030A41
:1057F000DFED630A9FED5F0AFFF700FA8DED020A05
:105800005B4890ED010A8DED010A90ED000A8DEDE7
:10581000000ADDED031A9DED021ADDED010A9DED92
:10582000000AFCF703FA524890ED020A8DED030AD4
:10583000DFED540A9DED030AFFF74CF806980128A6
:105840007ED1049801284BD10598E0BB5FEDC10AD9
:105850009FED4E0AFFF796F98DED030A5FEDC50A3D
:105860009FED4A0AFFF7CAF98DED020A404890ED14
:10587000010A8DED010A90ED000A8DED000ADDEDC3
:10588000031A9DED021ADDED010A9DED000AFDF7F8
:10589000E2FC374890ED020A8DED030ADFED390A8C
:1058A0009DED030AFFF716F8DFED370A1FEDD90A61
:1058B000FFF768F98DED030ADFED330A1FEDDD0A0E
:1058C000FFF79CF900E00BE08DED020ADDED031A15
:1058D0009DED021A5FEDE30A1FEDE40AFCF7A6F95D
:1058E000049801287ED1059801287BD1DFED280A94
:1058F0001FEDEA0AFFF746F98DED030ADFED240AF2
:105900001FEDEE0AFFF77AF98DED020A184890EDC7
:10591000010A8DED010A90ED000A8DED000ADDED22
:10592000031A9DED021ADDED010A9DED000AFCF758
:105930007DF9DFED170A9FED150AFFF723F900E067
:10594000C9E28DED030ADFED120A9FED100AFFF7A1
:1059500055F98DED020A064890ED010A8DED010A18
:1059600090ED000A8DED000A14E0000000001644DE
:10597000840300200000FAC400003443000091C4F6
:1059800000007AC4000034C3000016C400C0F3C491
:1059900000C001C4DDED031A9DED021ADDED010A20
:1059A0009DED000AFDF757FCFD4890ED020A8DEDD4
:1059B000030A5FED0C0A9DED030AFEF78BFF5FED16
:1059C0000E0A9FEDF80AFFF7DDF88DED030A5FED93
:1059D000120A9FEDF40AFFF711F98DED020ADDEDD1
:1059E000031A00E007E09DED021ADFEDEE0A9FEDDD
:1059F000ED0AFCF71BF9049801286DD105980228DF
:105A00006AD15FED210A9FEDE70AFFF7BBF88DED44
:105A1000030A5FED250A9FEDE30AFFF7EFF88DED2E
:105A2000020ADF4890ED010A8DED010A90ED000AAF
:105A30008DED000ADDED031A9DED021ADDED010A80
:105A40009DED000AFCF7F2F85FED330A1FED310A15
:105A5000FFF798F88DED030A5FED370A1FED350A61
:105A6000FFF7CCF88DED020ACD4890ED010A8DEDDF
:105A7000010A90ED000A8DED000ADDED031A9DED9F
:105A8000021ADDED010A9DED000AFDF7E4FBC448B2
:105A900090ED020A8DED030A5FED460A9DED030AC3
:105AA000FEF718FF5FED480A9FEDBE0AFFF76AF8A0
:105AB0008DED030A5FED4C0A9FEDBA0AFFF79EF8E1
:105AC0008DED020ADDED031A9DED021ADFEDB50A38
:105AD0009FEDB40AFCF7AAF80498022854D105985F
