:020000040800F2
:10000000400B0020A5620008110600081306000836
:10001000170600081B0600081F0600080000000065
:10002000000000000000000000000000230600089F
:100030002506000800000000270600082906000821
:10004000BF620008BF620008BF620008BF6200080C
:10005000BF620008BF620008BF620008BF620008FC
:10006000BF620008BF620008BF620008BF620008EC
:10007000BF620008BF620008BF620008BF620008DC
:10008000BF620008BF620008BF620008550900088F
:100090006B090008BF620008BF620008BF62000869
:1000A000BF620008BF620008BF620008BF620008AC
:1000B000BF620008BF620008BF620008BF6200089C
:1000C000BF620008BF620008BF620008BF6200088C
:1000D000BF6200086B6100083D620008E56100082E
:1000E000BF620008BF620008BF620008BF6200086C
:1000F000BF620008BF620008BF620008BF6200085C
:10010000BF620008BF620008BF620008BF6200084B
:10011000BF620008BF620008BF620008BF6200083B
:10012000BF620008BF620008BF620008BF6200082B
:10013000BF620008BF620008BF620008BF6200081B
:10014000BF620008BF620008BF620008BF6200080B
:10015000BF620008BF620008BF6200086562000855
:10016000BF620008BF620008BF620008BF620008EB
:10017000BF620008BF620008BF620008BF620008DB
:10018000BF620008BF62000800F002F800F03CF80F
:100190000AA090E8000C82448344AAF10107DA45E2
:1001A00001D100F031F8AFF2090EBAE80F0013F0F8
:1001B000010F18BFFB1A43F001031847AC9C000065
:1001C000CC9C0000103A24BF78C878C1FAD85207F6
:1001D00024BF30C830C144BF04680C6070470000C1
:1001E0000023002400250026103A28BF78C1FBD840
:1001F000520728BF30C148BF0B6070471FB509F0D8
:1002000098FD1FBD10B510BD08F012FB1146FFF799
:10021000F5FF00F06CF808F030FB03B4FFF7F2FFD5
:1002200003BC05F0E7FB0000014600220020EC4B78
:1002300018600AE0EB48EA4B1B6850F823000244C0
:10024000E7480068401CE64B1860E5480068032852
:10025000F0DB022A15D10020E14B18600DE0E148E7
:10026000DF4B1B6850F8230010B9DD480068704769
:10027000DB480068401CDA4B1860D9480068032846
:10028000EDDB012A13D1012907D1D64840680128A6
:1002900001D10020EBE70120E9E7022907D1D1488D
:1002A0000068012801D10220E1E70020DFE73AB928
:1002B000012901D10120DAE7022901D10020D6E786
:1002C00000BFD4E7C8488068002801DD01207047DE
:1002D000C5480068002801DD0020F8E7C248006931
:1002E000002801DD0220F2E74FF0FF30EFE72DEDAF
:1002F000048B00BF00254FF4E13005F088FB4FF47C
:10030000E13005F029FC4FF4E13005F0D2FB4FF469
:10031000E13005F073FCA82005F0EAFA4FF4A06084
:1003200005F0E0FF04F050F904F06CF900F078FEFD
:1003300001F038F900F082FA05F01FF804F0E7F850
:1003400000260020A94908604FF4FA6005F032FB4E
:1003500005F098F9A449886005F087FAA249086079
:1003600008468068F0BB03200861DFEDA10A9FED1D
:10037000A10A02F027FBB0EE408ADFED9D0A9FED57
:100380009D0A02F05BFBF0EE408AF0EE481AB0EEF8
:10039000681ADFED970A9FED960A01F02FFCDFED5A
:1003A000960A9FED940A02F00DFBB0EE408ADFED55
:1003B000920A9FED900A02F041FBF0EE408ADFEDD9
:1003C0008C0A9FED8C0A02F0FDFAB0EE409ADFED48
:1003D000880A9FED880A02F031FBF0EE409AF0EEB9
:1003E000481A00E00AE0B0EE681AF0EE490A01F09F
:1003F00005FC00208149086002240AE07A48006870
:1004000018B903207849086102E0002076490861A4
:100410000324E4E0062C7DD2DFE804F0DE033E4B4B
:10042000B6CE002507E09FED720A754800EB850007
:1004300080ED000A6D1C032DF5DB6C4802687148E5
:1004400001686E48006802F069FB68480068F0B90E
:100450000120664908606C48006801280AD1694893
:10046000006818B167480068022803D19FED670A49
:1004700004F016F86448006802280BD1614800684F
:10048000012807D1BEEE000A04F00AF802E00020BD
:10049000564908600224A1E004F07BFF06463EB105
:1004A00004F06BFF5148006808B9032400E00424FD
:1004B00094E005F0E7F84C49504A126841F83200E0
:1004C0004E4A126851F8320005F056F946494B4A37
:1004D000126801EBC201486043484849096850F876
:1004E0003100002801DC052478E03F4843490968D1
:1004F00000EBC1004068002825DD3B483F4A1268F8
:1005000000EBC2004168012003F055FC36483B492E
:10051000096800E060E000EBC10040683A4908600B
:100520003149364A126801EBC2014868FFF77CFE88
:10053000344908604FF0FF302B49304A126801EB14
:10054000C20148601EE028482C4A126850F8321058
:10055000002003F030FC24482849096850F8310095
:10056000294908602049254A126851F83200FFF7EE
:100570005BFE244908604FF0FF301B491F4A126898
:1005800041F83200012429E01F4801681D48006835
:1005900003F0F3FD012113481A4A126840F82210B3
:1005A000FFF790FE1549086008460068002801DB47
:1005B000012400E0052411E09FED0D2ADFED0C1A67
:1005C0009FED0B1ADFED0A0A9FED090A01F0E2F92F
:1005D000012005F0EFF901E0052400BF00BF19E795
:1005E000100000206C000020540000200C000020AF
:1005F00000000000000034C300007A430400002023
:100600008403002008000020000000200000A44215
:10061000704700BFFEE700BFFEE700BFFEE700BF78
:10062000FEE7704770477047704700000CB5002028
:10063000019000907648006840F48030744908606A
:1006400000BF7348006800F4003000900198401C1F
:100650000190009818B90198B0F5A04FF1D16C48FD
:10066000006800F4003010B10120009001E000208B
:1006700000900098012846D165484030006840F05D
:1006800080506349403108606248006840F440404F
:10069000604908605E48083000685D4908310860BC
:1006A0000846006840F4004008600846006840F4CE
:1006B000A05008605848091F0860081F006840F0F3
:1006C0008070091F086000BF5148006800F000708A
:1006D0000028F9D040F20570504908604C480830B5
:1006E000006820F003004A490831086008460068A5
:1006F00040F00200086000BF45480830006800F084
:100700000C000828F8D10CBD10B54548006840F42D
:100710007000434908603E48006840F001003C49D1
:10072000086000203A4908310860394800683D49AE
:100730000840374908603C48091D0860081F0068E8
:1007400020F48020091F0860002031490C31086026
:10075000FFF76CFF4FF0006031498039086010BD31
:1007600070B500200022022300240221284D083504
:100770002D6805F00C0020B1042806D0082834D1DB
:1007800007E02A4D2A4E356033E02A4D284E356069
:100790002FE01F4D2D1D2D68C5F380541C4D2D1DC0
:1007A0002D6805F03F0154B1224DB5FBF1F5184E0F
:1007B000361D3668C6F3881605FB06F209E01B4DA8
:1007C000B5FBF1F5124E361D3668C6F3881605FBEB
:1007D00006F20F4D2D1D2D68C5F301456D1C6B00F4
:1007E000B2FBF3F5124E356003E0104D104E35604C
:1007F00000BF00BF064D08352D68C5F303150E4E2A
:10080000705D0B4D2D68C540094E356070BD000010
:10081000003802400070004008544007003C02408D
:1008200088ED00E0FFFFF6FE103000240024F40005
:100830001400002000127A001800002000B58BB0D0
:100840000121084606F0E2F80121480606F027F9E2
:100850004FF4C050099002208DF8280000208DF838
:100860002A0003208DF8290001208DF82B0009A90A
:10087000FE4805F02DFE09220B21FC4805F0B3FED1
:1008800009220C21F94805F0AEFEF94806F03CFCBF
:1008900006A806F05DFD00208DF81E008DF81F00F3
:1008A0008DF8200001208DF8210000208DF8220015
:1008B0008DF823008DF81A008DF81B0008208DF8A4
:1008C0001C0003208DF81D00ADF8180006A9E848AB
:1008D00006F033FC00208DF812008DF81300012083
:1008E0008DF814000020ADF80800ADF80A00ADF84E
:1008F0000C00ADF80E00ADF8100001208DF81500C9
:1009000002A806F0A4FC01220221D94806F09EFFAD
:1009100001221146D64806F099FF14208DF80400F4
:1009200002208DF8050001208DF806008DF80700E3
:1009300001A805F0DCFC13208DF8040001208DF8DF
:1009400005008DF806008DF8070001A805F0CFFC22
:100950000BB000BD10B50121C54806F0DFFF18B18E
:100960000121C34807F075F810BD00B52DED048BCB
:1009700093B00EAA0021BE4806F04DFE40F20121C0
:100980000E9888427ED10EA8017CC07B41EA0020EF
:1009900000B200EE100AB8EEC00AB64880ED050AB3
:1009A0000EA8827B407B42EA002000B200EE100AD3
:1009B000B8EEC00A10EE101A084609F049F941ECE9
:1009C000190B9FEDAD0B53EC102B08F05FFD41ECC4
:1009D000180B08F075FC00EE100AA64880ED030A1B
:1009E000008B68B9A348408B50B90EA8007B9DF8D6
:1009F000431040EA012000B29E49488308830CE07E
:100A00009C48408B9B4908830EA8007B9DF84310AF
:100A100040EA012000B297494883964890ED000AC9
:100A20008DED050A90ED010A8DED060A90ED020AA2
:100A30008DED070A90ED030A8DED080A90ED040A8A
:100A40008DED090A90ED050A8DED0A0A008BADF8CF
:100A50002C008848408BADF82E008648C0690C9069
:100A6000844890F820008DF83400142209A96846C3
:100A700007F094FE05A80FC800F09CFA7D48D0ED61
:100A8000010A00E004E030EE200A80ED010A33E2C2
:100A900040F202210E9888427ED10EA8017CC07BD4
:100AA00041EA002000B200EE100AB8EEC00A744815
:100AB00080ED050A0EA8827B407B42EA002000B24E
:100AC00000EE100AB8EEC00A10EE101A084609F03F
:100AD000BFF841EC190B9FED680B53EC102B08F09D
:100AE000D5FC41EC180B08F0EBFB00EE100A644853
:100AF00080ED030A008B68B96148408B50B90EA89D
:100B0000007B9DF8431040EA012000B25C49488315
:100B100008830CE05A48408B594908830EA8007B93
:100B20009DF8431040EA012000B2554948835448DB
:100B300090ED000A8DED050A90ED010A8DED060A93
:100B400090ED020A8DED070A90ED030A8DED080A7B
:100B500090ED040A8DED090A90ED050A8DED0A0A63
:100B6000008BADF82C004648408BADF82E00444871
:100B7000C0690C90424890F820008DF8340014228F
:100B800009A9684607F00AFE05A80FC800F012FA86
:100B90003B48D0ED010A00E004E030EE200A80ED91
:100BA000010AA9E140F203210E9888425DD10EA806
:100BB000017CC07B41EA002000B200EE100AB8EED2
:100BC000C00A304880ED050A0EA8827B407B42EACD
:100BD000002000B200EE100AB8EEC00A10EE101AA3
:100BE000084609F035F841EC190B9FED230B53EC47
:100BF000102B08F04BFC41EC180B08F061FB00EEE9
:100C0000100A204880ED030A008B68B91D48408B0C
:100C100050B90EA8007B9DF8431040EA012000B2B5
:100C20001849488308830CE01648408B154908830F
:100C30000EA8007B9DF8431040EA012000B2114944
:100C40004883104890ED000A8DED050A90ED010AE9
:100C50008DED060A90ED020A8DED070A90ED030A6C
:100C60008DED080A90ED040A0EE033E0000002402A
:100C700000640040780000200000000000003340C5
:100C80009C000020C00000208DED090A90ED050AAF
:100C90008DED0A0A008BADF82C00BD48408BADF8F5
:100CA0002E00BB48C0690C90B94890F820008DF820
:100CB0003400142209A9684607F070FD05A80FC882
:100CC00000F078F9B248D0ED010A30EE200A80ED4C
:100CD000010A11E10E98B0F5017F7CD10EA8017CCC
:100CE000C07B41EA002000B200EE100AB8EEC00A54
:100CF000A84880ED050A0EA8827B407B42EA0020CE
:100D000000B200EE100AB8EEC00A10EE101A084643
:100D100008F09EFF41EC190B1FED290B53EC102B33
:100D200008F0B4FB41EC180B08F0CAFA00EE100A08
:100D3000984880ED030A008B68B99648408B50B9FB
:100D40000EA8007B9DF8431040EA012000B29149B3
:100D5000488308830CE08F48408B8E4908830EA897
:100D6000007B9DF8431040EA012000B28949488386
:100D7000884890ED000A8DED050A90ED010A8DED91
:100D8000060A90ED020A8DED070A90ED030A8DED3B
:100D9000080A90ED040A8DED090A90ED050A8DED23
:100DA0000A0A008BADF82C007A48408BADF82E0073
:100DB0007848C0690C90774890F820008DF834008E
:100DC000142209A9684607F0E9FC05A80FC800F03D
:100DD000F1F8704800E006E0D0ED010A30EE200A9C
:100DE00080ED010A88E040F205210E9888427CD10E
:100DF0000EA8017CC07B41EA002000B200EE100A80
:100E0000B8EEC00A644880ED050A0EA8827B407BDC
:100E100042EA002000B200EE100AB8EEC00A10EE5E
:100E2000101A084608F014FF41EC190B1FED6E0B69
:100E300053EC102B08F02AFB41EC180B08F040FA99
:100E400000EE100A544880ED030A008B68B952483E
:100E5000408B50B90EA8007B9DF8431040EA01205A
:100E600000B24D49488308830CE04B48408B4A4907
:100E700008830EA8007B9DF8431040EA012000B2D1
:100E800045494883444890ED000A8DED050A90EDF0
:100E9000010A8DED060A90ED020A8DED070A90ED2C
:100EA000030A8DED080A90ED040A8DED090A90ED14
:100EB000050A8DED0A0A008BADF82C003648408BF0
:100EC000ADF82E003448C0690C90334890F82000EB
:100ED0008DF83400142209A9684607F05FFC05A8C4
:100EE0000FC800F067F82C4800E005E0D0ED010ADB
:100EF00030EE200A80ED010A13B0BDEC048B00BD7A
:100F0000F0B585B004460D4616461F4600208DF804
:100F100008008DF8090008208DF80A008001009073
:100F2000200A8DF80B00E1B28DF80C10290A8DF81B
:100F30000D10E9B28DF80E10310A8DF80F10F1B2D4
:100F40008DF81010390A8DF81110F9B28DF81210C1
:100F50006946124806F06AFA05B0F0BD10B586B0D1
:100F6000044600208DF80C008DF80D0002208DF84D
:100F70000E0040F2FF100190200A8DF80F008DF84E
:100F8000104001A9054806F051FA06B010BD000056
:100F9000C0000020E40000200801002000640040A0
:100FA000B5EEC00AF1EE10FA03D2F1EE400AB0EE4F
:100FB000600A70470FB400B5BDF91E00BDF91C10E2
:100FC000401A01EE100AB8EEC10AFFF7E9FFDFEDA3
:100FD000FE0AB4EEE00AF1EE10FA11DDB8EEC10A35
:100FE000FFF7DEFFF8EEC11AC1EE800AB8EEC10AC3
:100FF000DFEDF61A00EEE10ABDEEC00AB0EE401ACF
:10100000B8EEC10ADFEDF20A20EE200AF3EE031A71
:10101000C0EE210ADFEDED1A80EEA10A5DF814FBA7
:101020009FEDEC0AEC4880ED010A9FEDEA0AEB48DF
:1010300080ED010A9FEDE70AE94880ED010A9FED86
:10104000E50AE84880ED010A9FEDE20AE64880EDF6
:10105000010A0120E04981F82000E04981F82000E0
:10106000DF4981F82000DF4981F82000DE4981F85E
:1010700020009FEDD80AD84880ED020A9FEDD50ADE
:10108000D64880ED020A9FEDD30AD54880ED020ACA
:101090009FEDD00AD34880ED020A9FEDCE0A0846A4
:1010A00080ED020A70479FEDD10AD14880ED000A19
:1010B0009FEDD00A80ED010A9FEDC60A80ED020A7D
:1010C0009FEDCD0A80ED030A9FEDCC0A80ED040A66
:1010D0009FEDC00A80ED050A9FEDBE0A80ED060A6D
:1010E0000020C349C8619FEDC10AC54880ED000AD0
:1010F0009FEDC00A80ED010A9FEDB60A80ED020A5D
:101100009FEDBD0A80ED030A9FEDBC0A80ED040A45
:101110009FEDB00A80ED050A9FEDAE0A80ED060A4C
:101120000020B749C8619FEDB10AB64880ED000ABA
:101130009FEDB00A80ED010A9FEDA60A80ED020A3C
:101140009FEDAD0A80ED030A9FEDAC0A80ED040A25
:101150009FEDA00A80ED050A9FED9E0A80ED060A2C
:101160000020A849C8619FEDA10AA74880ED000AA8
:101170009FEDA00A80ED010A9FED960A80ED020A1C
:101180009FED9D0A80ED030A9FED9C0A80ED040A05
:101190009FED900A80ED050A9FED8E0A80ED060A0C
:1011A00000209949C8619FED910A984880ED000A96
:1011B0009FED900A80ED010A9FED860A80ED020AFC
:1011C0009FED8D0A80ED030A9FED8C0A80ED040AE5
:1011D0009FED800A80ED050A9FED7E0A80ED060AEC
:1011E00000208A49C86170479FED890A894880EDCF
:1011F000000AB1EE040A80ED010A9FED760A80ED47
:10120000020A9FED7D0A80ED030A9FED830A80EDBF
:10121000040A9FED700A80ED050A9FED6E0A80EDCD
:10122000060A00207B49C8619FED7C0A084680EDD4
:10123000090A9FED7B0A80ED080A9FED750A79483F
:1012400080ED000AB1EE040A80ED010A9FED610A0B
:1012500080ED020A9FED680A80ED030A9FED6E0A99
:1012600080ED040A9FED5B0A80ED050A9FED590AA7
:1012700080ED060A00206B49C8619FED680A0846A8
:1012800080ED090A9FED660A80ED080A9FED600A6D
:10129000654880ED000AB1EE040A80ED010A9FED79
:1012A0004D0A80ED020A9FED540A80ED030A9FED7E
:1012B0005A0A80ED040A9FED470A80ED050A9FED6A
:1012C000450A80ED060A00205749C8619FED530A80
:1012D000084680ED090A9FED520A80ED080A9FED4D
:1012E0004C0A524880ED000AB1EE040A80ED010A72
:1012F0009FED380A80ED020A9FED3F0A80ED030A58
:101300009FED450A80ED040A9FED320A80ED050A43
:101310009FED300A80ED060A00204449C8619FED28
:101320003F0A084680ED090A9FED3D0A80ED080A54
:101330009FED3F0A3F4880ED000AB1EE040A80EDC0
:10134000010A9FED240A80ED020A9FED2B0A80ED31
:10135000030A9FED310A80ED040A9FED1E0A80ED1D
:10136000050A9FED1C0A80ED060A00203149C8617C
:101370009FED2A0A084680ED090A9FED290A80EDB3
:10138000080A70479FED2C0A2C4880ED000A9FED5B
:10139000110A80ED010A9FED2A0A80ED020A9FEDF5
:1013A000160A80ED030A9FED270A80ED040A9FEDDF
:1013B000090A80ED050A9FED070A80ED060A002064
:1013C0001E49C86140E0000000007A450000004668
:1013D0000000B44300000000780000209C000020C2
:1013E000C0000020E4000020080100206666A63F3F
:1013F0007C0100208FC2F53C00007A4600806D45DC
:10140000F40100206C020020E40200205C030020B4
:1014100000007A435401002000409C4500007A44BB
:101420000000C843CC01002044020020BC02002080
:1014300000005C433403002085EBD13E2C010020EA
:1014400017B7D1380000FA44B3EE040A084680ED1D
:10145000090A9FEDFB0A80ED080A1FED090AF94809
:1014600080ED000A1FED250A80ED010A1FED0C0A30
:1014700080ED020A1FED200A80ED030A1FED0F0A1E
:1014800080ED040A1FED2D0A80ED050A1FED2F0ADD
:1014900080ED060A0020EB49C861B3EE040A084655
:1014A00080ED090A9FEDE60A80ED080A1FED1E0A8D
:1014B000E54880ED000A1FED390A80ED010A1FEDB5
:1014C000200A80ED020A1FED340A80ED030A1FEDA9
:1014D000230A80ED040A1FED410A80ED050A1FED85
:1014E000430A80ED060A0020D749C861B3EE040A1A
:1014F000084680ED090A9FEDD20A80ED080A1FED2B
:10150000320AD24880ED000A1FED4E0A80ED010A32
:101510001FED350A80ED020A1FED490A80ED030A2E
:101520001FED380A80ED040A1FED560A80ED050A0A
:101530001FED580A80ED060A0020C449C861B3EEC9
:10154000040A084680ED090A9FEDBD0A80ED080AED
:10155000B7EE000ABE4880ED000A1FED620A80ED7A
:10156000010A9FEDBC0A80ED020A1FED5D0A80EDC5
:10157000030A1FED4C0A80ED040A1FED6A0A80ED94
:10158000050A1FED6C0A80ED060A0020B049C8610B
:10159000B3EE040A084680ED090A9FEDA90A80ED22
:1015A000080A704700B5FFF77EFDFFF71DFEFFF745
:1015B000E9FE00BD00B5B0EE403AF0EE603A33EE21
:1015C000630AB0EE401AC169012914D1B0EE410A94
:1015D000FFF7E6FCD0ED090AB4EEE00AF1EE10FAEE
:1015E00004DB90ED080A60EE011A08E090ED000AB5
:1015F00060EE011A03E090ED000A60EE011A90ED32
:10160000010A20EE015A90ED050A30EE052A90ED10
:10161000040AB4EEC20AF1EE10FA04D290ED040A04
:1016200080ED050A15E090ED040AFFEE000A20EEB9
:10163000200AB4EEC20AF1EE10FA08DD90ED040AB9
:10164000FFEE000A20EE200A80ED050A01E080EDA1
:10165000052A90ED060A31EE404A90ED020A60EE4E
:10166000044A80ED061A90ED050A30EE210A70EE6C
:10167000242A90ED030AB4EEE20AF1EE10FA02D841
:1016800090ED030A00BD90ED030AFFEE000A20EE84
:10169000200AB4EEE20AF1EE10FA06DD90ED030A3C
:1016A000FFEE000A20EE200AECE7B0EE620AE9E75E
:1016B00010B5694890F82000012814D0022802D003
:1016C000052833D11FE0644890ED011AF0EE410A7D
:1016D00090ED001AB0EE410A6048FFF76BFF5E48DC
:1016E00080ED020A00BF5C4890ED031AF0EE410A5B
:1016F00090ED021AB0EE410A5948FFF75BFF5648D9
:1017000080ED040A00BF544890ED051AF0EE410A3E
:1017100090ED041AB0EE410A5248FFF74BFFBDEEC0
:10172000C00A10EE100A4C49C86100E000BF00BFBB
:101730004D4890F82000012814D0022802D0052836
:1017400033D11FE0484890ED011AF0EE410A90EDC8
:10175000001AB0EE410A3B48FFF72CFF424880EDEB
:10176000020A00BF404890ED031AF0EE410A90EDE6
:10177000021AB0EE410A3D48FFF71CFF3A4880EDDF
:10178000040A00BF384890ED051AF0EE410A90EDCA
:10179000041AB0EE410A3648FFF70CFFBDEEC00A4E
:1017A00010EE100A3049C86100E000BF00BF3148A8
:1017B00090F82000012814D0022802D0052833D147
:1017C0001FE02C4890ED011AF0EE410A90ED001A4E
:1017D000B0EE410A1C48FFF7EDFE264880ED020AF4
:1017E00000BF244890ED031AF0EE410A90ED021A72
:1017F000B0EE410A2048FFF7DDFE1E4880ED040AE6
:1018000000BF1C4890ED051AF0EE410A90ED041A55
:10181000B0EE410A1948FFF7CDFEBDEEC00A10EE4A
:10182000100A1449C86100E000BF00BF144890F8D6
:101830002000012836D0022824D0052855D141E0C7
:1018400000004842A40100201C0200209402002055
:101850000C0300200AD7233C780000202C01002034
:10186000540100207C0100209C000020CC010020BD
:10187000F4010020C0000020440200206C0200207F
:10188000E40000208D4890ED011AF0EE410A90ED41
:10189000001AB0EE410A8A48FFF78CFE874880EDB7
:1018A000020A00BF854890ED031AF0EE410A90ED60
:1018B000021AB0EE410A8348FFF77CFE7F4880EDB4
:1018C000040A00BF7D4890ED051AF0EE410A90ED44
:1018D000041AB0EE410A7C48FFF76CFEBDEEC00A68
:1018E00010EE100A7549C86100E000BF00BF7748DC
:1018F00090F82000012814D0022802D0052833D106
:101900001FE0724890ED011AF0EE410A90ED001AC6
:10191000B0EE410A6E48FFF74DFE6C4880ED020ABA
:1019200000BF6A4890ED031AF0EE410A90ED021AEA
:10193000B0EE410A6748FFF73DFE644880ED040AB7
:1019400000BF624890ED051AF0EE410A90ED041ACE
:10195000B0EE410A6048FFF72DFEBDEEC00A10EE62
:10196000100A5A49C86100E000BF00BF534CE46947
:1019700023B25A4CE46922B2594CE46921B2594C61
:10198000E46920B2FFF7BCFA5049C96908B2FFF711
:10199000E5FA10BD10B52DED068BB0EE40AAB0EE05
:1019A000608AF0EE418AB0EE619AF0EE429A012030
:1019B0004C4981F820004A4981F82000474981F8C4
:1019C00020003E4981F82000404981F82000454828
:1019D00080ED02AA424880ED028A4048C0ED028AAA
:1019E000364880ED029A0846C0ED029AFFF760FE85
:1019F000BDEC068B10BD10B52DED068BB0EE40AAE8
:101A0000B0EE608AF0EE418AB0EE619AF0EE429A52
:101A10000520344981F82000314981F820002F4900
:101A200081F82000254981F82000284981F820000C
:101A30002C4880ED00AA2A4880ED008A2748C0ED96
:101A4000008A1E4880ED009A0846C0ED009AFFF714
:101A50002FFEBDEC068B10BD10B52DED068BB0EE44
:101A600040AAB0EE608AF0EE418AB0EE619AF0EEE4
:101A7000429A02201B4981F82000194981F8200070
:101A8000164981F820000D4981F820000F4981F89E
:101A90002000144880ED00AA114880ED008A0F480C
:101AA000C0ED008A054880ED009A0846C0ED009A16
:101AB000FFF7FEFDBDEC068B10BD0000E40000202A
:101AC00094020020BC020020E40200200801002053
:101AD0000C030020340300205C030020C000002021
:101AE0009C00002078000020B5EEC00AF1EE10FA4C
:101AF00001D100207047B5EEC00AF1EE10FA01DD09
:101B00000120F7E74FF0FF30F4E702466FF00201E3
:101B1000FE48D0ED012AFE4890ED003A72EEC32A4D
:101B2000FC4890ED003A72EEC32AF0EE620AFA48E1
:101B3000D0ED012AF64890ED013A72EEC32AF5483D
:101B400090ED013A72EEC32AB0EE622AF348D0ED6E
:101B5000012AEF4890ED023A72EEC32AED4890ED6B
:101B6000023A72EEC32AB0EE621AED48D0ED012AB5
:101B7000E74890ED033A72EEC32AE64890ED033A47
:101B800072EEC32AF0EE621AF4EEC00AF1EE10FA19
:101B900007D2F1EE402AF4EEE20AF1EE10FA00DD8F
:101BA000491CB4EEC02AF1EE10FA07D2F1EE402A39
:101BB000B4EEE22AF1EE10FA00DD491CB4EEC01AD0
:101BC000F1EE10FA07D2F1EE402AB4EEE21AF1EE8D
:101BD00010FA00DD491CF4EEC01AF1EE10FA07D23B
:101BE000F1EE402AF4EEE21AF1EE10FA00DD491CA3
:101BF000914201DD012070470020FCE700B52DED8A
:101C0000040B99B09DED1B0ADDED190A30EE600A58
:101C1000DFEDC40A20EE200A8DED120A9DED1C0AAC
:101C2000DDED1A0A30EE600ADFEDBE0A20EE200A72
:101C30008DED110A9FEDBC0A8DED100AB34890EDB1
:101C4000010AB34880ED000AB34890ED010AB0489C
:101C500080ED010AB14890ED010AAD4880ED020A1D
:101C6000AF4890ED010AAA4880ED030A9DED120AE3
:101C70009FEDAE1AC0EE010A9FEDAD0A20EE800A7C
:101C8000A44880ED000A9DED110AB1EE400A9FEDD7
:101C9000A71AC0EE010A9FEDA60A20EE800A80ED89
:101CA000010A90ED000AB1EE400A80ED020A90EDC3
:101CB000010AB1EE400A80ED030A00209D49086048
:101CC00023E094489B49096800EB810090ED000AED
:101CD000B5EEC00AF1EE10FA09D29FED970A13A8EB
:101CE0009449096800EB810080ED000A08E09FED4F
:101CF000930A13A88F49096800EB810080ED000A60
:101D00008C480068401C8B4908608A480068042899
:101D1000D7DB00BF9DED100ADFED880AB4EEE00AC4
:101D2000F1EE10FA7DD2119807F092FFCDE9000193
:101D30009DED000B06F028FE8DED040B129807F0C8
:101D400087FFCDE900019DED000B06F01DFE8DED36
:101D5000020B9DED040B53EC102B9DED020B51EC8F
:101D6000100B07F0DFFACDE90801119807F070FFBA
:101D7000CDE900019DED000B06F006FE8DED040B94
:101D80009DED160A8DED000A9DED000AFFF7ACFEF1
:101D900000EE100AF8EEC00A9DED100A20EE800A4F
:101DA0008DED010A019807F053FFCDE902019DED89
:101DB000040B53EC102B9DED020B51EC100B07F0B4
:101DC00053FDCDE906019DED080B53EC102B9DED65
:101DD000060B51EC100B07F059FBCDE90A019DED04
:101DE0000A0B51EC100B07F06BFA0F90119807F0EB
:101DF0002FFFCDE900019DED000B06F0C5FD8DED37
:101E0000040B129807F024FFCDE900019DED000BB3
:101E100006F0BAFD8DED020B9DED040B53EC102B7B
:101E200000E03FE19DED020B51EC100B07F07AFA58
:101E3000CDE90801129807F00BFFCDE900019DEDF7
:101E4000000B06F0A1FD8DED040B9DED150A8DED47
:101E5000000A9DED000AFFF747FE00EE100AF8EEBB
:101E6000C00A9DED100A20EE800A8DED010A01984E
:101E700007F0EEFECDE902019DED040B53EC102BB3
:101E80009DED020B51EC100B07F0EEFCCDE90601C5
:101E90009DED080B53EC102B9DED060B51EC100B38
:101EA00007F0F4FACDE90A019DED0A0B51EC100B95
:101EB00007F006FA0E90119807F0CAFECDE900016E
:101EC0009DED000B06F060FD8DED040B129807F000
:101ED000BFFECDE900019DED000B06F055FD8DED37
:101EE000020B9DED040B53EC102B9DED020B51ECFE
:101EF000100B07F017FACDE90801119807F0A8FEBA
:101F0000CDE900019DED000B1AE0000078000020F3
:101F1000A4030020900300209C000020C0000020AB
:101F2000E40000206666863F00000000959E6B433B
:101F30000000B44328000020000096C30000964330
:101F400006F022FD8DED040B9DED140A8DED000AC7
:101F50009DED000AFFF7C8FD00EE100AF8EEC00A7A
:101F60009DED100A20EE800A8DED010A019807F020
:101F70006FFECDE902019DED040B53EC102B9DED9E
:101F8000020B51EC100B07F06FFCCDE906019DED43
:101F9000080B53EC102B9DED060B51EC100B07F0CA
:101FA00075FACDE90A019DED0A0B51EC100B07F013
:101FB00087F90D90119807F04BFECDE900019DEDDA
:101FC000000B06F0E1FC8DED040B129807F040FECB
:101FD000CDE900019DED000B06F0D6FC8DED020B66
:101FE0009DED040B53EC102B9DED020B51EC100BEF
:101FF00007F098F9CDE90801129807F029FECDE91C
:1020000000019DED000B06F0BFFC8DED040B9DED76
:10201000130A8DED000A9DED000AFFF765FD00EE45
:10202000100AF8EEC00A9DED100A20EE800A8DED30
:10203000010A019807F00CFECDE902019DED040BA9
:1020400053EC102B9DED020B51EC100B07F00CFC28
:10205000CDE906019DED080B53EC102B9DED060B11
:1020600051EC100B07F012FACDE90A019DED0A0BB5
:1020700051EC100B07F024F91FED552A0C90DDED03
:102080000F1A9DED0E1ADDED0D0A9DED0C0AFFF7FE
:1020900081FC9DED100ADFEDFE0A30EE200A8DED89
:1020A000100A53E1119807F0D3FDCDE900019DED31
:1020B000000B06F069FC8DED040B129807F0C8FDCB
:1020C000CDE900019DED000B06F05EFC8DED020BED
:1020D0009DED040B53EC102B9DED020B51EC100BFE
:1020E00007F020F9CDE90801119807F0B1FDCDE91D
:1020F00000019DED000B06F047FC8DED040B1698DA
:10210000019007F0A5FDCDE902019DED040B53EC14
:10211000102B9DED020B51EC100B07F0A5FBCDE948
:1021200006019DED080B53EC102B9DED060B51ECB9
:10213000100B07F0ABF9CDE90A019DED0A0B51EC4C
:10214000100B07F0BDF80F90119807F081FDCDE955
:1021500000019DED000B06F017FC8DED040B1298AD
:1021600007F076FDCDE900019DED000B06F00CFCBB
:102170008DED020B9DED040B53EC102B9DED020B2E
:1021800051EC100B07F0CEF8CDE90801129807F0DA
:102190005FFDCDE900019DED000B06F0F5FB8DED37
:1021A000040B1598019007F053FDCDE902019DED58
:1021B000040B53EC102B9DED020B51EC100B07F0B0
:1021C00053FBCDE906019DED080B53EC102B9DED63
:1021D000060B51EC100B07F059F9CDE90A019DED02
:1021E0000A0B51EC100B07F06BF80E90119807F0EA
:1021F0002FFDCDE900019DED000B06F0C5FB8DED37
:10220000040B129807F024FDCDE900019DED000BB1
:1022100006F0BAFB8DED020B9DED040B53EC102B79
:102220009DED020B51EC100B07F07CF8CDE9080195
:10223000119807F00DFDCDE900019DED000B06F0B2
:10224000A3FB8DED040B1498019007F001FDCDE97F
:1022500002019DED040B53EC102B9DED020B51EC94
:10226000100B07F001FBCDE906019DED080B53ECC7
:10227000102B9DED060B51EC100B07F007F9CDE983
:102280000A019DED0A0B51EC100B07F019F80D90A7
:10229000119807F0DDFCCDE900019DED000B06F083
:1022A00073FB8DED040B129807F0D2FCCDE9000111
:1022B0009DED000B06F068FB8DED020B9DED040B10
:1022C00053EC102B9DED020B51EC100B07F02AF88C
:1022D000CDE90801129807F0BBFCCDE900019DEDA6
:1022E000000B06F051FB8DED040B1398019007F0E5
:1022F000AFFCCDE902019DED040B53EC102B9DEDDD
:10230000020B51EC100B07F0AFFACDE906019DED81
:10231000080B53EC102B9DED060B51EC100B07F046
:10232000B5F8CDE90A019DED0A0B51EC100B06F052
:10233000C7FF9FED582A0C90DDED0F1A9DED0E1A88
:10234000DDED0D0A9DED0C0AFFF724FB022003F0E2
:1023500031FB4FF0FF309FED500AFFF7D6FB00280E
:102360003FF4D8AC9DED100ADFED4C0AB4EEE00A64
:10237000F1EE10FA03D29FED490A8DED100A00BF6D
:10238000119807F065FCCDE900019DED000B06F00A
:10239000FBFA8DED040B129807F05AFCCDE9000111
:1023A0009DED000B06F0F0FA8DED020B9DED040B98
:1023B00053EC102B9DED020B51EC100B06F0B2FF0D
:1023C000CDE90801119807F043FCCDE900019DED2E
:1023D000000B06F0D9FA8DED040B9DED160A8DED7C
:1023E000000A9DED000AFFF77FFB00EE100AF8EEF1
:1023F000C00A9DED100A20EE800A8DED010A0198B9
:1024000007F026FCCDE902019DED040B53EC102BE7
:102410009DED020B51EC100B07F026FACDE90601F9
:102420009DED080B53EC102B9DED060B51EC100BA2
:1024300007F02CF8CDE90A019DED0A0B51EC100BC9
:1024400006F03EFF0F90119807F002FCCDE9000165
:102450009DED000B06F098FA8DED040B129807F035
:10246000F7FBCDE900019DED000B06F08DFA8DED37
:10247000020B9DED040B53EC102B9DED020B51EC68
:10248000100B06F04FFFCDE90801129808E000009C
:10249000CDCC4C3E000000000000C8430000484284
:1024A00007F0D6FBCDE900019DED000B06F06CFABC
:1024B0008DED040B9DED150A8DED000A9DED000AD2
:1024C000FFF712FB00EE100AF8EEC00A9DED100AAD
:1024D00020EE800A8DED010A019807F0B9FBCDE9E5
:1024E00002019DED040B53EC102B9DED020B51EC02
:1024F000100B07F0B9F9CDE906019DED080B53EC7F
:10250000102B9DED060B51EC100B06F0BFFFCDE933
:102510000A019DED0A0B51EC100B06F0D1FE0E9056
:10252000119807F095FBCDE900019DED000B06F039
:102530002BFA8DED040B129807F08AFBCDE9000110
:102540009DED000B06F020FA8DED020B9DED040BC6
:1025500053EC102B9DED020B51EC100B06F0E2FE3C
:10256000CDE90801119807F073FBCDE900019DED5D
:10257000000B06F009FA8DED040B9DED140A8DEDAC
:10258000000A9DED000AFFF7AFFA00EE100AF8EE20
:10259000C00A9DED100A20EE800A8DED010A019817
:1025A00007F056FBCDE902019DED040B53EC102B17
:1025B0009DED020B51EC100B07F056F9CDE9060129
:1025C0009DED080B53EC102B9DED060B51EC100B01
:1025D00006F05CFFCDE90A019DED0A0B51EC100BF2
:1025E00006F06EFE0D90119807F032FBCDE9000168
:1025F0009DED000B06F0C8F98DED040B129807F065
:1026000027FBCDE900019DED000B06F0BDF98DED36
:10261000020B9DED040B53EC102B9DED020B51ECC6
:10262000100B06F07FFECDE90801129807F010FBB1
:10263000CDE900019DED000B06F0A6F98DED040B30
:102640009DED130A8DED000A9DED000AFFF74CFA8F
:1026500000EE100AF8EEC00A9DED100A20EE800A86
:102660008DED010A019807F0F3FACDE902019DED25
:10267000040B53EC102B9DED020B51EC100B07F0EB
:10268000F3F8CDE906019DED080B53EC102B9DED01
:10269000060B51EC100B06F0F9FECDE90A019DED99
:1026A0000A0B51EC100B06F00BFE1FED862A0C9066
:1026B000DDED0F1A9DED0E1ADDED0D0A9DED0C0AF4
:1026C000FFF768F99DED100A5FED8C0AB4EEE00AA1
:1026D000F1EE10FA07DD9DED100ADFEDF60A30EE9F
:1026E000600A8DED100A022003F064F94FF0FF300C
:1026F0001FED960AFFF709FA00283FF441AE9DED61
:102700001B0AED4880ED000A9DED1C0A80ED010AD0
:102710001DB000BD00B52DED0A8B85B0B0EE409A1E
:10272000F0EE608A1FEDA50AB0EE408A38EEC90AC5
:10273000DFEDE20A20EE200AF0EE409A9FEDE00A7B
:1027400029EE800ADFEDDF0A80EE201A9FEDDE0A17
:1027500061EE000AB0EE001A80EE810A9FEDDB1AEE
:10276000C0EE010A9FEDDA0A20EE800AB0EE40AA20
:10277000D84890ED010AD84880ED000AD74890ED7E
:10278000010AD54880ED010AD54890ED010AD248EA
:1027900080ED020AD34890ED010ACF4880ED030A8C
:1027A0000020D14908600DE0B1EE4A0ACF48CE4979
:1027B000096800EB810080ED000ACB480068401CEE
:1027C000C9490860C84800680428EDDB0020C649F4
:1027D000086023E0C548C449096800EB810090ED1A
:1027E000000AB5EEC00AF1EE10FA09D29FEDC00A58
:1027F0006846BD49096800EB810080ED000A08E0E9
:102800009FEDBC0A6846B849096800EB810080ED7D
:10281000000AB5480068401CB3490860B248006827
:102820000428D7DB00BF9FEDB40AB4EEC08AF1EEF6
:1028300010FA48D2DDED030AB0EE600AFFF754F952
:1028400000EE100AB8EEC00A20EE080AF0EE40AA28
:10285000DDED020AB0EE600AFFF746F900EE100A5D
:10286000B8EEC00A20EE080AB0EE40BADDED010A6B
:10287000B0EE600AFFF738F900EE100AB8EEC00AB1
:1028800020EE080AF0EE40BADDED000AB0EE600A74
:10289000FFF72AF900EE100AB8EEC00A20EE080A87
:1028A000B0EE40CA9FED952AF0EE6A1AB0EE4B1AD0
:1028B000F0EE6B0AFFF76EF89FED910A38EE000A12
:1028C000B0EE408A16E09DED032AF0EE421A9DED2F
:1028D000022AB0EE421A9DED012AF0EE420A9DED69
:1028E000002AB0EE420A9FED852AFFF753F8022036
:1028F00003F060F800209FED830AFFF706F9002837
:1029000091D06D48C0ED028A05B0BDEC0A8B00BDC8
:1029100010B52DED0A8BB0EE408A6E4890ED010A9D
:10292000BDEEC00AF0EE408A6C4890ED010ABDEEA3
:10293000C00AB0EE409A6A4890ED010ABDEEC00AA6
:10294000F0EE409A674890ED010ABDEEC00AB0EE85
:1029500040AA6D4890ED010ABDEEC00A10EE104A83
:102960000EE0B0EE482AF8EECA1AB8EEE91AF8EE10
:10297000C90AB8EEE80AFFF76FF8022003F01AF868
:10298000614890ED010A30EE480A10EE101A084630
:1029900007F05EF941EC1C0BB0EE4C0AF0EE6C0A4D
:1029A00005F0F2FFB0EE40BAF0EE60BA9FED570BC3
:1029B00053EC102B51EC1B0B06F01AFFD1D2BDECDF
:1029C0000A8B10BD10B52DED0C8BB0EE408AF0EEE9
:1029D000608A9FED500B05F0E3FFB0EE40CAF0EEC9
:1029E00060CA18EE100A07F033F941EC1D0B53ECE6
:1029F0001C2B06F039FF41EC1A0B9FED460B05F03E
:102A00005FFFB0EE40CAF0EE60CA18EE900A07F021
:102A10001FF941EC1D0B53EC1C2B06F025FF41EC7C
:102A20001B0B53EC1A2B07F029F841EC190B06F09D
:102A300047FC00EE100ABDEC0C8B10BD10B52DED5F
:102A40000C8BB0EE408AF0EE608A9FED320B05F001
:102A5000A7FFB0EE40CAF0EE60CA18EE900A07F089
:102A6000F7F841EC1D0B53EC1C2B06F0FDFE41EC7E
:102A70001A0B9FED280B05F023FFB0EE40CAF0EED5
:102A800060CA18EE100A07F0E3F841EC1D0B53EC96
:102A90001C2B06F0E9FE41EC1B0B53EC1A2B06F045
:102AA00041FC41EC190B06F00BFC00EE100ABDECEA
:102AB0000C8B10BDCDCCCC3E840300203333833F40
:102AC000DB0F4940000034430000E143959E6B4317
:102AD0000000B44378000020A40300209C000020E4
:102AE000C0000020E4000020280000209003002007
:102AF0000000A0C20000A0420000964300000000B9
:102B0000CDCC4C3E000048420801002000000000EF
:102B10000000244000000060FB21E9BF07B584B03D
:102B2000069800287DD1049801287BD105980028BB
:102B300078D1DFEDFD0A1FED0F0AFFF743FF8DEDA2
:102B4000030ADFEDF90A1FED130AFFF777FF8DED9A
:102B5000020AF64890ED010A8DED010A90ED000A97
:102B60008DED000ADDED031A9DED021ADDED010A7F
:102B70009DED000AFFF742F8DFEDEB0A9FEDEC0A4E
:102B8000FFF720FF8DED030ADFEDE70A9FEDE80A6E
:102B9000FFF754FF8DED020AE44890ED010A8DED38
:102BA000010A90ED000A8DED000ADDED031A9DED9E
:102BB000021ADDED010A9DED000AFFF71FF8DFEDB7
:102BC000DD0A9FEDDB0AFFF7FDFE8DED030ADFED69
:102BD000D90A9FEDD70AFFF731FF8DED020AD348DE
:102BE00090ED010A8DED010A90ED000A8DED000ACD
:102BF000DDED031A9DED021ADDED010A9DED000ADF
:102C0000FEF7FCFFDFEDCB0A9FEDCB0AFFF7DAFE04
:102C10008DED030ADFEDC70A9FEDC70AFFF70EFF30
:102C200001E0EBE31FE08DED020AC04890ED010AE0
:102C30008DED010A90ED000A8DED000ADDED031A1D
:102C40009DED021ADDED010A9DED000AFEF7D6FFAB
:102C5000B64890ED020A8DED030A5FED660A9DED20
:102C6000030AFFF757FD049801287DD10598012834
:102C70007AD1DFEDAD0A1FED5F0AFFF7A3FE8DED00
:102C8000030ADFEDA90A1FED630AFFF7D7FE8DEDFA
:102C9000020AA64890ED010A8DED010A90ED000AA6
:102CA0008DED000ADDED031A9DED021ADDED010A3E
:102CB0009DED000AFEF7A2FFDFED9B0A9FED9C0A47
:102CC000FFF780FE8DED030ADFED970A9FED980A6E
:102CD000FFF7B4FE8DED020A944890ED010A8DEDE8
:102CE000010A90ED000A8DED000ADDED031A9DED5D
:102CF000021ADDED010A9DED000AFEF77FFFDFED10
:102D00008D0A9FED8B0AFFF75DFE8DED030ADFED67
:102D1000890A9FED870AFFF791FE8DED020A83482D
:102D200090ED010A8DED010A90ED000A8DED000A8B
:102D3000DDED031A9DED021ADDED010A9DED000A9D
:102D4000FEF75CFFDFED7B0A9FED7B0AFFF73AFEA3
:102D50008DED030ADFED770A9FED770AFFF76EFE30
:102D60008DED020A714800E036E090ED010A8DED2C
:102D7000010A90ED000A8DED000ADDED031A9DEDCC
:102D8000021ADDED010A9DED000AFEF737FF6748E4
:102D900090ED020A8DED030A5FEDB60A9DED030A80
:102DA000FFF7B8FCDFED650A1FEDAC0AFFF70AFE7E
:102DB0008DED030ADFED610A1FEDB00AFFF73EFE5D
:102DC0008DED020ADDED031A9DED021A5FEDB50AE5
:102DD0001FEDB60AFEF712FF049801287DD1059871
:102DE00002287AD1DFED500A1FEDBC0AFFF7EAFD99
:102DF0008DED030ADFED4C0A1FEDC00AFFF71EFE42
:102E00008DED020A494890ED010A8DED010A90ED21
:102E1000000A8DED000ADDED031A9DED021ADDEDCD
:102E2000010A9DED000AFEF7E9FEDFED3F0A9FED86
:102E3000400AFFF7C7FD8DED030ADFED3B0A9FED6A
:102E40003C0AFFF7FBFD8DED020A384890ED010AC0
:102E50008DED010A90ED000A8DED000ADDED031AFB
:102E60009DED021ADDED010A9DED000AFEF7C6FE9A
:102E7000DFED300A9FED2E0AFFF7A4FD8DED030A6A
:102E8000DFED2C0A9FED2A0AFFF7D8FD8DED020A2F
:102E9000264890ED010A8DED010A90ED000A8DEDB6
:102EA000000ADDED031A9DED021ADDED010A9DED2C
:102EB000000AFEF7A3FEDFED1F0A9FED1F0AFFF7D2
:102EC00081FD8DED030ADFED1B0A9FED1B0AFFF765
:102ED000B5FD8DED020A154800E049E090ED010ACC
:102EE0008DED010A90ED000A8DED000ADDED031A6B
:102EF0009DED021ADDED010A9DED000AFEF77EFE52
:102F00000A4890ED020A8DED030ADFED0D0A9DEDF2
:102F1000030AFFF7FFFBDFED0B0A9FED0B0AFFF73C
:102F200051FD8DED030A11E0008009C484030020E7
:102F3000000096C4008004440080EDC400C0024438
:102F40000000344300808944000000005FED030A64
:102F50001FED030AFFF772FD8DED020ADDED031A86
:102F60009DED021A5FED080A1FED090AFEF746FE05
:102F7000049802287DD1059800287AD15FED160AC1
:102F80001FED150AFFF71EFD8DED030A5FED1A0A0E
:102F90001FED190AFFF752FD8DED020A5FED1E0AC3
:102FA0001FED170AFFF70EFD8DED010A5FED220AF6
:102FB0001FED1B0AFFF742FD8DED000ADDED031A40
:102FC0009DED021ADDED010A9DED000AFEF716FEE9
:102FD0005FED280A1FED2A0AFFF7F4FC8DED030AC6
:102FE0005FED2C0A1FED2E0AFFF728FD8DED020A7A
:102FF000FC4890ED010A8DED010A90ED000A8DED7F
:10300000000ADDED031A9DED021ADDED010A9DEDCA
:10301000000AFEF7F3FD5FED390A1FED390AFFF7ED
:10302000D1FC8DED030A5FED3D0A1FED3D0AFFF770
:1030300005FD8DED020AEB4890ED010A8DED010AC8
:1030400090ED000A8DED000ADDED031A9DED021AE8
:10305000DDED010A9DED000AFEF7D0FDE14890ED9F
:10306000020A8DED030A5FED4A0A9DED030AFFF7A0
:1030700051FB049802287CD10598012879D15FED95
:10308000560A1FED550AFFF79DFC8DED030A5FED13
:103090005A0A1FED590AFFF7D1FC8DED020A5FEDC8
:1030A0005E0A1FED570AFFF78DFC8DED010A5FEDFB
:1030B000620A1FED5B0AFFF7C1FC8DED000ADDED32
:1030C000031A9DED021ADDED010A9DED000AFEF7DF
:1030D00095FD5FED680A1FED6A0AFFF773FC8DED41
:1030E000030A5FED6C0A1FED6E0AFFF7A7FC8DED7A
:1030F000020ABC4890ED010A8DED010A90ED000A2C
:103100008DED000ADDED031A9DED021ADDED010AD9
:103110009DED000AFEF772FD5FED7A0A1FED7A0A57
:10312000FFF750FC8DED030A5FED7E0A1FED7E0A6E
:10313000FFF784FC8DED020AAA4890ED010A8DED9F
:10314000010A90ED000A8DED000ADDED031A9DEDF8
:10315000021ADDED010A9DED000AFEF74FFDA148C0
:1031600090ED020A8DED030A5FED8B0A9DED030AD7
:1031700000E01BE0FFF7CEFA5FED900A1FED8E0A2C
:10318000FFF720FC8DED030A5FED940A1FED920A14
:10319000FFF754FC8DED020ADDED031A9DED021AD6
:1031A0005FED970A1FED980AFEF728FD04980228A4
:1031B0007ED1059802287BD15FEDA50A1FEDA40AF8
:1031C000FFF700FC8DED030A5FEDA90A1FEDA80AC9
:1031D000FFF734FC8DED020A5FEDAD0A1FEDA60A84
:1031E000FFF7F0FB8DED010A5FEDB10A1FEDAA0AB2
:1031F000FFF724FC8DED000ADDED031A9DED021AA8
:10320000DDED010A9DED000AFEF7F8FC5FEDB70A5F
:103210001FEDB90AFFF7D6FB8DED030A5FEDBB0A80
:103220001FEDBD0AFFF70AFC8DED020A6D4890ED17
:10323000010A8DED010A90ED000A8DED000ADDED29
:10324000031A9DED021ADDED010A9DED000AFEF75D
:10325000D5FC5FEDC80A1FEDC80AFFF7B3FB8DED83
:10326000030A5FEDCC0A1FEDCC0AFFF7E7FB8DEDFB
:10327000020A5C4890ED010A8DED010A90ED000A0A
:103280008DED000ADDED031A9DED021ADDED010A58
:103290009DED000AFEF7B2FC524890ED020A8DED5A
:1032A000030A5FEDD90A9DED030AFFF733FA00E048
:1032B00019E05FEDDC0A1FEDDC0AFFF783FB8DED03
:1032C000030A5FEDE00A1FEDE00AFFF7B7FB8DEDA3
:1032D000020ADDED031A9DED021A5FEDE50A1FED0E
:1032E000E60AFEF78BFC049800287AD1059800289E
:1032F00077D15FEDF30A1FEDEC0AFFF763FB8DED6D
:10330000030A5FEDF70A1FEDF00AFFF797FB8DED5B
:10331000020ADFED350A1FEDF40AFFF753FB8DEDCE
:10332000010ADFED310A1FEDF80AFFF787FB8DED8B
:10333000000ADDED031A9DED021ADDED010A9DED97
:10334000000AFEF75BFCDFED290A9FED290AFFF773
:1033500039FB8DED030ADFED250A9FED250AFFF706
:103360006DFB8DED020ADFED210A9FED220AFFF7CA
:1033700029FB8DED010ADFED1D0A9FED1E0AFFF707
:103380005DFB8DED000ADDED031A9DED021ADDED0A
:10339000010A9DED000AFEF731FCDFED170A9FEDF3
:1033A000140AFFF70FFB8DED030ADFED130A9FED03
:1033B000100AFFF743FB8DED020A0A4890ED010A5F
:1033C0008DED010A90ED000A8DED000ADDED031A86
:1033D0009DED021ADDED010A9DED000AFEF70EFCDF
:1033E0000DE03AE08403002000800944008009C415
:1033F000000096C4000000000080044474E15FED0A
:10340000020A9FEDFD0AFFF7DDFA8DED030A5FED7D
:10341000060A9FEDF90AFFF711FB8DED020AF74846
:1034200090ED010A8DED010A90ED000A8DED000A84
:10343000DDED031A9DED021ADDED010A9DED000A96
:10344000FEF7DCFBED4890ED020A8DED030ADFED9F
:10345000EC0A9DED030AFFF75DF9049800287AD184
:103460000598012877D15FED1F0A1FED1E0AFFF7AF
:10347000A9FA8DED030A5FED230A1FED220AFFF77B
:10348000DDFA8DED020A5FED280A1FED260AFFF72F
:1034900099FA8DED010A5FED2C0A1FED2A0AFFF75C
:1034A000CDFA8DED000ADDED031A9DED021ADDED7A
:1034B000010A9DED000AFEF7A1FB5FED340A1FED46
:1034C000340AFFF77FFA8DED030A5FED380A1FED2E
:1034D000380AFFF7B3FA8DED020A5FED3C0A1FEDE3
:1034E0003B0AFFF76FFA8DED010A5FED400A1FED11
:1034F0003F0AFFF7A3FA8DED000ADDED031A9DEDFB
:10350000021ADDED010A9DED000AFEF777FB5FED83
:10351000460A1FED490AFFF755FA8DED030A5FEDE4
:103520004A0A1FED4D0AFFF789FA8DED020AB348EA
:1035300090ED010A8DED010A90ED000A8DED000A73
:10354000DDED031A9DED021ADDED010A9DED000A85
:10355000FEF754FB00E047E05FED590A9FEDA60A35
:10356000FFF730FA8DED030A5FED5D0A9FEDA20AC9
:10357000FFF764FA8DED020AA04890ED010A8DED87
:10358000010A90ED000A8DED000ADDED031A9DEDB4
:10359000021ADDED010A9DED000AFEF72FFB9748A8
:1035A00090ED020A8DED030ADFED950A9DED030A09
:1035B000FFF7B0F8DFED930A1FED720AFFF702FA8A
:1035C0008DED030ADFED8F0A1FED760AFFF736FA5D
:1035D0008DED020ADDED031A9DED021A5FED7B0A07
:1035E0001FED7C0AFEF70AFB049800287CD10598A1
:1035F000022879D15FED830A1FED820AFFF7E2F915
:103600008DED030A5FED870A1FED860AFFF716FAB4
:103610008DED020A5FED8C0A1FED8A0AFFF7D2F9E1
:103620008DED010A5FED900A1FED8E0AFFF706FA95
:103630008DED000ADDED031A9DED021ADDED010AA4
:103640009DED000AFEF7DAFA5FED980A1FED980A81
:10365000FFF7B8F98DED030A5FED9C0A1FED9C0A98
:10366000FFF7ECF98DED020A5FEDA00A1FED9F0A4E
:10367000FFF7A8F98DED010A5FEDA40A1FEDA30A7B
:10368000FFF7DCF98DED000ADDED031A9DED021A5E
:10369000DDED010A9DED000AFEF7B0FA5FEDAA0A22
:1036A0001FEDAD0AFFF78EF98DED030A5FEDAE0A4F
:1036B0001FEDB10AFFF7C2F98DED020A4F4890EDF8
:1036C000010A8DED010A90ED000A8DED000ADDED95
:1036D000031A9DED021ADDED010A9DED000AFEF7C9
:1036E0008DFA5FEDBB0A00E045E09FED430AFFF76E
:1036F00069F98DED030A5FEDC00A9FED3F0AFFF700
:103700009DF98DED020A3D4890ED010A8DED010A0B
:1037100090ED000A8DED000ADDED031A9DED021A11
:10372000DDED010A9DED000AFEF768FA334890EDE1
:10373000020A8DED030ADFED320A9DED030AFEF762
:10374000E9FFDFED310A1FEDD50AFFF73BF98DEDFB
:10375000030ADFED2D0A1FEDD90AFFF76FF98DED92
:10376000020ADDED031A9DED021A5FEDDE0A1FED80
:10377000DF0AFEF743FA069801287DD10498012854
:103780005ED10598B0BB5FEDE50A9FED200AFFF71B
:1037900019F98DED030A5FEDE90A9FED1C0AFFF7A9
:1037A0004DF98DED020A154890ED010A8DED010AE3
:1037B00090ED000A8DED000ADDED031A9DED021A71
:1037C000DDED010A9DED000AFEF718FA0B4890EDB9
:1037D000020A8DED030ADFED0E0A9DED030AFEF7E6
:1037E00099FFDFED0C0A9FED0C0AFFF7EBF88DED6A
:1037F000030A13E024E000000080EDC484030020ED
:103800000000344300C00244008089440000E1C449
:10381000000034C30000FFC3000000005FED030A96
:103820001FED030AFFF70AF98DED020ADDED031A19
:103830009DED021A5FED080A1FED090AFEF7DEF999
:10384000049801286FD1059801286CD1DFEDFE0A9C
:103850001FED0F0AFFF7B6F88DED030ADFEDFA0A48
:103860001FED130AFFF7EAF88DED020AF74890ED15
:10387000010A8DED010A00E083E290ED000A8DED72
:10388000000ADDED031A9DED021ADDED010A9DED42
:10389000000AFEF7B3F9DFEDEC0A9FEDED0AFFF742
:1038A00091F88DED030ADFEDE80A9FEDE90AFFF7D5
:1038B000C5F88DED020AE54890ED010A8DED010A8B
:1038C00090ED000A8DED000ADDED031A9DED021A60
:1038D000DDED010A9DED000AFEF790F9DB4890ED61
:1038E000020A8DED030A5FED360A9DED030AFEF72D
:1038F00011FF5FED380A1FED380AFFF763F88DED11
:10390000030A5FED3C0A1FED3C0AFFF797F88DEDC7
:10391000020ADDED031A9DED021A5FED410A1FED6B
:10392000420AFEF76BF9049801286DD10598022828
:103930006AD1DFEDC80A1FED480AFFF743F88DEDA5
:10394000030ADFEDC40A1FED4C0AFFF777F88DED8F
:10395000020ABE4890ED010A8DED010A90ED000AC1
:103960008DED000ADDED031A9DED021ADDED010A71
:103970009DED000AFEF742F9DFEDB60A1FED5D0A84
:10398000FFF720F88DED030ADFEDB20A1FED610AA3
:10399000FFF754F88DED020AAC4890ED010A8DED69
:1039A000010A90ED000A8DED000ADDED031A9DED90
:1039B000021ADDED010A9DED000AFEF71FF9A3488A
:1039C00090ED020A8DED030A5FED6F0A9DED030A8B
:1039D000FEF7A0FE5FED710A1FED710AFEF7F2FF20
:1039E0008DED030A5FED750A1FED750AFFF726F8E6
:1039F0008DED020ADDED031A9DED021A5FED7A0AE4
:103A00001FED7B0AFEF7FAF80498022854D10598B6
:103A1000F0BB5FED830A1FED800AFEF7D3FF8DED4B
:103A2000030A5FED870A1FED840AFFF707F88DEDA3
:103A3000020A864890ED010A8DED010A90ED000A18
:103A40008DED000ADDED031A9DED021ADDED010A90
:103A50009DED000AFEF7D2F85FED950A1FED950A7D
:103A6000FEF7B0FF8DED030A5FED990A1FED990A8D
:103A7000FEF7E4FF8DED020A744890ED010A8DED2A
:103A8000010A90ED000A8DED000ADDED031A00E059
:103A900012E09DED021ADDED010A9DED000AFEF730
:103AA000ADF86A4890ED020A8DED030A5FEDAC0AAD
:103AB0009DED030AFEF72EFE0498022853D10598C7
:103AC000012850D1DFED640A1FEDAD0AFEF77AFF41
:103AD0008DED030ADFED600A1FEDB10AFEF7AEFFC0
:103AE0008DED020A594890ED010A8DED010A90ED25
:103AF000000A8DED000ADDED031A9DED021ADDEDE1
:103B0000010A9DED000AFEF779F8DFED530A9FEDFB
:103B1000500AFEF757FF8DED030ADFED4F0A9FEDC8
:103B20004C0AFEF78BFF8DED020A484890ED010A22
:103B30008DED010A90ED000A8DED000ADDED031A0E
:103B40009DED021ADDED010A9DED000AFEF756F823
:103B50003E4890ED020A8DED030A5FEDD70A9DED18
:103B6000030AFEF7D7FD0498022830D105980228F1
:103B70002DD15FEDD70A1FEDDB0AFEF723FF8DED98
:103B8000030A5FEDDB0A1FEDDF0AFEF757FF8DED3D
:103B9000020A2E4890ED010A8DED010A90ED000A0F
:103BA0008DED000ADDED031A9DED021ADDED010A2F
:103BB0009DED000AFEF722F8244890ED020A8DEDF3
:103BC000030A5FEDF10A9DED030AFEF7A3FD0498D9
:103BD00078BB059868BB5FEDF00A1FEDF40AFEF7AD
:103BE000F1FE8DED030A5FEDF40A1FEDF80AFEF712
:103BF00025FF8DED020A154890ED010A8DED010AB1
:103C000090ED000A8DED000ADDED031A9DED021A1C
:103C1000DDED010A9DED000AFDF7F0FF0B4890ED88
:103C2000020A8DED030ADFED0D0A9DED030AFEF792
:103C300071FD0498F0BB0598012862D1DFED020AFE
:103C40009FED070A0EE0000000C001C484030020BD
:103C50000000FAC400007AC400401044000034C3DD
:103C600000000000FEF7AEFE8DED030A5FED0A0ACC
:103C70001FED050AFEF7E2FE8DED020AFE4890ED0B
:103C8000010A8DED010A90ED000A8DED000ADDEDCF
:103C9000031A9DED021ADDED010A9DED000AFDF704
:103CA000ADFF5FED170A1FED160AFEF78BFE8DEDD7
:103CB000030A00E025E05FED1C0A1FED1B0AFEF77A
:103CC000BDFE8DED020AEC4890ED010A8DED010A72
:103CD00090ED000A8DED000ADDED031A9DED021A4C
:103CE000DDED010A9DED000AFDF788FFE24890ED49
:103CF000020A8DED030A5FED270A9DED030AFEF728
:103D000009FD0498E8BB0598022852D15FED2F0AFF
:103D10001FED2D0AFEF756FE8DED030A5FED330A07
:103D20001FED310AFEF78AFE8DED020AD24890EDB2
:103D3000010A8DED010A90ED000A8DED000ADDED1E
:103D4000031A9DED021ADDED010A9DED000AFDF753
:103D500055FFDFEDCA0A9FEDCA0AFEF733FE8DED6F
:103D6000030ADFEDC60A9FEDC60AFEF767FE8DED7A
:103D7000020AC14890ED010A8DED010A90ED000A9A
:103D800000E016E08DED000ADDED031A9DED021A4C
:103D9000DDED010A9DED000AFDF730FFB64890ED1C
:103DA000020A8DED030A5FED530A9DED030AFEF74B
:103DB000B1FC07B000BD70B52DED048B04460D4677
:103DC000012C3FD1012D3DD19FEDAE0AFEF7A0FDA4
:103DD0005FED5D0A9FEDAC0AFEF7F4FDB0EE408AA0
:103DE0005FED610A9FEDA80AFEF728FEF0EE408A1B
:103DF000F0EE481AB0EE681A5FED670A1FED680A28
:103E0000FDF7FCFE9FEDA10AFEF782FD5FED6C0A57
:103E10009FED9F0AFEF7D6FDB0EE408A5FED700A77
:103E20009FED9B0AFEF70AFEF0EE408A5FED741AE2
:103E30001FED751AF0EE480AFDF7E0FE1FED7C0A53
:103E4000FEF766FD012C7AD1022D78D1DFED910AC3
:103E50001FED7D0AFEF7B6FDB0EE408ADFED8D0A5C
:103E60001FED810AFEF7EAFDF0EE408AF0EE481AF7
:103E7000B0EE681A5FED860A1FED870AFDF7BEFEF9
:103E80009FED850A00F00CFB9FED7E0AFEF740FDDA
:103E9000DFED800A9FED810AFEF794FDB0EE408AC7
:103EA000DFED7C0A9FED7D0AFEF7C8FDF0EE408A4B
:103EB000DFED780A1FED960AFEF784FDB0EE409A1A
:103EC000DFED740A1FED9A0AFEF7B8FDF0EE409A96
:103ED000F0EE481AB0EE681AF0EE490AFDF78EFED1
:103EE000F3EE0E0A9FED6D0AFEF76CFDB0EE408A10
:103EF000F3EE0E0A9FED690AFEF7A0FDF0EE408A90
:103F0000DFED640A9FED650AFEF75CFDB0EE409AB6
:103F1000DFED600A9FED610AFEF790FDF0EE409A3A
:103F2000F0EE481AB0EE681AF0EE490AFDF766FEA8
:103F30009FED560AFEF7ECFCF3EE0E0A00E029E0D6
:103F40001FEDB90AFEF73EFDB0EE408AF3EE0E0A11
:103F50001FEDBD0AFEF772FDF0EE408AF3EE0E0A89
:103F60009FED4E0AFEF72EFDB0EE409AF3EE0E0ADC
:103F70009FED4A0AFEF762FDF0EE409AF0EE481A15
:103F8000B0EE681AF0EE490AFDF738FE1FEDD00AD0
:103F9000FEF7BEFCBCBB012D35D15FEDCF0A9FED16
:103FA0003A0AFEF70FFDB0EE408A5FEDD30A9FEDAF
:103FB000360AFEF743FDF0EE408AF0EE481AB0EE06
:103FC000681A5FEDD90A1FEDDA0AFDF717FE1FED3B
:103FD000E00AFEF79DFC5FEDDE0A9FED2B0AFEF77F
:103FE000F1FCB0EE408A5FEDE20A9FED270AFEF792
:103FF00025FDF0EE408A5FEDE61A1FEDE71AF0EEC0
:10400000480AFDF7FBFD002C7DD1022D7BD1DFEDB1
:10401000210A1FEDED0AFEF7D5FCB0EE408ADFED78
:104020001D0A1FEDF10AFEF709FDF0EE408AF0EEE1
:10403000481AB0EE681A5FEDF60A1FEDF70AFDF7B1
:10404000DDFD9FED150A00F02BFADFED120A9FED62
:10405000130AFEF7B7FCB0EE408ADFED0E0A9FEDC3
:104060000F0AFEF7EBFCF0EE408ADFED0A0A9FED47
:104070000C0AFEF7A7FC15E084030020008089C429
:104080000000E1C4000096C50000B44300C0A8C50C
:104090000000B94300007A430000A4420000BE4380
:1040A00000000000B0EE409A5FED060A1FED040A22
:1040B000FEF7C4FCF0EE409AF0EE481AB0EE681A33
:1040C000F0EE490AFDF79AFDF3EE0E0A1FED0D0A18
:1040D000FEF778FCB0EE408AF3EE0E0A1FED110AEF
:1040E000FEF7ACFCF0EE408A5FED160A1FED150AF4
:1040F000FEF768FCB0EE409A5FED1A0A1FED190A50
:10410000FEF79CFC00E035E0F0EE409AF0EE481A35
:10411000B0EE681AF0EE490AFDF770FD9FEDD80A7F
:10412000FEF7F6FBF3EE0E0A1FED230AFEF74AFC3C
:10413000B0EE408AF3EE0E0A1FED270AFEF77EFC72
:10414000F0EE408AF3EE0E0A1FED2C0AFEF73AFC61
:10415000B0EE409AF3EE0E0A1FED300AFEF76EFC49
:10416000F0EE409AF0EE481AB0EE681AF0EE490A06
:10417000FDF744FDBDEC048B70BD70B52DED048BD7
:1041800005460C46012D3FD1012C1CD11FED3C0AE8
:10419000FEF7BEFB5FED3E0A9FEDBA0AFEF712FC8A
:1041A000B0EE408A5FED420A9FEDB60AFEF746FC8C
:1041B000F0EE408A5FED461A1FED471AF0EE480A0E
:1041C000FDF71CFD08E1BEEE000A00F069F91FEDE5
:1041D0004C0AFEF79DFB5FED4E0A9FEDAA0AFEF723
:1041E000F1FBB0EE408A5FED520A9FEDA60AFEF7A2
:1041F00025FCF0EE408A5FED561A1FED571AF0EEDF
:10420000480AFDF7FBFCE7E0022C71D11FED5C0AC8
:10421000FEF77EFBDFED9C0A1FED5F0AFEF7D2FB87
:10422000B0EE408ADFED980A1FED630AFEF706FC48
:10423000F0EE408AF0EE481AB0EE681A5FED680AB8
:104240001FED690AFDF7DAFCDFED8F0A9FED8F0A9B
:10425000FEF7B8FBB0EE408ADFED8B0A9FED8B0ACC
:10426000FEF7ECFBF0EE408ADFED870A1FED740AE3
:10427000FEF7A8FBB0EE409ADFED830A1FED780A47
:10428000FEF7DCFBF0EE409AF0EE481AB0EE681A4A
:10429000F0EE490AFDF7B2FC00F039F95FED800A53
:1042A0009FED7A0AFEF78EFBB0EE408A5FED840A3E
:1042B0009FED760AFEF7C2FBF0EE408ADFED720A50
:1042C0009FED720AFEF77EFBB0EE409ADFED6E0ABC
:1042D0009FED6E0AFEF7B2FBF0EE409AF0EE481A40
:1042E000B0EE681AF0EE490AFDF788FC74E0FFE7CB
:1042F0001FED970A00F0D4F81FED970AFEF708FBB0
:10430000DFED610A1FED9A0AFEF75CFBB0EE408A12
:10431000DFED5D0A1FED9E0AFEF790FBF0EE408A8E
:10432000F0EE481AB0EE681A5FEDA30A1FEDA40A7A
:10433000FDF764FCDFED540A9FED540AFEF742FBE3
:10434000B0EE408ADFED500A9FED500AFEF776FB93
:10435000F0EE408ADFED4C0A1FEDAF0AFEF732FBAC
:10436000B0EE409ADFED480A1FEDB30AFEF766FB98
:10437000F0EE409AF0EE481AB0EE681AF0EE490AF4
:10438000FDF73CFC00F0C3F85FEDBB0A9FED3F0A70
:10439000FEF718FBB0EE408A5FEDBF0A9FED3B0AC7
:1043A000FEF74CFBF0EE408ADFED370A9FED370A4F
:1043B000FEF708FBB0EE409ADFED330A9FED330ABB
:1043C000FEF73CFBF0EE409AF0EE481AB0EE681AA9
:1043D000F0EE490AFDF712FCBDEC048B70BD0246FD
:1043E0006FF002012A48D0ED030AF4EEC00AF1EEA4
:1043F00010FA09D2D0ED030AB1EE401AF4EEC10A68
:10440000F1EE10FA00DD491C2248D0ED030AF4EE6B
:10441000C00AF1EE10FA09D2D0ED030AB1EE401A4B
:10442000F4EEC10AF1EE10FA00DD491C1A48D0ED95
:10443000030AF4EEC00AF1EE10FA09D2D0ED030A35
:10444000B1EE401AF4EEC10AF1EE10FA00DD491C9B
:104450001248D0ED030AF4EEC00AF1EE10FA09D2C8
:10446000D0ED030AB1EE401AF4EEC10AF1EE10FAF3
:1044700000DD491C914201DD012070470020FCE76E
:104480000000FAC40000964300004843000096C3B1
:10449000780000209C000020C0000020E4000020E4
:1044A00010B52DED028BB0EE408AB5EEC08AF1EE6C
:1044B00010FA0ED89FED3E0A28EE000ADFED3D0A05
:1044C00080EE201A9FED3C0A30EE410AB0EE408AA1
:1044D0000DE09FED3A0A28EE000A9FED361AC0EE75
:1044E000010A9FED350A30EE800AB0EE408ABDEE3B
:1044F000C80AB8EEC00AB0EE408ABCEEC80A10EE98
:10450000101A2F4803F095FDBDEC028B10BD00B5CD
:104510008BB00121082002F0C2FA0121084602F006
:1045200075FA02220121274802F05DF80220099065
:104530008DF8280003208DF8290000208DF82A002E
:1045400001208DF82B0009A91E4801F0C1FF53205E
:10455000ADF818000020ADF81A0044F61F6007906F
:104560004FF48070ADF8200006A9154803F071FBE8
:104570006020ADF804000120ADF806000220ADF87F
:10458000100001A90E4803F032FC08210C4803F08A
:104590008BFD01210A4803F0C7FB0121084803F005
:1045A000E1FBBEEE000AFFF77BFF0BB000BD000091
:1045B000004083440000B44200EC9046004083C4B5
:1045C000000C00400000024010B50121084602F036
:1045D0001DFA0121022002F019FA0121042002F043
:1045E00015FA0121082002F011FA0121102002F031
:1045F0000DFA0121202002F009FA0121402002F0E9
:1046000005FA10BD1CB58020009000208DF8040034
:1046100002208DF8050001208DF807006946FE484C
:1046200001F056FF2020009000208DF804000220A9
:104630008DF8050001208DF807006946F64801F065
:1046400047FF0820009000208DF8040002208DF81C
:10465000050001208DF807006946EF4801F038FF9A
:104660004FF48040009000208DF8040002208DF867
:10467000050001208DF807006946E84801F028FF91
:104680004FF48050009000208DF8040002208DF837
:10469000050001208DF807006946E04801F018FF89
:1046A0004FF48060009000208DF8040002208DF807
:1046B000050001208DF807006946D84801F008FF81
:1046C0008020009000208DF8040002208DF8050065
:1046D00001208DF807006946D14801F0F9FE40201D
:1046E000009000208DF8040002208DF805000120C4
:1046F0008DF807006946CB4801F0EAFE10200090D3
:1047000000208DF8040002208DF8050001208DF8AE
:1047100007006946C44801F0DBFE0120009000203C
:104720008DF8040002208DF8050001208DF80700A7
:104730006946B94801F0CCFE0420009000208DF8B5
:10474000040002208DF8050001208DF8070069465D
:10475000B14801F0BDFE4FF48050009000208DF86C
:10476000040002208DF8050001208DF8070069463D
:10477000AE4801F0ADFE4FF48040009000208DF86F
:10478000040002208DF8050001208DF8070069461D
:10479000A64801F09DFE0120009000208DF8040045
:1047A00002208DF8050001208DF8070069469B481E
:1047B00001F08EFE1CBD10B58021974801F0EAFE85
:1047C000012824D12021944801F0E4FE01281ED1C3
:1047D0000821914801F0DEFE012818D181038F489D
:1047E00001F0D8FE012812D101038C4801F0D2FE5D
:1047F00001280CD18102894801F0CCFE012806D1A4
:104800008021874801F0C6FE012800D110BD00209C
:10481000FCE710B58021804801F0BCFEB8B920212A
:104820007D4801F0B7FE90B94FF480617B4801F0FC
:10483000B1FE60B980217A4801F0ACFE38B94FF47E
:104840008041764801F0A6FE012800D110BD00206D
:10485000FCE710B5FFF7DDFF40B301216F4801F021
:1048600099FE18BB4FF48041704801F093FEE8B9FF
:104870004FF480516D4801F08DFEB8B904216648AF
:1048800001F088FE90B90121634801F083FE58B120
:104890001021654801F07EFE012805D040216148C5
:1048A00001F078FE012801D1012010BD0020FCE7B5
:1048B00010B5FFF7AEFF40B340215A4801F06AFE41
:1048C00018BB1021584801F065FEF0B9012152488B
:1048D00001F060FEC8B904214F4801F05BFEA0B9A9
:1048E0004FF48051514801F055FE60B14FF48041C2
:1048F0004E4801F04FFE012805D00121474801F044
:1049000049FE012801D1012010BD0020FCE72DE95E
:10491000F04105460F4616460024082F47D2DFE82F
:1049200007F046040D17212B343D80213C4801F04F
:1049300031FE012801D1601CC4B200BF4FF4806178
:10494000364801F027FE012801D1601CC4B200BF27
:104950004FF48051314801F01DFE012801D1601C47
:10496000C4B200BF4FF480412C4801F013FE01286F
:1049700001D1601CC4B200BF0821274801F00AFE23
:10498000012801D1601CC4B212E02021224801F0AC
:1049900001FE012801D1601CC4B209E080211E483B
:1049A00001F0F8FD012801D1601CC4B200E000BF95
:1049B00000BF082E56D2DFE806F055040D161F285A
:1049C000404B4021174801F0E5FD012801D1601C52
:1049D000C4B200BF1021144801F0DCFD012801D150
:1049E000601CC4B200BF01210B4801F0D3FD0128B7
:1049F00001D1601CC4B200BF0421074801F0CAFD08
:104A0000012801D1601CC4B200BF4FF48051074897
:104A100001F0C0FD01280BE0000402400018024034
:104A2000000C024000000240000802400014024056
:104A300002D1601CC0B2044615E04FF48041FE482C
:104A400001F0A8FD012802D1601CC0B204460AE0B2
:104A50000121FA4801F09EFD012802D1601CC0B27C
:104A6000044600E000BF00BF012D01D0022D06D199
:104A7000012C02D10120BDE8F0810020FBE7032DCD
:104A800005D1022C01D10120F5E70020F3E700BF9A
:104A9000F1E710B58021EA4801F07CFD012811D131
:104AA0000121E64801F076FD01280BD12021E448E0
:104AB00001F070FD30B94FF48041DF4801F06AFD2C
:104AC00000287DD08021DE4801F064FD01281DD141
:104AD0000121DA4801F05EFD012817D12021D848D4
:104AE00001F058FD012811D18103D34801F052FD96
:104AF00001280BD10821D24801F04CFD30B94FF408
:104B00008051CD4801F046FD0028DAD08021CC4804
:104B100001F040FD38BB0121C84801F03BFD10BB4E
:104B20002021C74801F036FD01281CD18103C2486D
:104B300001F030FD012816D10821C14801F02AFDFD
:104B4000012810D10103BC4801F024FD01280AD13D
:104B50008103BA4801F01EFD28B90421B84801F0CC
:104B600019FD0028ADD02021B54801F013FD40BB50
:104B70004FF48041B04801F00DFD10BB0821B04852
:104B800001F008FD01281FD10103AB4801F002FD2F
:104B9000012819D18103A94801F0FCFC012813D197
:104BA0000421A74801F0F6FC01280DD10103A34818
:104BB00001F0F0FC28B90121A14801F0EBFC01E073
:104BC0009AE001E00028A0D008219D4801F0E2FC15
:104BD00048BB4FF48051984801F0DCFC18BB4FF4FF
:104BE0008041964801F0D6FC01281CD1042194484C
:104BF00001F0D0FC012816D10103904801F0CAFC55
:104C0000012810D101218E4801F0C4FC01280AD1ED
:104C100081028A4801F0BEFC28B91021894801F0C0
:104C2000B9FC002868D04FF48041844801F0B2FC00
:104C300038BB0421824801F0ADFC10BB4FF4805119
:104C40007E4801F0A7FC01281BD101217C4801F01E
:104C5000A1FC012815D18102784801F09BFC0128B4
:104C60000FD11021774801F095FC012809D180214E
:104C7000754801F08FFC20B94021744801F08AFC8E
:104C8000D0B34FF480516D4801F084FCE8B90121A4
:104C90006B4801F07FFCC0B94FF48061674801F0B8
:104CA00079FC012811D11021664801F073FC01281C
:104CB0000BD18021644801F06DFC012805D1402111
:104CC000624801F067FC012816D04FF480615B4810
:104CD00001F060FC90B910215A4801F05BFC68B902
:104CE0008021594801F056FC012807D1402157483E
:104CF00001F050FC012801D1012010BD8021504855
:104D000001F048FC012811D101214C4801F042FC7E
:104D100001280BD120214A4801F03CFC30B94FF466
:104D20008041454801F036FC00287DD08021444870
:104D300001F030FCE0B90121404801F02BFCB8B98A
:104D400020213F4801F026FC012811D181033A4877
:104D500001F020FC01280BD10821394801F01AFC90
:104D600030B94FF48051344801F014FC00285BD076
:104D70002021334801F00EFCE0B94FF480412E4869
:104D800001F008FCB0B908212D4801F003FC01280E
:104D900010D10103284801F0FDFB01280AD181034D
:104DA000264801F0F7FB28B90421254801F0F2FB61
:104DB000002839D00821224801F0ECFBE0B94FF47B
:104DC00080511D4801F0E6FBB0B94FF480411B480B
:104DD00001F0E0FB01280FD10421194801F0DAFBB2
:104DE000012809D10103154801F0D4FB20B90121A4
:104DF000134801F0CFFBB8B14FF480410F4801F0E8
:104E0000C9FB50BB04210E4801F0C4FB28BB4FF482
:104E100080510A4801F0BEFB01281ED1012108483B
:104E200001F0B8FB012800E050E016D181020348F0
:104E300001F0B0FB88B90BE00014024000180240FA
:104E40000004024000080240000C02400000024042
:104E50001021F74801F09EFBC0B34FF48051F54894
:104E600001F098FBD8B90121F34801F093FBB0B9E8
:104E70004FF48061EF4801F08DFB01280FD1102124
:104E8000EB4801F087FB012809D18021EB4801F0B4
:104E900081FB20B94021EA4801F07CFBB0B14FF41E
:104EA0008061E44801F076FB90B91021E04801F000
:104EB00071FB68B98021E14801F06CFB012807D142
:104EC0004021DF4801F066FB012801D1022014E7F0
:104ED0008021D94801F05EFB01281DD10121D54870
:104EE00001F058FB012817D12021D34801F052FBD3
:104EF000012811D18103D34801F04CFB01280BD1CB
:104F00000821CD4801F046FB012805D10103CD4819
:104F100001F040FB01287CD02021C74801F03AFB7A
:104F200001281DD18103C74801F034FB012817D1A6
:104F30000821C14801F02EFB012811D10103C1480D
:104F400001F028FB01280BD18103BA4801F022FBB4
:104F5000012805D10421B84801F01CFB01286FD0BD
:104F60000821B54801F016FB01281DD10103B54801
:104F700001F010FB012817D18103AE4801F00AFBB4
:104F8000012811D10421AC4801F004FB01280BD108
:104F90000103A84801F0FEFA012805D10121A64825
:104FA00001F0F8FA01284BD04FF48041A14801F0FC
:104FB000F1FA01281DD104219F4801F0EBFA0128E4
:104FC00017D101039B4801F0E5FA012811D1012115
:104FD000994801F0DFFA01280BD18102954801F0D0
:104FE000D9FA012805D11021914801F0D3FA0128FE
:104FF00026D04FF480518F4801F0CCFA012821D1FE
:1050000001218D4801F0C6FA01281BD1810289488F
:1050100000E015E001F0BEFA012813D11021844808
:1050200001F0B8FA01280DD18021844801F0B2FACC
:10503000012807D14021824801F0ACFA012801D1B2
:1050400003205AE6002058E610B580217A4801F086
:10505000A1FA10BB2021784801F09CFAE8B9082198
:10506000754801F097FAC0B94FF48041714801F0DA
:1050700091FA90B94FF480516E4801F08BFA60B903
:105080004FF480616B4801F085FA30B980216B489C
:1050900001F080FA08B9012010BD0020FCE710B52E
:1050A0004021674801F076FA08BB1021604801F002
:1050B00071FAE0B90121604801F06CFAB8B9042135
:1050C0005D4801F067FA90B94FF480515D4801F0F6
:1050D00061FA60B94FF480415A4801F05BFA30B987
:1050E0000121544801F056FA08B9012010BD0020F2
:1050F000FCE770B50546002480214F4801F04AFACC
:10510000012801D1601CC4B220214B4801F042FAB1
:10511000012801D1601CC4B20821474801F03AFAC5
:10512000012801D1601CC4B24FF48041414801F014
:1051300031FA012801D1601CC4B24FF480513D48BE
:1051400001F028FA012801D1601CC4B24FF480613B
:10515000384801F01FFA012801D1601CC4B2802137
:10516000364801F017FA012801D1601CC4B2AC42E4
:1051700001DB012070BD0020FCE710B580212F4825
:1051800001F008FA28BB4FF480612A4801F002FAC6
:10519000F8B94FF48051274801F0FCF9C8B94FF431
:1051A0008041244801F0F6F998B98021224801F0A5
:1051B000F1F901280BD020211F4801F0EBF901285B
:1051C00005D008211C4801F0E5F9012801D1012092
:1051D00010BD0020FCE710B58021174801F0DAF976
:1051E00028BB2021144801F0D5F900BB0821124842
:1051F00001F0D0F9D8B94FF480410E4801F0CAF956
:10520000A8B980210D4801F0C5F901280DD04FF44F
:105210008061084801F0BEF9012806D04FF48051A2
:10522000044801F0B7F901280ED1012010BD0BE0B0
:10523000000802400018024000040240000C024036
:1052400000000240001402400020EFE710B580216A
:10525000FE4801F09FF9B8B94FF48061FC4801F0B5
:1052600099F988B98021FB4801F094F960B92021AF
:10527000F84801F08FF938B94FF48041F44801F053
:1052800089F9012800D110BD0020FCE710B59FED81
:10529000F22AF3EE0E1ABBEE0E1AFBEE0E0AB3EE76
:1052A0000E0AFCF777FB012000F084FB10BD10B55F
:1052B0009FEDE92AFBEE0E1AB3EE0E1AF3EE0E0A7C
:1052C000BBEE0E0AFCF766FB012000F073FB10BD7D
:1052D00010B59FEDE12AF3EE0E1AB3EE0E1AFBEEB7
:1052E0000E0ABBEE0E0AFCF755FB012000F062FB34
:1052F00010BD10B59FEDD82AFBEE0E1ABBEE0E1AAC
:10530000F3EE0E0AB3EE0E0AFCF744FB012000F0A8
:1053100051FB10BD10B59FEDD02ADFEDCF1A9FEDE8
:10532000CE1ADFEDCD0A9FEDCC0AFCF733FB01204E
:1053300000F040FB10BD10B59FEDC72AF3EE0E1A2A
:10534000B3EE0E1AF3EE0E0AB3EE0E0AFCF722FBD2
:10535000012000F02FFB10BD10B59FEDBF2AFBEE22
:105360000E1ABBEE0E1AFBEE0E0ABBEE0E0AFCF78F
:1053700011FB012000F01EFB10BD0020B749087092
:10538000B7490870B7490870B7490870B74908703D
:10539000704710B5FFF77DFB01281FD1B148007899
:1053A00001281BD10020B04908700220AD490870C7
:1053B000002410E0AA480078042802D1FFF7BBFFC0
:1053C00007E0A7480078052802D1FFF7C5FF00E0F5
:1053D00003E0601CC4B2052CECDB31E0FFF759FBA5
:1053E00002281FD19F48007801281BD100209E4928
:1053F000087002209B490870002410E0984800784B
:10540000042802D1FFF797FF07E0954800780528A8
:1054100002D1FFF7A1FF00E003E0601CC4B20A2C38
:10542000ECDB0DE0FFF735FB032809D18D48007850
:10543000012805D100208C49087002208949087094
:105440008848007848BB8648007884490870022064
:105450008349087084480078F8B980217D4801F0BC
:1054600099F801280AD10121794801F093F801281F
:1054700004D17D4908707B4908701EE0FFF7E4FD08
:1054800060B10121724801F085F8012806D102209F
:10549000754908700120734908700EE080216D483D
:1054A00001F078F8012808D1FFF7F9FD28B10320B1
:1054B0006D49087001206B4908706A48007801281E
:1054C00050D169480078012818D18103604801F063
:1054D00061F801280AD1022062490870604800780A
:1054E0005E49087001205E4908703BE05C48007826
:1054F0005A49087003205A49087033E05A48007826
:10550000022815D12021534801F044F8012807D181
:10551000534800785149087004205149087021E02F
:105520004F4800784D49087003204D49087019E034
:105530004D480078032815D14FF480514C4801F0B4
:1055400029F8012807D14648007844490870052009
:105550004349087006E0424800784049087003203B
:105560003F4908703F48007802283CD1FFF76EFEA3
:1055700038B13B4800783949087001203849087033
:1055800014E0FFF728FE38B1354800783349087039
:1055900002203349087009E0FFF7EFFD30B13048D1
:1055A00000782E49087003202D4908702C48007897
:1055B000012818D129480078022808D1002403E0E6
:1055C000FFF786FE601CC4B2322CF9DB0BE02348E7
:1055D0000078032807D1002403E0FFF78AFE601C4F
:1055E000C4B2322CF9DB1E480078062816D2DFE858
:1055F00000F00C0306090F12FFF748FE12E0FFF758
:1056000067FE0FE0FFF775FE0CE0FFF783FE09E091
:10561000FFF791FE06E0FFF79FFE03E00A2000F08F
:10562000C9F900BF00BF0620FFF763FD30B30D4886
:105630000078022822D1FFF76DFE0020084908708B
:10564000064908700A200749087013E0000C024060
:105650000018024000040240000000002D0000205D
:105660002C0000202E000020300000202F00002001
:105670000014024002490870012010BD0020FCE720
:10568000300000202DE9FE4F002000900190029094
:105690004FF006090026934F0025804600248246DD
:1056A0009149086013E09FED912ADFED901A9FED7C
:1056B0008F1ADFED8E0A9FED8D0AFCF76BF9022041
:1056C00000F078F988480068401C874908608648DF
:1056D00000681428E7DB2EE06D1C022D00D82AE0BC
:1056E0004FF4FA7000F01EF99FED802ADFED7F1A6B
:1056F0009FED7E1ADFED7D0A9FED7C0AFCF74AF9EB
:105700006946002000F0CCFA009880440098B0422E
:1057100000D9009E0098B84200D2009F9FED732AE6
:10572000DFED721A9FED711ADFED700A9FED6F0ABF
:10573000FCF730F900BF4D45CED9A8EB0600C01BE1
:105740000321B0FBF1F440F28A20844201D34FF0F0
:10575000000AB4F5D77F04D3B4F5F77F01D24FF038
:10576000010AB4F5B67F04D9B4F5D67F01D24FF063
:10577000020A5046BDE8FE8F2DE9FE4F0646002086
:105780000090019002904FF0060A0027DFF8548144
:1057900000258146002483465349086013E09FEDAD
:1057A000532ADFED521A9FED511ADFED500A9FED9B
:1057B0004F0AFCF7EFF8022000F0FCF84A480068B6
:1057C000401C49490860484800681428E7DB002E5F
:1057D00048D02FE06D1C022D00D82BE04FF4FA705A
:1057E00000F0A0F89FED412ADFED401A9FED3F1A2F
:1057F000DFED3E0A9FED3D0AFCF7CCF8694600203C
:1058000000F0C7FA009881440098B84200D9009F80
:105810000098404501D2DDF800809FED342ADFED8D
:10582000331A9FED321ADFED310A9FED300AFCF793
:10583000B1F800BF5545CDD9A9EB0700A0EB080092
:105840000321B0FBF1F4B4F5977F04D3B4F5B47F32
:1058500001D84FF0010BFA2C04D3B4F5957F01D297
:105860004FF0020B5846BDE8FE8F2DE9FE4F002099
:105870000090019002904FF004090025194E002479
:1058800000278046824619E0641C022C00D815E0EF
:105890004FF4FA7000F046F86946002000F005FB6E
:1058A000009807440098A84200D9009D0098B04293
:1058B00000D2009E012000F07DF800BF4C45E3D9E6
:1058C000B81BA0EB0508B8F1FA0F05D3B8F5617F56
:1058D00002D84FF0030A01E04FF0000A5046BDE83D
:1058E000FE8F0000FFC99A3B280000200000000046
:1058F00010B504466FF0040000F046FDE11704EB1C
:105900005171C1F3C701394A11701046007800EB9C
:105910004001C1EBC0104FF6FF7101EAC0003449ED
:10592000088010BD0146314A12784A434FF0E02307
:105930005A6100229A611A46126942F001021A6104
:1059400000BF4FF0E022106900F001021AB100F42C
:105950008032002AF5D04FF0E022126922F00102D5
:105960004FF0E0231A6100229A6170470146204AF5
:1059700012884A434FF0E0235A6100229A611A4686
:10598000126942F001021A6100BF4FF0E022106973
:1059900000F001021AB100F48032002AF5D04FF075
:1059A000E022126922F001024FF0E0231A61002286
:1059B0009A61704770B504464FF4077094FBF0F09D
:1059C000C6B24FF4077094FBF0F100FB114085B2B2
:1059D00005E04FF40770FFF7C9FF701EC6B2002E36
:1059E000F7D115B12846FFF7C1FF70BD3200002086
:1059F0003400002000BF704700BFFE4A128802F04A
:105A00004002002AF9D0C2B2FA4B9A80704710B512
:105A100088B004460121084600F0F8FF012110205B
:105A200001F04EF807220921F34800F0DCFD0722BF
:105A30000A21F14800F0D7FD4FF4C0600690022023
:105A40008DF81C008DF81D0000208DF81E0001202F
:105A50008DF81F0006A9E84800F03AFD02940020E6
:105A6000ADF80C00ADF80E00ADF81000ADF8140064
:105A70000C20ADF8120002A9DE4801F082F90121E4
:105A8000DC4801F006FA012240F22551D94801F024
:105A9000B6FA25208DF8040003208DF805008DF856
:105AA000060001208DF8070001A800F020FC08B0D6
:105AB00010BD10B588B004460121022000F0A6FFF9
:105AC0000121880400F0EBFF07220B21CB4800F0F6
:105AD0008AFD07220A21C94800F085FD4FF4406085
