:020000040800F2
:10000000400B002039620008390600083B06000852
:100010003F060008430600084706000800000000ED
:100020000000000000000000000000004B06000877
:100030004D060008000000004F06000851060008A9
:1000400053620008536200085362000853620008BC
:1000500053620008536200085362000853620008AC
:10006000536200085362000853620008536200089C
:10007000536200085362000853620008536200088C
:100080005362000853620008536200087D090008AB
:100090009309000853620008536200085362000885
:1000A000536200085362000853620008536200085C
:1000B000536200085362000853620008536200084C
:1000C000536200085362000853620008536200083C
:1000D00053620008FF600008D161000879610008E0
:1000E000536200085362000853620008536200081C
:1000F000536200085362000853620008536200080C
:1001000053620008536200085362000853620008FB
:1001100053620008536200085362000853620008EB
:1001200053620008536200085362000853620008DB
:1001300053620008536200085362000853620008CB
:1001400053620008536200085362000853620008BB
:10015000536200085362000853620008F961000806
:10016000536200085362000853620008536200089B
:10017000536200085362000853620008536200088B
:10018000536200085362000800F002F800F03CF8E7
:100190000AA090E8000C82448344AAF10107DA45E2
:1001A00001D100F031F8AFF2090EBAE80F0013F0F8
:1001B000010F18BFFB1A43F0010318473C9C0000D5
:1001C0005C9C0000103A24BF78C878C1FAD8520766
:1001D00024BF30C830C144BF04680C6070470000C1
:1001E0000023002400250026103A28BF78C1FBD840
:1001F000520728BF30C148BF0B6070471FB509F0D8
:1002000060FD1FBD10B510BD08F0DCFA1146FFF708
:10021000F5FF00F06CF808F0FAFA03B4FFF7F2FF0C
:1002200003BC05F0B1FB0000014600220020F44BA6
:1002300018600AE0F348F24B1B6850F823000244B0
:10024000EF480068401CEE4B1860ED48006803283A
:10025000F0DB022A15D10020E94B18600DE0E948D7
:10026000E74B1B6850F8230010B9E5480068704759
:10027000E3480068401CE24B1860E148006803282E
:10028000EDDB012A13D1012907D1DE48406801289E
:1002900001D10020EBE70120E9E7022907D1D94885
:1002A0000068012801D10220E1E70020DFE73AB928
:1002B000012901D10120DAE7022901D10020D6E786
:1002C00000BFD4E7D0488068002801DD01207047D6
:1002D000CD480068002801DD0020F8E7CA48006921
:1002E000002801DD0220F2E74FF0FF30EFE72DEDAF
:1002F000048B0120C5490860C549C1F8A80200BFA8
:1003000000254FF4E13005F04CFB4FF4E13005F0EF
:10031000EDFB4FF4E13005F096FB4FF4E13005F0D2
:1003200037FCA82005F0AEFA04F0E6F804F004F972
:100330004FF4A06005F0A0FF04F014FA04F028FACE
:1003400000F082FE01F042F900F08CFA04F042FF66
:1003500004F0ABF900260020AE4908604FF4FA60C3
:1003600005F0F2FA05F0BEF9A749886005F04AFAEF
:10037000A549086008468068F0BB03200861DFEDEE
:10038000A60A9FEDA60A02F031FBB0EE408ADFED2F
:10039000A20A9FEDA20A02F065FBF0EE408AF0EEA1
:1003A000481AB0EE681ADFED9C0A9FED9B0A01F037
:1003B00039FCDFED9B0A9FED990A02F017FBB0EEC6
:1003C000408ADFED970A9FED950A02F04BFBF0EEB5
:1003D000408ADFED910A9FED910A02F007FBB0EE33
:1003E000409ADFED8D0A9FED8D0A02F03BFBF0EEA7
:1003F000409AF0EE481A00E00AE0B0EE681AF0EE1B
:10040000490A01F00FFC00208649086002240AE036
:100410007D48006818B903207B49086102E000208C
:10042000794908610324E9E0062C6ED2DFE804F084
:10043000E3034151BBD3002507E09FED770A7A48DB
:1004400000EB850080ED000A6D1C032DF5DB714883
:100450000268764801687348006802F03FFB6D4807
:100460000068E8B901206B490860714800680128FC
:100470000AD16E48006818B16C480068022803D1A0
:100480009FED6C0A04F0DAF869480068022807D189
:1004900066480068012803D1B9EE040A04F0CEF8DA
:1004A0005C480068012802D100205A4908600224F3
:1004B000A3E004F099FE064656B104F08BFE5548C1
:1004C000006800B9032453480068012800D10424BF
:1004D00093E005F007F94C49524A126841F832009E
:1004E000504A126851F8320005F046F946494D4A23
:1004F000126801EBC201486043484A49096850F854
:100500003100002802DC052477E074E03E484549CC
:10051000096800EBC1004068002823DD3A48414AE1
:10052000126800EBC2004168012003F056FC364817
:100530003C49096800EBC10040683D490860324908
:10054000384A126801EBC2014868FFF76DFE37496F
:1005500008604FF0FF302C49324A126801EBC201AB
:1005600048601EE028482F4A126850F832100020D8
:1005700003F033FC24482B49096850F831002C491A
:1005800008602149274A126851F83200FFF74CFEF3
:10059000264908604FF0FF301B49224A126841F893
:1005A0003200012429E0224801682048006803F055
:1005B00002FE012013491D4A126841F82200FFF78C
:1005C00081FE1849086008460068002801DB012404
:1005D00000E0052411E09FED102ADFED0F1A9FEDDA
:1005E0000E1ADFED0D0A9FED0C0A01F0E7F901206C
:1005F00005F0AAF901E0052400BF00BF14E70000E0
:10060000100000206C00002054000020A482424210
:10061000008042420C00002000000000000034C3B3
:1006200000007A430400002084030020080000201A
:100630000000002000009A42704700BFFEE700BFA4
:10064000FEE700BFFEE700BFFEE770477047704758
:10065000704700000CB500200190009076480068BB
:1006600040F480307449086000BF7348006800F4AB
:10067000003000900198401C0190009818B9019832
:10068000B0F5A04FF1D16C48006800F4003010B113
:100690000120009001E0002000900098012846D140
:1006A00065484030006840F0805063494031086040
:1006B0006248006840F44040604908605E48083085
:1006C00000685D49083108600846006840F4004051
:1006D00008600846006840F4A05008605848091FA8
:1006E0000860081F006840F08070091F086000BFA4
:1006F0005148006800F000700028F9D040F2057001
:10070000504908604C480830006820F003004A490E
:10071000083108600846006840F00200086000BF29
:1007200045480830006800F00C000828F8D10CBDDE
:1007300010B54548006840F47000434908603E48E1
:10074000006840F001003C49086000203A49083147
:100750000860394800683D490840374908603C480E
:10076000091D0860081F006820F48020091F086028
:10077000002031490C310860FFF76CFF4FF000603A
:1007800031498039086010BD70B500200022022375
:1007900000240221284D08352D6805F00C0020B1F9
:1007A000042806D0082834D107E02A4D2A4E3560A7
:1007B00033E02A4D284E35602FE01F4D2D1D2D684A
:1007C000C5F380541C4D2D1D2D6805F03F0154B11B
:1007D000224DB5FBF1F5184E361D3668C6F3881666
:1007E00005FB06F209E01B4DB5FBF1F5124E361D77
:1007F0003668C6F3881605FB06F20F4D2D1D2D68D1
:10080000C5F301456D1C6B00B2FBF3F5124E35606C
:1008100003E0104D104E356000BF00BF064D083597
:100820002D68C5F303150E4E705D0B4D2D68C54048
:10083000094E356070BD0000003802400070004075
:1008400008544007003C024088ED00E0FFFFF6FE40
:10085000103000240024F4001400002000127A005C
:100860001800002000B58BB00121084606F098F86A
:100870000121480606F0DDF84FF4C050099002202F
:100880008DF8280000208DF82A0003208DF829001B
:1008900001208DF82B0009A9FE4805F0E3FD09228F
:1008A0000B21FC4805F069FE09220C21F94805F0EE
:1008B00064FEF94806F0F2FB06A806F013FD0020DE
:1008C0008DF81E008DF81F008DF8200001208DF896
:1008D000210000208DF822008DF823008DF81A00E9
:1008E0008DF81B0008208DF81C0003208DF81D00DA
:1008F000ADF8180006A9E84806F0E9FB00208DF8DD
:1009000012008DF8130001208DF814000020ADF8BE
:100910000800ADF80A00ADF80C00ADF80E00ADF817
:10092000100001208DF8150002A806F05AFC0122E3
:100930000221D94806F054FF01221146D64806F09C
:100940004FFF14208DF8040002208DF805000120CF
:100950008DF806008DF8070001A805F092FC132021
:100960008DF8040001208DF805008DF806008DF843
:10097000070001A805F085FC0BB000BD10B50121F2
:10098000C54806F095FF18B10121C34807F02BF8C0
:1009900010BD00B52DED048B93B00EAA0021BE480A
:1009A00006F003FE40F201210E9888427ED10EA887
:1009B000017CC07B41EA002000B200EE100AB8EED4
:1009C000C00AB64880ED050A0EA8827B407B42EA49
:1009D000002000B200EE100AB8EEC00A10EE101AA5
:1009E000084609F0FDF841EC190B9FEDAD0B53ECF7
:1009F000102B08F013FD41EC180B08F029FC00EE59
:100A0000100AA64880ED030A008B68B9A348408B02
:100A100050B90EA8007B9DF8431040EA012000B2B7
:100A20009E49488308830CE09C48408B9B4908837F
:100A30000EA8007B9DF8431040EA012000B29749C0
:100A40004883964890ED000A8DED050A90ED010A65
:100A50008DED060A90ED020A8DED070A90ED030A6E
:100A60008DED080A90ED040A8DED090A90ED050A56
:100A70008DED0A0A008BADF82C008848408BADF84C
:100A80002E008648C0690C90844890F820008DF8AC
:100A90003400142209A9684607F04AFE05A80FC8C9
:100AA00000F09CFA7D48D0ED010A00E004E030EE51
:100AB000200A80ED010A33E240F202210E988842BA
:100AC0007ED10EA8017CC07B41EA002000B200EE7E
:100AD000100AB8EEC00A744880ED050A0EA8827BA1
:100AE000407B42EA002000B200EE100AB8EEC00AD5
:100AF00010EE101A084609F073F841EC190B9FED3F
:100B0000680B53EC102B08F089FC41EC180B08F033
:100B10009FFB00EE100A644880ED030A008B68B961
:100B20006148408B50B90EA8007B9DF8431040EA05
:100B3000012000B25C49488308830CE05A48408B8E
:100B4000594908830EA8007B9DF8431040EA012014
:100B500000B255494883544890ED000A8DED050ACE
:100B600090ED010A8DED060A90ED020A8DED070A5F
:100B700090ED030A8DED080A90ED040A8DED090A47
:100B800090ED050A8DED0A0A008BADF82C00464861
:100B9000408BADF82E004448C0690C90424890F854
:100BA00020008DF83400142209A9684607F0C0FD22
:100BB00005A80FC800F012FA3B48D0ED010A00E08A
:100BC00004E030EE200A80ED010AA9E140F20321A1
:100BD0000E9888425DD10EA8017CC07B41EA0020BE
:100BE00000B200EE100AB8EEC00A304880ED050AE7
:100BF0000EA8827B407B42EA002000B200EE100A81
:100C0000B8EEC00A10EE101A084608F0E9FF41ECF1
:100C1000190B9FED230B53EC102B08F0FFFB41EC5D
:100C2000180B08F015FB00EE100A204880ED030AAF
:100C3000008B68B91D48408B50B90EA8007B9DF809
:100C4000431040EA012000B21849488308830CE0B1
:100C50001648408B154908830EA8007B9DF8431069
:100C600040EA012000B211494883104890ED000A83
:100C70008DED050A90ED010A8DED060A90ED020A50
:100C80008DED070A90ED030A8DED080A90ED040A38
:100C90000EE033E0000002400064004078000020D5
:100CA00000000000000033409C000020C000002035
:100CB0008DED090A90ED050A8DED0A0A008BADF85D
:100CC0002C00BD48408BADF82E00BB48C0690C908D
:100CD000B94890F820008DF83400142209A968461C
:100CE00007F026FD05A80FC800F078F9B248D0ED4E
:100CF000010A30EE200A80ED010A11E10E98B0F5EC
:100D0000017F7CD10EA8017CC07B41EA002000B2AB
:100D100000EE100AB8EEC00AA84880ED050A0EA839
:100D2000827B407B42EA002000B200EE100AB8EE5F
:100D3000C00A10EE101A084608F052FF41EC190BD9
:100D40001FED290B53EC102B08F068FB41EC180B3E
:100D500008F07EFA00EE100A984880ED030A008B36
:100D600068B99648408B50B90EA8007B9DF8431097
:100D700040EA012000B29149488308830CE08F4883
:100D8000408B8E4908830EA8007B9DF8431040EAF3
:100D9000012000B289494883884890ED000A8DED12
:100DA000050A90ED010A8DED060A90ED020A8DED1F
:100DB000070A90ED030A8DED080A90ED040A8DED07
:100DC000090A90ED050A8DED0A0A008BADF82C009A
:100DD0007A48408BADF82E007848C0690C9077486F
:100DE00090F820008DF83400142209A9684607F015
:100DF0009FFC05A80FC800F0F1F8704800E006E07D
:100E0000D0ED010A30EE200A80ED010A88E040F2C0
:100E100005210E9888427CD10EA8017CC07B41EA56
:100E2000002000B200EE100AB8EEC00A644880ED5F
:100E3000050A0EA8827B407B42EA002000B200EE49
:100E4000100AB8EEC00A10EE101A084608F0C8FEE4
:100E500041EC190B1FED6E0B53EC102B08F0DEFA72
:100E600041EC180B08F0F4F900EE100A544880ED3C
:100E7000030A008B68B95248408B50B90EA8007B1A
:100E80009DF8431040EA012000B24D494883088391
:100E90000CE04B48408B4A4908830EA8007B9DF824
:100EA000431040EA012000B245494883444890ED90
:100EB000000A8DED050A90ED010A8DED060A90ED10
:100EC000020A8DED070A90ED030A8DED080A90EDF8
:100ED000040A8DED090A90ED050A8DED0A0A008BD2
:100EE000ADF82C003648408BADF82E003448C06970
:100EF0000C90334890F820008DF83400142209A992
:100F0000684607F015FC05A80FC800F067F82C48E4
:100F100000E005E0D0ED010A30EE200A80ED010A84
:100F200013B0BDEC048B00BDF0B585B004460D4692
:100F300016461F4600208DF808008DF8090008208D
:100F40008DF80A0080010090200A8DF80B00E1B2B4
:100F50008DF80C10290A8DF80D10E9B28DF80E10DD
:100F6000310A8DF80F10F1B28DF81010390A8DF892
:100F70001110F9B28DF812106946124806F020FAE5
:100F800005B0F0BD10B586B0044600208DF80C0009
:100F90008DF80D0002208DF80E0040F2FF10019038
:100FA000200A8DF80F008DF8104001A9054806F0C1
:100FB00007FA06B010BD0000C0000020E4000020C9
:100FC0000801002000640040B5EEC00AF1EE10FAFE
:100FD00003D2F1EE400AB0EE600A70470FB400B5DC
:100FE000BDF91E00BDF91C10401A01EE100AB8EE42
:100FF000C10AFFF7E9FFDFEDFE0AB4EEE00AF1EE09
:1010000010FA11DDB8EEC10AFFF7DEFFF8EEC11AE3
:10101000C1EE800AB8EEC10ADFEDF61A00EEE10A71
:10102000BDEEC00AB0EE401AB8EEC10ADFEDF20A1A
:1010300020EE200AF3EE031AC0EE210ADFEDED1ACE
:1010400080EEA10A5DF814FB9FEDEC0AEC4880ED00
:10105000010A9FEDEA0AEB4880ED010A9FEDE70ADD
:10106000E94880ED010A9FEDE50AE84880ED010AB4
:101070009FEDE20AE64880ED010A0120E04981F88F
:101080002000E04981F82000DF4981F82000DF4995
:1010900081F82000DE4981F820009FEDD80AD84869
:1010A00080ED020A9FEDD50AD64880ED020A9FED39
:1010B000D30AD54880ED020A9FEDD00AD34880EDCF
:1010C000020A9FEDCE0A084680ED020A70479FEDA6
:1010D000D10AD14880ED000A9FEDD00A80ED010AC7
:1010E0009FEDC60A80ED020A9FEDCD0A80ED030A4E
:1010F0009FEDCC0A80ED040A9FEDC00A80ED050A41
:101100009FEDBE0A80ED060A0020C349C8619FED2D
:10111000C10AC54880ED000A9FEDC00A80ED010AB2
:101120009FEDB60A80ED020A9FEDBD0A80ED030A2D
:101130009FEDBC0A80ED040A9FEDB00A80ED050A20
:101140009FEDAE0A80ED060A0020B749C8619FED09
:10115000B10AB64880ED000A9FEDB00A80ED010AA1
:101160009FEDA60A80ED020A9FEDAD0A80ED030A0D
:101170009FEDAC0A80ED040A9FEDA00A80ED050A00
:101180009FED9E0A80ED060A0020A849C8619FEDE8
:10119000A10AA74880ED000A9FEDA00A80ED010A90
:1011A0009FED960A80ED020A9FED9D0A80ED030AED
:1011B0009FED9C0A80ED040A9FED900A80ED050AE0
:1011C0009FED8E0A80ED060A00209949C8619FEDC7
:1011D000910A984880ED000A9FED900A80ED010A7F
:1011E0009FED860A80ED020A9FED8D0A80ED030ACD
:1011F0009FED8C0A80ED040A9FED800A80ED050AC0
:101200009FED7E0A80ED060A00208A49C86170477A
:101210009FED890A894880ED000AB1EE040A80ED4D
:10122000010A9FED760A80ED020A9FED7D0A80EDAE
:10123000030A9FED830A80ED040A9FED700A80ED9A
:10124000050A9FED6E0A80ED060A00207B49C86101
:101250009FED7C0A084680ED090A9FED7B0A80ED30
:10126000080A9FED750A794880ED000AB1EE040A7C
:1012700080ED010A9FED610A80ED020A9FED680A88
:1012800080ED030A9FED6E0A80ED040A9FED5B0A74
:1012900080ED050A9FED590A80ED060A00206B4992
:1012A000C8619FED680A084680ED090A9FED660A4D
:1012B00080ED080A9FED600A654880ED000AB1EEF6
:1012C000040A80ED010A9FED4D0A80ED020A9FEDB0
:1012D000540A80ED030A9FED5A0A80ED040A9FED3F
:1012E000470A80ED050A9FED450A80ED060A0020B9
:1012F0005749C8619FED530A084680ED090A9FEDE2
:10130000520A80ED080A9FED4C0A524880ED000A0F
:10131000B1EE040A80ED010A9FED380A80ED020A61
:101320009FED3F0A80ED030A9FED450A80ED040A18
:101330009FED320A80ED050A9FED300A80ED060A26
:1013400000204449C8619FED3F0A084680ED090A24
:101350009FED3D0A80ED080A9FED3F0A3F4880ED72
:10136000000AB1EE040A80ED010A9FED240A80ED27
:10137000020A9FED2B0A80ED030A9FED310A80EDF2
:10138000040A9FED1E0A80ED050A9FED1C0A80ED00
:10139000060A00203149C8619FED2A0A084680EDFF
:1013A000090A9FED290A80ED080A70479FED2C0A73
:1013B0002C4880ED000A9FED110A80ED010A9FED97
:1013C0002A0A80ED020A9FED160A80ED030A9FEDBE
:1013D000270A80ED040A9FED090A80ED050A9FEDBA
:1013E000070A80ED060A00201E49C86140E000009F
:1013F00000007A45000000460000B44300000000F1
:10140000780000209C000020C0000020E4000020A4
:10141000080100206666A63F7C0100208FC2F53CD3
:1014200000007A4600806D45F40100206C02002027
:10143000E40200205C03002000007A4354010020F5
:1014400000409C4500007A440000C843CC010020C5
:1014500044020020BC02002000005C433403002052
:1014600085EBD13E2C01002017B7D1380000FA449B
:10147000B3EE040A084680ED090A9FEDFB0A80EDF1
:10148000080A1FED090AF94880ED000A1FED250A38
:1014900080ED010A1FED0C0A80ED020A1FED200A03
:1014A00080ED030A1FED0F0A80ED040A1FED2D0ADF
:1014B00080ED050A1FED2F0A80ED060A0020EB499A
:1014C000C861B3EE040A084680ED090A9FEDE60AFA
:1014D00080ED080A1FED1E0AE54880ED000A1FEDA9
:1014E000390A80ED010A1FED200A80ED020A1FED86
:1014F000340A80ED030A1FED230A80ED040A1FED74
:10150000410A80ED050A1FED430A80ED060A00201E
:10151000D749C861B3EE040A084680ED090A9FED79
:10152000D20A80ED080A1FED320AD24880ED000A87
:101530001FED4E0A80ED010A1FED350A80ED020A0B
:101540001FED490A80ED030A1FED380A80ED040AF9
:101550001FED560A80ED050A1FED580A80ED060AB8
:101560000020C449C861B3EE040A084680ED090AA8
:101570009FEDBD0A80ED080AB7EE000ABE4880ED77
:10158000000A1FED620A80ED010A9FEDBC0A80EDA2
:10159000020A1FED5D0A80ED030A1FED4C0A80ED83
:1015A000040A1FED6A0A80ED050A1FED6C0A80ED42
:1015B000060A0020B049C861B3EE040A084680ED6F
:1015C000090A9FEDA90A80ED080A704700B5FFF7E8
:1015D0007EFDFFF71DFEFFF7E9FE00BD00B5B0EE92
:1015E000403AF0EE603A33EE630AB0EE401AC16959
:1015F000012914D1B0EE410AFFF7E6FCD0ED090A4B
:10160000B4EEE00AF1EE10FA04DB90ED080A60EEA9
:10161000011A08E090ED000A60EE011A03E090ED77
:10162000000A60EE011A90ED010A20EE015A90EDD9
:10163000050A30EE052A90ED040AB4EEC20AF1EE76
:1016400010FA04D290ED040A80ED050A15E090ED41
:10165000040AFFEE000A20EE200AB4EEC20AF1EE00
:1016600010FA08DD90ED040AFFEE000A20EE200AD1
:1016700080ED050A01E080ED052A90ED060A31EEC5
:10168000404A90ED020A60EE044A80ED061A90EDA1
:10169000050A30EE210A70EE242A90ED030AB4EE1A
:1016A000E20AF1EE10FA02D890ED030A00BD90EDC7
:1016B000030AFFEE000A20EE200AB4EEE20AF1EE81
:1016C00010FA06DD90ED030AFFEE000A20EE200A74
:1016D000ECE7B0EE620AE9E710B5694890F820003F
:1016E000012814D0022802D0052833D11FE0644815
:1016F00090ED011AF0EE410A90ED001AB0EE410AA9
:101700006048FFF76BFF5E4880ED020A00BF5C484F
:1017100090ED031AF0EE410A90ED021AB0EE410A84
:101720005948FFF75BFF564880ED040A00BF544854
:1017300090ED051AF0EE410A90ED041AB0EE410A60
:101740005248FFF74BFFBDEEC00A10EE100A4C499D
:10175000C86100E000BF00BF4D4890F8200001289C
:1017600014D0022802D0052833D11FE0484890ED5C
:10177000011AF0EE410A90ED001AB0EE410A3B4822
:10178000FFF72CFF424880ED020A00BF404890ED71
:10179000031AF0EE410A90ED021AB0EE410A3D48FC
:1017A000FFF71CFF3A4880ED040A00BF384890ED6F
:1017B000051AF0EE410A90ED041AB0EE410A3648DF
:1017C000FFF70CFFBDEEC00A10EE100A3049C861E9
:1017D00000E000BF00BF314890F82000012814D07D
:1017E000022802D0052833D11FE02C4890ED011AC1
:1017F000F0EE410A90ED001AB0EE410A1C48FFF7E6
:10180000EDFE264880ED020A00BF244890ED031A41
:10181000F0EE410A90ED021AB0EE410A2048FFF7BF
:10182000DDFE1E4880ED040A00BF1C4890ED051A3D
:10183000F0EE410A90ED041AB0EE410A1948FFF7A4
:10184000CDFEBDEEC00A10EE100A1449C86100E0DA
:1018500000BF00BF144890F82000012836D00228AD
:1018600024D0052855D141E000004842A4010020C1
:101870001C020020940200200C0300200AD7233C05
:10188000780000202C010020540100207C01002061
:101890009C000020CC010020F4010020C0000020AA
:1018A000440200206C020020E40000208D4890EDEE
:1018B000011AF0EE410A90ED001AB0EE410A8A4892
:1018C000FFF78CFE874880ED020A00BF854890ED47
:1018D000031AF0EE410A90ED021AB0EE410A834875
:1018E000FFF77CFE7F4880ED040A00BF7D4890ED45
:1018F000051AF0EE410A90ED041AB0EE410A7C4858
:10190000FFF76CFEBDEEC00A10EE100A7549C86103
:1019100000E000BF00BF774890F82000012814D0F5
:10192000022802D0052833D11FE0724890ED011A39
:10193000F0EE410A90ED001AB0EE410A6E48FFF752
:101940004DFE6C4880ED020A00BF6A4890ED031A14
:10195000F0EE410A90ED021AB0EE410A6748FFF737
:101960003DFE644880ED040A00BF624890ED051A10
:10197000F0EE410A90ED041AB0EE410A6048FFF71C
:101980002DFEBDEEC00A10EE100A5A49C86100E0F3
:1019900000BF00BF534CE46923B25A4CE46922B241
:1019A000594CE46921B2594CE46920B2FFF7BCFA02
:1019B0005049C96908B2FFF7E5FA10BD10B52DED21
:1019C000068BB0EE40AAB0EE608AF0EE418AB0EE2F
:1019D000619AF0EE429A01204C4981F820004A4970
:1019E00081F82000474981F820003E4981F8200015
:1019F000404981F82000454880ED02AA424880ED28
:101A0000028A4048C0ED028A364880ED029A0846B4
:101A1000C0ED029AFFF760FEBDEC068B10BD10B55D
:101A20002DED068BB0EE40AAB0EE608AF0EE418A52
:101A3000B0EE619AF0EE429A0520344981F8200018
:101A4000314981F820002F4981F82000254981F88B
:101A50002000284981F820002C4880ED00AA2A485F
:101A600080ED008A2748C0ED008A1E4880ED009A6C
:101A70000846C0ED009AFFF72FFEBDEC068B10BDA7
:101A800010B52DED068BB0EE40AAB0EE608AF0EEF8
:101A9000418AB0EE619AF0EE429A02201B4981F829
:101AA0002000194981F82000164981F820000D49CD
:101AB00081F820000F4981F82000144880ED00AA29
:101AC000114880ED008A0F48C0ED008A054880ED7E
:101AD000009A0846C0ED009AFFF7FEFDBDEC068BAC
:101AE00010BD0000E400002094020020BC02002091
:101AF000E4020020080100200C0300203403002031
:101B00005C030020C00000209C0000207800002022
:101B1000B5EEC00AF1EE10FA01D100207047B5EE23
:101B2000C00AF1EE10FA01DD0120F7E74FF0FF30B7
:101B3000F4E702466FF00201FE48D0ED012AFE48AC
:101B400090ED003A72EEC32AFC4890ED003A72EE36
:101B5000C32AF0EE620AFA48D0ED012AF64890ED69
:101B6000013A72EEC32AF54890ED013A72EEC32AAB
:101B7000B0EE622AF348D0ED012AEF4890ED023A28
:101B800072EEC32AED4890ED023A72EEC32AB0EE2F
:101B9000621AED48D0ED012AE74890ED033A72EE63
:101BA000C32AE64890ED033A72EEC32AF0EE621AB9
:101BB000F4EEC00AF1EE10FA07D2F1EE402AF4EE8C
:101BC000E20AF1EE10FA00DD491CB4EEC02AF1EE93
:101BD00010FA07D2F1EE402AB4EEE22AF1EE10FA42
:101BE00000DD491CB4EEC01AF1EE10FA07D2F1EE96
:101BF000402AB4EEE21AF1EE10FA00DD491CF4EED0
:101C0000C01AF1EE10FA07D2F1EE402AF4EEE21A11
:101C1000F1EE10FA00DD491C914201DD0120704710
:101C20000020FCE700B52DED040B99B09DED1B0ADB
:101C3000DDED190A30EE600ADFEDC40A20EE200A5D
:101C40008DED120A9DED1C0ADDED1A0A30EE600AD8
:101C5000DFEDBE0A20EE200A8DED110A9FEDBC0AD1
:101C60008DED100AB34890ED010AB34880ED000AEB
:101C7000B34890ED010AB04880ED010AB14890EDFB
:101C8000010AAD4880ED020AAF4890ED010AAA486A
:101C900080ED030A9DED120A9FEDAE1AC0EE010A17
:101CA0009FEDAD0A20EE800AA44880ED000A9DED6C
:101CB000110AB1EE400A9FEDA71AC0EE010A9FED8E
:101CC000A60A20EE800A80ED010A90ED000AB1EE2E
:101CD000400A80ED020A90ED010AB1EE400A80ED63
:101CE000030A00209D49086023E094489B49096845
:101CF00000EB810090ED000AB5EEC00AF1EE10FA9B
:101D000009D29FED970A13A89449096800EB810056
:101D100080ED000A08E09FED930A13A88F49096837
:101D200000EB810080ED000A8C480068401C8B4964
:101D300008608A4800680428D7DB00BF9DED100AC0
:101D4000DFED880AB4EEE00AF1EE10FA7DD21198C8
:101D500007F046FFCDE900019DED000B06F0DCFD2C
:101D60008DED040B129807F03BFFCDE900019DEDCE
:101D7000000B06F0D1FD8DED020B9DED040B53EC35
:101D8000102B9DED020B51EC100B07F093FACDE9EF
:101D90000801119807F024FFCDE900019DED000B2B
:101DA00006F0BAFD8DED040B9DED160A8DED000ACF
:101DB0009DED000AFFF7ACFE00EE100AF8EEC00A37
:101DC0009DED100A20EE800A8DED010A019807F0C2
:101DD00007FFCDE902019DED040B53EC102B9DEDA7
:101DE000020B51EC100B07F007FDCDE906019DED4C
:101DF000080B53EC102B9DED060B51EC100B07F06C
:101E00000DFBCDE90A019DED0A0B51EC100B07F01B
:101E10001FFA0F90119807F0E3FECDE900019DED48
:101E2000000B06F079FD8DED040B129807F0D8FE3B
:101E3000CDE900019DED000B06F06EFD8DED020B6E
:101E40009DED040B53EC102B00E03FE19DED020BE8
:101E500051EC100B07F02EFACDE90801129807F0AB
:101E6000BFFECDE900019DED000B06F055FD8DEDA7
:101E7000040B9DED150A8DED000A9DED000AFFF79C
:101E800047FE00EE100AF8EEC00A9DED100A20EEA3
:101E9000800A8DED010A019807F0A2FECDE902014A
:101EA0009DED040B53EC102B9DED020B51EC100B30
:101EB00007F0A2FCCDE906019DED080B53EC102BB9
:101EC0009DED060B51EC100B07F0A8FACDE90A01C5
:101ED0009DED0A0B51EC100B07F0BAF90E9011981A
:101EE00007F07EFECDE900019DED000B06F014FD2C
:101EF0008DED040B129807F073FECDE900019DED06
:101F0000000B06F009FD8DED020B9DED040B53EC6B
:101F1000102B9DED020B51EC100B07F0CBF9CDE926
:101F20000801119807F05CFECDE900019DED000B62
:101F30001AE0000078000020A40300209003002095
:101F40009C000020C0000020E40000206666863F60
:101F500000000000959E6B430000B4432800002061
:101F6000000096C30000964306F0D6FC8DED040BEE
:101F70009DED140A8DED000A9DED000AFFF7C8FDE6
:101F800000EE100AF8EEC00A9DED100A20EE800A5D
:101F90008DED010A019807F023FECDE902019DEDC8
:101FA000040B53EC102B9DED020B51EC100B07F0C2
:101FB00023FCCDE906019DED080B53EC102B9DEDA4
:101FC000060B51EC100B07F029FACDE90A019DED43
:101FD0000A0B51EC100B07F03BF90D90119807F02C
:101FE000FFFDCDE900019DED000B06F095FC8DEDA8
:101FF000040B129807F0F4FDCDE900019DED000BF4
:1020000006F08AFC8DED020B9DED040B53EC102BBA
:102010009DED020B51EC100B07F04CF9CDE90801D6
:10202000129807F0DDFDCDE900019DED000B06F0F3
:1020300073FC8DED040B9DED130A8DED000A9DEDF3
:10204000000AFFF765FD00EE100AF8EEC00A9DEDEC
:10205000100A20EE800A8DED010A019807F0C0FDFC
:10206000CDE902019DED040B53EC102B9DED020B0D
:1020700051EC100B07F0C0FBCDE906019DED080BFC
:1020800053EC102B9DED060B51EC100B07F0C6F92D
:10209000CDE90A019DED0A0B51EC100B07F0D8F8C1
:1020A0001FED552A0C90DDED0F1A9DED0E1ADDED9A
:1020B0000D0A9DED0C0AFFF781FC9DED100ADFED86
:1020C000FE0A30EE200A8DED100A53E1119807F058
:1020D00087FDCDE900019DED000B06F01DFC8DEDA7
:1020E000040B129807F07CFDCDE900019DED000B7B
:1020F00006F012FC8DED020B9DED040B53EC102B42
:102100009DED020B51EC100B07F0D4F8CDE908015E
:10211000119807F065FDCDE900019DED000B06F07B
:10212000FBFB8DED040B1698019007F059FDCDE9EE
:1021300002019DED040B53EC102B9DED020B51ECB5
:10214000100B07F059FBCDE906019DED080B53EC90
:10215000102B9DED060B51EC100B07F05FF9CDE94C
:102160000A019DED0A0B51EC100B07F071F80F906E
:10217000119807F035FDCDE900019DED000B06F04B
:10218000CBFB8DED040B129807F02AFDCDE9000181
:102190009DED000B06F0C0FB8DED020B9DED040BD9
:1021A00053EC102B9DED020B51EC100B07F082F855
:1021B000CDE90801129807F013FDCDE900019DED6E
:1021C000000B06F0A9FB8DED040B1598019007F0AC
:1021D00007FDCDE902019DED040B53EC102B9DEDA5
:1021E000020B51EC100B07F007FBCDE906019DED4A
:1021F000080B53EC102B9DED060B51EC100B07F068
:102200000DF9CDE90A019DED0A0B51EC100B07F019
:102210001FF80E90119807F0E3FCCDE900019DED49
:10222000000B06F079FB8DED040B129807F0D8FC3B
:10223000CDE900019DED000B06F06EFB8DED020B6C
:102240009DED040B53EC102B9DED020B51EC100B8C
:1022500007F030F8CDE90801119807F0C1FCCDE98D
:1022600000019DED000B06F057FB8DED040B14985B
:10227000019007F0B5FCCDE902019DED040B53EC94
:10228000102B9DED020B51EC100B07F0B5FACDE9C8
:1022900006019DED080B53EC102B9DED060B51EC48
:1022A000100B07F0BBF8CDE90A019DED0A0B51ECCC
:1022B000100B06F0CDFF0D90119807F091FCCDE9C1
:1022C00000019DED000B06F027FB8DED040B12982D
:1022D00007F086FCCDE900019DED000B06F01CFB2C
:1022E0008DED020B9DED040B53EC102B9DED020BBD
:1022F00051EC100B06F0DEFFCDE90801129807F053
:102300006FFCCDE900019DED000B06F005FB8DEDA6
:10231000040B1398019007F063FCCDE902019DEDD9
:10232000040B53EC102B9DED020B51EC100B07F03E
:1023300063FACDE906019DED080B53EC102B9DEDE2
:10234000060B51EC100B07F069F8CDE90A019DED81
:102350000A0B51EC100B06F07BFF9FED582A0C90F6
:10236000DDED0F1A9DED0E1ADDED0D0A9DED0C0A47
:10237000FFF724FB022003F0E7FA4FF0FF309FED58
:10238000500AFFF7D6FB00283FF4D8AC9DED100AA9
:10239000DFED4C0AB4EEE00AF1EE10FA03D29FED45
:1023A000490A8DED100A00BF119807F019FCCDE91C
:1023B00000019DED000B06F0AFFA8DED040B1298B5
:1023C00007F00EFCCDE900019DED000B06F0A4FA2C
:1023D0008DED020B9DED040B53EC102B9DED020BCC
:1023E00051EC100B06F066FFCDE90801119807F0DB
:1023F000F7FBCDE900019DED000B06F08DFA8DEDA8
:10240000040B9DED160A8DED000A9DED000AFFF705
:102410007FFB00EE100AF8EEC00A9DED100A20EED8
:10242000800A8DED010A019807F0DAFBCDE902017F
:102430009DED040B53EC102B9DED020B51EC100B9A
:1024400007F0DAF9CDE906019DED080B53EC102BEE
:102450009DED060B51EC100B06F0E0FFCDE90A01F3
:102460009DED0A0B51EC100B06F0F2FE0F90119847
:1024700007F0B6FBCDE900019DED000B06F04CFA2C
:102480008DED040B129807F0ABFBCDE900019DED3B
:10249000000B06F041FA8DED020B9DED040B53ECA1
:1024A000102B9DED020B51EC100B06F003FFCDE954
:1024B0000801129808E00000CDCCCC3D00000000DF
:1024C0000000FA430000484207F08AFBCDE9000112
:1024D0009DED000B06F020FA8DED040B9DED150A25
:1024E0008DED000A9DED000AFFF712FB00EE100AC9
:1024F000F8EEC00A9DED100A20EE800A8DED010A6B
:10250000019807F06DFBCDE902019DED040B53EC42
:10251000102B9DED020B51EC100B07F06DF9CDE97E
:1025200006019DED080B53EC102B9DED060B51ECB5
:10253000100B06F073FFCDE90A019DED0A0B51EC7B
:10254000100B06F085FE0E90119807F049FBCDE9BF
:1025500000019DED000B06F0DFF98DED040B1298E4
:1025600007F03EFBCDE900019DED000B06F0D4F92C
:102570008DED020B9DED040B53EC102B9DED020B2A
:1025800051EC100B06F096FECDE90801119807F00A
:1025900027FBCDE900019DED000B06F0BDF98DEDA7
:1025A000040B9DED140A8DED000A9DED000AFFF766
:1025B000AFFA00EE100AF8EEC00A9DED100A20EE08
:1025C000800A8DED010A019807F00AFBCDE90201AE
:1025D0009DED040B53EC102B9DED020B51EC100BF9
:1025E00007F00AF9CDE906019DED080B53EC102B1D
:1025F0009DED060B51EC100B06F010FFCDE90A0122
:102600009DED0A0B51EC100B06F022FE0D90119877
:1026100007F0E6FACDE900019DED000B06F07CF92C
:102620008DED040B129807F0DBFACDE900019DED6A
:10263000000B06F071F98DED020B9DED040B53ECD0
:10264000102B9DED020B51EC100B06F033FECDE983
:102650000801129807F0C4FACDE900019DED000BC6
:1026600006F05AF98DED040B9DED130A8DED000A6D
:102670009DED000AFFF74CFA00EE100AF8EEC00AD2
:102680009DED100A20EE800A8DED010A019807F0F9
:10269000A7FACDE902019DED040B53EC102B9DED43
:1026A000020B51EC100B07F0A7F8CDE906019DEDE8
:1026B000080B53EC102B9DED060B51EC100B06F0A4
:1026C000ADFECDE90A019DED0A0B51EC100B06F0B1
:1026D000BFFD1FED862A0C90DDED0F1A9DED0E1A41
:1026E000DDED0D0A9DED0C0AFFF768F99DED100A6E
:1026F0005FED8C0AB4EEE00AF1EE10FA07DD9DED15
:10270000100AF6EE000A30EE600A8DED100A022083
:1027100003F01AF94FF0FF301FED960AFFF709FAA0
:1027200000283FF441AE9DED1B0AFE4880ED000AF3
:102730009DED1C0A80ED010A1DB000BD00B52DED18
:102740000A8B85B0B0EE409AF0EE608A1FEDA50AC4
:10275000B0EE408A38EEC90ADFEDF30A20EE200A17
:10276000F0EE409A9FEDF10A29EE800ADFEDF00AC3
:1027700080EE201A9FEDEF0A61EE000AB0EE001A1B
:1027800080EE810A9FEDEC1AC0EE010A9FEDEB0A84
:1027900020EE800AB0EE40AAE94890ED010AE9482F
:1027A00080ED000AE84890ED010AE64880ED010A54
:1027B000E64890ED010AE34880ED020AE44890ED16
:1027C000010AE04880ED030A0020E24908600DE0BC
:1027D000B1EE4A0AE048DF49096800EB810080ED6C
:1027E000000ADC480068401CDA490860D9480068E3
:1027F0000428EDDB0020D749086023E0D648D549FE
:10280000096800EB810090ED000AB5EEC00AF1EE18
:1028100010FA09D29FEDD10A6846CE49096800EB4B
:10282000810080ED000A08E09FEDCD0A6846C949A5
:10283000096800EB810080ED000AC6480068401C72
:10284000C4490860C34800680428D7DB00BF9FED77
:10285000C50AB4EEC08AF1EE10FA48D2DDED030AE3
:10286000B0EE600AFFF754F900EE100AB8EEC00AA5
:1028700020EE080AF0EE40AADDED020AB0EE600A92
:10288000FFF746F900EE100AB8EEC00A20EE080A7B
:10289000B0EE40BADDED010AB0EE600AFFF738F99C
:1028A00000EE100AB8EEC00A20EE080AF0EE40BAB8
:1028B000DDED000AB0EE600AFFF72AF900EE100A1B
:1028C000B8EEC00A20EE080AB0EE40CA9FEDA62A74
:1028D000F0EE6A1AB0EE4B1AF0EE6B0AFFF76EF8E4
:1028E0009FEDA20A38EE000AB0EE408A16E09DED98
:1028F000032AF0EE421A9DED022AB0EE421A9DED37
:10290000012AF0EE420A9DED002AB0EE420A9FED48
:10291000962AFFF753F8022003F016F800209FEDE7
:10292000940AFFF706F9002891D07E48C0ED028A8C
:1029300005B0BDEC0A8B00BD10B52DED0A8BB0EED5
:10294000408A7F4890ED010ABDEEC00AF0EE408A51
:102950007D4890ED010ABDEEC00AB0EE409A7B487A
:1029600090ED010ABDEEC00AF0EE409A784890ED75
:10297000010ABDEEC00AB0EE40AA7E4890ED010A01
:10298000BDEEC00A10EE104A0EE0B0EE482AF8EE96
:10299000CA1AB8EEE91AF8EEC90AB8EEE80AFFF763
:1029A0006FF8022002F0D0FF724890ED010A30EE7D
:1029B000480A10EE101A084607F012F941EC1C0BF9
:1029C000B0EE4C0AF0EE6C0A05F0A6FFB0EE40BA8D
:1029D000F0EE60BA9FED680B53EC102B51EC1B0B23
:1029E00006F0CEFED1D2BDEC0A8B10BD10B52DED98
:1029F0000C8BB0EE408AF0EE608A9FED610B05F023
:102A000097FFB0EE40CAF0EE60CA18EE100A07F069
:102A1000E7F841EC1D0B53EC1C2B06F0EDFE41ECEE
:102A20001A0B9FED570B05F013FFB0EE40CAF0EE06
:102A300060CA18EE900A07F0D3F841EC1D0B53EC76
:102A40001C2B06F0D9FE41EC1B0B53EC1A2B06F0A5
:102A5000DDFF41EC190B06F0FBFB00EE100ABDECAC
:102A60000C8B10BD10B52DED0C8BB0EE408AF0EE46
:102A7000608A9FED430B05F05BFFB0EE40CAF0EEBD
:102A800060CA18EE900A07F0ABF841EC1D0B53EC4E
:102A90001C2B06F0B1FE41EC1A0B9FED390B05F033
:102AA000D7FEB0EE40CAF0EE60CA18EE100A07F08A
:102AB00097F841EC1D0B53EC1C2B06F09DFE41ECEE
:102AC0001B0B53EC1A2B06F0F5FB41EC190B06F02F
:102AD000BFFB00EE100ABDEC0C8B10BD07B584B037
:102AE000069800287ED1049801287CD105980028FA
:102AF00079D1DFED250A9FED1C0AFFF777FF8DEDF9
:102B0000030ADFED210A9FED180AFFF7ABFF8DEDF9
:102B1000020A044890ED010A8DED010A90ED000AC9
:102B200034E00000840300203333833FDB0F49404F
:102B3000000034430000E143959E6B430000B44322
:102B400078000020A40300209C000020C00000208A
:102B5000E400002028000020900300200000A0C214
:102B60000000A0420000964300000000CDCC4C3E87
:102B7000000048420801002000000000000024403E
:102B800000000060FB21E9BF008009C48DED000A50
:102B9000DDED031A9DED021ADDED010A9DED000A3F
:102BA000FFF740F85FED080A9FEDFE0AFFF71EFFF2
:102BB0008DED030A5FED0C0A9FEDFA0AFFF752FF55
:102BC0008DED020AF84890ED010A8DED010A90EDB5
:102BD000000A8DED000ADDED031A9DED021ADDED10
:102BE000010A01E0FCE354E09DED000AFFF71AF84A
:102BF000DFEDEE0A9FEDEB0AFFF7F8FE8DED030A1D
:102C0000DFEDEA0A9FEDE70AFFF72CFF8DED020AE0
:102C1000E54890ED010A8DED010A90ED000A8DED79
:102C2000000ADDED031A9DED021ADDED010A9DEDAE
:102C3000000AFEF7F7FFDFEDDD0A9FEDDD0AFFF783
:102C4000D5FE8DED030ADFEDD90A9FEDD90AFFF716
:102C500009FF8DED020AD44890ED010A8DED010ABD
:102C600090ED000A8DED000ADDED031A9DED021ACC
:102C7000DDED010A9DED000AFEF7D4FFCA4890ED94
:102C8000020A8DED030A5FED560A9DED030AFFF778
:102C900055FD049801287DD1059801287AD15FED72
:102CA000460A1FED4F0AFFF7A1FE8DED030A5FED07
:102CB0004A0A1FED530AFFF7D5FE8DED020ABA4806
:102CC00090ED010A8DED010A90ED000A8DED000AEC
:102CD000DDED031A9DED021ADDED010A9DED000AFE
:102CE000FEF7A0FF5FED580A9FEDAE0AFFF77EFEEC
:102CF0008DED030A5FED5C0A9FEDAA0AFFF7B2FEB5
:102D00008DED020AA84890ED010A8DED010A90EDC3
:102D1000000A8DED000ADDED031A9DED021ADDEDCE
:102D2000010A9DED000AFEF77DFFDFEDA00A9FED91
:102D30009D0AFFF75BFE8DED030ADFED9C0A9FED18
:102D4000990AFFF78FFE8DED020A974890ED010A70
:102D50008DED010A90ED000A8DED000ADDED031AFC
:102D60009DED021ADDED010A9DED000AFEF75AFF06
:102D7000DFED8E0A9FED8E0AFFF738FE8DED030A18
:102D8000DFED8A0A9FED8A0AFFF76CFE8DED020ADD
:102D9000854800E036E090ED010A8DED010A90EDE6
:102DA000000A8DED000ADDED031A9DED021ADDED3E
:102DB000010A9DED000AFEF735FF7B4890ED020AFF
:102DC0008DED030A5FEDA60A9DED030AFFF7B6FC41
:102DD000DFED780A1FED9C0AFFF708FE8DED030A70
:102DE000DFED740A1FEDA00AFFF73CFE8DED020A2D
:102DF000DDED031A9DED021A5FEDA50A1FEDA60A8F
:102E0000FEF710FF049801287DD1059802287AD199
:102E10005FEDA30A1FEDAC0AFFF7E8FD8DED030A95
:102E20005FEDA70A1FEDB00AFFF71CFE8DED020A49
:102E30005D4890ED010A8DED010A90ED000A8DEDDF
:102E4000000ADDED031A9DED021ADDED010A9DED8C
:102E5000000AFEF7E7FE5FEDB40A9FED520AFFF7A6
:102E6000C5FD8DED030A5FEDB80A9FED4E0AFFF731
:102E7000F9FD8DED020A4C4890ED010A8DED010A35
:102E800090ED000A8DED000ADDED031A9DED021AAA
:102E9000DDED010A9DED000AFEF7C4FEDFED430AF9
:102EA0009FED400AFFF7A2FD8DED030ADFED3F0A1B
:102EB0009FED3C0AFFF7D6FD8DED020A3A4890EDF2
:102EC000010A8DED010A90ED000A8DED000ADDED9D
:102ED000031A9DED021ADDED010A9DED000AFEF7D1
:102EE000A1FEDFED320A9FED320AFFF77FFD8DED87
:102EF000030ADFED2E0A9FED2E0AFFF7B3FD8DEDDD
:102F0000020A294800E036E090ED010A8DED010A41
:102F100090ED000A8DED000ADDED031A9DED021A19
:102F2000DDED010A9DED000AFEF77CFE1E4890EDE6
:102F3000020A8DED030ADFED200A9DED030AFFF77B
:102F4000FDFBDFED1E0A1FEDF80AFFF74FFD8DEDCB
:102F5000030ADFED1A0A1FEDFC0AFFF783FD8DED72
:102F6000020ADDED031A9DED021ADFED150A9FED51
:102F7000140AFEF757FE049802287CD10598002811
:102F800079D1DFED100A9FED070AFFF72FFD8DEDD8
:102F9000030ADFED0C0A9FED030AFFF763FD8DEDD9
:102FA000020A11E0000096C48403002000001644C9
:102FB0000080EDC400C00244000034430080894416
:102FC00000000000008009C45FED020A1FED040A42
:102FD000FFF70CFD8DED010A5FED060A1FED080AF3
:102FE000FFF740FD8DED000ADDED031A9DED021A9D
:102FF000DDED010A9DED000AFEF714FE5FED150AF6
:103000001FED180AFFF7F2FC8DED030A5FED190AB8
:103010001FED1C0AFFF726FD8DED020AFD4890ED1D
:10302000010A8DED010A90ED000A8DED000ADDED3B
:10303000031A9DED021ADDED010A9DED000AFEF76F
:10304000F1FD5FED260A1FED260AFFF7CFFC8DED9F
:10305000030A5FED2A0A1FED2A0AFFF703FD8DED33
:10306000020AEC4890ED010A8DED010A90ED000A8C
:103070008DED000A00E014E0DDED031A9DED021A6B
:10308000DDED010A9DED000AFEF7CCFDE14890ED73
:10309000020A8DED030A5FED380A9DED030AFFF782
:1030A0004DFB049802287CD10598012879D15FED69
:1030B0003B0A1FED440AFFF799FC8DED030A5FED13
:1030C0003F0A1FED480AFFF7CDFC8DED020A5FEDC8
:1030D000430A1FED450AFFF789FC8DED010A5FEDFC
:1030E000470A1FED490AFFF7BDFC8DED000ADDED33
:1030F000031A9DED021ADDED010A9DED000AFEF7AF
:1031000091FD5FED560A1FED590AFFF76FFC8DED3B
:10311000030A5FED5A0A1FED5D0AFFF7A3FC8DED70
:10312000020ABC4890ED010A8DED010A90ED000AFB
:103130008DED000ADDED031A9DED021ADDED010AA9
:103140009DED000AFEF76EFD5FED680A1FED680A4F
:10315000FFF74CFC8DED030A5FED6C0A1FED6C0A66
:10316000FFF780FC8DED020AAA4890ED010A8DED73
:10317000010A90ED000A8DED000ADDED031A9DEDC8
:10318000021ADDED010A9DED000AFEF74BFDA14894
:1031900090ED020A8DED030A5FED790A9DED030AB9
:1031A00000E01BE0FFF7CAFA5FED7E0A1FED7C0A24
:1031B000FFF71CFC8DED030A5FED820A1FED800A0C
:1031C000FFF750FC8DED020ADDED031A9DED021AAA
:1031D0005FED850A1FED860AFEF724FD049802289C
:1031E0007ED1059802287BD15FED8A0A1FED930AF4
:1031F000FFF7FCFB8DED030A5FED8E0A1FED970ACA
:10320000FFF730FC8DED020A5FED920A1FED940A84
:10321000FFF7ECFB8DED010A5FED960A1FED980AB2
:10322000FFF720FC8DED000ADDED031A9DED021A7B
:10323000DDED010A9DED000AFEF7F4FC5FEDA50A45
:103240001FEDA80AFFF7D2FB8DED030A5FEDA90A77
:103250001FEDAC0AFFF706FC8DED020A6D4890EDFC
:10326000010A8DED010A90ED000A8DED000ADDEDF9
:10327000031A9DED021ADDED010A9DED000AFEF72D
:10328000D1FC5FEDB60A1FEDB60AFFF7AFFB8DED7F
:10329000030A5FEDBA0A1FEDBA0AFFF7E3FB8DEDF3
:1032A000020A5C4890ED010A8DED010A90ED000ADA
:1032B0008DED000ADDED031A9DED021ADDED010A28
:1032C0009DED000AFEF7AEFC524890ED020A8DED2E
:1032D000030A5FEDC70A9DED030AFFF72FFA00E02E
:1032E00019E05FEDCA0A1FEDCA0AFFF77FFB8DEDFB
:1032F000030A5FEDCE0A1FEDCE0AFFF7B3FB8DED9B
:10330000020ADDED031A9DED021A5FEDD30A1FEDEF
:10331000D40AFEF787FC049800287AD10598002883
:1033200077D15FEDD80A1FEDDA0AFFF75FFB8DED6D
:10333000030A5FEDDC0A1FEDDE0AFFF793FB8DED5C
:10334000020ADFED350A1FEDE20AFFF74FFB8DEDB4
:10335000010ADFED310A1FEDE60AFFF783FB8DED71
:10336000000ADDED031A9DED021ADDED010A9DED67
:10337000000AFEF757FC5FEDED0A1FEDF60AFFF7B6
:1033800035FB8DED030A5FEDF10A1FEDFA0AFFF739
:1033900069FB8DED020A5FEDF50A1FEDF70AFFF7F5
:1033A00025FB8DED010A5FEDF90A1FEDFB0AFFF722
:1033B00059FB8DED000ADDED031A9DED021ADDEDDE
:1033C000010A9DED000AFEF72DFCDFED140A9FEDCA
:1033D000140AFFF70BFB8DED030ADFED100A00E086
:1033E00095E19FED0F0AFFF73DFB8DED020A0948BD
:1033F00090ED010A8DED010A90ED000A8DED000AB5
:10340000DDED031A9DED021ADDED010A9DED000AC6
:1034100008E037E0840300200080094400001644DF
:10342000000096C4FEF7FEFB5FED040A9FEDFC0A68
:10343000FFF7DCFA8DED030A5FED080A9FEDF80A4D
:10344000FFF710FB8DED020AF64890ED010A8DEDB5
:10345000010A90ED000A8DED000ADDED031A9DEDE5
:10346000021ADDED010A9DED000AFEF7DBFBED48D7
:1034700090ED020A8DED030ADFEDEB0A9DED030AE4
:10348000FFF75CF9049800287ED1059801287BD1CC
:10349000DFEDE60A9FEDE60AFFF7A8FA8DED030AD5
:1034A000DFEDE20A9FEDE20AFFF7DCFA8DED020A9A
:1034B0005FED270A9FEDDE0AFFF798FA8DED010A0E
:1034C0005FED2B0A9FEDDA0AFFF7CCFA8DED000ACB
:1034D000DDED031A9DED021ADDED010A9DED000AF6
:1034E000FEF7A0FBDFEDD10A1FED330AFFF77EFAEE
:1034F0008DED030ADFEDCD0A1FED370AFFF7B2FAB3
:103500008DED020ADFEDC90A9FEDC90AFFF76EFAD9
:103510008DED010ADFEDC50A9FEDC50AFFF7A2FA9E
:103520008DED000ADDED031A9DED021ADDED010AB5
:103530009DED000AFEF776FB5FED480A1FED480A95
:10354000FFF754FA8DED030A5FED4C0A1FED4C0AAC
:10355000FFF788FA8DED020AB24890ED010A8DED71
:10356000010A90ED000A8DED000ADDED031A9DEDD4
:10357000021ADDED010A9DED000AFEF753FB5FED37
:10358000590A9FEDA70A00E043E0FFF72FFA8DEDFF
:10359000030A5FED5E0A9FEDA20AFFF763FA8DED65
:1035A000020AA04890ED010A8DED010A90ED000A93
:1035B0008DED000ADDED031A9DED021ADDED010A25
:1035C0009DED000AFEF72EFB964890ED020A8DED68
:1035D000030ADFED950A9DED030AFFF7AFF8DFED73
:1035E000950A9FED930AFFF701FA8DED030ADFEDCF
:1035F000910A9FED8F0AFFF735FA8DED020ADDED96
:10360000031A9DED021ADFED8A0A9FED890AFEF783
:1036100009FB049800287AD10598022877D1DFEDBC
:10362000830A9FED830AFFF7E1F98DED030ADFEDD1
:103630007F0A9FED7F0AFFF715FA8DED020A5FED15
:103640008A0A9FED7B0AFFF7D1F98DED010A5FED44
:103650008E0A9FED770AFFF705FA8DED000ADDED82
:10366000031A9DED021ADDED010A9DED000AFEF739
:10367000D9FADFED6E0A1FED960AFFF7B7F98DED67
:10368000030ADFED6A0A1FED9A0AFFF7EBF98DEDE9
:10369000020ADFED660A9FED660AFFF7A7F98DEDD6
:1036A000010ADFED620A9FED620AFFF7DBF98DED9B
:1036B000000ADDED031A9DED021ADDED010A9DED14
:1036C000000AFEF7AFFA5FEDAB0A1FEDAB0AFFF79A
:1036D0008DF98DED030A5FEDAF0A1FEDAF0AFFF71D
:1036E000C1F98DED020A4F4890ED010A8DED010AF6
:1036F00090ED000A8DED000ADDED031A9DED021A32
:10370000DDED010A9DED000AFEF78CFA00E047E0CE
:103710005FEDBE0A9FED420AFFF768F98DED030ADF
:103720005FEDC20A9FED3E0AFFF79CF98DED020A9C
:103730003C4890ED010A8DED010A90ED000A8DEDF7
:10374000000ADDED031A9DED021ADDED010A9DED83
:10375000000AFEF767FA334890ED020A8DED030A7E
:10376000DFED310A9DED030AFEF7E8FFDFED320AD7
:103770009FED2F0AFFF73AF98DED030ADFED2E0AD0
:103780009FED2B0AFFF76EF98DED020ADDED031AAE
:103790009DED021ADFED260A9FED250AFEF742FA9B
:1037A000069801287ED1049801285FD10598B0BB06
:1037B000DFED1F0A9FED210AFFF718F98DED030ACF
:1037C000DFED1B0A9FED1D0AFFF74CF98DED020A94
:1037D000144890ED010A8DED010A90ED000A8DED7F
:1037E000000ADDED031A9DED021ADDED010A9DEDE3
:1037F000000AFEF717FA0B4890ED020A8DED030A56
:10380000DFED0F0A9DED030AFEF798FFDFED0D0ACD
:103810009FED070AFFF7EAF88DED030A14E025E0B3
:103820000080EDC48403002000003443008009C4FC
:103830000000000000C00244008089440000E1C490
:10384000000034C30000FFC35FED020A1FED080A49
:10385000FFF708F98DED020ADDED031A9DED021A5E
:103860005FED0D0A1FED0E0AFEF7DCF90498012842
:103870006FD1059801286CD1DFEDFD0A1FED140A08
:10388000FFF7B4F88DED030ADFEDF90A1FED180A12
:10389000FFF7E8F88DED020AF64890ED010A8DED8C
:1038A000010A00E07FE290ED000A8DED000ADDEDF7
:1038B000031A9DED021ADDED010A9DED000AFEF7E7
:1038C000B1F9DFEDEB0A1FED230AFFF78FF88DED5D
:1038D000030ADFEDE70A1FED270AFFF7C3F88DEDB6
:1038E000020AE44890ED010A8DED010A90ED000A0C
:1038F0008DED000ADDED031A9DED021ADDED010AE2
:103900009DED000AFEF78EF9DA4890ED020A8DED82
:10391000030A5FED350A9DED030AFEF70FFF5FED29
:10392000370A1FED3D0AFFF761F88DED030A5FEDE1
:103930003B0A1FED410AFFF795F88DED020ADDED18
:10394000031A9DED021A5FED460A1FED470AFEF7C6
:1039500069F9049801286DD1059802286AD1DFED34
:10396000C60A1FED4D0AFFF741F88DED030ADFEDA2
:10397000C20A1FED510AFFF775F88DED020ABD4826
:1039800090ED010A8DED010A90ED000A8DED000A1F
:10399000DDED031A9DED021ADDED010A9DED000A31
:1039A000FEF740F9DFEDB40A1FED5C0AFFF71EF8E1
:1039B0008DED030ADFEDB00A1FED600AFFF752F844
:1039C0008DED020AAB4890ED010A8DED010A90EDF4
:1039D000000A8DED000ADDED031A9DED021ADDED02
:1039E000010A9DED000AFEF71DF9A24890ED020ABA
:1039F0008DED030A5FED6E0A9DED030AFEF79EFE54
:103A00005FED700A1FED760AFEF7F0FF8DED030AF9
:103A10005FED740A1FED7A0AFFF724F88DED020AB4
:103A2000DDED031A9DED021A5FED7F0A1FED800A9E
:103A3000FEF7F8F80498022854D10598F0BB5FED22
:103A4000820A1FED850AFEF7D1FF8DED030A5FEDB7
:103A5000860A1FED890AFFF705F88DED020A8548F1
:103A600090ED010A8DED010A90ED000A8DED000A3E
:103A7000DDED031A9DED021ADDED010A9DED000A50
:103A8000FEF7D0F85FED940A1FED940AFEF7AEFF43
:103A90008DED030A5FED980A1FED980AFEF7E2FF2D
:103AA0008DED020A734890ED010A8DED010A90ED4B
:103AB000000A8DED000ADDED031A00E012E09DED35
:103AC000021ADDED010A9DED000AFEF7ABF8694828
:103AD00090ED020A8DED030A5FEDAD0A9DED030A3C
:103AE000FEF72CFE0498022853D10598012850D1E6
:103AF000DFED620A1FEDB20AFEF778FF8DED030AD3
:103B0000DFED5E0A1FEDB60AFEF7ACFF8DED020A8F
:103B1000584890ED010A8DED010A90ED000A8DEDF7
:103B2000000ADDED031A9DED021ADDED010A9DED9F
:103B3000000AFEF777F8DFED510A1FEDC00AFEF725
:103B400055FF8DED030ADFED4D0A1FEDC40AFEF7A8
:103B500089FF8DED020A474890ED010A8DED010ABB
:103B600090ED000A8DED000ADDED031A9DED021ABD
:103B7000DDED010A9DED000AFEF754F83D4890ED99
:103B8000020A8DED030A5FEDD80A9DED030AFEF7E8
:103B9000D5FD0498022830D1059802282DD15FED7B
:103BA000DC0A1FEDDA0AFEF721FF8DED030A5FED57
:103BB000E00A1FEDDE0AFEF755FF8DED020A2D48E3
:103BC00090ED010A8DED010A90ED000A8DED000ADD
:103BD000DDED031A9DED021ADDED010A9DED000AEF
:103BE000FEF720F8234890ED020A8DED030A5FED01
:103BF000F20A9DED030AFEF7A1FD049878BB059833
:103C000068BB5FEDF50A1FEDF30AFEF7EFFE8DEDE1
:103C1000030A5FEDF90A1FEDF70AFEF723FF8DEDAA
:103C2000020A144890ED010A8DED010A90ED000A98
:103C30008DED000ADDED031A9DED021ADDED010A9E
:103C40009DED000AFDF7EEFF0A4890ED020A8DEDAA
:103C5000030ADFED0B0A9DED030AFEF76FFD0498E2
:103C6000F0BB059801285ED1DFED010A0AE00000F3
:103C700000C001C48403002000007AC40040104446
:103C8000000034C39FEDFE0AFEF7B0FE8DED030A7F
:103C90005FED090A9FEDFA0AFEF7E4FE8DED020AD8
:103CA000F84890ED010A8DED010A90ED000A8DEDC6
:103CB000000ADDED031A9DED021ADDED010A9DED0E
:103CC000000AFDF7AFFF5FED160A9FEDEF0AFEF762
:103CD0008DFE8DED030A5FED1A0A9FEDEB0A00E001
:103CE00021E0FEF7BFFE8DED020AE64890ED010AE5
:103CF0008DED010A90ED000A8DED000ADDED031A4D
:103D00009DED021ADDED010A9DED000AFDF78AFF27
:103D1000DC4890ED020A8DED030A5FED270A9DED68
:103D2000030AFEF70BFD0498E8BB0598022852D160
:103D30005FED2F0A9FEDD20AFEF758FE8DED030AC4
:103D40005FED330A9FEDCE0AFEF78CFE8DED020A81
:103D5000CC4890ED010A8DED010A90ED000A8DED41
:103D6000000ADDED031A9DED021ADDED010A9DED5D
:103D7000000AFDF757FFDFEDC50A9FEDC30AFEF706
:103D800035FE8DED030ADFEDC10A9FEDBF0AFEF798
:103D900069FE8DED020ABB4890ED010A8DED010A26
:103DA00090ED000A00E016E08DED000ADDED031A4B
:103DB0009DED021ADDED010A9DED000AFDF732FFCF
:103DC000B04890ED020A8DED030A5FED530A9DEDB8
:103DD000030AFEF7B3FC07B000BD70B52DED048BF0
:103DE00004460D46012C3FD1012D3DD19FEDA80A7F
:103DF000FEF7A2FDDFEDA20A9FEDA60AFEF7F6FD93
:103E0000B0EE408ADFED9E0A9FEDA20AFEF72AFE81
:103E1000F0EE408AF0EE481AB0EE681ADFED980A2C
:103E20009FED970AFDF7FEFE9FED9B0AFEF784FDCE
:103E3000DFED930A9FED990AFEF7D8FDB0EE408AB8
:103E4000DFED8F0A9FED950AFEF70CFEF0EE408A3B
:103E5000DFED8B1A9FED8A1AF0EE480AFDF7E2FEBD
:103E60009FED8F0AFEF768FD012C7CD1022D7AD1DF
:103E7000DFED8C0A9FED820AFEF7B8FDB0EE408AB6
:103E8000DFED880A9FED7E0AFEF7ECFDF0EE408A3A
:103E9000F0EE481AB0EE681ADFED790A9FED780A65
:103EA000FDF7C0FE9FED800A00F0C8FB9FED780A89
:103EB000FEF742FDDFED7B0A9FED7C0AFEF796FDE3
:103EC000B0EE408ADFED770A9FED780AFEF7CAFD73
:103ED000F0EE408ADFED730A9FED690AFEF786FD7A
:103EE000B0EE409ADFED6F0A9FED650AFEF7BAFD6E
:103EF000F0EE409AF0EE481AB0EE681AF0EE490A79
:103F0000FDF790FEF3EE0E0A9FED680AFEF76EFDD8
:103F1000B0EE408AF3EE0E0A9FED640AFEF7A2FDB2
:103F2000F0EE408ADFED5F0A9FED600AFEF75EFD6E
:103F3000B0EE409ADFED5B0A9FED5C0AFEF792FD62
:103F4000F0EE409AF0EE481AB0EE681AF0EE490A28
:103F5000FDF768FE9FED500AFEF7EEFCF3EE0E0A49
:103F60009FED470A00E027E0FEF740FDB0EE408AF3
:103F7000F3EE0E0A9FED420AFEF774FDF0EE408A62
:103F8000F3EE0E0A9FED490AFEF730FDB0EE409ABF
:103F9000F3EE0E0A9FED450AFEF764FDF0EE409A3F
:103FA000F0EE481AB0EE681AF0EE490AFDF73AFE54
:103FB0009FED3B0AFEF7C0FCDCBB012D39D19FED24
:103FC0003C0AFEF7B9FCDFED2E0A9FED320AFEF740
:103FD0000DFDB0EE408ADFED2A0A9FED2E0AFEF7B6
:103FE00041FDF0EE408AF0EE481AB0EE681ADFEDBF
:103FF000240A9FED230AFDF715FE9FED290AFEF71F
:104000009BFCDFED1F0A9FED230AFEF7EFFCB0EEED
:10401000408ADFED1B0A9FED1F0AFEF723FDF0EE3D
:10402000408ADFED171A9FED161AF0EE480AFDF7E9
:10403000F9FD002C7DD1022D7BD1DFED1A0A9FED19
:10404000100AFEF7D3FCB0EE408ADFED160A9FEDB2
:104050000C0AFEF707FDF0EE408AF0EE481AB0EECB
:10406000681ADFED070A9FED060AFDF7DBFD9FEDFD
:104070000E0A00F0E3FA9FED0E0AFEF75DFC19E070
:1040800000000000840300200000E1C4008089C417
:10409000002099C50000B4430040B5C50000B943F5
:1040A00000803BC500007A4300009A420000BE43F6
:1040B0000000B4C35FED050A1FED040AFEF796FC8D
:1040C000B0EE408A5FED090A1FED080AFEF7CAFC50
:1040D000F0EE408A5FED0D0A1FED170AFEF786FC31
:1040E000B0EE409A5FED110A1FED1B0AFEF7BAFC15
:1040F000F0EE409AF0EE481AB0EE681AF0EE490A77
:10410000FDF790FDF3EE0E0A1FED180AFEF76EFCA8
:10411000B0EE408AF3EE0E0A1FED1C0AFEF7A2FC79
:10412000F0EE408A5FED210A1FED200AFEF75EFCEB
:1041300000E03DE0B0EE409A5FED260A1FED250A53
:10414000FEF790FCF0EE409AF0EE481AB0EE681AD6
:10415000F0EE490AFDF766FD1FED2F0AFEF7ECFBB6
:10416000F3EE0E0A1FED3A0AFEF740FCB0EE408A6D
:10417000F3EE0E0A1FED3E0AFEF774FCF0EE408AE5
:10418000F3EE0E0A1FED370AFEF730FCB0EE409A50
:10419000F3EE0E0A1FED3B0AFEF764FCF0EE409AC8
:1041A000F0EE481AB0EE681AF0EE490AFDF73AFD53
:1041B000BDEC048B70BD70B52DED048B05460C462F
:1041C000012D47D1012C20D11FED470AFEF7B4FB8A
:1041D0005FED550A9FEDC10AFEF708FCB0EE408A7C
:1041E0005FED590A9FEDBD0AFEF73CFCF0EE408AF8
:1041F0005FED5D1A1FED5E1AF0EE480AFDF712FD45
:104200001FED610AFEF798FB14E1B9EE040A00F015
:1042100015FA1FED590AFEF78FFB5FED670A9FED58
:10422000AF0AFEF7E3FBB0EE408A5FED6B0A9FED4D
:10423000AB0AFEF717FCF0EE408A5FED6F1A1FED38
:10424000701AF0EE480AFDF7EDFC1FED730AFEF759
:1042500073FBEFE0022C75D11FED6B0AFEF76CFBD0
:10426000DFED9F0A1FED7A0AFEF7C0FBB0EE408A31
:10427000DFED9B0A1FED7E0AFEF7F4FBF0EE408AAD
:10428000F0EE481AB0EE681A5FED830A1FED840A5B
:10429000FDF7C8FCDFED920A9FED920AFEF7A6FB40
:1042A000B0EE408ADFED8E0A9FED8E0AFEF7DAFB54
:1042B000F0EE408ADFED8A0A1FED8F0AFEF796FBCB
:1042C000B0EE409ADFED860A1FED930AFEF7CAFBB7
:1042D000F0EE409AF0EE481AB0EE681AF0EE490A95
:1042E000FDF7A0FC5FED9A0A9FED7E0AFEF77EFBCC
:1042F000B0EE408A5FED9E0A9FED7A0AFEF7B2FBB0
:10430000F0EE408ADFED760A9FED760AFEF76EFB4F
:10431000B0EE409ADFED720A9FED720AFEF7A2FB43
:10432000F0EE409AF0EE481AB0EE681AF0EE490A44
:10433000FDF778FC1FEDAE0AFEF7FEFA00F0B5F9C6
:1043400078E0FFE71FEDA80A00F078F91FEDA80A52
:10435000FEF7F2FADFED620A1FEDB70AFEF746FB41
:10436000B0EE408ADFED5E0A1FEDBB0AFEF77AFB76
:10437000F0EE408AF0EE481AB0EE681A5FEDC00A1F
:104380001FEDC10AFDF74EFCDFED550A9FED550A02
:10439000FEF72CFBB0EE408ADFED510A9FED510A8B
:1043A000FEF760FBF0EE408ADFED4D0A1FEDCC0A10
:1043B000FEF71CFBB0EE409ADFED490A1FEDD00A74
:1043C000FEF750FBF0EE409AF0EE481AB0EE681A95
:1043D000F0EE490AFDF726FC5FEDD70A9FED410A92
:1043E000FEF704FBB0EE408A5FEDDB0A9FED3D0A6D
:1043F000FEF738FBF0EE408ADFED390A9FED390A0F
:10440000FEF7F4FAB0EE409ADFED350A9FED350A7B
:10441000FEF728FBF0EE409AF0EE481AB0EE681A6C
:10442000F0EE490AFDF7FEFB1FEDEB0AFEF784FAFA
:1044300000F03BF9BDEC048B70BD02466FF0020149
:104440002948D0ED030AF4EEC00AF1EE10FA09D2C1
:10445000D0ED030AB1EE401AF4EEC10AF1EE10FA03
:1044600000DD491C2148D0ED030AF4EEC00AF1EE4C
:1044700010FA09D2D0ED030AB1EE401AF4EEC10AE7
:10448000F1EE10FA00DD491C1948D0ED030AF4EEF4
:10449000C00AF1EE10FA09D2D0ED030AB1EE401ACB
:1044A000F4EEC10AF1EE10FA00DD491C1148D0ED1E
:1044B000030AF4EEC00AF1EE10FA09D2D0ED030AB5
:1044C000B1EE401AF4EEC10AF1EE10FA00DD491C1B
:1044D000914201DD012070470020FCE70000964377
:1044E00000004843000096C3780000209C00002094
:1044F000C0000020E40000201CB50121202002F0B3
:104500004FFA4FF4C060009001208DF804000020A5
:104510008DF8060003208DF8050001208DF80700B6
:104520006946044801F09EFF4FF4C061014802F063
:1045300015F81CBD001402401CB50121112002F029
:104540002FFA1C20009000208DF8040003208DF825
:10455000050001208DF807006946354801F082FF0B
:104560000120009002208DF807006946314801F0D3
:1045700079FF1CBD10B5044614B101202E49087006
:104580002D480078002837D01021294801F0CCFFB1
:1045900078B10821264801F0C7FF50B10421244812
:1045A00001F0C2FF28B10121224801F0BDFF01281E
:1045B00022D10A2001F0C8F900201F4908701021FB
:1045C0001B4801F0B1FF08B9012010BD08211848AF
:1045D00001F0AAFF08B90220F7E70421144801F00E
:1045E000A3FF08B90320F0E70121124801F09CFF66
:1045F00001281BD10420E8E710210D4801F094FFA9
:10460000012813D108210A4801F08EFF01280DD19D
:104610000421074801F088FF012807D1012105483E
:1046200001F082FF10B90120034908700020CCE797
:1046300000100240000002402C00002010B52DEDBB
:10464000028BB0EE408AB5EEC08AF1EE10FA0ED8B9
:104650009FED3E0A28EE000ADFED3D0A80EE201AAB
:104660009FED3C0A30EE410AB0EE408A0DE09FED2E
:104670003A0A28EE000A9FED361AC0EE010A9FEDB5
:10468000350A30EE800AB0EE408ABDEEC80AB8EEB8
:10469000C00AB0EE408ABCEEC80A10EE101A2F48CD
:1046A00003F091FCBDEC028B10BD00B58BB0012175
:1046B000082002F0BEF90121084602F071F9022239
:1046C0000121274801F059FF022009908DF82800A8
:1046D00003208DF8290000208DF82A0001208DF894
:1046E0002B0009A91E4801F0BDFE5320ADF81800AB
:1046F0000020ADF81A0044F61F6007904FF4807058
:10470000ADF8200006A9154803F06DFA6020ADF859
:1047100004000120ADF806000220ADF8100001A948
:104720000E4803F02EFB08210C4803F087FC012102
:104730000A4803F0C3FA0121084803F0DDFAB9EE94
:10474000040AFFF77BFF0BB000BD0000004083446C
:104750000000B44200EC9046004083C4000C0040CE
:104760000000024010B50121084602F019F90121AC
:10477000022002F015F90121042002F011F90121B3
:10478000082002F00DF90121102002F009F910BDF6
:104790001CB50220009000208DF8040002208DF846
:1047A000050001208DF807006946FE4801F05AFE19
:1047B0004FF40070009000208DF8040002208DF866
:1047C000050001208DF807006946F74801F04AFE10
:1047D0008020009000208DF8040002208DF8050054
:1047E00001208DF807006946EF4801F03BFE2020CC
:1047F000009000208DF8040002208DF805000120B3
:104800008DF807006946E84801F02CFE80200090F2
:1048100000208DF8040002208DF8050001208DF89D
:1048200007006946E14801F01DFE202000900020AD
:104830008DF8040002208DF8050001208DF8070096
:104840006946DA4801F00EFE0820009000208DF83D
:10485000040002208DF8050001208DF8070069464C
:10486000D24801F0FFFD4020009000208DF80400A8
:1048700002208DF8050001208DF807006946CC481C
:1048800001F0F0FD1020009000208DF804000220BF
:104890008DF8050001208DF807006946C54801F034
:1048A000E1FD0120009000208DF8040002208DF829
:1048B000050001208DF807006946BB4801F0D2FDD4
:1048C0008020009000208DF8040002208DF8050063
:1048D00001208DF807006946B24801F0C3FD4FF48E
:1048E0000070009000208DF8040002208DF8050073
:1048F00001208DF807006946AA4801F0B3FD4FF486
:104900000060009000208DF8040002208DF8050062
:1049100001208DF807006946A24801F0A3FD4FF47D
:104920000050009000208DF8040002208DF8050052
:1049300001208DF8070069469A4801F093FD1CBDDF
:1049400010B50221974801F0EFFD012824D1410262
:10495000954801F0E9FD01281ED18021924801F01F
:10496000E3FD012818D120218F4801F0DDFD012849
:1049700012D180218D4801F0D7FD01280CD12021D2
:104980008A4801F0D1FD012806D10821874801F0AD
:10499000CBFD012800D110BD0020FCE710B502219D
:1049A000804801F0C1FDB0B94FF400717E4801F0BC
:1049B000BBFD80B920217D4801F0B6FD58B9082122
:1049C0007A4801F0B1FD30B92021774801F0ACFD03
:1049D000012800D110BD0020FCE710B5FFF7DEFF75
:1049E00048B34FF400516F4801F09EFD18BB4FF4DF
:1049F00000616C4801F098FDE8B94FF40071694816
:104A000001F092FDB8B98021664801F08DFD90B9A2
:104A10000121654801F088FD58B11021654801F079
:104A200083FD012805D04021614801F07DFD01286A
:104A300001D1012010BD0020FCE710B5FFF7AEFF4B
:104A400048B340215A4801F06FFD20BB102159485E
:104A500001F06AFDF8B90121534801F065FDD0B9B4
:104A60008021504801F060FDA8B94FF400714D4815
:104A700001F05AFD68B14FF400614A4801F054FD5D
:104A8000012806D04FF40051464801F04DFD0128A1
:104A900001D1012010BD0020FCE72DE9F0410546C1
:104AA0000F4616460024082F45D2DFE807F04404DD
:104AB0000D161F28313B08213C4801F035FD012827
:104AC00001D1601CC4B200BF2021384801F02CFD88
:104AD000012801D1601CC4B200BF8021334801F01D
:104AE00023FD012801D1601CC4B200BF20212E4843
:104AF00001F01AFD012801D1601CC4B200BF802161
:104B0000294801F011FD012801D1601CC4B213E055
:104B10004FF40071244801F007FD012801D1601C09
:104B2000C4B209E002211F4801F0FEFC012801D1B6
:104B3000601CC4B200E000BF00BF082E55D2DFE801
:104B400006F054040D161F283E494021184801F074
:104B5000EBFC012801D1601CC4B200BF1021154834
:104B600001F0E2FC012801D1601CC4B200BF0121A8
:104B70000D4801F0D9FC012801D1601CC4B200BF6E
:104B80008021084801F0D0FC012801D1601CC4B28A
:104B900000BF4FF40071034801F0C6FC01280DD19D
:104BA000601C09E00010024000040240000C0240BA
:104BB0000000024000080240C0B2044616E04FF474
:104BC0000061FE4801F0B0FC012802D1601CC0B2B7
:104BD00004460BE04FF40051F84801F0A5FC012811
:104BE00002D1601CC0B2044600E000BF00BF012D2E
:104BF00001D0022D06D1012C02D10120BDE8F081A7
:104C00000020FBE7032D05D1022C01D10120F5E79F
:104C10000020F3E700BFF1E710B50221E74801F0FB
:104C200083FC012811D14103E44801F07DFC0128F7
:104C30000BD14102E24801F077FC012805D1C10205
:104C4000DE4801F071FC01287ED04FF40071DC4891
:104C500001F06AFC012811D1C102D84801F064FCBE
:104C600001280BD18021D64801F05EFC012805D136
:104C70004102D24801F058FC0128E5D08021D048FB
:104C800001F052FC012811D14102CC4801F04CFC4A
:104C900001280BD12021CA4801F046FC012805D18A
:104CA0008021C64801F040FC0128CDD02021C44815
:104CB00001F03AFC012811D18021C04801F034FCF8
:104CC00001280BD18021BF4801F02EFC012805D11D
:104CD0000121BB4801F028FC0128B5D08021B9484A
:104CE00001F022FC012811D10121B54801F01CFC82
:104CF00001280BD12021B34801F016FC012805D171
:104D00001021B14801F010FC01289DD02021AD48B0
:104D100001F00AFC012811D11021AB4801F004FC7C
:104D200001280BD10821A74801F0FEFB012805D17D
:104D30004021A64801F0F8FB012885D002219F48B8
:104D400001F0F2FB012800E096E011D141039B48FD
:104D500001F0EAFB01280BD14102994801F0E4FB84
:104D600030B94FF40061954801F0DEFB002884D093
:104D70000221924801F0D8FBF0B94FF400518F485E
:104D800001F0D2FBC0B94FF400718D4801F0CCFBAB
:104D9000012811D1C102894801F0C6FB01280BD1BD
:104DA0008021874801F0C0FB30B94FF4007183487F
:104DB00001F0BAFB00287AD04FF40071804801F06E
:104DC000B3FBD8B94FF400617C4801F0ADFBA8B942
:104DD00080217B4801F0A8FB01280FD141027748D0
:104DE00001F0A2FB012809D12021754801F09CFBAC
:104DF00020B98021714801F097FBE8B38021714808
:104E000001F092FBD8B901216D4801F08DFBB0B9DA
:104E100020216B4801F088FB012810D180216748D0
:104E200001F082FB01280AD18021654801F07CFB5A
:104E300028B94FF40071614801F076FBE0B1202100
:104E40005F4801F071FBE0B980215C4801F06CFB28
:104E5000B8B980215B4801F067FB012811D101211D
:104E6000574801F061FB01280BD12021554801F082
:104E70005BFB30B9102100E019E0534801F054FB0E
:104E8000A8B120214F4801F04FFB012811D110217A
:104E90004D4801F049FB01280BD10821494801F098
:104EA00043FB30B94021494801F03EFB08B90120DD
:104EB00010BD0020FCE710B50221404801F034FB92
:104EC00000BB4FF400713E4801F02EFBD0B98021A9
:104ED0003B4801F029FBA8B92021394801F024FB07
:104EE00080B98021374801F01FFB58B9202135488F
:104EF00001F01AFB30B90821324801F015FB08B95E
:104F0000012010BD0020FCE710B540212F4801F022
:104F10000BFB10BB10212C4801F006FBE8B9012166
:104F2000274801F001FBC0B98021244801F0FCFAB8
:104F300098B94FF40071214801F0F6FA68B94FF4BE
:104F400000611E4801F0F0FA38B94FF400511B48D7
:104F500001F0EAFA08B9012010BD0020FCE770B5A5
:104F6000054600240221154801F0DEFA012801D18E
:104F7000601CC4B24FF40071114801F0D5FA012849
:104F800001D1601CC4B280210D4801F0CDFA012886
:104F900001D1601CC4B22021094801F0C5FA0128E2
:104FA00001D1601CC4B28021064801F0BDFA01287D
:104FB00001D1601CC4B22021024809E00010024067
:104FC00000040240000C02400008024000000240C1
:104FD00001F0AAFA012801D1601CC4B20821FD48E1
:104FE00001F0A2FA012801D1601CC4B2AC4201DB7D
:104FF000012070BD0020FCE710B50821F54801F044
:1050000093FA18BB2021F34801F08EFAF0B9802101
:10501000F04801F089FAC8B92021EF4801F084FA7C
:10502000A0B90221ED4801F07FFA01280CD04FF41D
:105030000071E94801F078FA012805D08021E6489E
:1050400001F072FA012801D1012010BD0020FCE717
:1050500010B50221E14801F067FA18BB4FF4007166
:10506000DD4801F061FAE8B98021DB4801F05CFA23
:10507000C0B92021D84801F057FA98B90821D5487D
:1050800001F052FA01280BD02021D24801F04CFA4D
:10509000012805D08021CF4801F046FA012801D12E
:1050A000012010BD0020FCE710B50821C94801F01F
:1050B0003BFAB0B92021C74801F036FA88B902217D
:1050C000C64801F031FA60B94FF40071C24801F0EE
:1050D0002BFA30B92021C04801F026FA012800D16E
:1050E00010BD0020FCE710B59FEDBD2AF3EE0E1AAF
:1050F000BBEE0E1AFBEE0E0AB3EE0E0AFCF75EFCD8
:10510000012000F021FC10BD10B59FEDB52AFBEE8B
:105110000E1AB3EE0E1AF3EE0E0ABBEE0E0AFCF7F1
:105120004DFC012000F010FC10BD10B59FEDAC2A25
:10513000F3EE0E1AB3EE0E1AFBEE0E0ABBEE0E0ADB
:10514000FCF73CFC012000F0FFFB10BD10B59FED0B
:10515000A42AFBEE0E1ABBEE0E1AF3EE0E0AB3EE05
:105160000E0AFCF72BFC012000F0EEFB10BD10B581
:105170009FED9B2ADFED9A1A9FED991ADFED980AB1
:105180009FED970AFCF71AFC012000F0DDFB10BD33
:1051900010B59FED932AF3EE0E1AB3EE0E1AF3EE4E
:1051A0000E0AB3EE0E0AFCF709FC012000F0CCFB5E
:1051B00010BD10B59FED8A2AFBEE0E1ABBEE0E1A3B
:1051C000FBEE0E0ABBEE0E0AFCF7F8FB012000F026
:1051D000BBFB10BD002083490870834908708349D8
:1051E000087083490870704710B5FFF764FE002807
:1051F00079D0FFF789FE0028FAD0FFF70DFD48B1FE
:105200007A480078012805D10020794908700220E9
:105210007649087075480078002839D172480078BE
:105220007049087002207049087071480078F8B918
:105230000821684801F078F901280AD140216D4819
:1052400001F072F9012804D16949087067490870B2
:105250001EE0FFF759FE60B108215E4801F064F9D5
:10526000012806D102206249087001205F490870B8
:105270000EE040215F4801F057F9012808D1FFF7FF
:105280001AFE28B103205A490870012057490870B6
:1052900056480078012838D155480078012810D1A7
:1052A00020214D4801F040F901282ED102204F491C
:1052B00008704D4800784B49087001204A49087031
:1052C00023E04B48007802280ED10102424801F049
:1052D0002BF9012819D1444800784249087004206C
:1052E0004149087011E0B4E04148007803280CD12E
:1052F0008021384801F018F9012806D13A48007891
:105300003849087005203849087038480078022864
:1053100039D1FFF7C9FE38B13348007831490870F8
:105320000120314908702EE0FFF792FE38B12E4877
:1053300000782C49087002202B49087023E0FFF701
:105340005BFE38B1284800782649087003202649BA
:10535000087018E00620FFF702FE50B122480078DE
:10536000204908700020204908700A201F49087051
:1053700009E0FFF7A0FD30B11B480078194908701B
:105380000020194908701848007810BBFFF793FDFA
:10539000F8B116480078022831D112480078022866
:1053A00001D1114908700F480078032801D10E4936
:1053B00008700C480078012821D10620FFF7CFFDA6
:1053C000D0B1002008490870064908700A20074932
:1053D000087014E0000C024000040240001002407B
:1053E000000000002E0000202D0000202F000020D3
:1053F00030000020000002400120B3490870B2488C
:105400000078062816D2DFE800F00C0306090F1218
:10541000FFF769FE12E0FFF788FE0FE0FFF796FE48
:105420000CE0FFF7A4FE09E0FFF7B2FE06E0FFF78D
:10543000C0FE03E00A2000F087FA00BF00BF06208C
:10544000FFF78DFD18B1FFF792FE012010BD00207F
:10545000FCE7FFF7E1FB48B19C480078012805D143
:1054600000209B49087002209849087097480078EE
:1054700050BB9548007897490870022092490870FF
:105480009348007800BB0221934801F04DF80128B1
:105490000AD14103904801F047F8012804D18C4912
:1054A00008708A4908701FE0FFF705FD68B14FF4E6
:1054B0000051894801F038F8012806D102208449BA
:1054C00008700120814908700EE00221824801F035
:1054D0002BF8012808D1FFF717FD28B103207C49DC
:1054E00008700120794908707848007801285BD15C
:1054F00077480078012818D12021784801F014F865
:1055000001280AD10220714908706F48007871495A
:10551000087001206C49087046E06B4800786D49BE
:1055200008700320684908703EE069480078022846
:105530001BD18021694800F0F7FF012805D0202108
:10554000664800F0F1FF012807D15F480078614903
:10555000087004205C49087026E05B4800785D49CB
:1055600008700320584908701EE059480078032845
:105570001AD120215A4800F0D7FF012805D08021F8
:10558000574800F0D1FF012807D14F480078514912
:10559000087005204C49087006E04B4800784D49DA
:1055A000087003204849087048480078022836D11E
:1055B000FFF77AFD38B14448007846490870012069
:1055C000414908702BE0FFF743FD38B13E480078B1
:1055D0004049087002203C49087020E0FFF70CFDAC
:1055E00038B1394800783B490870032036490870C3
:1055F00015E00620FFF7B3FC38B133480078354991
:10560000087000203049087009E0FFF754FC30B101
:105610002D4800782F49087000202B4908702A482F
:10562000007810BBFFF747FCF8B128480078022843
:105630001FD128480078022801D123490870254845
:105640000078032801D120490870224800780128F9
:105650000FD10620FFF783FC40B100201A490870E3
:105660001C4908700A201949087002E001201649F7
:10567000087015480078062816D2DFE800F00C0301
:1056800006090F12FFF72FFD12E0FFF74EFD0FE0A6
:10569000FFF75CFD0CE0FFF76AFD09E0FFF778FD1E
:1056A00006E0FFF786FD03E00A2000F04DF900BF99
:1056B00000BF0620FFF753FC18B1FFF758FD01208B
:1056C000C4E60020C2E600002D0000202F000020CC
:1056D000300000202E000020001002400004024094
:1056E000000C02402DE9FE4F002000900190029036
:1056F00004270025DFF884A1002680460024814687
:105700001EE0761C022E00D81AE04FF4FA7000F06A
:10571000D3F86946002000F08DFA00988044009884
:10572000A84200D9009D9FED562ADFED551A9FED46
:10573000541ADFED530A9FED520AFCF73FF900BF00
:10574000BE42DED92C4640F28A20844201D34FF07B
:105750000009B4F5D77F04D3B4F5F77F01D24FF039
:105760000109B4F5B67F04D9B4F5D67F01D24FF064
:1057700002094846BDE8FE8F2DE9FE4F074600208E
:105780000090019002904FF004080025DFF8ECB083
:1057900000268146002482468FB31EE0761C022E2E
:1057A00000D81AE04FF4FA7000F086F8694600203D
:1057B00000F0B9FA009881440098A84200D9009DF1
:1057C0009FED2F2ADFED2E1A9FED2D1ADFED2C0A0B
:1057D0009FED2B0AFCF7F2F800BF4645DED92C46B8
:1057E000B4F5977F04D3B4F5B47F01D84FF0010A24
:1057F000FA2C04D3B4F5957F01D24FF0020A50463B
:10580000BDE8FE8F2DE9FE4F002000900190029030
:105810004FF004090025194E0024002780468246D7
:1058200019E0641C022C00D815E04FF4FA7000F067
:1058300043F86946002000F002FB009807440098F6
:10584000A84200D9009D0098B04200D2009E0120DD
:1058500000F07AF800BF4C45E3D9B81BA0EB05086F
:10586000B8F5C87F05D3B8F5487F02D84FF0030AD2
:1058700001E04FF0000A5046BDE8FE8FFFC99A3B99
:105880000000000010B504466FF0040000F046FD73
:10589000E11704EB5171C1F3C701394A1170104689
:1058A000007800EB4001C1EBC0104FF6FF7101EA38
:1058B000C0003449088010BD0146314A12784A437D
:1058C0004FF0E0235A6100229A611A46126942F0B1
:1058D00001021A6100BF4FF0E022106900F00102DE
:1058E0001AB100F48032002AF5D04FF0E02212699C
:1058F00022F001024FF0E0231A6100229A61704702
:105900000146204A12884A434FF0E0235A610022A0
:105910009A611A46126942F001021A6100BF4FF003
:10592000E022106900F001021AB100F48032002A6E
:10593000F5D04FF0E022126922F001024FF0E0238F
:105940001A6100229A61704770B504464FF40770DF
:1059500094FBF0F0C6B24FF4077094FBF0F100FB3B
:10596000114085B205E04FF40770FFF7C9FF701EC4
:10597000C6B2002EF7D115B12846FFF7C1FF70BDA2
:10598000320000203400002000BF704700BFFE4AF4
:10599000128802F04002002AF9D0C2B2FA4B9A8073
:1059A000704710B588B004460121084600F0F8FFA2
:1059B0000121102001F04EF807220921F34800F0E0
:1059C000DCFD07220A21F14800F0D7FD4FF4C0604A
:1059D000069002208DF81C008DF81D0000208DF827
:1059E0001E0001208DF81F0006A9E84800F03AFDCE
:1059F00002940020ADF80C00ADF80E00ADF81000D8
:105A0000ADF814000C20ADF8120002A9DE4801F038
:105A100082F90121DC4801F006FA012240F2255109
:105A2000D94801F0B6FA25208DF8040003208DF83E
:105A300005008DF8060001208DF8070001A800F090
:105A400020FC08B010BD10B588B00446012102202A
:105A500000F0A6FF0121880400F0EBFF07220B21D4
:105A6000CB4800F08AFD07220A21C94800F085FDD5
:105A70004FF44060069002208DF81C008DF81D0048
:105A800000208DF81E0001208DF81F0006A9C048D7
:105A900000F0E8FC02940020ADF80C00ADF80E0018
:105AA000ADF81000ADF814000C20ADF8120002A9FA
:105AB000B84801F030F90121B64801F0B4F90122EB
:105AC00040F22551B34801F064FA27208DF8040014
:105AD00001208DF8050000208DF8060001208DF8CA
