:020000040800F2
:10000000080B00201D470008C9040008CB040008A5
:10001000CF040008D3040008D70400080000000043
:10002000000000000000000000000000DB040008E9
:10003000DD04000800000000DF040008E1040008FF
:100040003747000837470008374700083747000898
:100050003747000837470008374700083747000888
:100060003747000837470008374700083747000878
:100070003747000837470008374700083747000868
:100080003747000837470008374700080D080008C1
:10009000230800083747000837470008374700089B
:1000A0003747000837470008374700083747000838
:1000B0003747000837470008374700083747000828
:1000C0003747000837470008374700083747000818
:1000D000374700082F460008D1460008A946000807
:1000E00037470008374700083747000837470008F8
:1000F00037470008374700083747000837470008E8
:1001000037470008374700083747000837470008D7
:1001100037470008374700083747000837470008C7
:1001200037470008374700083747000837470008B7
:1001300037470008374700083747000837470008A7
:100140003747000837470008374700083747000897
:100150003747000837470008374700083747000887
:100160003747000837470008374700083747000877
:100170003747000837470008374700083747000867
:10018000374700083747000800F002F800F03CF855
:100190000AA090E8000C82448344AAF10107DA45E2
:1001A00001D100F031F8AFF2090EBAE80F0013F0F8
:1001B000010F18BFFB1A43F001031847BC81000070
:1001C000DC810000103A24BF78C878C1FAD8520701
:1001D00024BF30C830C144BF04680C6070470000C1
:1001E0000023002400250026103A28BF78C1FBD840
:1001F000520728BF30C148BF0B6070471FB508F0D9
:1002000020F81FBD10B510BD06F088FD1146FFF7A0
:10021000F5FF00F05BF806F0BAFD03B4FFF7F2FF5C
:1002200003BC03F061FF00000146002200200146EC
:1002300005E0994850F821000244481C0146032972
:10024000F7DB022A0CD10020014607E0924850F863
:10025000210008B908467047481C01460329F5DB10
:10026000012A13D1012907D18B484068012801D107
:100270000020F0E70120EEE7022907D18648006858
:10028000012801D10220E6E70020E4E73AB901297C
:1002900001D10120DFE7022901D10020DBE700BF07
:1002A000D9E77E488068002801DD012070477B483F
:1002B0000068002801DD0020F8E778480069002880
:1002C00001DD0220F2E74FF0FF30EFE72DED028B6A
:1002D0000120734908607349C1F8A80200BF00BF3C
:1002E0004FF4E13003F00DFF4FF4E13003F0AEFFC7
:1002F0004FF4E13003F057FFA82003F073FE03F042
:1003000009FA03F027FA4FF4A06004F027FA03F08B
:1003100037FB03F053FB00F0DFFD01F09FF800F026
:10032000E9F903F0AFFD03F0CEFA00BFDFED5E0A9E
:100330009FED5E0A02F060FAB0EE408ADFED5A0AE5
:100340009FED5A0A02F094FAF0EE408A584890ED78
:10035000011AF0EE410A90ED001AB0EE410AF0EEFB
:10036000481AB0EE681A01F073FBDFED4F0A9FEDFB
:10037000510A02F041FAB0EE408ADFED4B0A9FEDE0
:100380004D0A02F075FAF0EE408A494890ED011AE4
:10039000F0EE410A90ED001AB0EE410AF0EE481A74
:1003A000B0EE681A01F054FBDFED430A9FED410AFD
:1003B00002F022FAB0EE408ADFED3F0A9FED3D0ADF
:1003C00002F056FAF0EE408A394890ED011AF0EE4C
:1003D000410A90ED001AB0EE410AF0EE481AB0EE74
:1003E000681A01F035FBDFED340A9FED340A02F0A4
:1003F00003FAB0EE408ADFED300A9FED300A02F0DA
:1004000037FAF0EE408A2A4890ED011AF0EE410AE0
:1004100090ED001AB0EE410AF0EE481AB0EE681AFC
:1004200001F016FBDFED260A9FED240A02F0E4F945
:10043000B0EE408ADFED220A9FED200A02F018FAA2
:10044000F0EE408A1A4890ED011AF0EE410A90ED64
:10045000001AB0EE410AF0EE481AB0EE681A01F048
:10046000F7FA1348D0ED020AB0EE600ADFED150A84
:1004700002F06AF80EE09FED0D2ADFED0C1A9FEDF9
:100480000B1ADFED0A0A9FED090A01F0DFF90220DD
:1004900003F00AFEEFE700005000002038000020C3
:1004A000A4824242008042420000FAC300000000E1
:1004B0006803002000007AC40000FA430000FAC478
:1004C0000000C8C200003443704700BFFEE700BF11
:1004D000FEE700BFFEE700BFFEE7704770477047CA
:1004E000704700000CB5002001900090764800682D
:1004F00040F480307449086000BF7348006800F41D
:10050000003000900198401C0190009818B90198A3
:10051000B0F5A04FF1D16C48006800F4003010B184
:100520000120009001E0002000900098012846D1B1
:1005300065484030006840F08050634940310860B1
:100540006248006840F44040604908605E480830F6
:1005500000685D49083108600846006840F40040C2
:1005600008600846006840F4A05008605848091F19
:100570000860081F006840F08070091F086000BF15
:100580005148006800F000700028F9D040F2057072
:10059000504908604C480830006820F003004A4980
:1005A000083108600846006840F00200086000BF9B
:1005B00045480830006800F00C000828F8D10CBD50
:1005C00010B54548006840F47000434908603E4853
:1005D000006840F001003C49086000203A490831B9
:1005E0000860394800683D490840374908603C4880
:1005F000091D0860081F006820F48020091F08609A
:10060000002031490C310860FFF76CFF4FF00060AB
:1006100031498039086010BD70B5002000220223E6
:1006200000240221284D08352D6805F00C0020B16A
:10063000042806D0082834D107E02A4D2A4E356018
:1006400033E02A4D284E35602FE01F4D2D1D2D68BB
:10065000C5F380541C4D2D1D2D6805F03F0154B18C
:10066000224DB5FBF1F5184E361D3668C6F38816D7
:1006700005FB06F209E01B4DB5FBF1F5124E361DE8
:100680003668C6F3881605FB06F20F4D2D1D2D6842
:10069000C5F301456D1C6B00B2FBF3F5124E3560DE
:1006A00003E0104D104E356000BF00BF064D083509
:1006B0002D68C5F303150E4E705D0B4D2D68C540BA
:1006C000094E356070BD00000038024000700040E7
:1006D00008544007003C024088ED00E0FFFFF6FEB2
:1006E000103000240024F4000000002000127A00E2
:1006F0000400002000B58BB00121084604F0C2FBC5
:100700000121480604F007FC4FF4C0500990022074
:100710008DF8280000208DF82A0003208DF829008C
:1007200001208DF82B0009A9FE4804F00DF90922DB
:100730000B21FC4804F093F909220C21F94804F03C
:100740008EF9F94804F01CFF06A805F03DF80020DA
:100750008DF81E008DF81F008DF8200001208DF807
:10076000210000208DF822008DF823008DF81A005A
:100770008DF81B0008208DF81C0003208DF81D004B
:10078000ADF8180006A9E84804F013FF00208DF822
:1007900012008DF8130001208DF814000020ADF830
:1007A0000800ADF80A00ADF80C00ADF80E00ADF889
:1007B000100001208DF8150002A804F084FF01222A
:1007C0000221D94805F07EFA01221146D64805F0EB
:1007D00079FA14208DF8040002208DF8050001201C
:1007E0008DF806008DF8070001A803F0BCFF132068
:1007F0008DF8040001208DF805008DF806008DF8B5
:10080000070001A803F0AFFF0BB000BD10B5012138
:10081000C54805F0BFFA18B10121C34805F055FBE2
:1008200010BD00B52DED048B93B00EAA0021BE487B
:1008300005F02DF940F201210E9888427ED10EA8D4
:10084000017CC07B41EA002000B200EE100AB8EE45
:10085000C00AB64880ED050A0EA8827B407B42EABA
:10086000002000B200EE100AB8EEC00A10EE101A16
:10087000084607F075FC41EC190B9FEDAD0B53ECEE
:10088000102B07F08BF841EC180B06F0A1FF00EEDF
:10089000100AA64880ED030A008B68B9A348408B74
:1008A00050B90EA8007B9DF8431040EA012000B229
:1008B0009E49488308830CE09C48408B9B490883F1
:1008C0000EA8007B9DF8431040EA012000B2974932
:1008D0004883964890ED000A8DED050A90ED010AD7
:1008E0008DED060A90ED020A8DED070A90ED030AE0
:1008F0008DED080A90ED040A8DED090A90ED050AC8
:100900008DED0A0A008BADF82C008848408BADF8BD
:100910002E008648C0690C90844890F820008DF81D
:100920003400142209A9684606F080F905A80FC80A
:1009300000F09CFA7D48D0ED010A00E004E030EEC2
:10094000200A80ED010A33E240F202210E9888422B
:100950007ED10EA8017CC07B41EA002000B200EEEF
:10096000100AB8EEC00A744880ED050A0EA8827B12
:10097000407B42EA002000B200EE100AB8EEC00A46
:1009800010EE101A084607F0EBFB41EC190B9FED37
:10099000680B53EC102B07F001F841EC180B06F034
:1009A00017FF00EE100A644880ED030A008B68B957
:1009B0006148408B50B90EA8007B9DF8431040EA77
:1009C000012000B25C49488308830CE05A48408B00
:1009D000594908830EA8007B9DF8431040EA012086
:1009E00000B255494883544890ED000A8DED050A40
:1009F00090ED010A8DED060A90ED020A8DED070AD1
:100A000090ED030A8DED080A90ED040A8DED090AB8
:100A100090ED050A8DED0A0A008BADF82C004648D2
:100A2000408BADF82E004448C0690C90424890F8C5
:100A300020008DF83400142209A9684606F0F6F863
:100A400005A80FC800F012FA3B48D0ED010A00E0FB
:100A500004E030EE200A80ED010AA9E140F2032112
:100A60000E9888425DD10EA8017CC07B41EA00202F
:100A700000B200EE100AB8EEC00A304880ED050A58
:100A80000EA8827B407B42EA002000B200EE100AF2
:100A9000B8EEC00A10EE101A084607F061FB41ECF0
:100AA000190B9FED230B53EC102B06F077FF41EC55
:100AB000180B06F08DFE00EE100A204880ED030AA8
:100AC000008B68B91D48408B50B90EA8007B9DF87B
:100AD000431040EA012000B21849488308830CE023
:100AE0001648408B154908830EA8007B9DF84310DB
:100AF00040EA012000B211494883104890ED000AF5
:100B00008DED050A90ED010A8DED060A90ED020AC1
:100B10008DED070A90ED030A8DED080A90ED040AA9
:100B20000EE033E000000240006400405C00002062
:100B3000000000000000334080000020A4000020DE
:100B40008DED090A90ED050A8DED0A0A008BADF8CE
:100B50002C00BD48408BADF82E00BB48C0690C90FE
:100B6000B94890F820008DF83400142209A968468D
:100B700006F05CF805A80FC800F078F9B248D0ED8F
:100B8000010A30EE200A80ED010A11E10E98B0F55D
:100B9000017F7CD10EA8017CC07B41EA002000B21D
:100BA00000EE100AB8EEC00AA84880ED050A0EA8AB
:100BB000827B407B42EA002000B200EE100AB8EED1
:100BC000C00A10EE101A084607F0CAFA41EC190BD9
:100BD0001FED290B53EC102B06F0E0FE41EC180B37
:100BE00006F0F6FD00EE100A984880ED030A008B2F
:100BF00068B99648408B50B90EA8007B9DF8431009
:100C000040EA012000B29149488308830CE08F48F4
:100C1000408B8E4908830EA8007B9DF8431040EA64
:100C2000012000B289494883884890ED000A8DED83
:100C3000050A90ED010A8DED060A90ED020A8DED90
:100C4000070A90ED030A8DED080A90ED040A8DED78
:100C5000090A90ED050A8DED0A0A008BADF82C000B
:100C60007A48408BADF82E007848C0690C907748E0
:100C700090F820008DF83400142209A9684605F088
:100C8000D5FF05A80FC800F0F1F8704800E006E0B5
:100C9000D0ED010A30EE200A80ED010A88E040F232
:100CA00005210E9888427CD10EA8017CC07B41EAC8
:100CB000002000B200EE100AB8EEC00A644880EDD1
:100CC000050A0EA8827B407B42EA002000B200EEBB
:100CD000100AB8EEC00A10EE101A084607F040FAE3
:100CE00041EC190B1FED6E0B53EC102B06F056FE6A
:100CF00041EC180B06F06CFD00EE100A544880ED34
:100D0000030A008B68B95248408B50B90EA8007B8B
:100D10009DF8431040EA012000B24D494883088302
:100D20000CE04B48408B4A4908830EA8007B9DF895
:100D3000431040EA012000B245494883444890ED01
:100D4000000A8DED050A90ED010A8DED060A90ED81
:100D5000020A8DED070A90ED030A8DED080A90ED69
:100D6000040A8DED090A90ED050A8DED0A0A008B43
:100D7000ADF82C003648408BADF82E003448C069E1
:100D80000C90334890F820008DF83400142209A903
:100D9000684605F04BFF05A80FC800F067F82C481F
:100DA00000E005E0D0ED010A30EE200A80ED010AF6
:100DB00013B0BDEC048B00BDF0B585B004460D4604
:100DC00016461F4600208DF808008DF809000820FF
:100DD0008DF80A0080010090200A8DF80B00E1B226
:100DE0008DF80C10290A8DF80D10E9B28DF80E104F
:100DF000310A8DF80F10F1B28DF81010390A8DF804
:100E00001110F9B28DF812106946124804F04AFD2B
:100E100005B0F0BD10B586B0044600208DF80C007A
:100E20008DF80D0002208DF80E0040F2FF100190A9
:100E3000200A8DF80F008DF8104001A9054804F034
:100E400031FD06B010BD0000A4000020C800002045
:100E5000EC00002000640040B5EEC00AF1EE10FA8C
:100E600003D2F1EE400AB0EE600A70470FB400B54D
:100E7000BDF91E00BDF91C10401A01EE100AB8EEB3
:100E8000C10AFFF7E9FFDFEDFE0AB4EEE00AF1EE7A
:100E900010FA11DDB8EEC10AFFF7DEFFF8EEC11A55
:100EA000C1EE800AB8EEC10ADFEDF61A00EEE10AE3
:100EB000BDEEC00AB0EE401AB8EEC10ADFEDF20A8C
:100EC00020EE200AF3EE031AC0EE210ADFEDED1A40
:100ED00080EEA10A5DF814FB9FEDEC0AEC4880ED72
:100EE000010A9FEDEA0AEB4880ED010A9FEDE70A4F
:100EF000E94880ED010A9FEDE50AE84880ED010A26
:100F00009FEDE20AE64880ED010A0120E04981F800
:100F10002000E04981F82000DF4981F82000DF4906
:100F200081F82000DE4981F820009FEDD80AD848DA
:100F300080ED020A9FEDD50AD64880ED020A9FEDAA
:100F4000D30AD54880ED020A9FEDD00AD34880ED40
:100F5000020A9FEDCE0A084680ED020A70479FED17
:100F6000D10AD14880ED000A9FEDD00A80ED010A38
:100F70009FEDC60A80ED020A9FEDCD0A80ED030ABF
:100F80009FEDCC0A80ED040A9FEDC00A80ED050AB2
:100F90009FEDBE0A80ED060A0020C349C8619FED9F
:100FA000C10AC54880ED000A9FEDC00A80ED010A24
:100FB0009FEDB60A80ED020A9FEDBD0A80ED030A9F
:100FC0009FEDBC0A80ED040A9FEDB00A80ED050A92
:100FD0009FEDAE0A80ED060A0020B749C8619FED7B
:100FE000B10AB64880ED000A9FEDB00A80ED010A13
:100FF0009FEDA60A80ED020A9FEDAD0A80ED030A7F
:101000009FEDAC0A80ED040A9FEDA00A80ED050A71
:101010009FED9E0A80ED060A0020A849C8619FED59
:10102000A10AA74880ED000A9FEDA00A80ED010A01
:101030009FED960A80ED020A9FED9D0A80ED030A5E
:101040009FED9C0A80ED040A9FED900A80ED050A51
:101050009FED8E0A80ED060A00209949C8619FED38
:10106000910A984880ED000A9FED900A80ED010AF0
:101070009FED860A80ED020A9FED8D0A80ED030A3E
:101080009FED8C0A80ED040A9FED800A80ED050A31
:101090009FED7E0A80ED060A00208A49C8617047EC
:1010A0009FED890A894880ED000AB1EE040A80EDBF
:1010B000010A9FED760A80ED020A9FED7D0A80ED20
:1010C000030A9FED830A80ED040A9FED700A80ED0C
:1010D000050A9FED6E0A80ED060A00207B49C86173
:1010E0009FED7C0A084680ED090A9FED7B0A80EDA2
:1010F000080A9FED750A794880ED000AB1EE040AEE
:1011000080ED010A9FED610A80ED020A9FED680AF9
:1011100080ED030A9FED6E0A80ED040A9FED5B0AE5
:1011200080ED050A9FED590A80ED060A00206B4903
:10113000C8619FED680A084680ED090A9FED660ABE
:1011400080ED080A9FED600A654880ED000AB1EE67
:10115000040A80ED010A9FED4D0A80ED020A9FED21
:10116000540A80ED030A9FED5A0A80ED040A9FEDB0
:10117000470A80ED050A9FED450A80ED060A00202A
:101180005749C8619FED530A084680ED090A9FED53
:10119000520A80ED080A9FED4C0A524880ED000A81
:1011A000B1EE040A80ED010A9FED380A80ED020AD3
:1011B0009FED3F0A80ED030A9FED450A80ED040A8A
:1011C0009FED320A80ED050A9FED300A80ED060A98
:1011D00000204449C8619FED3F0A084680ED090A96
:1011E0009FED3D0A80ED080A9FED3F0A3F4880EDE4
:1011F000000AB1EE040A80ED010A9FED240A80ED99
:10120000020A9FED2B0A80ED030A9FED310A80ED63
:10121000040A9FED1E0A80ED050A9FED1C0A80ED71
:10122000060A00203149C8619FED2A0A084680ED70
:10123000090A9FED290A80ED080A70479FED2C0AE4
:101240002C4880ED000A9FED110A80ED010A9FED08
:101250002A0A80ED020A9FED160A80ED030A9FED2F
:10126000270A80ED040A9FED090A80ED050A9FED2B
:10127000070A80ED060A00201E49C86140E0000010
:1012800000007A45000000460000B4430000000062
:101290005C00002080000020A4000020C800002086
:1012A000EC0000206666A63F600100208FC2F53C7E
:1012B00000007A4600806D45D801002050020020D1
:1012C000C80200204003002000007A4338010020BB
:1012D00000409C4500007A440000C843B001002053
:1012E00028020020A002002000005C431803002018
:1012F00085EBD13E1001002017B7D1380000FA4429
:10130000B3EE040A084680ED090A9FEDFB0A80ED62
:10131000080A1FED090AF94880ED000A1FED250AA9
:1013200080ED010A1FED0C0A80ED020A1FED200A74
:1013300080ED030A1FED0F0A80ED040A1FED2D0A50
:1013400080ED050A1FED2F0A80ED060A0020EB490B
:10135000C861B3EE040A084680ED090A9FEDE60A6B
:1013600080ED080A1FED1E0AE54880ED000A1FED1A
:10137000390A80ED010A1FED200A80ED020A1FEDF7
:10138000340A80ED030A1FED230A80ED040A1FEDE5
:10139000410A80ED050A1FED430A80ED060A002090
:1013A000D749C861B3EE040A084680ED090A9FEDEB
:1013B000D20A80ED080A1FED320AD24880ED000AF9
:1013C0001FED4E0A80ED010A1FED350A80ED020A7D
:1013D0001FED490A80ED030A1FED380A80ED040A6B
:1013E0001FED560A80ED050A1FED580A80ED060A2A
:1013F0000020C449C861B3EE040A084680ED090A1A
:101400009FEDBD0A80ED080AB7EE000ABE4880EDE8
:10141000000A1FED620A80ED010A9FEDBC0A80ED13
:10142000020A1FED5D0A80ED030A1FED4C0A80EDF4
:10143000040A1FED6A0A80ED050A1FED6C0A80EDB3
:10144000060A0020B049C861B3EE040A084680EDE0
:10145000090A9FEDA90A80ED080A704700B5FFF759
:101460007EFDFFF71DFEFFF7E9FE00BD00B5B0EE03
:10147000403AF0EE603A33EE630AB0EE401AC169CA
:10148000012914D1B0EE410AFFF7E6FCD0ED090ABC
:10149000B4EEE00AF1EE10FA04DB90ED080A60EE1B
:1014A000011A08E090ED000A60EE011A03E090EDE9
:1014B000000A60EE011A90ED010A20EE015A90ED4B
:1014C000050A30EE052A90ED040AB4EEC20AF1EEE8
:1014D00010FA04D290ED040A80ED050A15E090EDB3
:1014E000040AFFEE000A20EE200AB4EEC20AF1EE72
:1014F00010FA08DD90ED040AFFEE000A20EE200A43
:1015000080ED050A01E080ED052A90ED060A31EE36
:10151000404A90ED020A60EE044A80ED061A90ED12
:10152000050A30EE210A70EE242A90ED030AB4EE8B
:10153000E20AF1EE10FA02D890ED030A00BD90ED38
:10154000030AFFEE000A20EE200AB4EEE20AF1EEF2
:1015500010FA06DD90ED030AFFEE000A20EE200AE5
:10156000ECE7B0EE620AE9E710B5694890F82000B0
:10157000012814D0022802D0052833D11FE0644886
:1015800090ED011AF0EE410A90ED001AB0EE410A1A
:101590006048FFF76BFF5E4880ED020A00BF5C48C1
:1015A00090ED031AF0EE410A90ED021AB0EE410AF6
:1015B0005948FFF75BFF564880ED040A00BF5448C6
:1015C00090ED051AF0EE410A90ED041AB0EE410AD2
:1015D0005248FFF74BFFBDEEC00A10EE100A4C490F
:1015E000C86100E000BF00BF4D4890F8200001280E
:1015F00014D0022802D0052833D11FE0484890EDCE
:10160000011AF0EE410A90ED001AB0EE410A3B4893
:10161000FFF72CFF424880ED020A00BF404890EDE2
:10162000031AF0EE410A90ED021AB0EE410A3D486D
:10163000FFF71CFF3A4880ED040A00BF384890EDE0
:10164000051AF0EE410A90ED041AB0EE410A364850
:10165000FFF70CFFBDEEC00A10EE100A3049C8615A
:1016600000E000BF00BF314890F82000012814D0EE
:10167000022802D0052833D11FE02C4890ED011A32
:10168000F0EE410A90ED001AB0EE410A1C48FFF757
:10169000EDFE264880ED020A00BF244890ED031AB3
:1016A000F0EE410A90ED021AB0EE410A2048FFF731
:1016B000DDFE1E4880ED040A00BF1C4890ED051AAF
:1016C000F0EE410A90ED041AB0EE410A1948FFF716
:1016D000CDFEBDEEC00A10EE100A1449C86100E04C
:1016E00000BF00BF144890F82000012836D002281F
:1016F00024D0052855D141E000004842880100204F
:101700000002002078020020F00200200AD7233CCB
:101710005C00002010010020380100206001002042
:1017200080000020B0010020D8010020A40000208B
:101730002802002050020020C8000020744890EDCC
:10174000011AF0EE410A90ED001AB0EE410A71481C
:10175000FFF78CFE6E4880ED020A00BF6C4890EDEA
:10176000031AF0EE410A90ED021AB0EE410A6A48FF
:10177000FFF77CFE664880ED040A00BF644890EDE8
:10178000051AF0EE410A90ED041AB0EE410A6348E2
:10179000FFF76CFEBDEEC00A10EE100A5C49C8618E
:1017A00000E000BF00BF5E4890F82000012814D080
:1017B000022802D0052833D11FE0594890ED011AC4
:1017C000F0EE410A90ED001AB0EE410A5548FFF7DD
:1017D0004DFE534880ED020A00BF514890ED031AB8
:1017E000F0EE410A90ED021AB0EE410A4E48FFF7C2
:1017F0003DFE4B4880ED040A00BF494890ED051AB4
:10180000F0EE410A90ED041AB0EE410A4748FFF7A6
:101810002DFEBDEEC00A10EE100A4149C86100E07D
:1018200000BF00BF3A4CE46923B2414CE46922B2E4
:10183000404CE46921B2404CE46920B2FFF7BCFAA5
:101840003749C96908B2FFF7E5FA10BD10B52DEDAB
:10185000068BB0EE40AAB0EE608AF0EE418AB0EEA0
:10186000619AF0EE429A0120334981F82000314913
:1018700081F820002E4981F82000254981F82000B8
:10188000274981F820002C4880ED02AA294880EDE4
:10189000028A2748C0ED028A1D4880ED029A084658
:1018A000C0ED029AFFF760FEBDEC068B10BD10B5CF
:1018B0002DED068BB0EE40AAB0EE608AF0EE418AC4
:1018C000B0EE619AF0EE429A02201B4981F82000A6
:1018D000184981F82000164981F820000C4981F848
:1018E00020000F4981F82000134880ED00AA11481C
:1018F00080ED008A0E48C0ED008A054880ED009A10
:101900000846C0ED009AFFF72FFEBDEC068B10BD18
:10191000C800002078020020A0020020C802002099
:10192000EC000020F00200201803002040030020FB
:10193000A4000020800000205C000020B5EEC00A5A
:10194000F1EE10FA01D100207047B5EEC00AF1EEB9
:1019500010FA01DD0120F7E74FF0FF30F4E702460F
:101960006FF00201FE48D0ED012AFE4890ED003AEA
:1019700072EEC32AFC4890ED003A72EEC32AF0EEF4
:10198000620AFA48D0ED012AF64890ED013A72EE6B
:10199000C32AF54890ED013A72EEC32AB0EE622AEE
:1019A000F348D0ED012AEF4890ED023A72EEC32AD7
:1019B000ED4890ED023A72EEC32AB0EE621AED489D
:1019C000D0ED012AE74890ED033A72EEC32AE648CB
:1019D00090ED033A72EEC32AF0EE621AF4EEC00AFA
:1019E000F1EE10FA07D2F1EE402AF4EEE20AF1EE3F
:1019F00010FA00DD491CB4EEC02AF1EE10FA07D24D
:101A0000F1EE402AB4EEE22AF1EE10FA00DD491CB4
:101A1000B4EEC01AF1EE10FA07D2F1EE402AB4EE9D
:101A2000E21AF1EE10FA00DD491CF4EEC01AF1EEF4
:101A300010FA07D2F1EE402AF4EEE21AF1EE10FAB3
:101A400000DD491C914201DD012070470020FCE7C8
:101A500000B52DED040B99B09DED1B0ADDED190AC3
:101A600030EE600ADFEDC40A20EE200A8DED120A86
:101A70009DED1C0ADDED1A0A30EE600ADFEDBE0AAC
:101A800020EE200A8DED110A9FEDBC0A8DED100AA3
:101A9000B34890ED010AB34880ED000AB34890EDD9
:101AA000010AB04880ED010AB14890ED010AAD4845
:101AB00080ED020AAF4890ED010AAA4880ED030AC2
:101AC0009DED120A9FEDAE1AC0EE010A9FEDAD0A20
:101AD00020EE800AA44880ED000A9DED110AB1EEC7
:101AE000400A9FEDA71AC0EE010A9FEDA60A20EE5C
:101AF000800A80ED010A90ED000AB1EE400A80ED07
:101B0000020A90ED010AB1EE400A80ED030A0020BE
:101B10009D49086023E094489B49096800EB8100D7
:101B200090ED000AB5EEC00AF1EE10FA09D29FED71
:101B3000970A13A89449096800EB810080ED000A18
:101B400008E09FED930A13A88F49096800EB810014
:101B500080ED000A8C480068401C8B4908608A4868
:101B600000680428D7DB00BF9DED100ADFED880A6E
:101B7000B4EEE00AF1EE10FA7DD2119806F0F0FA18
:101B8000CDE900019DED000B05F086F98DED040B0C
:101B9000129806F0E5FACDE900019DED000B05F085
:101BA0007BF98DED020B9DED040B53EC102B9DED9D
:101BB000020B51EC100B05F03DFECDE90801119828
:101BC00006F0CEFACDE900019DED000B05F064F9B9
:101BD0008DED040B9DED160A8DED000A9DED000ABA
:101BE000FFF7ACFE00EE100AF8EEC00A9DED100AF9
:101BF00020EE800A8DED010A019806F0B1FACDE9D8
:101C000002019DED040B53EC102B9DED020B51ECEA
:101C1000100B06F0B1F8CDE906019DED080B53EC71
:101C2000102B9DED060B51EC100B05F0B7FECDE926
:101C30000A019DED0A0B51EC100B05F0C9FD0F9048
:101C4000119806F08DFACDE900019DED000B05F02D
:101C500023F98DED040B129806F082FACDE900010C
:101C60009DED000B05F018F98DED020B9DED040BB9
:101C700053EC102B00E03FE19DED020B51EC100BFB
:101C800005F0D8FDCDE90801129806F069FACDE912
:101C900000019DED000B05F0FFF88DED040B9DEDAF
:101CA000150A8DED000A9DED000AFFF747FE00EED4
:101CB000100AF8EEC00A9DED100A20EE800A8DEDA4
:101CC000010A019806F04CFACDE902019DED040BE2
:101CD00053EC102B9DED020B51EC100B06F04CF861
:101CE000CDE906019DED080B53EC102B9DED060B85
:101CF00051EC100B05F052FECDE90A019DED0A0BE7
:101D000051EC100B05F064FD0E90119806F028FAC6
:101D1000CDE900019DED000B05F0BEF88DED040B43
:101D2000129806F01DFACDE900019DED000B05F0BB
:101D3000B3F88DED020B9DED040B53EC102B9DEDD4
:101D4000020B51EC100B05F075FDCDE9080111985F
:101D500006F006FACDE900019DED000B1AE0000047
:101D60005C00002088030020740300208000002015
:101D7000A4000020C80000206666863F0000000026
:101D8000959E6B430000B44314000020000096C3EE
:101D90000000964305F080F88DED040B9DED140ACC
:101DA0008DED000A9DED000AFFF7C8FD00EE100A58
:101DB000F8EEC00A9DED100A20EE800A8DED010AB2
:101DC000019806F0CDF9CDE902019DED040B53EC2D
:101DD000102B9DED020B51EC100B05F0CDFFCDE962
:101DE00006019DED080B53EC102B9DED060B51ECFD
:101DF000100B05F0D3FDCDE90A019DED0A0B51EC66
:101E0000100B05F0E5FC0D90119806F0A9F9CDE94D
:101E100000019DED000B05F03FF88DED040B1298CD
:101E200006F09EF9CDE900019DED000B05F034F8B8
:101E30008DED020B9DED040B53EC102B9DED020B71
:101E400051EC100B05F0F6FCCDE90801129806F0F4
:101E500087F9CDE900019DED000B05F01DF88DED32
:101E6000040B9DED130A8DED000A9DED000AFFF7AE
:101E700065FD00EE100AF8EEC00A9DED100A20EE96
:101E8000800A8DED010A019806F06AF9CDE9020198
:101E90009DED040B53EC102B9DED020B51EC100B40
:101EA00005F06AFFCDE906019DED080B53EC102B00
:101EB0009DED060B51EC100B05F070FDCDE90A010C
:101EC0009DED0A0B51EC100B05F082FC1FED552A1D
:101ED0000C90DDED0F1A9DED0E1ADDED0D0A9DED56
:101EE0000C0AFFF7B3FC9DED100ADFEDFE0A30EEA1
:101EF000200A8DED100A53E1119806F031F9CDE971
:101F000000019DED000B04F0C7FF8DED040B12984E
:101F100006F026F9CDE900019DED000B04F0BCFFB1
:101F20008DED020B9DED040B53EC102B9DED020B80
:101F300051EC100B05F07EFCCDE90801119806F07C
:101F40000FF9CDE900019DED000B04F0A5FF8DED2B
:101F5000040B1698019006F003F9CDE902019DEDFE
:101F6000040B53EC102B9DED020B51EC100B05F004
:101F700003FFCDE906019DED080B53EC102B9DED01
:101F8000060B51EC100B05F009FDCDE90A019DEDA2
:101F90000A0B51EC100B05F01BFC0F90119806F08A
:101FA000DFF8CDE900019DED000B04F075FF8DED2C
:101FB000040B129806F0D4F8CDE900019DED000B5A
:101FC00004F06AFF8DED020B9DED040B53EC102B1A
:101FD0009DED020B51EC100B05F02CFCCDE9080136
:101FE000129806F0BDF8CDE900019DED000B04F05C
:101FF00053FF8DED040B1598019006F0B1F8CDE973
:1020000002019DED040B53EC102B9DED020B51ECE6
:10201000100B05F0B1FECDE906019DED080B53EC68
:10202000102B9DED060B51EC100B05F0B7FCCDE924
:102030000A019DED0A0B51EC100B05F0C9FB0E9047
:10204000119806F08DF8CDE900019DED000B04F02C
:1020500023FF8DED040B129806F082F8CDE9000104
:102060009DED000B04F018FF8DED020B9DED040BB0
:1020700053EC102B9DED020B51EC100B05F0DAFB2D
:10208000CDE90801119806F06BF8CDE900019DED4E
:10209000000B04F001FF8DED040B1498019006F085
:1020A0005FF8CDE902019DED040B53EC102B9DED83
:1020B000020B51EC100B05F05FFECDE906019DED22
:1020C000080B53EC102B9DED060B51EC100B05F09B
:1020D00065FCCDE90A019DED0A0B51EC100B05F0F2
:1020E00077FB0D90119806F03BF8CDE900019DEDCE
:1020F000000B04F0D1FE8DED040B129806F030F8C1
:10210000CDE900019DED000B04F0C6FE8DED020B44
:102110009DED040B53EC102B9DED020B51EC100BBD
:1021200005F088FBCDE90801129806F019F8CDE911
:1021300000019DED000B04F0AFFE8DED040B139834
:10214000019006F00DF8CDE902019DED040B53EC72
:10215000102B9DED020B51EC100B05F00DFECDE99F
:1021600006019DED080B53EC102B9DED060B51EC79
:10217000100B05F013FCCDE90A019DED0A0B51ECA3
:10218000100B05F025FB9FED582A0C90DDED0F1A82
:102190009DED0E1ADDED0D0A9DED0C0AFFF756FBC5
:1021A000022001F081FF4FF0FF309FED500AFFF752
:1021B000D6FB00283FF4D8AC00BF119805F0D0FF43
:1021C000CDE900019DED000B04F066FE8DED040BE2
:1021D000129805F0C5FFCDE900019DED000B04F05C
:1021E0005BFE8DED020B9DED040B53EC102B9DED72
:1021F000020B51EC100B05F01DFBCDE90801119805
:1022000005F0AEFFCDE900019DED000B04F044FEAA
:102210008DED040B9DED160A8DED000A9DED000A73
:10222000FFF78CFB00EE100AF8EEC00A9DED100AD5
:1022300020EE800A8DED010A019805F091FFCDE9AD
:1022400002019DED040B53EC102B9DED020B51ECA4
:10225000100B05F091FDCDE906019DED080B53EC47
:10226000102B9DED060B51EC100B05F097FBCDE903
:102270000A019DED0A0B51EC100B05F0A9FA0F9025
:10228000119805F06DFFCDE900019DED000B04F004
:1022900003FE8DED040B129805F062FFCDE90001FD
:1022A0009DED000B04F0F8FD8DED020B9DED040B90
:1022B00053EC102B9DED020B51EC100B05F0BAFA0C
:1022C000CDE90801129805F04BFFCDE900019DED25
:1022D000000B04F0E1FD8DED040B9DED150A8DED75
:1022E000000A05E09A99993E00000000000048436A
:1022F0009DED000AFFF722FB00EE100AF8EEC00A7F
:102300009DED100A20EE800A8DED010A019805F07E
:1023100027FFCDE902019DED040B53EC102B9DED41
:10232000020B51EC100B05F027FDCDE906019DEDE8
:10233000080B53EC102B9DED060B51EC100B05F028
:102340002DFBCDE90A019DED0A0B51EC100B05F0B8
:102350003FFA0E90119805F003FFCDE900019DEDC5
:10236000000B04F099FD8DED040B129805F0F8FEBA
:10237000CDE900019DED000B04F08EFD8DED020B0B
:102380009DED040B53EC102B9DED020B51EC100B4B
:1023900005F050FACDE90801119805F0E1FECDE90C
:1023A00000019DED000B04F077FD8DED040B9DED1C
:1023B000140A8DED000A9DED000AFFF7BFFA00EE4A
:1023C000100AF8EEC00A9DED100A20EE800A8DED8D
:1023D000010A019805F0C4FECDE902019DED040B50
:1023E00053EC102B9DED020B51EC100B05F0C4FCCF
:1023F000CDE906019DED080B53EC102B9DED060B6E
:1024000051EC100B05F0CAFACDE90A019DED0A0B5B
:1024100051EC100B05F0DCF90D90119805F0A0FEC1
:10242000CDE900019DED000B04F036FD8DED040BB0
:10243000129805F095FECDE900019DED000B04F02A
:102440002BFD8DED020B9DED040B53EC102B9DED40
:10245000020B51EC100B05F0EDF9CDE908011298D3
:1024600005F07EFECDE900019DED000B04F014FDAA
:102470008DED040B9DED130A8DED000A9DED000A14
:10248000FFF75CFA00EE100AF8EEC00A9DED100AA4
:1024900020EE800A8DED010A019805F061FECDE97C
:1024A00002019DED040B53EC102B9DED020B51EC42
:1024B000100B05F061FCCDE906019DED080B53EC16
:1024C000102B9DED060B51EC100B05F067FACDE9D2
:1024D0000A019DED0A0B51EC100B05F079F91FED87
:1024E0007E2A0C90DDED0F1A9DED0E1ADDED0D0A22
:1024F0009DED0C0AFFF7AAF99DED100ADFEDFA0A2F
:10250000B4EEE00AF1EE10FA07DD9DED100A5FED82
:102510008B0A30EE600A8DED100A022001F0C4FD36
:102520004FF0FF309FEDF00AFFF719FA00283FF453
:1025300044AE9DED1B0AED4880ED000A9DED1C0A9E
:1025400080ED010A1DB000BD00B52DED0A8B85B0F0
:10255000B0EE409AF0EE608A1FED9D0AB0EE408A20
:1025600038EEC90ADFEDE20A20EE200AF0EE409ACA
:102570009FEDE00A29EE800ADFEDDF0A80EE201AE7
:102580009FEDDE0A61EE000AB0EE001A80EE810ACD
:102590009FEDDB1AC0EE010A9FEDDA0A20EE800AF9
:1025A000B0EE40AAD84890ED010AD84880ED000A64
:1025B000D74890ED010AD54880ED010AD54890ED45
:1025C000010AD24880ED020AD34890ED010ACF48B3
:1025D00080ED030A0020D14908600DE0B1EE4A0AFF
:1025E000CF48CE49096800EB810080ED000ACB4856
:1025F0000068401CC9490860C84800680428EDDB31
:102600000020C649086023E0C548C449096800EBBA
:10261000810090ED000AB5EEC00AF1EE10FA09D281
:102620009FEDC00A6846BD49096800EB810080ED56
:10263000000A08E09FEDBC0A6846B849096800EB4B
:10264000810080ED000AB5480068401CB34908606D
:10265000B24800680428D7DB00BF9FEDB40AB4EE8F
:10266000C08AF1EE10FA48D2DDED030AB0EE600A3E
:10267000FFF764F900EE100AB8EEC00A20EE080A6F
:10268000F0EE40AADDED020AB0EE600AFFF756F95F
:1026900000EE100AB8EEC00A20EE080AB0EE40BA0A
:1026A000DDED010AB0EE600AFFF748F900EE100A0E
:1026B000B8EEC00A20EE080AF0EE40BADDED000ADE
:1026C000B0EE600AFFF73AF900EE100AB8EEC00A61
:1026D00020EE080AB0EE40CA1FEDFD2AF0EE6A1A9D
:1026E000B0EE4B1AF0EE6B0AFFF7B0F89FED900AD0
:1026F00038EE000AB0EE408A16E09DED032AF0EEB7
:10270000421A9DED022AB0EE421A9DED012AF0EE2A
:10271000420A9DED002AB0EE420A9FED862AFFF79D
:1027200095F8022001F0C0FC00209FED6F0AFFF732
:1027300016F9002891D06D48C0ED028A05B0BDECB5
:102740000A8B00BD10B52DED0A8BB0EE408A6E48A5
:1027500090ED010ABDEEC00AF0EE408A6C4890EDA3
:10276000010ABDEEC00AB0EE409A6A4890ED010A37
:10277000BDEEC00AF0EE409A674890ED010ABDEE4A
:10278000C00AB0EE40AA6C4890ED010ABDEEC00A46
:1027900010EE104A0EE0B0EE482AF8EECA1AB8EE73
:1027A000E91AF8EEC90AB8EEE80AFFF780F8022045
:1027B00001F07AFC604890ED010A30EE480A10EE14
:1027C000101A084605F0CCFC41EC1C0BB0EE4C0A8C
:1027D000F0EE6C0A04F060FBB0EE40BAF0EE60BAC6
:1027E0009FED560B53EC102B51EC1B0B05F088FAA8
:1027F000D1D2BDEC0A8B10BD10B52DED0C8BB0EE17
:10280000408AF0EE608A9FED4F0B04F051FBB0EE72
:1028100040CAF0EE60CA18EE100A05F0A1FC41ECC7
:102820001D0B53EC1C2B05F0A7FA41EC1A0B9FED86
:10283000450B04F0CDFAB0EE40CAF0EE60CA18EED7
:10284000900A05F08DFC41EC1D0B53EC1C2B05F0A0
:1028500093FA41EC1B0B53EC1A2B05F097FB41EC60
:10286000190B04F0B5FF00EE100ABDEC0C8B10BD87
:1028700010B52DED0C8BB0EE408AF0EE608A9FED26
:10288000310B04F015FBB0EE40CAF0EE60CA18EE52
:10289000900A05F065FC41EC1D0B53EC1C2B05F078
:1028A0006BFA41EC1A0B9FED270B04F091FAB0EE96
:1028B00040CAF0EE60CA18EE100A05F051FC41EC77
:1028C0001D0B53EC1C2B05F057FA41EC1B0B53EC82
:1028D0001A2B04F0AFFF41EC190B04F079FF00EE66
:1028E000100ABDEC0C8B10BD0000484268030020AC
:1028F0003333833FDB0F4940000034430000E143A2
:10290000959E6B430000B4435C00002088030020C8
:1029100080000020A4000020C80000201400002037
:10292000740300200000C8C20000C84200009643A3
:102930009A99993E00000000EC0000200000000081
:102940000000244000000060FB21E9BF07B584B00F
:10295000069801281AD104980390059804900398CA
:1029600005900598012806D0059810B90220059019
:1029700001E0002005900498012806D0049810B9C1
:102980000220049001E00020049000BF0498012878
:102990007DD1059801287AD1DFEDFE0A1FED1B0AD3
:1029A000FFF72AFF8DED030ADFEDFA0A1FED1F0A7C
:1029B000FFF75EFF8DED020AF74890ED010A8DEDFD
:1029C000010A90ED000A8DED000ADDED031A9DED80
:1029D000021ADDED010A9DED000AFFF739F8DFED7F
:1029E000ED0A9FEDEE0AFFF707FF8DED030ADFED1D
:1029F000E90A9FEDEA0AFFF73BFF8DED020AE64880
:102A000090ED010A8DED010A90ED000A8DED000AAE
:102A1000DDED031A9DED021ADDED010A9DED000AC0
:102A2000FFF716F8DFEDDE0A9FEDDC0AFFF7E4FEA4
:102A30008DED030ADFEDDA0A9FEDD80AFFF718FFE4
:102A40008DED020AD44890ED010A8DED010A90ED5A
:102A5000000A8DED000ADDED031A9DED021ADDED91
:102A6000010A9DED000AFEF7F3FFDFEDCD0A9FEDB1
:102A7000CD0AFFF7C1FE8DED030ADFEDC90A9FED18
:102A8000C90AFFF7F5FE8DED020AC34800E03FE0FA
:102A900090ED010A8DED010A90ED000A8DED000A1E
:102AA000DDED031A9DED021ADDED010A9DED000A30
:102AB000FEF7CEFF5FED610A9FEDBA0AFFF79CFEBD
:102AC0008DED030A5FED650A9FEDB60AFFF7D0FEB4
:102AD0008DED020AB04890ED010A8DED010A90EDEE
:102AE000000A8DED000ADDED031A9DED021ADDED01
:102AF000010A9DED000AFEF7ABFFA74890ED020A20
:102B00008DED030A5FED840A9DED030AFFF71CFDBE
:102B1000049801287DD1059800287AD1DFED9D0A1F
:102B20001FED7C0AFFF768FE8DED030ADFED990AC1
:102B30001FED800AFFF79CFE8DED020A964890ED8E
:102B4000010A8DED010A90ED000A8DED000ADDED20
:102B5000031A9DED021ADDED010A9DED000AFEF754
:102B600077FFDFED8C0A9FED8D0AFFF745FE8DEDB7
:102B7000030ADFED880A9FED890AFFF779FE8DEDE4
:102B8000020A854890ED010A8DED010A90ED000AD8
:102B90008DED000ADDED031A9DED021ADDED010A4F
:102BA0009DED000AFEF754FFDFED7D0A9FED7B0AE5
:102BB000FFF722FE8DED030ADFED790A9FED770A1C
:102BC000FFF756FE8DED020A734890ED010A8DED78
:102BD000010A90ED000A8DED000ADDED031A9DED6E
:102BE000021ADDED010A9DED000AFEF731FFDFED6F
:102BF0006C0A9FED6C0AFFF7FFFD8DED030ADFED18
:102C0000680A9FED680AFFF733FE8DED020A6248FD
:102C100000E01CE090ED010A8DED010A90ED000A44
:102C20008DED000ADDED031A9DED021ADDED010ABE
:102C30009DED000AFEF70CFF574890ED020A8DED5E
:102C4000030A5FEDD30A9DED030AFFF77DFC0498AC
:102C500001287DD1059802287AD1DFED510A1FEDB8
:102C6000CB0AFFF7C9FD8DED030ADFED4D0A1FED1D
:102C7000CF0AFFF7FDFD8DED020A474890ED010AEE
:102C80008DED010A90ED000A8DED000ADDED031ACD
:102C90009DED021ADDED010A9DED000AFEF7D8FE5A
:102CA000DFED3F0A9FED3D0AFFF7A6FD8DED030A1C
:102CB000DFED3B0A9FED390AFFF7DAFD8DED020AE1
:102CC000354890ED010A8DED010A90ED000A8DED79
:102CD000000ADDED031A9DED021ADDED010A9DEDFE
:102CE000000AFEF7B5FEDFED2B0A9FED2C0AFFF779
:102CF00083FD8DED030ADFED270A9FED280AFFF71C
:102D0000B7FD8DED020A244890ED010A8DED010A10
:102D100090ED000A8DED000ADDED031A9DED021A1B
:102D2000DDED010A9DED000AFEF792FEDFED190AC6
:102D30009FED1C0AFFF760FD8DED030ADFED150A1C
:102D40009FED180AFFF794FD8DED020A124800E08E
:102D50001CE090ED010A8DED010A90ED000A8DED69
:102D6000000ADDED031A9DED021ADDED010A9DED6D
:102D7000000AFEF76DFE084890ED020A8DED030A89
:102D8000DFED090A9DED030AFFF7DEFB0498022838
:102D90007BD10BE00000FAC36803002000409CC414
:102DA0000000FA4300A00CC5000034430598E8BBBE
:102DB0005FED080A1FED070AFFF71EFD8DED030A00
:102DC0005FED0C0A1FED0B0AFFF752FD8DED020AB5
:102DD000DDED031A9DED021A5FED120A9FEDFD0A6B
:102DE000FEF736FE5FED120A1FED140AFFF704FD31
:102DF0008DED030A5FED160A1FED180AFFF738FD87
:102E00008DED020AF44890ED010A8DED010A90ED76
:102E1000000A8DED000ADDED031A9DED021ADDEDCD
:102E2000010A9DED000AFEF713FE00E02DE05FEDC4
:102E3000240A1FED240AFFF7DFFC8DED030A5FED86
:102E4000280A1FED280AFFF713FD8DED020AE2485C
:102E500090ED010A8DED010A90ED000A8DED000A5A
:102E6000DDED031A9DED021ADDED010A9DED000A6C
:102E7000FEF7EEFDD84890ED020A8DED030A5FEDF6
:102E8000360A9DED030AFFF75FFB049802287CD108
:102E90000598012879D15FED410A1FED400AFFF73F
:102EA000ABFC8DED030A5FED450A1FED440AFFF709
:102EB000DFFC8DED020ADDED031A9DED021A5FEDD8
:102EC0004B0A9FEDC40AFEF7C3FD5FED4B0A1FEDF1
:102ED0004D0AFFF791FC8DED030A5FED4F0A1FEDE0
:102EE000510AFFF7C5FC8DED020ABB4890ED010ABF
:102EF0008DED010A90ED000A8DED000ADDED031A5B
:102F00009DED021ADDED010A9DED000AFEF7A0FD20
:102F10005FED5D0A1FED5D0AFFF76EFC8DED030AA4
:102F20005FED610A1FED610AFFF7A2FC8DED020A59
:102F3000A94890ED010A8DED010A90ED000A8DED92
:102F4000000ADDED031A9DED021ADDED010A9DED8B
:102F5000000AFEF77DFDDFED9F0A1FED6E0AFFF709
:102F60004BFC8DED030ADFED9B0A1FED720AFFF7A4
:102F70007FFC8DED020A984890ED010A8DED010A63
:102F800090ED000A8DED000A00E014E0DDED031A7B
:102F90009DED021ADDED010A9DED000AFEF758FDD8
:102FA0008D4890ED020A8DED030A5FED810A9DEDDB
:102FB000030AFFF7C9FA049802287CD10598022871
:102FC00079D15FED8C0A1FED8B0AFFF715FC8DEDB3
:102FD000030A5FED900A1FED8F0AFFF749FC8DEDA4
:102FE000020ADDED031A9DED021A5FED960A9FEDD0
:102FF000790AFEF72DFD5FED960A1FED980AFFF79F
:10300000FBFB8DED030A5FED9A0A1FED9C0AFFF7AB
:103010002FFC8DED020A704890ED010A8DED010A3A
:1030200090ED000A8DED000ADDED031A9DED021A08
:10303000DDED010A9DED000AFEF70AFD5FEDA80A2D
:103040001FEDA80AFFF7D8FB8DED030A5FEDAC0A70
:103050001FEDAC0AFFF70CFC8DED020A5E4890ED07
:10306000010A8DED010A90ED000A8DED000ADDEDFB
:10307000031A9DED021ADDED010A9DED000AFEF72F
:10308000E7FC5FEDBC0A1FEDB90AFFF7B5FB8DED5C
:10309000030A5FEDC00A1FEDBD0AFFF7E9FB8DEDE6
:1030A000020A4D4890ED010A8DED010A90ED000AEB
:1030B0008DED000A00E014E0DDED031A9DED021A2B
:1030C000DDED010A9DED000AFEF7C2FC424890EDDD
:1030D000020A8DED030A5FEDCC0A9DED030AFFF7AE
:1030E00033FA0498F0BB059802286CD15FEDD40A3E
:1030F0001FEDD60AFFF780FB8DED030A5FEDD80ABE
:103100001FEDDA0AFFF7B4FB8DED020ADDED031ABD
:103110009DED021A5FEDDE0A9FED2E0AFEF798FC88
:103120005FEDE40A1FEDE30AFFF766FB8DED030A8E
:103130005FEDE80A1FEDE70AFFF79AFB8DED020A43
:10314000254890ED010A8DED010A90ED000A8DED04
:10315000000ADDED031A9DED021ADDED010A9DED79
:10316000000A00E02FE0FEF773FC5FEDF60A1FEDAA
:10317000F30AFFF741FB8DED030A5FEDFA0A1FED3D
:10318000F70AFFF775FB8DED020A134890ED010A6F
:103190008DED010A90ED000A8DED000ADDED031AB8
:1031A0009DED021ADDED010A9DED000AFEF750FCCF
:1031B000094890ED020A8DED030ADFED080A9DED46
:1031C000030AFFF7C1F9049800287DD1059801286A
:1031D0007AD105E0000000006803002000003443BD
:1031E000DFEDF70A9FEDF70AFFF706FB8DED030A07
:1031F000DFEDF30A9FEDF30AFFF73AFB8DED020ACC
:10320000DDED031A9DED021ADFEDED0A1FED0F0A49
:10321000FEF71EFCDFEDEC0A9FEDEA0AFFF7ECFA81
:103220008DED030ADFEDE80A9FEDE60AFFF720FBCC
:103230008DED020AE54890ED010A8DED010A90ED51
:10324000000A8DED000ADDED031A9DED021ADDED99
:10325000010A9DED000AFEF7FBFBDFEDDB0A9FEDA7
:10326000DC0AFFF7C9FA8DED030ADFEDD70A9FEDFF
:10327000D80AFFF7FDFA8DED020AD44890ED010A55
:103280008DED010A90ED000A8DED000ADDED031AC7
:103290009DED021ADDED010A9DED000AFEF7D8FB57
:1032A0005FED340A9FEDCA0AFFF7A6FA8DED030A17
:1032B0005FED380A9FEDC60AFFF7DAFA8DED020AD4
:1032C000C24890ED010A00E01AE08DED010A90ED90
:1032D000000A8DED000ADDED031A9DED021ADDED09
:1032E000010A9DED000AFEF7B3FBB84890ED020A13
:1032F0008DED030A5FED470A9DED030AFFF724F900
:10330000049800287ED1059800287BD1DFEDAC0A17
:103310009FEDAC0AFFF770FA8DED030ADFEDA80A06
:103320009FEDA80AFFF7A4FA8DED020ADDED031A5E
:103330009DED021ADFEDA20A1FED5A0AFEF788FB87
:10334000DFEDA10A9FED9F0AFFF756FA8DED030A04
:10335000DFED9D0A9FED9B0AFFF78AFA8DED020AC9
:103360009A4890ED010A8DED010A90ED000A8DED6D
:10337000000ADDED031A9DED021ADDED010A9DED57
:10338000000AFEF765FBDFED900A9FED910AFFF75B
:1033900033FA8DED030ADFED8C0A9FED8D0AFFF7FE
:1033A00067FA8DED020A894890ED010A8DED010A58
:1033B00090ED000A8DED000ADDED031A9DED021A75
:1033C000DDED010A9DED000AFEF742FBDFED7C0A10
:1033D0009FED7F0AFFF710FA8DED030ADFED780A03
:1033E0009FED7B0AFFF744FA8DED020A774890EDD6
:1033F000010A8DED010A90ED000A8DED000ADDED68
:10340000031A00E012E09DED021ADDED010A9DEDC8
:10341000000AFEF71DFB6D4890ED020A8DED030AD0
:103420005FED920A9DED030AFFF78EF807B000BD2D
:1034300070B52DED028B04460D46012C3FD1012DB8
:103440003DD19FED640AFFF77DF95FED9E0A9FED88
:10345000620AFFF7D1F9B0EE408A5FEDA20A9FED54
:103460005E0AFFF705FAF0EE408AF0EE481AB0EE79
:10347000681A5FEDA80A1FEDA90AFEF7E9FA9FEDA9
:10348000570AFFF75FF95FEDAD0A9FED530AFFF7AB
:10349000B3F9B0EE408A5FEDB10A9FED4F0AFFF736
:1034A000E7F9F0EE408A5FEDB51A1FEDB61AF0EEBF
:1034B000480AFEF7CDFA9FED4A0AFFF743F9DCBB55
:1034C000012D39D19FED470AFFF73CF95FEDBF0AA7
:1034D0009FED410AFFF790F9B0EE408A5FEDC30A15
:1034E0009FED3D0AFFF7C4F9F0EE408AF0EE481A6E
:1034F000B0EE681A5FEDC90A1FEDCA0AFEF7A8FA16
:103500009FED370AFFF71EF95FEDCE0A9FED320AF5
:10351000FFF772F9B0EE408A5FEDD20A9FED2E0AF6
:10352000FFF7A6F9F0EE408A5FEDD61A1FEDD71A25
:10353000F0EE480AFEF78CFABDEC028B70BD70B558
:103540002DED028B05460C46012D4DD1012C35D1B8
:103550005FEDE00A9FED200AFFF74EF9B0EE408ADA
:103560005FEDE40A9FED1C0AFFF782F9F0EE408A56
:10357000F0EE481AB0EE681A5FEDEA0A1FEDEB0AAA
:10358000FEF766FA9FED170AFFF7DCF85FEDEF0A2A
:103590009FED110AFFF730F9B0EE408A5FEDF30AB4
:1035A0009FED0D0AFFF764F9F0EE408A5FEDF71A20
:1035B0001FEDF81AF0EE480AFEF74AFA4CE0000058
:1035C0000000FA4300409CC40000FAC368030020D6
:1035D00000A00CC5007094C50000B44300C0A8C58D
:1035E00000803BC50000B4C3022C35D1DFED440A96
:1035F0001FED070AFFF700F9B0EE408ADFED400A41
:103600001FED0B0AFFF734F9F0EE408AF0EE481A8E
:10361000B0EE681ADFED3A0A9FED390AFEF718FAA4
:103620001FED100AFFF78EF8DFED350A1FED160AC1
:10363000FFF7E2F8B0EE408ADFED310A1FED1A0A1B
:10364000FFF716F9F0EE408ADFED2D1A9FED2C1AE8
:10365000F0EE480AFEF7FCF9BDEC028B70BD0246A5
:103660006FF002012748D0ED030AF4EEC00AF1EE34
:1036700010FA09D2D0ED030AB1EE401AF4EEC10AF5
:10368000F1EE10FA00DD491C1F48D0ED030AF4EEFC
:10369000C00AF1EE10FA09D2D0ED030AB1EE401AD9
:1036A000F4EEC10AF1EE10FA00DD491C1748D0ED26
:1036B000030AF4EEC00AF1EE10FA09D2D0ED030AC3
:1036C000B1EE401AF4EEC10AF1EE10FA00DD491C29
:1036D0000F48D0ED030AF4EEC00AF1EE10FA09D259
:1036E000D0ED030AB1EE401AF4EEC10AF1EE10FA81
:1036F00000DD491C914201DD012070470020FCE7FC
:10370000000000005C00002080000020A4000020D9
:10371000C80000201CB50121202001F0B3FB4FF4AC
:10372000C060009001208DF8040000208DF8060094
:1037300003208DF8050001208DF807006946044834
:1037400001F002F94FF4C061014801F079F91CBDA4
:10375000001402401CB50121112001F093FB1C2034
:10376000009000208DF8040003208DF80500012052
:103770008DF807006946354801F0E6F80120009011
:1037800002208DF807006946314801F0DDF81CBDC4
:1037900010B5044614B101202E4908702D48007858
:1037A000002837D01021294801F030F978B10821DC
:1037B000264801F02BF950B10421244801F026F9E4
:1037C00028B10121224801F021F9012822D10A2043
:1037D00000F06AFC00201F49087010211B4801F00E
:1037E00015F908B9012010BD0821184801F00EF99B
:1037F00008B90220F7E70421144801F007F908B9D5
:103800000320F0E70121124801F000F901281BD143
:103810000420E8E710210D4801F0F8F8012813D141
:1038200008210A4801F0F2F801280DD104210748C7
:1038300001F0ECF8012807D10121054801F0E6F874
:1038400010B90120034908700020CCE700100240A5
:10385000000002401800002010B52DED028BB0EEE4
:10386000408AB5EEC08AF1EE10FA0ED89FED3E0AFE
:1038700028EE000ADFED3D0A80EE201A9FED3C0A9B
:1038800030EE410AB0EE408A0DE09FED3A0A28EE94
:10389000000A9FED361AC0EE010A9FED350A30EEA0
:1038A000800AB0EE408ABDEEC80AB8EEC00AB0EE9B
:1038B000408ABCEEC80A10EE101A2F4802F0F3FD41
:1038C000BDEC028B10BD00B58BB00121802001F052
:1038D00022FB0121202001F0D5FA092208212748E6
:1038E00001F0BDF84FF48070099002208DF8280097
:1038F00003208DF8290000208DF82A0001208DF882
:103900002B0009A91D4801F01FF85320ADF818003D
:103910000020ADF81A0044F61F6007900020ADF8B3
:10392000200006A9144802F0D0FB6020ADF8040086
:103930000120ADF806000220ADF8100001A90E48E4
:1039400002F058FC08210C4802F0E1FD01210A4870
:1039500002F026FC0121084802F040FCB1EE000A0A
:10396000FFF77AFF0BB000BD004083440000B44273
:1039700000EC9046004083C4001C0040001402404C
:1039800010B50121084601F07DFA0121022001F065
:1039900079FA0121042001F075FA0121082001F0D3
:1039A00071FA0121102001F06DFA0121202001F0AF
:1039B00069FA0121402001F065FA10BD1CB54FF4F1
:1039C0008050009000208DF8040002208DF8050042
:1039D00001208DF807006946FC4800F0B5FF4FF460
:1039E0008060009000208DF8040002208DF8050012
:1039F00001208DF807006946F44800F0A5FF4FF458
:103A00008070009000208DF8040002208DF80500E1
:103A100001208DF807006946EC4800F095FF022070
:103A2000009000208DF8040002208DF80500012090
:103A30008DF807006946E64800F086FF4FF4004025
:103A4000009000208DF8040002208DF80500012070
:103A50008DF807006946DF4800F076FF4FF400500C
:103A6000009000208DF8040002208DF80500012050
:103A70008DF807006946D74800F066FF4FF40060F4
:103A8000009000208DF8040002208DF80500012030
:103A90008DF807006946CF4800F056FF1CBD10B5F1
:103AA0004FF48051C94800F0B1FF012824D18102B0
:103AB000C64800F0ABFF01281ED10102C34800F048
:103AC000A5FF012818D10221C14800F09FFF01285D
:103AD00012D1C103BF4800F099FF01280CD1410366
:103AE000BC4800F093FF012806D1C102B94800F09C
:103AF0008DFF012800D110BD0020FCE710B54FF468
:103B00008051B24800F082FF20BB4FF48061AF4883
:103B100000F07CFFF0B94FF48071AC4800F076FF04
:103B2000C0B90221AA4800F071FF98B94FF40041D2
:103B3000A84800F06BFF68B94FF40051A54800F0A9
:103B400065FF38B94FF40061A24800F05FFF08B983
:103B5000012010BD0020FCE770B5054600244FF49D
:103B600080519A4800F052FF012801D1601CC4B274
:103B70004FF48061954800F049FF012801D1601C95
:103B8000C4B24FF48071914800F040FF012801D188
:103B9000601CC4B202218E4800F038FF012801D118
:103BA000601CC4B24FF400418A4800F02FFF012886
:103BB00001D1601CC4B24FF40051864800F026FFCA
:103BC000012801D1601CC4B24FF40061814800F0AB
:103BD0001DFF012801D1601CC4B2AC4201DB0120F1
:103BE00070BD0020FCE710B54FF48051774800F01D
:103BF0000DFF00BB4FF48061744800F007FFD0B99F
:103C00004FF48071714800F001FFA0B902217048A3
:103C100000F0FCFE78B94FF400616E4800F0F6FE4B
:103C2000012806D04FF400516A4800F0EFFE012849
:103C300001D1012010BD0020FCE710B54FF4006158
:103C4000644800F0E3FE00BB4FF40051614800F00F
:103C5000DDFED0B94FF400415E4800F0D7FEA0B9B8
:103C600002215B4800F0D2FE78B94FF480515748EA
:103C700000F0CCFE012806D04FF48061534800F0DC
:103C8000C5FE012801D1012010BD0020FCE710B5C0
:103C90004FF400614F4800F0B9FE38BB4FF40051BB
:103CA0004C4800F0B3FE08BB4FF48051474800F089
:103CB000ADFED8B94FF48061444800F0A7FEA8B922
:103CC0004FF48071414800F0A1FE01280CD0022180
:103CD0003F4800F09BFE012806D04FF400413D48CC
:103CE00000F094FE012801D1012010BD0020FCE766
:103CF00010B59FED392ADFED391A9FED391ADFED46
:103D0000380A9FED360AFDF7A1FD012000F0CCF93D
:103D100010BD10B59FED302ADFED311A9FED2F1A3F
:103D2000DFED2E0A9FED2E0AFDF790FD012000F039
:103D3000BBF910BD10B59FED282ADFED291A9FEDC4
:103D4000281ADFED260A9FED250AFDF77FFD0120E9
:103D500000F0AAF910BD10B59FED1F2ADFED1F1A64
:103D60009FED1E1ADFED1E0A9FED1D0AFDF76EFD89
:103D7000012000F099F910BD10B59FED172ADFED75
:103D8000161A9FED151ADFED140A9FED130AFDF7C1
:103D90005DFD012000F088F910BD10B54FF4805191
:103DA0000A4800F033FE18B90EA002F033FF02E01B
:103DB0000EA002F02FFF4FF48061044800F026FEB1
:103DC000E0B90CA002F026FF1BE00000001002404A
:103DD00000180240001402400000000000004842A9
:103DE000000048C2313A20570A000000313A204210
:103DF0000A000000323A20570A0000005EA002F0DC
:103E000009FF4FF480715E4800F000FE18B95DA014
:103E100002F000FF02E05DA002F0FCFE02215D481E
:103E200000F0F4FD18B95CA002F0F4FE02E05CA022
:103E300002F0F0FE4FF400415B4800F0E7FD18B9D6
:103E40005AA002F0E7FE02E05AA002F0E3FE4FF4AF
:103E50000051554800F0DAFD18B958A002F0DAFE1A
:103E600002E058A002F0D6FE4FF400614E4800F088
:103E7000CDFD18B955A002F0CDFE02E055A002F02C
:103E8000C9FE10BD0020554908705549087070479B
:103E900010B5FFF7FCFE38B1514800784F49087063
:103EA00001204F49087023E0FFF79DFE38B14C48D0
:103EB00000784A49087002204949087018E0FFF765
:103EC000BCFE38B146480078444908700320444994
:103ED00008700DE00420FFF73FFE10B9FFF70EFE5B
:103EE00030B13F4800783D49087000203C490870D7
:103EF0003B480078E8B9FFF701FED0B137480078B9
:103F0000022801D13649087034480078032801D1CD
:103F1000334908703148007801280AD10420FFF79E
:103F20001BFE18B100202E49087002E001202C4928
:103F300008702B48007878B1012804D0022805D0F9
:103F400003280CD105E0FFF7D3FE0CE0FFF7F2FEEB
:103F500009E0FFF700FF06E0FFF70EFF03E00A208D
:103F600000F0A2F800BF00BF0420FFF7F5FD08B184
:103F7000012010BD0020FCE7323A20420A00000078
:103F800000100240333A20570A000000333A204222
:103F90000A00000000180240343A20570A000000CE
:103FA000343A20420A00000000140240353A2057FB
:103FB0000A000000353A20420A000000363A205735
:103FC0000A000000363A20420A000000373A205723
:103FD0000A000000373A20420A0000001A000020C0
:103FE0001900002010B504466FF0040000F008FC32
:103FF000E11704EB5171C1F3C701394A1170104642
:10400000007800EB4001C1EBC0104FF6FF7101EAF0
:10401000C0003449088010BD0146314A12784A4335
:104020004FF0E0235A6100229A611A46126942F069
:1040300001021A6100BF4FF0E022106900F0010296
:104040001AB100F48032002AF5D04FF0E022126954
:1040500022F001024FF0E0231A6100229A617047BA
:104060000146204A12884A434FF0E0235A61002259
:104070009A611A46126942F001021A6100BF4FF0BC
:10408000E022106900F001021AB100F48032002A27
:10409000F5D04FF0E022126922F001024FF0E02348
:1040A0001A6100229A61704770B504464FF4077098
:1040B00094FBF0F0C6B24FF4077094FBF0F100FBF4
:1040C000114085B205E04FF40770FFF7C9FF701E7D
:1040D000C6B2002EF7D115B12846FFF7C1FF70BD5B
:1040E0001C0000201E00002000BF704700BFF84ADF
:1040F000128802F04002002AF9D0C2B2F44B9A8032
:10410000704710B588B004460121084600F0BAFE99
:104110000121102000F010FF07220921ED4800F0D6
:104120009EFC07220A21EB4800F099FC4FF4C06086
:10413000069002208DF81C008DF81D0000208DF8DF
:104140001E0001208DF81F0006A9E24800F0FCFBCC
:1041500002940020ADF80C00ADF80E00ADF8100090
:10416000ADF814000C20ADF8120002A9D84801F0F7
:1041700044F80121D64801F0C8F8012240F2255147
:10418000D34801F078F925208DF8040003208DF83C
:1041900005008DF8060001208DF8070001A800F049
:1041A000E2FA08B010BD10B588B004460121022023
:1041B00000F068FE0121880400F0ADFE07220B210B
:1041C000C54800F04CFC07220A21C34800F047FC18
:1041D0004FF44060069002208DF81C008DF81D0001
:1041E00000208DF81E0001208DF81F0006A9BA4896
:1041F00000F0AAFB02940020ADF80C00ADF80E0010
:10420000ADF81000ADF814000C20ADF8120002A9B2
:10421000B24800F0F2FF0121B04801F076F8012227
:1042200040F22551AD4801F026F927208DF8040011
:1042300001208DF8050000208DF8060001208DF882
:10424000070001A800F08FFA08B010BD10B588B0C3
:1042500004460121084600F015FE0121480400F043
:104260005AFE072203219B4800F0F9FB0722022196
:10427000984800F0F4FB0C20069002208DF81C00FA
:104280008DF81D0000208DF81E0001208DF81F0004
:1042900006A9904800F058FB02940020ADF80C00ED
:1042A000ADF80E00ADF81000ADF814000C20ADF81C
:1042B000120002A98A4800F0A0FF0121884801F0FD
:1042C00024F8012240F22551854801F0D4F8262037
:1042D0008DF8040001208DF8050000208DF80600FF
:1042E00001208DF8070001A800F03DFA08B010BDCC
:1042F000FEB505460C460026002000900190029075
:1043000000BF8021754801F0DBF80028F9D0572163
:10431000724801F025F800BF4021704801F0D0F844
:104320000028F9D000BF80216C4801F0C9F80028AE
:10433000F9D02946694801F013F800BF40216748C9
:1043400001F0BEF80028F9D01420FFF7ADFE45E0DB
:1043500064480088752802D00020634908706248CC
:10436000007808282FD100205F4908705D48C08977
:10437000072827D15B4840880090009800020090F1
:104380005849898800980843009000982060554853
:10439000C088019001980002019052490989019852
:1043A00008430190019860604E484089029002984D
:1043B000000202904B4989890298084302900298B2
:1043C000A0600CE00BE00120FFF76EFE701CC6B28F
:1043D0000A2E03D100204449087000E0B8E700BF6E
:1043E000FEBDFEB505460C4600260020009001905B
:1043F000029000BF80213A4801F062F80028F9D00D
:104400005721374800F0ACFF00BF4021344801F08D
:1044100057F80028F9D000BF8021314801F050F84A
:104420000028F9D029462E4800F09AFF00BF40210D
:104430002B4801F045F80028F9D0C820FFF734FEDA
:1044400058E02A480088752802D0002028490870C2
:104450002748007808282FD10020254908702348D4
:10446000C089072827D12148408800900098000281
:1044700000901E49898800980843009000982060A9
:104480001A48C088019001980002019017490989D3
:104490000198084301900198606014484089029097
:1044A00002980002029011498989029808430290FB
:1044B0000298A0601FE01EE00120FFF7F5FD701CD0
:1044C000C6B20A2E16D100200949087013E0000078
:1044D000001001400000024000040240004800407B
:1044E00000440040640400202600002084040020D2
:1044F00027000020A5E700BFFEBD70B504460E46AC
:10450000154600BF80217C4800F0DAFF0028F9D072
:104510004C21794800F024FF00BF4021764800F08C
:10452000CFFF0028F9D000BF8021734800F0C8FFFA
:104530000028F9D02146704800F012FF00BF40214A
:104540006D4800F0BDFF0028F9D000BF80216A4807
:1045500000F0B6FF0028F9D03146674800F000FFB0
:1045600000BF4021644800F0ABFF0028F9D000BF35
:104570008021614800F0A4FF0028F9D029465E4858
:1045800000F0EEFE00BF40215B4800F099FF0028DC
:10459000F9D070BD70B504460E46154600BF8021A7
:1045A000564800F08DFF0028F9D04C21534800F008
:1045B000D7FE00BF4021514800F082FF0028F9D00B
:1045C00000BF80214D4800F07BFF0028F9D0214634
:1045D0004A4800F0C5FE00BF4021484800F070FF87
:1045E0000028F9D000BF8021444800F069FF00286E
:1045F000F9D03146414800F0B3FE00BF40213F48AA
:1046000000F05EFF0028F9D000BF80213B4800F099
:1046100057FF0028F9D02946384800F0A1FE00BF16
:104620004021364800F04CFF0028F9D070BD10B58D
:1046300040F22551324800F059FF10B3304800F0E5
:1046400093FEC4B22F48008800F40040C8B92D483A
:10465000008800F4804060B10A2C03D00020294972
:10466000088020E02748008840F400402549088061
:1046700019E00D2C06D12348008840F480402149E0
:10468000088010E01F480088C0F30D001E490C543C
:104690001C480088401C1B49088008460088C72821
:1046A00001DD0020088010BD10B540F225511248F0
:1046B00000F01CFF58B1104800F056FE13490A786C
:1046C0000978491C114B1970114921F8120010BDCD
:1046D00010B540F22551094800F008FF58B10748CD
:1046E00000F042FE0B490A780978491C094B197001
:1046F000094921F8120010BD004800400044004064
:1047000000100140240000209C030020260000200F
:10471000640400202700002084040020094880470A
:1047200009480047FEE7FEE7FEE7FEE7FEE7FEE793
:10473000FEE7FEE7FEE7FEE704480549054A064BAB
:1047400070470000C1050008890100080805002025
:10475000080B002008070020080700203249014309
:10476000324A1160704770B5002100230F22C478CF
:104770001CB32E4C246804F4E064C4F5E064C4F374
:104780000721C1F10404E3B20A4144789C40E1B23C
:104790008478144021430C07210E254C057861557F
:1047A000047804F01F050124AC4005786D11AD00BC
:1047B00005F1E025C5F8004109E0047804F01F0583
:1047C0000124AC401B4D0678761145F8264070BD9B
:1047D000194A0A400243154B1B1F1A60704739B132
:1047E000124A121D12680243104B1B1D1A6006E08C
:1047F0000E4A121D126882430C4B1B1D1A60704733
:10480000042808D14FF0E021096941F004014FF07C
:10481000E022116107E04FF0E021096921F0040175
:104820004FF0E022116170470000FA050CED00E046
:1048300000E400E080E100E080FFFF1F10B50446C7
:104840009848844208D10121084600F086FB0021E7
:10485000012000F082FB76E09348844208D10121D8
:10486000022000F07AFB0021022000F076FB6AE0D3
:104870008E48844208D10121042000F06EFB002103
:10488000042000F06AFB5EE08948844208D10121DF
:10489000082000F062FB0021082000F05EFB52E0DF
:1048A0008448844208D10121102000F056FB0021E9
:1048B000102000F052FB46E07F48844208D10121DD
:1048C000202000F04AFB0021202000F046FB3AE0C7
:1048D0007A48844208D10121402000F03EFB0021AB
:1048E000402000F03AFB2EE07548844208D10121B7
:1048F000802000F032FB0021802000F02EFB22E01F
:104900007048844208D10121801500F026FB002167
:10491000A01500F022FB16E06B48844208D101216B
:10492000401500F01AFB0021601500F016FB0AE0AC
:104930006648844207D10121001500F00EFB0021DA
:10494000201500F00AFB10BDF0B50A460021002337
:10495000002400BF3DE0012505FA01F3156805EAD2
:1049600003049C4234D105684F000326BE40B54382
:10497000056015794E00B540066835430560157928
:10498000012D02D01579022D16D185684F0003261E
:10499000BE40B543856055794E00B54086683543C5
:1049A0008560456801268E40B54345604568967927
:1049B0008E40B6B235434560C5684F000326BE4001
:1049C000B543C560D5794E00B540C6683543C5606E
:1049D000491C1029BFD3F0BD4FF6FF7101600021C3
:1049E000017141718171C171704708B54FF4803216
:1049F0000092009A0A430092009AC261C161009A33
:104A0000C261C2690092C269009208BD02460020DC
:104A100013690B400BB1012000E0002070470146F4
:104A2000086980B270470246002053690B400BB101
:104A3000012000E0002070470146486980B27047BD
:104A400001837047418370470AB1018300E04183CD
:104A500070474161704742694A4042617047F0B512
:104A6000002300244D07ED0E02FA05F3CE1000F1ED
:104A7000200555F826504E07F70E0F26BE40B543C9
:104A8000CF1000F1200646F82750CE1000F1200587
:104A900055F8265045EA0304CE1000F1200545F8EC
:104AA0002640F0BD00000240000402400008024021
:104AB000000C0240001002400014024000180240A6
:104AC000001C024000200240002402400028024056
:104AD000F948006840F00100F74908600020F649F5
:104AE00008310860F4480068F4490840F249086059
:104AF000F348091D0860F348EF4984310860F04825
:104B00001038091D0860EC48006820F48020EA494C
:104B100008600020E8490C310860E7498C310860E2
:104B200070470021E44A921C1170114608707047CA
:104B300010B501460022002300204A11012A02D1AB
:104B4000DD4C236808E0022A03D1DB4C7034236873
:104B500002E0D94C7434236801F01F020124944010
:104B60001C400CB1012000E0002010BD38B5002031
:104B700000900024002500BF3120FFF7D9FF054633
:104B80000098401C00900098B0F5A04F01D0002D77
:104B9000F2D03120FFF7CCFF08B1012400E000245F
:104BA000204638BD01460020C34A106820F0F800B6
:104BB00040EAC10010607047C34908607047002197
:104BC000BD4A703211701170012802D004280AD138
:104BD00004E00121B84A7032117005E00521B64A9F
:104BE0007032117000E000BF00BF7047B749086025
:104BF000704770B5049C41EA82150126C6EB530646
:104C000045EA0645054345EA0465AB4E361D356069
:104C100070BDAD4908667047820142EA0172A64B39
:104C200084331A607047A8498866704710B58301BD
:104C300043EA016343EA02739F4C8834236010BD4A
:104C4000A14908677047A049C86470470246002020
:104C5000994B0833186820F0EC6042EA01031843CE
:104C6000954B08331860704702460020924B08337A
:104C7000186820F0784042EA010318438E4B08334D
:104C800018607047014600208B4A0832106820F0F7
:104C9000030008431060704787480830006800F040
:104CA0000C00704701460020834A0832106820F04B
:104CB000F000084310607047014600207E4A083229
:104CC000106820F4E050084310607047014600204F
:104CD000794A0832106820F4604040EAC100106050
:104CE0007047F0B50021002200240225002602238F
:104CF000714F08373F6807F00C0121B1042905D036
:104D0000082937D105E0724F076036E0714F076020
:104D100033E0694F3F1D3F68C7F38056664F3F1D24
:104D20003F6807F03F036EB16A4FB7FBF3F7DFF858
:104D300088C10CF1040CDCF800C0CCF3881C07FB24
:104D40000CF40CE0624FB7FBF3F7DFF86CC10CF129
:104D5000040CDCF800C0CCF3881C07FB0CF4564FA5
:104D60003F1D3F68C7F301477F1C7D00B4FBF5F78B
:104D7000076002E0564F076000BF00BF4E4F083784
:104D80003F6807F0F0010909534F7A5C0768D74084
:104D90004760494F08373F6807F4E051890A4E4F92
:104DA0007A5C4768D7408760434F08373F6807F40D
:104DB0006041490B484F7A5C4768D740C760F0BDF7
:104DC000002100F44072B2F5407F0AD13A4A08321D
:104DD000116821F4F811414A02401143364A083261
:104DE0001160354A70321268C0F30B031A43324B1C
:104DF00070331A6070473549443908607047334949
:104E00004039086070473649086070470146002005
:104E1000294A8C32106820F01F004A1E1043264A8F
:104E20008C321060704701460020234A8C32106893
:104E300020F4F8504A1E40EA02201F4A8C321060CB
:104E40007047014600201C4A8C32106820F4401044
:104E500008431060704701460020174A8C321068E2
:104E600020F4400008431060704701460020124AB9
:104E70008C32106820F440300843106070471949A4
:104E80000860704739B10C4A3032126802430A4B4D
:104E900030331A6006E0084A303212688243064B0B
:104EA00030331A607047F9B1034A34321268024352
:104EB000014B34331A601CE000380240FFFFF6EA71
:104EC000103000240030002000004742800E47428E
:104ED0000024F40000127A0028000020FFFCFF0FDD
:104EE0005C014742E01147428F4A126882438E4B71
:104EF0001A60704739B18C4A121D126802438A4BFE
:104F00001B1D1A6006E0884A121D12688243864BF8
:104F10001B1D1A60704739B1834A0C321268024374
:104F2000814B0C331A6006E07F4A0C3212688243D0
:104F30007D4B0C331A60704739B17B4A10321268CE
:104F40000243794B10331A6006E0774A1032126838
:104F50008243754B10331A60704739B1724A243A54
:104F600012680243704B243B1A6006E06E4A243AF2
:104F7000126882436C4B243B1A60704739B16A4A0D
:104F8000203A12680243684B203B1A6006E0664AEA
:104F9000203A12688243644B203B1A60704739B153
:104FA000614A1C3A126802435F4B1C3B1A6006E0E0
:104FB0005D4A1C3A126882435B4B1C3B1A60704787
:104FC00039B1594A143A12680243574B143B1A60DC
:104FD00006E0554A143A12688243534B143B1A6058
:104FE000704739B1504A103A126802434E4B103B99
:104FF0001A6006E04C4A103A126882434A4B103B52
:105000001A60704739B1484A1C3212680243464B55
:105010001C331A6006E0444A1C3212688243424B39
:105020001C331A60704739B13F4A2032126802437C
:105030003D4B20331A6006E03B4A2032126882431F
:10504000394B20331A60704739B1374A243212681D
:105050000243354B24331A6006E0334A2432126887
:105060008243314B24331A60704739B12E4A2C32B7
:10507000126802432C4B2C331A6006E02A4A2C3269
:1050800012688243284B2C331A60704739B1264A84
:10509000303212680243244B30331A6006E0224A51
:1050A000303212688243204B30331A607047012837
:1050B00008D11D493C31096841F008011A4A3C32C7
:1050C000116007E018493C31096821F00801164ACF
:1050D0003C321160704739B1134A273A12780243C3
:1050E000114B273B1A7006E00F4A273A1278824389
:1050F0000D4B273B1A7070470B484030006840F05A
:105100008070094940310860704701460020064A16
:10511000283A12680A400AB1012000E000207047D6
:1051200001492639087070473438024010B50446EA
:10513000FA48844208D101211020FFF752FF0021D4
:105140001020FFF74EFF57E0F548844209D10121B6
:105150004804FFF735FF00214FF40030FFF730FF20
:105160004AE0F048844209D101218804FFF728FF72
:1051700000214FF48020FFF723FF3DE0EA488442FE
:1051800009D10121C804FFF71BFF00214FF40020C3
:10519000FFF716FF30E0E548844209D101210805F8
:1051A000FFF70EFF00214FF48010FFF709FF23E007
:1051B000DF48844208D101212020FFF712FF00219F
:1051C0002020FFF70EFF17E0DA48844209D10121C1
:1051D0008807FFF7F5FE00214FF08040FFF7F0FE53
:1051E0000AE0D548844207D101214005FFF7E8FED7
:1051F00000216005FFF7E4FE10BD2DE9FF470546DD
:105200000E460024A14600BFA046B08900B100BFF1
:105210002C8A24F44054F08804432C82AC8941F257
:105220000C608443B0883189084371890843044382
:10523000AC81AC8A24F44074B0890443AC826846E3
:10524000FFF74FFDB548854202D0B948854202D1EB
:10525000DDF80C9001E0DDF80890A88900F400402A
:1052600040B109EBC90000EB091031684900B0FBFF
:10527000F1F707E009EBC90000EB0910316889007C
:10528000B0FBF1F76420B7FBF0F0040120096421C2
:1052900001FB1078A88900F4004040B1322000EBF7
:1052A000C800B0FBF1F000F00700044308E0322032
:1052B00000EB08106421B0FBF1F000F00F00044394
:1052C0002C81BDE8FF874FF41651016000218180D9
:1052D000C18001810C21418100218181704710B57D
:1052E00002460020108A20F470600B884C8823430B
:1052F0008C882343CC8823431843108210BD00219F
:10530000018041808180C180704721B1828942F44F
:105310000052828104E082894DF6FF731A40828137
:105320007047028B02F47F420283028B0A4302839E
:10533000704721B1828942F40042828103E0828970
:10534000C2F30E028281704721B1828A42F4006268
:10535000828204E0828A4FF2FF731A408282704791
:10536000C1F308028280704701468888C0F30800B4
:105370007047028A4FF6F0731A400282028A0A438B
:105380000282704721B1828942F00202828104E0E8
:1053900082894FF6FD731A408281704782894FF2ED
:1053A000FF731A40828182890A4382817047028A90
:1053B0004FF6DF731A400282028A0A430282704764
:1053C00021B1028A42F48042028204E0028A4BF652
:1053D000FF731A4002827047818941F00101818187
:1053E000704721B1828A42F00802828204E0828AF8
:1053F0004FF6F7731A4082827047028BD2B2028353
:10540000028B42EA01220283704721B1828A42F074
:105410002002828204E0828A4FF6DF731A40828281
:10542000704721B1828A42F01002828204E0828AAF
:105430004FF6EF731A4082827047828A4FF6FB73F1
:105440001A408282828A0A438282704721B1828A0C
:1054500042F00202828204E0828A4FF6FD731A4013
:10546000828270471AB1838A0B43838202E0838A67
:105470008B4383827047F0B5034600240026002545
:10548000002040F66A17B94200D100BF1846C1F3A8
:10549000421401F01F06012707FA06F5012C01D17D
:1054A0000C3004E0022C01D1103000E014301AB1AD
:1054B00007682F43076002E00768AF430760F0BD4D
:1054C00002460020B1F5007F00D100BF13880B40D9
:1054D0000BB1012000E00020704701F40072B2F52A
:1054E000007F00D100BFCA430280704770B50246FA
:1054F000002400230025002040F66A16B14200D1A6
:1055000000BFC1F3421501F01F03012606FA03F3A1
:10551000012D13D19689334017E00000001001409F
:105520000044004000480040004C00400050004053
:105530000014014000780040007C0040022D02D1A0
:10554000168A334001E0968A33400C12012606FA8F
:1055500004F41688344013B10CB1012000E000209F
:1055600070BD10B50022002340F66A14A14200D19C
:1055700000BF0A1201249440A3B2DC43048010BD92
:1055800010B50446FE48844209D101214806FFF7C0
:1055900017FD00214FF00070FFF712FD08E0012118
:1055A0008806FFF70DFD00214FF08060FFF708FD32
:1055B00010BD30B5024600200023146824F0020418
:1055C0001460146844F00104146000E05B1C54682B
:1055D00004F001041CB94FF6FF74A342F6D15468DD
:1055E00004F001040CB900206CE08C79012C04D18A
:1055F000146844F08004146003E0146824F080040C
:105600001460CC79012C04D1146844F04004146077
:1056100003E0146824F0400414600C7A012C04D1D7
:10562000146844F02004146003E0146824F020049B
:1056300014604C7A012C04D1146844F010041460F6
:1056400003E0146824F0100414608C7A012C04D157
:10565000146844F00804146003E0146824F008049B
:105660001460CC7A012C04D1146844F00404146052
:1056700003E0146824F0040414608C78A407CD7847
:1056800044EA05640D7944EA05444D7944EA055439
:105690000D886D1E2C43D461146824F0010414603D
:1056A000002300E05B1C546804F001041CB14FF6B9
:1056B000FF74A342F6D1546804F001040CB1002039
:1056C00000E0012030BD10B50021837A012202FAEA
:1056D00003F1AC4A126842F00102AA4B1A60A94ACF
:1056E0001C3212688A43A74B1C331A60027BCAB96A
:1056F000A44A0C3212688A43A24B0C331A604288C7
:10570000C38842EA03439F4A4032847A42F83430E5
:105710000288838842EA03439A4A4032847A02EB41
:10572000C4025360027B012A19D1964A0C321268D6
:105730000A43944B0C331A604288038842EA0343BD
:10574000904A4032847A42F83430C288838842EAF0
:1057500003438C4A4032847A02EBC4025360C27A1B
:105760003AB9884A121D12688A43864B1B1D1A607B
:1057700006E0844A121D12680A43824B1B1D1A6000
:10578000028932B97F4A143212688A437D4B14333E
:105790001A600289012A06D17A4A143212680A4331
:1057A000784B14331A60427B012A06D1754A1C32A9
:1057B00012680A43734B1C331A60724A126822F053
:1057C0000102704B1A6010BD00218171C17101721C
:1057D00041728172C1728170C17003210171022115
:1057E00041710121018070476649096841F001015A
:1057F000644A11601146096843F60E729143614A8A
:1058000011601146096841EA0021116011460968DA
:1058100021F001011160704721B1026842F4803229
:10582000026003E0026822F4803202607047E1B156
:10583000026842F0800202604FF4C272125842F4D1
:1058400080734FF4C27213504FF4CA72125842F46C
:1058500080734FF4CA7213504FF4D272125842F44C
:1058600080734FF4D27213501BE0026822F0800262
:1058700002604FF4C272125822F480734FF4C27265
:1058800013504FF4CA72125822F480734FF4CA7244
:1058900013504FF4D272125822F480734FF4D27224
:1058A0001350704710B502460020936803F08063E0
:1058B000B3F1806F00D110E0936803F00063B3F19F
:1058C000006F01D1012008E0936803F08053B3F129
:1058D000805F01D1022000E00420042879D002F585
:1058E000C07303EB00131B6803F0010402F5C073DF
:1058F00003EB00131C600B7A7BB94B7A0C8843EAEC
:10590000445302F5C07404EB00142468234302F5E9
:10591000C07404EB0014236010E00B7A4C6843EA77
:10592000C4034C7A234302F5C07404EB00142468CA
:10593000234302F5C07404EB001423608B7A03F058
:105940000F038B7202F5C07303EB00135B6823F047
:105950000F0402F5C07303EB00135C6002F5C07323
:1059600003EB00135B688C7A234302F5C07404EBED
:10597000001463608B7B1C064B7B44EA034403E00A
:1059800000640040006600400B7B44EA0323CC7AAD
:10599000234302F5C07404EB0014A3608B7C1C0647
:1059A0004B7C44EA03440B7C44EA0323CC7B234333
:1059B00002F5C07404EB0014E36002F5C07303EB5E
:1059C00000131B6843F0010402F5C07303EB0013DE
:1059D0001C6010BD10B50246002321B1012907D07B
:1059E00002290FD109E09068F94C00EA04030BE0AA
:1059F0009068F84C00EA040306E09068F64C00EA70
:105A0000040301E0002300BF00BFF44C181BA342B5
:105A100016D007DC83B16FF08060184470B10228A3
:105A200018D111E0B0F5007F10D0ED4C204448B102
:105A3000B0F5003F0ED10BE002230DE000230BE098
:105A4000002309E0002307E0012305E0012303E030
:105A5000012301E0002300BF00BFD8B210BD21B177
:105A6000012907D002290FD109E0826842F08002A3
:105A700082600AE0826842F40042826005E0826847
:105A800042F40002826000E000BF00BF704710B522
:105A900000F5D87303EB01131B6803F004031372C2
:105AA000137A53B900F5D87303EB01131B6840F266
:105AB000FF7404EA5353136009E000F5D87303EB55
:105AC00001131B686FF0604404EAD303536000F5D0
:105AD000D87303EB01131B6803F00203537200F544
