:020000040800F2
:10000000080B00201D300008B5030008B7030008E6
:10001000BB030008BF030008C30300080000000082
:10002000000000000000000000000000C7030008FE
:10003000C903000800000000CB030008CD0300083E
:1000400037300008373000083730000837300008F4
:1000500037300008373000083730000837300008E4
:1000600037300008373000083730000837300008D4
:1000700037300008373000083730000837300008C4
:10008000373000083730000837300008F90600081C
:100090000F070008373000083730000837300008F5
:1000A0003730000837300008373000083730000894
:1000B0003730000837300008373000083730000884
:1000C0003730000837300008373000083730000874
:1000D00037300008E32E0008B52F00085D2F000818
:1000E0003730000837300008373000083730000854
:1000F0003730000837300008373000083730000844
:100100003730000837300008373000083730000833
:100110003730000837300008373000083730000823
:100120003730000837300008373000083730000813
:100130003730000837300008373000083730000803
:1001400037300008373000083730000837300008F3
:10015000373000083730000837300008DD2F00083E
:1001600037300008373000083730000837300008D3
:1001700037300008373000083730000837300008C3
:10018000373000083730000800F002F800F03CF883
:100190000AA090E8000C82448344AAF10107DA45E2
:1001A00001D100F031F8AFF2090EBAE80F0013F0F8
:1001B000010F18BFFB1A43F001031847DC58000079
:1001C000FC580000103A24BF78C878C1FAD852070A
:1001D00024BF30C830C144BF04680C6070470000C1
:1001E0000023002400250026103A28BF78C1FBD840
:1001F000520728BF30C148BF0B6070471FB505F0DC
:1002000040FC1FBD10B510BD05F0BEF91146FFF74B
:10021000F5FF00F06CF805F0DCF903B4FFF7F2FF2E
:1002200003BC02F0A3FA00000146002200205B4B51
:1002300018600AE05A48594B1B6850F823000244E2
:1002400056480068401C554B186054480068032805
:10025000F0DB022A15D10020504B18600DE0504809
:100260004E4B1B6850F8230010B94C48006870478B
:100270004A480068401C494B1860484800680328F9
:10028000EDDB012A13D1012907D145484068012837
:1002900001D10020EBE70120E9E7022907D140481E
:1002A0000068012801D10220E1E70020DFE73AB928
:1002B000012901D10120DAE7022901D10020D6E786
:1002C00000BFD4E737488068002801DD012070476F
:1002D00034480068002801DD0020F8E73148006953
:1002E000002801DD0220F2E74FF0FF30EFE70120A8
:1002F0002D4908602D49C1F8A80200BF00BF4FF486
:10030000E13002F040FA4FF4E13002F0E1FA4FF44C
:10031000E13002F08AFA4FF4E13002F02BFBA82022
:1003200002F0A2F901F0B2FA01F0D0FA4FF4A060A5
:1003300002F094FE01F0E0FB01F0F4FB00F042FD5E
:1003400001F002F800F04CF902F05BF801F077FBE5
:100350000025022002F0EAF902241DE0022C02D05E
:10036000052C16D105E002F056F8054605B1052426
:1003700011E09FED0F2ADFED0E1A9FED0D1ADFED54
:100380000C0A9FED0B0A01F0D7F9012002F0CEF91B
:1003900000BF052400BF00BFE0E700001000002000
:1003A0006800002050000020A482424200804242A7
:1003B00000000000704700BFFEE700BFFEE700BF7F
:1003C000FEE700BFFEE770477047704770470000C8
:1003D0000CB50020019000907648006840F4803011
:1003E0007449086000BF7348006800F40030009052
:1003F0000198401C0190009818B90198B0F5A04FE1
:10040000F1D16C48006800F4003010B10120009078
:1004100001E0002000900098012846D16548403056
:10042000006840F0805063494031086062480068CD
:1004300040F44040604908605E48083000685D490B
:10044000083108600846006840F40040086008462B
:10045000006840F4A05008605848091F0860081F51
:10046000006840F08070091F086000BF51480068B4
:1004700000F000700028F9D040F205705049086083
:100480004C480830006820F003004A4908310860F1
:100490000846006840F00200086000BF4548083088
:1004A000006800F00C000828F8D10CBD10B54548D4
:1004B000006840F47000434908603E48006840F01E
:1004C00001003C49086000203A4908310860394879
:1004D00000683D490840374908603C48091D0860EC
:1004E000081F006820F48020091F0860002031499F
:1004F0000C310860FFF76CFF4FF000603149803924
:10050000086010BD70B500200022022300240221E3
:10051000284D08352D6805F00C0020B1042806D0C0
:10052000082834D107E02A4D2A4E356033E02A4DA1
:10053000284E35602FE01F4D2D1D2D68C5F38054CA
:100540001C4D2D1D2D6805F03F0154B1224DB5FB0A
:10055000F1F5184E361D3668C6F3881605FB06F20F
:1005600009E01B4DB5FBF1F5124E361D3668C6F39A
:10057000881605FB06F20F4D2D1D2D68C5F30145AC
:100580006D1C6B00B2FBF3F5124E356003E0104DAD
:10059000104E356000BF00BF064D08352D68C5F30D
:1005A00003150E4E705D0B4D2D68C540094E35602C
:1005B00070BD000000380240007000400854400741
:1005C000003C024088ED00E0FFFFF6FE1030002402
:1005D0000024F4001400002000127A00180000200B
:1005E00000B58BB00121084603F0CCF80121480684
:1005F00003F011F94FF4C050099002208DF8280043
:1006000000208DF82A0003208DF8290001208DF8A4
:100610002B0009A9FE4802F017FE09220B21FC4815
:1006200002F09DFE09220C21F94802F098FEF948DB
:1006300003F026FC06A803F047FD00208DF81E00FD
:100640008DF81F008DF8200001208DF8210000207A
:100650008DF822008DF823008DF81A008DF81B000C
:1006600008208DF81C0003208DF81D00ADF818003F
:1006700006A9E84803F01DFC00208DF812008DF853
:10068000130001208DF814000020ADF80800ADF82B
:100690000A00ADF80C00ADF80E00ADF81000012016
:1006A0008DF8150002A803F08EFC01220221D94822
:1006B00003F088FF01221146D64803F083FF14207F
:1006C0008DF8040002208DF8050001208DF8060049
:1006D0008DF8070001A802F0C6FC13208DF8040075
:1006E00001208DF805008DF806008DF8070001A89F
:1006F00002F0B9FC0BB000BD10B50121C54803F0F4
:10070000C9FF18B10121C34804F05FF810BD00B55E
:100710002DED048B93B00EAA0021BE4803F037FEE6
:1007200040F201210E9888427ED10EA8017CC07B48
:1007300041EA002000B200EE100AB8EEC00AB64846
:1007400080ED050A0EA8827B407B42EA002000B2C1
:1007500000EE100AB8EEC00A10EE101A084605F0B6
:100760001FF941EC190B9FEDAD0B53EC102B04F06E
:100770006BFF41EC180B04F035FF00EE100AA648A1
:1007800080ED030A008B68B9A348408B50B90EA8CE
:10079000007B9DF8431040EA012000B29E49488347
:1007A00008830CE09C48408B9B4908830EA8007B83
:1007B0009DF8431040EA012000B2974948839648CB
:1007C00090ED000A8DED050A90ED010A8DED060A07
:1007D00090ED020A8DED070A90ED030A8DED080AEF
:1007E00090ED040A8DED090A90ED050A8DED0A0AD7
:1007F000008BADF82C008848408BADF82E00864861
:10080000C0690C90844890F820008DF834001422C0
:1008100009A9684604F07EFE05A80FC800F09CFAFE
:100820007D48D0ED010A00E004E030EE200A80EDC2
:10083000010A33E240F202210E9888427ED10EA8CE
:10084000017CC07B41EA002000B200EE100AB8EE45
:10085000C00A744880ED050A0EA8827B407B42EAFC
:10086000002000B200EE100AB8EEC00A10EE101A16
:10087000084605F095F841EC190B9FED680B53EC19
:10088000102B04F0E1FE41EC180B04F0ABFE00EE7F
:10089000100A644880ED030A008B68B96148408BF8
:1008A00050B90EA8007B9DF8431040EA012000B229
:1008B0005C49488308830CE05A48408B59490883B7
:1008C0000EA8007B9DF8431040EA012000B2554974
:1008D0004883544890ED000A8DED050A90ED010A19
:1008E0008DED060A90ED020A8DED070A90ED030AE0
:1008F0008DED080A90ED040A8DED090A90ED050AC8
:100900008DED0A0A008BADF82C004648408BADF8FF
:100910002E004448C0690C90424890F820008DF8A1
:100920003400142209A9684604F0F4FD05A80FC894
:1009300000F012FA3B48D0ED010A00E004E030EE8E
:10094000200A80ED010AA9E140F203210E988842B5
:100950005DD10EA8017CC07B41EA002000B200EE10
:10096000100AB8EEC00A304880ED050A0EA8827B56
:10097000407B42EA002000B200EE100AB8EEC00A46
:1009800010EE101A084605F00BF841EC190B9FED1C
:10099000230B53EC102B04F057FE41EC180B04F022
:1009A00021FE00EE100A204880ED030A008B68B992
:1009B0001D48408B50B90EA8007B9DF8431040EABB
:1009C000012000B21849488308830CE01648408B88
:1009D000154908830EA8007B9DF8431040EA0120CA
:1009E00000B211494883104890ED000A8DED050AC8
:1009F00090ED010A8DED060A90ED020A8DED070AD1
:100A000090ED030A8DED080A90ED040A0EE033E044
:100A1000000002400064004074000020000000005C
:100A20000000334098000020BC0000208DED090A32
:100A300090ED050A8DED0A0A008BADF82C00BD483B
:100A4000408BADF82E00BB48C0690C90B94890F8B7
:100A500020008DF83400142209A9684604F05AFDDC
:100A600005A80FC800F078F9B248D0ED010A30EEC1
:100A7000200A80ED010A11E10E98B0F5017F7CD1CA
:100A80000EA8017CC07B41EA002000B200EE100AF3
:100A9000B8EEC00AA84880ED050A0EA8827B407B0C
:100AA00042EA002000B200EE100AB8EEC00A10EED2
:100AB000101A084604F074FF41EC190B1FED290BC6
:100AC00053EC102B04F0C0FD41EC180B04F08AFD30
:100AD00000EE100A984880ED030A008B68B996482A
:100AE000408B50B90EA8007B9DF8431040EA0120CE
:100AF00000B29149488308830CE08F48408B8E49AF
:100B000008830EA8007B9DF8431040EA012000B244
:100B100089494883884890ED000A8DED050A90EDDB
:100B2000010A8DED060A90ED020A8DED070A90ED9F
:100B3000030A8DED080A90ED040A8DED090A90ED87
:100B4000050A8DED0A0A008BADF82C007A48408B1F
:100B5000ADF82E007848C0690C90774890F82000D6
:100B60008DF83400142209A9684604F0D3FC05A8C6
:100B70000FC800F0F1F8704800E006E0D0ED010A7F
:100B800030EE200A80ED010A88E040F205210E983F
:100B900088427CD10EA8017CC07B41EA002000B2D3
:100BA00000EE100AB8EEC00A644880ED050A0EA8EF
:100BB000827B407B42EA002000B200EE100AB8EED1
:100BC000C00A10EE101A084604F0EAFE41EC190BB8
:100BD0001FED6E0B53EC102B04F036FD41EC180B9F
:100BE00004F000FD00EE100A544880ED030A008B6B
:100BF00068B95248408B50B90EA8007B9DF843104D
:100C000040EA012000B24D49488308830CE04B487C
:100C1000408B4A4908830EA8007B9DF8431040EAA8
:100C2000012000B245494883444890ED000A8DED0B
:100C3000050A90ED010A8DED060A90ED020A8DED90
:100C4000070A90ED030A8DED080A90ED040A8DED78
:100C5000090A90ED050A8DED0A0A008BADF82C000B
:100C60003648408BADF82E003448C0690C903348AC
:100C700090F820008DF83400142209A9684604F089
:100C800049FC05A80FC800F067F82C4800E005E013
:100C9000D0ED010A30EE200A80ED010A13B0BDEC60
:100CA000048B00BDF0B585B004460D4616461F46C0
:100CB00000208DF808008DF8090008208DF80A0042
:100CC00080010090200A8DF80B00E1B28DF80C1025
:100CD000290A8DF80D10E9B28DF80E10310A8DF841
:100CE0000F10F1B28DF81010390A8DF81110F9B209
:100CF0008DF812106946124803F054FA05B0F0BDA1
:100D000010B586B0044600208DF80C008DF80D005B
:100D100002208DF80E0040F2FF100190200A8DF89D
:100D20000F008DF8104001A9054803F03BFA06B00A
:100D300010BD0000BC000020E000002004010020E5
:100D400000640040B5EEC00AF1EE10FA03D2F1EEF5
:100D5000400AB0EE600A70470FB400B5BDF91E003E
:100D6000BDF91C10401A01EE100AB8EEC10AFFF7D7
:100D7000E9FFDFEDFE0AB4EEE00AF1EE10FA11DD54
:100D8000B8EEC10AFFF7DEFFF8EEC11AC1EE800A25
:100D9000B8EEC10ADFEDF61A00EEE10ABDEEC00AB8
:100DA000B0EE401AB8EEC10ADFEDF20A20EE200ADA
:100DB000F3EE031AC0EE210ADFEDED1A80EEA10A70
:100DC0005DF814FB9FEDEC0AEC4880ED010A9FED05
:100DD000EA0AEB4880ED010A9FEDE70AE94880ED59
:100DE000010A9FEDE50AE84880ED010A9FEDE20A5D
:100DF000E64880ED010A0120E04981F82000E04941
:100E000081F82000DF4981F82000DF4981F82000C7
:100E1000DE4981F820009FEDD80AD84880ED020A0B
:100E20009FEDD50AD64880ED020A9FEDD30AD5483A
:100E300080ED020A9FEDD00AD34880ED020A9FEDB3
:100E4000CE0A084680ED020A70479FEDD10AD148CC
:100E500080ED000A9FEDD00A80ED010A9FEDC60AE1
:100E600080ED020A9FEDCD0A80ED030A9FEDCC0ACA
:100E700080ED040A9FEDC00A80ED050A9FEDBE0AD1
:100E800080ED060A0020C349C8619FEDC10AC5482C
:100E900080ED000A9FEDC00A80ED010A9FEDB60AC1
:100EA00080ED020A9FEDBD0A80ED030A9FEDBC0AAA
:100EB00080ED040A9FEDB00A80ED050A9FEDAE0AB1
:100EC00080ED060A0020B749C8619FEDB10AB64817
:100ED00080ED000A9FEDB00A80ED010A9FEDA60AA1
:100EE00080ED020A9FEDAD0A80ED030A9FEDAC0A8A
:100EF00080ED040A9FEDA00A80ED050A9FED9E0A91
:100F000080ED060A0020A849C8619FEDA10AA74804
:100F100080ED000A9FEDA00A80ED010A9FED960A80
:100F200080ED020A9FED9D0A80ED030A9FED9C0A69
:100F300080ED040A9FED900A80ED050A9FED8E0A70
:100F400080ED060A00209949C8619FED910A9848F2
:100F500080ED000A9FED900A80ED010A9FED860A60
:100F600080ED020A9FED8D0A80ED030A9FED8C0A49
:100F700080ED040A9FED800A80ED050A9FED7E0A50
:100F800080ED060A00208A49C86170479FED890AF2
:100F9000894880ED000AB1EE040A80ED010A9FED58
:100FA000760A80ED020A9FED7D0A80ED030A9FED2F
:100FB000830A80ED040A9FED700A80ED050A9FED1B
:100FC0006E0A80ED060A00207B49C8619FED7C0A0D
:100FD000084680ED090A9FED7B0A80ED080A9FED27
:100FE000750A794880ED000AB1EE040A80ED010A25
:100FF0009FED610A80ED020A9FED680A80ED030A09
:101000009FED6E0A80ED040A9FED5B0A80ED050AF4
:101010009FED590A80ED060A00206B49C8619FEDDB
:10102000680A084680ED090A9FED660A80ED080A05
:101030009FED600A654880ED000AB1EE040A80ED7C
:10104000010A9FED4D0A80ED020A9FED540A80EDE2
:10105000030A9FED5A0A80ED040A9FED470A80EDCE
:10106000050A9FED450A80ED060A00205749C86130
:101070009FED530A084680ED090A9FED520A80ED64
:10108000080A9FED4C0A524880ED000AB1EE040AAE
:1010900080ED010A9FED380A80ED020A9FED3F0ABC
:1010A00080ED030A9FED450A80ED040A9FED320AA8
:1010B00080ED050A9FED300A80ED060A00204449C4
:1010C000C8619FED3F0A084680ED090A9FED3D0A81
:1010D00080ED080A9FED3F0A3F4880ED000AB1EE1F
:1010E000040A80ED010A9FED240A80ED020A9FEDBB
:1010F0002B0A80ED030A9FED310A80ED040A9FED73
:101100001E0A80ED050A9FED1C0A80ED060A0020EC
:101110003149C8619FED2A0A084680ED090A9FED12
:10112000290A80ED080A70479FED2C0A2C4880EDB3
:10113000000A9FED110A80ED010A9FED2A0A80ED59
:10114000020A9FED160A80ED030A9FED270A80ED43
:10115000040A9FED090A80ED050A9FED070A80ED5C
:10116000060A00201E49C86140E0000000007A45E0
:10117000000000460000B44300000000740000209E
:1011800098000020BC000020E000002004010020A6
:101190006666A63F780100208FC2F53C00007A46C3
:1011A00000806D45F001002068020020E002002070
:1011B0005803002000007A435001002000409C4565
:1011C00000007A440000C843C8010020400200200B
:1011D000B802002000005C433003002085EBD13EC4
:1011E0002801002017B7D1380000FA44B3EE040AF2
:1011F000084680ED090A9FEDFB0A80ED080A1FED05
:10120000090AF94880ED000A1FED250A80ED010A60
:101210001FED0C0A80ED020A1FED200A80ED030A83
:101220001FED0F0A80ED040A1FED2D0A80ED050A5F
:101230001FED2F0A80ED060A0020EB49C861B3EECE
:10124000040A084680ED090A9FEDE60A80ED080AC7
:101250001FED1E0AE54880ED000A1FED390A80EDFA
:10126000010A1FED200A80ED020A1FED340A80ED0D
:10127000030A1FED230A80ED040A1FED410A80EDE9
:10128000050A1FED430A80ED060A0020D749C86110
:10129000B3EE040A084680ED090A9FEDD20A80EDFC
:1012A000080A1FED320AD24880ED000A1FED4E0AEF
:1012B00080ED010A1FED350A80ED020A1FED490A93
:1012C00080ED030A1FED380A80ED040A1FED560A6F
:1012D00080ED050A1FED580A80ED060A0020C4497A
:1012E000C861B3EE040A084680ED090A9FEDBD0A05
:1012F00080ED080AB7EE000ABE4880ED000A1FED37
:10130000620A80ED010A9FEDBC0A80ED020A1FED22
:101310005D0A80ED030A1FED4C0A80ED040A1FED03
:101320006A0A80ED050A1FED6C0A80ED060A0020AE
:10133000B049C861B3EE040A084680ED090A9FED82
:10134000A90A80ED080A704700B5FFF77EFDFFF798
:101350001DFEFFF7E9FE00BD00B5B0EE403AF0EE2D
:10136000603A33EE630AB0EE401AC169012914D124
:10137000B0EE410AFFF7E6FCD0ED090AB4EEE00A50
:10138000F1EE10FA04DB90ED080A60EE011A08E0B5
:1013900090ED000A60EE011A03E090ED000A60EEA5
:1013A000011A90ED010A20EE015A90ED050A30EE87
:1013B000052A90ED040AB4EEC20AF1EE10FA04D246
:1013C00090ED040A80ED050A15E090ED040AFFEEA9
:1013D000000A20EE200AB4EEC20AF1EE10FA08DD8F
:1013E00090ED040AFFEE000A20EE200A80ED050AC7
:1013F00001E080ED052A90ED060A31EE404A90EDBD
:10140000020A60EE044A80ED061A90ED050A30EEFD
:10141000210A70EE242A90ED030AB4EEE20AF1EEFE
:1014200010FA02D890ED030A00BD90ED030AFFEE1A
:10143000000A20EE200AB4EEE20AF1EE10FA06DD10
:1014400090ED030AFFEE000A20EE200AECE7B0EE72
:10145000620AE9E710B5694890F82000012814D025
:10146000022802D0052833D11FE0644890ED011A0C
:10147000F0EE410A90ED001AB0EE410A6048FFF725
:101480006BFF5E4880ED020A00BF5C4890ED031AD6
:10149000F0EE410A90ED021AB0EE410A5948FFF70A
:1014A0005BFF564880ED040A00BF544890ED051AD2
:1014B000F0EE410A90ED041AB0EE410A5248FFF7EF
:1014C0004BFFBDEEC00A10EE100A4C49C86100E0A7
:1014D00000BF00BF4D4890F82000012814D002281A
:1014E00002D0052833D11FE0484890ED011AF0EEF4
:1014F000410A90ED001AB0EE410A3B48FFF72CFF7D
:10150000424880ED020A00BF404890ED031AF0EE19
:10151000410A90ED021AB0EE410A3D48FFF71CFF68
:101520003A4880ED040A00BF384890ED051AF0EE05
:10153000410A90ED041AB0EE410A3648FFF70CFF5D
:10154000BDEEC00A10EE100A3049C86100E000BFCD
:1015500000BF314890F82000012814D0022802D0A2
:10156000052833D11FE02C4890ED011AF0EE410A16
:1015700090ED001AB0EE410A1C48FFF7EDFE264838
:1015800080ED020A00BF244890ED031AF0EE410AF4
:1015900090ED021AB0EE410A2048FFF7DDFE1E482A
:1015A00080ED040A00BF1C4890ED051AF0EE410AD8
:1015B00090ED041AB0EE410A1948FFF7CDFEBDEEDA
:1015C000C00A10EE100A1449C86100E000BF00BF55
:1015D000144890F82000012836D0022824D005288D
:1015E00055D141E000004842A0010020180200202F
:1015F00090020020080300200AD7233C740000203A
:1016000028010020500100207801002098000020CF
:10161000C8010020F0010020BC0000204002002092
:1016200068020020E00000208D4890ED011AF0EEE5
:10163000410A90ED001AB0EE410A8A48FFF78CFE8D
:10164000874880ED020A00BF854890ED031AF0EE4E
:10165000410A90ED021AB0EE410A8348FFF77CFE82
:101660007F4880ED040A00BF7D4890ED051AF0EE3A
:10167000410A90ED041AB0EE410A7C48FFF76CFE77
:10168000BDEEC00A10EE100A7549C86100E000BF47
:1016900000BF774890F82000012814D0022802D01B
:1016A000052833D11FE0724890ED011AF0EE410A8F
:1016B00090ED001AB0EE410A6E48FFF74DFE6C48FF
:1016C00080ED020A00BF6A4890ED031AF0EE410A6D
:1016D00090ED021AB0EE410A6748FFF73DFE6448FC
:1016E00080ED040A00BF624890ED051AF0EE410A51
:1016F00090ED041AB0EE410A6048FFF72DFEBDEEF2
:10170000C00A10EE100A5A49C86100E000BF00BFCD
:10171000534CE46923B25A4CE46922B2594CE4694F
:1017200021B2594CE46920B2FFF7BCFA5049C969AB
:1017300008B2FFF7E5FA10BD10B52DED068BB0EE3F
:1017400040AAB0EE608AF0EE418AB0EE619AF0EE07
:10175000429A01204C4981F820004A4981F8200032
:10176000474981F820003E4981F82000404981F82E
:101770002000454880ED02AA424880ED028A404898
:10178000C0ED028A364880ED029A0846C0ED029A02
:10179000FFF760FEBDEC068B10BD10B52DED068B7E
:1017A000B0EE40AAB0EE608AF0EE418AB0EE619AE7
:1017B000F0EE429A0520344981F82000314981F841
:1017C00020002F4981F82000254981F82000284970
:1017D00081F820002C4880ED00AA2A4880ED008A7C
:1017E0002748C0ED008A1E4880ED009A0846C0EDEB
:1017F000009AFFF72FFEBDEC068B10BD10B52DED46
:10180000068BB0EE40AAB0EE608AF0EE418AB0EEF0
:10181000619AF0EE429A02201B4981F82000194992
:1018200081F82000164981F820000D4981F8200038
:101830000F4981F82000144880ED00AA114880ED7E
:10184000008A0F48C0ED008A054880ED009A0846DE
:10185000C0ED009AFFF7FEFDBDEC068B10BD000049
:10186000E000002090020020B8020020E0020020EA
:10187000040100200803002030030020580300204A
:10188000BC00002098000020740000201CB501213D
:10189000202001F077FF4FF4C060009001208DF808
:1018A000040000208DF8060003208DF805000120BB
:1018B0008DF807006946044801F0C6FC4FF4C0618A
:1018C000014801F03DFD1CBD001402401CB5012182
:1018D000112001F057FF1C20009000208DF804001B
:1018E00003208DF8050001208DF807006946354872
:1018F00001F0AAFC0120009002208DF80700694643
:10190000314801F0A1FC1CBD10B5044614B1012002
:101910002E4908702D480078002837D0102129481A
:1019200001F0F4FC78B10821264801F0EFFC50B139
:101930000421244801F0EAFC28B10121224801F0E9
:10194000E5FC012822D10A2000F0F0FE00201F490A
:10195000087010211B4801F0D9FC08B9012010BD06
:101960000821184801F0D2FC08B90220F7E7042149
:10197000144801F0CBFC08B90320F0E7012112481C
:1019800001F0C4FC01281BD10420E8E710210D4818
:1019900001F0BCFC012813D108210A4801F0B6FC73
:1019A00001280DD10421074801F0B0FC012807D11E
:1019B0000121054801F0AAFC10B901200349087073
:1019C0000020CCE700100240000002402800002068
:1019D00010B52DED028BB0EE408AB5EEC08AF1EE67
:1019E00010FA0ED89FED3E0A28EE000ADFED3D0A00
:1019F00080EE201A9FED3C0A30EE410AB0EE408A9C
:101A00000DE09FED3A0A28EE000A9FED361AC0EE6F
:101A1000010A9FED350A30EE800AB0EE408ABDEE35
:101A2000C80AB8EEC00AB0EE408ABCEEC80A10EE92
:101A3000101A2F4803F0B9F9BDEC028B10BD00B5A8
:101A40008BB00121082001F0E6FE0121084601F0DB
:101A500099FE02220121274801F081FC0220099011
:101A60008DF8280003208DF8290000208DF82A0029
:101A700001208DF82B0009A91E4801F0E5FB532039
:101A8000ADF818000020ADF81A0044F61F6007906A
:101A90004FF48070ADF8200006A9154802F095FFBC
:101AA0006020ADF804000120ADF806000220ADF87A
:101AB000100001A90E4803F056F808210C4803F065
:101AC000AFF901210A4802F0EBFF0121084803F0B9
:101AD00005F8B9EE040AFFF77BFF0BB000BD00006C
:101AE000004083440000B44200EC9046004083C4B0
:101AF000000C00400000024010B50121084601F032
:101B000041FE0121022001F03DFE0121042001F0EF
:101B100039FE0121082001F035FE0121102001F0DD
:101B200031FE10BD1CB50220009000208DF804008D
:101B300002208DF8050001208DF807006946FE4857
:101B400001F082FB4FF40070009000208DF804003B
:101B500002208DF8050001208DF807006946F7483E
:101B600001F072FB8020009000208DF8040002201C
:101B70008DF8050001208DF807006946EF4801F057
:101B800063FB2020009000208DF8040002208DF8D7
:101B9000050001208DF807006946E84801F054FB74
:101BA0008020009000208DF8040002208DF80500B0
:101BB00001208DF807006946E14801F045FB20202F
:101BC000009000208DF8040002208DF8050001200F
:101BD0008DF807006946DA4801F036FB08200090CE
:101BE00000208DF8040002208DF8050001208DF8FA
:101BF00007006946D24801F027FB402000900020F2
:101C00008DF8040002208DF8050001208DF80700F2
:101C10006946CC4801F018FB1020009000208DF898
:101C2000040002208DF8050001208DF807006946A8
:101C3000C54801F009FB0120009000208DF8040048
:101C400002208DF8050001208DF807006946BB4889
:101C500001F0FAFA8020009000208DF804000220A4
:101C60008DF8050001208DF807006946B24801F0A3
:101C7000EBFA4FF40070009000208DF80400022071
:101C80008DF8050001208DF807006946AA4801F08B
:101C9000DBFA4FF40060009000208DF80400022071
:101CA0008DF8050001208DF807006946A24801F073
:101CB000CBFA4FF40050009000208DF80400022071
:101CC0008DF8050001208DF8070069469A4801F05B
:101CD000BBFA1CBD10B50221974801F017FB012883
:101CE00024D14102954801F011FB01281ED1802129
:101CF000924801F00BFB012818D120218F4801F0F8
:101D000005FB012812D180218D4801F0FFFA01283E
:101D10000CD120218A4801F0F9FA012806D10821C6
:101D2000874801F0F3FA012800D110BD0020FCE73C
:101D300010B50221804801F0E9FAB0B94FF4007102
:101D40007E4801F0E3FA80B920217D4801F0DEFAF7
:101D500058B908217A4801F0D9FA30B920217748DA
:101D600001F0D4FA012800D110BD0020FCE710B525
:101D7000FFF7DEFF48B34FF400516F4801F0C6FA99
:101D800018BB4FF400616C4801F0C0FAE8B94FF499
:101D90000071694801F0BAFAB8B98021664801F0CB
:101DA000B5FA90B90121654801F0B0FA58B1102197
:101DB000654801F0ABFA012805D04021614801F0E7
:101DC000A5FA012801D1012010BD0020FCE710B5C3
:101DD000FFF7AEFF48B340215A4801F097FA20BB05
:101DE0001021594801F092FAF8B90121534801F045
:101DF0008DFAD0B98021504801F088FAA8B94FF483
:101E000000714D4801F082FA68B14FF400614A4810
:101E100001F07CFA012806D04FF40051464801F049
:101E200075FA012801D1012010BD0020FCE710B592
:101E30000221414801F06AFA012811D141033E48CC
:101E400001F064FA01280BD141023C4801F05EFA2E
:101E5000012805D1C102384801F058FA012875D08F
:101E60004FF40071354801F051FA012811D1C10237
:101E7000314801F04BFA01280BD180212F4801F0A5
:101E800045FA012805D141022B4801F03FFA01280B
:101E9000E5D08021294801F039FA012811D1410209
:101EA000254801F033FA01280BD12021234801F005
:101EB0002DFA012805D180211F4801F027FA0128B9
:101EC000CDD020211D4801F021FA012811D1802117
:101ED000194801F01BFA01280BD18021184801F0A4
:101EE00015FA012805D10121144801F00FFA012843
:101EF000B5D08021124801F009FA012811D1012141
:101F00000E4801F003FA01280BD120210C4801F002
:101F1000FDF9012805D110210B4801F0F7F901283E
:101F20009DD02021064801F0F1F901281DD1102192
:101F3000054801F0EBF90AE00010024000040240FD
:101F4000000C02400000024000080240AAE0012804
:101F50000BD10821FA4801F0D9F9012805D1402117
:101F6000F84801F0D3F9012892D00221F64801F097
:101F7000CDF9012811D14103F34801F0C7F9012837
:101F80000BD14102F14801F0C1F930B94FF40061C1
:101F9000ED4801F0BBF9002892D00221EA4801F097
:101FA000B5F9F0B94FF40051E74801F0AFF9C0B905
:101FB0004FF40071E54801F0A9F9012811D1C102DF
:101FC000E14801F0A3F901280BD18021DF4801F09D
:101FD0009DF930B94FF40071DB4801F097F9002802
:101FE0007AD04FF40071D94801F090F9D8B94FF484
:101FF0000061D54801F08AF9A8B98021D34801F0E1
:1020000085F901280FD14102CF4801F07FF901285D
:1020100009D12021CD4801F079F920B98021CA48A1
:1020200001F074F9F0B38021C54801F06FF9D8B917
:102030000121C64801F06AF9B0B92021C34801F076
:1020400065F9012810D18021BF4801F05FF901280E
:102050000AD18021BD4801F059F928B94FF4007127
:10206000B94801F053F9E8B12021B84801F04EF920
:10207000E0B98021B44801F049F9B8B98021B048ED
:1020800001F044F9012811D10121B04801F03EF9D5
:1020900001280BD12021AA4801F038F930B91021CC
:1020A000AB4800E018E001F031F9A8B12021A448C4
:1020B00001F02CF9012811D11021A54801F026F9D1
:1020C00001280BD108219E4801F020F930B94021A8
:1020D0009C4801F01BF908B9012010BD0020FCE765
:1020E00010B50221984801F011F900BB4FF40071BE
:1020F000964801F00BF9D0B98021944801F006F917
:10210000A8B92021914801F001F980B980218C48BB
:1021100001F0FCF858B92021894801F0F7F830B9EE
:102120000821874801F0F2F808B9012010BD00200D
:10213000FCE710B54021834801F0E8F810BB1021FE
:10214000834801F0E3F8E8B90121804801F0DEF8A6
:10215000C0B980217C4801F0D9F898B94FF40071DA
:10216000794801F0D3F868B94FF40061764801F07E
:10217000CDF838B94FF40051734801F0C7F808B9E9
:10218000012010BD0020FCE770B5054600240221A7
:102190006D4801F0BBF8012801D1601CC4B24FF4B6
:1021A00000716A4801F0B2F8012801D1601CC4B284
:1021B0008021664801F0AAF8012801D1601CC4B250
:1021C0002021624801F0A2F8012801D1601CC4B2AC
:1021D00080215B4801F09AF8012801D1601CC4B24B
:1021E0002021574801F092F8012801D1601CC4B2A7
:1021F0000821534801F08AF8012801D1601CC4B2BB
:10220000AC4201DB012070BD0020FCE710B50821C5
:102210004B4801F07BF818BB2021494801F076F8C3
:10222000F0B98021464801F071F8C8B9202147482B
:1022300001F06CF8A0B90221434801F067F80128C9
:102240000CD04FF40071414801F060F8012805D02E
:1022500080213E4801F05AF8012801D1012010BD2B
:102260000020FCE710B50221374801F04FF818BBF9
:102270004FF40071354801F049F8E8B9802133483E
:1022800001F044F8C0B92021304801F03FF898B976
:1022900008212B4801F03AF801280BD020212848CA
:1022A00001F034F8012805D08021254801F02EF8EE
:1022B000012801D1012010BD0020FCE710B5082144
:1022C0001F4801F023F8B0B920211D4801F01EF885
:1022D00088B902211C4801F019F860B94FF4007167
:1022E0001A4801F013F830B92021184801F00EF80F
:1022F000012800D110BD0020FCE710B59FED152A84
:10230000F3EE0E1ABBEE0E1AFBEE0E0AB3EE0E0A39
:10231000FFF712FA012000F009FA10BD10B59FED89
:102320000D2AFBEE0E1AB3EE0E1AF3EE0E0ABBEEFA
:102330000E0AFFF701FA012000F0F8F910BD0000C5
:10234000000C024000000240001002400004024065
:10235000000802400000000010B51FED022AF3EE55
:102360000E1AB3EE0E1AFBEE0E0ABBEE0E0AFFF7C4
:10237000E3F9012000F0DAF910BD10B51FED0B2ACA
:10238000FBEE0E1ABBEE0E1AF3EE0E0AB3EE0E0AB9
:10239000FFF7D2F9012000F0C9F910BD10B51FED0B
:1023A000132A5FED141A1FED151A5FED160A1FEDC3
:1023B000170AFFF7C1F9012000F0B8F910BD10B5F8
:1023C0001FED1C2AF3EE0E1AB3EE0E1AF3EE0E0AF0
:1023D000B3EE0E0AFFF7B0F9012000F0A7F910BD27
:1023E00010B51FED242AFBEE0E1ABBEE0E1AFBEE03
:1023F0000E0ABBEE0E0AFFF79FF9012000F096F9D6
:1024000010BD0020914908709149087091490870E9
:1024100091490870704710B5FFF709FD48B18D4824
:102420000078012805D100208B49087002208949D5
:10243000087088480078002839D185480078834999
:10244000087002208249087083480078F8B9082192
:10245000824800F05BFF01280AD14021804800F04B
:1024600055FF012804D17C4908707A4908701EE0A4
:10247000FFF75FFE60B10821784800F047FF0128B0
:1024800006D10220744908700120724908700EE0DC
:102490004021734800F03AFF012808D1FFF720FEE1
:1024A00028B103206C49087001206A490870694806
:1024B0000078012837D168480078012810D1202100
:1024C000684800F023FF01282DD1022061490870DF
:1024D0005F4800785D49087001205D49087022E07E
:1024E0005D48007802280DD101025E4800F00EFF21
:1024F000012818D1564800785449087004205449DE
:10250000087010E05448007803280CD1802153480B
:1025100000F0FCFE012806D14D4800784B490870B8
:1025200005204B4908704B480078022839D1FFF745
:10253000C5FE38B146480078444908700120444936
:1025400008702EE0FFF78EFE38B1414800783F4911
:10255000087002203E49087023E0FFF757FE38B1AB
:102560003B4800783949087003203949087018E061
:102570000620FFF709FE50B135480078334908704E
:102580000020334908700A203249087009E0FFF73B
:10259000A7FD30B12E4800782C49087000202C4946
:1025A00008702B48007810BBFFF79AFDF8B1294856
:1025B000007802281FD125480078022801D124493B
:1025C000087022480078032801D1214908701F486B
:1025D000007801280FD10620FFF7D6FD40B100207A
:1025E0001B490870194908700A201A49087002E04E
:1025F00001201749087016480078062816D2DFE82F
:1026000000F00C0306090F12FFF777FE12E0FFF748
:10261000A3FE0FE0FFF7B1FE0CE0FFF7BFFE09E0FD
:10262000FFF7CDFE06E0FFF7DBFE03E00A2000F037
:102630007DF800BF00BF0620FFF7A6FD18B1FFF729
:10264000ADFE012010BD0020FCE700002A000020A4
:10265000290000202B0000202C000020000C02404C
:10266000000002400004024010B504466FF0040070
:1026700000F046FDE11704EB5171C1F3C701394A7F
:1026800011701046007800EB4001C1EBC0104FF60E
:10269000FF7101EAC0003449088010BD0146314A8B
:1026A00012784A434FF0E0235A6100229A611A4699
:1026B000126942F001021A6100BF4FF0E022106976
:1026C00000F001021AB100F48032002AF5D04FF078
:1026D000E022126922F001024FF0E0231A61002289
:1026E0009A6170470146204A12884A434FF0E0231E
:1026F0005A6100229A611A46126942F001021A6177
:1027000000BF4FF0E022106900F001021AB100F49E
:102710008032002AF5D04FF0E022126922F0010247
:102720004FF0E0231A6100229A61704770B50446A9
:102730004FF4077094FBF0F0C6B24FF4077094FBAF
:10274000F0F100FB114085B205E04FF40770FFF790
:10275000C9FF701EC6B2002EF7D115B12846FFF78B
:10276000C1FF70BD2E0000203000002000BF704768
:1027700000BFFE4A128802F04002002AF9D0C2B21D
:10278000FA4B9A80704710B588B00446012108467C
:1027900000F0F8FF0121102001F04EF80722092176
:1027A000F34800F0DCFD07220A21F14800F0D7FDD4
:1027B0004FF4C060069002208DF81C008DF81D00BB
:1027C00000208DF81E0001208DF81F0006A9E848A2
:1027D00000F03AFD02940020ADF80C00ADF80E00B8
:1027E000ADF81000ADF814000C20ADF8120002A9ED
:1027F000DE4801F082F90121DC4801F006FA0122ED
:1028000040F22551D94801F0B6FA25208DF8040090
:1028100003208DF805008DF8060001208DF80700D3
:1028200001A800F020FC08B010BD10B588B0044627
:102830000121022000F0A6FF0121880400F0EBFF37
:1028400007220B21CB4800F08AFD07220A21C94844
:1028500000F085FD4FF44060069002208DF81C00CA
:102860008DF81D0000208DF81E0001208DF81F003E
:1028700006A9C04800F0E8FC02940020ADF80C0066
:10288000ADF80E00ADF81000ADF814000C20ADF856
:10289000120002A9B84801F030F90121B64801F050
:1028A000B4F9012240F22551B34801F064FA27201F
:1028B0008DF8040001208DF8050000208DF8060039
:1028C00001208DF8070001A800F0CDFB08B010BD75
:1028D00010B588B004460121084600F053FF0121DD
:1028E000480400F098FF07220321A14800F037FDBB
:1028F000072202219E4800F032FD0C2006900220A3
:102900008DF81C008DF81D0000208DF81E000120A0
:102910008DF81F0006A9964800F096FC029400204E
:10292000ADF80C00ADF80E00ADF81000ADF81400D5
:102930000C20ADF8120002A9904801F0DEF8012148
:102940008E4801F062F9012240F225518B4801F0D6
:1029500012FA26208DF8040001208DF805000020D1
:102960008DF8060001208DF8070001A800F07BFB20
:1029700008B010BD10B588B004460121042000F055
:1029800001FF0121202000F057FF082206217C488A
:1029900000F0E5FC08220721794800F0E0FCC020A7
:1029A000069002208DF81C008DF81D0000208DF887
:1029B0001E0001208DF81F0006A9714800F044FC9C
:1029C00002940020ADF80C00ADF80E00ADF8100038
:1029D000ADF814000C20ADF8120002A9694801F00E
:1029E0008CF80121674801F010F9012240F22551CD
:1029F000644801F0C0F947208DF8040001208DF8EB
:102A0000050000208DF8060001208DF8070001A8C0
:102A100000F029FB08B010BDFEB505460C460026A7
:102A2000002000900190029000BF8021524801F0E8
:102A3000C7F90028F9D057214F4801F011F900BF1C
:102A400040214D4801F0BCF90028F9D000BF802199
:102A5000494801F0B5F90028F9D02946464801F067
:102A6000FFF800BF4021444801F0AAF90028F9D03E
:102A70000F20FFF75BFE45E043480088752802D031
:102A80000020424908704148007808282FD10020D2
:102A90003E4908703C48C089072827D13A484088F9
:102AA00000900098000200903749898800980843F8
:102AB0000090009820603448C0880190019800027E
:102AC000019031490989019808430190019860609B
:102AD0002D48408902900298000202902A49898973
:102AE0000298084302900298A0600CE00BE00120DD
:102AF000FFF71CFE701CC6B20A2E03D1002023492A
:102B0000087000E0B8E700BFFEBDFEB505460C4604
:102B10000026002000900190029000BF80211748FD
:102B200001F04EF90028F9D05721144801F098F827
:102B300000BF4021114801F043F90028F9D000BF3F
:102B400080210E4801F03CF90028F9D029460B48B5
:102B500001F086F800BF4021084801F031F9002853
:102B6000F9D00F20FFF7E2FD58E00000001001400F
:102B700000000240000402400048004000440040C1
:102B80000008024000140140480400203A000020E0
:102B9000FC480088752802D00020FB490870FA48DC
:102BA000007808282FD10020F7490870F548C0891F
:102BB000072827D1F3484088009000980002009031
:102BC000F049898800980843009000982060ED48FB
:102BD000C0880190019800020190EA490989019892
:102BE0000843019001986060E6484089029002988D
:102BF00000020290E34989890298084302900298F2
:102C0000A0600CE00BE00120FFF790FD701CC6B245
:102C10000A2E03D10020DC49087000E0B8E700BFAD
:102C2000FEBDFEB505460C46002600200090019032
:102C3000029000BF8021D54801F0C2F80028F9D0E9
:102C40005721D24801F00CF800BF4021CF4801F0D5
:102C5000B7F80028F9D000BF8021CC4801F0B0F8C7
:102C60000028F9D02946C94800F0FAFF00BF4021EA
:102C7000C64801F0A5F80028F9D00F20FFF756FD4F
:102C800045E0C3480088752802D00020C14908707B
:102C9000C048007808282FD10020BE490870BC48E1
:102CA000C089072827D1BA484088009000980002C0
:102CB0000090B749898800980843009000982060E8
:102CC000B348C0880190019800020190B049098979
:102CD00001980843019001986060AD4840890290D6
:102CE000029800020290AA4989890298084302903A
:102CF0000298A0600CE00BE00120FFF717FD701CAC
:102D0000C6B20A2E03D10020A249087000E0B8E73D
:102D100000BFFEBD70B504460E46154600BF8021BB
:102D20009D4801F04DF80028F9D04C219A4800F058
:102D300097FF00BF4021984801F042F80028F9D0E1
:102D400000BF8021944801F03BF80028F9D02146CB
:102D5000914800F085FF00BF40218F4801F030F816
:102D60000028F9D000BF80218B4801F029F8002805
:102D7000F9D03146884800F073FF00BF40218648F3
:102D800001F01EF80028F9D000BF8021824801F030
:102D900017F80028F9D029467F4800F061FF00BFEE
:102DA00040217D4801F00CF80028F9D070BD70B5C5
:102DB00004460E46154600BF8021784801F000F811
:102DC0000028F9D04C21754800F04AFF00BF40218F
:102DD000724800F0F5FF0028F9D000BF80216F484D
:102DE00000F0EEFF0028F9D021466C4800F038FFD3
:102DF00000BF4021694800F0E3FF0028F9D000BF80
:102E00008021664800F0DCFF0028F9D03146634895
:102E100000F026FF00BF4021604800F0D1FF0028ED
:102E2000F9D000BF80215D4800F0CAFF0028F9D02A
:102E300029465A4800F014FF00BF4021574800F0CF
:102E4000BFFF0028F9D070BD70B504460E46154688
:102E500000BF80214D4800F0B3FF0028F9D04C217D
:102E60004A4800F0FDFE00BF4021484800F0A8FF9E
:102E70000028F9D000BF8021444800F0A1FF0028BD
:102E8000F9D02146414800F0EBFE00BF40213F4809
:102E900000F096FF0028F9D000BF80213B4800F0E9
:102EA0008FFF0028F9D03146384800F0D9FE00BF26
:102EB0004021364800F084FF0028F9D000BF80216F
:102EC000324800F07DFF0028F9D029462F4800F055
:102ED000C7FE00BF40212D4800F072FF0028F9D046
:102EE00070BD10B540F225512D4800F07FFF10B3A2
:102EF0002B4800F0B9FEC4B22A48008800F4004014
:102F0000C8B92848008800F4804060B10A2C03D07A
:102F100000202449088020E02248008840F4004036
:102F20002049088019E00D2C06D11E48008840F485
:102F300080401C49088010E01A480088C0F30D004A
:102F400019490C5417480088401C16490880084647
:102F50000088C72801DD0020088010BD10B540F2B0
:102F600025510D4800F042FF58B10B4800F07CFE9F
:102F70000E490A780978491C0C4B19700C4921F844
:102F8000120010BD680400203B0000200014014026
:102F9000880400203C00002000480040004400401D
:102FA0000010014038000020800300203A0000207B
:102FB0004804002010B540F22551124800F016FFD9
:102FC00058B1104800F050FE0F490A780978491CA2
:102FD0000D4B19700D4921F8120010BD10B540F2CB
:102FE00025510B4800F002FF58B1094800F03CFEA3
:102FF00008490A780978491C064B1970064921F8D6
:10300000120010BD004400403B0000206804002076
:10301000001401403C00002088040020094880473B
:1030200009480047FEE7FEE7FEE7FEE7FEE7FEE7AA
:10303000FEE7FEE7FEE7FEE704480549054A064BC2
:1030400070470000AD040008890100080805002051
:10305000080B002008070020080700203249014320
:10306000324A1160704770B5002100230F22C478E6
:103070001CB32E4C246804F4E064C4F5E064C4F38B
:103080000721C1F10404E3B20A4144789C40E1B253
:103090008478144021430C07210E254C0578615596
:1030A000047804F01F050124AC4005786D11AD00D3
:1030B00005F1E025C5F8004109E0047804F01F059A
:1030C0000124AC401B4D0678761145F8264070BDB2
:1030D000194A0A400243154B1B1F1A60704739B149
:1030E000124A121D12680243104B1B1D1A6006E0A3
:1030F0000E4A121D126882430C4B1B1D1A6070474A
:10310000042808D14FF0E021096941F004014FF093
:10311000E022116107E04FF0E021096921F004018C
:103120004FF0E022116170470000FA050CED00E05D
:1031300000E400E080E100E080FFFF1F10B50446DE
:103140009848844208D10121084600F086FB0021FE
:10315000012000F082FB76E09348844208D10121EF
:10316000022000F07AFB0021022000F076FB6AE0EA
:103170008E48844208D10121042000F06EFB00211A
:10318000042000F06AFB5EE08948844208D10121F6
:10319000082000F062FB0021082000F05EFB52E0F6
:1031A0008448844208D10121102000F056FB002100
:1031B000102000F052FB46E07F48844208D10121F4
:1031C000202000F04AFB0021202000F046FB3AE0DE
:1031D0007A48844208D10121402000F03EFB0021C2
:1031E000402000F03AFB2EE07548844208D10121CE
:1031F000802000F032FB0021802000F02EFB22E036
:103200007048844208D10121801500F026FB00217E
:10321000A01500F022FB16E06B48844208D1012182
:10322000401500F01AFB0021601500F016FB0AE0C3
:103230006648844207D10121001500F00EFB0021F1
:10324000201500F00AFB10BDF0B50A46002100234E
:10325000002400BF3DE0012505FA01F3156805EAE9
:1032600003049C4234D105684F000326BE40B54399
:10327000056015794E00B54006683543056015793F
:10328000012D02D01579022D16D185684F00032635
:10329000BE40B543856055794E00B54086683543DC
:1032A0008560456801268E40B5434560456896793E
:1032B0008E40B6B235434560C5684F000326BE4018
:1032C000B543C560D5794E00B540C6683543C56085
:1032D000491C1029BFD3F0BD4FF6FF7101600021DA
:1032E000017141718171C171704708B54FF480322D
:1032F0000092009A0A430092009AC261C161009A4A
:10330000C261C2690092C269009208BD02460020F3
:1033100013690B400BB1012000E00020704701460B
:10332000086980B270470246002053690B400BB118
:10333000012000E0002070470146486980B27047D4
:1033400001837047418370470AB1018300E04183E4
:1033500070474161704742694A4042617047F0B529
:10336000002300244D07ED0E02FA05F3CE1000F104
:10337000200555F826504E07F70E0F26BE40B543E0
:10338000CF1000F1200646F82750CE1000F120059E
:1033900055F8265045EA0304CE1000F1200545F803
:1033A0002640F0BD00000240000402400008024038
:1033B000000C0240001002400014024000180240BD
:1033C000001C02400020024000240240002802406D
:1033D000F948006840F00100F74908600020F6490C
:1033E00008310860F4480068F4490840F249086070
:1033F000F348091D0860F348EF4984310860F0483C
:103400001038091D0860EC48006820F48020EA4963
:1034100008600020E8490C310860E7498C310860F9
:1034200070470021E44A921C1170114608707047E1
:1034300010B501460022002300204A11012A02D1C2
:10344000DD4C236808E0022A03D1DB4C703423688A
:1034500002E0D94C7434236801F01F020124944027
:103460001C400CB1012000E0002010BD38B5002048
:1034700000900024002500BF3120FFF7D9FF05464A
:103480000098401C00900098B0F5A04F01D0002D8E
:10349000F2D03120FFF7CCFF08B1012400E0002476
:1034A000204638BD01460020C34A106820F0F800CD
:1034B00040EAC10010607047C349086070470021AE
:1034C000BD4A703211701170012802D004280AD14F
:1034D00004E00121B84A7032117005E00521B64AB6
:1034E0007032117000E000BF00BF7047B74908603C
:1034F000704770B5049C41EA82150126C6EB53065D
:1035000045EA0645054345EA0465AB4E361D356080
:1035100070BDAD4908667047820142EA0172A64B50
:1035200084331A607047A8498866704710B58301D4
:1035300043EA016343EA02739F4C8834236010BD61
:10354000A14908677047A049C86470470246002037
:10355000994B0833186820F0EC6042EA01031843E5
:10356000954B08331860704702460020924B083391
:10357000186820F0784042EA010318438E4B083364
:1035800018607047014600208B4A0832106820F00E
:10359000030008431060704787480830006800F057
:1035A0000C00704701460020834A0832106820F062
:1035B000F000084310607047014600207E4A083240
:1035C000106820F4E0500843106070470146002066
:1035D000794A0832106820F4604040EAC100106067
:1035E0007047F0B5002100220024022500260223A6
:1035F000714F08373F6807F00C0121B1042905D04D
:10360000082937D105E0724F076036E0714F076037
:1036100033E0694F3F1D3F68C7F38056664F3F1D3B
:103620003F6807F03F036EB16A4FB7FBF3F7DFF86F
:1036300088C10CF1040CDCF800C0CCF3881C07FB3B
:103640000CF40CE0624FB7FBF3F7DFF86CC10CF140
:10365000040CDCF800C0CCF3881C07FB0CF4564FBC
:103660003F1D3F68C7F301477F1C7D00B4FBF5F7A2
:10367000076002E0564F076000BF00BF4E4F08379B
:103680003F6807F0F0010909534F7A5C0768D7409B
:103690004760494F08373F6807F4E051890A4E4FA9
:1036A0007A5C4768D7408760434F08373F6807F424
:1036B0006041490B484F7A5C4768D740C760F0BD0E
:1036C000002100F44072B2F5407F0AD13A4A083234
:1036D000116821F4F811414A02401143364A083278
:1036E0001160354A70321268C0F30B031A43324B33
:1036F00070331A6070473549443908607047334960
:10370000403908607047364908607047014600201C
:10371000294A8C32106820F01F004A1E1043264AA6
:103720008C321060704701460020234A8C321068AA
:1037300020F4F8504A1E40EA02201F4A8C321060E2
:103740007047014600201C4A8C32106820F440105B
:1037500008431060704701460020174A8C321068F9
:1037600020F4400008431060704701460020124AD0
:103770008C32106820F440300843106070471949BB
:103780000860704739B10C4A3032126802430A4B64
:1037900030331A6006E0084A303212688243064B22
:1037A00030331A607047F9B1034A34321268024369
:1037B000014B34331A601CE000380240FFFFF6EA88
:1037C000103000240030002000004742800E4742A5
:1037D0000024F40000127A003D000020FFFCFF0FDF
:1037E0005C014742E01147428F4A126882438E4B88
:1037F0001A60704739B18C4A121D126802438A4B15
:103800001B1D1A6006E0884A121D12688243864B0F
:103810001B1D1A60704739B1834A0C32126802438B
:10382000814B0C331A6006E07F4A0C3212688243E7
:103830007D4B0C331A60704739B17B4A10321268E5
:103840000243794B10331A6006E0774A103212684F
:103850008243754B10331A60704739B1724A243A6B
:1038600012680243704B243B1A6006E06E4A243A09
:10387000126882436C4B243B1A60704739B16A4A24
:10388000203A12680243684B203B1A6006E0664A01
:10389000203A12688243644B203B1A60704739B16A
:1038A000614A1C3A126802435F4B1C3B1A6006E0F7
:1038B0005D4A1C3A126882435B4B1C3B1A6070479E
:1038C00039B1594A143A12680243574B143B1A60F3
:1038D00006E0554A143A12688243534B143B1A606F
:1038E000704739B1504A103A126802434E4B103BB0
:1038F0001A6006E04C4A103A126882434A4B103B69
:103900001A60704739B1484A1C3212680243464B6C
:103910001C331A6006E0444A1C3212688243424B50
:103920001C331A60704739B13F4A20321268024393
:103930003D4B20331A6006E03B4A20321268824336
:10394000394B20331A60704739B1374A2432126834
:103950000243354B24331A6006E0334A243212689E
:103960008243314B24331A60704739B12E4A2C32CE
:10397000126802432C4B2C331A6006E02A4A2C3280
:1039800012688243284B2C331A60704739B1264A9B
:10399000303212680243244B30331A6006E0224A68
:1039A000303212688243204B30331A60704701284E
:1039B00008D11D493C31096841F008011A4A3C32DE
:1039C000116007E018493C31096821F00801164AE6
:1039D0003C321160704739B1134A273A12780243DA
:1039E000114B273B1A7006E00F4A273A12788243A0
:1039F0000D4B273B1A7070470B484030006840F071
:103A00008070094940310860704701460020064A2D
:103A1000283A12680A400AB1012000E000207047ED
:103A200001492639087070473438024010B5044601
:103A3000FA48844208D101211020FFF752FF0021EB
:103A40001020FFF74EFF57E0F548844209D10121CD
:103A50004804FFF735FF00214FF40030FFF730FF37
:103A60004AE0F048844209D101218804FFF728FF89
:103A700000214FF48020FFF723FF3DE0EA48844215
:103A800009D10121C804FFF71BFF00214FF40020DA
:103A9000FFF716FF30E0E548844209D1012108050F
:103AA000FFF70EFF00214FF48010FFF709FF23E01E
:103AB000DF48844208D101212020FFF712FF0021B6
:103AC0002020FFF70EFF17E0DA48844209D10121D8
:103AD0008807FFF7F5FE00214FF08040FFF7F0FE6A
:103AE0000AE0D548844207D101214005FFF7E8FEEE
:103AF00000216005FFF7E4FE10BD2DE9FF470546F4
:103B00000E460024A14600BFA046B08900B100BF08
:103B10002C8A24F44054F08804432C82AC8941F26E
:103B20000C608443B0883189084371890843044399
:103B3000AC81AC8A24F44074B0890443AC826846FA
:103B4000FFF74FFDB548854202D0B948854202D102
:103B5000DDF80C9001E0DDF80890A88900F4004041
:103B600040B109EBC90000EB091031684900B0FB16
:103B7000F1F707E009EBC90000EB09103168890093
:103B8000B0FBF1F76420B7FBF0F0040120096421D9
:103B900001FB1078A88900F4004040B1322000EB0E
:103BA000C800B0FBF1F000F00700044308E0322049
:103BB00000EB08106421B0FBF1F000F00F000443AB
:103BC0002C81BDE8FF874FF41651016000218180F0
:103BD000C18001810C21418100218181704710B594
:103BE00002460020108A20F470600B884C88234322
:103BF0008C882343CC8823431843108210BD0021B6
:103C0000018041808180C180704721B1828942F466
:103C10000052828104E082894DF6FF731A4082814E
:103C20007047028B02F47F420283028B0A430283B5
:103C3000704721B1828942F40042828103E0828987
:103C4000C2F30E028281704721B1828A42F400627F
:103C5000828204E0828A4FF2FF731A4082827047A8
:103C6000C1F308028280704701468888C0F30800CB
:103C70007047028A4FF6F0731A400282028A0A43A2
:103C80000282704721B1828942F00202828104E0FF
:103C900082894FF6FD731A408281704782894FF204
:103CA000FF731A40828182890A4382817047028AA7
:103CB0004FF6DF731A400282028A0A43028270477B
:103CC00021B1028A42F48042028204E0028A4BF669
:103CD000FF731A4002827047818941F0010181819E
:103CE000704721B1828A42F00802828204E0828A0F
:103CF0004FF6F7731A4082827047028BD2B202836A
:103D0000028B42EA01220283704721B1828A42F08B
:103D10002002828204E0828A4FF6DF731A40828298
:103D2000704721B1828A42F01002828204E0828AC6
:103D30004FF6EF731A4082827047828A4FF6FB7308
:103D40001A408282828A0A438282704721B1828A23
:103D500042F00202828204E0828A4FF6FD731A402A
:103D6000828270471AB1838A0B43838202E0838A7E
:103D70008B4383827047F0B503460024002600255C
:103D8000002040F66A17B94200D100BF1846C1F3BF
:103D9000421401F01F06012707FA06F5012C01D194
:103DA0000C3004E0022C01D1103000E014301AB1C4
:103DB00007682F43076002E00768AF430760F0BD64
:103DC00002460020B1F5007F00D100BF13880B40F0
:103DD0000BB1012000E00020704701F40072B2F541
:103DE000007F00D100BFCA430280704770B5024611
:103DF000002400230025002040F66A16B14200D1BD
:103E000000BFC1F3421501F01F03012606FA03F3B8
:103E1000012D13D19689334017E0000000100140B6
:103E20000044004000480040004C0040005000406A
:103E30000014014000780040007C0040022D02D1B7
:103E4000168A334001E0968A33400C12012606FAA6
:103E500004F41688344013B10CB1012000E00020B6
:103E600070BD10B50022002340F66A14A14200D1B3
:103E700000BF0A1201249440A3B2DC43048010BDA9
:103E800010B50446FE48844209D101214806FFF7D7
:103E900017FD00214FF00070FFF712FD08E001212F
:103EA0008806FFF70DFD00214FF08060FFF708FD49
:103EB00010BD30B5024600200023146824F002042F
:103EC0001460146844F00104146000E05B1C546842
:103ED00004F001041CB94FF6FF74A342F6D15468F4
:103EE00004F001040CB900206CE08C79012C04D1A1
:103EF000146844F08004146003E0146824F0800423
:103F00001460CC79012C04D1146844F0400414608E
:103F100003E0146824F0400414600C7A012C04D1EE
:103F2000146844F02004146003E0146824F02004B2
:103F300014604C7A012C04D1146844F0100414600D
:103F400003E0146824F0100414608C7A012C04D16E
:103F5000146844F00804146003E0146824F00804B2
:103F60001460CC7A012C04D1146844F00404146069
:103F700003E0146824F0040414608C78A407CD785E
:103F800044EA05640D7944EA05444D7944EA055450
:103F90000D886D1E2C43D461146824F00104146054
:103FA000002300E05B1C546804F001041CB14FF6D0
:103FB000FF74A342F6D1546804F001040CB1002050
:103FC00000E0012030BD10B50021837A012202FA01
:103FD00003F1AC4A126842F00102AA4B1A60A94AE6
:103FE0001C3212688A43A74B1C331A60027BCAB981
:103FF000A44A0C3212688A43A24B0C331A604288DE
:10400000C38842EA03439F4A4032847A42F83430FC
:104010000288838842EA03439A4A4032847A02EB58
:10402000C4025360027B012A19D1964A0C321268ED
:104030000A43944B0C331A604288038842EA0343D4
:10404000904A4032847A42F83430C288838842EA07
:1040500003438C4A4032847A02EBC4025360C27A32
:104060003AB9884A121D12688A43864B1B1D1A6092
:1040700006E0844A121D12680A43824B1B1D1A6017
:10408000028932B97F4A143212688A437D4B143355
:104090001A600289012A06D17A4A143212680A4348
:1040A000784B14331A60427B012A06D1754A1C32C0
:1040B00012680A43734B1C331A60724A126822F06A
:1040C0000102704B1A6010BD00218171C171017233
:1040D00041728172C1728170C1700321017102212C
:1040E00041710121018070476649096841F0010171
:1040F000644A11601146096843F60E729143614AA1
:1041000011601146096841EA0021116011460968F1
:1041100021F001011160704721B1026842F4803240
:10412000026003E0026822F4803202607047E1B16D
:10413000026842F0800202604FF4C272125842F4E8
:1041400080734FF4C27213504FF4CA72125842F483
:1041500080734FF4CA7213504FF4D272125842F463
:1041600080734FF4D27213501BE0026822F0800279
:1041700002604FF4C272125822F480734FF4C2727C
:1041800013504FF4CA72125822F480734FF4CA725B
:1041900013504FF4D272125822F480734FF4D2723B
:1041A0001350704710B502460020936803F08063F7
:1041B000B3F1806F00D110E0936803F00063B3F1B6
:1041C000006F01D1012008E0936803F08053B3F140
:1041D000805F01D1022000E00420042879D002F59C
:1041E000C07303EB00131B6803F0010402F5C073F6
:1041F00003EB00131C600B7A7BB94B7A0C8843EA03
:10420000445302F5C07404EB00142468234302F500
:10421000C07404EB0014236010E00B7A4C6843EA8E
:10422000C4034C7A234302F5C07404EB00142468E1
:10423000234302F5C07404EB001423608B7A03F06F
:104240000F038B7202F5C07303EB00135B6823F05E
:104250000F0402F5C07303EB00135C6002F5C0733A
:1042600003EB00135B688C7A234302F5C07404EB04
:10427000001463608B7B1C064B7B44EA034403E021
:1042800000640040006600400B7B44EA0323CC7AC4
:10429000234302F5C07404EB0014A3608B7C1C065E
:1042A0004B7C44EA03440B7C44EA0323CC7B23434A
:1042B00002F5C07404EB0014E36002F5C07303EB75
:1042C00000131B6843F0010402F5C07303EB0013F5
:1042D0001C6010BD10B50246002321B1012907D092
:1042E00002290FD109E09068F94C00EA04030BE0C1
:1042F0009068F84C00EA040306E09068F64C00EA87
:10430000040301E0002300BF00BFF44C181BA342CC
:1043100016D007DC83B16FF08060184470B10228BA
:1043200018D111E0B0F5007F10D0ED4C204448B119
:10433000B0F5003F0ED10BE002230DE000230BE0AF
:10434000002309E0002307E0012305E0012303E047
:10435000012301E0002300BF00BFD8B210BD21B18E
:10436000012907D002290FD109E0826842F08002BA
:1043700082600AE0826842F40042826005E082685E
:1043800042F40002826000E000BF00BF704710B539
:1043900000F5D87303EB01131B6803F004031372D9
:1043A000137A53B900F5D87303EB01131B6840F27D
:1043B000FF7404EA5353136009E000F5D87303EB6C
:1043C00001131B686FF0604404EAD303536000F5E7
:1043D000D87303EB01131B6803F00203537200F55B
:1043E000D87303EB01135B6803F00F03937200F5BE
:1043F000D87303EB01135B681B0AD37400F5D87301
:1044000003EB01139B68D37200F5D87303EB011320
:104410009B681C0A147300F5D87303EB01139B68A7
:104420001C0C547300F5D87303EB01139B681B0E2F
:10443000937300F5D87303EB0113DB68D37300F5B6
:10444000D87303EB0113DB681C0A147400F5D873EE
:1044500003EB0113DB681C0C547400F5D87303EBF9
:104460000113DB681B0E937421B9C36843F020036A
:10447000C36003E0036943F02003036110BD21B969
:10448000C26842F02002C26003E0026942F02002EA
:10449000026170470246002019B9D36803F0030097
:1044A00006E0012903D1136903F0030000E00020B6
:1044B000704710B502460B4600204FF6FF71BBB99E
:1044C000146824F0020444F00104146000E0491E62
:1044D000546804F00304012C01D00029F7D154687A
:1044E00004F00304012C01D0002032E0012030E070
:1044F000012B13D1146824F00304146000E0491E5A
:10450000546804F003040CB10029F8D1546804F095
:1045100003040CB100201CE001201AE0022B17D18B
:10452000146824F0010444F00204146000E0491E01
:10453000546804F00304022C01D00029F7D1546818
:1045400004F00304022C01D0002002E0012000E06E
:10455000002010BD014600200A6822F0010242F04E
:1045600002020A604A6802F00302022A00D1012016
:10457000704701464FF6FF7200200B6823F00203DC
:104580000B6000E0521E4B6803F00203022B01D1C6
:10459000002AF7D14B6803F00203022B00D0012060
:1045A0007047014600208A6902F07000704701469A
:1045B00000208A69100E7047014600208A69C2F304
:1045C000074070471AB143690B43436102E04369F6
:1045D0008B434361704710B50246002001F470031D
:1045E00043B19369C1F3130423400BB101202DE0C3
:1045F00000202BE001F0807343B15368C1F3130432
:1046000023400BB1012021E000201FE001F00063F6
:1046100043B19368C1F3130423400BB1012015E0AB
:10462000002013E001F0007343B1D368C1F3130419
:1046300023400BB1012009E0002007E01369C1F31A
:10464000130423400BB1012000E0002010BD002224
:10465000244B994202D10023836111E0C1F313027C
:1046600001F000730BB1C2600AE001F080630BB18E
:10467000026105E001F000630BB1826000E042607E
:1046800070470246002002EA01030BB1012000E05E
:104690000020704770B504460D460026606928402A
:1046A000002872D0B5F5807F69D01DDC082D42D07E
:1046B00006DC012D2DD0022D31D0042D7FD134E028
:1046C000102D3ED0202D42D0402D78D145E0000065
:1046D00003000004000300080000031000010008AC
:1046E0000001FFF77000F030B5F5004F61D009DC34
:1046F000B5F5007F4AD0B5F5806F4DD0B5F5006FA8
:104700005DD150E0B5F5803F2DD0B5F5003F56D1D5
:104710002FE0A0685549FFF7B4FF064651E0E06876
:104720000321FFF7AEFF06464BE0E0680821FFF7E4
:10473000A8FF064645E0E0681021FFF7A2FF064605
:104740003FE020690321FFF79CFF064639E020691E
:104750000821FFF796FF064633E020691021FFF796
:1047600090FF06462DE060680821FFF78AFF0646A5
:1047700027E060681021FFF784FF064621E0A0696A
:104780000121FFF77EFF06461BE01BE0A069022126
:10479000FFF777FF064614E0A0690421FFF771FFD9
:1047A00006460EE00BE0A0697021FFF76AFF06469F
:1047B00007E060680421FFF764FF064601E0002679
:1047C00000BF00E00026304670BDB1F5007F3AD052
:1047D0000FDC202928D006DC01291CD004291DD09B
:1047E000082940D11DE0402921D0B1F5807F3AD180
:1047F00026E0B1F5004F31D006DCB1F5806F25D051
:10480000B1F5006F2FD124E0B1F5803F12D0B1F5A2
:10481000003F28D111E0154A826025E00822C260DD
:1048200022E01022C2601FE0082202611CE0102278
:10483000026119E00822426016E01022426013E093
:104840000422426010E0042242600DE00422426033
:104850000AE0002282610422426005E000228261B7
:104860000422426000E000BF00BF70470101010068
:1048700010B50446FE48844208D101210846FFF7DE
:1048800030F800210120FFF72CF89DE0B4F1804FB3
:1048900008D101210846FFF713F800210120FFF796
:1048A0000FF891E0F348844208D101210220FFF77C
:1048B00007F800210220FFF703F885E0EE48844264
:1048C00008D101210420FEF7FBFF00210420FEF7A0
:1048D000F7FF79E0E948844208D101210820FEF77A
:1048E000EFFF00210820FEF7EBFF6DE0E448844273
:1048F00008D101211020FEF7E3FF00211020FEF770
:10490000DFFF61E0DF48844208D101212020FEF76B
:10491000D7FF00212020FEF7D3FF55E0DA4884427C
:1049200008D101210220FEF7DCFF00210220FEF762
:10493000D8FF49E0D548844209D101210804FEF797
:10494000D0FF00214FF48030FEF7CBFF3CE0D04891
:10495000844209D101214804FEF7C3FF00214FF42E
:104960000030FEF7BEFF2FE0CA48844209D1012182
:104970008804FEF7B6FF00214FF48020FEF7B1FF58
:1049800022E0C548844208D101214020FEF798FF6B
:1049900000214020FEF794FF16E0C048844208D171
:1049A00001218020FEF78CFF00218020FEF788FF88
:1049B0000AE0BB48844207D101218015FEF780FF41
:1049C0000021A015FEF77CFF10BD00220288A84B35
:1049D00098420ED0AC4B98420BD0B0F1804F08D02B
:1049E000A44B984205D0A44B984202D0A34B9842C6
:1049F00004D14FF68F731A404B881A43A04B98424C
:104A000007D0A04B984204D04FF6FF431A400B89C1
:104A10001A4302804B68C3620B880385944B98420B
:104A200002D0994B984201D18B7A0386012383826D
:104A300070474FF0FF3141600021018001814180CA
:104A4000817270470185828270470A460021018881
:104A50004FF68F73194011430180704741627047D0
:104A6000C16270470146486A70470146088D704729
:104A700021B1028842F00202028004E002884FF66F
:104A8000FD731A400280704721B1028842F004028F
:104A9000028004E002884FF6FB731A4002807047E0
:104AA00021B1028842F08002028004E002884FF6C1
:104AB0007F731A400280704702884FF6F7731A40DE
:104AC000028002880A430280704702884FF6FF4343
:104AD0001A40028002880A430280704721B102888E
:104AE00042F00102028004E002884FF6FE731A4091
:104AF0000280704770B5002400220023058C4FF619
:104B0000FE7635400584028C8388048B4FF68F75C2
:104B10002C40B51E2C400D882C43751E2A408D89D3
:104B20002A434D882A43524DA84202D0564DA842EE
:104B300013D14FF6F7752A40CD892A434FF6FB75FE
:104B40002A408D882A434FF6FF652B404FF6FF55CC
:104B50002B400D8A2B434D8A2B43838004838D6821
:104B60004563028470BD70B5002400220023058CCB
:104B70004FF6EF7635400584028C8388048B48F627
:104B8000FF752C404FF6FF452C400D884FF6FF7601
:104B900006EA05252C434FF6DF752A408D8906EA83
:104BA00005152A434D8806EA05152A43304DA842CB
:104BB00002D0354DA8421DD14FF67F752A40CD89D0
:104BC0004FF6FF7606EA05152A434FF6BF752A40D1
:104BD0008D8806EA05152A434FF6FF352B404FF224
:104BE000FF752B400D8A06EA85052B434D8A06EAA0
:104BF00085052B43838004838D688563028470BDA3
:104C000070B5002400220023058C4FF6FF66354066
:104C10000584028C8388848B4FF68F752C404FF669
:104C2000FC752C400D882C434FF6FF552A408D898A
:104C30004FF6FF7606EA05252A434D8806EA052544
:104C40002A430B4DA84202D00F4DA84238D14FF253
:104C5000FF752A40CD894FF6FF7606EA05252A43DF
:104C60004FF6FF352A408D8806EA05252A4319E0CC
:104C7000000001400004004000080040000C00401B
:104C800000100040001400400004014000400140BA
:104C9000004401400048014000180040001C004052
:104CA000002000404EF6FF752B404DF6FF752B405F
:104CB0000D8A06EA05152B434D8A06EA05152B4396
:104CC000838084838D68C563028470BD70B50022C3
:104CD00000230024058C4EF6FF7635400584038CB6
:104CE0008488828B48F6FF752A404FF6FF452A409C
:104CF0000D884FF6FF7606EA05252A434DF6FF7527
:104D00002B408D8906EA05352B434D8806EA05358B
:104D10002B43FE4DA84202D0FD4DA84208D14BF6D0
:104D2000FF752C400D8A4FF6FF7606EA85152C4359
:104D3000848082838D680564038470BD00210180B6
:104D40004180818081608181C1810182418270477F
:104D500070B50346002000241846183001258D4008
:104D6000ACB21D8CA5431D8409B108290AD100EB02
:104D7000610005684FF68F7635400560056815437C
:104D800005600FE00D1FC5F34E052844056848F681
:104D9000FF763540056005684FF6FF7606EA022685
:104DA0003543056070BD4163704781637047C163DF
:104DB0007047016470470A460021018B4FF68F73DC
:104DC00019401143018370470A460021018B48F6C0
:104DD000FF7319404FF6FF7303EA0223194301835F
:104DE00070470A460021818B4FF68F73194011439B
:104DF000818370470A460021818B48F6FF73194072
:104E00004FF6FF7303EA02231943818370470A4672
:104E10000021018B4FF6F77319401143018370474E
:104E20000A460021018B4FF2FF7319404FF6FF73C2
:104E300003EA02231943018370470A460021818B4C
:104E40004FF6F77319401143818370470A460021DA
:104E5000818B4FF2FF7319404FF6FF7303EA022371
:104E60001943818370470A460021018B4FF6FB737B
:104E700019401143018370470A460021018B4FF608
:104E8000FF3319404FF6FF7303EA022319430183EE
:104E900070470A460021818B4FF6FB73194011437E
:104EA000818370470A460021818B4FF6FF331940FA
:104EB0004FF6FF7303EA02231943818370470A46C2
:104EC0000021018B4FF67F73194011430183704716
:104ED0000A460021018BC1F30E014FF6FF7303EA6E
:104EE00002231943018370470A460021818B4FF644
:104EF0007F7319401143818370470A460021818BDB
:104F0000C1F30E014FF6FF7303EA022319438183B5
:104F100070470A460021018C4FF6FD73194011437A
:104F2000018470470A460021018C4FF6F77319403F
:104F30001143018470470A460021018C4FF6DF734C
:104F400019404FF6FF7303EA0213194301847047B7
:104F50000A460021018C4FF67F7319404FF6FF730C
:104F600003EA02131943018470470A460021018CA9
:104F70004FF6FF5319404FF6FF7303EA022319431C
:104F8000018470470A460021018C4FF2FF731940DB
:104F90004FF6FF7303EA02231943018470470A4660
:104FA0000021018C4DF6FF7319404FF6FF7303EAA1
:104FB000023319430184704730B5002301248C402B
:104FC000A3B2048C9C430484048C02FA01F5ADB2B4
:104FD0002C43048430BD30B5002304248C40A3B29C
:104FE000048C9C430484048C02FA01F5ADB22C437A
:104FF000048430BD828B4FF2FF331A408283828B50
:105000004FF6FF7303EA01231A4382837047F0B51A
:105010000C461546002100220026078C4EF6FF7C28
:1050200007EA0C070784818B028C4FF6FF7707EAAB
:10503000043640F6FF4739404FF6FF7707EA052769
:1050400039434FF6FF7707EA0337394345F6FF77D1
:105050003A4046F480573A4381830284F0BD828B04
:105060004FF6F3731A408283828B0A438283704720
:10507000F0B50C461546002100220026078C4FF69D
:10508000FF6C07EA0C070784818B028C4FF6FF77D1
:1050900007EA04264FF60C7739404FF6FF7707EA08
:1050A00003172F4339434FF2FF573A4046F48077B6
:1050B0003A4381830284F0BD028B4FF2FF331A40E2
:1050C0000283028B4FF6FF7303EA01231A43028324
:1050D0007047F0B50C461546002100220026078CCB
:1050E0004FF6EF7C07EA0C070784018B028C4FF622
:1050F000FF7707EA041640F6FF4739404FF6FF777F
:1051000007EA033739434FF6FF7703E00000014019
:105110000004014007EA052739434FF65F773A401C
:1051200046F010073A4301830284F0BD028B4FF62C
:10513000F3731A400283028B0A4302837047F0B56F
:105140000C46154600210022068C4FF6FE773E40A5
:105150000684018B028C4FF60C7631407E1C06EAE9
:1051600003162E4331434FF6F576324044F00106E4
:10517000324301830284F0BD70B505460C46208899
:1051800050B92389A28861882846FFF7D8FFE188B3
:105190002846FFF7CBFF25E0208804280AD1238981
:1051A000A28861882846FFF794FFE1882846FFF728
:1051B00083FF17E0208808280AD12389A288618804
:1051C0002846FFF755FFE1882846FFF748FF09E02A
:1051D0002389A28861882846FFF719FFE1882846BD
:1051E000FFF708FF70BD002101804180012181800F
:1051F0000021C180018170472DE9F04105460C4630
:1052000000260127608808B9022600E00026A08851
:10521000012801D1022700E001272088A0B92389B5
:10522000A28861882846FFF78AFFE1882846FFF7B1
:105230007DFF23893A4631462846FFF74AFFE18839
:105240002846FFF739FF13E02389A28861882846A2
:10525000FFF73FFFE1882846FFF72EFF23893A46F4
:1052600031462846FFF76BFFE1882846FFF75EFFCF
:10527000BDE8F0810146486B70470146886B704776
:105280000146C86B70470146086C70470A884B8816
:105290001A438B881A43CB881A430B891A434B89CC
:1052A0001A438B891A43A0F84420704700210180DB
:1052B00041808180C180018141818181704731B10C
:1052C000B0F8442042F40042A0F8442005E0B0F8D1
:1052D0004420C2F30E02A0F84420704721B1828816
:1052E00042F00402828004E082884FF6FB731A4089
:1052F0008280704721B1828842F00102828004E0FE
:1053000082884FF6FE731A40828070471AB18389F3
:105310000B43838102E083898B43838170478182C1
:10532000704702460020138A0B400BB1012000E0B9
:1053300000207047CA430282704730B50246002001
:1053400000230024158A05EA0103958905EA010472
:1053500013B10CB1012000E0002030BDCA4302822D
:10536000704741EA0203A0F8483070471AB18389B8
:105370000B43838102E083898B438381704721B192
:10538000828842F00802828004E082884FF6F77338
:105390001A408280704701894FF6F87211400181EE
:1053A00070470A46002101894FF68F731940114357
:1053B0000181704730B504460D4629462046FFF767
:1053C000F0FF208940F00700208130BD2DE9F04139
:1053D00004460D4616461F46602D06D13B46012267
:1053E00031462046FFF775FE05E03B460122314677
:1053F0002046FFF7A4FE29462046FFF7D2FF20896A
:1054000040F007002081BDE8F08130B50C46002156
:105410000189C9B24FF6FF7505EA032515432543F7
:105420002943018130BD2DE9F04105460E4617465E
:105430009846002443463A4631462846FFF7E5FFA2
:105440002C894FF6F870044044F007044FF68F7033
:10545000044044F070042C81BDE8F081F0B50446AE
:105460000D4616461F463B46324629462046FFF764
:10547000CCFF208940F480402081F0BD82884FF627
:105480008F731A40828082880A4382807047028923
:105490004FF6F8731A40028102890A43028170476D
:1054A00002894FF67F731A40028102890A43028102
:1054B0007047F0B50C4615461E4600210022002319
:1054C0000189028B038C4FF6F877394021434FF660
:1054D000FC473A4040F201173A434FF6DD773B4034
:1054E0004FF6FF7707EA06172F433B4301810283FC
:1054F0000384F0BD21B1828842F08002828004E002
:1055000082884FF67F731A4082807047A0F850104F
:105510007047704710B5203AC0F00B80B1E81850C2
:10552000203AA0E81850B1E81850A0E81850BFF48D
:10553000F5AF5FEA027C24BFB1E81850A0E818502C
:1055400044BF18C918C0BDE810405FEA827C24BF80
:1055500051F8043B40F8043B08BF7047D20728BF0E
:1055600031F8023B48BF11F8012B28BF20F8023B5D
:1055700048BF00F8012B704770477047704770476D
:1055800000487047A80400207546FFF7F9FFAE46B3
:1055900005006946534620F00700854618B020B53F
:1055A000FDF74AFDBDE820404FF000064FF0000730
:1055B0004FF000084FF0000B21F00701AC46ACE8BB
:1055C000C009ACE8C009ACE8C009ACE8C0098D4628
:1055D000704710B50446AFF300802046BDE8104088
:1055E000FAF71BBE21F00042A2F16052B2F5801F13
:1055F00001F0004328BFD2F17F6C0BD95FEA001C99
:1056000043EAC20242EB507018BF704728BF20F037
:1056100001007047B2F5801FBCBF184670474FEAC3
:10562000410C1CF5001F02D2084600F02FBA70B5DD
:1056300000F062F900000089FFF7F6BF4FF000406C
:10564000A0F58000704700002DE9C04130B4DFF8BC
:10565000A0C23CEA111418BF3CEA131400F0EC801D
:1056600081EA03051CEA111444EAD57418BF1CEA48
:10567000131500F0C780A4EB05044FF0004545EA80
:10568000C12145EAC32341EA505143EA525304F190
:105690007F74994204F500344FEAC0204FEAC222D9
:1056A00008BF904200F09C804FEA13650FF240164D
:1056B000765D4FEA134506FB05F7C7F1807706FBD9
:1056C00007F74FEAD737A7FB03687642C8F580385B
:1056D000A7FB06CE38BFA8F1010807FB08E64FF08C
:1056E000000EA6FB028CE6FB03CEDCF1000CCEF133
:1056F000004E38BFAEF1010EA6FB0C584FF000076C
:105700004FF00005E6FB0E87A1FB08C6A0FB07CE05
:1057100016EB0E0645F10005E1FB076515F1E04EBD
:105720007EBFA4F580345FEA46066D4116F180071E
:1057300045F100054FEA17274FEA066647EA056775
:10574000A6F1DE46B6F1805F4FEA15251FD938462F
:1057500024F0010C05EBC471BCF1FE6F01EB0C11E0
:1057600002D8F0BCBDE8008124425CBF01F5801E78
:105770009EEAC47F02D4F0BCBDE80081244238D444
:10578000F0BCA1F1C041BDE8004100F003B94FEA0F
:10579000D22242EA43524FEAD323A7FB02864FEAC2
:1057A000D02040EA415007FB03661EEA0E0F4FEA85
:1057B000D12105FB026658BFA6EB0056B6EB00569A
:1057C0004FEA520E4EEAC37E18EB0E0E56EB530E06
:1057D000BDD518EB02085E417F1C55F10005B6E708
:1057E0004FF480154FF000074FF000064FF000080F
:1057F000ADE7F0BC4FF0000001F1C04101F0004105
:10580000BDE8008111EA0C1F0CEA131500D00CE072
:1058100013EA0C1F00F025804FF00000F0BC81EA75
:10582000030101F00041BDE80081F0BCBDE800418A
:1058300081EA030100F0AEB8F0BCBDE8004170B5EC
:1058400000F05AF8097EFC3E00F007B881EA030137
:105850004FF0000001F00041704781EA030100F0C1
:1058600099B8F0BCBDE800414FF0000021497047F5
:10587000FFFDFBF9F7F5F4F2F0EEEDEBE9E8E6E415
:10588000E3E1E0DEDDDBDAD8D7D5D4D3D1D0CFCD9C
:10589000CCCBCAC8C7C6C5C4C2C1C0BFBEBDBCBBD5
:1058A000BAB9B8B7B6B5B4B3B2B1B0AFAEADACABD0
:1058B000AAA9A8A8A7A6A5A4A3A3A2A1A09F9F9EAA
:1058C0009D9C9C9B9A99999897979695959493935C
:1058D000929191908F8F8E8E8D8C8C8B8B8A8989F3
:1058E0008888878786858584848383828281818076
:1058F0000000FF070000F87F0EF1020E2EF0030EED
:105900005EF8046B364205D4012A43EB030515F516
:10591000001F12D8012841EB010C1CF5001F0CD808
:105920000ED14FEAD17C15F5001F0CEB4C0C0CF19D
:10593000020C08BF4CEBD37C04E04FF0080C01E0F4
:105940004FEAD37C0CEB4C0526FA05F606F0070669
:10595000B6F1040C06D20EEB860CBDE870404CF09C
:10596000010C6047DFE80CF0090B02024FF0004128
:105970004FF00000A1F5002170BD19461046012826
:1059800051EB010418BFD4F5001484BF002001F0CE
:10599000004170BD0808A0F500114FEA31017047C1
:1059A00043004FEAD30C4FEA3C0C43401FBF400773
:1059B0000CF1605113F0FE4F70471CF0006F03D1E3
:1059C00000200CF0004170470CF0004343EA507097
:1059D00010B540EACC0000F00EF800BF00000092C5
:1059E0004FEA0001FFF7D6BF4FF000414FF0000033
:1059F000A1F5002170470EF1020E2EF0030E5EF8A5
:105A0000044B244204D44FEA4102B2F17F4F11D833
:105A10004FEA4003B3F17F4F0CD80ED14FEAD07C50
:105A2000B2F17F4F0CEB4C0C0CF1020C08BF4CEBAD
:105A3000D17C04E04FF0080C01E04FEAD17C0CEB84
:105A40004C0324FA03F404F00704B4F1040C06D266
:105A50000EEB840CBDE810404CF0010C6047DFE811
:105A60000CF0070802024FF00040A0F5800010BDC6
:105A70000846420018BFD2F1807288BF00F0004093
:105A800010BD4FF04070E1EE100A7047FF2141EA6F
:105A9000D050C00570470000B85A00080000002030
:105AA00050000000C4010008085B000850000020FE
:105AB000B80A0000E001000800000000010000003A
:105AC000000000000000000000000000007A030A4F
:105AD000000000000000000001020304060708099E
