:020000040800F2
:10000000080B0020B1550008F1030008F3030008B5
:10001000F7030008FB030008FF03000800000000CE
:1000200000000000000000000000000003040008C1
:100030000504000800000000070400080904000887
:10004000CB550008CB550008CB550008CB55000810
:10005000CB550008CB550008CB550008CB55000800
:10006000CB550008CB550008CB550008CB550008F0
:10007000CB550008CB550008CB550008CB550008E0
:10008000CB550008CB550008CB55000835070008B4
:100090004B070008CB550008CB550008CB5500088E
:1000A000CB550008CB550008CB550008CB550008B0
:1000B000CB550008CB550008CB550008CB550008A0
:1000C000CB550008CB550008CB550008CB55000890
:1000D000CB550008C3540008655500083D5500087D
:1000E000CB550008CB550008CB550008CB55000870
:1000F000CB550008CB550008CB550008CB55000860
:10010000CB550008CB550008CB550008CB5500084F
:10011000CB550008CB550008CB550008CB5500083F
:10012000CB550008CB550008CB550008CB5500082F
:10013000CB550008CB550008CB550008CB5500081F
:10014000CB550008CB550008CB550008CB5500080F
:10015000CB550008CB550008CB550008CB550008FF
:10016000CB550008CB550008CB550008CB550008EF
:10017000CB550008CB550008CB550008CB550008DF
:10018000CB550008CB55000800F002F800F03CF811
:100190000AA090E8000C82448344AAF10107DA45E2
:1001A00001D100F031F8AFF2090EBAE80F0013F0F8
:1001B000010F18BFFB1A43F00103184754900000C9
:1001C00074900000103A24BF78C878C1FAD852075A
:1001D00024BF30C830C144BF04680C6070470000C1
:1001E0000023002400250026103A28BF78C1FBD840
:1001F000520728BF30C148BF0B6070471FB508F0D9
:100200006CFF1FBD10B510BD07F0D2FC1146FFF703
:10021000F5FF00F05BF807F004FD03B4FFF7F2FF11
:1002200003BC04F0ABFE00000146002200200146A2
:1002300005E0664850F821000244481C01460329A5
:10024000F7DB022A0CD10020014607E05F4850F896
:10025000210008B908467047481C01460329F5DB10
:10026000012A13D1012907D158484068012801D13A
:100270000020F0E70120EEE7022907D1534800688B
:10028000012801D10220E6E70020E4E73AB901297C
:1002900001D10120DFE7022901D10020DBE700BF07
:1002A000D9E74B488068002801DD012070474848A5
:1002B0000068002801DD0020F8E7454800690028B3
:1002C00001DD0220F2E74FF0FF30EFE72DED028B6A
:1002D0000120404908604049C1F8A80200BF00BFA2
:1002E0004FF4E13004F057FE4FF4E13004F0F8FE33
:1002F0004FF4E13004F0A1FEA82004F0BDFD04F0AD
:1003000081F904F09FF94FF4A06005F071F904F051
:10031000AFFA04F0C3FA00F073FD01F033F800F017
:100320007DF904F00DFD04F046FA00BF9FED2B0AA5
:1003300002F09CF9DFED2A0A9FED2A0A02F0F0F99B
:10034000B0EE408ADFED260A9FED260A02F024FA7D
:10035000F0EE408AF0EE481AB0EE681ADFED200A9F
:100360009FED1F0A01F008FB9FED1F0A02F07EF9C6
:10037000DFED1B0A9FED1B0A02F0D2F9B0EE408AB6
:10038000DFED170A9FED170A02F006FAF0EE408A39
:10039000DFED131A9FED121AF0EE480A01F0ECFAA5
:1003A0009FED120A02F062F90EE09FED0D2ADFEDDB
:1003B0000C1A9FED0B1ADFED0A0A9FED090A01F0F6
:1003C000D9F9012004F0BAFDEFE700005000002049
:1003D00038000020A48242420080424200E076C5FC
:1003E000000000000000B443002099C50000AFC425
:1003F000704700BFFEE700BFFEE700BFFEE700BF9B
:10040000FEE7704770477047704700000CB500204A
:10041000019000907648006840F48030744908608C
:1004200000BF7348006800F4003000900198401C41
:100430000190009818B90198B0F5A04FF1D16C481F
:10044000006800F4003010B10120009001E00020AD
:1004500000900098012846D165484030006840F07F
:1004600080506349403108606248006840F4404071
:10047000604908605E48083000685D4908310860DE
:100480000846006840F4004008600846006840F4F0
:10049000A05008605848091F0860081F006840F015
:1004A0008070091F086000BF5148006800F00070AC
:1004B0000028F9D040F20570504908604C480830D7
:1004C000006820F003004A490831086008460068C7
:1004D00040F00200086000BF45480830006800F0A6
:1004E0000C000828F8D10CBD10B54548006840F450
:1004F0007000434908603E48006840F001003C49F4
:10050000086000203A4908310860394800683D49D0
:100510000840374908603C48091D0860081F00680A
:1005200020F48020091F0860002031490C31086048
:10053000FFF76CFF4FF0006031498039086010BD53
:1005400070B500200022022300240221284D083526
:100550002D6805F00C0020B1042806D0082834D1FD
:1005600007E02A4D2A4E356033E02A4D284E35608B
:100570002FE01F4D2D1D2D68C5F380541C4D2D1DE2
:100580002D6805F03F0154B1224DB5FBF1F5184E31
:10059000361D3668C6F3881605FB06F209E01B4DCA
:1005A000B5FBF1F5124E361D3668C6F3881605FB0D
:1005B00006F20F4D2D1D2D68C5F301456D1C6B0016
:1005C000B2FBF3F5124E356003E0104D104E35606E
:1005D00000BF00BF064D08352D68C5F303150E4E4C
:1005E000705D0B4D2D68C540094E356070BD000033
:1005F000003802400070004008544007003C0240B0
:1006000088ED00E0FFFFF6FE103000240024F40027
:100610000000002000127A000400002000B58BB01A
:100620000121084605F078FB0121480605F0BDFBD5
:100630004FF4C050099002208DF8280000208DF85A
:100640002A0003208DF8290001208DF82B0009A92C
:10065000FE4805F0C3F809220B21FC4805F049F9D2
:1006600009220C21F94805F044F9F94805F0D2FEB9
:1006700006A805F0F3FF00208DF81E008DF81F007E
:100680008DF8200001208DF8210000208DF8220037
:100690008DF823008DF81A008DF81B0008208DF8C6
:1006A0001C0003208DF81D00ADF8180006A9E848CD
:1006B00005F0C9FE00208DF812008DF8130001200E
:1006C0008DF814000020ADF80800ADF80A00ADF870
:1006D0000C00ADF80E00ADF8100001208DF81500EB
:1006E00002A805F03AFF01220221D94806F034FAA7
:1006F00001221146D64806F02FFA14208DF8040086
:1007000002208DF8050001208DF806008DF8070005
:1007100001A804F072FF13208DF8040001208DF869
:1007200005008DF806008DF8070001A804F065FFAC
:100730000BB000BD10B50121C54806F075FA18B11F
:100740000121C34806F00BFB10BD00B52DED048B55
:1007500093B00EAA0021BE4806F0E3F840F2012152
:100760000E9888427ED10EA8017CC07B41EA002011
:1007700000B200EE100AB8EEC00AB64880ED050AD5
:100780000EA8827B407B42EA002000B200EE100AF5
:10079000B8EEC00A10EE101A084608F02DFC41EC25
:1007A000190B9FEDAD0B53EC102B08F043F841EC07
:1007B000180B07F059FF00EE100AA64880ED030A57
:1007C000008B68B9A348408B50B90EA8007B9DF8F8
:1007D000431040EA012000B29E49488308830CE0A0
:1007E0009C48408B9B4908830EA8007B9DF84310D2
:1007F00040EA012000B297494883964890ED000AEC
:100800008DED050A90ED010A8DED060A90ED020AC4
:100810008DED070A90ED030A8DED080A90ED040AAC
:100820008DED090A90ED050A8DED0A0A008BADF8F1
:100830002C008848408BADF82E008648C0690C908B
:10084000844890F820008DF83400142209A96846E5
:1008500007F036F905A80FC800F09CFA7D48D0EDE6
:10086000010A00E004E030EE200A80ED010A33E2E4
:1008700040F202210E9888427ED10EA8017CC07BF6
:1008800041EA002000B200EE100AB8EEC00A744837
:1008900080ED050A0EA8827B407B42EA002000B270
:1008A00000EE100AB8EEC00A10EE101A084608F062
:1008B000A3FB41EC190B9FED680B53EC102B07F0D9
:1008C000B9FF41EC180B07F0CFFE00EE100A6448A8
:1008D00080ED030A008B68B96148408B50B90EA8BF
:1008E000007B9DF8431040EA012000B25C49488338
:1008F00008830CE05A48408B594908830EA8007BB6
:100900009DF8431040EA012000B2554948835448FD
:1009100090ED000A8DED050A90ED010A8DED060AB5
:1009200090ED020A8DED070A90ED030A8DED080A9D
:1009300090ED040A8DED090A90ED050A8DED0A0A85
:10094000008BADF82C004648408BADF82E00444893
:10095000C0690C90424890F820008DF834001422B1
:1009600009A9684607F0ACF805A80FC800F012FA0C
:100970003B48D0ED010A00E004E030EE200A80EDB3
:10098000010AA9E140F203210E9888425DD10EA828
:10099000017CC07B41EA002000B200EE100AB8EEF4
:1009A000C00A304880ED050A0EA8827B407B42EAEF
:1009B000002000B200EE100AB8EEC00A10EE101AC5
:1009C000084608F019FB41EC190B9FED230B53EC83
:1009D000102B07F02FFF41EC180B07F045FE00EE3F
:1009E000100A204880ED030A008B68B91D48408B2F
:1009F00050B90EA8007B9DF8431040EA012000B2D8
:100A00001849488308830CE01648408B1549088331
:100A10000EA8007B9DF8431040EA012000B2114966
:100A20004883104890ED000A8DED050A90ED010A0B
:100A30008DED060A90ED020A8DED070A90ED030A8E
:100A40008DED080A90ED040A0EE033E0000002404C
:100A5000006400405C000020000000000000334003
:100A600080000020A40000208DED090A90ED050A09
:100A70008DED0A0A008BADF82C00BD48408BADF817
:100A80002E00BB48C0690C90B94890F820008DF842
:100A90003400142209A9684607F012F805A80FC807
:100AA00000F078F9B248D0ED010A30EE200A80ED6E
:100AB000010A11E10E98B0F5017F7CD10EA8017CEE
:100AC000C07B41EA002000B200EE100AB8EEC00A76
:100AD000A84880ED050A0EA8827B407B42EA0020F0
:100AE00000B200EE100AB8EEC00A10EE101A084666
:100AF00008F082FA41EC190B1FED290B53EC102B77
:100B000007F098FE41EC180B07F0AEFD00EE100A5E
:100B1000984880ED030A008B68B99648408B50B91D
:100B20000EA8007B9DF8431040EA012000B29149D5
:100B3000488308830CE08F48408B8E4908830EA8B9
:100B4000007B9DF8431040EA012000B289494883A8
:100B5000884890ED000A8DED050A90ED010A8DEDB3
:100B6000060A90ED020A8DED070A90ED030A8DED5D
:100B7000080A90ED040A8DED090A90ED050A8DED45
:100B80000A0A008BADF82C007A48408BADF82E0095
:100B90007848C0690C90774890F820008DF83400B0
:100BA000142209A9684606F08BFF05A80FC800F0BB
:100BB000F1F8704800E006E0D0ED010A30EE200ABE
:100BC00080ED010A88E040F205210E9888427CD130
:100BD0000EA8017CC07B41EA002000B200EE100AA2
:100BE000B8EEC00A644880ED050A0EA8827B407BFF
:100BF00042EA002000B200EE100AB8EEC00A10EE81
:100C0000101A084608F0F8F941EC190B1FED6E0BAD
:100C100053EC102B07F00EFE41EC180B07F024FDEF
:100C200000EE100A544880ED030A008B68B9524860
:100C3000408B50B90EA8007B9DF8431040EA01207C
:100C400000B24D49488308830CE04B48408B4A4929
:100C500008830EA8007B9DF8431040EA012000B2F3
:100C600045494883444890ED000A8DED050A90ED12
:100C7000010A8DED060A90ED020A8DED070A90ED4E
:100C8000030A8DED080A90ED040A8DED090A90ED36
:100C9000050A8DED0A0A008BADF82C003648408B12
:100CA000ADF82E003448C0690C90334890F820000D
:100CB0008DF83400142209A9684606F001FF05A842
:100CC0000FC800F067F82C4800E005E0D0ED010AFD
:100CD00030EE200A80ED010A13B0BDEC048B00BD9C
:100CE000F0B585B004460D4616461F4600208DF827
:100CF00008008DF8090008208DF80A008001009096
:100D0000200A8DF80B00E1B28DF80C10290A8DF83D
:100D10000D10E9B28DF80E10310A8DF80F10F1B2F6
:100D20008DF81010390A8DF81110F9B28DF81210E3
:100D30006946124805F000FD05B0F0BD10B586B05B
:100D4000044600208DF80C008DF80D0002208DF86F
:100D50000E0040F2FF100190200A8DF80F008DF870
:100D6000104001A9054805F0E7FC06B010BD0000E1
:100D7000A4000020C8000020EC0000200064004017
:100D8000B5EEC00AF1EE10FA03D2F1EE400AB0EE71
:100D9000600A70470FB400B5BDF91E00BDF91C1004
:100DA000401A01EE100AB8EEC10AFFF7E9FFDFEDC5
:100DB000FE0AB4EEE00AF1EE10FA11DDB8EEC10A57
:100DC000FFF7DEFFF8EEC11AC1EE800AB8EEC10AE5
:100DD000DFEDF61A00EEE10ABDEEC00AB0EE401AF1
:100DE000B8EEC10ADFEDF20A20EE200AF3EE031A94
:100DF000C0EE210ADFEDED1A80EEA10A5DF814FBCA
:100E00009FEDEC0AEC4880ED010A9FEDEA0AEB4801
:100E100080ED010A9FEDE70AE94880ED010A9FEDA8
:100E2000E50AE84880ED010A9FEDE20AE64880ED18
:100E3000010A0120E04981F82000E04981F8200002
:100E4000DF4981F82000DF4981F82000DE4981F880
:100E500020009FEDD80AD84880ED020A9FEDD50A00
:100E6000D64880ED020A9FEDD30AD54880ED020AEC
:100E70009FEDD00AD34880ED020A9FEDCE0A0846C6
:100E800080ED020A70479FEDD10AD14880ED000A3B
:100E90009FEDD00A80ED010A9FEDC60A80ED020A9F
:100EA0009FEDCD0A80ED030A9FEDCC0A80ED040A88
:100EB0009FEDC00A80ED050A9FEDBE0A80ED060A8F
:100EC0000020C349C8619FEDC10AC54880ED000AF2
:100ED0009FEDC00A80ED010A9FEDB60A80ED020A7F
:100EE0009FEDBD0A80ED030A9FEDBC0A80ED040A68
:100EF0009FEDB00A80ED050A9FEDAE0A80ED060A6F
:100F00000020B749C8619FEDB10AB64880ED000ADC
:100F10009FEDB00A80ED010A9FEDA60A80ED020A5E
:100F20009FEDAD0A80ED030A9FEDAC0A80ED040A47
:100F30009FEDA00A80ED050A9FED9E0A80ED060A4E
:100F40000020A849C8619FEDA10AA74880ED000ACA
:100F50009FEDA00A80ED010A9FED960A80ED020A3E
:100F60009FED9D0A80ED030A9FED9C0A80ED040A27
:100F70009FED900A80ED050A9FED8E0A80ED060A2E
:100F800000209949C8619FED910A984880ED000AB8
:100F90009FED900A80ED010A9FED860A80ED020A1E
:100FA0009FED8D0A80ED030A9FED8C0A80ED040A07
:100FB0009FED800A80ED050A9FED7E0A80ED060A0E
:100FC00000208A49C86170479FED890A894880EDF1
:100FD000000AB1EE040A80ED010A9FED760A80ED69
:100FE000020A9FED7D0A80ED030A9FED830A80EDE2
:100FF000040A9FED700A80ED050A9FED6E0A80EDF0
:10100000060A00207B49C8619FED7C0A084680EDF6
:10101000090A9FED7B0A80ED080A9FED750A794861
:1010200080ED000AB1EE040A80ED010A9FED610A2D
:1010300080ED020A9FED680A80ED030A9FED6E0ABB
:1010400080ED040A9FED5B0A80ED050A9FED590AC9
:1010500080ED060A00206B49C8619FED680A0846CA
:1010600080ED090A9FED660A80ED080A9FED600A8F
:10107000654880ED000AB1EE040A80ED010A9FED9B
:101080004D0A80ED020A9FED540A80ED030A9FEDA0
:101090005A0A80ED040A9FED470A80ED050A9FED8C
:1010A000450A80ED060A00205749C8619FED530AA2
:1010B000084680ED090A9FED520A80ED080A9FED6F
:1010C0004C0A524880ED000AB1EE040A80ED010A94
:1010D0009FED380A80ED020A9FED3F0A80ED030A7A
:1010E0009FED450A80ED040A9FED320A80ED050A66
:1010F0009FED300A80ED060A00204449C8619FED4B
:101100003F0A084680ED090A9FED3D0A80ED080A76
:101110009FED3F0A3F4880ED000AB1EE040A80EDE2
:10112000010A9FED240A80ED020A9FED2B0A80ED53
:10113000030A9FED310A80ED040A9FED1E0A80ED3F
:10114000050A9FED1C0A80ED060A00203149C8619E
:101150009FED2A0A084680ED090A9FED290A80EDD5
:10116000080A70479FED2C0A2C4880ED000A9FED7D
:10117000110A80ED010A9FED2A0A80ED020A9FED17
:10118000160A80ED030A9FED270A80ED040A9FED01
:10119000090A80ED050A9FED070A80ED060A002086
:1011A0001E49C86140E0000000007A45000000468A
:1011B0000000B443000000005C000020800000201C
:1011C000A4000020C8000020EC0000206666A63FB6
:1011D000600100208FC2F53C00007A4600806D451A
:1011E000D801002050020020C80200204003002047
:1011F00000007A433801002000409C4500007A44FA
:101200000000C843B001002028020020A0020020F6
:1012100000005C431803002085EBD13E1001002044
:1012200017B7D1380000FA44B3EE040A084680ED3F
:10123000090A9FEDFB0A80ED080A1FED090AF9482B
:1012400080ED000A1FED250A80ED010A1FED0C0A52
:1012500080ED020A1FED200A80ED030A1FED0F0A40
:1012600080ED040A1FED2D0A80ED050A1FED2F0AFF
:1012700080ED060A0020EB49C861B3EE040A084677
:1012800080ED090A9FEDE60A80ED080A1FED1E0AAF
:10129000E54880ED000A1FED390A80ED010A1FEDD7
:1012A000200A80ED020A1FED340A80ED030A1FEDCB
:1012B000230A80ED040A1FED410A80ED050A1FEDA7
:1012C000430A80ED060A0020D749C861B3EE040A3C
:1012D000084680ED090A9FEDD20A80ED080A1FED4D
:1012E000320AD24880ED000A1FED4E0A80ED010A55
:1012F0001FED350A80ED020A1FED490A80ED030A51
:101300001FED380A80ED040A1FED560A80ED050A2C
:101310001FED580A80ED060A0020C449C861B3EEEB
:10132000040A084680ED090A9FEDBD0A80ED080A0F
:10133000B7EE000ABE4880ED000A1FED620A80ED9C
:10134000010A9FEDBC0A80ED020A1FED5D0A80EDE7
:10135000030A1FED4C0A80ED040A1FED6A0A80EDB6
:10136000050A1FED6C0A80ED060A0020B049C8612D
:10137000B3EE040A084680ED090A9FEDA90A80ED44
:10138000080A704700B5FFF77EFDFFF71DFEFFF767
:10139000E9FE00BD00B5B0EE403AF0EE603A33EE43
:1013A000630AB0EE401AC169012914D1B0EE410AB6
:1013B000FFF7E6FCD0ED090AB4EEE00AF1EE10FA10
:1013C00004DB90ED080A60EE011A08E090ED000AD7
:1013D00060EE011A03E090ED000A60EE011A90ED54
:1013E000010A20EE015A90ED050A30EE052A90ED33
:1013F000040AB4EEC20AF1EE10FA04D290ED040A27
:1014000080ED050A15E090ED040AFFEE000A20EEDB
:10141000200AB4EEC20AF1EE10FA08DD90ED040ADB
:10142000FFEE000A20EE200A80ED050A01E080EDC3
:10143000052A90ED060A31EE404A90ED020A60EE70
:10144000044A80ED061A90ED050A30EE210A70EE8E
:10145000242A90ED030AB4EEE20AF1EE10FA02D863
:1014600090ED030A00BD90ED030AFFEE000A20EEA6
:10147000200AB4EEE20AF1EE10FA06DD90ED030A5E
:10148000FFEE000A20EE200AECE7B0EE620AE9E780
:1014900010B5694890F82000012814D0022802D025
:1014A000052833D11FE0644890ED011AF0EE410A9F
:1014B00090ED001AB0EE410A6048FFF76BFF5E48FE
:1014C00080ED020A00BF5C4890ED031AF0EE410A7D
:1014D00090ED021AB0EE410A5948FFF75BFF5648FB
:1014E00080ED040A00BF544890ED051AF0EE410A61
:1014F00090ED041AB0EE410A5248FFF74BFFBDEEE3
:10150000C00A10EE100A4C49C86100E000BF00BFDD
:101510004D4890F82000012814D0022802D0052858
:1015200033D11FE0484890ED011AF0EE410A90EDEA
:10153000001AB0EE410A3B48FFF72CFF424880ED0D
:10154000020A00BF404890ED031AF0EE410A90ED08
:10155000021AB0EE410A3D48FFF71CFF3A4880ED01
:10156000040A00BF384890ED051AF0EE410A90EDEC
:10157000041AB0EE410A3648FFF70CFFBDEEC00A70
:1015800010EE100A3049C86100E000BF00BF3148CA
:1015900090F82000012814D0022802D0052833D169
:1015A0001FE02C4890ED011AF0EE410A90ED001A70
:1015B000B0EE410A1C48FFF7EDFE264880ED020A16
:1015C00000BF244890ED031AF0EE410A90ED021A94
:1015D000B0EE410A2048FFF7DDFE1E4880ED040A08
:1015E00000BF1C4890ED051AF0EE410A90ED041A78
:1015F000B0EE410A1948FFF7CDFEBDEEC00A10EE6D
:10160000100A1449C86100E000BF00BF144890F8F8
:101610002000012836D0022824D0052855D141E0E9
:1016200000004842880100200002002078020020CB
:10163000F00200200AD7233C5C00002010010020AB
:10164000380100206001002080000020B00100204F
:10165000D8010020A4000020280200205002002011
:10166000C8000020744890ED011AF0EE410A90ED98
:10167000001AB0EE410A7148FFF78CFE6E4880ED0B
:10168000020A00BF6C4890ED031AF0EE410A90ED9B
:10169000021AB0EE410A6A48FFF77CFE664880ED08
:1016A000040A00BF644890ED051AF0EE410A90ED7F
:1016B000041AB0EE410A6348FFF76CFEBDEEC00AA3
:1016C00010EE100A5C49C86100E000BF00BF5E4830
:1016D00090F82000012814D0022802D0052833D128
:1016E0001FE0594890ED011AF0EE410A90ED001A02
:1016F000B0EE410A5548FFF74DFE534880ED020A0F
:1017000000BF514890ED031AF0EE410A90ED021A25
:10171000B0EE410A4E48FFF73DFE4B4880ED040A0B
:1017200000BF494890ED051AF0EE410A90ED041A09
:10173000B0EE410A4748FFF72DFEBDEEC00A10EE9D
:10174000100A4149C86100E000BF00BF3A4CE4699B
:1017500023B2414CE46922B2404CE46921B2404CCE
:10176000E46920B2FFF7BCFA3749C96908B2FFF74C
:10177000E5FA10BD10B52DED068BB0EE40AAB0EE27
:10178000608AF0EE418AB0EE619AF0EE429A012052
:10179000334981F82000314981F820002E4981F831
:1017A0002000254981F82000274981F820002C4895
:1017B00080ED02AA294880ED028A2748C0ED028AFE
:1017C0001D4880ED029A0846C0ED029AFFF760FEC0
:1017D000BDEC068B10BD10B52DED068BB0EE40AA0A
:1017E000B0EE608AF0EE418AB0EE619AF0EE429A75
:1017F00002201B4981F82000184981F82000164971
:1018000081F820000C4981F820000F4981F8200060
:10181000134880ED00AA114880ED008A0E48C0ED03
:10182000008A054880ED009A0846C0ED009AFFF74F
:101830002FFEBDEC068B10BDC800002078020020F2
:10184000A0020020C8020020EC000020F0020020CE
:101850001803002040030020A40000208000002086
:101860005C000020B5EEC00AF1EE10FA01D10020B4
:101870007047B5EEC00AF1EE10FA01DD0120F7E77E
:101880004FF0FF30F4E702466FF00201FE48D0ED62
:10189000012AFE4890ED003A72EEC32AFC4890ED12
:1018A000003A72EEC32AF0EE620AFA48D0ED012A3D
:1018B000F64890ED013A72EEC32AF54890ED013AF0
:1018C00072EEC32AB0EE622AF348D0ED012AEF4847
:1018D00090ED023A72EEC32AED4890ED023A72EEB4
:1018E000C32AB0EE621AED48D0ED012AE74890ED28
:1018F000033A72EEC32AE64890ED033A72EEC32A29
:10190000F0EE621AF4EEC00AF1EE10FA07D2F1EE30
:10191000402AF4EEE20AF1EE10FA00DD491CB4EEC2
:10192000C02AF1EE10FA07D2F1EE402AB4EEE22A14
:10193000F1EE10FA00DD491CB4EEC01AF1EE10FA17
:1019400007D2F1EE402AB4EEE21AF1EE10FA00DD11
:10195000491CF4EEC01AF1EE10FA07D2F1EE402A5B
:10196000F4EEE21AF1EE10FA00DD491C914201DDBD
:10197000012070470020FCE700B52DED040B99B065
:101980009DED1B0ADDED190A30EE600ADFEDC40A99
:1019900020EE200A8DED120A9DED1C0ADDED1A0ADB
:1019A00030EE600ADFEDBE0A20EE200A8DED110A4E
:1019B0009FEDBC0A8DED100AB34890ED010AB348C3
:1019C00080ED000AB34890ED010AB04880ED010AAD
:1019D000B14890ED010AAD4880ED020AAF4890EDA4
:1019E000010AAA4880ED030A9DED120A9FEDAE1A86
:1019F000C0EE010A9FEDAD0A20EE800AA44880EDFA
:101A0000000A9DED110AB1EE400A9FEDA71AC0EE43
:101A1000010A9FEDA60A20EE800A80ED010A90EDF2
:101A2000000AB1EE400A80ED020A90ED010AB1EE23
:101A3000400A80ED030A00209D49086023E0944895
:101A40009B49096800EB810090ED000AB5EEC00AE1
:101A5000F1EE10FA09D29FED970A13A8944909688C
:101A600000EB810080ED000A08E09FED930A13A8C7
:101A70008F49096800EB810080ED000A8C480068FE
:101A8000401C8B4908608A4800680428D7DB00BFE7
:101A90009DED100ADFED880AB4EEE00AF1EE10FACF
:101AA0007DD2119807F0A8FACDE900019DED000B59
:101AB00006F03EF98DED040B129807F09DFACDE982
:101AC00000019DED000B06F033F98DED020B9DED4D
:101AD000040B53EC102B9DED020B51EC100B06F098
:101AE000F5FDCDE90801119807F086FACDE900016E
:101AF0009DED000B06F01CF98DED040B9DED160A13
:101B00008DED000A9DED000AFFF7ACFE00EE100A15
:101B1000F8EEC00A9DED100A20EE800A8DED010A54
:101B2000019807F069FACDE902019DED040B53EC31
:101B3000102B9DED020B51EC100B07F069F8CDE96D
:101B400006019DED080B53EC102B9DED060B51EC9F
:101B5000100B06F06FFECDE90A019DED0A0B51EC6A
:101B6000100B06F081FD0F90119807F045FACDE9B2
:101B700000019DED000B06F0DBF88DED040B1298D3
:101B800007F03AFACDE900019DED000B06F0D0F820
:101B90008DED020B9DED040B53EC102B00E03FE1AB
:101BA0009DED020B51EC100B06F090FDCDE9080104
:101BB000129807F021FACDE900019DED000B06F027
:101BC000B7F88DED040B9DED150A8DED000A9DED26
:101BD000000AFFF747FE00EE100AF8EEC00A9DED7E
:101BE000100A20EE800A8DED010A019807F004FA30
:101BF000CDE902019DED040B53EC102B9DED020B82
:101C000051EC100B07F004F8CDE906019DED080B2F
:101C100053EC102B9DED060B51EC100B06F00AFE59
:101C2000CDE90A019DED0A0B51EC100B06F01CFDED
:101C30000E90119807F0E0F9CDE900019DED000B41
:101C400006F076F88DED040B129807F0D5F9CDE982
:101C500000019DED000B06F06BF88DED020B9DED84
:101C6000040B53EC102B9DED020B51EC100B06F006
:101C70002DFDCDE90801119807F0BEF9CDE900016D
:101C80009DED000B1AE000005C000020880300209E
:101C90007403002080000020A4000020C800002061
:101CA0006666863F00000000959E6B430000B443CB
:101CB00014000020000096C30000964306F038F898
:101CC0008DED040B9DED140A8DED000A9DED000ACB
:101CD000FFF7C8FD00EE100AF8EEC00A9DED100AED
:101CE00020EE800A8DED010A019807F085F9CDE913
:101CF00002019DED040B53EC102B9DED020B51ECFA
:101D0000100B06F085FFCDE906019DED080B53ECA5
:101D1000102B9DED060B51EC100B06F08BFDCDE961
:101D20000A019DED0A0B51EC100B06F09DFC0D9085
:101D3000119807F061F9CDE900019DED000B05F068
:101D4000F7FF8DED040B129807F056F9CDE900016D
:101D50009DED000B05F0ECFF8DED020B9DED040BEE
:101D600053EC102B9DED020B51EC100B06F0AEFC6A
:101D7000CDE90801129807F03FF9CDE900019DED8A
:101D8000000B05F0D5FF8DED040B9DED130A8DEDD5
:101D9000000A9DED000AFFF765FD00EE100AF8EE5F
:101DA000C00A9DED100A20EE800A8DED010A01980F
:101DB00007F022F9CDE902019DED040B53EC102B45
:101DC0009DED020B51EC100B06F022FFCDE9060150
:101DD0009DED080B53EC102B9DED060B51EC100BF9
:101DE00006F028FDCDE90A019DED0A0B51EC100B20
:101DF00006F03AFC1FED552A0C90DDED0F1A9DED13
:101E00000E1ADDED0D0A9DED0C0AFFF7B3FC9DEDFA
:101E1000100ADFEDFE0A30EE200A8DED100A53E1C4
:101E2000119807F0E9F8CDE900019DED000B05F0F0
:101E30007FFF8DED040B129807F0DEF8CDE900016D
:101E40009DED000B05F074FF8DED020B9DED040B75
:101E500053EC102B9DED020B51EC100B06F036FCF1
:101E6000CDE90801119807F0C7F8CDE900019DED13
:101E7000000B05F05DFF8DED040B1698019007F047
:101E8000BBF8CDE902019DED040B53EC102B9DED49
:101E9000020B51EC100B06F0BBFECDE906019DEDE7
:101EA000080B53EC102B9DED060B51EC100B06F0BC
:101EB000C1FCCDE90A019DED0A0B51EC100B06F0B7
:101EC000D3FB0F90119807F097F8CDE900019DED35
:101ED000000B05F02DFF8DED040B129807F08CF828
:101EE000CDE900019DED000B05F022FF8DED020B09
:101EF0009DED040B53EC102B9DED020B51EC100BE0
:101F000006F0E4FBCDE90801129807F075F8CDE979
:101F100000019DED000B05F00BFF8DED040B1598F6
:101F2000019007F069F8CDE902019DED040B53EC37
:101F3000102B9DED020B51EC100B06F069FECDE964
:101F400006019DED080B53EC102B9DED060B51EC9B
:101F5000100B06F06FFCCDE90A019DED0A0B51EC68
:101F6000100B06F081FB0E90119807F045F8CDE9B3
:101F700000019DED000B05F0DBFE8DED040B1298CA
:101F800007F03AF8CDE900019DED000B05F0D0FE19
:101F90008DED020B9DED040B53EC102B9DED020B10
:101FA00051EC100B06F092FBCDE90801119807F0F7
:101FB00023F8CDE900019DED000B05F0B9FE8DED94
:101FC000040B1498019007F017F8CDE902019DED7C
:101FD000040B53EC102B9DED020B51EC100B06F093
:101FE00017FECDE906019DED080B53EC102B9DED7E
:101FF000060B51EC100B06F01DFCCDE90A019DED1E
:102000000A0B51EC100B06F02FFB0D90119806F007
:10201000F3FFCDE900019DED000B05F089FE8DED8C
:10202000040B129806F0E8FFCDE900019DED000BCE
:1020300005F07EFE8DED020B9DED040B53EC102B95
:102040009DED020B51EC100B06F040FBCDE90801B1
:10205000129806F0D1FFCDE900019DED000B05F0CF
:1020600067FE8DED040B1398019006F0C5FFCDE9D6
:1020700002019DED040B53EC102B9DED020B51EC76
:10208000100B06F0C5FDCDE906019DED080B53ECE4
:10209000102B9DED060B51EC100B06F0CBFBCDE9A0
:1020A0000A019DED0A0B51EC100B06F0DDFA9FEDD5
:1020B000582A0C90DDED0F1A9DED0E1ADDED0D0A7C
:1020C0009DED0C0AFFF756FB022002F037FF4FF0A0
:1020D000FF309FED500AFFF7D6FB00283FF4D8AC45
:1020E00000BF119806F088FFCDE900019DED000BBF
:1020F00005F01EFE8DED040B129806F07DFFCDE974
:1021000000019DED000B05F013FE8DED020B9DED22
:10211000040B53EC102B9DED020B51EC100B06F051
:10212000D5FACDE90801119806F066FFCDE9000166
:102130009DED000B05F0FCFD8DED040B9DED160AE9
:102140008DED000A9DED000AFFF78CFB00EE100AF2
:10215000F8EEC00A9DED100A20EE800A8DED010A0E
:10216000019806F049FFCDE902019DED040B53EC07
:10217000102B9DED020B51EC100B06F049FDCDE943
:1021800006019DED080B53EC102B9DED060B51EC59
:10219000100B06F04FFBCDE90A019DED0A0B51EC47
:1021A000100B06F061FA0F90119806F025FFCDE9AB
:1021B00000019DED000B05F0BBFD8DED040B1298A9
:1021C00006F01AFFCDE900019DED000B05F0B0FD12
:1021D0008DED020B9DED040B53EC102B9DED020BCE
:1021E00051EC100B06F072FACDE90801129806F0D6
:1021F00003FFCDE900019DED000B05F099FD8DED8C
:10220000040B9DED150A8DED000A05E09A99993EA3
:1022100000000000000048439DED000AFFF722FB8C
:1022200000EE100AF8EEC00A9DED100A20EE800ABA
:102230008DED010A019806F0DFFECDE902019DED6A
:10224000040B53EC102B9DED020B51EC100B06F020
:10225000DFFCCDE906019DED080B53EC102B9DED45
:10226000060B51EC100B06F0E5FACDE90A019DEDE5
:102270000A0B51EC100B06F0F7F90E90119806F0CE
:10228000BBFECDE900019DED000B05F051FD8DED8C
:10229000040B129806F0B0FECDE900019DED000B95
:1022A00005F046FD8DED020B9DED040B53EC102B5C
:1022B0009DED020B51EC100B06F008FACDE9080178
:1022C000119806F099FECDE900019DED000B05F097
:1022D0002FFD8DED040B9DED140A8DED000A9DED93
:1022E000000AFFF7BFFA00EE100AF8EEC00A9DEDF3
:1022F000100A20EE800A8DED010A019806F07CFE9E
:10230000CDE902019DED040B53EC102B9DED020B6A
:1023100051EC100B06F07CFCCDE906019DED080B9D
:1023200053EC102B9DED060B51EC100B06F082FACE
:10233000CDE90A019DED0A0B51EC100B06F094F962
:102340000D90119806F058FECDE900019DED000BAF
:1023500005F0EEFC8DED040B129806F04DFECDE974
:1023600000019DED000B05F0E3FC8DED020B9DEDF2
:10237000040B53EC102B9DED020B51EC100B06F0EF
:10238000A5F9CDE90801129806F036FECDE9000165
:102390009DED000B05F0CCFC8DED040B9DED130ABB
:1023A0008DED000A9DED000AFFF75CFA00EE100AC1
:1023B000F8EEC00A9DED100A20EE800A8DED010AAC
:1023C000019806F019FECDE902019DED040B53ECD6
:1023D000102B9DED020B51EC100B06F019FCCDE912
:1023E00006019DED080B53EC102B9DED060B51ECF7
:1023F000100B06F01FFACDE90A019DED0A0B51EC16
:10240000100B06F031F91FED7E2A0C90DDED0F1A4E
:102410009DED0E1ADDED0D0A9DED0C0AFFF7AAF9F0
:102420009DED100ADFEDFA0AB4EEE00AF1EE10FAC3
:1024300007DD9DED100A5FED8B0A30EE600A8DED31
:10244000100A022002F07AFD4FF0FF309FEDF00AF3
:10245000FFF719FA00283FF444AE9DED1B0AED4842
:1024600080ED000A9DED1C0A80ED010A1DB000BD43
:1024700000B52DED0A8B85B0B0EE409AF0EE608A83
:102480001FED9D0AB0EE408A38EEC90ADFEDE20A80
:1024900020EE200AF0EE409A9FEDE00A29EE800A35
:1024A000DFEDDF0A80EE201A9FEDDE0A61EE000A02
:1024B000B0EE001A80EE810A9FEDDB1AC0EE010A31
:1024C0009FEDDA0A20EE800AB0EE40AAD84890EDDF
:1024D000010AD84880ED000AD74890ED010AD54896
:1024E00080ED010AD54890ED010AD24880ED020A3C
:1024F000D34890ED010ACF4880ED030A0020D1496E
:1025000008600DE0B1EE4A0ACF48CE49096800EBF9
:10251000810080ED000ACB480068401CC949086072
:10252000C84800680428EDDB0020C649086023E0A5
:10253000C548C449096800EB810090ED000AB5EE7A
:10254000C00AF1EE10FA09D29FEDC00A6846BD49F3
:10255000096800EB810080ED000A08E09FEDBC0AED
:102560006846B849096800EB810080ED000AB5486B
:102570000068401CB3490860B24800680428D7DBF3
:1025800000BF9FEDB40AB4EEC08AF1EE10FA48D253
:10259000DDED030AB0EE600AFFF764F900EE100A01
:1025A000B8EEC00A20EE080AF0EE40AADDED020AFD
:1025B000B0EE600AFFF756F900EE100AB8EEC00A56
:1025C00020EE080AB0EE40BADDED010AB0EE600A76
:1025D000FFF748F900EE100AB8EEC00A20EE080A2C
:1025E000F0EE40BADDED000AB0EE600AFFF73AF90E
:1025F00000EE100AB8EEC00A20EE080AB0EE40CA9B
:102600001FEDFD2AF0EE6A1AB0EE4B1AF0EE6B0ADF
:10261000FFF7B0F89FED900A38EE000AB0EE408A5E
:1026200016E09DED032AF0EE421A9DED022AB0EE6F
:10263000421A9DED012AF0EE420A9DED002AB0EE0D
:10264000420A9FED862AFFF795F8022002F076FCF9
:1026500000209FED6F0AFFF716F9002891D06D4812
:10266000C0ED028A05B0BDEC0A8B00BD10B52DEDA2
:102670000A8BB0EE408A6E4890ED010ABDEEC00AAA
:10268000F0EE408A6C4890ED010ABDEEC00AB0EE53
:10269000409A6A4890ED010ABDEEC00AF0EE409AF9
:1026A000674890ED010ABDEEC00AB0EE40AA6C4842
:1026B00090ED010ABDEEC00A10EE104A0EE0B0EE39
:1026C000482AF8EECA1AB8EEE91AF8EEC90AB8EEC6
:1026D000E80AFFF780F8022002F030FC604890ED35
:1026E000010A30EE480A10EE101A084606F084FC83
:1026F00041EC1C0BB0EE4C0AF0EE6C0A05F018FB36
:10270000B0EE40BAF0EE60BA9FED560B53EC102BD2
:1027100051EC1B0B06F040FAD1D2BDEC0A8B10BD78
:1027200010B52DED0C8BB0EE408AF0EE608A9FED77
:102730004F0B05F009FBB0EE40CAF0EE60CA18EE90
:10274000100A06F059FC41EC1D0B53EC1C2B06F053
:102750005FFA41EC1A0B9FED450B05F085FAB0EEE0
:1027600040CAF0EE60CA18EE900A06F045FC41EC53
:102770001D0B53EC1C2B06F04BFA41EC1B0B53ECDE
:102780001A2B06F04FFB41EC190B05F06DFF00EE24
:10279000100ABDEC0C8B10BD10B52DED0C8BB0EEFE
:1027A000408AF0EE608A9FED310B05F0CDFAB0EE75
:1027B00040CAF0EE60CA18EE900A06F01DFC41EC2B
:1027C0001D0B53EC1C2B06F023FA41EC1A0B9FED6A
:1027D000270B05F049FAB0EE40CAF0EE60CA18EED9
:1027E000100A06F009FC41EC1D0B53EC1C2B06F003
:1027F0000FFA41EC1B0B53EC1A2B05F067FF41EC71
:10280000190B05F031FF00EE100ABDEC0C8B10BD6A
:1028100000004842680300203333833FDB0F494008
:10282000000034430000E143959E6B430000B44335
:102830005C0000208803002080000020A40000200D
:10284000C800002014000020740300200000A0C273
:102850000000A042000096439A99993E00000000B3
:10286000EC00002000000000000024400000006098
:10287000FB21E9BF07B584B0069800287DD10498F4
:1028800001287BD10598012878D1DFEDFE0A1FEDE4
:102890000D0AFFF745FF8DED030ADFEDFA0A1FED84
:1028A000110AFFF779FF8DED020AF74890ED010A52
:1028B0008DED010A90ED000A8DED000ADDED031AA1
:1028C0009DED021ADDED010A9DED000AFFF754F8B7
:1028D000DFEDEC0A9FEDED0AFFF722FF8DED030A15
:1028E000DFEDE80A9FEDE90AFFF756FF8DED020ADA
:1028F000E54890ED010A8DED010A90ED000A8DED9D
:10290000000ADDED031A9DED021ADDED010A9DEDD1
:10291000000AFFF731F8DFEDDE0A9FEDDC0AFFF772
:10292000FFFE8DED030ADFEDDA0A9FEDD80AFFF70F
:1029300033FF8DED020AD44890ED010A8DED010AB6
:1029400090ED000A8DED000ADDED031A9DED021AEF
:10295000DDED010A9DED000AFFF70EF8DFEDCC0A70
:102960009FEDCC0AFFF7DCFE8DED030ADFEDC80A10
:102970009FEDC80AFFF710FF01E0FCE339E08DEDA1
:10298000020AC14890ED010A8DED010A90ED000A9E
:102990008DED000ADDED031A9DED021ADDED010A51
:1029A0009DED000AFEF7E8FFB74890ED020A8DEDB5
:1029B000030ADFEDB90A9DED030AFFF759FDDFEDCC
:1029C000B70A1FED5A0AFFF7ABFE8DED030ADFEDE4
:1029D000B30A1FED5E0AFFF7DFFE8DED020ADDEDA3
:1029E000031A9DED021A5FED630A1FED640AFEF7FC
:1029F000C3FF049801287DD1059800287AD1DFED26
:102A0000A10A1FED6A0AFFF78BFE8DED030ADFEDC9
:102A10009D0A1FED6E0AFFF7BFFE8DED020A9A4870
:102A200090ED010A8DED010A90ED000A8DED000A8E
:102A3000DDED031A9DED021ADDED010A9DED000AA0
:102A4000FEF79AFFDFED8F0A9FED950AFFF768FE0C
:102A50008DED030ADFED8B0A9FED910AFFF79CFED7
:102A60008DED020A884890ED010A8DED010A90ED86
:102A7000000A8DED000ADDED031A9DED021ADDED71
:102A8000010A9DED000AFEF777FFDFED860A9FED54
:102A9000840AFFF745FE8DED030ADFED820A9FED04
:102AA000800AFFF779FE8DED020A774890ED010A62
:102AB0008DED010A90ED000A8DED000ADDED031A9F
:102AC0009DED021ADDED010A9DED000AFEF754FFAF
:102AD000DFED740A9FED740AFFF722FE8DED030A05
:102AE000DFED700A9FED700AFFF756FE8DED020ACA
:102AF000654800E01CE090ED010A8DED010A90EDC3
:102B0000000A8DED000ADDED031A9DED021ADDEDE0
:102B1000010A9DED000AFEF72FFF5B4890ED020AC7
:102B20008DED030A5FEDC20A9DED030AFFF7A0FCDD
:102B3000049801287DD1059802287AD1DFED590A41
:102B40001FEDBA0AFFF7ECFD8DED030ADFED550A24
:102B50001FEDBE0AFFF720FE8DED020A4A4890EDF8
:102B6000010A8DED010A90ED000A8DED000ADDED00
:102B7000031A9DED021ADDED010A9DED000AFEF734
:102B8000FBFEDFED480A9FED460AFFF7C9FD8DED1C
:102B9000030ADFED440A9FED420AFFF7FDFD8DEDCC
:102BA000020A394890ED010A8DED010A90ED000A04
:102BB0008DED000ADDED031A9DED021ADDED010A2F
:102BC0009DED000AFEF7D8FEDFED2E0A9FED340AD8
:102BD000FFF7A6FD8DED030ADFED2A0A9FED300A0F
:102BE000FFF7DAFD8DED020A274890ED010A8DED21
:102BF000010A90ED000A8DED000ADDED031A9DED4E
:102C0000021ADDED010A9DED000AFEF7B5FEDFEDCB
:102C10001D0A9FED250AFFF783FD8DED030ADFED09
:102C2000190A9FED210AFFF7B7FD8DED020A16483C
:102C300000E01CE090ED010A8DED010A90ED000A24
:102C40008DED000ADDED031A9DED021ADDED010A9E
:102C50009DED000AFEF790FE0B4890ED020A8DED07
:102C6000030ADFED120A9DED030AFFF701FC049849
:102C700002283ED10598E0BBDFED020A9FED080A6D
:102C800016E000000000FAC368030020008089C439
:102C9000000016440000E1C400003EC30080184458
:102CA00000409CC40000FA4300A00CC5000034435F
:102CB000FFF736FD8DED030A5FED0E0A1FED080AE2
:102CC000FFF76AFD8DED020ADDED031A9DED021A94
:102CD0005FED140A9FEDFD0AFEF74EFE5FED0F0A51
:102CE0001FED110AFFF71CFD8DED030A5FED130ABE
:102CF00000E046E01FED160AFFF74EFD8DED020ADB
:102D0000F34890ED010A8DED010A90ED000A8DED7A
:102D1000000ADDED031A9DED021ADDED010A9DEDBD
:102D2000000AFEF729FE5FED210A1FED210AFFF7D9
:102D3000F7FC8DED030A5FED250A1FED250AFFF76D
:102D40002BFD8DED020AE24890ED010A8DED010A9E
:102D500090ED000A8DED000ADDED031A9DED021ADB
:102D6000DDED010A9DED000AFEF706FED84890ED64
:102D7000020A8DED030A5FED330A9DED030AFFF7AA
:102D800077FB049802287CD10598012879D15FED62
:102D9000430A1FED3D0AFFF7C3FC8DED030A5FED0B
:102DA000470A1FED410AFFF7F7FC8DED020ADDED42
:102DB000031A9DED021A5FED4D0A9FEDC40AFEF75E
:102DC000DBFD5FED480A1FED4A0AFFF7A9FC8DED18
:102DD000030A5FED4C0A1FED4E0AFFF7DDFC8DED97
:102DE000020ABB4890ED010A8DED010A90ED000A40
:102DF0008DED000ADDED031A9DED021ADDED010AED
:102E00009DED000AFEF7B8FD5FED5A0A1FED5A0A64
:102E1000FFF786FC8DED030A5FED5E0A1FED5E0A8B
:102E2000FFF7BAFC8DED020AA94890ED010A8DED7D
:102E3000010A90ED000A8DED000ADDED031A9DED0B
:102E4000021ADDED010A9DED000AFEF795FDDFEDAA
:102E50009F0A1FED6B0AFFF763FC8DED030ADFEDA0
:102E60009B0A1FED6F0AFFF797FC8DED020A984849
:102E700090ED010A8DED010A90ED000A8DED000A3A
:102E800000E014E0DDED031A9DED021ADDED010A0C
:102E90009DED000AFEF770FD8D4890ED020A8DED64
:102EA000030A5FED7E0A9DED030AFFF7E1FA04983D
:102EB00002287CD10598022879D15FED8E0A1FED9A
:102EC000880AFFF72DFC8DED030A5FED920A1FEDD6
:102ED0008C0AFFF761FC8DED020ADDED031A9DED12
:102EE000021A5FED980A9FED790AFEF745FD5FED46
:102EF000930A1FED950AFFF713FC8DED030A5FEDB2
:102F0000970A1FED990AFFF747FC8DED020A7048FA
:102F100090ED010A8DED010A90ED000A8DED000A99
:102F2000DDED031A9DED021ADDED010A9DED000AAB
:102F3000FEF722FD5FEDA50A1FEDA50AFFF7F0FBE6
:102F40008DED030A5FEDA90A1FEDA90AFFF724FC26
:102F50008DED020A5E4890ED010A8DED010A90EDBB
:102F6000000A8DED000ADDED031A9DED021ADDED7C
:102F7000010A9DED000AFEF7FFFC5FEDBE0A1FEDA2
:102F8000B60AFFF7CDFB8DED030A5FEDC20A1FED18
:102F9000BA0AFFF701FC8DED020A4D4890ED010AD7
:102FA0008DED010A90ED000A8DED000A00E014E0BD
:102FB000DDED031A9DED021ADDED010A9DED000A1B
:102FC000FEF7DAFC424890ED020A8DED030A5FED50
:102FD000C90A9DED030AFFF74BFA0498F0BB059868
:102FE00002286CD15FEDD10A1FEDD30AFFF798FBE1
:102FF0008DED030A5FEDD50A1FEDD70AFFF7CCFB75
:103000008DED020ADDED031A9DED021A5FEDDB0A7C
:103010009FED2E0AFEF7B0FC5FEDE60A1FEDE00A19
:10302000FFF77EFB8DED030A5FEDEA0A1FEDE40A70
:10303000FFF7B2FB8DED020A254890ED010A8DEDF8
:10304000010A90ED000A8DED000ADDED031A9DEDF9
:10305000021ADDED010A9DED000A00E02FE0FEF707
:103060008BFC5FEDF80A1FEDF00AFFF759FB8DEDC1
:10307000030A5FEDFC0A1FEDF40AFFF78DFB8DEDEF
:10308000020A134890ED010A8DED010A90ED000A45
:103090008DED000ADDED031A9DED021ADDED010A4A
:1030A0009DED000AFEF768FC094890ED020A8DEDDF
:1030B000030ADFED080A9DED030AFFF7D9F904982A
:1030C00000287DD1059801287AD105E00000000094
:1030D0006803002000003443DFEDFE0A9FEDFE0A86
:1030E000FFF71EFB8DED030ADFEDFA0A9FEDFA0AEA
:1030F000FFF752FB8DED020ADDED031A9DED021A7A
:10310000DFEDF40A1FED0F0AFEF736FCDFEDF30AE0
:103110009FEDF10AFFF704FB8DED030ADFEDEF0AE7
:103120009FEDED0AFFF738FB8DED020AEC4890EDBC
:10313000010A8DED010A90ED000A8DED000ADDED2A
:10314000031A9DED021ADDED010A9DED000AFEF75E
:1031500013FCDFEDE20A9FEDE30AFFF7E1FA8DEDE4
:10316000030ADFEDDE0A9FEDDF0AFFF715FB8DEDA9
:10317000020ADB4800E0C3E090ED010A8DED010A90
:1031800090ED000A8DED000ADDED031A9DED021AA7
:10319000DDED010A9DED000AFEF7EEFB5FED350A5D
:1031A0009FEDD00AFFF7BCFA8DED030A5FED390AF7
:1031B0009FEDCC0AFFF7F0FA8DED020AC84800E057
:1031C0001CE090ED010A8DED010A90ED000A8DEDF5
:1031D000000ADDED031A9DED021ADDED010A9DEDF9
:1031E000000AFEF7C9FBBE4890ED020A8DED030A06
:1031F0005FED480A9DED030AFFF73AF904980028AD
:103200007ED1059800287BD1DFEDB20A9FEDB20A8E
:10321000FFF786FA8DED030ADFEDAE0A9FEDAE0AE9
:10322000FFF7BAFA8DED020ADDED031A9DED021AE1
:10323000DFEDA80A1FED5B0AFEF79EFBDFEDA70A94
:103240009FEDA50AFFF76CFA8DED030ADFEDA30AE7
:103250009FEDA10AFFF7A0FA8DED020AA04890EDBC
:10326000010A8DED010A90ED000A8DED000ADDEDF9
:10327000031A9DED021ADDED010A9DED000AFEF72D
:103280007BFBDFED960A9FED970AFFF749FA8DED7C
:10329000030ADFED920A9FED930AFFF77DFA8DEDA9
:1032A000020A8F4890ED010A8DED010A90ED000AA7
:1032B0008DED000ADDED031A9DED021ADDED010A28
:1032C0009DED000AFEF758FBDFED820A9FED850AAF
:1032D000FFF726FA8DED030ADFED7E0A9FED810AE6
:1032E000FFF75AFA8DED020A7D4890ED010A8DED47
:1032F000010A90ED000A8DED000ADDED031A00E0F1
:1033000012E09DED021ADDED010A9DED000AFEF7C7
:1033100033FB734890ED020A8DED030A5FED930ACB
:103320009DED030AFFF7A4F8069801287DD10498C3
:1033300001287BD10598012878D1DFED680A1FEDBF
:103340009D0AFFF7EDF98DED030ADFED640A1FED2D
:10335000A10AFFF721FA8DED020A614890ED010AFA
:103360008DED010A90ED000A8DED000ADDED031AE6
:103370009DED021ADDED010A9DED000AFEF7FCFA53
:10338000DFED560A9FED580AFFF7CAF98DED030AE3
:10339000DFED520A9FED540AFFF7FEF98DED020AA8
:1033A0004F4890ED010A8DED010A90ED000A8DED78
:1033B000000ADDED031A9DED021ADDED010A9DED17
:1033C000000AFEF7D9FADFED490A9FED470AFFF739
:1033D000A7F98DED030ADFED450A9FED430AFFF7DC
:1033E000DBF98DED020A3E4890ED010A8DED010AF0
:1033F00090ED000A8DED000ADDED031A9DED021A35
:10340000DDED010A9DED000AFEF7B6FADFED370AA1
:103410009FED370AFFF784F98DED030ADFED330ADC
:103420009FED330AFFF7B8F901E0ECE339E08DEDE9
:10343000020A2B4890ED010A8DED010A90ED000A79
:103440008DED000ADDED031A9DED021ADDED010A96
:103450009DED000AFEF790FA214890ED020A8DEDED
:10346000030ADFED240A9DED030AFFF701F8DFED03
:10347000220A1FEDEA0AFFF753F98DED030ADFED8B
:103480001E0A1FEDEE0AFFF787F98DED020ADDED4A
:10349000031A9DED021A5FEDF30A1FEDF40AFEF721
:1034A0006BFA049801287CD10598002879D1DFEDCA
:1034B0000B0A1FEDFA0AFFF733F98DED030ADFED72
:1034C000070A9FED0E0AFFF767F98DED020A04481F
:1034D00016E000000000FA4300409CC40000FAC35C
:1034E0006803002000A00CC5008089C400001644B9
:1034F0000000E1C400003EC300801844000000004A
:1035000090ED010A8DED010A90ED000A8DED000AA3
:10351000DDED031A9DED021ADDED010A9DED000AB5
:10352000FEF72AFA5FED130A1FED150AFFF7F8F808
:103530008DED030A5FED170A1FED190AFFF72CF94D
:103540008DED020AFB4890ED010A8DED010A90ED28
:10355000000A8DED000ADDED031A9DED021ADDED86
:10356000010A9DED000AFEF707FA5FED260A1FED3E
:10357000260AFFF7D5F88DED030A5FED2A0A1FED45
:103580002A0AFFF709F98DED020AEA4890ED010ACF
:103590008DED010A90ED000A8DED000ADDED031AB4
:1035A00000E035E09DED021ADDED010A9DED000A17
:1035B000FEF7E2F95FED390A1FED360AFFF7B0F8C2
:1035C0008DED030A5FED3D0A1FED3A0AFFF7E4F8BF
:1035D0008DED020AD74890ED010A8DED010A90EDBC
:1035E000000A8DED000ADDED031A9DED021ADDEDF6
:1035F000010A9DED000AFEF7BFF9CE4890ED020AE0
:103600008DED030ADFEDCC0A9DED030AFEF730FFD6
:10361000049801287DD1059802287AD15FED530ADC
:103620001FED4A0AFFF77CF88DED030A5FED570A9C
:103630001FED4E0AFFF7B0F88DED020ABD4890ED80
:10364000010A8DED010A90ED000A8DED000ADDED15
:10365000031A9DED021ADDED010A9DED000AFEF749
:103660008BF95FED640A1FED640AFFF759F88DEDE1
:10367000030A5FED680A1FED680AFFF78DF88DED0C
:10368000020AAC4890ED010A8DED010A90ED000AA6
:103690008DED000ADDED031A9DED021ADDED010A44
:1036A0009DED000AFEF768F95FED740A1FED760ADA
:1036B000FFF736F88DED030A5FED780A1FED7A0A01
:1036C000FFF76AF88DED020A9A4890ED010A8DED38
:1036D000010A90ED000A8DED000ADDED031A9DED63
:1036E000021ADDED010A9DED000AFEF745F95FEDD6
:1036F000850A1FED840AFFF713F88DED030A5FEDCD
:10370000890A1FED880AFFF747F88DED020A8948FC
:1037100000E01CE090ED010A8DED010A90ED000A39
:103720008DED000ADDED031A9DED021ADDED010AB3
:103730009DED000AFEF720F97E4890ED020A8DED1E
:10374000030ADFED7D0A9DED030AFEF791FE049862
:1037500002286ED10598E8BB5FEDA00A1FEDA20A12
:10376000FEF7DEFF8DED030A5FEDA40A1FEDA60A4A
:10377000FFF712F88DED020ADDED031A9DED021A36
:103780005FEDAA0A1FEDA30AFEF7F6F85FEDAF0A98
:103790001FEDAF0AFEF7C4FF8DED030A5FEDB30A1C
:1037A0001FEDB30AFEF7F8FF8DED020A614890EDB8
:1037B000010A8DED010A90ED000A8DED000ADDEDA4
:1037C000031A9DED021ADDED010A9DED000AFEF7D8
:1037D000D3F800E02DE05FEDC10A1FEDBE0AFEF751
:1037E0009FFF8DED030A5FEDC50A1FEDC20AFEF7CC
:1037F000D3FF8DED020A4F4890ED010A8DED010ACD
:1038000090ED000A8DED000ADDED031A9DED021A20
:10381000DDED010A9DED000AFEF7AEF8454890ED9A
:10382000020A8DED030ADFED440A9DED030AFEF75F
:103830001FFE049802287CD10598012879D15FEDFC
:10384000D90A1FEDDB0AFEF76BFF8DED030A5FED72
:10385000DD0A1FEDDF0AFEF79FFF8DED020ADDEDA9
:10386000031A9DED021A5FEDE30A1FEDDC0AFEF775
:1038700083F85FEDE80A1FEDE80AFEF751FF8DEDD2
:10388000030A5FEDEC0A1FEDEC0AFEF785FF8DEDF4
:10389000020A284890ED010A8DED010A90ED000A18
:1038A0008DED000ADDED031A9DED021ADDED010A32
:1038B0009DED000AFEF760F85FEDFA0A1FEDF70ACA
:1038C000FEF72EFF8DED030ADFED1C0A1FEDFB0A4C
:1038D000FEF762FF8DED020A164890ED010A8DEDAC
:1038E000010A90ED000A8DED000ADDED031A9DED51
:1038F000021ADDED010A9DED000AFEF73DF8DFED4D
:10390000100A9FED100AFEF70BFF8DED030ADFEDA5
:103910000C0A9FED0C0AFEF73FFF8DED020A0548E9
:1039200090ED010A8DED010A90ED000A8DED000A7F
:103930000AE01EE068030020000034430000FA4360
:103940000000000000A00CC5DDED031A9DED021A79
:10395000DDED010A9DED000AFEF70EF8FE4890ED40
:10396000020A8DED030A5FED0C0A9DED030AFEF7D6
:103970007FFD049802287CD10598022879D1DFEDDB
:10398000F70A9FEDF70AFEF7CBFE8DED030ADFED98
:10399000F30A9FEDF30AFEF7FFFE8DED020ADDED5F
:1039A000031A9DED021ADFEDED0A1FED1B0AFDF76C
:1039B000E3FF5FED1E0A9FEDEA0AFEF7B1FE8DED13
:1039C000030A5FED220A9FEDE60AFEF7E5FE8DEDA4
:1039D000020AE14890ED010A8DED010A90ED000A1E
:1039E0008DED000ADDED031A9DED021ADDED010AF1
:1039F0009DED000AFDF7C0FF5FED300A1FED2F0AB5
:103A0000FEF78EFE8DED030A5FED340A1FED330ADB
:103A1000FEF7C2FE8DED020ACF4890ED010A8DED52
:103A2000010A90ED000A8DED000ADDED031A9DED0F
:103A3000021ADDED010A9DED000AFDF79DFFDFEDA5
:103A4000C70A1FED400AFEF76BFE8DED030ADFED9E
:103A5000C30A1FED440AFEF79FFE8DED020ABE4821
:103A600090ED010A8DED010A90ED000A8DED000A3E
:103A700000E014E0DDED031A9DED021ADDED010A10
:103A80009DED000AFDF778FFB34890ED020A8DED39
:103A9000030A5FED570A9DED030AFEF7E9FC04985F
:103AA000F0BB059802286CD15FED5C0A9FEDAC0A73
:103AB000FEF736FE8DED030A5FED600A9FEDA80A62
:103AC000FEF76AFE8DED020ADDED031A9DED021A86
:103AD0005FED660A1FED660AFDF74EFFDFED9F0AF8
:103AE0009FED9F0AFEF71CFE8DED030ADFED9B0A9A
:103AF0009FED9B0AFEF750FE8DED020A964890ED71
:103B0000010A8DED010A90ED000A8DED000ADDED50
:103B1000031A9DED021ADDED010A9DED000A00E099
:103B20002FE0FDF729FFDFED8D0A1FED7A0AFEF782
:103B3000F7FD8DED030ADFED890A1FED7E0AFEF722
:103B40002BFE8DED020A844890ED010A8DED010AED
:103B500090ED000A8DED000ADDED031A9DED021ACD
:103B6000DDED010A9DED000AFDF706FF7A4890EDB4
:103B7000020A8DED030A5FED900A9DED030AFEF740
:103B800077FC0498F0BB059801283BD15FED950ABE
:103B90009FED730AFEF7C4FD8DED030A5FED990AF0
:103BA0009FED6F0AFEF7F8FD8DED020ADDED031AB9
:103BB0009DED021A5FED9F0A1FED9F0AFDF7DCFEE7
:103BC000DFED660A9FED660AFEF7AAFD8DED030A9A
:103BD000DFED620A9FED620AFEF7DEFD8DED020A5F
:103BE0005D4890ED010A8DED010A90ED000A8DED22
:103BF000000ADDED031A9DED021ADDED010A9DEDCF
:103C0000000A01E053E092E0FDF7B6FEDFED530A53
:103C10001FEDB40AFEF784FD8DED030ADFED4F0AB8
:103C20001FEDB80AFEF7B8FD8DED020A4A4890ED87
:103C3000010A8DED010A90ED000A8DED000ADDED1F
:103C4000031A9DED021ADDED010A9DED000AFDF754
:103C500093FE5FEDC50A1FEDC50AFEF761FD8DED10
:103C6000030A5FEDC90A1FEDC90AFEF795FD8DED48
:103C7000020A394890ED010A8DED010A90ED000A23
:103C80008DED000ADDED031A9DED021ADDED010A4E
:103C90009DED000AFDF770FE2F4890ED020A8DEDB4
:103CA000030A5FEDDB0A9DED030AFEF7E1FB0498D2
:103CB000E8BB0598D8BB5FEDDF0A9FED290AFEF748
:103CC0002FFD8DED030A5FEDE30A9FED250AFEF758
:103CD00063FD8DED020ADDED031A9DED021A5FED25
:103CE000E90A1FEDE90AFDF747FEDFED1C0A9FED2B
:103CF0001C0AFEF715FD8DED030ADFED180A9FED96
:103D0000180AFEF749FD8DED020A134890ED010AED
:103D10008DED010A90ED000A8DED000ADDED031A2C
:103D20009DED021ADDED010A9DED000A00E05BE069
:103D3000FDF722FEDFED090A9FED0A0AFEF7F0FC0F
:103D40008DED030ADFED050A9FED060AFEF724FD5F
:103D50008DED020A004807E0680300200000FAC366
:103D600000409CC400A00CC590ED010A8DED010A35
:103D700090ED000A8DED000ADDED031A9DED021AAB
:103D8000DDED010A9DED000AFDF7F6FDDFEDFD0A10
:103D90001FED0C0AFEF7C4FC8DED030ADFEDF90AF6
:103DA0001FED100AFEF7F8FC8DED020AF64890EDC3
:103DB000010A8DED010A90ED000A8DED000ADDED9E
:103DC000031A9DED021ADDED010A9DED000AFDF7D3
:103DD000D3FDED4890ED020A8DED030ADFEDEB0A0D
:103DE0009DED030AFEF744FB07B000BD70B52DED55
:103DF000048B04460D46012C3FD1012D3DD19FED92
:103E0000E40AFEF733FCDFEDE30A9FEDE30AFEF779
:103E100087FCB0EE408ADFEDDF0A9FEDDF0AFEF798
:103E2000BBFCF0EE408AF0EE481AB0EE681ADFED07
:103E3000D90A9FEDD80AFDF79FFD9FEDD80AFEF73E
:103E400015FCDFEDD40A9FEDD40AFEF769FCB0EE55
:103E5000408ADFEDD00A9FEDD00AFEF79DFCF0EE20
:103E6000408ADFEDCC1A9FEDCB1AF0EE480AFDF741
:103E700083FD9FEDCB0AFEF7F9FB012C7ED1022DCD
:103E8000FCD1DFEDC80A9FEDC30AFEF749FCB0EE96
:103E9000408ADFEDC40A9FEDBF0AFEF77DFCF0EE1D
:103EA000408AF0EE481AB0EE681ADFEDBA0A9FEDCC
:103EB000B90AFDF761FD9FEDBC0A00F045FCDFED9E
:103EC000B90A9FEDBA0AFEF72BFCB0EE408ADFED8F
:103ED000B50A9FEDB60AFEF75FFCF0EE408ADFED13
:103EE000B10A9FEDAC0AFEF71BFCB0EE409ADFED85
:103EF000AD0A9FEDA80AFEF74FFCF0EE409AF0EEF7
:103F0000481AB0EE681AF0EE490AFDF735FD9FED4C
:103F1000A80AFEF7ABFBF3EE0E0A9FEDA40AFEF72C
:103F2000FFFBB0EE408AF3EE0E0A9FEDA00AFEF70B
:103F300033FCF0EE408ADFED9B0A9FED9C0AFEF712
:103F4000EFFBB0EE409ADFED970A9FED980AFEF77F
:103F500023FCF0EE409AF0EE481AB0EE681AF0EE4C
:103F6000490AFDF709FD9FED8D0AFEF77FFBDFEDA6
:103F70008D0A9FED8E0AFEF7D3FB00E065E0B0EE00
:103F8000408ADFED880A9FED890AFEF705FCF0EE16
:103F9000408AF3EE0E0A9FED850AFEF7C1FBB0EEF4
:103FA000409AF3EE0E0A9FED810AFEF7F5FBF0EE64
:103FB000409AF0EE481AB0EE681AF0EE490AFDF7A2
:103FC000DBFCDFED780A9FED730AFEF7A9FBB0EE8C
:103FD000408ADFED740A9FED6F0AFEF7DDFBF0EE1D
:103FE000408ADFED700A9FED710AFEF799FBB0EE93
:103FF000409ADFED6C0A9FED6D0AFEF7CDFBF0EE07
:10400000409AF0EE481AB0EE681AF0EE490AFDF751
:10401000B3FCDFED640A9FED5F0AFEF781FBB0EEB3
:10402000408ADFED600A9FED5B0AFEF7B5FBF0EE1C
:10403000408ADFED581A9FED571AF0EE480AFDF757
:104040009BFC9FED570AFEF711FBDCBB012D39D11C
:104050009FED580AFEF70AFBDFED4E0A9FED4E0A70
:10406000FEF75EFBB0EE408ADFED4A0A9FED4A0A9A
:10407000FEF792FBF0EE408AF0EE481AB0EE681AB6
:10408000DFED440A9FED430AFDF776FC9FED440AFD
:10409000FEF7ECFADFED3F0A9FED3F0AFEF740FB2B
:1040A000B0EE408ADFED3B0A9FED3B0AFEF774FB62
:1040B000F0EE408ADFED371A9FED361AF0EE480A2F
:1040C000FDF75AFC002C5CD1022DFCD1DFED350A46
:1040D0009FED300AFEF724FBB0EE408ADFED310A97
:1040E0009FED2C0AFEF758FBF0EE408AF0EE481ADE
:1040F000B0EE681ADFED270A9FED260AFDF73CFCBB
:104100009FED290A00F020FBDFED260A9FED270A2C
:10411000FEF706FBB0EE408ADFED220A9FED230A90
:10412000FEF73AFBF0EE408ADFED1E0A9FED190A1A
:10413000FEF7F6FAB0EE409ADFED1A0A9FED150A87
:10414000FEF72AFBF0EE409AF0EE481AB0EE681A3D
:10415000F0EE490AFDF710FC9FED160AFEF786FA0D
:10416000F3EE0E0A9FED110AFEF7DAFAB0EE408A7E
:10417000F3EE0E0A9FED0D0AFEF70EFBF0EE408AFD
:104180001AE09DE00000FA43680300200000344379
:1041900000E076C5000000000000B443002099C58F
:1041A0000000AFC400007A430000B2420000B943EF
:1041B00000007AC50000B4C35FED060A1FED050AD2
:1041C000FEF7AEFAB0EE409A5FED0A0A1FED090A5B
:1041D000FEF7E2FAF0EE409AF0EE481AB0EE681AF6
:1041E000F0EE490AFDF7C8FB1FED130AFEF73EFA91
:1041F0005FED140A1FED130AFEF792FAB0EE408A43
:104200005FED180A1FED170AFEF7C6FAF0EE408AB6
:10421000F3EE0E0A1FED1B0AFEF782FAB0EE409A8B
:10422000F3EE0E0A1FED1F0AFEF7B6FAF0EE409A03
:10423000F0EE481AB0EE681AF0EE490AFDF79CFB62
:104240005FED280A1FED2D0AFEF76AFAB0EE408AEC
:104250005FED2C0A1FED310AFEF79EFAF0EE408A60
:104260005FED300A1FED2F0AFEF75AFAB0EE409AC2
:104270005FED340A1FED330AFEF78EFAF0EE409A36
:10428000F0EE481AB0EE681AF0EE490AFDF774FB3A
:104290005FED3C0A1FED410AFEF742FAB0EE408A9C
:1042A0005FED400A1FED450AFEF776FAF0EE408A10
:1042B0005FED481A1FED491AF0EE480AFDF75CFB66
:1042C000BDEC048B70BD70B52DED048B05460C461E
:1042D000012D45D1012C20D11FED4A0AFEF7C6F968
:1042E0005FED540A9FEDC00AFEF71AFAB0EE408A5D
:1042F0005FED580A9FEDBC0AFEF74EFAF0EE408AD9
:104300005FED5C1A1FED5D1AF0EE480AFDF734FB15
:104310001FED600AFEF7AAF912E100F04CFA1FED5A
:104320005B0AFEF7A3F95FED650A9FEDAF0AFEF7A2
:10433000F7F9B0EE408A5FED690A9FEDAB0AFEF730
:104340002BFAF0EE408A5FED6D1A1FED6E1AF0EE5B
:10435000480AFDF711FB1FED710AFEF787F9EFE040
:10436000022C75D11FED6D0AFEF780F9DFED9F0A73
:104370001FED780AFEF7D4F9B0EE408ADFED9B0A14
:104380001FED7C0AFEF708FAF0EE408AF0EE481ABC
:10439000B0EE681A5FED810A1FED820AFDF7ECFAB4
:1043A000DFED920A9FED920AFEF7BAF9B0EE408A6D
:1043B000DFED8E0A9FED8E0AFEF7EEF9F0EE408AF1
:1043C000DFED8A0A1FED8D0AFEF7AAF9B0EE409ADA
:1043D000DFED860A1FED910AFEF7DEF9F0EE409A56
:1043E000F0EE481AB0EE681AF0EE490AFDF7C4FA8A
:1043F0005FED980A9FED7E0AFEF792F9B0EE408AD3
:104400005FED9C0A9FED7A0AFEF7C6F9F0EE408A4E
:10441000DFED760A9FED760AFEF782F9B0EE409A5C
:10442000DFED720A9FED720AFEF7B6F9F0EE409AE0
:10443000F0EE481AB0EE681AF0EE490AFDF79CFA61
:104440001FEDAC0AFEF712F900F0B5F978E0FFE7CE
:104450001FEDAB0A00F078F91FEDAA0AFEF706F986
:10446000DFED620A1FEDB50AFEF75AF9B0EE408A99
:10447000DFED5E0A1FEDB90AFEF78EF9F0EE408A15
:10448000F0EE481AB0EE681A5FEDBE0A1FEDBF0AE3
:10449000FDF772FADFED550A9FED550AFEF740F978
:1044A000B0EE408ADFED510A9FED510AFEF774F934
:1044B000F0EE408ADFED4D0A1FEDCA0AFEF730F933
:1044C000B0EE409ADFED490A1FEDCE0AFEF764F91F
:1044D000F0EE409AF0EE481AB0EE681AF0EE490A93
:1044E000FDF74AFA5FEDD50A9FED410AFEF718F98C
:1044F000B0EE408A5FEDD90A9FED3D0AFEF74CF918
:10450000F0EE408ADFED390A9FED390AFEF708F92F
:10451000B0EE409ADFED350A9FED350AFEF73CF923
:10452000F0EE409AF0EE481AB0EE681AF0EE490A42
:10453000FDF722FA1FEDE90AFEF798F800F03BF9C3
:10454000BDEC048B70BD02466FF002012948D0ED2E
:10455000030AF4EEC00AF1EE10FA09D2D0ED030A14
:10456000B1EE401AF4EEC10AF1EE10FA00DD491C7A
:104570002148D0ED030AF4EEC00AF1EE10FA09D298
:10458000D0ED030AB1EE401AF4EEC10AF1EE10FAD2
:1045900000DD491C1948D0ED030AF4EEC00AF1EE23
:1045A00010FA09D2D0ED030AB1EE401AF4EEC10AB6
:1045B000F1EE10FA00DD491C1148D0ED030AF4EECB
:1045C000C00AF1EE10FA09D2D0ED030AB1EE401A9A
:1045D000F4EEC10AF1EE10FA00DD491C914201DD52
:1045E000012070470020FCE700009643000048438C
:1045F000000096C35C00002080000020A400002082
:10460000C80000201CB50121202001F085FB4FF4DB
:10461000C060009001208DF8040000208DF8060095
:1046200003208DF8050001208DF807006946044835
:1046300001F0D4F84FF4C061014801F04BF91CBD02
:10464000001402401CB50121112001F065FB1C2063
:10465000009000208DF8040003208DF80500012053
:104660008DF807006946354801F0B8F80120009040
:1046700002208DF807006946314801F0AFF81CBDF3
:1046800010B5044614B101202E4908702D48007859
:10469000002837D01021294801F002F978B108210B
:1046A000264801F0FDF850B10421244801F0F8F843
:1046B00028B10121224801F0F3F8012822D10A2073
:1046C00000F03CFC00201F49087010211B4801F03D
:1046D000E7F808B9012010BD0821184801F0E0F8FA
:1046E00008B90220F7E70421144801F0D9F808B905
:1046F0000320F0E70121124801F0D2F801281BD174
:104700000420E8E710210D4801F0CAF8012813D170
:1047100008210A4801F0C4F801280DD104210748F6
:1047200001F0BEF8012807D10121054801F0B8F8D1
:1047300010B90120034908700020CCE700100240A6
:10474000000002401800002010B52DED028BB0EEE5
:10475000408AB5EEC08AF1EE10FA0ED89FED3E0AFF
:1047600028EE000ADFED3D0A80EE201A9FED3C0A9C
:1047700030EE410AB0EE408A0DE09FED3A0A28EE95
:10478000000A9FED361AC0EE010A9FED350A30EEA1
:10479000800AB0EE408ABDEEC80AB8EEC00AB0EE9C
:1047A000408ABCEEC80A10EE101A2F4802F0C5FD70
:1047B000BDEC028B10BD00B58BB00121042001F0CF
:1047C000F4FA0121082001F0A7FA02220C2127485F
:1047D00001F08FF84FF48050099002208DF82800E6
:1047E00003208DF8290000208DF82A0001208DF883
:1047F0002B0009A91D4800F0F1FF5320ADF8180067
:104800000020ADF81A0044F61F6007900020ADF8B4
:10481000200006A9144802F0A2FB6020ADF80400B5
:104820000120ADF806000220ADF8100001A90E48E5
:1048300002F02AFC08210C4802F0B3FD01210A48CD
:1048400002F0F8FB0121084802F012FCBFEE000A5A
:10485000FFF77AFF0BB000BD004083440000B44274
:1048600000EC9046004083C400080040000C024069
:1048700010B50121084601F04FFA0121022001F094
:104880004BFA0121042001F047FA0121082001F030
:1048900043FA0121102001F03FFA10BD1CB502209F
:1048A000009000208DF8040002208DF80500012002
:1048B0008DF807006946FA4800F090FF4FF4007049
:1048C000009000208DF8040002208DF805000120E2
:1048D0008DF807006946F34800F080FF80200090C3
:1048E00000208DF8040002208DF8050001208DF8CD
:1048F00007006946EB4800F071FF2020009000207F
:104900008DF8040002208DF8050001208DF80700C5
:104910006946E44800F062FF8020009000208DF896
:10492000040002208DF8050001208DF8070069467B
:10493000DD4800F053FF2020009000208DF8040097
:1049400002208DF8050001208DF807006946D64841
:1049500000F044FF0820009000208DF804000220A1
:104960008DF8050001208DF807006946CE4800F05B
:1049700035FF1CBD10B50221C94800F091FF012888
:1049800024D14102C74800F08BFF01281ED18021AD
:10499000C44800F085FF012818D12021C14800F04B
:1049A0007FFF012812D18021BF4800F079FF012844
:1049B0000CD12021BC4800F073FF012806D108214A
:1049C000B94800F06DFF012800D110BD0020FCE7C0
:1049D00010B50221B24800F063FF00BB4FF4007134
:1049E000B04800F05DFFD0B98021AE4800F058FF1C
:1049F000A8B92021AB4800F053FF80B98021AA4814
:104A000000F04EFF58B92021A74800F049FF30B907
:104A10000821A54800F044FF08B9012010BD00207E
:104A2000FCE770B50546002402219D4800F038FFE0
:104A3000012801D1601CC4B24FF40071994800F004
:104A40002FFF012801D1601CC4B28021954800F0DD
:104A500027FF012801D1601CC4B22021914800F039
:104A60001FFF012801D1601CC4B280218E4800F0D4
:104A700017FF012801D1601CC4B220218A4800F030
:104A80000FFF012801D1601CC4B20821864800F044
:104A900007FF012801D1601CC4B2AC4201DB012038
:104AA00070BD0020FCE710B502217D4800F0F8FE43
:104AB000E8B94FF400717B4800F0F2FEB8B98021EC
:104AC000784800F0EDFE90B92021764800F0E8FE2D
:104AD00068B90821744800F0E3FE012805D02021C0
:104AE000714800F0DDFE012801D1012010BD002039
:104AF000FCE710B508216C4800F0D2FEE8B920218F
:104B0000694800F0CDFEC0B98021674800F0C8FEBA
:104B100098B92021634800F0C3FE70B902216048B3
:104B200000F0BEFE012806D04FF400715D4800F091
:104B3000B7FE012801D1012010BD0020FCE710B50F
:104B40000821594800F0ACFE18BB2021564800F05F
:104B5000A7FEF0B90221524800F0A2FEC8B94FF4F6
:104B60000071504800F09CFE98B980214D4800F03B
:104B700097FE01280BD020214A4800F091FE012821
:104B800005D08021484800F08BFE012801D101208A
:104B900010BD0020FCE710B59FED442ADFED441A5C
:104BA0009FED441ADFED430A9FED410AFCF7E2FD59
:104BB000012000F0C3F910BD10B59FED3C2ADFEDD8
:104BC0003D1A9FED3B1ADFED3A0A9FED3A0AFCF7DA
:104BD000D1FD012000F0B2F910BD10B59FED332AD0
:104BE000DFED341A9FED331ADFED310A9FED300A05
:104BF000FCF7C0FD012000F0A1F910BD10B59FED3C
:104C00002B2ADFED2B1A9FED2A1ADFED2A0A9FEDE2
:104C1000290AFCF7AFFD012000F090F910BD10B596
:104C20009FED222ADFED211A9FED201ADFED1F0AEA
:104C30009FED1E0AFCF79EFD012000F07FF910BDDC
:104C400010B50221164800F02BFE18B91AA002F088
:104C50002BFF02E01AA002F027FF4FF40071114869
:104C600000F01EFE18B918A002F01EFF02E018A006
:104C700002F01AFF80210B4800F012FE18B916A0AE
:104C800002F012FF02E016A002F00EFF20210548FC
:104C900000F006FE18B914A002F006FF2BE027E092
:104CA0000010024000040240000C0240000000001E
:104CB00000004842000048C2313A20570A00000074
:104CC000313A20420A000000323A20570A00000020
:104CD000323A20420A000000333A20570A0000000E
:104CE000333A20420A000000343A20570A000000FC
:104CF00050A002F0D9FE8021504800F0D1FD18B933
:104D00004FA002F0D1FE02E04FA002F0CDFE202124
:104D10004A4800F0C5FD18B94DA002F0C5FE02E0FA
:104D20004DA002F0C1FE0821444800F0B9FD18B9B9
:104D30004BA002F0B9FE02E04BA002F0B5FE10BDA0
:104D400000204B4908704B490870704710B5FFF7B9
:104D5000F6FE38B1474800784549087001204549BA
:104D6000087023E0FFF79FFE38B1424800784049C1
:104D7000087002203F49087018E0FFF7BAFE38B10A
:104D80003C4800783A49087003203A4908700DE021
:104D90000420FFF746FE10B9FFF71AFE30B1354880
:104DA0000078334908700020324908703148007893
:104DB000E8B9FFF70DFED0B12D480078022801D1E7
:104DC0002C4908702A480078032801D12949087025
:104DD0002748007801280AD10420FFF722FE18B1E5
:104DE00000202449087002E001202249087021486F
:104DF000007878B1012804D0022805D003280CD10E
:104E000005E0FFF7C8FE0CE0FFF7E7FE09E0FFF75B
:104E1000F5FE06E0FFF703FF03E00A2000F08EF83E
:104E200000BF00BF0420FFF7FCFD08B1012010BD4A
:104E30000020FCE7343A20420A000000000C024047
:104E4000353A20570A000000353A20420A00000097
:104E5000363A20570A000000363A20420A00000085
:104E6000373A20570A000000373A20420A00000073
:104E70001A0000201900002010B504466FF004004D
:104E800000F008FCE11704EB5171C1F3C701394A86
:104E900011701046007800EB4001C1EBC0104FF6D6
:104EA000FF7101EAC0003449088010BD0146314A53
:104EB00012784A434FF0E0235A6100229A611A4661
:104EC000126942F001021A6100BF4FF0E02210693E
:104ED00000F001021AB100F48032002AF5D04FF040
:104EE000E022126922F001024FF0E0231A61002251
:104EF0009A6170470146204A12884A434FF0E023E6
:104F00005A6100229A611A46126942F001021A613E
:104F100000BF4FF0E022106900F001021AB100F466
:104F20008032002AF5D04FF0E022126922F001020F
:104F30004FF0E0231A6100229A61704770B5044671
:104F40004FF4077094FBF0F0C6B24FF4077094FB77
:104F5000F0F100FB114085B205E04FF40770FFF758
:104F6000C9FF701EC6B2002EF7D115B12846FFF753
:104F7000C1FF70BD1C0000201E00002000BF704754
:104F800000BFF84A128802F04002002AF9D0C2B2EB
:104F9000F44B9A80704710B588B00446012108464A
:104FA00000F0BAFE0121102000F010FF07220921B5
:104FB000ED4800F09EFC07220A21EB4800F099FC26
:104FC0004FF4C060069002208DF81C008DF81D0083
:104FD00000208DF81E0001208DF81F0006A9E24870
:104FE00000F0FCFB02940020ADF80C00ADF80E00C0
:104FF000ADF81000ADF814000C20ADF8120002A9B5
:10500000D84801F044F80121D64801F0C8F801223F
:1050100040F22551D34801F078F925208DF804009D
:1050200003208DF805008DF8060001208DF807009B
:1050300001A800F0E2FA08B010BD10B588B004462F
:105040000121022000F068FE0121880400F0ADFE7D
:1050500007220B21C54800F04CFC07220A21C34857
:1050600000F047FC4FF44060069002208DF81C00D1
:105070008DF81D0000208DF81E0001208DF81F0006
:1050800006A9BA4800F0AAFB02940020ADF80C0073
:10509000ADF80E00ADF81000ADF814000C20ADF81E
:1050A000120002A9B24800F0F2FF0121B04801F05D
:1050B00076F8012240F22551AD4801F026F927206B
:1050C0008DF8040001208DF8050000208DF8060001
:1050D00001208DF8070001A800F08FFA08B010BD7C
:1050E00010B588B004460121084600F015FE0121E4
:1050F000480400F05AFE072203219B4800F0F9FB08
:1051000007220221984800F0F4FB0C2006900220B0
:105110008DF81C008DF81D0000208DF81E00012068
:105120008DF81F0006A9904800F058FB029400205B
:10513000ADF80C00ADF80E00ADF81000ADF814009D
:105140000C20ADF8120002A98A4800F0A0FF01214E
:10515000884801F024F8012240F22551854801F0E9
:10516000D4F826208DF8040001208DF805000020D9
:105170008DF8060001208DF8070001A800F03DFA27
:1051800008B010BDFEB505460C4600260020009074
:105190000190029000BF8021754801F0DBF80028E3
:1051A000F9D05721724801F025F800BF402170481E
:1051B00001F0D0F80028F9D000BF80216C4801F040
:1051C000C9F80028F9D02946694801F013F800BF52
:1051D0004021674801F0BEF80028F9D01420FFF7FD
:1051E000ADFE45E064480088752802D00020634980
:1051F00008706248007808282FD100205F490870A5
:105200005D48C089072827D15B48408800900098F6
:10521000000200905849898800980843009000983F
:1052200020605548C08801900198000201905249C1
:105230000989019808430190019860604E484089AF
:1052400002900298000202904B4989890298084313
:1052500002900298A0600CE00BE00120FFF76EFEC8
:10526000701CC6B20A2E03D100204449087000E029
:10527000B8E700BFFEBDFEB505460C46002600207F
:1052800000900190029000BF80213A4801F062F83E
:105290000028F9D05721374800F0ACFF00BF40216B
:1052A000344801F057F80028F9D000BF8021314878
:1052B00001F050F80028F9D029462E4800F09AFF56
:1052C00000BF40212B4801F045F80028F9D0C82044
:1052D000FFF734FE58E02A480088752802D00020E5
:1052E000284908702748007808282FD10020254930
:1052F00008702348C089072827D12148408800909A
:105300000098000200901E49898800980843009088
:10531000009820601A48C08801900198000201900E
:105320001749098901980843019001986060144861
:1053300040890290029800020290114989890298DE
:10534000084302900298A0601FE01EE00120FFF7D2
:10535000F5FD701CC6B20A2E16D10020094908704E
:1053600013E0000000100140000002400004024071
:105370000048004000440040640400202600002053
:105380008404002027000020A5E700BFFEBD70B503
:1053900004460E46154600BF80217C4800F0DAFF27
:1053A0000028F9D04C21794800F024FF00BF4021AB
:1053B000764800F0CFFF0028F9D000BF8021734865
:1053C00000F0C8FF0028F9D02146704800F012FF15
:1053D00000BF40216D4800F0BDFF0028F9D000BF9C
:1053E00080216A4800F0B6FF0028F9D031466748AE
:1053F00000F000FF00BF4021644800F0ABFF002830
:10540000F9D000BF8021614800F0A4FF0028F9D046
:1054100029465E4800F0EEFE00BF40215B4800F0E8
:1054200099FF0028F9D070BD70B504460E461546A8
:1054300000BF8021564800F08DFF0028F9D04C2194
:10544000534800F0D7FE00BF4021514800F082FFD2
:105450000028F9D000BF80214D4800F07BFF0028D4
:10546000F9D021464A4800F0C5FE00BF4021484817
:1054700000F070FF0028F9D000BF8021444800F000
:1054800069FF0028F9D03146414800F0B3FE00BF63
:1054900040213F4800F05EFF0028F9D000BF802186
:1054A0003B4800F057FF0028F9D02946384800F063
:1054B000A1FE00BF4021364800F04CFF0028F9D083
:1054C00070BD10B540F22551324800F059FF10B3BD
:1054D000304800F093FEC4B22F48008800F400402A
:1054E000C8B92D48008800F4804060B10A2C03D070
:1054F00000202949088020E02748008840F4004027
:105500002549088019E00D2C06D12348008840F475
:1055100080402149088010E01F480088C0F30D003A
:105520001E490C541C480088401C1B490880084632
:105530000088C72801DD0020088010BD10B540F2AA
:105540002551124800F01CFF58B1104800F056FEDB
:1055500013490A780978491C114B1970114921F82F
:10556000120010BD10B540F22551094800F008FFA7
:1055700058B1074800F042FE0B490A780978491CE7
:10558000094B1970094921F8120010BD004800406C
:105590000044004000100140240000209C03002033
:1055A000260000206404002027000020840400203E
:1055B0000948804709480047FEE7FEE7FEE7FEE7A7
:1055C000FEE7FEE7FEE7FEE7FEE7FEE704480549E3
:1055D000054A064B70470000E904000889010008ED
:1055E00008050020080B00200807002008070020FD
:1055F00032490143324A1160704770B500210023DF
:105600000F22C4781CB32E4C246804F4E064C4F563
:10561000E064C4F30721C1F10404E3B20A41447811
:105620009C40E1B28478144021430C07210E254CA4
:1056300005786155047804F01F050124AC40057815
:105640006D11AD0005F1E025C5F8004109E00478D1
:1056500004F01F050124AC401B4D0678761145F877
:10566000264070BD194A0A400243154B1B1F1A60A1
:10567000704739B1124A121D12680243104B1B1DAC
:105680001A6006E00E4A121D126882430C4B1B1D65
:105690001A607047042808D14FF0E021096941F0F1
:1056A00004014FF0E022116107E04FF0E0210969A9
:1056B00021F004014FF0E022116170470000FA056B
:1056C0000CED00E000E400E080E100E080FFFF1F5F
:1056D00010B504469848844208D10121084600F0DC
:1056E00086FB0021012000F082FB76E09348844293
:1056F00008D10121022000F07AFB0021022000F0F5
:1057000076FB6AE08E48844208D10121042000F033
:105710006EFB0021042000F06AFB5EE089488442B1
:1057200008D10121082000F062FB0021082000F0D0
:105730005EFB52E08448844208D10121102000F031
:1057400056FB0021102000F052FB46E07F488442C7
:1057500008D10121202000F04AFB0021202000F088
:1057600046FB3AE07A48844208D10121402000F00B
:105770003EFB0021402000F03AFB2EE075488442B9
:1057800008D10121802000F032FB0021802000F0B0
:105790002EFB22E07048844208D10121801500F0E0
:1057A00026FB0021A01500F022FB16E06B48844286
:1057B00008D10121401500F01AFB0021601500F00E
:1057C00016FB0AE06648844207D10121001500F06B
:1057D0000EFB0021201500F00AFB10BDF0B50A46B3
:1057E00000210023002400BF3DE0012505FA01F35C
:1057F000156805EA03049C4234D105684F0003266E
:10580000BE40B543056015794E00B5400668354386
:1058100005601579012D02D01579022D16D1856804
:105820004F000326BE40B543856055794E00B54014
:10583000866835438560456801268E40B5434560DE
:10584000456896798E40B6B235434560C5684F00CD
:105850000326BE40B543C560D5794E00B540C66845
:105860003543C560491C1029BFD3F0BD4FF6FF7109
:1058700001600021017141718171C171704708B5EA
:105880004FF480320092009A0A430092009AC2615B
:10589000C161009AC261C2690092C269009208BDEA
:1058A0000246002013690B400BB1012000E00020EC
:1058B00070470146086980B270470246002053696C
:1058C0000B400BB1012000E0002070470146486901
:1058D00080B2704701837047418370470AB10183EA
:1058E00000E0418370474161704742694A4042612C
:1058F0007047F0B5002300244D07ED0E02FA05F3C2
:10590000CE1000F1200555F826504E07F70E0F2651
:10591000BE40B543CF1000F1200646F82750CE1008
:1059200000F1200555F8265045EA0304CE1000F199
:10593000200545F82640F0BD00000240000402406A
:1059400000080240000C0240001002400014024017
:1059500000180240001C02400020024000240240C7
:1059600000280240F948006840F00100F74908604B
:105970000020F64908310860F4480068F4490840FE
:10598000F2490860F348091D0860F348EF49843183
:105990000860F0481038091D0860EC48006820F4E1
:1059A0008020EA4908600020E8490C310860E74996
:1059B0008C31086070470021E44A921C1170114636
:1059C0000870704710B501460022002300204A11DC
:1059D000012A02D1DD4C236808E0022A03D1DB4C06
:1059E0007034236802E0D94C7434236801F01F023C
:1059F000012494401C400CB1012000E0002010BDA7
:105A000038B5002000900024002500BF3120FFF7AA
:105A1000D9FF05460098401C00900098B0F5A04FB3
:105A200001D0002DF2D03120FFF7CCFF08B10124C6
:105A300000E00024204638BD01460020C34A10681B
:105A400020F0F80040EAC10010607047C3490860C8
:105A500070470021BD4A703211701170012802D0C8
:105A600004280AD104E00121B84A7032117005E01F
:105A70000521B64A7032117000E000BF00BF7047C8
:105A8000B7490860704770B5049C41EA8215012649
:105A9000C6EB530645EA0645054345EA0465AB4EA9
:105AA000361D356070BDAD4908667047820142EA17
:105AB0000172A64B84331A607047A8498866704704
:105AC00010B5830143EA016343EA02739F4C8834B3
:105AD000236010BDA14908677047A049C86470479A
