:020000040800F2
:10000000400B0020896200083D0600083F060008FA
:1000100043060008470600084B06000800000000E1
:100020000000000000000000000000004F06000873
:10003000510600080000000053060008550600089D
:10004000A3620008A3620008A3620008A36200087C
:10005000A3620008A3620008A3620008A36200086C
:10006000A3620008A3620008A3620008A36200085C
:10007000A3620008A3620008A3620008A36200084C
:10008000A3620008A3620008A362000881090008B7
:1000900097090008A3620008A3620008A362000891
:1000A000A3620008A3620008A3620008A36200081C
:1000B000A3620008A3620008A3620008A36200080C
:1000C000A3620008A3620008A3620008A3620008FC
:1000D000A36200084F61000821620008C96100089E
:1000E000A3620008A3620008A3620008A3620008DC
:1000F000A3620008A3620008A3620008A3620008CC
:10010000A3620008A3620008A3620008A3620008BB
:10011000A3620008A3620008A3620008A3620008AB
:10012000A3620008A3620008A3620008A36200089B
:10013000A3620008A3620008A3620008A36200088B
:10014000A3620008A3620008A3620008A36200087B
:10015000A3620008A3620008A362000849620008C5
:10016000A3620008A3620008A3620008A36200085B
:10017000A3620008A3620008A3620008A36200084B
:10018000A3620008A362000800F002F800F03CF847
:100190000AA090E8000C82448344AAF10107DA45E2
:1001A00001D100F031F8AFF2090EBAE80F0013F0F8
:1001B000010F18BFFB1A43F0010318478C9C000085
:1001C000AC9C0000103A24BF78C878C1FAD8520716
:1001D00024BF30C830C144BF04680C6070470000C1
:1001E0000023002400250026103A28BF78C1FBD840
:1001F000520728BF30C148BF0B6070471FB509F0D8
:1002000088FD1FBD10B510BD08F004FB1146FFF7B7
:10021000F5FF00F06CF808F022FB03B4FFF7F2FFE3
:1002200003BC05F0D9FB0000014600220020F54B7D
:1002300018600AE0F448F34B1B6850F823000244AE
:10024000F0480068401CEF4B1860EE480068032837
:10025000F0DB022A15D10020EA4B18600DE0EA48D5
:10026000E84B1B6850F8230010B9E6480068704757
:10027000E4480068401CE34B1860E248006803282B
:10028000EDDB012A13D1012907D1DF48406801289D
:1002900001D10020EBE70120E9E7022907D1DA4884
:1002A0000068012801D10220E1E70020DFE73AB928
:1002B000012901D10120DAE7022901D10020D6E786
:1002C00000BFD4E7D1488068002801DD01207047D5
:1002D000CE480068002801DD0020F8E7CB4800691F
:1002E000002801DD0220F2E74FF0FF30EFE72DEDAF
:1002F000048B0120C6490860C649C1F8A80200BFA6
:1003000000254FF4E13005F074FB4FF4E13005F0C7
:1003100015FC4FF4E13005F0BEFB4FF4E13005F081
:100320005FFCA82005F0D6FA04F0EAF804F008F91A
:100330004FF4A06005F0C8FF04F018FA04F02CFA9E
:1003400000F084FE01F044F900F08EFA04F04EFF54
:1003500004F0AFF900260020AF4908604FF4FA60BE
:1003600005F01AFB05F0D0F9A849886005F071FA8C
:10037000A649086008468068F0BB03200861DFEDED
:10038000A70A9FEDA70A02F033FBB0EE408ADFED2B
:10039000A30A9FEDA30A02F067FBF0EE408AF0EE9D
:1003A000481AB0EE681ADFED9D0A9FED9C0A01F035
:1003B0003BFCDFED9C0A9FED9A0A02F019FBB0EEC0
:1003C000408ADFED980A9FED960A02F04DFBF0EEB1
:1003D000408ADFED920A9FED920A02F009FBB0EE2F
:1003E000409ADFED8E0A9FED8E0A02F03DFBF0EEA3
:1003F000409AF0EE481A00E00AE0B0EE681AF0EE1B
:10040000490A01F011FC00208749086002240AE033
:100410007E48006818B903207C49086102E000208A
:100420007A4908610324EBE0062C70D2DFE804F07F
:10043000E5034153BDD5002507E09FED780A7B48D1
:1004400000EB850080ED000A6D1C032DF5DB724882
:100450000268774801687448006802F075FB6E48CE
:100460000068E8B901206C490860724800680128FA
:100470000AD16F48006818B16D480068022803D19E
:100480009FED6D0A04F0DEF86A480068022807D183
:1004900067480068012803D1B9EE040A04F0D2F8D5
:1004A0005D480068012802D100205B4908600224F1
:1004B000A5E004F0A5FE064666B104F097FE04F040
:1004C00062FE5548006800B90324534800680128BB
:1004D00000D1042493E005F017F94C49524A126800
:1004E00041F83200504A126851F8320005F05FF9C5
:1004F00046494D4A126801EBC201486043484A49E7
:10050000096850F83100002802DC052477E074E027
:100510003E484549096800EBC1004068002823DDDA
:100520003A48414A126800EBC2004168012003F0DA
:1005300056FC36483C49096800EBC10040683D491B
:1005400008603249384A126801EBC2014868FFF777
:100550006BFE374908604FF0FF302C49324A126871
:1005600001EBC20148601EE028482F4A126850F88B
:100570003210002003F033FC24482B49096850F85E
:1005800031002C4908602149274A126851F832008D
:10059000FFF74AFE264908604FF0FF301B49224A08
:1005A000126841F83200012429E0224801682048FD
:1005B000006803F000FE012013491D4A126841F84B
:1005C0002200FFF77FFE18490860084600680028EF
:1005D00001DB012400E0052411E09FED102ADFED8E
:1005E0000F1A9FED0E1ADFED0D0A9FED0C0A01F0B8
:1005F000E7F9012005F0D0F901E0052400BF00BFB4
:1006000012E70000100000206C00002054000020C1
:10061000A4824242008042420C0000200000000000
:10062000000034C300007A4304000020840300204B
:10063000080000200000002000009A42704700BF20
:10064000FEE700BFFEE700BFFEE700BFFEE7704722
:1006500070477047704700000CB500200190009073
:100660007648006840F480307449086000BF7348E1
:10067000006800F4003000900198401C0190009840
:1006800018B90198B0F5A04FF1D16C48006800F49A
:10069000003010B10120009001E00020009000988F
:1006A000012846D165484030006840F080506349D9
:1006B000403108606248006840F44040604908608A
:1006C0005E48083000685D490831086008460068E7
:1006D00040F4004008600846006840F4A0500860FC
:1006E0005848091F0860081F006840F08070091F03
:1006F000086000BF5148006800F000700028F9D081
:1007000040F20570504908604C480830006820F0FD
:1007100003004A49083108600846006840F00200BA
:10072000086000BF45480830006800F00C00082849
:10073000F8D10CBD10B54548006840F4700043493D
:1007400008603E48006840F001003C490860002015
:100750003A4908310860394800683D49084037493E
:1007600008603C48091D0860081F006820F48020CC
:10077000091F0860002031490C310860FFF76CFF49
:100780004FF0006031498039086010BD70B500201D
:100790000022022300240221284D08352D6805F08F
:1007A0000C0020B1042806D0082834D107E02A4DD7
:1007B0002A4E356033E02A4D284E35602FE01F4D1C
:1007C0002D1D2D68C5F380541C4D2D1D2D6805F081
:1007D0003F0154B1224DB5FBF1F5184E361D366878
:1007E000C6F3881605FB06F209E01B4DB5FBF1F5D3
:1007F000124E361D3668C6F3881605FB06F20F4DFD
:100800002D1D2D68C5F301456D1C6B00B2FBF3F582
:10081000124E356003E0104D104E356000BF00BF32
:10082000064D08352D68C5F303150E4E705D0B4D52
:100830002D68C540094E356070BD0000003802408B
:100840000070004008544007003C024088ED00E082
:10085000FFFFF6FE103000240024F40014000020F6
:1008600000127A001800002000B58BB00121084664
:1008700006F0BEF80121480606F003F94FF4C05017
:10088000099002208DF8280000208DF82A0003200E
:100890008DF8290001208DF82B0009A9FE4805F0EC
:1008A00009FE09220B21FC4805F08FFE09220C21CC
:1008B000F94805F08AFEF94806F018FC06A806F08B
:1008C00039FD00208DF81E008DF81F008DF82000E6
:1008D00001208DF8210000208DF822008DF82300E2
:1008E0008DF81A008DF81B0008208DF81C000320DD
:1008F0008DF81D00ADF8180006A9E84806F00FFCB9
:1009000000208DF812008DF8130001208DF81400DE
:100910000020ADF80800ADF80A00ADF80C00ADF805
:100920000E00ADF8100001208DF8150002A806F0A9
:1009300080FC01220221D94806F07AFF01221146EB
:10094000D64806F075FF14208DF8040002208DF8BB
:10095000050001208DF806008DF8070001A805F0BC
:10096000B8FC13208DF8040001208DF805008DF8E7
:1009700006008DF8070001A805F0ABFC0BB000BD28
:1009800010B50121C54806F0BBFF18B10121C348CD
:1009900007F051F810BD00B52DED048B93B00EAAF1
:1009A0000021BE4806F029FE40F201210E9888423F
:1009B0007ED10EA8017CC07B41EA002000B200EE8F
:1009C000100AB8EEC00AB64880ED050A0EA8827B70
:1009D000407B42EA002000B200EE100AB8EEC00AE6
:1009E00010EE101A084609F023F941EC190B9FED9F
:1009F000AD0B53EC102B08F039FD41EC180B08F04F
:100A00004FFC00EE100AA64880ED030A008B68B97F
:100A1000A348408B50B90EA8007B9DF8431040EAD4
:100A2000012000B29E49488308830CE09C48408B1B
:100A30009B4908830EA8007B9DF8431040EA0120E3
:100A400000B297494883964890ED000A8DED050A5B
:100A500090ED010A8DED060A90ED020A8DED070A70
:100A600090ED030A8DED080A90ED040A8DED090A58
:100A700090ED050A8DED0A0A008BADF82C00884830
:100A8000408BADF82E008648C0690C90844890F8E1
:100A900020008DF83400142209A9684607F070FE82
:100AA00005A80FC800F09CFA7D48D0ED010A00E0CF
:100AB00004E030EE200A80ED010A33E240F2022128
:100AC0000E9888427ED10EA8017CC07B41EA0020AE
:100AD00000B200EE100AB8EEC00A744880ED050AB4
:100AE0000EA8827B407B42EA002000B200EE100A92
:100AF000B8EEC00A10EE101A084609F099F841EC59
:100B0000190B9FED680B53EC102B08F0AFFC41EC78
:100B1000180B08F0C5FB00EE100A644880ED030ACC
:100B2000008B68B96148408B50B90EA8007B9DF8D6
:100B3000431040EA012000B25C49488308830CE07E
:100B40005A48408B594908830EA8007B9DF84310F2
:100B500040EA012000B255494883544890ED000A0C
:100B60008DED050A90ED010A8DED060A90ED020A61
:100B70008DED070A90ED030A8DED080A90ED040A49
:100B80008DED090A90ED050A8DED0A0A008BADF88E
:100B90002C004648408BADF82E004448C0690C90AC
:100BA000424890F820008DF83400142209A96846C4
:100BB00007F0E6FD05A80FC800F012FA3B48D0ED9B
:100BC000010A00E004E030EE200A80ED010AA9E10C
:100BD00040F203210E9888425DD10EA8017CC07BB3
:100BE00041EA002000B200EE100AB8EEC00A304818
:100BF00080ED050A0EA8827B407B42EA002000B20D
:100C000000EE100AB8EEC00A10EE101A084609F0FD
:100C10000FF841EC190B9FED230B53EC102B08F050
:100C200025FC41EC180B08F03BFB00EE100A2048B5
:100C300080ED030A008B68B91D48408B50B90EA89F
:100C4000007B9DF8431040EA012000B21849488318
:100C500008830CE01648408B154908830EA8007BDA
:100C60009DF8431040EA012000B211494883104822
:100C700090ED000A8DED050A90ED010A8DED060A52
:100C800090ED020A8DED070A90ED030A8DED080A3A
:100C900090ED040A0EE033E00000024000640040E2
:100CA0007800002000000000000033409C0000207D
:100CB000C00000208DED090A90ED050A8DED0A0AAD
:100CC000008BADF82C00BD48408BADF82E00BB4822
:100CD000C0690C90B94890F820008DF834001422B7
:100CE00009A9684607F04CFD05A80FC800F078F97F
:100CF000B248D0ED010A30EE200A80ED010A11E180
:100D00000E98B0F5017F7CD10EA8017CC07B41EA32
:100D1000002000B200EE100AB8EEC00AA84880ED2C
:100D2000050A0EA8827B407B42EA002000B200EE5A
:100D3000100AB8EEC00A10EE101A084608F078FF44
:100D400041EC190B1FED290B53EC102B08F08EFB17
:100D500041EC180B08F0A4FA00EE100A984880ED58
:100D6000030A008B68B99648408B50B90EA8007BE7
:100D70009DF8431040EA012000B29149488308835E
:100D80000CE08F48408B8E4908830EA8007B9DF8AD
:100D9000431040EA012000B289494883884890ED19
:100DA000000A8DED050A90ED010A8DED060A90ED21
:100DB000020A8DED070A90ED030A8DED080A90ED09
:100DC000040A8DED090A90ED050A8DED0A0A008BE3
:100DD000ADF82C007A48408BADF82E007848C069F9
:100DE0000C90774890F820008DF83400142209A95F
:100DF000684607F0C5FC05A80FC800F0F1F8704878
:100E000000E006E0D0ED010A30EE200A80ED010A94
:100E100088E040F205210E9888427CD10EA8017C22
:100E2000C07B41EA002000B200EE100AB8EEC00A12
:100E3000644880ED050A0EA8827B407B42EA0020D0
:100E400000B200EE100AB8EEC00A10EE101A084602
:100E500008F0EEFE41EC190B1FED6E0B53EC102B5E
:100E600008F004FB41EC180B08F01AFA00EE100A27
:100E7000544880ED030A008B68B95248408B50B942
:100E80000EA8007B9DF8431040EA012000B24D49B6
:100E9000488308830CE04B48408B4A4908830EA8DE
:100EA000007B9DF8431040EA012000B24549488389
:100EB000444890ED000A8DED050A90ED010A8DED94
:100EC000060A90ED020A8DED070A90ED030A8DEDFA
:100ED000080A90ED040A8DED090A90ED050A8DEDE2
:100EE0000A0A008BADF82C003648408BADF82E0076
:100EF0003448C0690C90334890F820008DF83400D5
:100F0000142209A9684607F03BFC05A80FC800F0A9
:100F100067F82C4800E005E0D0ED010A30EE200A29
:100F200080ED010A13B0BDEC048B00BDF0B585B0B7
:100F300004460D4616461F4600208DF808008DF821
:100F4000090008208DF80A0080010090200A8DF821
:100F50000B00E1B28DF80C10290A8DF80D10E9B2E2
:100F60008DF80E10310A8DF80F10F1B28DF81010B7
:100F7000390A8DF81110F9B28DF81210694612482D
:100F800006F046FA05B0F0BD10B586B00446002064
:100F90008DF80C008DF80D0002208DF80E0040F247
:100FA000FF100190200A8DF80F008DF8104001A964
:100FB000054806F02DFA06B010BD0000C000002064
:100FC000E40000200801002000640040B5EEC00AE3
:100FD000F1EE10FA03D2F1EE400AB0EE600A70476B
:100FE0000FB400B5BDF91E00BDF91C10401A01EE8A
:100FF000100AB8EEC10AFFF7E9FFDFEDFE0AB4EE12
:10100000E00AF1EE10FA11DDB8EEC10AFFF7DEFFDB
:10101000F8EEC11AC1EE800AB8EEC10ADFEDF61A89
:1010200000EEE10ABDEEC00AB0EE401AB8EEC10A09
:10103000DFEDF20A20EE200AF3EE031AC0EE210AD9
:10104000DFEDED1A80EEA10A5DF814FB9FEDEC0ACE
:10105000EC4880ED010A9FEDEA0AEB4880ED010AB9
:101060009FEDE70AE94880ED010A9FEDE50AE848AF
:1010700080ED010A9FEDE20AE64880ED010A0120B9
:10108000E04981F82000E04981F82000DF4981F83B
:101090002000DF4981F82000DE4981F820009FED23
:1010A000D80AD84880ED020A9FEDD50AD64880EDCF
:1010B000020A9FEDD30AD54880ED020A9FEDD00ABF
:1010C000D34880ED020A9FEDCE0A084680ED020A61
:1010D00070479FEDD10AD14880ED000A9FEDD00AFC
:1010E00080ED010A9FEDC60A80ED020A9FEDCD0A50
:1010F00080ED030A9FEDCC0A80ED040A9FEDC00A43
:1011000080ED050A9FEDBE0A80ED060A0020C34966
:10111000C8619FEDC10AC54880ED000A9FEDC00A75
:1011200080ED010A9FEDB60A80ED020A9FEDBD0A2F
:1011300080ED030A9FEDBC0A80ED040A9FEDB00A22
:1011400080ED050A9FEDAE0A80ED060A0020B74942
:10115000C8619FEDB10AB64880ED000A9FEDB00A64
:1011600080ED010A9FEDA60A80ED020A9FEDAD0A0F
:1011700080ED030A9FEDAC0A80ED040A9FEDA00A02
:1011800080ED050A9FED9E0A80ED060A0020A84921
:10119000C8619FEDA10AA74880ED000A9FEDA00A53
:1011A00080ED010A9FED960A80ED020A9FED9D0AEF
:1011B00080ED030A9FED9C0A80ED040A9FED900AE2
:1011C00080ED050A9FED8E0A80ED060A0020994900
:1011D000C8619FED910A984880ED000A9FED900A42
:1011E00080ED010A9FED860A80ED020A9FED8D0ACF
:1011F00080ED030A9FED8C0A80ED040A9FED800AC2
:1012000080ED050A9FED7E0A80ED060A00208A49DE
:10121000C86170479FED890A894880ED000AB1EEE8
:10122000040A80ED010A9FED760A80ED020A9FED27
:101230007D0A80ED030A9FED830A80ED040A9FED8D
:10124000700A80ED050A9FED6E0A80ED060A002007
:101250007B49C8619FED7C0A084680ED090A9FED35
:101260007B0A80ED080A9FED750A794880ED000A37
:10127000B1EE040A80ED010A9FED610A80ED020AD9
:101280009FED680A80ED030A9FED6E0A80ED040A67
:101290009FED5B0A80ED050A9FED590A80ED060A75
:1012A00000206B49C8619FED680A084680ED090A75
:1012B0009FED660A80ED080A9FED600A654880EDA3
:1012C000000AB1EE040A80ED010A9FED4D0A80ED9F
:1012D000020A9FED540A80ED030A9FED5A0A80ED41
:1012E000040A9FED470A80ED050A9FED450A80ED4F
:1012F000060A00205749C8619FED530A084680ED51
:10130000090A9FED520A80ED080A9FED4C0A5248E7
:1013100080ED000AB1EE040A80ED010A9FED380A63
:1013200080ED020A9FED3F0A80ED030A9FED450A1A
:1013300080ED040A9FED320A80ED050A9FED300A28
:1013400080ED060A00204449C8619FED3F0A084627
:1013500080ED090A9FED3D0A80ED080A9FED3F0AE6
:101360003F4880ED000AB1EE040A80ED010A9FEDCE
:10137000240A80ED020A9FED2B0A80ED030A9FEDFF
:10138000310A80ED040A9FED1E0A80ED050A9FEDEB
:101390001C0A80ED060A00203149C8619FED2A0A27
:1013A000084680ED090A9FED290A80ED080A70477A
:1013B0009FED2C0A2C4880ED000A9FED110A80ED6C
:1013C000010A9FED2A0A80ED020A9FED160A80EDC0
:1013D000030A9FED270A80ED040A9FED090A80EDBC
:1013E000050A9FED070A80ED060A00201E49C86124
:1013F00040E0000000007A45000000460000B443D1
:1014000000000000780000209C000020C0000020A8
:10141000E4000020080100206666A63F7C01002051
:101420008FC2F53C00007A4600806D45F401002033
:101430006C020020E40200205C03002000007A43DC
:101440005401002000409C4500007A440000C8433D
:10145000CC01002044020020BC02002000005C43BC
:101460003403002085EBD13E2C01002017B7D13882
:101470000000FA44B3EE040A084680ED090A9FED25
:10148000FB0A80ED080A1FED090AF94880ED000A01
:101490001FED250A80ED010A1FED0C0A80ED020AFE
:1014A0001FED200A80ED030A1FED0F0A80ED040AEC
:1014B0001FED2D0A80ED050A1FED2F0A80ED060AAB
:1014C0000020EB49C861B3EE040A084680ED090A22
:1014D0009FEDE60A80ED080A1FED1E0AE54880ED43
:1014E000000A1FED390A80ED010A1FED200A80ED88
:1014F000020A1FED340A80ED030A1FED230A80ED76
:10150000040A1FED410A80ED050A1FED430A80ED34
:10151000060A0020D749C861B3EE040A084680EDE8
:10152000090A9FEDD20A80ED080A1FED320AD2485F
:1015300080ED000A1FED4E0A80ED010A1FED350A0D
:1015400080ED020A1FED490A80ED030A1FED380AFB
:1015500080ED040A1FED560A80ED050A1FED580ABA
:1015600080ED060A0020C449C861B3EE040A0846AB
:1015700080ED090A9FEDBD0A80ED080AB7EE000A6A
:10158000BE4880ED000A1FED620A80ED010A9FED62
:10159000BC0A80ED020A1FED5D0A80ED030A1FED13
:1015A0004C0A80ED040A1FED6A0A80ED050A1FED62
:1015B0006C0A80ED060A0020B049C861B3EE040A47
:1015C000084680ED090A9FEDA90A80ED080A7047D8
:1015D00000B5FFF77EFDFFF71DFEFFF7E9FE00BD3A
:1015E00000B5B0EE403AF0EE603A33EE630AB0EE8A
:1015F000401AC169012914D1B0EE410AFFF7E6FC97
:10160000D0ED090AB4EEE00AF1EE10FA04DB90ED39
:10161000080A60EE011A08E090ED000A60EE011A77
:1016200003E090ED000A60EE011A90ED010A20EE51
:10163000015A90ED050A30EE052A90ED040AB4EE49
:10164000C20AF1EE10FA04D290ED040A80ED050A08
:1016500015E090ED040AFFEE000A20EE200AB4EE39
:10166000C20AF1EE10FA08DD90ED040AFFEE000A5E
:1016700020EE200A80ED050A01E080ED052A90EDBC
:10168000060A31EE404A90ED020A60EE044A80ED0F
:10169000061A90ED050A30EE210A70EE242A90ED2C
:1016A000030AB4EEE20AF1EE10FA02D890ED030A52
:1016B00000BD90ED030AFFEE000A20EE200AB4EE12
:1016C000E20AF1EE10FA06DD90ED030AFFEE000AE1
:1016D00020EE200AECE7B0EE620AE9E710B56948AF
:1016E00090F82000012814D0022802D0052833D118
:1016F0001FE0644890ED011AF0EE410A90ED001AE7
:10170000B0EE410A6048FFF76BFF5E4880ED020AC9
:1017100000BF5C4890ED031AF0EE410A90ED021A0A
:10172000B0EE410A5948FFF75BFF564880ED040AC6
:1017300000BF544890ED051AF0EE410A90ED041AEE
:10174000B0EE410A5248FFF74BFFBDEEC00A10EE63
:10175000100A4C49C86100E000BF00BF4D4890F836
:101760002000012814D0022802D0052833D11FE020
:10177000484890ED011AF0EE410A90ED001AB0EEE3
:10178000410A3B48FFF72CFF424880ED020A00BFA8
:10179000404890ED031AF0EE410A90ED021AB0EEC7
:1017A000410A3D48FFF71CFF3A4880ED040A00BF9C
:1017B000384890ED051AF0EE410A90ED041AB0EEAB
:1017C000410A3648FFF70CFFBDEEC00A10EE100AC2
:1017D0003049C86100E000BF00BF314890F82000E8
:1017E000012814D0022802D0052833D11FE02C484C
:1017F00090ED011AF0EE410A90ED001AB0EE410AA8
:101800001C48FFF7EDFE264880ED020A00BF244881
:1018100090ED031AF0EE410A90ED021AB0EE410A83
:101820002048FFF7DDFE1E4880ED040A00BF1C487B
:1018300090ED051AF0EE410A90ED041AB0EE410A5F
:101840001948FFF7CDFEBDEEC00A10EE100A14498C
:10185000C86100E000BF00BF144890F820000128D4
:1018600036D0022824D0052855D141E00000484256
:10187000A40100201C020020940200200C03002080
:101880000AD7233C780000202C01002054010020BE
:101890007C0100209C000020CC010020F4010020ED
:1018A000C0000020440200206C020020E400002060
:1018B0008D4890ED011AF0EE410A90ED001AB0EE5D
:1018C000410A8A48FFF78CFE874880ED020A00BF74
:1018D000854890ED031AF0EE410A90ED021AB0EE41
:1018E000410A8348FFF77CFE7F4880ED040A00BF71
:1018F0007D4890ED051AF0EE410A90ED041AB0EE25
:10190000410A7C48FFF76CFEBDEEC00A10EE100ADB
:101910007549C86100E000BF00BF774890F820001B
:10192000012814D0022802D0052833D11FE07248C4
:1019300090ED011AF0EE410A90ED001AB0EE410A66
:101940006E48FFF74DFE6C4880ED020A00BF6A4802
:1019500090ED031AF0EE410A90ED021AB0EE410A42
:101960006748FFF73DFE644880ED040A00BF624807
:1019700090ED051AF0EE410A90ED041AB0EE410A1E
:101980006048FFF72DFEBDEEC00A10EE100A5A495E
:10199000C86100E000BF00BF534CE46923B25A4C59
:1019A000E46922B2594CE46921B2594CE46920B28D
:1019B000FFF7BCFA5049C96908B2FFF7E5FA10BD54
:1019C00010B52DED068BB0EE40AAB0EE608AF0EEB9
:1019D000418AB0EE619AF0EE429A01204C4981F8BA
:1019E00020004A4981F82000474981F820003E49FB
:1019F00081F82000404981F82000454880ED02AA86
:101A0000424880ED028A4048C0ED028A364880EDA7
:101A1000029A0846C0ED029AFFF760FEBDEC068B05
:101A200010BD10B52DED068BB0EE40AAB0EE608A69
:101A3000F0EE418AB0EE619AF0EE429A0520344908
:101A400081F82000314981F820002F4981F82000D9
:101A5000254981F82000284981F820002C4880ED94
:101A600000AA2A4880ED008A2748C0ED008A1E4857
:101A700080ED009A0846C0ED009AFFF72FFEBDECFE
:101A8000068B10BD10B52DED068BB0EE40AAB0EE62
:101A9000608AF0EE418AB0EE619AF0EE429A02203E
:101AA0001B4981F82000194981F82000164981F866
:101AB00020000D4981F820000F4981F820001448CA
:101AC00080ED00AA114880ED008A0F48C0ED008A21
:101AD000054880ED009A0846C0ED009AFFF7FEFD2C
:101AE000BDEC068B10BD0000E40000209402002035
:101AF000BC020020E4020020080100200C030020AA
:101B0000340300205C030020C00000209C00002063
:101B100078000020B5EEC00AF1EE10FA01D10020E5
:101B20007047B5EEC00AF1EE10FA01DD0120F7E7CB
:101B30004FF0FF30F4E702466FF00201FE48D0EDAF
:101B4000012AFE4890ED003A72EEC32AFC4890ED5F
:101B5000003A72EEC32AF0EE620AFA48D0ED012A8A
:101B6000F64890ED013A72EEC32AF54890ED013A3D
:101B700072EEC32AB0EE622AF348D0ED012AEF4894
:101B800090ED023A72EEC32AED4890ED023A72EE01
:101B9000C32AB0EE621AED48D0ED012AE74890ED75
:101BA000033A72EEC32AE64890ED033A72EEC32A76
:101BB000F0EE621AF4EEC00AF1EE10FA07D2F1EE7E
:101BC000402AF4EEE20AF1EE10FA00DD491CB4EE10
:101BD000C02AF1EE10FA07D2F1EE402AB4EEE22A62
:101BE000F1EE10FA00DD491CB4EEC01AF1EE10FA65
:101BF00007D2F1EE402AB4EEE21AF1EE10FA00DD5F
:101C0000491CF4EEC01AF1EE10FA07D2F1EE402AA8
:101C1000F4EEE21AF1EE10FA00DD491C914201DD0A
:101C2000012070470020FCE700B52DED040B99B0B2
:101C30009DED1B0ADDED190A30EE600ADFEDC40AE6
:101C400020EE200A8DED120A9DED1C0ADDED1A0A28
:101C500030EE600ADFEDBE0A20EE200A8DED110A9B
:101C60009FEDBC0A8DED100AB34890ED010AB34810
:101C700080ED000AB34890ED010AB04880ED010AFA
:101C8000B14890ED010AAD4880ED020AAF4890EDF1
:101C9000010AAA4880ED030A9DED120A9FEDAE1AD3
:101CA000C0EE010A9FEDAD0A20EE800AA44880ED47
:101CB000000A9DED110AB1EE400A9FEDA71AC0EE91
:101CC000010A9FEDA60A20EE800A80ED010A90ED40
:101CD000000AB1EE400A80ED020A90ED010AB1EE71
:101CE000400A80ED030A00209D49086023E09448E3
:101CF0009B49096800EB810090ED000AB5EEC00A2F
:101D0000F1EE10FA09D29FED970A13A894490968D9
:101D100000EB810080ED000A08E09FED930A13A814
:101D20008F49096800EB810080ED000A8C4800684B
:101D3000401C8B4908608A4800680428D7DB00BF34
:101D40009DED100ADFED880AB4EEE00AF1EE10FA1C
:101D50007DD2119807F06CFFCDE900019DED000BDD
:101D600006F002FE8DED040B129807F061FFCDE93D
:101D700000019DED000B06F0F7FD8DED020B9DEDD2
:101D8000040B53EC102B9DED020B51EC100B07F0E4
:101D9000B9FACDE90801119807F04AFFCDE9000131
:101DA0009DED000B06F0E0FD8DED040B9DED160A98
:101DB0008DED000A9DED000AFFF7ACFE00EE100A63
:101DC000F8EEC00A9DED100A20EE800A8DED010AA2
:101DD000019807F02DFFCDE902019DED040B53ECB6
:101DE000102B9DED020B51EC100B07F02DFDCDE9F2
:101DF00006019DED080B53EC102B9DED060B51ECED
:101E0000100B07F033FBCDE90A019DED0A0B51ECF5
:101E1000100B07F045FA0F90119807F009FFCDE974
:101E200000019DED000B06F09FFD8DED040B129857
:101E300007F0FEFECDE900019DED000B06F094FDDC
:101E40008DED020B9DED040B53EC102B00E03FE1F8
:101E50009DED020B51EC100B07F054FACDE908018F
:101E6000129807F0E5FECDE900019DED000B06F0AC
:101E70007BFD8DED040B9DED150A8DED000A9DEDAA
:101E8000000AFFF747FE00EE100AF8EEC00A9DEDCB
:101E9000100A20EE800A8DED010A019807F0C8FEB5
:101EA000CDE902019DED040B53EC102B9DED020BCF
:101EB00051EC100B07F0C8FCCDE906019DED080BB5
:101EC00053EC102B9DED060B51EC100B07F0CEFAE6
:101ED000CDE90A019DED0A0B51EC100B07F0E0F97A
:101EE0000E90119807F0A4FECDE900019DED000BC6
:101EF00006F03AFD8DED040B129807F099FECDE93E
:101F000000019DED000B06F02FFD8DED020B9DED08
:101F1000040B53EC102B9DED020B51EC100B07F052
:101F2000F1F9CDE90801119807F082FECDE9000131
:101F30009DED000B1AE0000078000020A4030020B3
:101F4000900300209C000020C0000020E40000203E
:101F50006666863F00000000959E6B430000B44318
:101F600028000020000096C30000964306F0FCFC09
:101F70008DED040B9DED140A8DED000A9DED000A18
:101F8000FFF7C8FD00EE100AF8EEC00A9DED100A3A
:101F900020EE800A8DED010A019807F049FECDE997
:101FA00002019DED040B53EC102B9DED020B51EC47
:101FB000100B07F049FCCDE906019DED080B53EC31
:101FC000102B9DED060B51EC100B07F04FFACDE9ED
:101FD0000A019DED0A0B51EC100B07F061F90D9011
:101FE000119807F025FECDE900019DED000B06F0EC
:101FF000BBFC8DED040B129807F01AFECDE9000131
:102000009DED000B06F0B0FC8DED020B9DED040B79
:1020100053EC102B9DED020B51EC100B07F072F9F5
:10202000CDE90801129807F003FECDE900019DED0E
:10203000000B06F099FC8DED040B9DED130A8DED60
:10204000000A9DED000AFFF765FD00EE100AF8EEAC
:10205000C00A9DED100A20EE800A8DED010A01985C
:1020600007F0E6FDCDE902019DED040B53EC102BCA
:102070009DED020B51EC100B07F0E6FBCDE90601DC
:102080009DED080B53EC102B9DED060B51EC100B46
:1020900007F0ECF9CDE90A019DED0A0B51EC100BAC
:1020A00007F0FEF81FED552A0C90DDED0F1A9DED9F
:1020B0000E1ADDED0D0A9DED0C0AFFF781FC9DED7A
:1020C000100ADFEDFE0A30EE200A8DED100A53E112
:1020D000119807F0ADFDCDE900019DED000B06F074
:1020E00043FC8DED040B129807F0A2FDCDE9000131
:1020F0009DED000B06F038FC8DED020B9DED040B01
:1021000053EC102B9DED020B51EC100B07F0FAF87D
:10211000CDE90801119807F08BFDCDE900019DED97
:10212000000B06F021FC8DED040B1698019007F0D2
:102130007FFDCDE902019DED040B53EC102B9DEDCD
:10214000020B51EC100B07F07FFBCDE906019DED72
:10215000080B53EC102B9DED060B51EC100B07F008
:1021600085F9CDE90A019DED0A0B51EC100B07F042
:1021700097F80F90119807F05BFDCDE900019DEDF8
:10218000000B06F0F1FB8DED040B129807F050FDEB
:10219000CDE900019DED000B06F0E6FB8DED020B95
:1021A0009DED040B53EC102B9DED020B51EC100B2D
:1021B00007F0A8F8CDE90801129807F039FDCDE93C
:1021C00000019DED000B06F0CFFB8DED040B159883
:1021D000019007F02DFDCDE902019DED040B53ECBC
:1021E000102B9DED020B51EC100B07F02DFBCDE9F0
:1021F00006019DED080B53EC102B9DED060B51ECE9
:10220000100B07F033F9CDE90A019DED0A0B51ECF3
:10221000100B07F045F80E90119807F009FDCDE975
:1022200000019DED000B06F09FFB8DED040B129855
:1022300007F0FEFCCDE900019DED000B06F094FBDC
:102240008DED020B9DED040B53EC102B9DED020B5D
:1022500051EC100B07F056F8CDE90801119807F082
:10226000E7FCCDE900019DED000B06F07DFB8DED57
:10227000040B1498019007F0DBFCCDE902019DED01
:10228000040B53EC102B9DED020B51EC100B07F0DF
:10229000DBFACDE906019DED080B53EC102B9DED0B
:1022A000060B51EC100B07F0E1F8CDE90A019DEDAA
:1022B0000A0B51EC100B06F0F3FF0D90119807F08C
:1022C000B7FCCDE900019DED000B06F04DFB8DED57
:1022D000040B129807F0ACFCCDE900019DED000B5A
:1022E00006F042FB8DED020B9DED040B53EC102B21
:1022F0009DED020B51EC100B07F004F8CDE908013D
:10230000129807F095FCCDE900019DED000B06F059
:102310002BFB8DED040B1398019007F089FCCDE9A0
:1023200002019DED040B53EC102B9DED020B51ECC3
:10233000100B07F089FACDE906019DED080B53EC6F
:10234000102B9DED060B51EC100B07F08FF8CDE92B
:102350000A019DED0A0B51EC100B06F0A1FF9FED59
:10236000582A0C90DDED0F1A9DED0E1ADDED0D0AC9
:102370009DED0C0AFFF724FB022003F00DFB4FF04C
:10238000FF309FED500AFFF7D6FB00283FF4D8AC92
:102390009DED100ADFED4C0AB4EEE00AF1EE10FA02
:1023A00003D29FED490A8DED100A00BF119807F086
:1023B0003FFCCDE900019DED000B06F0D5FA8DED57
:1023C000040B129807F034FCCDE900019DED000BE1
:1023D00006F0CAFA8DED020B9DED040B53EC102BA9
:1023E0009DED020B51EC100B06F08CFFCDE90801BE
:1023F000119807F01DFCCDE900019DED000B06F0E2
:10240000B3FA8DED040B9DED160A8DED000A9DEDDE
:10241000000AFFF77FFB00EE100AF8EEC00A9DED00
:10242000100A20EE800A8DED010A019807F000FCE9
:10243000CDE902019DED040B53EC102B9DED020B39
:1024400051EC100B07F000FACDE906019DED080BE9
:1024500053EC102B9DED060B51EC100B07F006F81A
:10246000CDE90A019DED0A0B51EC100B06F018FFA7
:102470000F90119807F0DCFBCDE900019DED000BFA
:1024800006F072FA8DED040B129807F0D1FBCDE93E
:1024900000019DED000B06F067FA8DED020B9DED3E
:1024A000040B53EC102B9DED020B51EC100B06F0BE
:1024B00029FFCDE90801129808E00000CDCCCC3D01
:1024C000000000000000FA430000484207F0B0FBA3
:1024D000CDE900019DED000B06F046FA8DED040BF1
:1024E0009DED150A8DED000A9DED000AFFF712FB28
:1024F00000EE100AF8EEC00A9DED100A20EE800AE8
:102500008DED010A019807F093FBCDE902019DEDE5
:10251000040B53EC102B9DED020B51EC100B07F04C
:1025200093F9CDE906019DED080B53EC102B9DEDC1
:10253000060B51EC100B06F099FFCDE90A019DED59
:102540000A0B51EC100B06F0ABFE0E90119807F041
:102550006FFBCDE900019DED000B06F005FA8DED56
:10256000040B129807F064FBCDE900019DED000B10
:1025700006F0FAF98DED020B9DED040B53EC102BD8
:102580009DED020B51EC100B06F0BCFECDE90801ED
:10259000119807F04DFBCDE900019DED000B06F011
:1025A000E3F98DED040B9DED140A8DED000A9DED10
:1025B000000AFFF7AFFA00EE100AF8EEC00A9DED30
:1025C000100A20EE800A8DED010A019807F030FB19
:1025D000CDE902019DED040B53EC102B9DED020B98
:1025E00051EC100B07F030F9CDE906019DED080B19
:1025F00053EC102B9DED060B51EC100B06F036FF43
:10260000CDE90A019DED0A0B51EC100B06F048FED6
:102610000D90119807F00CFBCDE900019DED000B2A
:1026200006F0A2F98DED040B129807F001FBCDE93D
:1026300000019DED000B06F097F98DED020B9DED6D
:10264000040B53EC102B9DED020B51EC100B06F01C
:1026500059FECDE90801129807F0EAFACDE9000128
:102660009DED000B06F080F98DED040B9DED130A36
:102670008DED000A9DED000AFFF74CFA00EE100AFE
:10268000F8EEC00A9DED100A20EE800A8DED010AD9
:10269000019807F0CDFACDE902019DED040B53EC52
:1026A000102B9DED020B51EC100B07F0CDF8CDE98E
:1026B00006019DED080B53EC102B9DED060B51EC24
:1026C000100B06F0D3FECDE90A019DED0A0B51EC8B
:1026D000100B06F0E5FD1FED862A0C90DDED0F1ABC
:1026E0009DED0E1ADDED0D0A9DED0C0AFFF768F960
:1026F0009DED100A5FED8C0AB4EEE00AF1EE10FADF
:1027000007DD9DED100ADFEDF60A30EE600A8DED73
:10271000100A022003F040F94FF0FF301FED960A37
:10272000FFF709FA00283FF441AE9DED1B0AED4882
:1027300080ED000A9DED1C0A80ED010A1DB000BD70
:1027400000B52DED0A8B85B0B0EE409AF0EE608AB0
:102750001FEDA50AB0EE408A38EEC90ADFEDE20AA5
:1027600020EE200AF0EE409A9FEDE00A29EE800A62
:10277000DFEDDF0A80EE201A9FEDDE0A61EE000A2F
:10278000B0EE001A80EE810A9FEDDB1AC0EE010A5E
:102790009FEDDA0A20EE800AB0EE40AAD84890ED0C
:1027A000010AD84880ED000AD74890ED010AD548C3
:1027B00080ED010AD54890ED010AD24880ED020A69
:1027C000D34890ED010ACF4880ED030A0020D1499B
:1027D00008600DE0B1EE4A0ACF48CE49096800EB27
:1027E000810080ED000ACB480068401CC9490860A0
:1027F000C84800680428EDDB0020C649086023E0D3
:10280000C548C449096800EB810090ED000AB5EEA7
:10281000C00AF1EE10FA09D29FEDC00A6846BD4920
:10282000096800EB810080ED000A08E09FEDBC0A1A
:102830006846B849096800EB810080ED000AB54898
:102840000068401CB3490860B24800680428D7DB20
:1028500000BF9FEDB40AB4EEC08AF1EE10FA48D280
:10286000DDED030AB0EE600AFFF754F900EE100A3E
:10287000B8EEC00A20EE080AF0EE40AADDED020A2A
:10288000B0EE600AFFF746F900EE100AB8EEC00A93
:1028900020EE080AB0EE40BADDED010AB0EE600AA3
:1028A000FFF738F900EE100AB8EEC00A20EE080A69
:1028B000F0EE40BADDED000AB0EE600AFFF72AF94B
:1028C00000EE100AB8EEC00A20EE080AB0EE40CAC8
:1028D0009FED952AF0EE6A1AB0EE4B1AF0EE6B0AF5
:1028E000FFF76EF89FED910A38EE000AB0EE408ACD
:1028F00016E09DED032AF0EE421A9DED022AB0EE9D
:10290000421A9DED012AF0EE420A9DED002AB0EE3A
:10291000420A9FED852AFFF753F8022003F03CF8A6
:1029200000209FED830AFFF706F9002891D06D483B
:10293000C0ED028A05B0BDEC0A8B00BD10B52DEDCF
:102940000A8BB0EE408A6E4890ED010ABDEEC00AD7
:10295000F0EE408A6C4890ED010ABDEEC00AB0EE80
:10296000409A6A4890ED010ABDEEC00AF0EE409A26
:10297000674890ED010ABDEEC00AB0EE40AA6D486E
:1029800090ED010ABDEEC00A10EE104A0EE0B0EE66
:10299000482AF8EECA1AB8EEE91AF8EEC90AB8EEF3
:1029A000E80AFFF76FF8022002F0F6FF614890EDA9
:1029B000010A30EE480A10EE101A084607F038F9FE
:1029C00041EC1C0BB0EE4C0AF0EE6C0A05F0CCFFAB
:1029D000B0EE40BAF0EE60BA9FED570B53EC102BFF
:1029E00051EC1B0B06F0F4FED1D2BDEC0A8B10BDEE
:1029F00010B52DED0C8BB0EE408AF0EE608A9FEDA5
:102A0000500B05F0BDFFB0EE40CAF0EE60CA18EE04
:102A1000100A07F00DF941EC1D0B53EC1C2B06F0CE
:102A200013FF41EC1A0B9FED460B05F039FFB0EE9A
:102A300040CAF0EE60CA18EE900A07F0F9F841ECCF
:102A40001D0B53EC1C2B06F0FFFE41EC1B0B53EC53
:102A50001A2B07F003F841EC190B06F021FC00EEED
:102A6000100ABDEC0C8B10BD10B52DED0C8BB0EE2B
:102A7000408AF0EE608A9FED320B05F081FFB0EEE8
:102A800040CAF0EE60CA18EE900A07F0D1F841ECA7
:102A90001D0B53EC1C2B06F0D7FE41EC1A0B9FEDDF
:102AA000280B05F0FDFEB0EE40CAF0EE60CA18EE4D
:102AB000100A07F0BDF841EC1D0B53EC1C2B06F07F
:102AC000C3FE41EC1B0B53EC1A2B06F01BFC41EC34
:102AD000190B06F0E5FB00EE100ABDEC0C8B10BDE7
:102AE000CDCCCC3E840300203333833FDB0F494001
:102AF000000034430000E143959E6B430000B44363
:102B000078000020A40300209C000020C0000020CA
:102B1000E400002028000020900300200000A0C254
:102B20000000A0420000964300000000CDCC4C3EC7
:102B3000000048420801002000000000000024407E
:102B400000000060FB21E9BF07B584B006980028AB
:102B50007DD1049801287BD10598002878D1DFED3C
:102B6000FD0A1FED0F0AFFF743FF8DED030ADFEDAE
:102B7000F90A1FED130AFFF777FF8DED020AF648F9
:102B800090ED010A8DED010A90ED000A8DED000A2D
:102B9000DDED031A9DED021ADDED010A9DED000A3F
:102BA000FFF742F8DFEDEB0A9FEDEC0AFFF720FF9D
:102BB0008DED030ADFEDE70A9FEDE80AFFF754FF0A
:102BC0008DED020AE44890ED010A8DED010A90EDC9
:102BD000000A8DED000ADDED031A9DED021ADDED10
:102BE000010A9DED000AFFF71FF8DFEDDD0A9FEDFA
:102BF000DB0AFFF7FDFE8DED030ADFEDD90A9FED3D
:102C0000D70AFFF731FF8DED020AD34890ED010A94
:102C10008DED010A90ED000A8DED000ADDED031A3D
:102C20009DED021ADDED010A9DED000AFEF7FCFFA5
:102C3000DFEDCB0A9FEDCB0AFFF7DAFE8DED030A3D
:102C4000DFEDC70A9FEDC70AFFF70EFF01E0EBE3D8
:102C50001FE08DED020AC04890ED010A8DED010ADA
:102C600090ED000A8DED000ADDED031A9DED021ACC
:102C7000DDED010A9DED000AFEF7D6FFB64890EDA6
:102C8000020A8DED030A5FED660A9DED030AFFF768
:102C900057FD049801287DD1059801287AD1DFEDF0
:102CA000AD0A1FED5F0AFFF7A3FE8DED030ADFED0E
:102CB000A90A1FED630AFFF7D7FE8DED020AA648A9
:102CC00090ED010A8DED010A90ED000A8DED000AEC
:102CD000DDED031A9DED021ADDED010A9DED000AFE
:102CE000FEF7A2FFDFED9B0A9FED9C0AFFF780FE37
:102CF0008DED030ADFED970A9FED980AFFF7B4FE0A
:102D00008DED020A944890ED010A8DED010A90EDD7
:102D1000000A8DED000ADDED031A9DED021ADDEDCE
:102D2000010A9DED000AFEF77FFFDFED8D0A9FEDA2
:102D30008B0AFFF75DFE8DED030ADFED890A9FED3B
:102D4000870AFFF791FE8DED020A834890ED010A94
:102D50008DED010A90ED000A8DED000ADDED031AFC
:102D60009DED021ADDED010A9DED000AFEF75CFF04
:102D7000DFED7B0A9FED7B0AFFF73AFE8DED030A3C
:102D8000DFED770A9FED770AFFF76EFE8DED020A01
:102D9000714800E036E090ED010A8DED010A90EDFA
:102DA000000A8DED000ADDED031A9DED021ADDED3E
:102DB000010A9DED000AFEF737FF674890ED020A11
:102DC0008DED030A5FEDB60A9DED030AFFF7B8FC2F
:102DD000DFED650A1FEDAC0AFFF70AFE8DED030A71
:102DE000DFED610A1FEDB00AFFF73EFE8DED020A2E
:102DF000DDED031A9DED021A5FEDB50A1FEDB60A6F
:102E0000FEF712FF049801287DD1059802287AD197
:102E1000DFED500A1FEDBC0AFFF7EAFD8DED030A56
:102E2000DFED4C0A1FEDC00AFFF71EFE8DED020A12
:102E3000494890ED010A8DED010A90ED000A8DEDF3
:102E4000000ADDED031A9DED021ADDED010A9DED8C
:102E5000000AFEF7E9FEDFED3F0A9FED400AFFF7AB
:102E6000C7FD8DED030ADFED3B0A9FED3C0AFFF73E
:102E7000FBFD8DED020A384890ED010A8DED010A47
:102E800090ED000A8DED000ADDED031A9DED021AAA
:102E9000DDED010A9DED000AFEF7C6FEDFED300A0A
:102EA0009FED2E0AFFF7A4FD8DED030ADFED2C0A3E
:102EB0009FED2A0AFFF7D8FD8DED020A264890ED16
:102EC000010A8DED010A90ED000A8DED000ADDED9D
:102ED000031A9DED021ADDED010A9DED000AFEF7D1
:102EE000A3FEDFED1F0A9FED1F0AFFF781FD8DEDA9
:102EF000030ADFED1B0A9FED1B0AFFF7B5FD8DED01
:102F0000020A154800E049E090ED010A8DED010A42
:102F100090ED000A8DED000ADDED031A9DED021A19
:102F2000DDED010A9DED000AFEF77EFE0A4890EDF8
:102F3000020A8DED030ADFED0D0A9DED030AFFF78E
:102F4000FFFBDFED0B0A9FED0B0AFFF751FD8DED47
:102F5000030A11E0008009C484030020000096C425
:102F6000000016440080EDC400C002440000344359
:102F700000808944000000005FED030A1FED030A92
:102F8000FFF772FD8DED020ADDED031A9DED021AC9
:102F90005FED080A1FED090AFEF746FE04980228B5
:102FA0007DD1059800287AD15FED160A1FED150A2C
:102FB000FFF71EFD8DED030A5FED1A0A1FED190ADA
:102FC000FFF752FD8DED020A5FED1E0A1FED170A95
:102FD000FFF70EFD8DED010A5FED220A1FED1B0AC2
:102FE000FFF742FD8DED000ADDED031A9DED021A9B
:102FF000DDED010A9DED000AFEF716FE5FED280AE1
:103000001FED2A0AFFF7F4FC8DED030A5FED2C0A91
:103010001FED2E0AFFF728FD8DED020AFC4890ED0A
:10302000010A8DED010A90ED000A8DED000ADDED3B
:10303000031A9DED021ADDED010A9DED000AFEF76F
:10304000F3FD5FED390A1FED390AFFF7D1FC8DED75
:10305000030A5FED3D0A1FED3D0AFFF705FD8DED0B
:10306000020AEB4890ED010A8DED010A90ED000A8D
:103070008DED000ADDED031A9DED021ADDED010A6A
:103080009DED000AFEF7D0FDE14890ED020A8DEDBE
:10309000030A5FED4A0A9DED030AFFF751FB04980E
:1030A00002287CD10598012879D15FED560A1FEDE1
:1030B000550AFFF79DFC8DED030A5FED5A0A1FEDDF
:1030C000590AFFF7D1FC8DED020A5FED5E0A1FED94
:1030D000570AFFF78DFC8DED010A5FED620A1FEDC7
:1030E0005B0AFFF7C1FC8DED000ADDED031A9DEDD3
:1030F000021ADDED010A9DED000AFEF795FD5FED78
:10310000680A1FED6A0AFFF773FC8DED030A5FED95
:103110006C0A1FED6E0AFFF7A7FC8DED020ABC4892
:1031200090ED010A8DED010A90ED000A8DED000A87
:10313000DDED031A9DED021ADDED010A9DED000A99
:10314000FEF772FD5FED7A0A1FED7A0AFFF750FC79
:103150008DED030A5FED7E0A1FED7E0AFFF784FC0A
:103160008DED020AAA4890ED010A8DED010A90ED5D
:10317000000A8DED000ADDED031A9DED021ADDED6A
:10318000010A9DED000AFEF74FFDA14890ED020AED
:103190008DED030A5FED8B0A9DED030A00E01BE055
:1031A000FFF7CEFA5FED900A1FED8E0AFFF720FCC5
:1031B0008DED030A5FED940A1FED920AFFF754FCB0
:1031C0008DED020ADDED031A9DED021A5FED970AFF
:1031D0001FED980AFEF728FD049802287ED1059875
:1031E00002287BD15FEDA50A1FEDA40AFFF700FCC2
:1031F0008DED030A5FEDA90A1FEDA80AFFF734FC65
:103200008DED020A5FEDAD0A1FEDA60AFFF7F0FB98
:103210008DED010A5FEDB10A1FEDAA0AFFF724FC4C
:103220008DED000ADDED031A9DED021ADDED010AB8
:103230009DED000AFEF7F8FC5FEDB70A1FEDB90A35
:10324000FFF7D6FB8DED030A5FEDBB0A1FEDBD0A4C
:10325000FFF70AFC8DED020A6D4890ED010A8DED35
:10326000010A90ED000A8DED000ADDED031A9DEDD7
:10327000021ADDED010A9DED000AFEF7D5FC5FEDB7
:10328000C80A1FEDC80AFFF7B3FB8DED030A5FED17
:10329000CC0A1FEDCC0AFFF7E7FB8DED020A5C4874
:1032A00090ED010A8DED010A90ED000A8DED000A06
:1032B000DDED031A9DED021ADDED010A9DED000A18
:1032C000FEF7B2FC524890ED020A8DED030A5FED65
:1032D000D90A9DED030AFFF733FA00E019E05FED2C
:1032E000DC0A1FEDDC0AFFF783FB8DED030A5FEDBF
:1032F000E00A1FEDE00AFFF7B7FB8DED020ADDEDF6
:10330000031A9DED021A5FEDE50A1FEDE60AFEF7CE
:103310008BFC049800287AD10598002877D15FEDBE
:10332000F30A1FEDEC0AFFF763FB8DED030A5FED77
:10333000F70A1FEDF00AFFF797FB8DED020ADFEDAC
:10334000350A1FEDF40AFFF753FB8DED010ADFED9F
:10335000310A1FEDF80AFFF787FB8DED000ADDED5E
:10336000031A9DED021ADDED010A9DED000AFEF73C
:103370005BFCDFED290A9FED290AFFF739FB8DED94
:10338000030ADFED250A9FED250AFFF76DFB8DEDA2
:10339000020ADFED210A9FED220AFFF729FB8DEDDE
:1033A000010ADFED1D0A9FED1E0AFFF75DFB8DEDA3
:1033B000000ADDED031A9DED021ADDED010A9DED17
:1033C000000AFEF731FCDFED170A9FED140AFFF744
:1033D0000FFB8DED030ADFED130A9FED100AFFF7D7
:1033E00043FB8DED020A0A4890ED010A8DED010ABA
:1033F00090ED000A8DED000ADDED031A9DED021A35
:10340000DDED010A9DED000AFEF70EFC0DE03AE04D
:103410008403002000800944008009C4000096C491
:10342000000000000000164474E15FED020A9FED09
:10343000FD0AFFF7DDFA8DED030A5FED060A9FED49
:10344000F90AFFF711FB8DED020AF74890ED010A2A
:103450008DED010A90ED000A8DED000ADDED031AF5
:103460009DED021ADDED010A9DED000AFEF7DCFB81
:10347000ED4890ED020A8DED030ADFEDEC0A9DEDBB
:10348000030AFFF75DF9049800287AD1059801280E
:1034900077D15FED1F0A1FED1E0AFFF7A9FA8DED28
:1034A000030A5FED230A1FED220AFFF7DDFA8DED17
:1034B000020A5FED280A1FED260AFFF799FA8DED43
:1034C000010A5FED2C0A1FED2A0AFFF7CDFA8DEDF8
:1034D000000ADDED031A9DED021ADDED010A9DEDF6
:1034E000000AFEF7A1FB5FED340A1FED340AFFF777
:1034F0007FFA8DED030A5FED380A1FED380AFFF7FA
:10350000B3FA8DED020A5FED3C0A1FED3B0AFFF7AF
:103510006FFA8DED010A5FED400A1FED3F0AFFF7DC
:10352000A3FA8DED000ADDED031A9DED021ADDED23
:10353000010A9DED000AFEF777FB5FED460A1FEDDD
:10354000490AFFF755FA8DED030A5FED4A0A1FEDB0
:103550004D0AFFF789FA8DED020AB34890ED010A92
:103560008DED010A90ED000A8DED000ADDED031AE4
:103570009DED021ADDED010A9DED000AFEF754FBF8
:1035800000E047E05FED590A9FEDA60AFFF730FA29
:103590008DED030A5FED5D0A9FEDA20AFFF764FA65
:1035A0008DED020AA04890ED010A8DED010A90ED23
:1035B000000A8DED000ADDED031A9DED021ADDED26
:1035C000010A9DED000AFEF72FFB974890ED020AD5
:1035D0008DED030ADFED950A9DED030AFFF7B0F8C4
:1035E000DFED930A1FED720AFFF702FA8DED030A71
:1035F000DFED8F0A1FED760AFFF736FA8DED020A2E
:10360000DDED031A9DED021A5FED7B0A1FED7C0ACA
:10361000FEF70AFB049800287CD10598022879D18E
:103620005FED830A1FED820AFFF7E2F98DED030AD1
:103630005FED870A1FED860AFFF716FA8DED020A85
:103640005FED8C0A1FED8A0AFFF7D2F98DED010AB2
:103650005FED900A1FED8E0AFFF706FA8DED000A66
:10366000DDED031A9DED021ADDED010A9DED000A64
:10367000FEF7DAFA5FED980A1FED980AFFF7B8F93E
:103680008DED030A5FED9C0A1FED9C0AFFF7ECF934
:103690008DED020A5FEDA00A1FED9F0AFFF7A8F962
:1036A0008DED010A5FEDA40A1FEDA30AFFF7DCF917
:1036B0008DED000ADDED031A9DED021ADDED010A24
:1036C0009DED000AFEF7B0FA5FEDAA0A1FEDAD0A04
:1036D000FFF78EF98DED030A5FEDAE0A1FEDB10A1B
:1036E000FFF7C2F98DED020A4F4890ED010A8DED0A
:1036F000010A90ED000A8DED000ADDED031A9DED43
:10370000021ADDED010A9DED000AFEF78DFA5FED6C
:10371000BB0A00E045E09FED430AFFF769F98DED34
:10372000030A5FEDC00A9FED3F0AFFF79DF98DED9B
:10373000020A3D4890ED010A8DED010A90ED000A64
:103740008DED000ADDED031A9DED021ADDED010A93
:103750009DED000AFEF768FA334890ED020A8DED00
:10376000030ADFED320A9DED030AFEF7E9FFDFED04
:10377000310A1FEDD50AFFF73BF98DED030ADFEDA6
:103780002D0A1FEDD90AFFF76FF98DED020ADDED65
:10379000031A9DED021A5FEDDE0A1FEDDF0AFEF748
:1037A00043FA069801287DD1049801285ED1059836
:1037B000B0BB5FEDE50A9FED200AFFF719F98DED2B
:1037C000030A5FEDE90A9FED1C0AFFF74DF98DED45
:1037D000020A154890ED010A8DED010A90ED000AEC
:1037E0008DED000ADDED031A9DED021ADDED010AF3
:1037F0009DED000AFEF718FA0B4890ED020A8DEDD8
:10380000030ADFED0E0A9DED030AFEF799FFDFEDD7
:103810000C0A9FED0C0AFFF7EBF88DED030A13E09D
:1038200024E000000080EDC4840300200000344345
:1038300000C00244008089440000E1C4000034C399
:103840000000FFC3000000005FED030A1FED030A44
:10385000FFF70AF98DED020ADDED031A9DED021A5C
:103860005FED080A1FED090AFEF7DEF9049801284A
:103870006FD1059801286CD1DFEDFE0A1FED0F0A0C
:10388000FFF7B6F88DED030ADFEDFA0A1FED130A14
:10389000FFF7EAF88DED020AF74890ED010A8DED89
:1038A000010A00E081E290ED000A8DED000ADDEDF5
:1038B000031A9DED021ADDED010A9DED000AFEF7E7
:1038C000B3F9DFEDEC0A1FED240AFFF791F88DED57
:1038D000030ADFEDE80A1FED280AFFF7C5F88DEDB2
:1038E000020AE54890ED010A8DED010A90ED000A0B
:1038F0008DED000ADDED031A9DED021ADDED010AE2
:103900009DED000AFEF790F9DB4890ED020A8DED7F
:10391000030A5FED360A9DED030AFEF711FF5FED26
:10392000380A1FED380AFFF763F88DED030A5FEDE3
:103930003C0A1FED3C0AFFF797F88DED020ADDED1A
:10394000031A9DED021A5FED410A1FED420AFEF7D0
:103950006BF9049801286DD1059802286AD1DFED32
:10396000C70A1FED480AFFF743F88DED030ADFEDA4
:10397000C30A1FED4C0AFFF777F88DED020ABE4827
:1039800090ED010A8DED010A90ED000A8DED000A1F
:10399000DDED031A9DED021ADDED010A9DED000A31
:1039A000FEF742F9DFEDB50A1FED5D0AFFF720F8DB
:1039B0008DED030ADFEDB10A1FED610AFFF754F840
:1039C0008DED020AAC4890ED010A8DED010A90EDF3
:1039D000000A8DED000ADDED031A9DED021ADDED02
:1039E000010A9DED000AFEF71FF9A34890ED020AB7
:1039F0008DED030A5FED6F0A9DED030AFEF7A0FE51
:103A00005FED710A1FED710AFEF7F2FF8DED030AFB
:103A10005FED750A1FED750AFFF726F88DED020AB6
:103A2000DDED031A9DED021A5FED7A0A1FED7B0AA8
:103A3000FEF7FAF80498022854D10598F0BB5FED20
:103A4000830A1FED800AFEF7D3FF8DED030A5FEDB9
:103A5000870A1FED840AFFF707F88DED020A8648F2
:103A600090ED010A8DED010A90ED000A8DED000A3E
:103A7000DDED031A9DED021ADDED010A9DED000A50
:103A8000FEF7D2F85FED950A1FED950AFEF7B0FF3D
:103A90008DED030A5FED990A1FED990AFEF7E4FF29
:103AA0008DED020A744890ED010A8DED010A90ED4A
:103AB000000A8DED000ADDED031A00E012E09DED35
:103AC000021ADDED010A9DED000AFEF7ADF86A4825
:103AD00090ED020A8DED030A5FEDAC0A9DED030A3D
:103AE000FEF72EFE0498022853D10598012850D1E4
:103AF000DFED630A1FEDAD0AFEF77AFF8DED030AD5
:103B0000DFED5F0A1FEDB10AFEF7AEFF8DED020A91
:103B1000594890ED010A8DED010A90ED000A8DEDF6
:103B2000000ADDED031A9DED021ADDED010A9DED9F
:103B3000000AFEF779F8DFED520A1FEDC10AFEF721
:103B400057FF8DED030ADFED4E0A1FEDC50AFEF7A4
:103B50008BFF8DED020A484890ED010A8DED010AB8
:103B600090ED000A8DED000ADDED031A9DED021ABD
:103B7000DDED010A9DED000AFEF756F83E4890ED96
:103B8000020A8DED030A5FEDD70A9DED030AFEF7E9
:103B9000D7FD0498022830D1059802282DD15FED79
:103BA000D70A1FEDDB0AFEF723FF8DED030A5FED59
:103BB000DB0A1FEDDF0AFEF757FF8DED020A2E48E4
:103BC00090ED010A8DED010A90ED000A8DED000ADD
:103BD000DDED031A9DED021ADDED010A9DED000AEF
:103BE000FEF722F8244890ED020A8DED030A5FEDFE
:103BF000F10A9DED030AFEF7A3FD049878BB059832
:103C000068BB5FEDF00A1FEDF40AFEF7F1FE8DEDE3
:103C1000030A5FEDF40A1FEDF80AFEF725FF8DEDAC
:103C2000020A154890ED010A8DED010A90ED000A97
:103C30008DED000ADDED031A9DED021ADDED010A9E
:103C40009DED000AFDF7F0FF0B4890ED020A8DEDA7
:103C5000030ADFED0C0A9DED030AFEF771FD0498DF
:103C6000E0BB0598012860D1DFED020A9FED060A4E
:103C70000CE0000000C001C48403002000007AC4EE
:103C800000401044000034C300000000FEF7B0FE06
:103C90008DED030A5FED090A1FED050AFEF7E4FE4C
:103CA0008DED020AFE4890ED010A8DED010A90EDBE
:103CB000000A8DED000ADDED031A9DED021ADDED1F
:103CC000010A9DED000AFDF7AFFF5FED160A9FEDBB
:103CD000F50AFEF78DFE8DED030A00E025E05FEDAD
:103CE0001B0A9FEDF00AFEF7BFFE8DED020AEC48BD
:103CF00090ED010A8DED010A90ED000A8DED000AAC
:103D0000DDED031A9DED021ADDED010A9DED000ABD
:103D1000FDF78AFFE24890ED020A8DED030A5FEDA0
:103D2000270A9DED030AFEF70BFD0498E8BB0598F2
:103D3000022852D15FED2F0A1FED2D0AFEF758FE23
:103D40008DED030A5FED330A1FED310AFEF78CFE9D
:103D50008DED020AD24890ED010A8DED010A90ED39
:103D6000000A8DED000ADDED031A9DED021ADDED6E
:103D7000010A9DED000AFDF757FFDFEDCB0A9FED2D
:103D8000C90AFEF735FE8DED030ADFEDC70A9FED88
:103D9000C50AFEF769FE8DED020AC14890ED010AE1
:103DA0008DED010A90ED000A00E016E08DED000AAD
:103DB000DDED031A9DED021ADDED010A9DED000A0D
:103DC000FDF732FFB64890ED020A8DED030A5FED74
:103DD000530A9DED030AFEF7B3FC07B000BD70B5B2
:103DE0002DED048B04460D46012C3FD1012D3DD114
:103DF0009FEDAE0AFEF7A2FD5FED5D0A9FEDAC0AF6
:103E0000FEF7F6FDB0EE408A5FED610A9FEDA80A6D
:103E1000FEF72AFEF0EE408AF0EE481AB0EE681A7D
:103E20005FED670A1FED680AFDF7FEFE9FEDA10A30
:103E3000FEF784FD5FED6C0A9FED9F0AFEF7D8FD4B
:103E4000B0EE408A5FED700A9FED9B0AFEF70CFE14
:103E5000F0EE408A5FED741A1FED751AF0EE480A15
:103E6000FDF7E2FE9FED950AFEF768FD012C7CD17F
:103E7000022D7AD1DFED920A1FED7D0AFEF7B8FD23
:103E8000B0EE408ADFED8E0A1FED810AFEF7ECFDF1
:103E9000F0EE408AF0EE481AB0EE681A5FED860A3E
:103EA0001FED870AFDF7C0FE9FED860A00F0CAFBF2
:103EB0009FED7E0AFEF742FDDFED810A9FED820A4B
:103EC000FEF796FDB0EE408ADFED7D0A9FED7E0A9B
:103ED000FEF7CAFDF0EE408ADFED790A1FED960A83
:103EE000FEF786FDB0EE409ADFED750A1FED9A0AE7
:103EF000FEF7BAFDF0EE409AF0EE481AB0EE681AFE
:103F0000F0EE490AFDF790FEF3EE0E0A9FED6E0A01
:103F1000FEF76EFDB0EE408AF3EE0E0A9FED6A0AE0
:103F2000FEF7A2FDF0EE408ADFED650A9FED660A1E
:103F3000FEF75EFDB0EE409ADFED610A9FED620A8A
:103F4000FEF792FDF0EE409AF0EE481AB0EE681AD5
:103F5000F0EE490AFDF768FE9FED560AFEF7EEFC0B
:103F6000F3EE0E0A1FEDB80A00E027E0FEF740FD71
:103F7000B0EE408AF3EE0E0A1FEDBD0AFEF774FDA7
:103F8000F0EE408AF3EE0E0A9FED4F0AFEF730FD89
:103F9000B0EE409AF3EE0E0A9FED4B0AFEF764FD79
:103FA000F0EE409AF0EE481AB0EE681AF0EE490AC8
:103FB000FDF73AFE9FED410AFEF7C0FCDCBB012D88
:103FC00039D19FED420AFEF7B9FC5FEDD10A9FEDB2
:103FD000380AFEF70DFDB0EE408A5FEDD50A9FED81
:103FE000340AFEF741FDF0EE408AF0EE481AB0EEDA
:103FF000681A5FEDDB0A1FEDDC0AFDF715FE9FED89
:104000002F0AFEF79BFC5FEDE00A9FED290AFEF701
:10401000EFFCB0EE408A5FEDE40A9FED250AFEF763
:1040200023FDF0EE408A5FEDE81A1FEDE91AF0EE8D
:10403000480AFDF7F9FD002C7DD1022D7BD1DFED83
:10404000200A1FEDEF0AFEF7D3FCB0EE408ADFED49
:104050001C0A1FEDF30AFEF707FDF0EE408AF0EEB2
:10406000481AB0EE681A5FEDF80A1FEDF90AFDF77D
:10407000DBFD9FED140A00F0E5FA9FED140AFEF750
:104080005DFCDFED0F0A9FED100AFEF7B1FCB0EE0C
:10409000408ADFED0B0A9FED0C0AFEF7E5FC17E006
:1040A000840300200000E1C4008089C4002099C579
:1040B0000000B4430040B5C50000B94300803BC5D3
:1040C00000007A4300009A420000BE430000B4C3DF
:1040D000F0EE408A5FED060A9FEDFE0AFEF788FCCF
:1040E000B0EE409A5FED0A0A9FEDFA0AFEF7BCFCBB
:1040F000F0EE409AF0EE481AB0EE681AF0EE490A77
:10410000FDF792FDF3EE0E0A1FED110AFEF770FCAB
:10411000B0EE408AF3EE0E0A1FED150AFEF7A4FC7E
:10412000F0EE408A5FED1A0A1FED190AFEF760FCF7
:10413000B0EE409A00E03BE05FED1F0A1FED1E0A63
:10414000FEF792FCF0EE409AF0EE481AB0EE681AD4
:10415000F0EE490AFDF768FD1FED280AFEF7EEFBB9
:10416000F3EE0E0A9FEDDB0AFEF742FCB0EE408A4A
:10417000F3EE0E0A9FEDD70AFEF776FCF0EE408ACA
:10418000F3EE0E0A1FED300AFEF732FCB0EE409A55
:10419000F3EE0E0A1FED340AFEF766FCF0EE409ACD
:1041A000F0EE481AB0EE681AF0EE490AFDF73CFD51
:1041B000BDEC048B70BD70B52DED048B05460C462F
:1041C000012D47D1012C20D11FED400AFEF7B6FB8F
:1041D000DFEDC00A9FEDC00AFEF70AFCB0EE408A90
:1041E000DFEDBC0A9FEDBC0AFEF73EFCF0EE408A14
:1041F000DFEDB81A9FEDB71AF0EE480AFDF714FD8F
:104200009FEDB40AFEF79AFB14E1B9EE040A00F040
:1042100019FA1FED520AFEF791FBDFEDAE0A9FED92
:10422000AE0AFEF7E5FBB0EE408ADFEDAA0A9FED8D
:10423000AA0AFEF719FCF0EE408ADFEDA61A9FED00
:10424000A51AF0EE480AFDF7EFFC9FEDA20AFEF773
:1042500075FBEFE0022C75D11FED640AFEF76EFBD3
:10426000DFED9E0A9FED9B0AFEF7C2FBB0EE408A8F
:10427000DFED9A0A9FED970AFEF7F6FBF0EE408A13
:10428000F0EE481AB0EE681ADFED920A9FED910A3F
:10429000FDF7CAFCDFED910A9FED910AFEF7A8FB3E
:1042A000B0EE408ADFED8D0A9FED8D0AFEF7DCFB54
:1042B000F0EE408ADFED890A9FED860AFEF798FB53
:1042C000B0EE409ADFED850A9FED820AFEF7CCFB47
:1042D000F0EE409AF0EE481AB0EE681AF0EE490A95
:1042E000FDF7A2FCDFED7B0A9FED7D0AFEF780FB68
:1042F000B0EE408ADFED770A9FED790AFEF7B4FB56
:10430000F0EE408ADFED750A9FED750AFEF770FB4F
:10431000B0EE409ADFED710A9FED710AFEF7A4FB43
:10432000F0EE409AF0EE481AB0EE681AF0EE490A44
:10433000FDF77AFC9FED670AFEF700FB00F0B9F984
:1043400078E0FFE71FEDA10A00F07CF91FEDA10A5C
:10435000FEF7F4FADFED610A9FED5E0AFEF748FB17
:10436000B0EE408ADFED5D0A9FED5A0AFEF77CFB56
:10437000F0EE408AF0EE481AB0EE681ADFED550A0A
:104380009FED540AFDF750FCDFED540A9FED540AEF
:10439000FEF72EFBB0EE408ADFED500A9FED500A8B
:1043A000FEF762FBF0EE408ADFED4C0A9FED490A12
:1043B000FEF71EFBB0EE409ADFED480A9FED450A7E
:1043C000FEF752FBF0EE409AF0EE481AB0EE681A93
:1043D000F0EE490AFDF728FCDFED3E0A9FED400AAA
:1043E000FEF706FBB0EE408ADFED3A0A9FED3C0A8D
:1043F000FEF73AFBF0EE408ADFED380A9FED380A0F
:10440000FEF7F6FAB0EE409ADFED340A9FED340A7B
:10441000FEF72AFBF0EE409AF0EE481AB0EE681A6A
:10442000F0EE490AFDF700FC9FED2A0AFEF786FA36
:1044300000F03FF9BDEC048B70BD02466FF0020145
:104440002848D0ED030AF4EEC00AF1EE10FA09D2C2
:10445000D0ED030AB1EE401AF4EEC10AF1EE10FA03
:1044600000DD491C2048D0ED030AF4EEC00AF1EE4D
:1044700010FA09D2D0ED030AB1EE401AF4EEC10AE7
:10448000F1EE10FA00DD491C1848D0ED030AF4EEF5
:10449000C00AF1EE10FA09D2D0ED030AB1EE401ACB
:1044A000F4EEC10AF1EE10FA00DD491C1048D0ED1F
:1044B000030AF4EEC00AF1EE10FA09D2D0ED030AB5
:1044C000B1EE401AF4EEC10AF1EE10FA00DD491C1B
:1044D00091420FE0000000000000964300004843B6
:1044E000000096C3780000209C000020C00000203F
:1044F000E400002001DD012070470020FCE70000FF
:104500001CB50121202002F073FA4FF4C060009026
:1045100001208DF8040000208DF8060003208DF89E
:10452000050001208DF807006946044801F0C2FF2C
:104530004FF4C061014802F039F81CBD001402407C
:104540001CB50121112002F053FA1C20009000201C
:104550008DF8040003208DF8050001208DF8070078
:104560006946354801F0A6FF0120009002208DF831
:1045700007006946314801F09DFF1CBD10B5044697
:1045800014B101202E4908702D480078002837D03A
:104590001021294801F0F0FF78B10821264801F0E8
:1045A000EBFF50B10421244801F0E6FF28B10121BE
:1045B000224801F0E1FF012822D10A2001F0ECF9A4
:1045C00000201F49087010211B4801F0D5FF08B9D1
:1045D000012010BD0821184801F0CEFF08B90220C3
:1045E000F7E70421144801F0C7FF08B90320F0E7FA
:1045F0000121124801F0C0FF01281BD10420E8E787
:1046000010210D4801F0B8FF012813D108210A48F4
:1046100001F0B2FF01280DD10421074801F0ACFFE1
:10462000012807D10121054801F0A6FF10B901209A
:10463000034908700020CCE700100240000002404F
:104640002C00002010B52DED028BB0EE408AB5EEA7
:10465000C08AF1EE10FA0ED89FED3E0A28EE000A4D
:10466000DFED3D0A80EE201A9FED3C0A30EE410A54
:10467000B0EE408A0DE09FED3A0A28EE000A9FED69
:10468000361AC0EE010A9FED350A30EE800AB0EE10
:10469000408ABDEEC80AB8EEC00AB0EE408ABCEE51
:1046A000C80A10EE101A2F4803F0B5FCBDEC028BBF
:1046B00010BD00B58BB00121082002F0E2F9012104
:1046C000084602F095F902220121274801F07DFFFA
:1046D000022009908DF8280003208DF82900002081
:1046E0008DF82A0001208DF82B0009A91E4801F041
:1046F000E1FE5320ADF818000020ADF81A0044F692
:104700001F6007904FF48070ADF8200006A915488F
:1047100003F091FA6020ADF804000120ADF8060026
:104720000220ADF8100001A90E4803F052FB082149
:104730000C4803F0ABFC01210A4803F0E7FA012121
:10474000084803F001FBB9EE040AFFF77BFF0BB04A
:1047500000BD0000004083440000B44200EC9046DD
:10476000004083C4000C00400000024010B501214D
:10477000084602F03DF90121022002F039F9012139
:10478000042002F035F90121082002F031F901215D
:10479000102002F02DF910BD1CB520200090002043
:1047A0008DF8040002208DF8050001208DF8070027
:1047B0006946FE4801F07EFE8020009000208DF8C2
:1047C000040002208DF8050001208DF807006946DD
:1047D000F74801F06FFE2020009000208DF80400C3
:1047E00002208DF8050001208DF807006946F04889
:1047F00001F060FE0820009000208DF804000220E7
:104800008DF8050001208DF807006946E84801F0A1
:1048100051FE0220009000208DF8040002208DF847
:10482000050001208DF807006946E14801F042FECD
:104830004FF48050009000208DF8040002208DF885
:10484000050001208DF807006946DA4801F032FEC4
:104850004FF48060009000208DF8040002208DF855
:10486000050001208DF807006946D24801F022FEBC
:104870004020009000208DF8040002208DF80500F3
:1048800001208DF807006946CB4801F013FE102087
:10489000009000208DF8040002208DF80500012012
:1048A0008DF807006946C34801F004FE012000901E
:1048B00000208DF8040002208DF8050001208DF8FD
:1048C00007006946B94801F0F5FD802000900020FE
:1048D0008DF8040002208DF8050001208DF80700F6
:1048E0006946B64801F0E6FD4FF4007000900020E4
:1048F0008DF8040002208DF8050001208DF80700D6
:104900006946AE4801F0D6FD4FF4006000900020EB
:104910008DF8040002208DF8050001208DF80700B5
:104920006946A64801F0C6FD4FF4005000900020F3
:104930008DF8040002208DF8050001208DF8070095
:1049400069469E4801F0B6FD1CBD10B52021974870
:1049500001F012FE012824D18021954801F00CFEBF
:1049600001281ED12021924801F006FE012818D10D
:1049700008218F4801F000FE012812D102218C4845
:1049800001F0FAFD01280CD101038A4801F0F4FD81
:10499000012806D18102874801F0EEFD012800D1EF
:1049A00010BD0020FCE710B52021804801F0E4FD97
:1049B000B8B980217E4801F0DFFD90B94FF48051F5
:1049C0007C4801F0D9FD60B94FF48061794801F06D
:1049D000D3FD30B90821764801F0CEFD012800D181
:1049E00010BD0020FCE710B5FFF7DDFF48B34FF422
:1049F0000051724801F0C0FD18BB4FF400616F48D0
:104A000001F0BAFDE8B94FF400716C4801F0B4FD53
:104A1000B8B98021694801F0AFFD90B90121634820
:104A200001F0AAFD58B11021624801F0A5FD01284E
:104A300005D04021604801F09FFD012801D10120EF
:104A400010BD0020FCE710B5FFF7ADFF48B34021D3
:104A5000594801F091FD20BB1021564801F08CFD12
:104A6000F8B90121514801F087FDD0B980215348A0
:104A700001F082FDA8B94FF40071504801F07CFDAF
:104A800068B14FF400614D4801F076FD012806D071
:104A90004FF40051494801F06FFD012801D1012078
:104AA00010BD0020FCE72DE9F04105460F461646F3
:104AB0000024082F46D2DFE807F045040E18212A0B
:104AC000333C4FF480613B4801F056FD012801D191
:104AD000601CC4B200BF4FF48051364801F04CFD59
:104AE000012801D1601CC4B200BF0221304801F08E
:104AF00043FD012801D1601CC4B200BF08212C482D
:104B000001F03AFD012801D1601CC4B200BF202190
:104B1000274801F031FD012801D1601CC4B212E028
:104B20008021234801F028FD012801D1601CC4B276
:104B300009E020211D4801F01FFD012801D1601C62
:104B4000C4B200E000BF00BF082E55D2DFE806F077
:104B500054040D161F283E494021174801F00CFD52
:104B6000012801D1601CC4B200BF1021114801F01E
:104B700003FD012801D1601CC4B200BF01210B4814
:104B800001F0FAFC012801D1601CC4B200BF8021F1
:104B90000A4801F0F1FC012801D1601CC4B200BF39
:104BA0004FF40071054801F0E7FC09E00004024001
:104BB000000C0240000802400000024000100240C9
:104BC000012802D1601CC0B2044616E04FF4006117
:104BD000FE4801F0D1FC012802D1601CC0B204469D
:104BE0000BE04FF40051F94801F0C6FC012802D156
:104BF000601CC0B2044600E000BF00BF012D01D020
:104C0000022D06D1012C02D10120BDE8F081002047
:104C1000FBE7032D05D1022C01D10120F5E700208F
:104C2000F3E700BFF1E710B52021E94801F0A4FC4B
:104C3000012811D14103E54801F09EFC01280BD168
:104C40008021E44801F098FC012805D1C102DF4829
:104C500001F092FC01287DD08021DE4801F08CFC1F
:104C6000012811D1C102D94801F086FC01280BD1DD
:104C70002021D84801F080FC012805D14102D34809
:104C800001F07AFC0128E6D02021D24801F074FC22
:104C9000012811D14102CD4801F06EFC01280BD151
:104CA0000821CC4801F068FC012805D18021C748C3
:104CB00001F062FC0128CED00821C64801F05CFC5E
:104CC000012811D18021C14801F056FC01280BD1E7
:104CD0000221C04801F050FC012805D10121BC4847
:104CE00001F04AFC0128B6D00221BA4801F044FC88
:104CF000012811D10121B64801F03EFC01280BD159
:104D00000103B54801F038FC012805D11021B24853
:104D100001F032FC01289ED04FF48051AE4801F0E2
:104D20002BFC012811D11021AB4801F025FC0128F2
:104D30000BD18102A84801F01FFC012805D14021B8
:104D4000A64801F019FC012885D02021A04801F0D7
:104D500013FC00E096E0012811D141039B4801F0CB
:104D60000BFC01280BD180219A4801F005FC30B9D9
:104D70004FF40061954801F0FFFB00289BD02021F3
:104D8000934801F0F9FBE8B94FF400518F4801F066
:104D9000F3FBB8B980218F4801F0EEFB012811D157
:104DA000C1028A4801F0E8FB01280BD12021894883
:104DB00001F0E2FB30B94FF40071844801F0DCFBF4
:104DC00000287AD08021834801F0D6FBD8B94FF46F
:104DD00000617E4801F0D0FBA8B920217D4801F098
:104DE000CBFB01280FD14102784801F0C5FB012817
:104DF00009D10821774801F0BFFB20B98021734811
:104E000001F0BAFBF0B30221724801F0B5FBD8B94A
:104E100001216F4801F0B0FBB0B908216D4801F0E5
:104E2000ABFB012810D18021684801F0A5FB0128C7
:104E30000AD12021674801F09FFB28B94FF4007187
:104E4000624801F099FBE8B10821624801F094FB47
:104E5000E0B980215D4801F08FFBB8B902215D48BF
:104E600001F08AFB012811D10121594801F084FB8E
:104E700001280BD10103584801F07EFB30B9102105
:104E8000554800E019E001F077FBB0B14FF48051D4
:104E9000514801F071FB012811D110214E4801F059
:104EA0006BFB01280BD181024B4801F065FB30B947
:104EB00040214A4801F060FB08B9012010BD0020E4
:104EC000FCE710B52021424801F056FB08BB8021C9
:104ED000404801F051FBE0B920213E4801F04CFB75
:104EE000B8B908213B4801F047FB90B90221394885
:104EF00001F042FB68B94FF48051374801F03CFBA8
:104F000038B94FF48061344801F036FB08B901200C
:104F100010BD0020FCE710B54021304801F02CFB0B
:104F200010BB10212C4801F027FBE8B901212848CB
:104F300001F022FBC0B98021244801F01DFB98B983
:104F40004FF40071214801F017FB68B94FF400617C
:104F50001E4801F011FB38B94FF400511B4801F015
:104F60000BFB08B9012010BD0020FCE770B5054619
:104F700000242021164801F0FFFA012801D1601C0D
:104F8000C4B28021134801F0F7FA012801D1601C56
:104F9000C4B220210F4801F0EFFA012801D1601CB2
:104FA000C4B208210B4801F0E7FA012801D1601CC6
:104FB000C4B20221074801F0DFFA012801D1601CC8
:104FC000C4B24FF4805104480AE0000000100240CF
:104FD00000040240000C02400008024000000240B1
:104FE00001F0CAFA012801D1601CC4B24FF48061FB
:104FF000FE4801F0C1FA012801D1601CC4B2AC42E4
:1050000001DB012070BD0020FCE710B54FF480618A
:10501000F64801F0B1FA18BB4FF48051F34801F0A3
:10502000ABFAE8B90221F24801F0A6FAC0B90821AA
:10503000EF4801F0A1FA98B92021EE4801F09CFA5E
:1050400001280BD08021EA4801F096FA012805D00A
:105050002021E74801F090FA012801D1012010BD7C
:105060000020FCE710B52021E24801F085FA20BBC2
:105070008021DF4801F080FAF8B92021DC4801F0F6
:105080007BFAD0B90821DA4801F076FAA8B94FF4D2
:105090008061D64801F070FA01280CD04FF480519D
:1050A000D24801F069FA012805D00221D04801F068
:1050B00063FA012801D1012010BD0020FCE710B5E2
:1050C0004FF48061C94801F057FAB0B94FF48051EC
:1050D000C64801F051FA80B92021C64801F04CFAC7
:1050E00058B98021C24801F047FA30B90821C048B8
:1050F00001F042FA012800D110BD0020FCE710B5F4
:105100009FEDBD2AF3EE0E1ABBEE0E1AFBEE0E0A51
:10511000B3EE0E0AFCF754FC012000F03DFC10BD7C
:1051200010B59FEDB52AFBEE0E1AB3EE0E1AF3EE94
:105130000E0ABBEE0E0AFCF743FC012000F02CFC2B
:1051400010BD10B59FEDAC2AF3EE0E1AB3EE0E1A99
:10515000FBEE0E0ABBEE0E0AFCF732FC012000F05B
:105160001BFC10BD10B59FEDA42AFBEE0E1ABBEE82
:105170000E1AF3EE0E0AB3EE0E0AFCF721FC012024
:1051800000F00AFC10BD10B59FED9B2ADFED9A1AC6
:105190009FED991ADFED980A9FED970AFCF710FC36
:1051A000012000F0F9FB10BD10B59FED932AF3EE3E
:1051B0000E1AB3EE0E1AF3EE0E0AB3EE0E0AFCF759
:1051C000FFFB012000F0E8FB10BD10B59FED8A2A1F
:1051D000FBEE0E1ABBEE0E1AFBEE0E0ABBEE0E0A2B
:1051E000FCF7EEFB012000F0D7FB10BD0020834947
:1051F00008708349087083490870834908707047B4
:1052000010B5FFF75EFE00287BD0FFF784FE002874
:10521000FAD0FFF708FD48B17A480078012805D197
:105220000020794908700220764908707548007896
:1052300000283BD1724800787049087002207049FC
:1052400008707148007808BB4FF48061674801F02E
:1052500093F901280AD140216C4801F08DF9012809
:1052600004D169490870674908701FE0FFF753FED1
:1052700068B14FF480615D4801F07EF9012806D1E4
:1052800002206149087001205E4908700EE040214B
:105290005E4801F071F9012808D1FFF712FE28B12C
:1052A0000320594908700120564908705548007874
:1052B000012838D154480078012810D108214C48E1
:1052C00001F05AF901282ED102204E4908704C48AD
:1052D00000784A49087001204949087023E04A488B
:1052E000007802280ED18021414801F045F90128BB
:1052F00019D143480078414908700420404908709A
:1053000011E0B6E04048007803280CD1022138486B
:1053100001F032F9012806D1394800783749087080
:1053200005203749087037480078022839D1FFF73F
:10533000C6FE38B132480078304908700120304943
:1053400008702EE0FFF78EFE38B12D4800782B490B
:10535000087002202A49087023E0FFF756FE38B192
:10536000274800782549087003202549087018E06F
:105370000620FFF7FBFD50B1214800781F49087057
:1053800000201F4908700A201E49087009E0FFF735
:1053900098FD30B11A480078184908700020184963
:1053A00008701748007898BBFFF78BFD80B315484D
:1053B0000078022833D111480078022801D1104921
:1053C00008700E480078032801D10D4908700B4879
:1053D0000078012823D10620FFF7C8FDE0B10020A6
:1053E00007490870054908700A2012E000080240C9
:1053F000000C024000040240000000002E000020CB
:105400002D0000202F00002030000020000002406E
:1054100005E0B549087002E00120B4490870B348BE
:105420000078062816D2DFE800F00C0306090F12F8
:10543000FFF765FE12E0FFF784FE0FE0FFF792FE34
:105440000CE0FFF7A0FE09E0FFF7AEFE06E0FFF775
:10545000BCFE03E00A2000F09FFA00BF00BF062058
:10546000FFF784FD18B1FFF78EFE012010BD00206C
:10547000FCE7FFF7D8FB48B19B480078012805D12D
:1054800000209B49087002209749087096480078D0
:1054900050BB9648007897490870022093490870DD
:1054A0009348007800BB2021934801F065F801285B
:1054B0000AD14103914801F05FF8012804D18C49D9
:1054C0000870894908701FE0FFF7FBFC68B14FF4D2
:1054D00000518A4801F050F8012806D10220844981
:1054E00008700120804908700EE02021824801F0F8
:1054F00043F8012808D1FFF70EFD28B103207C49AD
:1055000008700120784908707748007801285CD13C
:1055100077480078012818D10821794801F02CF843
:1055200001280AD10220704908707048007871493A
:10553000087001206D49087047E06C4800786D499B
:1055400008700320694908703FE069480078022824
:105550001BD120216A4801F00FF8012805D008214D
:10556000674801F009F8012807D1604800786149CF
:10557000087004205D49087027E05C4800785D49A8
:1055800008700320594908701FE059480078032823
:105590001BD14FF480515B4800F0EEFF012805D08D
:1055A0000221574800F0E8FF012807D14F48007852
:1055B0005049087005204D49087006E04B480078B6
:1055C0004C49087003204949087047480078022870
:1055D00036D1FFF774FD38B144480078454908706A
:1055E0000120424908702BE0FFF73CFD38B13F48ED
:1055F00000784049087002203C49087020E0FFF71D
:1056000004FD38B1394800783A4908700320374919
:10561000087015E00620FFF7A9FC38B13348007880
:105620003449087000203149087009E0FFF749FC4F
:1056300030B12E4800782F49087000202B4908709F
:105640002A48007810BBFFF73CFCF8B126480078E8
:1056500002281FD127480078022801D12349087069
:1056600024480078032801D1204908702148007897
:1056700001280FD10620FFF779FC40B100201B491B
:1056800008701C4908700A201749087002E00120C0
:105690001649087015480078062816D2DFE800F091
:1056A0000C0306090F12FFF72AFD12E0FFF749FD70
:1056B0000FE0FFF757FD0CE0FFF765FD09E0FFF78E
:1056C00073FD06E0FFF781FD03E00A2000F064F9B6
:1056D00000BF00BF0620FFF749FC18B1FFF753FDDC
:1056E0000120C3E60020C1E62F0000202D0000208D
:1056F000300000202E000020000402400010024074
:10570000000C0240000802402DE9FE4F00200090EE
:10571000019002904FF0060900266C4F002580464C
:105720000024824622E06D1C022D00D81EE04FF4BA
:10573000FA7000F0E9F86946002000F0A3FA00983A
:1057400080440098B04200D9009E0098B84200D230
:10575000009F9FED5F2ADFED5E1A9FED5D1ADFED82
:105760005C0A9FED5B0AFCF72BF900BF4D45DAD9C7
:10577000A8EB0600C01B0321B0FBF1F440F28A2025
:10578000844201D34FF0000AB4F5D77F04D3B4F5B7
:10579000F77F01D24FF0010AB4F5B67F04D9B4F512
:1057A000D67F01D24FF0020A5046BDE8FE8F2DE9A8
:1057B000FE4F064600200090019002904FF0060A2E
:1057C0000027DFF808810025814600248346002E4B
:1057D0003CD023E06D1C022D00D81FE04FF4FA707E
:1057E00000F092F86946002000F0C5FA0098814464
:1057F0000098B84200D9009F0098404501D2DDF8DA
:1058000000809FED332ADFED321A9FED311ADFED74
:10581000300A9FED2F0AFCF7D3F800BF5545D9D9C0
:10582000A9EB0700A0EB08000321B0FBF1F4B4F5ED
:10583000977F04D3B4F5B47F01D84FF0010BFA2C55
:1058400004D3B4F5957F01D24FF0020B5846BDE862
:10585000FE8F2DE9FE4F00200090019002904FF046
:1058600004090025194E002400278046824619E0CD
:10587000641C022C00D815E04FF4FA7000F044F8D4
:105880006946002000F003FB009807440098A842F6
:1058900000D9009D0098B04200D2009E012000F087
:1058A0007BF800BF4C45E3D9B81BA0EB0508B8F561
:1058B000C87F05D3B8F5487F02D84FF0030A01E04E
:1058C0004FF0000A5046BDE8FE8F0000FFC99A3B2A
:1058D0000000000010B504466FF0040000F046FD23
:1058E000E11704EB5171C1F3C701394A1170104639
:1058F000007800EB4001C1EBC0104FF6FF7101EAE8
:10590000C0003449088010BD0146314A12784A432C
:105910004FF0E0235A6100229A611A46126942F060
:1059200001021A6100BF4FF0E022106900F001028D
:105930001AB100F48032002AF5D04FF0E02212694B
:1059400022F001024FF0E0231A6100229A617047B1
:105950000146204A12884A434FF0E0235A61002250
:105960009A611A46126942F001021A6100BF4FF0B3
:10597000E022106900F001021AB100F48032002A1E
:10598000F5D04FF0E022126922F001024FF0E0233F
:105990001A6100229A61704770B504464FF407708F
:1059A00094FBF0F0C6B24FF4077094FBF0F100FBEB
:1059B000114085B205E04FF40770FFF7C9FF701E74
:1059C000C6B2002EF7D115B12846FFF7C1FF70BD52
:1059D000320000203400002000BF704700BFFE4AA4
:1059E000128802F04002002AF9D0C2B2FA4B9A8023
:1059F000704710B588B004460121084600F0F8FF52
:105A00000121102001F04EF807220921F34800F08F
:105A1000DCFD07220A21F14800F0D7FD4FF4C060F9
:105A2000069002208DF81C008DF81D0000208DF8D6
:105A30001E0001208DF81F0006A9E84800F03AFD7D
:105A400002940020ADF80C00ADF80E00ADF8100087
:105A5000ADF814000C20ADF8120002A9DE4801F0E8
:105A600082F90121DC4801F006FA012240F22551B9
:105A7000D94801F0B6FA25208DF8040003208DF8EE
:105A800005008DF8060001208DF8070001A800F040
:105A900020FC08B010BD10B588B0044601210220DA
:105AA00000F0A6FF0121880400F0EBFF07220B2184
:105AB000CB4800F08AFD07220A21C94800F085FD85
:105AC0004FF44060069002208DF81C008DF81D00F8
:105AD00000208DF81E0001208DF81F0006A9C04887
